:020000040800F2
:1000000038240020018D00089D0D00089F0D000878
:10001000AF0D0008B30D0008B70D00080000000088
:10002000000000000000000000000000138D000828
:10003000BB0D000800000000178D0008198D000896
:100040001B8D00081B8D00081B8D00081B8D0008F0
:100050001B8D00081B8D00081B8D00081B8D0008E0
:100060001B8D00080D2D00081B8D00081B8D00083E
:10007000E3380008813C000825390008573C000897
:100080001B8D00081B8D00081B8D00082926000809
:1000900045260008692600081B8D00081B8D0008F6
:1000A0001B8D00081B8D00081B8D00081B8D000890
:1000B0001B8D00081B8D00081B8D00081B8D000880
:1000C0001B8D00081B8D00081B8D00081B8D000870
:1000D0001B8D0008372200088F330008F93700080D
:1000E0001B8D00081B8D00081B8D00081B8D000850
:1000F0001B8D00081B8D00081B8D00082F3F00087A
:100100001B8D00081B8D0008092E00081B8D0008A0
:100110006F3B0008C13E00081B8D00081B8D0008C6
:100120001B8D0008594200085D2300081B8D000844
:100130001B8D00081B8D00081B8D0008AF290008CF
:10014000CB2900086D2B00081B8D00081B8D0008B3
:100150001B8D0008B942000873230008ED41000818
:100160001B8D00081B8D00081B8D00081B8D0008CF
:100170001B8D00081B8D00081B8D00081B8D0008BF
:100180001B8D00081B8D000800F002F800F092F8AB
:100190000AA090E8000C82448344AAF10107DA45E2
:1001A00001D100F087F8AFF2090EBAE80F0013F0A2
:1001B000010F18BFFB1A43F0010318475CD700007A
:1001C0007CD70000103A24BF78C878C1FAD852070B
:1001D00024BF30C830C144BF04680C6070470000C1
:1001E0000023002400250026103A28BF78C1FBD840
:1001F000520728BF30C148BF0B6070476E2909F015
:100200006180702909F0C98366290DF0C1806529D4
:100210000DF0BE8067290DF0BB8061290DF0BA801A
:1002200003681B0A28BF41F08001692908F078861D
:10023000642908F07586752908F072866F2909F01F
:100240005683782909F09583E92909F0F182E42998
:1002500009F0EE82F52909F0EB82EF2909F05383CA
:10026000F82909F094830368DB0928BF41F0800175
:10027000632909F07282732909F07782E32909F072
:10028000AD85F32909F0B285002070471FB50DF048
:100290003EF809F08DFB0400002000210CF05CF911
:1002A000401C6060002000210CF040F9E0601FBDA0
:1002B00010B510BD09F034FE1146FFF7E7FF00F05E
:1002C0007CFB09F05BFE03B4FFF7F2FF03BC03F015
:1002D00097F9000010B54FF4A06005F0A7FFA82023
:1002E00002F06AF803F03AF903F050F903F06EF9FE
:1002F0004FF4E13001F0A6FE02F0E6FF4FF47A7011
:1003000002F0BCF8012002F0E7F8C82002F0B6F8CD
:1003100040F2015002F016FA642002F0AFF85321C7
:1003200040F2CF7002F038FDFEA002F001F810BDDF
:100330002DE9FE4F8046894692460026002500247E
:100340000027A3460020029001900090A9F57A7042
:1003500005B2A8F57A7004B2AAF57A7007B2002C3B
:1003600001DD204600E06042B0F5967F7BDD002D88
:1003700001DD284600E06842B0F5967FF6DDEE48E4
:1003800090ED000AED4880ED000AB4F5967F21DD7E
:1003900015F5967F1EDA9FEDEA0AE74880ED000A20
:1003A000002C01DD204600E06042002D01DD2946E1
:1003B00000E069420844404200EE100AB8EEC00A6C
:1003C000DFEDE00A20EE200ABDEEC00A10EE100AB2
:1003D00006B2C1E014F5967F21DA15F5967F1EDA94
:1003E0009FEDD90AD44880ED000A002C01DD20469B
:1003F00000E06042002D01DD294600E0694208442A
:10040000404200EE100AB8EEC00ADFEDCE0A20EE40
:10041000200ABDEEC00A10EE100A06B29CE014F5E8
:10042000967F21DAB5F5967F1EDD9FEDC50AC2489D
:1004300080ED000A002C01DD204600E06042002D26
:1004400001DD294600E06942084400EE100AB8EEDA
:10045000C00ADFEDBC0A20EE200ABDEEC00A10EE95
:10046000100A06B278E023E0B4F5967F74DDB5F5A6
:10047000967F71DD9FEDB40AAF4880ED000A002C35
:1004800001DD204600E06042002D01DD294600E04C
:100490006942084400EE100AB8EEC00ADFEDA90A6E
:1004A00020EE200ABDEEC00A10EE100A06B253E09C
:1004B000002C01DD204600E06042B0F5967F26DD8D
:1004C000002D01DD284600E06842B0F5967F1EDA77
:1004D000994890ED000A994880ED000AB4F5967F9E
:1004E00008DD9FED9A0A944880ED000AA4F5967005
:1004F00006B231E014F5967F2EDA9FED950A8E480C
:1005000080ED000A04F59670404206B224E0002C0B
:1005100001DD204600E06042B0F5967F1CDA002D38
:1005200001DD284600E06842B0F5967F14DD824880
:1005300090ED000A814880ED000A9FED860A7E4812
:1005400080ED000AB5F5967F03DDA5F5967006B23D
:1005500002E005F5967006B2002F01DD384600E096
:100560007842B0F5967F7DDDB7F5967F03DDA7F580
:10057000967006B202E007F5967006B26E4890EDEE
:10058000000A6E4880ED000A9FED6F0A6A4880ED10
:10059000000A6A4890ED000A6748D0ED000A30EE84
:1005A000600AB5EEC00AF1EE10FA08DD634890ED7E
:1005B000000A6148D0ED000A30EE600A09E05F48A9
:1005C00090ED000A5C48D0ED000A30EE600AB1EE12
:1005D000400AF3EE040AB4EEE00AF1EE10FA02DD8E
:1005E00019205D4908805C480088401E00B25A49C5
:1005F00008800846B0F90000002844DC002008808C
:1006000006EB460000B25549088006EB460000B2F2
:100610005349088006EB460000B25249088006EBB9
:10062000460000B250490880434890ED000AB1EE00
:10063000400ADFED4E0A20EE200ABDEEC00A10EEA1
:1006400010BA90ED000ADFED490A20EE200ABDEE57
:10065000C00A8DED020A90ED000AB1EE400ADFED0E
:10066000430A00E010E020EE200ABDEEC00A8DED46
:10067000010A90ED000ADFED3D0A20EE200ABDEEF2
:10068000C00A8DED000A1EE1002C01DD204600E0CD
:100690006042B0F5967F71DA002D01DD284600E05A
:1006A0006842B0F5967F69DA9FED2A0A224880ED0C
:1006B000000A0026704200EB800028490880704242
:1006C00000EB80002649088006EB8600254908805B
:1006D00006EB860024490880174890ED000ADFEDFC
:1006E000230A20EE200ABDEEC00A10EE10BA90EDEB
:1006F000000ADFED1E0A20EE200ABDEEC00A8DEDD5
:10070000020A90ED000ADFED190A20EE200ABDEE84
:10071000C00A8DED010A90ED000ADFED140A20EE0B
:10072000200A26E073797320696E69742066696E09
:10073000697368210D0A00000400002008000020F1
:10074000000034C29A99193F000034420000B442BC
:100750000000B4C200000000000000206C00002077
:100760006E0000207000002072000020CD380E4581
:1007700004E0BDEEC00A8DED000AA4E0FE4890ED55
:10078000000AFE48D0ED000A30EE600AB5EEC00A5D
:10079000F1EE10FA08DDF84890ED000AF748D0EDC8
:1007A000000A30EE600A09E0F34890ED000AF348D1
:1007B000D0ED000A30EE600AB1EE400ADFEDF00A3B
:1007C000B4EEE00AF1EE10FA03DD2020ED490880D6
:1007D00029E0E94890ED000AE848D0ED000A30EE43
:1007E000600AB5EEC00AF1EE10FA08DDE24890EDBD
:1007F000000AE248D0ED000A30EE600A09E0DE4867
:1008000090ED000ADD48D0ED000A30EE600AB1EE4E
:10081000400AF3EE0E0AB4EEE00AF1EE10FA02DD41
:100820001420D8490880D7480088401E00B2D54916
:1008300008800846B0F9000000281BDC0020088072
:10084000704200EB4000400000B2CF490880704287
:1008500000EB4000400000B2CC49088006EB4600A7
:10086000400000B2CA49088006EB4600400000B2D2
:10087000C8490880C14890ED000A5FED440A20EEA7
:10088000200ABDEEC00A10EE10BA90ED000A5FED2E
:10089000490A20EE200ABDEEC00A8DED020A90ED55
:1008A000000A5FED4E0A20EE200ABDEEC00A8DED73
:1008B000010A90ED000A5FED530A20EE200ABDEE1A
:1008C000C00A8DED000A4FF44831584600F0A1FDF2
:1008D000B14908604FF44831029800F09AFDAF49E1
:1008E00008604FF44831019800F093FDAC4908606E
:1008F0004FF44831009800F08CFDAA490860BDE82B
:10090000FE8F2DE9F04704460D469146002600274C
:10091000B046A9F57A700FFA80F8A5F57A7007B29B
:10092000A4F57A7006B2B6F5967F02DD03F0F3FF08
:1009300007E016F5967F02DA03F0F4FF01E003F01A
:10094000F9FFB7F5967F02DD03F0FAFF07E017F530
:10095000967F02DA03F0FCFF01E004F000F8B8F53E
:10096000967F02DD04F001F807E018F5967F02DAC1
:1009700004F002F801E004F006F8BDE8F08710B5D5
:1009800089480078401C8849087008460078142877
:1009900012DD864800880D280ED18548007858B1B0
:1009A00084484388844842888448017884A001F0C0
:1009B000BFFC00207C49087010BD2DED048B82B077
:1009C0009FED860BB0EE408AF0EE608AFFF782FC66
:1009D00003F0A6FD642001F051FDD6E181480078C6
:1009E0000028FAD000F0BBFC7448007830B1012830
:1009F0000FD0022867D003280AD187E103F010FF47
:100A000003F07BFF642001F039FD77A001F090FC3A
:100A1000B1E1664800880D280FD10121084600F099
:100A200001FD7548008802B27448008801B274481C
:100A3000008800B2FFF77CFC19E05C4800880128C0
:100A40000DD17048008802B26C48008801B26C4831
:100A5000008800B2FFF755FF03F0E2FE07E05348BD
:100A600000880F2803D10121084600F0DBFC66480E
:100A70000088642826DD9FED653B9FED662B9FED8A
:100A8000671B9FED680B05F023FAB0EE408AF0EE8D
:100A9000608A9FED663B9FED672B9FED681B9FED86
:100AA000690B05F067F8B0EE409AF0EE609A6420AA
:100AB00001F0E4FC8DED009B53EC182B63A001F0DA
:100AC00037FC00BF57E16948007860B1674840785B
:100AD00048B96748007830B9012065490870634813
:100AE0000078624948706248007809280ED2DFE831
:100AF00000F0050E0D1A2A310DFF4200642001F0AE
:100B0000BDFC00F074FC5BA001F012FCFCE00121D4
:100B1000084600F087FC0121084600F062FB012036
:100B200000F0EAFAF0E00021022000F07BFC5D48D2
:100B3000007838B15B480078072803D002210020F4
:100B400000F04FFBE0E0642001F098FC56A001F0BB
:100B5000EFFBD9E00021012000F064FC5E48007842
:100B600030B15D480078072802D0002000F0C4FAB8
:100B700002210120B3E0C3E00800002004000020AF
:100B800000007042000000206C0000206E00002079
:100B90007000002072000020740000207800002007
:100BA0007C000020800000200C000020500000206D
:100BB0004A0000209C000020980000201600002021
:100BC0006D6F64653A256420686D63663A2564201C
:100BD000686D63623A25640D0A00000000000000A1
:100BE000000000003C0000207374616E6462792E86
:100BF0002E2E0D0A000000004800002044000020B6
:100C000042000020460000204E000020C5D84E03C0
:100C100022843E40BAA0053B9A9E5D408A6F56B43E
:100C200021843E40B40C482D9A9E5D40A13B987FA4
:100C30003ADC3E4044A32FCCFFB25D40D188E30AAA
:100C400039DC3E40C49F974000B35D407374616ED1
:100C50006462792C6469732069733A256C666D2C23
:100C6000616E673A256C660D0A0000000D000020D9
:100C7000170000207461736B206F6B2C706C616EB9
:100C80006520696E20686F6D652C616776206973D9
:100C9000206368617267696E67206E6F772E2E2EF3
:100CA0000D0A0000150000207461736B206F6B2C1F
:100CB000706C616E65206F757420686F6D652C6156
:100CC0006776206973206368617267696E67206E5A
:100CD0006F772E2E2E0D0A001400002008E000F081
:100CE00080FA2A480078072801D1294908700BE0CA
:100CF0000121022000F096FB022000F0FDF903E044
:100D000000202349087000BF00BF34E0214B93ED61
:100D1000030ABDEEC00A10EE103A1AB21D4B93ED55
:100D2000020ABDEEC00A10EE103A19B2194B93ED4B
:100D3000010ABDEEC00A10EE103A18B2FFF7F8FA39
:100D4000144B93ED060ABDEEC00A10EE103A1AB22B
:100D5000104B93ED050ABDEEC00A10EE103A19B221
:100D60000C4B93ED040ABDEEC00A10EE103A18B217
:100D7000FFF7C7FD00BF00BF00F01DFB00F01AFB2E
:100D800002F0F6FA00200449087027E6150000205A
:100D900017000020D80000203C000020704705E02C
:100DA00006A001F0C5FA642001F068FBF8E700BF77
:100DB000FEE700BFFEE700BFFEE7704768617264B0
:100DC0006661756C742E2E2E0D0A000010B5A2B04F
:100DD0000024802102A808F0D4F900200190F1221B
:100DE0002146641C02A8425401222146641C42543C
:100DF000641CBB4890ED000A8DED010A9DF80420AB
:100E00002146641C02A842549DF805202146641C1A
:100E100042549DF806202146641C42549DF8072048
:100E20002146641C4254AE4890ED010A8DED010A42
:100E30009DF804202046611CCCB202A90A549DF8FA
:100E400005202046611CCCB202A90A549DF8062058
:100E50002046611CCCB202A90A549DF80720204606
:100E6000611CCCB202A90A549D4890ED020A8DED96
:100E7000010A9DF804202046611CCCB202A90A5444
:100E80009DF805202046611CCCB202A90A549DF8A9
:100E900006202046611CCCB202A90A549DF8072006
:100EA0002146601CC4B202A8425408222046611C9C
:100EB000CCB202A90A5419222046611CCCB202A964
:100EC0000A548DF80A40A01EC1B202A802F024FB09
:100ED000A11E02AA5054214602A801F017FA22B01E
:100EE00010BD10B58178022900DA10BD8B1EC25CDE
:100EF0000378F12B01D1012300E000234478022C78
:100F000001D1012400E00024234033B1C378754CA3
:100F100023700379E3704379237100BFE5E710B5CF
:100F20008178022900DA10BD8B1EC25C0378712B18
:100F300001D1012300E000234478082C01D10124D1
:100F400000E000242340E3B3C378674C6370037967
:100F5000A3704379E370C379847943EA042300EEF4
:100F6000103AB8EEC00A604B83ED010A437A047A66
:100F700043EA042300EE103AB8EEC00A5A4B83ED60
:100F8000020AC37A847A43EA042300EE103AB8EEE8
:100F9000C00A554B83ED030A437B047B43EA0423D9
:100FA00000EE103AB8EEC00A4F4B83ED040AC37B43
:100FB000847B43EA042300EE103AB8EEC00A4A4BA1
:100FC00000E00CE083ED050A437C047C43EA042343
:100FD00000EE103AB8EEC00A434B83ED060A00BF9C
:100FE000A1E710B590B000244021684608F0C9F888
:100FF0003E480078401C3D490870084600780A28A1
:101000006BDD0020087071222046611CCCB20DF807
:10101000002007222046611CCCB20DF80020601C85
:10102000C4B2334802782046611CCCB20DF80020CF
:1010300000222046611CCCB20DF800202046611C25
:10104000CCB20DF800202B4802782046611CCCB2AF
:101050000DF80020274842782046611CCCB20DF8DC
:101060000020244882782046611CCCB20DF8002074
:101070002048C2782046611CCCB20DF800201D48E3
:1010800002792046611CCCB20DF800201948427943
:101090002046611CCCB20DF8002000222046611CC5
:1010A000CCB20DF8002008222046611CCCB20DF80D
:1010B000002019222046611CCCB20DF800208DF8CA
:1010C0000240A01EC1B2684602F026FAA11E0DF829
:1010D00001002146684602F0ACFD10B010BD0000D2
:1010E000980E00200D000020D800002012000020E3
:1010F000160000203200002010B50446002C47D016
:10110000F9480078012806D0022814D0032822D0FC
:1011100004283CD132E003F01BFCF448807802281C
:1011200008D1F248C078022804D103F018FC02204C
:10113000ED4908702BE003F01FFCEC480079012812
:1011400008D1EA484079012804D103F01CFC0320AF
:10115000E54908701BE003F0DEFBE4480078012855
:101160000BD1E2484078012807D103F0E3FB0420CB
:10117000DD490870DEA001F0DBF808E00720DA495D
:101180000870012C02D10320E049087000BF27E05D
:1011900000BF03F0DDFB03F0EFFB03F0BCFBD34823
:1011A00080780228F5D1D148C0780228F1D1CF4803
:1011B00000790128EDD1CD4840790128E9D1CB480B
:1011C00000780128E5D1C94840780128E1D103F031
:1011D000C6FB03F0D8FB03F0ADFBCDA001F0A8F8EF
:1011E00010BD70B505460C46012D70D1CF48007872
:1011F000012812D1CD48407801280ED1CB48807803
:1012000058B9CA48C07840B90120C9490870C749CF
:101210008870C870C7A001F08BF8022C3CD1C4487C
:101220000078012804D0022812D0032833D12EE000
:1012300003F09BFBAD480079022808D1AB48407908
:10124000022804D103F09FFB0220B949087022E074
:1012500003F076FB03F066FBA4480078022815D162
:10126000A2484078022811D1A048807801280DD1E9
:101270009E48C078012809D103F071FB03F05AFBA6
:101280000320AB490870B1A001F052F803E0072039
:10129000A749087000BF61E0012C5FD1A448007825
:1012A000012804D0022813D0032834D12FE003F002
:1012B00039FB8E480078022808D18C4840780228F3
:1012C00004D103F037FB02209949087023E023E0A2
:1012D00003F036FB03F049FB84480079022815D15E
:1012E00082484079022811D18048807801280DD1A8
:1012F0007E48C078012809D103F031FB03F043FB9D
:1013000003208B49087091A001F012F803E0072038
:101310008749087000BF21E005BB00BF03F025FB33
:1013200003F000FB714800790228F7D16F4840793B
:101330000228F3D16D4800780228EFD16B4840783D
:101340000228EBD103F01FFB03F009FB03F0F2FAD4
:1013500000207749087083A000F0EAFF70BD88483C
:101360000078012802D18749087022E08648007879
:10137000012803D10220834908701AE082480078CE
:10138000022803D100207F49087012E07E480078CF
:10139000032805D100207B4908705C49087008E0EB
:1013A0007748007828B97848007810B90020754946
:1013B00008707047704710B54FF48061734805F0AE
:1013C000CFFF18B901205949087002E000205749A1
:1013D00008704FF480516D4805F0C2FF18B9012024
:1013E0005249487002E000205049487010BD00206A
:1013F000674908706749087067490870674908704D
:10140000674908706749087067490870674908703C
:101410007047884201DD084603E04A42904200DA04
:10142000484270472DE9F0412DED028B05460E46EE
:1014300000249FED5F0AB0EE408A00275D480088D7
:10144000401C5C490880084600880A2848DD0020C6
:10145000088059494888594903F0B4FA58494888DE
:10146000584903F0AFFA2048007848B11E48007888
:10147000072805D000BF9FED4E0AB0EE408A04E277
:101480002B48007850B12A480078072806D000245D
:101490009FED470AB0EE408A0027F0E74948C07840
:1014A00000281ED0012E1DD1022D1CD138480078F5
:1014B000A8B938480078401C3649087008460078BA
:1014C000062804DB062008700120314908706FF0FF
:1014D00095049FED370AB0EE408A002774E077E06C
:1014E000F5E322E236E1C7E01400002032000020DC
:1014F00072656C6561736520706C616E65206973DF
:10150000206F6B2E2E2E0D0A000000001700002009
:101510007069636B706C616E65206973206F7065B4
:101520006E206F6B2E2E2E0D0A0000001900002079
:101530001500002066696E6420706C616E6520691C
:1015400073206F6B2E2E2E0D0A0000007069636BE6
:1015500020706C616E65206973206F6B2E2E2E0DCE
:101560000A0000007069636B206D616368696E65D5
:1015700020697320636C6F73652E2E2E0D0A000098
:101580004A000020160000200D000020001002403C
:101590001D0000201E0000201F0000202000002051
:1015A0002100002022000020230000202400002031
:1015B000000000002600002098000020A00000206D
:1015C0009C000020A6000020F5A000F0B1FEDCE3A6
:1015D000FD480078012825D1FC480078401CFB49D3
:1015E0000870084600780C2811DB0C2008700220D7
:1015F000F549087000241FED120AB0EE408A00275A
:101600000120F3490870F3A000F092FEBDE36FF0F3
:1016100095041FED190AB0EE408A0027F9A000F0EA
:1016200087FEB2E3E84800780228D0D1E748007886
:10163000401CE649087008460078122811DB122089
:1016400008700320E049087000241FED270AB0EE5F
:10165000408A00270820F3490870F3A000F068FED4
:1016600093E36FF095041FED2E0AB0EE408A002739
:10167000F7A000F05DFE88E3012DA8D1FC480078BA
:1016800018BBFC480078401CFA49087008460078EE
:10169000062810DB062008700120F5490870F6497D
:1016A000087000241FED3E0AB0EE408A0027F3A028
:1016B00000F03EFE69E396241FED430AB0EE408A37
:1016C0000027F6A000F034FE5FE3E9480078012827
:1016D00017D1E8480078401CE649087008460078B1
:1016E0000C2804DB0C2008700220E14908709624C5
:1016F0001FED510AB0EE408A0027EEA000F018FE60
:1017000043E3DB48007802288BD1DA480078401C9C
:10171000D849087008460078122811DB122008709A
:101720000320D349087000241FED5F0AB0EE408A01
:1017300000270120A6490870E7A000F0F9FD24E386
:1017400064241FED650AB0EE408A0027EBA000F08C
:10175000EFFD1AE3002E8ED1022D7AD1EE480078EB
:1017600020BBEE480078401CEC4908700846007821
:10177000062810DB062008700120E74908700024C5
:101780001FED750AB0EE408A0027BB490870E4A03F
:1017900000F0CEFDF9E2C1A000F0CAFD6FF09504A3
:1017A0001FED7D0AB0EE408A0027EEE2DA480078AD
:1017B000012823D1D9480078401CD8490870084630
:1017C00000780A280FDB0A2008700220D24908702E
:1017D0006FF095041FED8A0AB0EE408A0027DAA068
:1017E00000F0A6FDD1E26FF095041FED8F0AB0EE78
:1017F000408A002783A000F09BFDC6E2C64800781F
:1018000002289CD1C5480078401CC449087008468D
:101810000078122812DB122008700320BE490870DD
:1018200000241FED9D0AB0EE408A002704207D4968
:101830000870CEA000F07CFDA7E20AE06FF09504EE
:101840001FEDA50AB0EE408A002781A000F070FDD0
:101850009BE2012D9ED1D3480078B8B9D2480078D8
:10186000401CD149087008460078062804DB062091
:1018700008700120CB490870CCA000F059FD9624D7
:101880001FEDB50AB0EE408A00277EE2C548007819
:10189000012824D1C4480078401CC3490870084678
:1018A00000780C2811DB0C2008700220BD4908705C
:1018B000012047490870C6A000F03AFD00241FED42
:1018C000C40AB0EE408A00275FE2CCA000F030FDF1
:1018D00096241FEDC90AB0EE408A002755E2B148B0
:1018E0000078022889D1B0480078401CAE490870C1
:1018F0000846007812280EDB122008700320A94940
:101900000870C6A000F014FD00241FEDD70AB0EE49
:10191000408A002739E279A000F00AFD96241FEDE5
:10192000DC0AB0EE408A00272FE2C74890F9020097
:1019300010F1020F05DAC54890F9020010F1020F0C
:1019400021DBC14890F9020001280BDCBE4890F968
:101950000200B0F1FF3F05DBBC4890F90200B0F196
:10196000FF3F10DBB94890F90200012816DCB748A8
:1019700090F90200B0F1FF3F10DBB34890F902008C
:10198000B0F1FF3F0ADA46249FEDB10AB0EE408A7B
:101990000127AD484278AD4841785BE15EE1000047
:1019A0006669727374206C696E652C6E6F74207337
:1019B000746F70207374696C6C20676F2062616350
:1019C0006B2E2E2E0D0A00001D0000201E00002090
:1019D0001400002066696E64207365636F6E642076
:1019E0006C696E652C6167762073746F7020616E10
:1019F000642072656C6561736520706C616E650D45
:101A00000A000000676F206261636B2C66696E6478
:101A1000207365636F6E64206C696E652E2E2E0DCB
:101A20000A0000001700002066696E64207468696F
:101A30007264206C696E652073746F702C616776B8
:101A4000206368616E67652E2E2E0D0A000000006F
:101A5000676F206261636B2C66696E6420746869CD
:101A60007264206C696E652E2E2E0D0A0000000037
:101A70001F000020200000201500002066697273FE
:101A800074206C696E652073746F702C7069636B61
:101A900020706C616E652E2E2E0D0A0066697273C1
:101AA00074206C696E652066696E642E2E2E0D0A98
:101AB000000000007365636F6E64206C696E6520C2
:101AC0006E6F742073746F702C676F206F75742E37
:101AD0002E2E0D0A000000007468697264206C6983
:101AE0006E652073746F702C72656C656173652010
:101AF000706C616E652E2E2E0D0A0000676F206FD0
:101B000075742C66696E64207468697264206C69EF
:101B10006E652E2E2E0D0A002100002022000020CE
:101B20006669727374206C696E652C6167762073C8
:101B3000746F7020616E6420636C6F7365207069D0
:101B4000636B2E2E2E0D0A007365636F6E64206C1E
:101B5000696E652C616776207374696C6C20676FA1
:101B6000206261636B2E2E2E0D0A0000746869726C
:101B700064206C696E652C6167762073746F7020C9
:101B8000616E64206368617267652C706C616E655C
:101B9000206973206F7574736964652E2E2E0D0A8B
:101BA00000000000230000202400002066697273FA
:101BB00074206C696E652C6167762069732073747C
:101BC000696C6C20676F206F75742E2E2E0D0A00C5
:101BD00066696E64207365636F6E64206C696E6500
:101BE0002C726561647920746F206F70656E20704F
:101BF00069636B2E2E2E0D0A00000000676F206FA8
:101C000075742C66696E64207365636F6E64206CF6
:101C1000696E652E2E2E0D0A0000000066696E6446
:101C2000207468697264206C696E652C72656164E9
:101C30007920746F207069636B20706C616E652E03
:101C40002E2E0D0A00000000A6000020A00000209B
:101C500000003442BBA000F06BFB96E0C14890F955
:101C60000200022804DDC04890F9020002281FDCAF
:101C7000BC4890F9020001280ADCBA4890F9020039
:101C8000B0F1FF3F04DBB84890F9020001280FDCF7
:101C9000B54890F9020001281ADCB34890F9020017
:101CA000B0F1FF3F14DBAF4890F9020001280FDDCF
:101CB00046241FED190AB0EE408A4FF0FF37A948BD
:101CC0004278A9484178A9A000F032FB5DE034E1F8
:101CD000A44890F90200022813DDA34890F90200FD
:101CE00010F1020F0DDA46249FEDA70AB0EE408AEC
:101CF00000279C4842789C484178A4A000F018FB3B
:101D000043E0984890F9020010F1020F12DA964869
:101D100090F9020002280DDD46249FEDA30AB0EEE3
:101D2000408A00278F4842788F4841789FA000F072
:101D3000FFFA2AE0A448408860B9A448408848B91E
:101D400000249FEDA30AB0EE408A0027A1A000F076
:101D5000EFFA1AE0012D08D196249C4842889A484F
:101D60004188A1A000F0E4FA0AE0022D08D16FF04A
:101D700095049648428894484188A2A000F0D8FA79
:101D80009FED930AB0EE408A0027012F42D1A4486C
:101D90000480A4480480A4480480A44804809FEDE3
:101DA000A40A28EE000ABDEEC00A10EE100A4FF495
:101DB0004831FFF72EFB40429E4908609FED9C0A88
:101DC00028EE000ABDEEC00A10EE100A4FF44831AA
:101DD000FFF71FFB984908609FED950A28EE000A5F
:101DE000BDEEC00A10EE100A4FF44831FFF711FBA8
:101DF0004042924908609FED8E0A28EE000ABDEE2F
:101E0000C00A10EE100A4FF44831FFF702FB8C496C
:101E1000086092E0781CE0BB604200B28049088014
:101E2000604200B27F490880604200B27E4908806B
:101E3000604200B27D4908809FED7D0A28EE000ACD
:101E4000BDEEC00A10EE100A4FF44831FFF7E1FA78
:101E50004042784908609FED760A28EE000ABDEE00
:101E6000C00A10EE100A4FF44831FFF7D2FA724957
:101E700008609FED6F0A28EE000ABDEEC00A10EE62
:101E8000100A4FF44831FFF7C4FA40426B4908602A
:101E900000E00EE09FED660A28EE000ABDEEC00AE3
:101EA00010EE100A4FF44831FFF7B3FA64490860A6
:101EB00043E0604200B25A490880604200B259498A
:101EC000088059480480594804809FED590A28EE3B
:101ED000000ABDEEC00A10EE100A4FF44831FFF7B9
:101EE00098FA544908609FED520A28EE000ABDEEA8
:101EF000C00A10EE100A4FF44831FFF78AFA4E4933
:101F000008609FED4B0A28EE000ABDEEC00A10EEF5
:101F1000100A4FF44831FFF77CFA484908609FEDFA
:101F2000440A28EE000ABDEEC00A10EE100A4FF473
:101F30004831FFF76EFA42490860BDEC028BBDE8FC
:101F4000F08100007475726E207269676874206891
:101F50006D63663A256420686D63623A25640D0AF4
:101F600000000000A6000020A00000207475726E22
:101F7000206C65667420686D63663A256420686D20
:101F800063623A25640D0A000000B44272756E2047
:101F9000726967687420686D63663A256420686DAD
:101FA00063623A25640D0A000000B4C272756E20A7
:101FB0006C65667420686D63663A256420686D639D
:101FC000623A25640D0A0000980000209C00002061
:101FD000000000006D697373206C696E652C73746A
:101FE0006F700D0A00000000676F206F7574206825
:101FF0006D63663A256420686D63623A25640D0A54
:1020000000000000676F206261636B20686D63668B
:102010003A256420686D63623A25640D0A00000069
:102020006C0000206E000020700000207200002074
:10203000CD380E4574000020780000207C00002080
:102040008000002010B596B004460121084605F036
:102050006BFB0121102005F0ABFB07220921CD48C5
:1020600005F0A7F907220A21CA4805F0A2F90020C5
:102070008DF8560001208DF8570002208DF854008D
:102080000002149002208DF8550014A9C14805F0F3
:1020900005F902208DF854004002149014A9BD489F
:1020A00005F0FCF8BC4806F0CFFA10940020ADF81B
:1020B0004400ADF84600ADF84800ADF84C000C20E7
:1020C000ADF84A0010A9B44806F00CFB002240F21B
:1020D0002551B14806F044FC002240F22661AE488A
:1020E00006F03EFC012240F22441AB4806F038FCE9
:1020F0000121A94806F07EFB0121880505F014FBAB
:1021000001224021A44806F022FC01228021A2489D
:1021100006F01DFC25208DF83C0001208DF83D00C7
:102120008DF83E008DF83F000FA804F084F846209B
:102130008DF83C0002208DF83D008DF83E00012016
:102140008DF83F000FA804F076F83A208DF83C0097
:1021500000208DF83D0002208DF83E0001208DF812
:102160003F000FA804F067F88C4804F0C7FD4FF05B
:10217000006000908848001D01908948029000206E
:10218000039080200490002005904FF4806006901A
:102190000020079008904FF4807009904FF4403071
:1021A0000A9000200B900C900D900E9069467B4891
:1021B00004F046FE0121794804F07CFE774878302F
:1021C00004F09CFD4FF0006000907348001D0190EA
:1021D00074480290402003908020049000200590D5
:1021E0004FF48060069000200790089009904FF40B
:1021F00080300A9000200B900C900D900E90694654
:102200006648783004F01CFE01228021624806F006
:102210009EFB012210216148783004F0D8FE002195
:102220005E48783004F046FE16B010BD0246506895
:10223000081A80B2704770B50024002540F225517D
:10224000554806F0C8FB18B1534806F002FBC4B26B
:1022500040F22441504806F0BEFB18B35048FEF748
:1022600040FE4F48FEF75BFE80214C48FFF7DEFF43
:102270004D4908800021494804F01CFE00BF474832
:1022800004F065FE0028FAD18021444804F033FEB2
:102290000121424804F00EFE3F480088C5B23E4886
:1022A0008088C5B270BD10B5044600BF20213A48F1
:1022B00006F07BFB0028F9D0374806F0CAFA10BDBB
:1022C00070B504460D4639480078F0B9002133480E
:1022D000783004F0EFFD00BF3048783004F037FE6E
:1022E0000028F9D1002221462C48783004F020FE45
:1022F000A9B22A48783004F0FEFD01212748783041
:1023000004F0D8FD01202949087070BD70B505465C
:102310000E46002400BF04E0285D22490855601CD9
:10232000C4B2B442F8DB31461E48FFF7C9FF70BDA6
:102330000FB438B505A800901A48009A049906F021
:1023400077FD00200090174806F0FCFE0446214669
:102350001448FFF7B5FF38BC5DF814FB10B51449FD
:102360000E4804F051FE18B111490C4804F076FEF5
:1023700010BD10B50F490948783004F045FE38B15A
:1023800000200A4908700B490448783004F066FEC2
:1023900010BD0000000002400010014040640240F7
:1023A000F8000020780100202A00002028000020EA
:1023B000008020100080002810B504466FF0040053
:1023C00003F086FFE11704EB5171C1F3C701404AE6
:1023D00011701046007800EB4001C1EBC0104FF6C1
:1023E000FF7101EAC0003B49088010BD0146384A30
:1023F00012784A434FF0E0235A6100229A611A464C
:10240000126942F001021A6100BF4FF0E022106928
:1024100000F001021AB100F48032002AF5D04FF02A
:10242000E022126922F001024FF0E0231A6100223B
:102430009A6170470146274A12884A434FF0E023C9
:102440005A6100229A611A46126942F001021A6129
:1024500000BF4FF0E022106900F001021AB100F451
:102460008032002AF5D04FF0E022126922F00102FA
:102470004FF0E0231A6100229A61704770B504465C
:102480004FF4077094FBF0F0C6B24FF4077094FB62
:10249000F0F100FB114085B205E04FF40770FFF743
:1024A000C9FF701EC6B2002EF7D115B12846FFF73E
:1024B000C1FF70BD10B5002107E04AF2104200BF15
:1024C000131EA2F10102FBD1491C8142F5D310BDBC
:1024D0002C0000202E00002010B58AB004460121F7
:1024E000084605F021F90121480605F050F90922B6
:1024F0000C21914804F05DFF09220B218E4804F065
:1025000058FF4FF4C050019002208DF808000020C1
:102510008DF80A0003208DF8090001A9864804F00F
:10252000BDFE14208DF8000001208DF8010002206E
:102530008DF8020001208DF80300684603F07BFE51
:1025400015208DF8000001208DF8010002208DF883
:10255000020001208DF80300684603F06CFE132092
:102560008DF8000001208DF801008DF802008DF833
:102570000300684603F05FFE704803F0C7FE07A83B
:1025800003F0E8FF00208DF822008DF823008DF87D
:1025900024008DF825008DF8260001208DF82700F5
:1025A00000208DF81E008DF81F0008208DF82000F7
:1025B00003208DF821000620ADF81C0007A95F4814
:1025C00003F0BDFE00208DF816008DF817000120E5
:1025D0008DF818004FF6FF7000EA4410ADF80C00BB
:1025E0000020ADF80E004FF6FF70ADF81000401E51
:1025F000ADF812000020ADF8140001208DF819008C
:1026000003A803F026FF012202214C4804F020FA1F
:1026100001221021494804F01BFA012211464748C3
:1026200004F016FA0AB010BD10B50121434804F0B9
:1026300077FA30B101204249087001213F4804F087
:102640000AFB10BD00B585B002213C4804F068FAD1
:1026500040B10221394804F0FEFA6A4600213748A9
:1026600004F0DBF805B000BD00B585B0102133489B
:1026700004F056FA40B11021304804F0ECFA6A46F2
:1026800001212E4804F0C9F805B000BDF0B585B0B1
:1026900006460F461546002400208DF808008DF8E8
:1026A00009008DF80A50009600BF05E0395D0DF174
:1026B0000B000155601CC4B2AC42F7DB01E0601CAA
:1026C000C4B269461D4803F0B3FF042801D17F2C32
:1026D000F5DB05B0F0BD2DE9F04186B006460F46AA
:1026E00015460024A04604208DF80C0000208DF82B
:1026F0000D008DF80E50029600BF05E0395D0DF11A
:102700000F000155601CC4B2AC42F7DB09E008F1D0
:10271000010000F0FF08B8F1050F02DD4FF00008DE
:1027200005E001A9054803F083FF0428EFD000BFAE
:1027300006B0BDE8F08100000000024000640040E7
:102740003000002010B58AB004460121022004F0B8
:10275000EBFF0121880605F01AF809220C21FA483E
:1027600004F027FE09220D21F74804F022FE4FF461
:102770004050019002208DF8080000208DF80A00DA
:1027800003208DF8090001A9EF4804F087FD4020DF
:102790008DF8000001208DF8010002208DF8020064
:1027A00001208DF80300684603F045FD41208DF8B7
:1027B000000001208DF8010002208DF802000120A8
:1027C0008DF80300684603F036FD3F208DF80000C9
:1027D00001208DF801008DF802008DF80300684695
:1027E00003F029FDD94803F091FD07A803F0B2FEDC
:1027F00000208DF822008DF823008DF824008DF83C
:1028000025008DF8260001208DF8270000208DF886
:102810001E008DF81F0008208DF8200003208DF881
:1028200021000C20ADF81C0007A9C84803F087FD63
:102830000E208DF8160000208DF8170001208DF86D
:1028400018004FF6FF7000EA4410ADF80C000020AD
:10285000ADF80E00ADF81000ADF81200ADF81400A0
:1028600001208DF8190003A803F0F3FD0F208DF867
:10287000160000208DF8170001208DF81800601C4C
:102880004FF6FF7101EA4010ADF80C000020ADF8E2
:102890000E00ADF81000ADF81200ADF814000120E4
:1028A0008DF8190003A803F0D4FD10208DF8160050
:1028B00000208DF8170001208DF81800A01C4FF69D
:1028C000FF7101EA4010ADF80C000020ADF80E00D9
:1028D000ADF81000ADF81200ADF8140001208DF82D
:1028E000190003A803F0B5FD11208DF81600002093
:1028F0008DF8170001208DF81800C020ADF80C00ED
:102900000020ADF80E00ADF81000ADF81200ADF8E3
:10291000140001208DF8190003A803F09AFD12207D
:102920008DF8160000208DF8170001208DF8180092
:10293000E020ADF80C000020ADF80E00ADF810005E
:10294000ADF81200ADF8140001208DF8190003A8AD
:1029500003F07FFD13208DF8160000208DF817007E
:1029600001208DF8180044F22000ADF80C00002082
:10297000ADF80E00ADF81000ADF81200ADF814007F
:1029800001208DF8190003A803F063FD0122022144
:102990006E4804F05DF8012210216C4804F058F8EC
:1029A00001221146694804F053F80AB010BD10B571
:1029B0000121664804F0B4F830B10121634804F005
:1029C0004AF901206249087010BD10B586B0022195
:1029D0005E4804F0A5F8002879D002215B4804F095
:1029E0003AF901AA0021594803F017FF594C0298FF
:1029F000A04237D19DF810009DF80F1040EA012049
:102A000000EE100AB8EEC00AF2EE040A80EE201AB8
:102A1000514880ED001A9DF814109DF8130041EA0A
:102A2000002000EE100AB8EEC00AF2EE040A80EEB2
:102A3000201A9FED4A0A31EE400A474880ED010A0C
:102A40009DF816109DF8150041EA002000EE100ACE
:102A5000B8EEC00AF2EE040A80EE201A3E4880ED7D
:102A6000021A24E0019806280FD19DF810003C4975
:102A700008709DF8110048709DF811109DF8100025
:102A800041EA00203649488011E0019807280ED11C
:102A90009DF81000334908709DF8110048709DF8AA
:102AA00011109DF8100041EA00202E49488040F2A4
:102AB0000121019888422CD19DF80F002A49887085
:102AC00008468078012803D10220887007E038E0AA
:102AD00025488078022802D10120234988709DF87A
:102AE00010002149C8709DF8110008700846007850
:102AF000012802D10220087006E01B480078022855
:102B000002D10120184908709DF81200164948703A
:102B100016E040F201510198884211D19DF80F0052
:102B2000114908719DF81000012802D10220487156
:102B300006E09DF81000022802D101200A494871E0
:102B400000BF06B010BD0000000402400068004055
:102B50003100002001409018980E002000803B4575
:102B60009C000020980000203200002000B585B0B5
:102B70001021414803F0D4FFE8B110213E4804F091
:102B80006AF86A4601213C4803F047FE009806288F
:102B900007D19DF80C00394908709DF80D00487068
:102BA00009E00098072806D19DF80C003449087008
:102BB0009DF80D00487005B000BD2DE9F04186B0CC
:102BC00006460F4615460024A04600208DF80C004E
:102BD0008DF80D008DF80E50019600BF05E0395DAF
:102BE0000DF10F000155601CC4B2AC42F7DB09E0E7
:102BF00008F1010000F0FF08B8F1050F02DD4FF009
:102C0000000805E001A91C4803F012FD0428EFD0DC
:102C100000BF06B0BDE8F0812DE9F04186B0064660
:102C20000F4615460024A04604208DF80C00002015
:102C30008DF80D008DF80E50029600BF05E0395D4D
:102C40000DF10F000155601CC4B2AC42F7DB09E086
:102C500008F1010000F0FF08B8F1050F02DD4FF0A8
:102C6000000805E001A9044803F0E2FC0428EFD0C5
:102C700000BF06B0BDE8F081006800409C00002065
:102C8000980000201CB50121022004F04DFD012117
:102C9000042004F07CFD684604F048FBC02000904E
:102CA00002208DF8040003208DF8050001208DF826
:102CB00007006946FE4804F0F1FA02220621FC48AA
:102CC00004F077FB02220721F94804F072FB00238D
:102CD0001A460321F74805F086FC47F6FF70F549D0
:102CE000243108600121F34804F092FF1CBDF14932
:102CF000243102680968A1F5FE41FF3911440160E1
:102D000047F6FF71EB4A24321160704710B5EA486C
:102D10000068401CE8490860082004F048FA10BD2B
:102D200000B585B00121880304F042FD0121022095
:102D300004F0FAFC0820009000208DF80400032025
:102D40008DF8050001208DF807006946D84804F089
:102D5000A5FA0321012005F093FE0820029000202F
:102D60008DF80C000C208DF80D0001208DF80E0060
:102D700002A804F0A5F909208DF8100003208DF8B1
:102D8000110002208DF8120001208DF8130004A814
:102D900003F051FA05B000BD7FB505460C46012190
:102DA000082004F0F4FCC54804F0FCFD0295ADF8E1
:102DB00004400020ADF80C00ADF806008DF80E00C0
:102DC00001A9BE4804F09BFE0121BC4804F002FFAB
:102DD0000121BA4805F048FB01221146B74805F029
:102DE0002FFB0121B54804F013FF32208DF80000BD
:102DF00000208DF8010001208DF802008DF80300FD
:102E0000684603F018FA7FBD10B50121AB4805F004
:102E10002EFB00286FD0AA480078401CA8490870F3
:102E200008460078192804DD002008700120A54913
:102E30000870A5480078401CA3490870084600782F
:102E4000102801DD012008709F48007811281AD24F
:102E5000DFE800F090091A2B3C434B52565C62703D
:102E6000767C80868C009948B0F90010012001F032
:102E700083FC9748B0F900209648B0F9001040F262
:102E8000031001F021FD75E09348B0F90010022015
:102E900001F072FC9148B0F900209148B0F900109F
:102EA0004FF4817001F0F7FC64E08E48B0F9001037
:102EB000032001F061FC8C48B0F900208B48B0F988
:102EC000001040F2011001F0CDFC53E08848B0F949
:102ED0000010042001F050FC4CE0864801680520F9
:102EE00001F0FCFB01F062FD44E08348018805200D
:102EF00001F00EFC3EE042E0052001F023FC39E049
:102F00007E480168062001F0E9FB33E07A48018839
:102F1000062001F0FDFB2DE0062001F013FC7248B5
:102F2000B0F900207148B0F9001040F2011001F032
:102F300099FC1FE072480168072001F0CFFB19E0FF
:102F40006D480188072001F0E3FB13E0072001F042
:102F5000F9FB0FE06B480168082001F0BFFB09E0B6
:102F600065480188082001F0D3FB03E0082001F048
:102F7000E9FB00BF00BF0121504805F089FA10BDF0
:102F800000B589B00121022004F001FC01210846AE
:102F900004F0FDFB0020ADF81800ADF81A004FF664
:102FA000FF7007900020ADF820008DF8220006A9E0
:102FB000554804F0A4FD06A94FF0804004F09FFDA1
:102FC0000020ADF80400ADF81000ADF80600039045
:102FD00001A94FF0804004F027FE01A94FF0804086
:102FE00004F05BFE01A9484804F01EFE01A9464812
:102FF00004F053FE01A9444804F09CFE01A9424894
:1030000004F0FEFE00214FF0804004F09AFF002102
:103010004FF0804004F09EFF00213B4804F091FFF8
:103020000021394804F096FF0021374804F09FFF43
:103030000021354804F0A4FF0121880704F0CAFDEF
:103040000121314804F0C6FD0221480705F020FAAD
:1030500001220221480705F0F3F90421080705F0D1
:1030600017FA01220421080705F0EAF9022126488F
:1030700005F00EFA01220221234805F0E1F90421AE
:10308000214805F005FA012204211F4805F0D8F96E
:1030900008211D4805F0FCF9012208211A4805F015
:1030A000CFF91021184805F0F3F9012210212DE085
:1030B000000402400008004038000020000C0040DE
:1030C0003D0000203C000020400000206C0000205B
:1030D0008E0000208C0000206E0000208A0000205E
:1030E000880000207000002086000020840000205E
:1030F00072000020740000203E00002078000020B4
:103100007C00002080000020000400406B4805F097
:1031100097F91D208DF8000001208DF80100032093
:103120008DF8020001208DF80300684603F083F853
:103130001C208DF80000684603F07DF800214FF058
:10314000804005F0C8F907214FF0804005F039FABA
:103150008021C80505F03EFA3021584805F0BBF93A
:103160000721564805F02DFA8021544805F032FA1F
:103170000121880704F04CFD0121504804F048FD6E
:1031800009B000BD00B589B00121084604F010FB6C
:103190000121042004F0FBFA494804F003FC4948EB
:1031A00004F000FC5320ADF818000020ADF81A0020
:1031B00040F23F6007900020ADF820008DF822001B
:1031C00006A9404804F09BFC5320ADF818000020ED
:1031D000ADF81A0040F67F4007900020ADF82000BF
:1031E0008DF8220006A9364804F089FC01A804F0F5
:1031F0003FFE6020ADF804000120ADF8060000207D
:10320000ADF81000039001A92D4804F00DFD01A9AF
:103210002B4804F042FD01A92A4804F005FD01A94C
:10322000284804F03AFD01A9264804F083FD01A9CD
:10323000244804F0E5FD0821214804F082FE08211D
:103240001F4804F087FE08211E4804F07AFE08217A
:103250001C4804F07FFE08211A4804F088FE08216B
:10326000184804F08DFE0121154804F0B3FC01213B
:10327000144804F0AFFC0121114804F0C9FC0121FD
:10328000104804F0C5FC20210E4805F091F980217A
:103290000C4805F09FF92021094805F089F98021A3
:1032A000074805F097F90121054805F0A2F801212A
:1032B000044805F09EF809B000BD0000000400407D
:1032C000000001400008004000B587B001217F48A0
:1032D00004F02AFA0121480404F059FA07220321D4
:1032E0007B4804F066F80820059002208DF818004D
:1032F00000208DF81A0003208DF8190000208DF8A9
:103300001B0005A9724803F0C9FF724805F09CF93B
:10331000714801900020ADF808004FF40050ADF85E
:103320000A00C010ADF80C000420ADF80E0000201B
:10333000ADF8100001A9674805F0D4F9012240F268
:103340002551644805F00CFB0121624805F052FA52
:1033500026208DF8000000208DF8010001208DF856
:1033600002008DF80300684602F065FF07B000BD5B
:103370005A480078401C594908700846007864286B
:1033800004DD64200870002055490870704710B5AE
:1033900040F225514F4805F01EFB00287ED04D48D5
:1033A00005F057FA4F4908704F48007838B9084679
:1033B00000780F282AD1FF204B49087026E04948A1
:1033C00000784A494A4A12788854494800781728B0
:1033D00011D10846C07D022802D00846C07D18B928
:1033E000FF204449087006E000203F490870414929
:1033F00008703F4908703E480078401C3C490870FE
:1034000008460078182801DD002008703948007847
:1034100000285AD0354800783449497840EA0120DC
:10342000C0F30A00344908803048807840012F49B1
:10343000497840EAE100C0F30A00304908802B488F
:10344000807880112949C97840EA810027490979A3
:1034500040EA8120C0F30A00294908802348007906
:1034600040102249497940EAC110C0F30A002549B9
:1034700008801E48407A00F00F00234908801B484E
:10348000807900F00F00401C204908801748807A9E
:103490001F49088000201449087000E015E0154914
:1034A0000870134908701148807D0C2803D1002052
:1034B0000B49087005E00020084908700120084900
:1034C00008700421134803F070FF10BD01002000B4
:1034D0000000024000440040A08601004B00002094
:1034E0004A0000205600002058000020F80100206B
:1034F0005700002059000020420000204400002016
:1035000046000020480000204C0000205000002011
:103510004E0000200010024010B50246002006E0D8
:10352000137843400C4CE05C521C4B1ED9B200296E
:10353000F6DC10BD30B50346002006E01C784440A0
:10354000054D285D5B1C4C1EE1B20029F6DC80EACB
:103550000204014D285D30BD88D400081CB501214E
:10356000102004F0E1F80420009001208DF8040000
:1035700000208DF8060003208DF8050001208DF84D
:10358000070069461C4803F089FE1CBD1CB50121DB
:10359000082004F0C9F8C020009001208DF8040034
:1035A00000208DF8060003208DF8050001208DF81D
:1035B00007006946114803F071FE40210F4803F0EF
:1035C000E9FE80210D4803F0E5FE1CBD1CB501217C
:1035D000102004F0A9F84FF4A050009000208DF8BE
:1035E000040003208DF8050001208DF807006946CE
:1035F000014803F053FE1CBD00100240000C0240C5
:1036000000BF704700BFFE4A128802F04002002A45
:10361000F9D0C2B2FA4B9A80704710B596B0044602
:103620000121880404F0B3F80121022004F07CF8A1
:103630000121480504F078F807220A21F14803F037
:10364000B8FE07220B21EF4803F0B3FE14A803F0E5
:103650006DFE4FF48060149002208DF8540003201A
:103660008DF8550014A9E74803F018FE4FF40060E8
:10367000149002208DF8540003208DF8550014A9F1
:10368000E04803F00BFEE04804F0DEFF10A805F070
:103690008FF810940020ADF84400ADF84600ADF866
:1036A0004800ADF84C000C20ADF84A0010A9D648EF
:1036B00005F018F8012240F22441D34805F050F9F2
:1036C00027208DF83C0000208DF83D0001208DF86A
:1036D0003E008DF83F000FA802F0ADFD0121CA4861
:1036E00005F088F80C208DF83C0002208DF83D0094
:1036F0008DF83E0001208DF83F000FA802F09BFDE1
:10370000C24803F0FBFA4FF000600090BE48001D75
:103710000190BF480290002003904FF40070049085
:10372000002005904FF480600690002007900890DC
:103730004FF4807009904FF440300A9000200B90B5
:103740000C900D900E906946B04803F079FB012271
:103750004021AD4805F0FBF80121AC4803F0AAFB7D
:103760000E208DF83C0001208DF83D0002208DF8E0
:103770003E0001208DF83F000FA802F05CFDA34839
:10378000303003F0BBFA4FF0006000909E48001DFF
:103790000190A048029040200390802004900020D7
:1037A00005904FF4806006900020079008900990E3
:1037B0004FF480300A9000200B900C900D900E90EA
:1037C00069469248303003F03BFB012280218E484D
:1037D00005F0BDF8012210218C48303003F0F7FBD2
:1037E00000218A48303003F065FB16B010BD024658
:1037F0005068081A80B2704770B5002500BF40F2CB
:103800002551814805F0E7F840B17F4805F021F8DF
:10381000C5B240F225517C4805F014F940F224412C
:10382000794805F0D8F818B37948FDF778FB4FF4DC
:1038300000717648FFF7DBFF774908800021734865
:1038400003F038FB00BF714803F081FB0028FAD178
:10385000714801886D4803F04EFB01216B4803F06D
:1038600029FB69480088C4B26748001D0088C4B2BB
:1038700070BD70B504460D4668480078F0B9002167
:103880006248303003F016FB00BF6048303003F070
:103890005EFB0028F9D1002221465C48303003F05D
:1038A00047FBA9B25948303003F025FB01215748A6
:1038B000303003F0FFFA01205849087070BD70B530
:1038C00005460E46002400BF04E0285D5149085516
:1038D000601CC4B2B442F8DB31464E48FFF7C9FF62
:1038E00070BD10B54E49494803F08EFB18B14C49E4
:1038F000464803F0B3FB10BD0FB438B505A80090DF
:103900004448009A049905F093FA00200090414839
:1039100005F018FC044621463E48FFF7AAFF38BCD4
:103920005DF814FB10B53F493848303003F06CFBAC
:1039300038B10020394908703A493448303003F032
:103940008DFB10BD10B596B004460121C80403F0EC
:103950001EFF0121042003F0E7FE0121480503F0CA
:10396000E3FE08220A21304803F023FD08220B2140
:103970002D4803F01EFD14A803F0D8FC4FF480601E
:10398000149002208DF8540003208DF8550014A9DE
:10399000254803F083FC4FF40060149002208DF85A
:1039A000540003208DF8550014A91F4803F076FC3D
:1039B00010A804F0FDFE10940020ADF84400ADF80E
:1039C0004600ADF84800ADF84C000C20ADF84A00B8
:1039D00010A9164804F086FE0D208DF83C00022048
:1039E0008DF83D008DF83E0001208DF83F000FA8B6
:1039F00002F021FC0548183003F080F918E00000BF
:103A000000100140000402400048004028600240CD
:103A100098020020180200206200002060000020B0
:103A2000008800100080001800080240004C004090
:103A30004FF000600090FE480190FE480290002088
:103A4000039080200490002005904FF48060069041
:103A50000020079008904FF48070099040020A906F
:103A600000200B900C900D900E906946F24803F0E8
:103A7000E7F901224021EE48001F04F068FF012110
:103A8000ED4803F017FA002240F22551E848001FE4
:103A900004F066FF002240F22661E548001F04F0B2
:103AA0005FFF012240F22441E148001F04F058FF6B
:103AB00034208DF83C0002208DF83D0003208DF865
:103AC0003E0001208DF83F000FA802F0B4FB012159
:103AD000D748001F04F08EFED748303003F00EF9AF
:103AE0004FF000600090D2480190D44802904020EE
:103AF000039080200490002005904FF48060069091
:103B000000200790089009904FF480300A90002020
:103B10000B900C900D900E906946C748303003F022
:103B20008FF901228021C248001F04F010FF0122FA
:103B30001021C148303003F04AFA0021BE4830302D
:103B400003F0B8F90F208DF83C0002208DF83D00FD
:103B50008DF83E0001208DF83F000FA802F06BFBAE
:103B600016B010BD02465068081A80B2704770B592
:103B70000024002540F22551AD48001F04F02BFF22
:103B800050B1AB48001F04F064FEC4B240F22551AE
:103B9000A748001F04F056FF40F22441A448001F2C
:103BA00004F019FFF0B18021A348FFF7DBFFA4491F
:103BB00008700021A04803F07DF900BF9E4803F083
:103BC000C6F90028FAD180219B4803F094F901211D
:103BD000994803F06FF99648001F0088C5B29448D1
:103BE0000088C5B270BD70B504460D469548007892
:103BF000F0B900219048303003F05CF900BF8E48E6
:103C0000303003F0A4F90028F9D1002221468A4877
:103C1000303003F08DF9A9B28748303003F06BF9EA
:103C200001218548303003F045F9012085490870AD
:103C300070BD70B505460E46002400BF04E0285D47
:103C40007E490855601CC4B2B442F8DB31467B485B
:103C5000FFF7C9FF70BD10B57B497748303003F0DE
:103C6000D3F960B100207749087078497248303044
:103C700003F099F975497048303003F0EFF910BD41
:103C800010B573496C4803F0BFF948B14FF081514A
:103C9000694803F088F94FF08151674803F0DEF975
:103CA00010BD10B596B004460121042003F03CFD80
:103CB0000121082003F038FD0121080503F067FD0C
:103CC0000121480503F030FD08220221614803F07C
:103CD00070FB08220C21604803F06BFB0420149059
:103CE00002208DF8540003208DF8550000208DF837
:103CF000560001208DF8570014A9564803F0CEFA5B
:103D00004FF48050149014A9534803F0C7FA10944C
:103D10000020ADF84400ADF84600ADF84800ADF81D
:103D20004C000C20ADF84A0010A94C4804F0DAFC15
:103D30000B208DF83C0002208DF83D008DF83E00F0
:103D400001208DF83F000FA802F075FA3A4830388C
:103D500002F0D4FF4FF0006000904048001D019039
:103D60003F4802900020039080200490002005909E
:103D70004FF4806006900020079008904FF4807008
:103D8000099040020A9000200B900C900D900E902C
:103D900069462948303803F053F8012240212F4862
:103DA00004F0D5FD01212448303803F083F80022C7
:103DB00040F22551294804F0D3FD002240F226614B
:103DC000264804F0CDFD012240F22441234804F0AE
:103DD000C7FD35208DF83C0000208DF83D00012006
:103DE0008DF83E008DF83F000FA802F024FA012163
:103DF0001A4804F0FFFC2F208DF83C0002208DF8BB
:103E00003D008DF83E0001208DF83F000FA802F024
:103E100012FA0948783002F071FF4FF0006000900C
:103E20000E48001D01900F480290402003901BE0B7
:103E3000044C004018050020406002409804002017
:103E40006400002065000020208000202000002069
:103E500000802010000C024000080240005000408A
:103E6000980500201806002080200490002005906E
:103E70004FF48060069000200790089009904FF45E
:103E800080300A9000200B900C900D900E906946A7
:103E9000F94802F0D5FF01228021F84804F057FDCF
:103EA00001221021F44803F092F80021F24803F0B7
:103EB00001F816B010BD02465068081A80B270476B
:103EC00070B50024002540F22551EC4804F083FD34
:103ED00018B1EA4804F0BDFCC4B240F22441E748FE
:103EE00004F079FD10B38021E348A838FFF7E3FF21
:103EF000E34908700021E048A83802F0DBFF00BF6A
:103F0000DD48A83803F023F80028F9D18021DA48E9
:103F1000A83802F0F0FF0121D748A83802F0CAFF04
:103F2000D6480088C5B2D5488088C5B270BD10B5E6
:103F3000D449D14803F068F860B10020D249087034
:103F40004FF02051CC4803F02EF84FF02051CA48D2
:103F500003F084F810BD70B504460D46CA480078D9
:103F6000C8B90021C44802F0A5FF00BFC24802F052
:103F7000EEFF0028FAD100222146BF4802F0D8FF08
:103F8000A9B2BD4802F0B7FF0121BB4802F092FF81
:103F90000120BD49087070BD70B505460E4600246D
:103FA00000BF04E0285DB9490855601CC4B2B442A2
:103FB000F8DB3146B548FFF7CEFF70BD10B596B0BF
:103FC00004460121202003F0F3FB0121042003F02B
:103FD000ABFB0121880503F0A7FB08220621AC48B2
:103FE00003F0E7F908220721A94803F0E2F914A831
:103FF00003F09CF94020149002208DF85400032017
:104000008DF8550014A9A24803F048F980201490B7
:1040100002208DF8540003208DF8550014A99C4807
:1040200003F03CF99B4804F00FFB10A804F0C0FB20
:1040300010940020ADF84400ADF84600ADF84800FB
:10404000ADF84C000C20ADF84A0010A9914804F0DE
:1040500049FB39208DF83C0002208DF83D008DF899
:104060003E0001208DF83F000FA802F0E4F88A48D6
:1040700002F044FE4FF0206000908648001D019041
:1040800086480290002003904FF480600490002046
:1040900005904FF4806006900020079008904FF440
:1040A0008070099040020A9000200B900C900D90B7
:1040B0000E906946784802F0C3FE012240217548FF
:1040C00004F045FC0121744802F0F4FE002240F2A5
:1040D0002551704804F044FC002240F226616D48EE
:1040E00004F03EFC012240F224416A4804F038FC0E
:1040F00047208DF83C0001208DF83D008DF83E00F2
:104100008DF83F000FA802F096F80121614804F0F5
:1041100071FB45208DF83C0002208DF83D008DF8A4
:104120003E0001208DF83F000FA802F084F85A48A5
:10413000783002F0E3FD4FF0206000905548001DFC
:104140000190574802904020039000010490002005
:1041500005904FF480600690002007900890099029
:104160004FF480300A9000200B900C900D900E9030
:1041700069464948783002F063FE012280214548B3
:1041800004F0E5FB012210214348783002F01FFFC4
:1041900000214148783002F08DFE16B010BD01209C
:1041A00080F3138800BF00BF00BF00BF00BF00BF87
:1041B000BFF34F8F00BF00BF00BF3A48006800F454
:1041C000E06039490843001D3649086000BF00BF60
:1041D00000BFBFF34F8F00BF00BF00BF00BF00BFD5
:1041E000FDE702465068081A80B2704770B5002497
:1041F000002540F22441274804F0EDFB00B34FF4C2
:1042000080612548FFF7EDFF2849088000212248FA
:1042100002F050FE00BF204802F099FE0028FAD1BB
:104220004FF480611C4802F066FE01211A4802F03A
:1042300041FE18480088C5B21648001D0088C5B266
:1042400040F22551134804F0C6FB20B140F225513D
:10425000104804F0F7FB70BD10B515490E4802F088
:10426000D3FE38B113490C4802F09DFE10490A48AC
:1042700002F0F4FE10BD0000B860024000500040A3
:10428000670000200080002866000020180600203B
:10429000000802400014014028640240980A0020EF
:1042A000980600200CED00E00000FA0568000020F0
:1042B000008800100008001010B53949394802F094
:1042C000A3FE50B10020384908703549354802F046
:1042D0006AFE3349334802F0C1FE10BD70B5044692
:1042E0000D4631480078C8B900212E4802F0E2FDA1
:1042F00000BF2C4802F02BFE0028FAD100222146F4
:10430000284802F015FEA9B2264802F0F4FD01216A
:10431000244802F0CFFD01202349087070BD70B51C
:1043200005460E4600244FF48071204803F032F811
:1043300000BF04E0285D1E490855601CC4B2B442A9
:10434000F8DB31461A48FFF7C9FF4FF48071174870
:1043500003F022F870BD1CB54FF4E130FFF72EFEDC
:10436000684602F0E3FF0121042003F0DDF94FF479
:104370008070009001208DF8040000208DF8060068
:1043800002208DF8070003208DF8050069460748D4
:1043900002F084FF4FF48071044802F0FDFF1CBD61
:1043A00000802020A06402406A0000200008024033
:1043B000980600207CB505460C46FCA103C9CDE952
:1043C0000001200A8DF80500E0B28DF804000822F3
:1043D00069462846FEF75AF97CBD7CB505460C4671
:1043E000F4A103C9CDE90001E0B28DF80400200A70
:1043F0008DF80500200C8DF80600200E8DF80700C2
:10440000082269462846FEF741F97CBD7CB5054681
:104410000C46EAA103C9CDE900018DF8044005224C
:1044200069462846FEF732F97CBD38B50446E5A05A
:1044300000680090022269462046FEF727F938BD41
:1044400010B586B00446E0A103C9CDE904010822F5
:1044500004A904F5C060FEF719F90A20FEF70EF86A
:10446000DBA103C9CDE90201082202A904F5C0605D
:10447000FEF70CF90A20FEF701F8D7A103C9CDE930
:1044800000010822694604F5C060FEF7FFF80A2023
:10449000FDF7F4FF06B010BD1CB50446D0A103C95A
:1044A000CDE900010822694604F5C060FEF7EEF888
:1044B0001CBD1CB50446CCA103C9CDE900010822EE
:1044C000694604F5C060FEF7E1F81CBD1FB504465F
:1044D000BDA003C8CDE90201082202A904F5C0600D
:1044E000FEF7D4F80A20FDF7C9FFB9A103C9CDE949
:1044F00000010822694604F5C060FEF7C7F80A20EB
:10450000FDF7BCFF1FBD1CB50446B9A103C9CDE929
:1045100000010822694604F5C060FEF7B7F81CBD2B
:1045200010B54FF4FA70FDF7A9FF0520FFF7EBFF78
:104530000A20FDF7A3FF0520FFF7AEFF0A20FDF7D5
:104540009DFF0520FFF7C2FF0A20FDF797FF062019
:10455000FFF7D9FF0A20FDF791FF0620FFF79CFF28
:104560000A20FDF78BFF0620FFF7B0FF0A20FDF7BA
:1045700085FF0720FFF7C7FF0A20FDF77FFF072011
:10458000FFF78AFF0A20FDF779FF0720FFF79EFF5C
:104590000A20FDF773FF0820FFF7B5FF0A20FDF79B
:1045A0006DFF0820FFF778FF0A20FDF767FF08205E
:1045B000FFF78CFF0A20FDF761FF0120FFF779FF6D
:1045C0000A20FDF75BFF0120FFF766FF0A20FDF7D9
:1045D00055FF0120FFF734FF0A20FDF74FFF0220AF
:1045E000FFF767FF0A20FDF749FF0220FFF754FF9E
:1045F0000A20FDF743FF0220FFF722FF0A20FDF704
:104600003DFF0320FFF755FF0A20FDF737FF03208A
:10461000FFF742FF0A20FDF731FF0320FFF710FFED
:104620000A20FDF72BFF0420FFF743FF0A20FDF7C8
:1046300025FF0420FFF730FF0A20FDF71FFF0420AD
:10464000FFF7FEFE0A20FDF719FF10BD2DE9F0412E
:1046500004460F4615461E4621460120FFF7AAFED6
:104660000A20FDF70BFF39460220FFF7A3FE0A20C0
:10467000FDF704FF29460320FFF79CFE0A20FDF703
:10468000FDFE31460420FFF795FE0A20FDF7F6FEF9
:10469000BDE8F0812DE9F04104460F4615461E465F
:1046A00021460520FFF799FE0A20FDF7E7FE39466F
:1046B0000620FFF792FE0A20FDF7E0FE29460720BC
:1046C000FFF78BFE0A20FDF7D9FE31460820FFF7E1
:1046D00084FE0A20FDF7D2FEBDE8F0817CB50546D8
:1046E0000C4645A103C9CDE90001E0B28DF80400F4
:1046F000200A8DF80500200C8DF80600200E8DF89C
:1047000007000822694605F5C060FDF7BFFF7CBDC4
:104710007CB505460C463AA103C9CDE90001E0B2DB
:104720008DF80400200A8DF80500200C8DF8060095
:10473000200E8DF807000822694605F5C060FDF7D8
:10474000A5FF7CBD1CB504462FA103C9CDE900011E
:104750000822694604F5C060FDF798FF1CBD1CB532
:1047600004462BA103C9CDE900010822694604F5DE
:10477000C060FDF78BFF1CBD7CB505460C4626A12D
:1047800003C9CDE90001E0B28DF80400200A8DF8DC
:104790000500200C8DF80600200E8DF80700082279
:1047A000694605F5C060FDF771FF7CBDFF0602019B
:1047B00000000000FF06160200000000FF060001D6
:1047C00000000000FF1000002B4060010600000008
:1047D0002B406001070000002B4060010F0000002B
:1047E0002B406001800000002F606001030000008A
:1047F0002F60600101000000237A600100000000CA
:1048000023816001000000002B4060013F00000098
:10481000404160010000000023FF60010000000033
:10482000002008490880084908800849088008498C
:104830000880084908600849086008490860084974
:10484000086070476C0000206E000020700000209F
:104850007200002074000020780000207C000020FE
:10486000800000207CB506460C46154600200090CE
:104870000190200A8DF80000E0B28DF80100280AAE
:104880008DF80200E8B28DF8030008226946304630
:10489000FEF793F97CBD7CB506460C461546002014
:1048A00000900190200A8DF80000E0B28DF8010020
:1048B000280A8DF80200E8B28DF803000822694644
:1048C0003046FEF77AF97CBD7CB506460C461546A7
:1048D000002000900190200A8DF80000E0B28DF8D1
:1048E0000100280A8DF80200E8B28DF803000822C2
:1048F00069463046FEF761F97CBD002025490880F5
:1049000025490880254908802549088025490880CF
:10491000254908807047C820224908804042224922
:10492000088070476FF0C7001E490880C8201E49E4
:104930000880704700201B4908801B490880704789
:104940006FF0C70015490880C820154908807047D6
:10495000C820124908804042114908807047002051
:104960000E4908800E49088070474FF4C870094905
:1049700008800949088070474FF670600549088033
:1049800005490880704700200249088002490880D4
:10499000704700008400002086000020880000206E
:1049A0008A0000208C0000208E00002010B5034CEF
:1049B000082203492046FEF72FF910BD4001901848
:1049C000900000202DE9F04F87B081460D4600246D
:1049D000142102A804F0D5FB00260027A046A24619
:1049E000A34600200190012411E009F4004028B101
:1049F000012002A9085526B9264602E0002002A996
:104A000008554FF6FF7000EA4909601CC4B2112C2A
:104A1000EBDB344618E002A8005D30B9BBF1000FB3
:104A200010D127464FF0010B0CE0102C0AD14FB9E2
:104A3000BBF1000F06D110274FF0010B4FF000081B
:104A40004FF0000A601CC4B2112CE4DB781CC4B225
:104A500012E002A8005D20B1B8F1000F0AD1A04613
:104A600008E0102C06D1B8F1000F03D14FF0000878
:104A70004FF0000A601CC4B2112CEADB08F10100FF
:104A8000C4B20FE002A8005D20B9BAF1000F07D14F
:104A9000A24609E0102C03D1BAF1000F00D1A246C2
:104AA000601CC4B2112CEDDB00BFB81B00EBD07151
:104AB00006EB61016970B81B401C28712878082832
:104AC00007D12879062804DB28790E2801DA082086
:104AD0006870B8F1000F07D0BAF1000F04D00820B9
:104AE00068700120687101E00020687128790C2845
:104AF00004DB082068700120E87001E00020E87005
:104B000068782978401A40B2A87007B0BDE8F08FE5
:104B10000246134610E010782A2805D01078202885
:104B200002DB10787A2801DDFF20704710782C28EE
:104B300001D1481EC1B2521C0029ECD1D01AC0B21A
:104B4000F3E710B50246012000E050430B1EA1F12F
:104B50000104E1B2F9D110BD2DE9F34F81B0074650
:104B60003C4600200090834681460026804628E08F
:104B700020782D2802D148F00208641C20782C28C7
:104B800002D020782A2800D11CE020782E2803D1DA
:104B900048F00108641C09E02078392802DC2078FC
:104BA000302803DA4FF0000900260BE008F001007E
:104BB00010B1701CC6B203E009F1010000F0FF095A
:104BC000641CD5E700BF08F0020000B17F1C00257F
:104BD0000EE0A9F10100401BC1B20A20FFF7B1FFAE
:104BE000795D3039009A00FB01200090681CC5B245
:104BF0004D45EEDB052E00DD0526029806700025EA
:104C00000EE0701E401BC1B20A20FFF79AFF09F1A7
:104C100001012944795C303900FB01BB681CC5B235
:104C2000B542EEDB31460A20FFF78BFF009901FB0E
:104C300000BA08F0020008B1CAF1000A5046BDE807
:104C4000FE8F2DE9FC5F07468A464FF00008CDF83D
:104C500004A0FDA1019804F063FA0646F07930380B
:104C600000F0FF0B03213046FFF752FF0546FF2DF2
:104C700004D070196946FFF76FFF38704FF00009D4
:104C80006CE0F1A1019804F04BFA064600245CE0C8
:104C9000042000EB8400C1B23046FFF739FF05461F
:104CA000FF2D09D070196946FFF756FFC1B208EB16
:104CB0008802F81C815400E049E0052000EB8400E4
:104CC000C1B23046FFF724FF0546FF2D0AD0701908
:104CD0006946FFF741FFC1B208EB8802F81C104497
:104CE000417000E033E0062000EB8400C1B23046A2
:104CF000FFF70EFF0546FF2D0AD070196946FFF732
:104D00002BFF81B208EB8802F81C1044418000E0C0
:104D10001DE0072000EB8400C1B23046FFF7F8FE2B
:104D20000546FF2D0AD070196946FFF715FFC1B27D
:104D300008EB8802F81C1044017100E007E008F15C
:104D4000010000F0FF08601CC4B2042CA0DB00BF0F
:104D5000701C019009F1010000F0FF09D94590DBBA
:104D6000BDE8FC9F2DE9FC5F07468A464FF000082E
:104D7000CDF804A0B6A1019804F0D2F90646F07966
:104D8000303800F0FF0B03213046FFF7C1FE054627
:104D9000FF2D04D070196946FFF7DEFE78704FF0E2
:104DA000000970E0AAA1019804F0BAF906460024AF
:104DB00060E0042000EB8400C1B23046FFF7A8FE9B
:104DC0000546FF2D0AD070196946FFF7C5FEC1B22E
:104DD00008EB880207F13F00815400E04CE0052019
:104DE00000EB8400C1B23046FFF792FE0546FF2D6E
:104DF0000BD070196946FFF7AFFEC1B208EB88020D
:104E000007F13F001044417000E035E0062000EB60
:104E10008400C1B23046FFF77BFE0546FF2D0BD064
:104E200070196946FFF798FE81B208EB880207F116
:104E30003F001044418000E01EE0072000EB8400AA
:104E4000C1B23046FFF764FE0546FF2D0BD0701946
:104E50006946FFF781FEC1B208EB880207F13F0007
:104E60001044017100E007E008F1010000F0FF08C4
:104E7000601CC4B2042C9CDB00BF701C019009F1C3
:104E8000010000F0FF09D9458CDBBDE8FC9F2DE94E
:104E9000FC5F07468A464FF00008CDF804A06EA1DB
:104EA000019804F03DF90646F079303800F0FF0B28
:104EB00003213046FFF72CFE0546FF2D04D0701964
:104EC0006946FFF749FEB8704FF0000970E062A133
:104ED000019804F025F90646002460E0042000EB68
:104EE0008400C1B23046FFF713FE0546FF2D0AD0FD
:104EF00070196946FFF730FEC1B208EB880207F16E
:104F00007B00815400E04CE0052000EB8400C1B23E
:104F10003046FFF7FDFD0546FF2D0BD070196946A1
:104F2000FFF71AFEC1B208EB880207F17B001044BC
:104F3000417000E035E0062000EB8400C1B230464D
:104F4000FFF7E6FD0546FF2D0BD070196946FFF708
:104F500003FE81B208EB880207F17B001044418018
:104F600000E01EE0072000EB8400C1B23046FFF7EE
:104F7000CFFD0546FF2D0BD070196946FFF7ECFDFC
:104F8000C1B208EB880207F17B001044017100E018
:104F900007E008F1010000F0FF08601CC4B2042C17
:104FA0009CDB00BF701C019009F1010000F0FF09BB
:104FB000D9458CDBBDE8FC9FF8B505460F4628A116
:104FC000384604F0ADF8064606213046FFF7A0FD4E
:104FD0000446FF2C05D030196946FFF7BDFD85F862
:104FE000C80007213046FFF793FD0446FF2C05D08B
:104FF00030196946FFF7B0FD85F8C9000921304630
:10500000FFF786FD0446FF2C05D030196946FFF7EF
:10501000A3FDC5F8DD00F8BD2DE9F8430546884637
:1050200011A1404604F07CF8064602213046FFF705
:105030006FFD0446FF2C05D030196946FFF78CFD43
:1050400085F8D600002727E0244750475356000034
:1050500024474C475356000024424447535600000F
:1050600024474E474741000024474E475341000024
:10507000F81CC1B23046FFF74BFD0446FF2C08D0A8
:1050800030196946FFF768FDC1B205F1CA00C15584
:1050900000E003E0781CC7B20C2FE9DB00BF0F2152
:1050A0003046FFF735FD0446FF2C05D03019694620
:1050B000FFF752FDA5F8D70010213046FFF728FD75
:1050C0000446FF2C05D030196946FFF745FDA5F8C9
:1050D000D90011213046FFF71BFD0446FF2C05D0F7
:1050E00030196946FFF738FDA5F8DB00BDE8F88305
:1050F0002DE9F0432DED028B81B006468846FEA1D6
:10510000404604F00DF8074601213846FFF700FD40
:105110000446FF2C23D038196946FFF71DFD814650
:105120009DF800100A20FFF70CFDB9FBF0F542F2E4
:105130001070B5FBF0F0C1B2BB2081556420B5FB07
:10514000F0F06421B0FBF1F201FB1201BC208155AB
:105150006420B5FBF0F100FB1151BD208155032106
:105160003846FFF7D5FC0446FF2C42D03819694673
:10517000FFF7F2FC05469DF80000801CC1B20A2032
:10518000FFF7DFFCB5FBF0F046F8BE0F9DF800001E
:10519000801CC1B20A20FFF7D4FCB5FBF0F100FB84
:1051A000115000EE100AB8EE408A07210A20FFF7DE
:1051B000C8FC3168484300EE100AF8EE400A9DF83A
:1051C0000000C0F10700C1B20A20FFF7BAFC00EEF0
:1051D000100AB8EE400A20EE080A9FEDC91AC0EE88
:1051E000011A30EEA10ABCEEC00A10EE100A46F811
:1051F000BE0904213846FFF78BFC0446FF2C02D081
:10520000385D86F8C20005213846FFF781FC044668
:10521000FF2C44D038196946FFF79EFC05469DF8DF
:105220000000801CC1B20A20FFF78BFCB5FBF0F038
:1052300046F8C30F9DF80000801CC1B20A20FFF79A
:1052400080FCB5FBF0F100FB115000EE100AB8EE47
:10525000400AB0EE408A07210A20FFF772FC31684D
:10526000484300EE100AF8EE400A9DF80000C0F135
:105270000700C1B20A20FFF764FC00EE100AB8EE86
:10528000400A20EE080A9FED9E1AC0EE011A30EE89
:10529000A10ABCEEC00A10EE100A46F8C3090621A6
:1052A0003846FFF735FC0446FF2C02D0385D86F8FF
:1052B000C7000C213846FFF72BFC0446FF2C33D0E7
:1052C0003D5D412D06D141208E49087001208E4957
:1052D000487629E0442D06D144208A4908700220EE
:1052E0008949487620E0462D06D146208549087038
:1052F00003208549487617E0522D06D15220814976
:1053000008700420804948760EE04E2D06D14E20CC
:105310007C49087005207C49487605E00A207949D7
:105320000870002078494876FF2C04D03819694667
:10533000FFF712FC054609213846FFF7E9FB044652
:10534000FF2C1ED038196946FFF706FC054642F2CD
:105350001070B5FBF0F0C1B2BA2081556420B5FBE6
:10536000F0F06421B0FBF1F201FB1201B92081558C
:105370006420B5FBF0F100FB115000F5FA60A6F8CF
:10538000B70001B0BDEC028BBDE8F083F8B5044670
:105390000D465EA1284603F0C3FE064607213046AF
:1053A000FFF7B6FB0746FF2F16D0F0196946FFF747
:1053B000D3FBA4F8E1009DF8000003280CDA9DF867
:1053C0000000C0F10300C1B20A20FFF7BAFBB4F835
:1053D000E1104843A4F8E100F8BD70B504460D465D
:1053E00029462046FFF72DFC29462046FFF74FFDB2
:1053F00029462046FFF7E0FD29462046FFF70CFE30
:1054000029462046FFF774FE29462046FFF7BEFFD7
:1054100070BD10B52DED048B82B03E48D0F8C300AE
:1054200000EE100AB8EE400AB0EE408A9FED3A0A4C
:10543000C8EE000AB0EE608A10EE904A204607F0EF
:10544000F5FE41EC190B334890F8C70053EC192BCB
:1054500032A10090374803F0FDFC2E48D0F8BE0082
:1054600000EE100AB8EE400AB0EE408A9FED2A0A1C
:10547000C8EE000AB0EE608A10EE904A204607F0AF
:10548000D5FE41EC190B234890F8C20053EC192BC0
:1054900029A10090274803F0DDFC1E48D0F8DD006C
:1054A00000EE100AB8EEC00AB0EE408AB2EE040A6E
:1054B000C8EE000AB0EE608A10EE904A204607F06F
:1054C000B5FE41EC190B53EC192B21A1194803F03F
:1054D000C1FC1048B0F8E10000EE100AB8EE400A36
:1054E000B0EE408A9FED1F0AC8EE000AB0EE608A57
:1054F00010EE904A204637E0474E524D43000000E0
:1055000000007042AC000020BE0F002024474E5621
:1055100054470000A80E00200050C3474C6F6E6730
:1055200069747564653A252E35662025316320201F
:10553000200000008C0F00204C6174697475646554
:105540003A252E35662025316320202000000000FA
:10555000416C7469747564653A252E31666D20203E
:105560002020200000007A4407F060FE41EC190B77
:1055700053EC192BF6A1FB4803F06CFCFA4890F8A9
:10558000C920FAA1F74803F065FCF74800786421C8
:1055900090FBF1F201FB12042246FBA1F14803F05B
:1055A00059FCF1488078642190FBF1F201FB120470
:1055B0002246FCA1EB4803F04DFCEB4890F8BA0002
:1055C0000090E94890F8B930B0F8B720FCA1E54860
:1055D00003F040FCE44890F8BD000090E24890F8E9
:1055E000BC3090F8BB20FDA1DE4803F033FC02B0D4
:1055F000BDEC048B10BD10B52DED048B86B0DA48E0
:10560000D0F8C30000EE100AB8EE400ADFEDFA0A47
:1056100080EE201A11EE104A204607F007FE41ECFA
:10562000180BD148D0F8BE0000EE100AB8EE400AC0
:10563000DFEDF10A80EE201A11EE104A204607F045
:10564000F5FD41EC190B9FEDED0B53EC102B51ECDC
:10565000180B07F0F3FB28D29FEDEA0B53EC102B4D
:1056600051EC180B07F008FA1FD29FEDE80B53EC32
:10567000102B51EC190B07F0E1FB16D29FEDE50B57
:1056800053EC102B51EC190B07F0F6F90DD2E34A4D
:1056900018EE100A18EE901A10605160083219EED8
:1056A000101A19EE900A11605060AF48B0F8E1008E
:1056B00000EE100AF8EE400A9FEDD91A80EE810A3A
:1056C00010EE100AD549C91EC1F81300A64800788B
:1056D000642190FBF1F201FB1200D049C91EC8758C
:1056E000A14890F8BB00083008709F4890F8BC00B3
:1056F00048709D4890F8BD0088709B4890F8D6008F
:105700000876084680784978C44AD21E1278C34B7E
:10571000DB1EDB7DCDE90232CDE90410BF49083143
:1057200008684968BD4ACDE900011068536843EC38
:10573000100BD01E017E53EC102BBA48FCF7F8FD7D
:1057400006B0BDEC048B10BD70B5B748008800F4FE
:105750000040E8B1B4480088C0F30E05002405E01D
:10576000B248005DB2490855601C84B2AC42F7DB18
:105770000020AD490880AE4908557B48FFF72DFE53
:10578000FFF739FF0120AB4908700020AA490870D3
:10579000002070BD10B52DED048BB0EE408AF0EE08
:1057A000608A9FEDA60B53EC102B51EC180B07F001
:1057B0009FF941EC190B9FEDA30B53EC102B06F056
:1057C000A9FF41EC100BBDEC048B10BD10B52DED05
:1057D000048BB0EE408AF0EE608A9FED980B53EC9C
:1057E000102B51EC180B07F083F941EC190B9FEDCE
:1057F000950B53EC102B06F08DFF41EC100BBDEC1C
:10580000048B10BD10B52DED048BB0EE408AF0EE88
:10581000608A9FED8C0B53EC102B51EC180B07F0AA
:1058200067F941EC190B9FED850B53EC102B06F03B
:1058300071FF41EC100BBDEC048B10BD10B52DEDCC
:10584000068BB0EE408AF0EE608AB0EE480AF0EEC9
:10585000680AFFF7D7FFB0EE40AAF0EE60AA9FED0E
:105860007B0B53EC102B51EC1A0B06F097FE41EC1E
:10587000190B9FED761BB0EE490AF0EE690A05F0B0
:105880006FFAB0EE40AAF0EE60AA51EC1A0B07F0E6
:1058900099F8BDEC068B10BD00B52DED108B99B0BD
:1058A000B0EE40AAF0EE60AAB0EE418AF0EE618A56
:1058B000B0EE42BAF0EE62BAB0EE439AF0EE639AFE
:1058C0009FED640B8DED120B9FED640B53EC102BD1
:1058D00051EC180B07F00CF941EC180B9FED5F0B26
:1058E00053EC102B51EC190B07F002F941EC190B9A
:1058F00053EC192B51EC180B07F0AEFBCDE9160158
:1059000053EC1B2B51EC1A0B07F0A6FB41EC1E0BC2
:105910009FED520B53EC102B07F0EAF8CDE9140180
:105920009FED500B53EC102B9DED160B51EC100B13
:1059300006F0F0FE41EC1E0BB0EE4E0AF0EE6E0AE1
:1059400006F0BAF8B0EE40CAF0EE60CA8EE0000091
:1059500053706565643A252E33666B6D2F68202081
:10596000202020008C0F0020A80E00204750532B31
:1059700042442056616C696420736174656C6C6983
:1059800074653A2530326400475053205669736974
:10599000626C6520736174656C6C6974653A25305E
:1059A0003264000042442056697369626C6520735A
:1059B0006174656C6C6974653A253032640000006E
:1059C00055544320446174653A253034642F2530A2
:1059D00032642F25303264202020000055544320AB
:1059E00054696D653A253032643A253032643A257F
:1059F00030326420202000008096184B0000000008
:105A0000008056400000000000C06240000000001E
:105A1000000014400000000000805140C10F002031
:105A200000006145D4D80008AE0000201805002011
:105A3000D80F0020B0000020B2000020000000407D
:105A4000FB210940000000000080664000000000CB
:105A50000080764000000040A65458414DC90777A9
:105A600046DF913F00000000000000401FED030BE7
:105A700053EC102B9DED140B51EC100B06F04AFE6D
:105A800041EC1E0BB0EE4E0AF0EE6E0A06F014F872
:105A9000B0EE40DAF0EE60DAB0EE490AF0EE690AF4
:105AA00005F0FAF8B0EE40FAF0EE60FAB0EE480A0F
:105AB000F0EE680A05F0F0F88DED000B53EC1F2BAB
:105AC0009DED000B51EC100B07F012F853EC1D2B61
:105AD000CDE902019DED020B51EC100B07F008F827
