:020000040800F2
:10000000801F0020218F0008B1070008B3070008F7
:10001000C3070008C7070008CB070008000000005E
:10002000000000000000000000000000338F000806
:10003000CF07000800000000378F0008398F000844
:100040003B8F00083B8F00083B8F00083B8F000868
:100050003B8F00083B8F00083B8F00083B8F000858
:100060003B8F0008B53600083B8F00083B8F000827
:100070006742000803460008AF420008D94500085F
:100080003B8F00083B8F00083B8F0008D12F0008F2
:10009000ED2F0008113000083B8F00083B8F00084F
:1000A0003B8F00083B8F00083B8F00083B8F000808
:1000B0003B8F00083B8F00083B8F00083B8F0008F8
:1000C0003B8F00083B8F00083B8F00083B8F0008E8
:1000D0003B8F0008DF2B0008373D000883410008F4
:1000E0003B8F00083B8F00083B8F00083B8F0008C8
:1000F0003B8F00083B8F00083B8F0008B548000885
:100100003B8F00083B8F0008B13700083B8F000889
:10011000F3440008474800083B8F00083B8F000865
:100120003B8F0008DF4B0008052D00083B8F0008BF
:100130003B8F00083B8F00083B8F000857330008B7
:1001400073330008153500083B8F00083B8F00080B
:100150003B8F0008FD4B00081B2D0008734B000867
:100160003B8F00083B8F00083B8F00083B8F000847
:100170003B8F00083B8F00083B8F00083B8F000837
:100180003B8F00083B8F000800F002F800F092F867
:100190000AA090E8000C82448344AAF10107DA45E2
:1001A00001D100F087F8AFF2090EBAE80F0013F0A2
:1001B000010F18BFFB1A43F00103184710D90000C4
:1001C00030D90000103A24BF78C878C1FAD8520755
:1001D00024BF30C830C144BF04680C6070470000C1
:1001E0000023002400250026103A28BF78C1FBD840
:1001F000520728BF30C148BF0B6070476E2909F015
:100200003F80702909F0818166290DF0BD81652943
:100210000DF0BA8167290DF0B78161290DF0B68123
:1002200003681B0A28BF41F08001692908F0EC87A8
:10023000642908F0E987752908F0E6876F2909F035
:100240000E81782909F04D81E92909F0A980E42976
:1002500009F0A680F52909F0A380EF2909F00B81A8
:10026000F82909F04C810368DB0928BF41F08001BF
:10027000632909F05386732909F05886E32909F0A8
:100280006386F32909F06886002070471FB50DF0DA
:100290003AF909F0B7FE0400002000210CF058FAEA
:1002A000401C6060002000210CF03CFAE0601FBDA3
:1002B00010B510BD09F078FE1146FFF7E7FF00F01A
:1002C0005DF809F055FF03B4FFF7F2FF03BC03F03C
:1002D0006BFE000010B54FF4A06006F0B7F8A82040
:1002E00002F03EFD03F00EFE03F024FE03F042FE9A
:1002F0004FF4E13002F07AFB03F0BAFC4FF4E13046
:1003000003F05FFE4FF4E13003F0E1FF4FF47A7049
:1003100002F088FD012002F0B3FDC82002F082FD4A
:1003200040F2015002F0E2FE642002F07BFD532116
:1003300040F2CF7003F004FAC4A002F0CDFC10BD6F
:1003400010B5C7480078401CC549087008460078B9
:10035000142812DDC34800880D280ED1C248007849
:1003600058B1C2484388C2484288C2480178C2A0F6
:1003700002F0B2FC0020BA49087010BD8AB0FFF745
:10038000A9FF04F095FD002000F0C0FB642002F0FE
:1003900049FD5AE1BF4800780028FAD000F00DFD71
:1003A000B448007830B101280FD002287ED003284D
:1003B0000AD10BE104F0FCFE04F067FF642002F0B8
:1003C00031FDB5A002F088FC35E1A64800880D2873
:1003D0000DD1B548008802B2B448008801B2B448D3
:1003E000008800B201F031FF04F04FFF19E09D4892
:1003F000008801280DD1AF48008802B2AB480088C0
:1004000001B2AB48008800B202F00AFA04F0D0FE54
:1004100007E0944800880F2803D10121084600F026
:10042000DCFEA5480088642853DD9FEDA40B8DED0C
:10043000080B9FEDA20B8DED060B9FEDA00B8DED34
:10044000040B08AA04A906A89FED9E3B9FED9F2BD5
:100450009FEDA01B9FEDA10B05F06CFF9DED080B20
:100460008DED020B9DED040B8DED000B9DED060B4C
:1004700053EC102B9BA002F02FFC642002F0D2FC66
:1004800008AA04A906A89FED9F3B9FEDA02B9FED16
:10049000A11B9FED8E0B05F04DFF9DED080B8DED23
:1004A000020B9DED040B8DED000B00E012E09DEDC5
:1004B000060B53EC102B99A002F00EFC642002F006
:1004C000B1FC9E480078042802D105209B490870A1
:1004D00000BFB0E09A48007860B19948407848B9C8
:1004E0009648007830B90120944908709448007803
:1004F0009349487091480078092865D2DFE800F0F8
:10050000050E641A2A314E586000642002F08AFCFD
:1005100000F0CAFC8BA002F0DFFB55E00121084689
:1005200000F05BFE0121084600F068FB012000F0AE
:10053000EDFA49E00021022000F04FFE8D480078DE
:1005400038B18C480078072803D00221002000F041
:1005500055FB39E0642002F065FC87A002F0BCFB8B
:1005600032E00021012000F038FE8F48007830B1E1
:100570008D480078072802D0002000F0C7FA8A488A
:100580000078072803D10221012000F037FB7948C9
:100590000078072801D16949087015E0022101207F
:1005A00000F02CFB01F024FE0720644908700BE0EA
:1005B0000121022000F011FE022000F0A7FA03E062
:1005C00000205E49087000BF00BF34E0774B93ED18
:1005D000030ABDEEC00A10EE103A1AB2734B93ED47
:1005E000020ABDEEC00A10EE103A19B26F4B93ED3D
:1005F000010ABDEEC00A10EE103A18B201F025FE55
:100600006A4B93ED060ABDEEC00A10EE103A1AB21C
:10061000664B93ED050ABDEEC00A10EE103A19B212
:10062000624B93ED040ABDEEC00A10EE103A18B208
:1006300002F0F6F800BF00BF00F01AFC00F0E8FB83
:1006400003F06AFB002013490870A3E67379732056
:10065000696E69742066696E697368210D0A00000D
:10066000000000205C00002056000020A0000020B8
:100670009C0000200B0000206D6F64653A2564200B
:10068000686D63663A256420686D63623A25640D7F
:100690000A000000480000207374616E6462792EC5
:1006A0002E2E0D0A000000005400002050000020F3
:1006B0004E000020520000205A00002000000000E0
:1006C00000000000B4B8105439DC3E40281E36E269
:1006D00000B35D402801E00A37DC3E408E272E390A
:1006E00001B35D4078313A252E3366092079313ADD
:1006F000252E336620646973313A252E33660D0A40
:1007000000000000BF7D5F5439DC3E40FC85C830EE
:1007100001B35D40000000C038DC3E4078323A252D
:100720002E3366092079323A252E336620646973A8
:10073000323A252E33660D0A000000000C0000201E
:10074000010000207461736B206F6B2C706C616E04
:100750006520696E20686F6D652C6167762069730E
:10076000206368617267696E67206E6F772E2E2E28
:100770000D0A0000090000207461736B206F6B2C60
:10078000706C616E65206F757420686F6D652C618B
:100790006776206973206368617267696E67206E8F
:1007A0006F772E2E2E0D0A0008000020D8000020A2
:1007B000704705E006A002F08FFA642002F032FBD9
:1007C000F8E700BFFEE700BFFEE700BFFEE77047A7
:1007D000686172646661756C742E2E2E0D0A0000BD
:1007E00010B5A2B00024802102A808F074FC0020FB
:1007F0000190F1222146641C02A8425401222146A4
:10080000641C4254641CBB4890ED000A8DED010A43
:100810009DF804202146641C02A842549DF805203E
:100820002146641C42549DF806202146641C425413
:100830009DF807202146641C4254AE4890ED010A01
:100840008DED010A9DF804202046611CCCB202A95E
:100850000A549DF805202046611CCCB202A90A5416
:100860009DF806202046611CCCB202A90A549DF8CE
:1008700007202046611CCCB202A90A549D4890ED85
:10088000020A8DED010A9DF804202046611CCCB2BD
:1008900002A90A549DF805202046611CCCB202A989
:1008A0000A549DF806202046611CCCB202A90A54C5
:1008B0009DF807202146601CC4B202A842540822B9
:1008C0002046611CCCB202A90A5419222046611CA0
:1008D000CCB202A90A548DF80A40A01EC1B202A8E7
:1008E00003F0EEFAA11E02AA5054214602A802F01B
:1008F000E1F922B010BD10B58178022900DA10BDEF
:100900008B1EC25C0378F12B01D1012300E0002390
:100910004478022C01D1012400E00024234033B1AB
:10092000C378754C23700379E3704379237100BF5A
:10093000E5E710B58178022900DA10BD8B1EC25C94
:100940000378712B01D1012300E000234478082CA7
:1009500001D1012400E000242340E3B3C378674CB5
:1009600063700379A3704379E370C379847943EAB0
:10097000042300EE103AB8EEC00A604B83ED010A82
:10098000437A047A43EA042300EE103AB8EEC00A30
:100990005A4B83ED020AC37A847A43EA042300EEB9
:1009A000103AB8EEC00A554B83ED030A437B047B33
:1009B00043EA042300EE103AB8EEC00A4F4B83ED31
:1009C000040AC37B847B43EA042300EE103AB8EEAA
:1009D000C00A4A4B00E00CE083ED050A437C047C2E
:1009E00043EA042300EE103AB8EEC00A434B83ED0D
:1009F000060A00BFA1E710B590B000244021684668
:100A000008F069FB3E480078401C3D4908700846E4
:100A100000780A286BDD0020087071222046611CD6
:100A2000CCB20DF8002007222046611CCCB20DF894
:100A30000020601CC4B2334802782046611CCCB24E
:100A40000DF8002000222046611CCCB20DF80020D9
:100A50002046611CCCB20DF800202B4802782046BD
:100A6000611CCCB20DF80020274842782046611C5A
:100A7000CCB20DF80020244882782046611CCCB20C
:100A80000DF800202048C2782046611CCCB20DF839
:100A900000201D4802792046611CCCB20DF80020D0
:100AA000194842792046611CCCB20DF80020002282
:100AB0002046611CCCB20DF8002008222046611CA3
:100AC000CCB20DF8002019222046611CCCB20DF8E2
:100AD00000208DF80240A01EC1B2684603F0F0F974
:100AE000A11E0DF801002146684603F063FD10B019
:100AF00010BD0000D80D002001000020D80000200B
:100B0000060000200B0000203E00002010B5044627
:100B1000002C47D0FE480078012806D0022814D0C7
:100B2000032822D004283CD132E004F0D9FBF94854
:100B30008078022808D1F748C078022804D104F050
:100B4000D6FB0220F24908702BE004F0DDFBF148EF
:100B50000079012808D1EF484079012804D104F038
:100B6000DAFB0320EA4908701BE004F09CFBE9482B
:100B7000007801280BD1E7484078012807D104F01C
:100B8000A1FB0420E2490870E3A002F0A5F808E008
:100B90000720DF490870012C02D10320E5490870C5
:100BA00000BF2AE000BF04F09BFB04F0ADFB04F0A3
:100BB0007AFBD84880780228F5D1D648C078022838
:100BC000F1D1D44800790128EDD1D24840790128EB
:100BD000E9D1D04800780128E5D1CE4840780128F5
:100BE000E1D104F084FB04F096FB04F06BFB0720DA
:100BF000C7490870D0A002F06FF810BD70B5044668
:100C00000D46012C6FD1D3480078012816D1D14868
:100C10004078012812D1CF48807878B9CD48C07883
:100C200060B90120CC4908700020CC49087001202F
:100C3000C8498870C870CAA002F04EF8022D3CD195
:100C4000C5480078012804D0022812D0032833D1E7
:100C50002EE004F052FBAF480079022808D1AD48DD
:100C60004079022804D104F056FB0220BA490870EA
:100C700022E004F02DFB04F01DFBA64800780228BA
:100C800015D1A4484078022811D1A24880780128C3
:100C90000DD1A048C078012809D104F028FB04F048
:100CA00011FB0320AC490870B3A002F015F803E073
:100CB0000720A949087000BF7EE0012D7CD1A6481D
:100CC0000078012806D0022820D003282ED004283E
:100CD0004FD147E0AE48008830B90120AC490880C8
:100CE00004F0E8FA11E045E0AA480088401CA94950
:100CF000088008460088B0F5AA7F06DD002008803D
:100D000004F0E0FA02209449087032E004F0F5FAA9
:100D100080480079022808D17E484079022804D111
:100D200004F0F9FA03208C49087022E004F0D0FAAC
:100D300004F0C0FA77488078012812D17548C0784D
:100D400001280ED17348007802280AD171484078F2
:100D5000022806D104F0B6FA04F0C9FA04207E494C
:100D6000087006E084A001F0B7FF07207A490870F8
:100D700000BF21E004BB00BF04F0BFFA04F09AFA00
:100D8000644800790228F7D1624840790228F3D1FB
:100D9000604800780228EFD15E4840780228EBD105
:100DA00004F0B9FA04F0A3FA04F08CFA00206A49BE
:100DB000087079A001F090FF70BD7E48007801288E
:100DC00002D17D49087022E07C480078012803D1D7
:100DD0000220794908701AE078480078022803D187
:100DE00000207549087012E074480078032805D186
:100DF0000020714908704F49087008E06D4800787C
:100E000028B96E48007810B900206B490870704707
:100E10002DE9FC410020009001900024502500267F
:100E200000274FF0FF0866480078401C64490870AE
:100E300008460078142819DD002008708DF800009D
:100E40000A208DF8010001208DF802008DF8034082
:100E50008DF804508DF805808DF806708DF80760C8
:100E60000822694640F2013002F07BFBBDE8FC81BC
:100E700010B54FF48061534806F082FB18B9012089
:100E80003449087002E00020324908704FF4805164
:100E90004C4806F075FB18B901202E49487002E055
:100EA00000202C49487010BDFD2047490870474973
:100EB00008704749087047490870704710B50446E4
:100EC0004548C078012821D0434890F9020010F12C
:100ED000020F05DC414890F9020010F1020F16DD07
:100EE0003D4890F9020001280BDC3B4890F90200D4
:100EF000B0F1FF3F05DB394890F90200B0F1FF3F48
:100F00007BDB364890F90200012869E039E174E0A2
:100F1000080000203E00002072656C65617365204A
:100F2000706C616E65206973206F6B2E2E2E0D0A1A
:100F3000000000000C0000207069636B706C616E33
:100F400065206973206F70656E206F6B2E2E2E0DDD
:100F50000A0000000E000020090000200A00002006
:100F600066696E6420706C616E65206973206F6BBA
:100F70002E2E2E0D0A0000007069636B20706C61CC
:100F80006E65206973206F6B2E2E2E0D0A000000F7
:100F90002E0000202C0000207069636B206D6163BF
:100FA00068696E6520697320636C6F73652E2E2EE1
:100FB0000D0A0000560000200B0000200100002058
:100FC000300000200010024012000020130000201A
:100FD0001400002015000020AC000020A400002018
:100FE0001EDCFB4890F90200B0F1FF3F18DBF94826
:100FF00090F90200B0F1FF3F12DA5020F649088064
:101000009FEDF60AF64880ED000A0120F5490870C8
:10101000F0484278EE484178F3A001F05DFED2E05E
:10102000EC4890F90200022804DBE94890F902003C
:1010300002281FDAE74890F9020001280ADCE54897
:1010400090F90200B0F1FF3F04DBE14890F90200A3
:1010500001280FDCDE4890F9020001281DDCDC4885
:1010600090F90200B0F1FF3F17DBDA4890F9020077
:10107000012812DD5020D84908809FEDD80AD848B1
:1010800080ED000AFF20D7490870D2484278D04846
:101090004178DFA001F020FE95E0CE4890F90200F3
:1010A000022818DBCA4890F9020010F1020F12DA88
:1010B0005020C94908809FEDDF0AC94880ED000A29
:1010C0000020C8490870C3484278C1484178DAA076
:1010D00001F002FE77E0BF4890F9020010F1020F24
:1010E00017DCBB4890F90200022812DD5020BA49F3
:1010F00008809FEDDA0ABA4880ED000A0020B9495D
:101100000870B4484278B2484178D5A001F0E4FDB7
:1011100059E0DC48408888B9DB48408870B9002035
:10112000AD4908809FEDD90AAD4880ED000A002046
:10113000AC490870D6A001F0CFFD44E0012C0AD1E3
:10114000B420A5490880A3484278A1484178D5A099
:1011500001F0C2FD0CE0022C0AD16FF0B3009E49F1
:1011600008809C4842789A484178D7A001F0B4FDA5
:101170009FEDC60A9A4880ED000A00209949087040
:1011800021E0012C0AD1B42093490880914842788B
:101190008F484178C3A001F09FFD0CE0022C0AD1DA
:1011A0006FF0B3008C4908808A48427888484178BB
:1011B000C5A001F091FD9FEDB50A894880ED000AB8
:1011C00000208849087010BD884201DD084603E010
:1011D0004A42904200DA4842704770B504460D46D4
:1011E000C2480088401CC1490880084600880A2877
:1011F0007EDD00200880A3494888754904F0ACF8DA
:10120000A1494888734904F0A7F8B9480078B9495A
:1012100008707048C078B6490870B748007878B14F
:10122000B548007807280BD000206B4908809FED57
:10123000970A6B4880ED000A00206A49087096E220
:10124000AE48007878B1AD48007807280BD0002070
:10125000614908809FED8D0A614880ED000A0020F9
:1012600060490870EBE7A648007801280BD1002000
:10127000594908809FED850A594880ED000A0020F1
:1012800058490870DBE7012D7DD1022C7CD19D48A7
:1012900090F90000C01CD0B995480078012816D1FB
:1012A00094480078012812D0FE20964908706FF00B
:1012B000B300494908809FED750A494880ED000A4E
:1012C00000204849087090A001F006FDB7E78D485E
:1012D00090F90000801CE0B985480078012818D0FA
:1012E00084480078012814D1FF208649087000E066
:1012F000FAE36FF0B300384908809FED640A38487C
:1013000080ED000A00203749087087A001F0E4FC56
:1013100095E77C4890F90000401CD0B974480078EB
:10132000012816D173480078012812D00020754991
:1013300008706FF0B300284908809FED540A2848D0
:1013400080ED000A0020274908707FA001F0C4FC4E
:1013500075E76C480078E0B965480078012818D036
:1013600064480078012814D1664908706FF0630062
:10137000194908809FED450A194880ED000A0020B0
:101380001849087001E072E275E17BA001F0A4FC4D
:1013900055E75C480078012819D1554800780128A4
:1013A00015D154480078012811D002205549087001
:1013B0000120514908700020074908809FED330A39
:1013C000074880ED000A002006490870ECE0EFE0D5
:1013D000A4000020AC0000201600002000003442D1
:1013E000180000201C0000207475726E207269675E
:1013F000687420686D63665F6D69643A256420686F
:101400006D63625F6D69643A25640D0A0000000037
:101410007475726E206C65667420686D63665F6DAE
:1014200069643A256420686D63625F6D69643A257A
:10143000640D0A000000B44272756E20726967681C
:101440007420686D63665F6D69643A256420686D19
:1014500063625F6D69643A25640D0A000000B4C2DE
:1014600072756E206C65667420686D63665F6D6969
:10147000643A256420686D63625F6D69643A25642F
:101480000D0A00009C000020A000002000000000C9
:101490006D697373206C696E652C73746F700D0ABF
:1014A00000000000676F206F757420686D63665FD1
:1014B0006D69643A256420686D63625F6D69643AA2
:1014C00025640D0A00000000676F206261636B20D5
:1014D000686D63665F6D69643A256420686D636258
:1014E0005F6D69643A25640D0A0000003200002037
:1014F0001D0000201E000020080000200900002020
:101500000A0000201200002072656C65617365207E
:10151000706C616E65206C696E652066696E642E04
:101520002E2E0D0A0000000072656C656173652047
:10153000706C616E65206C696E65206D6973732EC9
:101540002E2E0D0A000000006669727374206C690B
:101550006E652066696E642C616776206E6F7420FC
:1015600073746F70207374696C6C20676F20626194
:10157000636B2E2E2E0D0A006669727374206C69DF
:101580006E65206D6973732C616776206E6F7420B1
:1015900073746F70207374696C6C20676F20626164
:1015A000636B2E2E2E0D0A00E4A001F095FB46E69B
:1015B000EE48007802281AD1ED480078012816D0AC
:1015C000EC480078012812D10320E84908706FF038
:1015D000B300E94908801FED530AE84880ED000A8E
:1015E0000020E7490870E7A001F076FB27E6DF4816
:1015F000007803281AD1DE480078012816D1DD488A
:101600000078012812D00420D84908706FF0B30088
:10161000D94908801FED630AD84880ED000A0020F0
:10162000D7490870E0A001F057FB08E6CF480078E2
:1016300004281CD1CE480078012818D0CD48007865
:10164000012814D10520C94908700020CA49088022
:101650001FED720AC94880ED000A0020C8490870D1
:101660000820D7490870D7A001F036FBE3E3022039
:10167000FFF724FCDFE3012C99D1DC4890F900004E
:10168000C01CC8B9BA480078012815D1B9480078FB
:10169000012811D0FE20D5490870B420B649088031
:1016A0001FED860AB54880ED000A0020B449087095
:1016B000CFA001F011FBBEE3CC4890F90000801CE4
:1016C000C8B9AB480078012815D0AA48007801288D
:1016D00011D1FF20C5490870B420A74908801FED2B
:1016E000950AA64880ED000A0020A5490870C6A00A
:1016F00001F0F2FA9FE3BD4890F90000401CC8B920
:101700009B480078012815D19A480078012811D00B
:101710000020B64908706420974908801FEDA50A8B
:10172000964880ED000A002095490870BCA001F0A1
:10173000D3FA80E3AD480078D0B98D48007801280D
:1017400016D08C480078012812D1A8490870BA49EF
:1017500008700020884908801FEDB40A874880ED92
:10176000000A002086490870B4A001F0B5FA62E3CF
:101770009E480078012819D17D480078012815D1AC
:101780007C480078012811D0022098490870B420C4
:10179000794908801FEDC30A784880ED000A0020CF
:1017A00077490870B1A001F097FA44E38F480078B8
:1017B000022819D16E480078012815D06D480078AC
:1017C000012811D1032089490870B4206A49088092
:1017D0001FEDD20A694880ED000A002068490870B0
:1017E000A8A001F079FA26E380480078032819D1EF
:1017F0005F480078012815D15E480078012811D093
:1018000004207A490870B4205B4908801FEDE10A82
:101810005A4880ED000A00205949087062A001F082
:101820005BFA08E37148007804281CD1504800781E
:10183000012818D04F480078012814D105206B49A1
:10184000087000204C4908801FEDF00A4B4880EDDD
:10185000000A00204A49087001209449087094A0A9
:1018600001F03AFAE7E20120FFF728FBE3E2002D5E
:101870009BD1022C60D19A4890F90000C01CD8B9C5
:101880003B480078012817D13A480078012813D046
:10189000FE20934908706FF0B300374908809FED30
:1018A000910A364880ED000A002035490870AFF2F1
:1018B000A83001F011FABEE2894890F90000801CBE
:1018C000D8B92B480078012817D02A480078012879
:1018D00013D1FF20824908706FF0B30026490880B9
:1018E0009FED800A254880ED000A002024490870F9
:1018F000AFF2CC3001F0F0F99DE2794890F90000A8
:10190000401CD0B91A480078012816D1194800782F
:10191000012812D000207249087001204649087041
:101920000020154908809FED6F0A144880ED000AD9
:10193000002013490870D8E07CE1DAE07365636F3A
:101940006E64206C696E652066696E642C616776D2
:101950002073746F7020616E642072656C656173B2
:101960006520706C616E650D0A0000001200002099
:101970001D0000201E00002016000020180000207E
:101980001C0000207365636F6E64206C696E6520B7
:101990006D6973732C61677620676F206261636B7A
:1019A00020686F6D650D0A007468697264206C6947
:1019B0006E652066696E642E2E2E0D0A00000000F2
:1019C0000C0000207468697264206C696E65206D7B
:1019D0006973732C6167762073746F70206368611C
:1019E0006E67652E2E2E0D0A0000000013000020E9
:1019F000636861726765206C696E652066696E64F4
:101A00002E2E2E0D0A000000636861726765206C3F
:101A1000696E65206D6973732E2E2E0D0A0000000D
:101A20006669727374206C696E652066696E642ED7
:101A30002E2E0D0A00000000090000206669727356
:101A400074206C696E65206D6973732C61677620F4
:101A500073746F7020616E64207069636B20706CAA
:101A6000616E652E2E2E0D0A000000007365636FF7
:101A70006E64206C696E652066696E642E2E2E0D74
:101A80000A0000007365636F6E64206C696E6520E8
:101A90006D6973732C616776207374696C6C206751
:101AA0006F206F75742E2E2E0D0A00000800002086
:101AB0007468697264206C696E65206D6973732C3B
:101AC0006167762073746F7020616E642072656C3C
:101AD0006561736520706C616E652E2E2E0D0A0097
:101AE0001400002000000000C0E2F3A001F0F4F8B0
:101AF000A1E1FD480078C8B9FC480078012815D05C
:101B0000FB480078012811D1F74908706FF0B30045
:101B1000F84908801FED0D0AF74880ED000A002003
:101B2000F6490870F6A001F0D7F884E1EE48007895
:101B300001281BD1ED480078012817D1EC48007826
:101B4000012813D00220E84908706FF0B300E9497A
:101B500008801FED1C0AE84880ED000A0020E749D4
:101B60000870AFF2F80001F0B7F864E1DE480078E1
:101B700002281AD1DD480078012816D0DC48007808
:101B8000012812D10320D84908706FF0B300D94959
:101B900008801FED2C0AD84880ED000A0020D749A4
:101BA0000870DDA001F098F845E1CF4800780328DF
:101BB0001BD1CE480078012817D1CD4800780128E4
:101BC00013D00420C84908706FF0B300C9490880D9
:101BD0001FED3C0AC84880ED000A0020C749087084
:101BE000AFF23C2001F078F825E1BF4800780428E6
:101BF0001CD1BE480078012818D0BD4800780128C3
:101C000014D10520B84908700020BA4908801FED9A
:101C10004B0AB94880ED000A0020B849087004203A
:101C2000C7490870C7A001F057F804E10220FFF788
:101C300045F900E1012C98D1D14890F90000C01C71
:101C4000D0B9AA480078012816D1A94800780128FF
:101C500012D0FE20CA490870B420A64908801FEDA2
:101C60005F0AA54880ED000A0020A4490870AFF281
:101C7000802001F031F8DEE0C14890F90000801CBE
:101C8000D0B99A480078012816D0994800780128E0
:101C900012D1FF20BA490870B420964908801FED80
:101CA0006F0A954880ED000A002094490870AFF251
:101CB000A82001F011F8BEE0B14890F90000401CE6
:101CC000D0B98A480078012816D1894800780128BF
:101CD00012D00020AA490870B420864908801FED60
:101CE0007F0A854880ED000A002084490870AFF221
:101CF000D02000F0F1FF9EE0A1480078C0B97B48F9
:101D00000078012814D07A480078012810D19C4925
:101D100008709CA000F0E0FFB420764908801FED19
:101D20008F0A754880ED000A00207449087082E02F
:101D30009348007801281AD16C480078012816D100
:101D40006B480078012812D002208D490870AFF24C
:101D5000E42000F0C1FFB420664908801FED9F0A0F
:101D6000654880ED000A00206449087063E08448FB
:101D7000007802281CD15D480078012818D05C4802
:101D80000078012814D103207D490870012088497A
:101D9000087088A000F0A0FF0020564908801FEDC1
:101DA000AF0A554880ED000A00205449087042E00F
:101DB0007348007803281AD14C480078012816D1BE
:101DC0004B480078012812D004206D490870AFF20A
:101DD000284000F081FFB420464908801FEDBF0A6B
:101DE000454880ED000A00204449087023E064481B
:101DF000007804281CD13D480078012818D03C48C0
:101E00000078012814D105205D490870012074492B
:101E1000087074A000F060FF0020364908801FEDB4
:101E2000CF0A354880ED000A00203449087002E0EE
:101E30000120FFF743F83148007801283AD12D48B6
:101E4000B0F90000724908802A48B0F900007149D1
:101E500008802848B0F900006F4908802548B0F98B
:101E600000006E490880244991ED000ADFED6C0AFC
:101E700020EE200ABDEEC00A10EE100A4FF44831E1
:101E8000FFF7A2F94042674908601B4991ED000A3B
:101E9000DFED630A20EE200ABDEEC00A10EE100A44
:101EA0004FF44831FFF790F95F490860124991ED0E
:101EB000000ABBE0DBE000006669727374206C69A5
:101EC0006E652066696E642C6167762073746F702E
:101ED00020616E6420636C6F7365207069636B2E84
:101EE0002E2E0D0A00000000140000201D0000200E
:101EF0001E00002016000020180000201C000020FA
:101F00006669727374206C696E65206D6973732ED7
:101F10002E2E0D0A000000007365636F6E64206C46
:101F2000696E65206D6973732C61677620737469BF
:101F30006C6C20676F206261636B2E2E2E0D0A0081
:101F40000C0000207468697264206C696E65206DF5
:101F50006973732C6167762073746F7020616E648F
:101F6000206368617267652C706C616E65206973AF
:101F7000206F7574736964652E2E2E0D0A000000A3
:101F8000150000206669727374206C696E65206D9F
:101F90006973732C616776206973207374696C6C44
:101FA00020676F206F75742E2E2E0D0A0000000022
:101FB000080000207365636F6E64206C696E652095
:101FC0006D6973732C726561647920746F206F7012
:101FD000656E207069636B2E2E2E0D0A00000000C6
:101FE0000A0000207468697264206C696E65206D57
:101FF0006973732C726561647920746F20706963F2
:102000006B20706C616E652E2E2E0D0A0000000094
:10201000780000207A0000207C0000207E00002054
:10202000CD380E4580000020840000205FED040ABA
:1020300020EE200ABDEEC00A10EE100A4FF448311F
:10204000FFF7C2F84042F8490860F84991ED000AEC
:102050005FED0D0A20EE200ABDEEC00A10EE100A58
:102060004FF44831FFF7B0F8F1490860BFE0F1489C
:1020700090F90000401CE0BBEF480088404200B2ED
:10208000EE490880EC480088404200B2EC490880E4
:10209000E9480088404200B2EA490880E6480088E2
:1020A000404200B2E8490880E04991ED000A5FED46
:1020B000240A20EE200ABDEEC00A10EE100A4FF4EA
:1020C0004831FFF781F84042E0490860D74991ED77
:1020D000000A5FED2D0A20EE200ABDEEC00A10EEC8
:1020E000100A4FF44831FFF76FF8D9490860CF491B
:1020F00000E022E091ED000A5FED370A20EE200AB1
:10210000BDEEC00A10EE100A4FF44831FFF75CF83C
:102110004042C5490860C54991ED000A5FED400A9B
:1021200020EE200ABDEEC00A10EE100A4FF448312E
:10213000FFF74AF8BE49086059E0BF4800884042AE
:1021400000B2BE490880BC480088404200B2BC4989
:102150000880B948B0F90000BA490880B648B0F91B
:102160000000B9490880B14991ED000A5FED540AB9
:1021700020EE200ABDEEC00A10EE100A4FF44831DE
:10218000FFF722F8B1490860A84991ED000A5FED18
:102190005C0A20EE200ABDEEC00A10EE100A4FF4D1
:1021A0004831FFF711F8AA490860A04991ED000AEB
:1021B0005FED650A20EE200ABDEEC00A10EE100A9F
:1021C0004FF44831FFF700F897490860974991EDBF
:1021D000000A5FED6D0A20EE200ABDEEC00A10EE87
:1021E000100A4FF44831FEF7EFFF9149086070BDC7
:1021F00010B500BF00BF00BF96490868496841ECB0
:10220000150B944908390868496841EC140B914949
:1022100010390868496841EC130B8F490868496810
:1022200041EC120B8C4908390868496841EC110BE4
:10223000894910390868496841EC100B874800F05B
:1022400049FB00BF00BF00BF10BD2DE9FC4F074692
:102250008846914600250024002300269A469B4686
:10226000002001900090A8F57A7004B2A7F57A706A
:1022700003B2A9F57A7006B2002B01DD184600E022
:102280005842B0F5967F7BDD002C01DD204600E052
:102290006042B0F5967FF6DD714890ED000A714816
:1022A00080ED000AB3F5967F21DD14F5967F1EDAE6
:1022B0009FED6D0A6A4880ED000A002B01DD18468B
:1022C00000E05842002C01DD214600E06142084454
:1022D000404200EE100AB8EEC00ADFED640A20EEBC
:1022E000200ABDEEC00A10EE100A05B2EBE013F5AD
:1022F000967F21DA14F5967F1EDA9FED5D0A584825
:1023000080ED000A002B01DD184600E05842002C49
:1023100001DD214600E061420844404200EE100A1F
:10232000B8EEC00ADFED510A20EE200ABDEEC00A69
:1023300010EE100A05B2C6E013F5967F21DAB4F567
:10234000967F1EDD9FED480A454880ED000A002B70
:1023500001DD184600E05842002C01DD214600E076
:102360006142084400EE100AB8EEC00ADFED3F0AF1
:1023700020EE200ABDEEC00A10EE100A05B2A2E05F
:1023800023E0B3F5967F1FDDB4F5967F1CDD9FED4E
:10239000380A334880ED000A002B01DD184600E0C2
:1023A0005842002C01DD214600E06142084400EE65
:1023B000100AB8EEC00ADFED2D0A20EE200ABDEEAD
:1023C000C00A10EE100A05B27DE0002B01DD1846B0
:1023D00000E05842B0F5967F50DD002C01DD20462C
:1023E00000E06042B0F5967F48DA1D4890ED000AA3
:1023F0001C4880ED000AB3F5967F08DD9FED1D0AAD
:10240000174880ED000AA3F5967005B25BE013F55E
:10241000967F58DA9FED180A114880ED000A03F5FF
:102420009670404205B24EE088000020180000205F
:102430008C0000201C0000201600002078000020E6
:102440007A0000207C0000207E0000208000002018
:10245000840000200B0F0020E60E0020F800002072
:102460002400002028000020000034C29A99193F5F
:10247000000034420000B4420000B4C2002B01DD71
:10248000184600E05842B0F5967F1CDA002C01DDBA
:10249000204600E06042B0F5967F14DDFA4890EDEA
:1024A000000AFA4880ED000A9FEDF90AF64880ED2F
:1024B000000AB4F5967F03DDA4F5967005B202E03C
:1024C00004F5967005B2002E01DD304600E0704242
:1024D000B0F5967F7DDDB6F5967F03DDA6F59670A7
:1024E00005B202E006F5967005B2E74890ED000AE5
:1024F000E64880ED000A1FED220AE34880ED000A5D
:10250000E24890ED000AE048D0ED000A30EE600AA3
:10251000B5EEC00AF1EE10FA08DDDC4890ED000AD5
:10252000D948D0ED000A30EE600A09E0D74890EDB6
:10253000000AD548D0ED000A30EE600AB1EE400A3C
:10254000F3EE040AB4EEE00AF1EE10FA02DD19200F
:10255000D0490880CF480088401E00B2CD4908808D
:102560000846B0F90000002844DC0020088005EB94
:10257000450000B2C849088005EB450000B2C749D4
:10258000088005EB450000B2C549088005EB450011
:1025900000B2C4490880BC4890ED000AB1EE400A80
:1025A000DFEDC10A20EE200ABDEEC00A10EE10AA2F
:1025B00090ED000ADFEDBC0A20EE200ABDEEC00A55
:1025C00010EE10BA90ED000AB1EE400ADFEDB60A47
:1025D00000E010E020EE200ABDEEC00A8DED010AF9
:1025E00090ED000ADFEDB00A20EE200ABDEEC00A31
:1025F0008DED000AF6E0002B01DD184600E05842A0
:10260000B0F5967F49DA002C01DD204600E06042FB
:10261000B0F5967F41DA9FED9E0A9B4880ED000A57
:102620000025684200EB80009B490880684200EB6F
:1026300080009A49088005EB85009949088005EBE0
:10264000850098490880904890ED000ADFED960AD1
:1026500020EE200ABDEEC00A10EE10AA90ED000A8E
:10266000DFED910A20EE200ABDEEC00A10EE10BA8E
:1026700090ED000ADFED8C0A20EE200ABDEEC00AC4
:102680008DED010A90ED000ADFED870A20EE200AA9
:10269000BDEEC00A8DED000AA4E07C4890ED000A72
:1026A0007948D0ED000A30EE600AB5EEC00AF1EECE
:1026B00010FA08DD754890ED000A7348D0ED000A65
:1026C00030EE600A09E0714890ED000A6E48D0EDE6
:1026D000000A30EE600AB1EE400ADFED740AB4EE93
:1026E000E00AF1EE10FA03DD20206A49088029E0B3
:1026F000664890ED000A6448D0ED000A30EE600AAA
:10270000B5EEC00AF1EE10FA08DD604890ED000A5F
:102710005D48D0ED000A30EE600A09E05B4890EDBC
:10272000000A5948D0ED000A30EE600AB1EE400AC6
:10273000F3EE0E0AB4EEE00AF1EE10FA02DD142018
:102740005449088053480088401E00B2514908800F
:102750000846B0F9000000281BDC00200880684211
:1027600000EB4000400000B24B490880684200EB9B
:102770004000400000B24949088005EB4500400098
:1027800000B24749088005EB4500400000B24549CA
:1027900008803D4890ED000ADFED430A20EE200A54
:1027A000BDEEC00A10EE10AA90ED000ADFED3E0A61
:1027B00020EE200ABDEEC00A10EE10BA90ED000A1D
:1027C000DFED390A20EE200ABDEEC00A8DED010AC8
:1027D00090ED000ADFED340A20EE200ABDEEC00ABB
:1027E0008DED000A4FF448315046FEF7EDFC3049BC
:1027F00008604FF448315846FEF7E6FC2D49086062
:102800004FF448310198FEF7DFFC2B4908604FF484
:1028100048310098FEF7D8FC28490860BDE8FC8FD5
:102820002DE9F04704460D46914600260027B046A4
:10283000A9F57A700FFA80F8A5F57A7007B2A4F5B9
:102840007A7006B2B6F5967F02DD02F02CFD07E045
:1028500016F5967F02DA02F02DFD01E002F032FD5E
:10286000B7F5967F02DD02F033FD07E017F5967F9E
:1028700002DA02F035FD01E002F039FDB8F5967F8D
:102880001EDD02F03AFD23E0240000202800002095
:102890000000000020000020780000207A000020C6
:1028A0007C0000207E000020CD380E4500007042E4
:1028B0008000002084000020880000208C00002080
:1028C00018F5967F02DA02F01FFD01E002F023FD09
:1028D000BDE8F08710B52DED0C8B8CB0B0EE408AC2
:1028E000F0EE608AB0EE419AF0EE619AB0EE42AA44
:1028F000F0EE62AAB0EE43BAF0EE63BAB0EE44CAAC
:10290000F0EE64CAB0EE45DAF0EE65DA04469FED0B
:102910002D0B8DED0A0B9FED2B0B8DED080B9FED15
:10292000290B8DED060B9FED270B8DED040B9FED15
:10293000250B8DED020B9FED230B8DED000B06AAF1
:1029400008A90AA8B0EE493AF0EE693AB0EE482A72
:10295000F0EE682A9FED1D1B9FED1E0B03F0EAFCB5
:102960006A4602A904A8B0EE4C3AF0EE6C3AB0EE1A
:102970004B2AF0EE6B2A9FED191B9FED1A0B03F00B
:10298000D9FC9DED0A0B84ED000B9DED080B84ED49
:10299000020B84ED04AB9DED060B84ED060B9DED63
:1029A000040B84ED080B9DED020B84ED0A0B84ED06
:1029B0000CDB9DED000B84ED0E0B0CB0BDEC0C8B15
:1029C00010BD00000000000000000000BF7D5F544B
:1029D00039DC3E40FC85C83001B35D409F0C4405A6
:1029E0003DDC3E4024D6E25300B35D4010B596B0C6
:1029F00004460121084604F0A7FF0121102004F03D
:102A0000E7FF07220921CD4804F0E3FD07220A2150
:102A1000CA4804F0DEFD00208DF8560001208DF834
:102A2000570002208DF854000002149002208DF807
:102A3000550014A9C14804F041FD02208DF854004E
:102A40004002149014A9BD4804F038FDBC4805F0BC
:102A50000BFF10940020ADF84400ADF84600ADF82F
:102A60004800ADF84C000C20ADF84A0010A9B4485D
:102A700005F048FF002240F22551B14806F080F8E9
:102A8000002240F22661AE4806F07AF8012240F2B8
:102A90002441AB4806F074F80121A94805F0BAFFBB
:102AA0000121880504F050FF01224021A44806F0CE
:102AB0005EF801228021A24806F059F825208DF801
:102AC0003C0001208DF83D008DF83E008DF83F0060
:102AD0000FA803F0C0FC46208DF83C0002208DF8C2
:102AE0003D008DF83E0001208DF83F000FA803F057
:102AF000B2FC3A208DF83C0000208DF83D00022009
:102B00008DF83E0001208DF83F000FA803F0A3FCD4
:102B10008C4804F003FA4FF0006000908848001DD4
:102B200001908948029000200390802004900020AA
:102B300005904FF4806006900020079008904FF4B5
:102B4000807009904FF440300A9000200B900C9058
:102B50000D900E9069467B4804F082FA0121794875
:102B600004F0B8FA7748783004F0D8F94FF00060F4
:102B700000907348001D019074480290402003901B
:102B800080200490002005904FF480600690002083
:102B90000790089009904FF480300A9000200B9025
:102BA0000C900D900E9069466648783004F058FA03
:102BB00001228021624805F0DAFF012210216148DC
:102BC000783004F014FB00215E48783004F082FA7B
:102BD00016B010BD02465068081A80B2704770B532
:102BE0000024002540F22551554806F004F818B19C
:102BF000534805F03EFFC4B240F22441504805F06E
:102C0000FAFF18B35048FDF776FE4F48FDF791FEE6
:102C100080214C48FFF7DEFF4D49088000214948DC
:102C200004F058FA00BF474804F0A1FA0028FAD18E
:102C30008021444804F06FFA0121424804F04AFA26
:102C40003F480088C5B23E488088C5B270BD10B507
:102C5000044600BF20213A4805F0B7FF0028F9D00C
:102C6000374805F006FF10BD70B504460D463948DB
:102C70000078F0B900213348783004F02BFA00BF17
:102C80003048783004F073FA0028F9D10022214648
:102C90002C48783004F05CFAA9B22A48783004F065
:102CA0003AFA01212748783004F014FA0120294922
:102CB000087070BD70B505460E46002400BF04E0E4
:102CC000285D22490855601CC4B2B442F8DB314685
:102CD0001E48FFF7C9FF70BD0FB438B505A80090B6
:102CE0001A48009A049906F0B3F90020009017489A
:102CF00006F0D2F9044621461448FFF7B5FF38BC68
:102D00005DF814FB10B514490E4804F08DFA18B1A3
:102D100011490C4804F0B2FA10BD10B50F4909482A
:102D2000783004F081FA38B100200A4908700B4964
:102D30000448783004F0A2FA10BD00000000024000
:102D4000001001404064024038010020B80100201A
:102D50003600002034000020008020100080002871
:102D600010B504466FF0040003F0C2FBE11704EB5A
:102D70005171C1F3C701404A11701046007800EB51
:102D80004001C1EBC0104FF6FF7101EAC0003B49A2
:102D9000088010BD0146384A12784A434FF0E023BC
:102DA0005A6100229A611A46126942F001021A61C0
:102DB00000BF4FF0E022106900F001021AB100F4E8
:102DC0008032002AF5D04FF0E022126922F0010291
:102DD0004FF0E0231A6100229A6170470146274AAA
:102DE00012884A434FF0E0235A6100229A611A4642
:102DF000126942F001021A6100BF4FF0E02210692F
:102E000000F001021AB100F48032002AF5D04FF030
:102E1000E022126922F001024FF0E0231A61002241
:102E20009A61704770B504464FF4077094FBF0F058
:102E3000C6B24FF4077094FBF0F100FB114085B26D
:102E400005E04FF40770FFF7C9FF701EC6B2002EF1
:102E5000F7D115B12846FFF7C1FF70BD10B50021AD
:102E600007E04AF2104200BF131EA2F10102FBD19B
:102E7000491C8142F5D310BD380000203A000020E3
:102E800010B58AB004460121084604F05DFD012119
:102E9000480604F08CFD09220C21914804F099FBAE
:102EA00009220B218E4804F094FB4FF4C05001908E
:102EB00002208DF8080000208DF80A0003208DF80C
:102EC000090001A9864804F0F9FA14208DF80000E1
:102ED00001208DF8010002208DF8020001208DF8FC
:102EE0000300684603F0B7FA15208DF800000120B2
:102EF0008DF8010002208DF8020001208DF80300FA
:102F0000684603F0A8FA13208DF8000001208DF820
:102F100001008DF802008DF80300684603F09BFA6B
:102F2000704803F003FB07A803F024FC00208DF891
:102F300022008DF823008DF824008DF825008DF8EF
:102F4000260001208DF8270000208DF81E008DF846
:102F50001F0008208DF8200003208DF82100062096
:102F6000ADF81C0007A95F4803F0F9FA00208DF8BE
:102F700016008DF8170001208DF818004FF6FF702D
:102F800000EA4410ADF80C000020ADF80E004FF63A
:102F9000FF70ADF81000401EADF812000020ADF833
:102FA000140001208DF8190003A803F062FB012230
:102FB00002214C4803F05CFE01221021494803F035
:102FC00057FE01221146474803F052FE0AB010BDD9
:102FD00010B50121434803F0B3FE30B1012042494E
:102FE000087001213F4803F046FF10BD00B585B0D1
:102FF00002213C4803F0A4FE40B10221394803F00D
:103000003AFF6A460021374803F017FD05B000BDBE
:1030100000B585B01021334803F092FE40B1102175
:10302000304803F028FF6A4601212E4803F005FDD1
:1030300005B000BDF0B585B006460F461546002424
:1030400000208DF808008DF809008DF80A500096D0
:1030500000BF05E0395D0DF10B000155601CC4B2E5
:10306000AC42F7DB01E0601CC4B269461D4803F0C6
:10307000EFFB042801D17F2CF5DB05B0F0BD2DE975
:10308000F04186B006460F4615460024A0460420AF
:103090008DF80C0000208DF80D008DF80E50029672
:1030A00000BF05E0395D0DF10F000155601CC4B291
:1030B000AC42F7DB09E008F1010000F0FF08B8F1CD
:1030C000050F02DD4FF0000805E001A9054803F0F7
:1030D000BFFB0428EFD000BF06B0BDE8F0810000C0
:1030E00000000240006400403C00002010B58AB09F
:1030F00004460121022004F027FC0121880604F087
:1031000056FC09220C21FA4804F063FA09220D2129
:10311000F74804F05EFA4FF44050019002208DF819
:10312000080000208DF80A0003208DF8090001A98D
:10313000EF4804F0C3F940208DF8000001208DF81D
:10314000010002208DF8020001208DF8030068467E
:1031500003F081F941208DF8000001208DF8010075
:1031600002208DF8020001208DF80300684603F06C
:1031700072F93F208DF8000001208DF801008DF8D4
:1031800002008DF80300684603F065F9D94803F0A2
:10319000CDF907A803F0EEFA00208DF822008DF893
:1031A00023008DF824008DF825008DF826000120DD
:1031B0008DF8270000208DF81E008DF81F000820D4
:1031C0008DF8200003208DF821000C20ADF81C00A4
:1031D00007A9C84803F0C3F90E208DF81600002097
:1031E0008DF8170001208DF818004FF6FF7000EAE7
:1031F0004410ADF80C000020ADF80E00ADF8100042
:10320000ADF81200ADF8140001208DF8190003A8E4
:1032100003F02FFA0F208DF8160000208DF817000C
:1032200001208DF81800601C4FF6FF7101EA401074
:10323000ADF80C000020ADF80E00ADF81000ADF8B0
:103240001200ADF8140001208DF8190003A803F056
:1032500010FA10208DF8160000208DF817000120BC
:103260008DF81800A01C4FF6FF7101EA4010ADF870
:103270000C000020ADF80E00ADF81000ADF8120003
:10328000ADF8140001208DF8190003A803F0F1F93E
:1032900011208DF8160000208DF8170001208DF800
:1032A0001800C020ADF80C000020ADF80E00ADF8FD
:1032B0001000ADF81200ADF8140001208DF81900CF
:1032C00003A803F0D6F912208DF8160000208DF81F
:1032D000170001208DF81800E020ADF80C00002048
:1032E000ADF80E00ADF81000ADF81200ADF8140006
:1032F00001208DF8190003A803F0BBF913208DF805
:10330000160000208DF8170001208DF8180044F2F7
:103310002000ADF80C000020ADF80E00ADF8100054
:10332000ADF81200ADF8140001208DF8190003A8C3
:1033300003F09FF9012202216E4803F099FC01225B
:1033400010216C4803F094FC01221146694803F0F7
:103350008FFC0AB010BD10B50121664803F0F0FCE7
:1033600030B10121634803F086FD012062490870F5
:1033700010BD10B586B002215E4803F0E1FC0028C4
:1033800079D002215B4803F076FD01AA002159485B
:1033900003F053FB594C0298A04237D19DF810001E
:1033A0009DF80F1040EA012000EE100AB8EEC00AA6
:1033B000F2EE040A80EE201A514880ED001A9DF8C2
:1033C00014109DF8130041EA002000EE100AB8EE38
:1033D000C00AF2EE040A80EE201A9FED4A0A31EE8E
:1033E000400A474880ED010A9DF816109DF8150027
:1033F00041EA002000EE100AB8EEC00AF2EE040A1C
:1034000080EE201A3E4880ED021A24E0019806283A
:103410000FD19DF810003C4908709DF811004870CC
:103420009DF811109DF8100041EA002036494880AF
:1034300011E0019807280ED19DF81000334908705B
:103440009DF8110048709DF811109DF8100041EA98
:1034500000202E49488040F20121019888422CD159
:103460009DF80F002A49887008468078012803D10A
:103470000220887007E038E025488078022802D1D1
:103480000120234988709DF810002149C8709DF8DB
:103490001100087008460078012802D10220087047
:1034A00006E01B480078022802D101201849087064
:1034B0009DF812001649487016E040F2015101983B
:1034C000884211D19DF80F00114908719DF8100034
:1034D000012802D10220487106E09DF81000022860
:1034E00002D101200A49487100BF06B010BD00009A
:1034F00000040240006800403D0000200140901898
:10350000D80D002000803B45A00000209C0000203A
:103510003E00002000B585B01021414803F010FCAA
:10352000E8B110213E4803F0A6FC6A4601213C4860
:1035300003F083FA0098062807D19DF80C0039495A
:1035400008709DF80D00487009E00098072806D122
:103550009DF80C00344908709DF80D00487005B0C6
:1035600000BD2DE9F04186B006460F461546002401
:10357000A04600208DF80C008DF80D008DF80E503F
:10358000019600BF05E0395D0DF10F000155601C8B
:10359000C4B2AC42F7DB09E008F1010000F0FF081B
:1035A000B8F1050F02DD4FF0000805E001A91C4845
:1035B00003F04EF90428EFD000BF06B0BDE8F0815B
:1035C0002DE9F04186B006460F4615460024A04678
:1035D00004208DF80C0000208DF80D008DF80E50A1
:1035E000029600BF05E0395D0DF10F000155601C2A
:1035F000C4B2AC42F7DB09E008F1010000F0FF08BB
:10360000B8F1050F02DD4FF0000805E001A90448FC
:1036100003F01EF90428EFD000BF06B0BDE8F0812A
:1036200000680040A00000209C0000201CB5012183
:10363000022004F089F90121042004F0B8F9684659
:1036400003F084FFC020009002208DF804000320C6
:103650008DF8050001208DF807006946FE4803F04B
:103660002DFF02220621FC4803F0B3FF02220721AE
:10367000F94803F0AEFF00231A460321F74805F08E
:10368000C2F847F6FF70F549243108600121F3487C
:1036900004F0CEFB1CBDF149243102680968A1F594
:1036A000FE41FF391144016047F6FF71EB4A2432B5
:1036B0001160704710B5EA480068401CE84908608E
:1036C000082003F084FE10BD00B585B001218803F9
:1036D00004F07EF90121022004F036F90820009060
:1036E00000208DF8040003208DF8050001208DF8DE
:1036F00007006946D84803F0E1FE0321012005F0E8
:10370000CFFA0820029000208DF80C000C208DF8D4
:103710000D0001208DF80E0002A803F0E1FD092044
:103720008DF8100003208DF8110002208DF8120092
:1037300001208DF8130004A802F08DFE05B000BD35
:103740007FB505460C460121082004F030F9C54834
:1037500004F038FA0295ADF804400020ADF80C00F2
:10376000ADF806008DF80E0001A9BE4804F0D7FAA6
:103770000121BC4804F03EFB0121BA4804F084FF5B
:1037800001221146B74804F06BFF0121B54804F04F
:103790004FFB32208DF8000000208DF80100012041
:1037A0008DF802008DF80300684602F054FE7FBDDC
:1037B00010B50121AB4804F06AFF00286FD0AA4879
:1037C0000078401CA849087008460078192804DDD4
:1037D000002008700120A5490870A5480078401C09
:1037E000A349087008460078102801DD0120087000
:1037F0009F48007811281AD2DFE800F090091A2BB0
:103800003C434B52565C6270767C80868C009948B3
:10381000B0F90010012001F077FC9748B0F90020C2
:103820009648B0F9001040F2031001F015FD75E064
:103830009348B0F90010022001F066FC9148B0F9FD
:1038400000209148B0F900104FF4817001F0EBFCBA
:1038500064E08E48B0F90010032001F055FC8C485C
:10386000B0F900208B48B0F9001040F2011001F0CF
:10387000C1FC53E08848B0F90010042001F044FC7A
:103880004CE086480168052001F0F0FB01F056FD90
:1038900044E083480188052001F002FC3EE042E05C
:1038A000052001F017FC39E07E480168062001F090
:1038B000DDFB33E07A480188062001F0F1FB2DE0C2
:1038C000062001F007FC7248B0F900207148B0F9F9
:1038D000001040F2011001F08DFC1FE072480168F9
:1038E000072001F0C3FB19E06D480188072001F0B3
:1038F000D7FB13E0072001F0EDFB0FE06B480168F8
:10390000082001F0B3FB09E065480188082001F0B8
:10391000C7FB03E0082001F0DDFB00BF00BF012171
:10392000504804F0C5FE10BD00B589B00121022049
:1039300004F03DF80121084604F039F80020ADF804
:103940001800ADF81A004FF6FF7007900020ADF890
:1039500020008DF8220006A9554804F0E0F906A9D8
:103960004FF0804004F0DBF90020ADF80400ADF822
:103970001000ADF80600039001A94FF0804004F05C
:1039800063FA01A94FF0804004F097FA01A9484872
:1039900004F05AFA01A9464804F08FFA01A94448F4
:1039A00004F0D8FA01A9424804F03AFB00214FF094
:1039B000804004F0D6FB00214FF0804004F0DAFB99
:1039C00000213B4804F0CDFB0021394804F0D2FB34
:1039D0000021374804F0DBFB0021354804F0E0FB10
:1039E0000121880704F006FA0121314804F002FAA7
:1039F0000221480704F05CFE01220221480704F07E
:103A00002FFE0421080704F053FE012204210807B9
:103A100004F026FE0221264804F04AFE012202217B
:103A2000234804F01DFE0421214804F041FE012238
:103A300004211F4804F014FE08211D4804F038FE3C
:103A4000012208211A4804F00BFE1021184804F046
:103A50002FFE012210212DE000040240000800404A
:103A600044000020000C00404900002048000020D5
:103A70004C000020780000209A00002098000020D0
:103A80007A00002096000020940000207C00002096
:103A900092000020900000207E0000208000002086
:103AA0004A00002084000020880000208C000020B4
:103AB000000400406B4804F0D3FD1D208DF8000089
:103AC00001208DF8010003208DF8020001208DF8FF
:103AD0000300684602F0BFFC1C208DF80000684619
:103AE00002F0B9FC00214FF0804004F004FE0721F1
:103AF0004FF0804004F075FE8021C80504F07AFE86
:103B00003021584804F0F7FD0721564804F069FEBB
:103B10008021544804F06EFE0121880704F088F9E2
:103B20000121504804F084F909B000BD00B589B006
:103B30000121084603F04CFF0121042003F037FF68
:103B4000494804F03FF8494804F03CF85320ADF8E8
:103B500018000020ADF81A0040F23F6007900020E6
:103B6000ADF820008DF8220006A9404804F0D7F8EF
:103B70005320ADF818000020ADF81A0040F67F4041
:103B800007900020ADF820008DF8220006A93648E5
:103B900004F0C5F801A804F07BFA6020ADF8040039
:103BA0000120ADF806000020ADF81000039001A937
:103BB0002D4804F049F901A92B4804F07EF901A928
:103BC0002A4804F041F901A9284804F076F901A92E
:103BD000264804F0BFF901A9244804F021FA08217D
:103BE000214804F0BEFA08211F4804F0C3FA082156
:103BF0001E4804F0B6FA08211C4804F0BBFA08215C
:103C00001A4804F0C4FA0821184804F0C9FA01213E
:103C1000154804F0EFF80121144804F0EBF80121F5
:103C2000114804F005F90121104804F001F92021A0
:103C30000E4804F0CDFD80210C4804F0DBFD20216E
:103C4000094804F0C5FD8021074804F0D3FD012197
:103C5000054804F0DEFC0121044804F0DAFC09B058
:103C600000BD0000000400400000014000080040CA
:103C700000B587B001217F4803F066FE01214804AA
:103C800003F095FE072203217B4803F0A2FC0820E5
:103C9000059002208DF8180000208DF81A000320EE
:103CA0008DF8190000208DF81B0005A9724803F05B
:103CB00005FC724804F0D8FD714801900020ADF871
:103CC00008004FF40050ADF80A00C010ADF80C0029
:103CD0000420ADF80E000020ADF8100001A96748DF
:103CE00004F010FE012240F22551644804F048FF20
:103CF0000121624804F08EFE26208DF8000000208D
:103D00008DF8010001208DF802008DF8030068464F
:103D100002F0A1FB07B000BD5A480078401C594989
:103D2000087008460078642804DD642008700020CC
:103D300055490870704710B540F225514F4804F0BE
:103D40005AFF00287ED04D4804F093FE4F4908707A
:103D50004F48007838B9084600780F282AD1FF204C
:103D60004B49087026E0494800784A494A4A127887
:103D7000885449480078172811D10846C07D022888
:103D800002D00846C07D18B9FF204449087006E0FB
:103D900000203F490870414908703F4908703E487B
:103DA0000078401C3C49087008460078182801DD5E
:103DB000002008703948007800285AD0354800782B
:103DC0003449497840EA0120C0F30A0034490880A8
:103DD0003048807840012F49497840EAE100C0F33B
:103DE0000A00304908802B48807880112949C97819
:103DF00040EA81002749097940EA8120C0F30A009E
:103E0000294908802348007940102249497940EA2D
:103E1000C110C0F30A00254908801E48407A00F00E
:103E20000F00234908801B48807900F00F00401CD8
:103E3000204908801748807A1F49088000201449CB
:103E4000087000E015E01549087013490870114822
:103E5000807D0C2803D100200B49087005E000206C
:103E6000084908700120084908700421134803F02C
:103E7000ACFB10BD010020000000024000440040E7
:103E8000A08601005700002056000020620000209C
:103E9000640000203802002063000020650000203C
:103EA0004E0000205000002052000020540000204E
:103EB000580000205C0000205A0000200010024042
:103EC00010B50246002006E0137843400C4CE05C3D
:103ED000521C4B1ED9B20029F6DC10BD30B503468A
:103EE000002006E01C784440054D285D5B1C4C1EFC
:103EF000E1B20029F6DC80EA0204014D285D30BD04
:103F000080D600081CB50121102003F01DFD0420FF
:103F1000009001208DF8040000208DF80600032099
:103F20008DF8050001208DF8070069461C4803F054
:103F3000C5FA1CBD1CB50121082003F005FDC020F9
:103F4000009001208DF8040000208DF80600032069
:103F50008DF8050001208DF807006946114803F02F
:103F6000ADFA40210F4803F025FB80210D4803F0F6
:103F700021FB1CBD1CB50121102003F0E5FC4FF412
:103F8000A050009000208DF8040003208DF805005B
:103F900001208DF807006946014803F08FFA1CBD27
:103FA00000100240000C024000BF704700BFFE4AF4
:103FB000128802F04002002AF9D0C2B2FA4B9A806D
:103FC000704710B596B004460121880403F0EFFC59
:103FD0000121022003F0B8FC0121480503F0B4FCE4
:103FE00007220A21F14803F0F4FA07220B21EF48D7
:103FF00003F0EFFA14A803F0A9FA4FF480601490CC
:1040000002208DF8540003208DF8550014A9E748CC
:1040100003F054FA4FF40060149002208DF854001D
:1040200003208DF8550014A9E04803F047FAE04852
:1040300004F01AFC10A804F0CBFC10940020ADF89A
:104040004400ADF84600ADF84800ADF84C000C2037
:10405000ADF84A0010A9D64804F054FC0121D44818
:1040600004F0D8FC0C208DF83C0002208DF83D00B7
:104070008DF83E0001208DF83F000FA802F0EBF90B
:10408000CC4802F04BFF4FF000600090C848001D84
:104090000190C9480290002003904FF48070049072
:1040A000002005904FF48060069000200790089053
:1040B0004FF4807009904FF440300A9000200B902C
:1040C0000C900D900E906946BA4802F0C9FF01228B
:1040D0001021B84803F08BF801224021B44804F0C5
:1040E00046FD0121B34802F0F5FF0E208DF83C009B
:1040F00001208DF83D0002208DF83E0001208DF852
:104100003F000FA802F0A7F9AA48303002F006FFDE
:104110004FF000600090A648001D0190A748029053
:104120004020039080200490002005904FF4806090
:10413000069000200790089009904FF480300A9074
:1041400000200B900C900D900E90694699483030ED
:1041500002F086FF01228021954804F008FD01222B
:1041600010219448303003F042F80021914830305B
:1041700002F0B0FF16B010BD02465068081A80B2B7
:10418000704770B5002500BF40F22551884804F003
:1041900032FD40B1864804F06CFCC5B240F22551B6
:1041A000834804F05FFD40F22441814804F023FD80
:1041B00000B34FF480717F48FFF7DEFF804908802D
:1041C00000217C4802F086FF00BF7A4802F0CFFF52
:1041D0000028FAD17A480188764802F09CFF012134
:1041E000744802F077FF72480088C4B27048001D1E
:1041F0000088C4B270BD70B504460D4671480078A1
:10420000F0B900216B48303002F064FF00BF69480C
:10421000303002F0ACFF0028F9D100222146654879
:10422000303002F095FFA9B26248303002F073FFDF
:1042300001216048303002F04DFF012061490870D3
:1042400070BD70B505460E46002400BF04E0285D31
:104250005A490855601CC4B2B442F8DB314657488D
:10426000FFF7C9FF70BD10B55749524802F0DCFF97
:1042700030B1514801F06DFB53494E4802F0FEFF4A
:1042800010BD0FB438B505A800904C48009A0499A9
:1042900004F0DEFE00200090484804F0FDFE0446D5
:1042A00021464648FFF7A7FF38BC5DF814FB10B560
:1042B00046494048303002F0B7FF38B1002041494C
:1042C000087042493B48303002F0D8FF10BD10B5AD
:1042D00096B004460121C80403F069FB01210420C3
:1042E00003F032FB0121480503F02EFB08220A21CE
:1042F000374803F06EF908220B21354803F069F9BD
:1043000014A803F023F94FF48060149002208DF874
:10431000540003208DF8550014A92D4803F0CEF861
:104320004FF40060149002208DF8540003208DF8A3
:10433000550014A9264803F0C1F810A804F048FB62
:1043400010940020ADF84400ADF84600ADF84800E8
:10435000ADF84C000C20ADF84A0010A91D4804F03F
:10436000D1FA0D208DF83C0002208DF83D008DF82B
:104370003E0001208DF83F000FA802F06CF80D48B8
:10438000183002F0CBFD4FF0006000901148001D86
:10439000019011480290002003908020049000209A
:1043A00005904FF4806019E00010014000040240C5
:1043B0000048004028600240D80200205802002037
:1043C0006E0000206C0000200088001000800018A3
:1043D00000080240004C00405804002006900020D5
:1043E000079008904FF48070099040020A900020D6
:1043F0000B900C900D900E906946FE4802F030FE36
:1044000001224021FC4804F0B2FB0121F94802F0EE
:1044100061FE002240F22551F74804F0B1FB002272
:1044200040F22661F44804F0ABFB012240F2244143
:10443000F14804F0A5FB34208DF83C0002208DF8F3
:104440003D0003208DF83E0001208DF83F000FA8AD
:1044500002F001F80121E84804F0DCFAE5483030C8
:1044600002F05CFD4FF000600090E348001D0190F9
:10447000E2480290402003908020049000200590A4
:104480004FF48060069000200790089009904FF448
:1044900080300A9000200B900C900D900E90694691
:1044A000D448303002F0DCFD01228021D24804F0F3
:1044B0005EFB01221021CF48303002F098FE00212F
:1044C000CC48303002F006FE0F208DF83C00022070
:1044D0008DF83D008DF83E0001208DF83F000FA8BB
:1044E00001F0B9FF16B010BD02465068081A80B23C
:1044F000704770B50024002540F22551BE4804F0F5
:104500007AFB40B1BC4804F0B4FAC4B240F2255181
:10451000B94804F0A7FB40F22441B74804F06BFB14
:1045200008B3B748FCF705FA8021B248FFF7DCFF73
:10453000B44908700021AF4802F0CCFD00BFAD487F
:1045400002F015FE0028FAD18021AA4802F0E3FD0E
:104550000121A84802F0BEFDA7480088C5B2A648C0
:10456000001D0088C5B270BD70B504460D46A64852
:104570000078F0B900219F48303002F0ABFD00BF59
:104580009C48303002F0F3FD0028F9D1002221468A
:104590009848303002F0DCFDA9B29648303002F085
:1045A000BAFD01219348303002F094FD0120964974
:1045B000087070BD70B505460E46002400BF04E0CB
:1045C000285D8E490855601CC4B2B442F8DB314600
:1045D0008A48FFF7C9FF70BD10B58C498548303057
:1045E00002F022FE60B100208749087088498148A6
:1045F000303002F0E8FD86497E48303002F03EFE61
:1046000010BD10B583497B4802F00EFE48B14FF053
:104610008151784802F0D7FD4FF08151754802F082
:104620002DFE10BD10B596B004460121042003F004
:104630008BF90121082003F087F90121080503F017
:10464000B6F90121480503F07FF9082202217248DA
:1046500002F0BFFF08220C21704802F0BAFF0420CC
:10466000149002208DF8540003208DF8550000208E
:104670008DF8560001208DF8570014A9664802F005
:104680001DFF4FF48050149014A9644802F016FFE7
:1046900010940020ADF84400ADF84600ADF8480095
:1046A000ADF84C000C20ADF84A0010A95C4804F0AD
:1046B00029F90B208DF83C0002208DF83D008DF883
:1046C0003E0001208DF83F000FA801F0C4FE4948CC
:1046D000303802F023FC4FF0006000905048001D7D
:1046E0000190504802900020039080200490002008
:1046F00005904FF4806006900020079008904FF4DA
:104700008070099040020A9000200B900C900D9050
:104710000E9069463748303802F0A2FC0122402151
:104720003F4804F024FA01213248303802F0D2FC2C
:10473000002240F225513A4804F022FA002240F2C9
:104740002661374804F01CFA012240F22441344823
:1047500004F016FA35208DF83C0000208DF83D005D
:1047600001208DF83E008DF83F000FA801F073FE88
:1047700001212B4804F04EF92F208DF83C00022037
:104780008DF83D008DF83E0001208DF83F000FA808
:1047900001F061FE1748783002F0C0FB4FF0006076
:1047A00000901F48001D01901F4802904020039078
:1047B00080200490002005904FF480600690002037
:1047C0000790089009904FF480300A9000200B90D9
:1047D0000C900D900E9069460648783002F040FC2F
:1047E000012280210E4804F0C2F901221021014863
:1047F00078301BE040600240004C0040D8030020AD
:10480000D8020020700000207100002020800020CD
:104810002000002000802010000C02400008024010
:1048200000500040D80400205805002002F0DFFCB2
:104830000021FD4802F04EFC16B010BD0246506843
:10484000081A80B2704770B50024002540F2255147
:10485000F64804F0D0F918B1F44804F00AF9C4B2EB
:1048600040F22441F14804F0C6F910B38021EE482B
:10487000A838FFF7E3FFEE4908700021EA48A8389E
:1048800002F028FC00BFE848A83802F070FC0028BD
:10489000F9D18021E448A83802F03DFC0121E2482A
:1048A000A83802F017FCE1480088C5B2DF488088CC
:1048B000C5B270BD10B5DF49DB4802F0B5FC60B190
:1048C0000020DD4908704FF02051D74802F07BFCF2
:1048D0004FF02051D44802F0D1FC10BD70B5044611
:1048E0000D46D5480078C8B90021CF4802F0F2FB48
:1048F00000BFCD4802F03BFC0028FAD1002221463F
:10490000C94802F025FCA9B2C74802F004FC012105
:10491000C54802F0DFFB0120C749087070BD70B5C3
:1049200005460E46002400BF04E0285DC349085533
:10493000601CC4B2B442F8DB3146C048FFF7CEFF7A
:1049400070BD10B596B004460121202003F040F858
:104950000121042002F0F8FF0121880502F0F4FF94
:1049600008220621B64802F034FE08220721B44886
:1049700002F02FFE14A802F0E9FD4020149002205E
:104980008DF8540003208DF8550014A9AC4802F0AE
:1049900095FD8020149002208DF8540003208DF89E
:1049A000550014A9A64802F089FDA64803F05CFF53
:1049B00010A804F00DF810940020ADF84400ADF8F4
:1049C0004600ADF84800ADF84C000C20ADF84A00A8
:1049D00010A99C4803F096FF39208DF83C00022076
:1049E0008DF83D008DF83E0001208DF83F000FA8A6
:1049F00001F031FD944802F091FA4FF020600090F0
:104A00009048001D019091480290002003904FF4BF
:104A100080600490002005904FF480600690002094
:104A2000079008904FF48070099040020A9000208F
:104A30000B900C900D900E906946834802F010FB8D
:104A4000012240217F4804F092F801217E4802F0C3
:104A500041FB002240F225517A4804F091F80022EF
:104A600040F22661774804F08BF8012240F224419D
:104A7000744804F085F847208DF83C0001208DF83B
:104A80003D008DF83E008DF83F000FA801F0E3FCDB
:104A900001216C4803F0BEFF45208DF83C00022048
:104AA0008DF83D008DF83E0001208DF83F000FA8E5
:104AB00001F0D1FC6448783002F030FA4FF0206009
:104AC00000906048001D01906148029040200390D2
:104AD00000010490002005904FF4806006900020B3
:104AE0000790089009904FF480300A9000200B90B6
:104AF0000C900D900E9069465348783002F0B0FA51
:104B0000012280214F4804F032F8012210214E4842
:104B1000783002F06CFB00214B48783002F0DAFA72
:104B200016B010BD012080F3138800BF00BF00BF86
:104B300000BF00BF00BFBFF34F8F00BF00BF00BF6B
:104B40004448006800F4E06043490843001D4149BF
:104B5000086000BF00BF00BFBFF34F8F00BF00BFA2
:104B600000BF00BF00BFFDE702465068081A80B2D0
:104B7000704770B50024002540F22441314804F00C
:104B80003AF800B34FF480612F48FFF7EDFF334947
:104B9000088000212C4802F09DFA00BF2A4802F04C
:104BA000E6FA0028FAD14FF48061274802F0B3FA00
:104BB0000121254802F08EFA22480088C5B221481A
:104BC000001D0088C5B240F225511E4804F013F8BC
:104BD00020B140F225511B4804F044F870BD10B5D7
:104BE0001F49194802F020FB38B11E49164802F04F
:104BF000EAFA1B49144802F041FB10BD10B51A49EE
:104C00001148783002F010FB60B10020174908709D
:104C100015490D48783002F0D6FA13490A48783021
:104C200002F02CFB10BD0000B860024000500040B4
:104C3000730000200080002872000020580500202A
:104C4000000802400014014028640240D8090020F6
:104C5000D80500200CED00E00000FA0574000020EB
:104C6000008800100008001000802020760000203E
:104C700070B504460D462F480078C8B900212E486B
:104C800002F028FA00BF2C4802F071FA0028FAD18D
:104C900000222146284802F05BFAA9B2264802F019
:104CA0003AFA0121244802F015FA0120214908703E
:104CB00070BD70B505460E4600244FF480711F4844
:104CC00002F078FC00BF04E0285D1D490855601C17
:104CD000C4B2B442F8DB31461948FFF7C9FF4FF4BC
:104CE0008071164802F068FC70BD1CB54FF4E130CD
:104CF000FFF727FE684602F029FC0121042002F09C
:104D000023FE4FF48070009001208DF804000020F5
:104D10008DF8060002208DF8070003208DF80500AD
:104D20006946064802F0CAFB4FF48071034802F05E
:104D300043FC1CBD76000020A06402400008024035
:104D4000D80500207CB505460C46FCA103C9CDE979
:104D50000001200A8DF80500E0B28DF80400082259
:104D600069462846FEF766F97CBD7CB505460C46CB
:104D7000F4A103C9CDE90001E0B28DF80400200AD6
:104D80008DF80500200C8DF80600200E8DF8070028
:104D9000082269462846FEF74DF97CBD7CB50546DC
:104DA0000C46EAA103C9CDE900018DF804400522B3
:104DB00069462846FEF73EF97CBD38B50446E5A0B5
:104DC00000680090022269462046FEF733F938BD9C
:104DD00010B586B00446E0A103C9CDE9040108225C
:104DE00004A904F5C060FEF725F90A20FEF71AF8B9
:104DF000DBA103C9CDE90201082202A904F5C060C4
:104E0000FEF718F90A20FEF70DF8D7A103C9CDE97E
:104E100000010822694604F5C060FEF70BF90A207C
:104E2000FEF700F806B010BD1CB50446D0A103C9BA
:104E3000CDE900010822694604F5C060FEF7FAF8E2
:104E40001CBD1CB50446CCA103C9CDE90001082254
:104E5000694604F5C060FEF7EDF81CBD1FB50446B9
:104E6000BDA003C8CDE90201082202A904F5C06073
:104E7000FEF7E0F80A20FDF7D5FFB9A103C9CDE997
:104E800000010822694604F5C060FEF7D3F80A2045
:104E9000FDF7C8FF1FBD1CB50446B9A103C9CDE984
:104EA00000010822694604F5C060FEF7C3F81CBD86
:104EB00010B54FF4FA70FDF7B5FF0520FFF7EBFFD3
:104EC0000A20FDF7AFFF0520FFF7AEFF0A20FDF730
:104ED000A9FF0520FFF7C2FF0A20FDF7A3FF062068
:104EE000FFF7D9FF0A20FDF79DFF0620FFF79CFF83
:104EF0000A20FDF797FF0620FFF7B0FF0A20FDF715
:104F000091FF0720FFF7C7FF0A20FDF78BFF07205F
:104F1000FFF78AFF0A20FDF785FF0720FFF79EFFB6
:104F20000A20FDF77FFF0820FFF7B5FF0A20FDF7F5
:104F300079FF0820FFF778FF0A20FDF773FF0820AC
:104F4000FFF78CFF0A20FDF76DFF0120FFF779FFC7
:104F50000A20FDF767FF0120FFF766FF0A20FDF733
:104F600061FF0120FFF734FF0A20FDF75BFF0220FD
:104F7000FFF767FF0A20FDF755FF0220FFF754FFF8
:104F80000A20FDF74FFF0220FFF722FF0A20FDF75E
:104F900049FF0320FFF755FF0A20FDF743FF0320D9
:104FA000FFF742FF0A20FDF73DFF0320FFF710FF48
:104FB0000A20FDF737FF0420FFF743FF0A20FDF723
:104FC00031FF0420FFF730FF0A20FDF72BFF0420FC
:104FD000FFF7FEFE0A20FDF725FF10BD2DE9F04189
:104FE00004460F4615461E4621460120FFF7AAFE3D
:104FF0000A20FDF717FF39460220FFF7A3FE0A201B
:10500000FDF710FF29460320FFF79CFE0A20FDF75D
:1050100009FF31460420FFF795FE0A20FDF702FF45
:10502000BDE8F0812DE9F04104460F4615461E46C5
:1050300021460520FFF799FE0A20FDF7F3FE3946C9
:105040000620FFF792FE0A20FDF7ECFE2946072016
:10505000FFF78BFE0A20FDF7E5FE31460820FFF73B
:1050600084FE0A20FDF7DEFEBDE8F0817CB5054632
:105070000C4645A103C9CDE90001E0B28DF804005A
:10508000200A8DF80500200C8DF80600200E8DF802
:1050900007000822694605F5C060FDF7CBFF7CBD1F
:1050A0007CB505460C463AA103C9CDE90001E0B242
:1050B0008DF80400200A8DF80500200C8DF80600FC
:1050C000200E8DF807000822694605F5C060FDF73F
:1050D000B1FF7CBD1CB504462FA103C9CDE9000179
:1050E0000822694604F5C060FDF7A4FF1CBD1CB58D
:1050F00004462BA103C9CDE900010822694604F545
:10510000C060FDF797FF1CBD7CB505460C4626A187
:1051100003C9CDE90001E0B28DF80400200A8DF842
:105120000500200C8DF80600200E8DF807000822DF
:10513000694605F5C060FDF77DFF7CBDFF060201F5
:1051400000000000FF06160200000000FF0600013C
:1051500000000000FF1000002B406001060000006E
:105160002B406001070000002B4060010F00000091
:105170002B406001800000002F60600103000000F0
:105180002F60600101000000237A60010000000030
:1051900023816001000000002B4060013F000000FF
:1051A000404160010000000023FF6001000000009A
:1051B00000200849088008490880084908800849F3
:1051C00008800849086008490860084908600849DB
:1051D00008607047780000207A0000207C000020E2
:1051E0007E00002080000020840000208800002035
:1051F0008C0000207CB506460C4615460020009029
:105200000190200A8DF80000E0B28DF80100280A14
:105210008DF80200E8B28DF8030008226946304696
:10522000FEF79FF97CBD7CB506460C46154600206E
:1052300000900190200A8DF80000E0B28DF8010086
:10524000280A8DF80200E8B28DF8030008226946AA
:105250003046FEF786F97CBD7CB506460C46154601
:10526000002000900190200A8DF80000E0B28DF837
:105270000100280A8DF80200E8B28DF80300082228
:1052800069463046FEF76DF97CBD0020254908804F
:105290002549088025490880254908802549088036
:1052A000254908807047C820224908804042224989
:1052B000088070476FF0C7001E490880C8201E494B
:1052C0000880704700201B4908801B4908807047F0
:1052D0006FF0C70015490880C8201549088070473D
:1052E000C8201249088040421149088070470020B8
:1052F0000E4908800E49088070474FF4C87009496C
:1053000008800949088070474FF670600549088099
:10531000054908807047002002490880024908803A
:1053200070470000900000209200002094000020B0
:1053300096000020980000209A0000201CB5002054
:1053400000900190034C082269462046FEF738F988
:105350001CBD0000400190182DE9F04F87B0814638
:105360000D460024142102A803F0B5FE00260027F4
:10537000A046A246A34600200190012411E009F4B2
:10538000004028B1012002A9085526B9264602E0AE
:10539000002002A908554FF6FF7000EA4909601C79
:1053A000C4B2112CEBDB344618E002A8005D30B922
:1053B000BBF1000F10D127464FF0010B0CE0102C71
:1053C0000AD14FB9BBF1000F06D110274FF0010BE6
:1053D0004FF000084FF0000A601CC4B2112CE4DB4F
:1053E000781CC4B212E002A8005D20B1B8F1000F31
:1053F0000AD1A04608E0102C06D1B8F1000F03D165
:105400004FF000084FF0000A601CC4B2112CEADB18
:1054100008F10100C4B20FE002A8005D20B9BAF1A2
:10542000000F07D1A24609E0102C03D1BAF1000FFA
:1054300000D1A246601CC4B2112CEDDB00BFB81B2A
:1054400000EBD07106EB61016970B81B401C6871FC
:10545000B8F1000F07D0BAF1000F04D0082068702F
:105460000120A87101E00020A871E878287168790E
:105470000C2801DA687920B9082068700120E870EA
:1054800001E00020E87068782978401A40B2A870DE
:1054900007B0BDE8F08F00000246134610E0107818
:1054A0002A2805D01078202802DB10787A2801DD20
:1054B000FF20704710782C2801D1481EC1B2521C21
:1054C0000029ECD1D01AC0B2F3E710B50246012092
:1054D00000E050430B1EA1F10104E1B2F9D110BD6F
:1054E0002DE9F34F81B007463C46002000908346EB
:1054F00081460026804628E020782D2802D148F0F9
:105500000208641C20782C2802D020782A2800D198
:105510001CE020782E2803D148F00108641C09E023
:105520002078392802DC2078302803DA4FF000098F
:1055300000260BE008F0010010B1701CC6B203E0B9
:1055400009F1010000F0FF09641CD5E700BF08F075
:10555000020000B17F1C00250EE0A9F10100401BF4
:10556000C1B20A20FFF7B1FF795D3039009A00FB24
:1055700001200090681CC5B24D45EEDB052E00DD14
:1055800005260298067000250EE0701E401BC1B271
:105590000A20FFF79AFF09F101012944795C3039AB
:1055A00000FB01BB681CC5B2B542EEDB31460A20E8
:1055B000FFF78BFF009901FB00BA08F0020008B169
:1055C000CAF1000A5046BDE8FE8F2DE9F8430446B3
:1055D0008846FEA1404603F04DFD074601213846AE
:1055E000FFF75AFF0646FF2E23D0B8196946FFF78A
:1055F00077FF81469DF800100A20FFF766FFB9FB90
:10560000F0F542F21070B5FBF0F0C1B2BB200155CD
:105610006420B5FBF0F06421B0FBF1F201FB120154
:10562000BC2001556420B5FBF0F100FB1151BD20F9
:10563000015509213846FFF72FFF0646FF2E1ED0E1
:10564000B8196946FFF74CFF054642F21070B5FBEA
:10565000F0F0C1B2BA2001556420B5FBF0F064212E
:10566000B0FBF1F201FB1201B92001556420B5FB3A
:10567000F0F100FB115000F5FA60A4F8B700BDE8A6
:10568000F8832DE9F0412DED028B82B00446884667
:10569000D0A1404603F0EEFC074602213846FFF752
:1056A000FBFE0546FF2D42D0781901A9FFF718FF30
:1056B00006469DF80400801CC1B20A20FFF705FFD2
:1056C000B6FBF0F044F8BE0F9DF80400801CC1B298
:1056D0000A20FFF7FAFEB6FBF0F100FB116000EEC6
:1056E000100AB8EE408A07210A20FFF7EEFE216873
:1056F000484300EE100AF8EE400A9DF80400C0F19D
:105700000700C1B20A20FFF7E0FE00EE100AB8EE73
:10571000400A20EE080A9FEDB11AC0EE011A30EEE1
:10572000A10ABCEEC00A10EE100A44F8BE0903211B
:105730003846FFF7B1FE0546FF2D02D0785D84F8AC
:10574000C20004213846FFF7A7FE0546FF2D44D0CE
:10575000781901A9FFF7C4FE06469DF80400801CD5
:10576000C1B20A20FFF7B1FEB6FBF0F044F8C30F58
:105770009DF80400801CC1B20A20FFF7A6FEB6FB0C
:10578000F0F100FB116000EE100AB8EE400AB0EE36
:10579000408A07210A20FFF798FE2168484300EE5F
:1057A000100AF8EE400A9DF80400C0F10700C1B2EB
:1057B0000A20FFF78AFE00EE100AB8EE400A20EE3B
:1057C000080A9FED861AC0EE011A30EEA10ABCEE5F
:1057D000C00A10EE100A44F8C30905213846FFF745
:1057E0005BFE0546FF2D02D0785D84F8CB000621D4
:1057F0003846FFF751FE0546FF2D15D07E5D042E7D
:1058000003D1042084F8DA000EE0052E03D1052030
:1058100084F8DA0008E0012E03D1012084F8DA00D0
:1058200002E0002084F8DA0002B0BDEC028BBDE893
:10583000F0812DE9F84305460E4669A1304603F094
:1058400019FC074602213846FFF726FE8046B8F1CC
:10585000FF0F07D007EB08006946FFF741FE04463B
:10586000C5F8C740BDE8F88370B504460D46294623
:105870002046FFF7AAFE29462046FFF7DAFF294611
:105880002046FFF7FEFE70BD2DE9F0415648D0F8E6
:10589000C30000EE100AB8EE400ADFED540A80EEB5
:1058A000201A11EE108A404607F0BCFD0D46044652
:1058B0004D48D0F8BE0000EE100AB8EE400ADFED09
:1058C0004B0A80EE201A11EE108A404607F0AAFD1E
:1058D0000F4606464648046045600830066047604B
:1058E000414890F8BB0008304149C91F08703E4844
:1058F00090F8BC0048703C4890F8BD0088703A4869
:1059000090F8B9000871384890F8BA00C870364865
:10591000B0F8B700A1F805003348D0F8C70000EE92
:10592000100AB8EE400ADFED330A80EE201A11EEBD
:10593000108A404607F076FD2D4A10321060516003
:10594000294890F8DA00A2F1170181F82400BDE897
:10595000F08110B5044621462348FFF785FFFFF785
:1059600093FF002010BD10B52DED048BB0EE408AE2
:10597000F0EE608A9FED200B53EC102B51EC180BCE
:1059800007F0B2F941EC190B9FED1D0B53EC102BF6
:1059900006F0BCFF41EC100BBDEC048B10BD10B544
:1059A0002DED048BB0EE408AF0EE608A9FED120B75
:1059B00053EC102B51EC180B07F096F941EC190B36
:1059C0009FED0F0B53EC102B1EE0000024475052AC
:1059D0004D430000244750474741000000007042FB
:1059E0002447505452410000E80D00208096184B87
:1059F000D60E00200000C84200000060FB210940D4
:105A0000000000000080664006F080FF41EC100BB3
:105A1000BDEC048B10BD10B52DED048BB0EE408AAB
:105A2000F0EE608A1FED0A0B53EC102B51EC180BB3
:105A300007F05AF941EC190B1FED110B53EC102B29
:105A400006F064FF41EC100BBDEC048B10BD10B5EB
:105A50002DED068BB0EE408AF0EE608AB0EE480A7B
:105A6000F0EE680AFFF7D7FFB0EE40AAF0EE60AAAA
:105A70009FEDD80B53EC102B51EC1A0B06F08AFE5D
:105A800041EC190B9FEDD31BB0EE490AF0EE690A09
:105A900005F062FAB0EE40AAF0EE60AA51EC1A0BE3
:105AA00007F08CF8BDEC068B10BD00B52DED108B0A
:105AB00099B0B0EE40AAF0EE60AAB0EE418AF0EEE6
:105AC000618AB0EE42BAF0EE62BAB0EE439AF0EEFE
:105AD000639A9FEDC20B8DED120B9FEDC20B53EC41
