:020000040800F2
:10000000301F0020896500081D1000081F1000081F
:100010002F100008331000083710000800000000FF
:100020000000000000000000000000009B650008C8
:100030003B100008000000009F650008A165000853
:10004000A3650008A3650008A3650008A365000870
:10005000A3650008A3650008A3650008A365000860
:10006000A3650008851D0008A3650008A3650008B6
:10007000CD290008C32D00080F2A0008992D00087B
:10008000A3650008A3650008A365000865170008BC
:1000900081170008A5170008A3650008A3650008DC
:1000A000A3650008A3650008A3650008A365000810
:1000B000A3650008A3650008A3650008A365000800
:1000C000A3650008A3650008A3650008A3650008F0
:1000D000A36500087B130008832400088D2800080E
:1000E000A3650008A3650008A3650008A3650008D0
:1000F000A3650008A3650008A3650008693000082F
:10010000A3650008A3650008691F0008A36500082F
:100110004D2C000805300008A3650008A365000801
:10012000A3650008D93300089B140008A3650008E4
:10013000A3650008A3650008A3650008B71A0008B6
:10014000D31A0008BD1B0008A3650008A3650008BA
:10015000A3650008F7330008B114000863330008F2
:10016000A3650008A3650008A3650008A36500084F
:10017000A3650008A3650008A3650008A36500083F
:10018000A3650008A365000800F002F800F092F8EB
:100190000AA090E8000C82448344AAF10107DA45E2
:1001A00001D100F087F8AFF2090EBAE80F0013F0A2
:1001B000010F18BFFB1A43F001031847A47F00008A
:1001C000C47F0000103A24BF78C878C1FAD852071B
:1001D00024BF30C830C144BF04680C6070470000C1
:1001E0000023002400250026103A28BF78C1FBD840
:1001F000520728BF30C148BF0B6070476E2906F018
:10020000DF82702906F02184662907F02787652997
:1002100007F02487672907F02187612907F02087E5
:1002200003681B0A28BF41F08001692906F08C820F
:10023000642906F08982752906F086826F2906F006
:10024000AE83782906F0ED83E92906F04983E42995
:1002500006F04683F52906F04383EF2906F0AB83C9
:10026000F82906F0EC830368DB0928BF41F0800120
:10027000632907F0EF80732907F0F480E32907F082
:10028000FF80F32907F00481002070471FB507F0B5
:10029000E0FE07F04FF904000020002107F04CFEBB
:1002A000401C60600020002107F030FEE0601FBDB0
:1002B00010B510BD07F010F91146FFF7E7FF00F089
:1002C000F1FD07F0EDF903B4FFF7F2FF03BC02F014
:1002D000E1F9000010B54FF4A06003F0EBFBA8209B
:1002E00001F008F902F084F902F09AF902F0B8F985
:1002F0004FF4E13000F048FF02F060F84FF47A70FC
:1003000001F05AF9012001F085F940F2015001F0A5
:10031000B9FA642001F050F9532140F2CF7001F096
:10032000EBFDFEA001F0A3F810BD884201DD0846F8
:1003300003E04A42904200DA484270472DE9FE4FFE
:100340008046894692460026002500240027A346C1
:100350000020029001900090A9F57A7005B2A8F5EE
:100360007A7004B2AAF57A7007B2002C01DD20463B
:1003700000E06042B0F5967F7BDD002D01DD284670
:1003800000E06842B0F5967FF6DDE94890ED000A9E
:10039000E84880ED000AB4F5967F21DD15F5967FDB
:1003A0001EDA9FEDE50AE24880ED000A002C01DD2F
:1003B000204600E06042002D01DD294600E0694250
:1003C0000844404200EE100AB8EEC00ADFEDDB0A36
:1003D00020EE200ABDEEC00A10EE100A06B2C1E0FF
:1003E00014F5967F21DA15F5967F1EDA9FEDD40A73
:1003F000CF4880ED000A002C01DD204600E060427D
:10040000002D01DD294600E069420844404200EE2B
:10041000100AB8EEC00ADFEDC90A20EE200ABDEED0
:10042000C00A10EE100A06B29CE014F5967F21DA9D
:10043000B5F5967F1EDD9FEDC00ABD4880ED000A30
:10044000002C01DD204600E06042002D01DD294640
:1004500000E06942084400EE100AB8EEC00ADFED81
:10046000B70A20EE200ABDEEC00A10EE100A06B24E
:1004700078E023E0B4F5967F74DDB5F5967F71DD05
:100480009FEDAF0AAA4880ED000A002C01DD20464E
:1004900000E06042002D01DD294600E06942084489
:1004A00000EE100AB8EEC00ADFEDA40A20EE200A22
:1004B000BDEEC00A10EE100A06B253E0002C01DDBA
:1004C000204600E06042B0F5967F26DD002D01DD7C
:1004D000284600E06842B0F5967F1EDA944890ED19
:1004E000000A944880ED000AB4F5967F08DD9FED80
:1004F000950A8F4880ED000AA4F5967006B231E0A7
:1005000014F5967F2EDA9FED900A894880ED000A57
:1005100004F59670404206B224E0002C01DD20462E
:1005200000E06042B0F5967F1CDA002D01DD284620
:1005300000E06842B0F5967F14DD7D4890ED000A3A
:100540007C4880ED000A9FED810A794880ED000A21
:10055000B5F5967F03DDA5F5967006B202E005F5C8
:10056000967006B2002F01DD384600E07842B0F503
:10057000967F7BDDB7F5967F03DDA7F5967006B213
:1005800002E007F5967006B2694890ED000A6948E6
:1005900080ED000A9FED6A0A654880ED000A654813
:1005A00090ED000A6248D0ED000A30EE600AB5EE28
:1005B000C00AF1EE10FA08DD5E4890ED000A5C48D2
:1005C000D0ED000A30EE600A09E05A4890ED000ACA
:1005D0005748D0ED000A30EE600AB1EE400AF3EE63
:1005E000040AB4EEE00AF1EE10FA02DD3C205849AC
:1005F000088057480088401E00B2554908800846C8
:10060000B0F90000002844DC0020088006EB46001A
:1006100000B25049088006EB460000B24E490880FF
:1006200006EB460000B24D49088006EB460000B2DA
:100630004B4908803E4890ED000AB1EE400ADFEDDC
:10064000490A20EE200ABDEEC00A10EE10BA90ED65
:10065000000ADFED440A20EE200ABDEEC00A8DED4F
:10066000020A90ED000AB1EE400A00E012E0DFED70
:100670003D0A20EE200ABDEEC00A8DED010A90ED84
:10068000000ADFED380A20EE200ABDEEC00A8DED2B
:10069000000A1EE1002C01DD204600E06042B0F5BA
:1006A000967F71DA002D01DD284600E06842B0F542
:1006B000967F69DA9FED250A1D4880ED000A002625
:1006C000704200EB800023490880704200EB8000FC
:1006D0002149088006EB86002049088006EB860049
:1006E0001F490880124890ED000ADFED1E0A20EE37
:1006F000200ABDEEC00A10EE10BA90ED000ADFED40
:10070000190A20EE200ABDEEC00A8DED020A90ED16
:10071000000ADFED140A20EE200A25E07379732029
:10072000696E69742066696E697368210D0A00003C
:100730000400002008000020000034C29A99193FEC
:10074000000034420000B4420000B4C200000000C7
:100750000200002084000020860000208800002085
:100760008A000020CD380E45BDEEC00A8DED010A8D
:1007700090ED000A5FED050A20EE200ABDEEC00AEA
:100780008DED000AA5E0FFE7FC4890ED000AFC486B
:10079000D0ED000A30EE600AB5EEC00AF1EE10FAB4
:1007A00008DDF64890ED000AF548D0ED000A30EE7D
:1007B000600A09E0F14890ED000AF148D0ED000A26
:1007C00030EE600AB1EE400ADFEDEE0AB4EEE00A68
:1007D000F1EE10FA03DD7D20EB49088029E0E748BF
:1007E00090ED000AE648D0ED000A30EE600AB5EE62
:1007F000C00AF1EE10FA08DDE04890ED000AE0488A
:10080000D0ED000A30EE600A09E0DC4890ED000A05
:10081000DB48D0ED000A30EE600AB1EE400AF3EE9C
:100820000E0AB4EEE00AF1EE10FA02DD4120D649DC
:100830000880D5480088401E00B2D3490880084689
:10084000B0F9000000281BDC00200880704200EB9B
:100850004000400000B2CD490880704200EB4000EB
:10086000400000B2CA49088006EB4600400000B2D2
:10087000C849088006EB4600400000B2C64908801F
:10088000BF4890ED000A5FED490A20EE200ABDEE58
:10089000C00A10EE10BA90ED000A5FED4E0A20EE8D
:1008A000200ABDEEC00A8DED020A90ED000A5FED50
:1008B000530A20EE200ABDEEC00A8DED010A90ED2C
:1008C000000A5FED580A20EE200ABDEEC00A8DED49
:1008D000000A4FF448315846FFF727FDAF4908603A
:1008E0004FF448310298FFF720FDAD4908604FF4FE
:1008F00048310198FFF719FDAA4908604FF44831C3
:100900000098FFF712FDA849086003F0ACF8BDE8B5
:10091000FE8F00B52DED068B89B0A4480078401CF1
:10092000A249087008460078642836DDA04890ED9A
:10093000020A10EE101A084607F01AFB41EC180BD9
:100940009B4890ED010A10EE101A084607F010FBC4
:1009500041EC190B964890ED000A10EE101A08466B
:1009600007F006FB41EC1A0B8DED068B8DED049B19
:100970008DED02AB894800688449B1F90010CDE9DA
:1009800000108C4803888C4802888C4801888CA011
:1009900000F06DFD00208549087009B0BDEC068BA4
:1009A00000BD2DE9F04704460D469146002600277C
:1009B000B046A9F57A700FFA80F8A5F57A7007B2FB
:1009C000A4F57A7006B2B6F5967F06DDC8208C498C
:1009D000088040428B4908800FE016F5967F07DAC1
:1009E0006FF0C70086490880C8208649088004E067
:1009F00000208349088083490880B7F5967F07DD8A
:100A00006FF0DB0080490880C820804908800FE033
:100A100017F5967F07DADC207B4908806FF0C70066
:100A20007A49088004E000207749088077490880E7
:100A3000B8F5967F08DD4FF4B970754908804FF41A
:100A4000C8707449088010E018F5967F08DA6FF4D2
:100A5000D9706F4908804FF684606E49088004E0C1
:100A600000206B4908806B49088002F08FFFBDE8C9
:100A7000F08710B500235FEDCB0AB0EE600A0024CA
:100A800065480078002878D0644800880F2874D121
:100A900063480088401C62490880084600883C285A
:100AA0006BDD002008805F484088B0F5F06F0BDBFD
:100AB0005D484088B0F5F06F06DB46235FEDE00A45
:100AC000B0EE600A0124CCE056484088B0F5707F53
:100AD00014DC54484088002810DD53484088B0F5A5
:100AE000707F0BDC50484088002807DD46235FED0F
:100AF000EC0AB0EE600A4FF0FF34B2E0494840889B
:100B0000B0F5487F0CDA48484088B0F5F06F07DB55
:100B100046235FEDF50AB0EE600A4FF0FF34A0E027
:100B200041484088B0F5487F0BDA3E484088B0F530
:100B3000F06F06DB4623DFED3D0AB0EE600A0124CC
:100B40008FE039484088B0F5F86F06DB4623DFEDCB
:100B5000380AB0EE600A002483E033484088B0F5DC
:100B6000707F6ADA30484088002866DD4623DFED72
:100B7000310AB0EE600A002473E04DE10800002065
:100B800004000020000070420200002084000020C9
:100B900086000020880000208A0000208C000020B1
:100BA00090000020940000209800002010000020F9
:100BB000C00E002034000020300000202E00002055
:100BC0006368303A2564206368313A25642063689D
:100BD000333A25642073703A2564206F6D673A2597
:100BE00064206261743A252E3266206375723A255C
:100BF0002E326620736F633A252E32660D0A00008E
:100C0000A4000020A6000020A0000020A2000020D8
:100C10009C0000209E000020360000203C000020A8
:100C200012000020B4000020B00000200000344278
:100C30000000B4420000B4C2FFE7DD48408810B1B4
:100C4000DC48408830B90023DFEDDB0AB0EE600AF3
:100C5000002406E06FF09503DFEDD70AB0EE600ADE
:100C60000024012C42D1D5480380D5480380D548C3
:100C70000380D5480380DFEDD50A60EE200AFDEE43
:100C8000E00A10EE900A4FF44831FFF74EFB404265
:100C9000CF490860DFEDCD0A60EE200AFDEEE00AE4
:100CA00010EE900A4FF44831FFF73FFBC949086046
:100CB000DFEDC60A60EE200AFDEEE00A10EE900AB3
:100CC0004FF44831FFF731FB4042C3490860DFED84
:100CD000BF0A60EE200AFDEEE00A10EE900A4FF423
:100CE0004831FFF722FBBD49086092E0601CE0BB81
:100CF000584200B2B1490880584200B2B049088059
:100D0000584200B2AF490880584200B2AE4908804C
:100D1000DFEDAE0A60EE200AFDEEE00A10EE900A6A
:100D20004FF44831FFF701FB4042A9490860DFED6D
:100D3000A70A60EE200AFDEEE00A10EE900A4FF4DA
:100D40004831FFF7F2FAA3490860DFEDA00A60EE30
:100D5000200AFDEEE00A10EE900A4FF44831FFF74A
:100D6000E4FA40429C49086000E00EE0DFED970A9B
:100D700060EE200AFDEEE00A10EE900A4FF44831D2
:100D8000FFF7D3FA9549086043E0584200B28B4917
:100D90000880584200B28A4908808A4803808A48FD
:100DA0000380DFED8A0A60EE200AFDEEE00A10EE15
:100DB000900A4FF44831FFF7B8FA85490860DFED33
:100DC000830A60EE200AFDEEE00A10EE900A4FF46E
:100DD0004831FFF7AAFA7F490860DFED7C0A60EE30
:100DE000200AFDEEE00A10EE900A4FF44831FFF7BA
:100DF0009CFA79490860DFED750A60EE200AFDEE85
:100E0000E00A10EE900A4FF44831FFF78EFA73496A
:100E1000086000207249087010BD10B54FF4806161
:100E2000704803F0E1FE18B901206F49087002E034
:100E300000206D4908704FF480516A4803F0D4FED9
:100E400018B901206949087002E00020674908705C
:100E500010BD704762480078012806D164480078C8
:100E600018B90120634908701BE061480078012827
:100E700003D104205F49087013E05D480078022820
:100E800002D15C4908700CE05548007810B9584808
:100E9000007818B158480078012802D1002055493F
:100EA00008707047FFF716FA02F0F0FB642000F0BC
:100EB00083FB7CE051480078002878D0FFF7CAFF18
:100EC0004C48007830B101280CD0022829D00428E1
:100ED00061D129E002F05AFD02F0C5FD48A000F002
:100EE000C6FA58E0494800880D280AD148480088C9
:100EF00002B24848008801B24748008800B2FFF7B4
:100F00001DFA4248008801280AD14148008802B2EF
:100F10004048008801B24048008800B2FFF741FD18
:100F200039E0FFF7A6FD36E0FFF777FF304B93ED92
:100F3000030ABDEEC00A10EE103A1AB22C4B93ED24
:100F4000020ABDEEC00A10EE103A19B2284B93ED1A
:100F5000010ABDEEC00A10EE103A18B2FFF7EEF922
:100F6000234B93ED060ABDEEC00A10EE103A1AB2FA
:100F70001F4B93ED050ABDEEC00A10EE103A19B2F0
:100F80001B4B93ED040ABDEEC00A10EE103A18B2E6
:100F9000FFF707FD00BF00BFFFF75BFF01F062FA3C
:100FA00000F054F8FFF7B5FC00201449087081E701
:100FB000B0000020B40000200000000084000020E9
:100FC00086000020880000208A000020CD380E45D1
:100FD0008C00002090000020940000209800002049
:100FE00036000020001002400C0000200D00002000
:100FF000DC0000200F00002014000020280000204A
:101000007374616E6462790D0A0000003C00002078
:1010100034000020300000202E000020704705E042
:1010200006A000F024FA642000F0C6FAF8E700BF3A
:10103000FEE700BFFEE700BFFEE77047686172642D
:101040006661756C742E2E2E0D0A000010B5A2B0CC
:101050000024802102A805F0EAFA00200190F12284
:101060002146641C02A8425401222146641C4254B9
:10107000641C434890ED000A8DED010A9DF80420A0
:101080002146641C02A842549DF805202146641C98
:1010900042549DF806202146641C42549DF80720C6
:1010A0002146641C4254364890ED010A8DED010A38
:1010B0009DF804202046611CCCB202A90A549DF878
:1010C00005202046611CCCB202A90A549DF80620D6
:1010D0002046611CCCB202A90A549DF80720204684
:1010E000611CCCB202A90A54254890ED020A8DED8C
:1010F000010A9DF804202046611CCCB202A90A54C2
:101100009DF805202046611CCCB202A90A549DF826
:1011100006202046611CCCB202A90A549DF8072083
:101120002046611CCCB202A90A5408222046611C48
:10113000CCB202A90A5419222046611CCCB202A9E1
:101140000A548DF80A40214602A800F07EF922B028
:1011500010BD0178F12901D1012100E00021427880
:10116000022A01D1012200E00022114031B1C178F0
:10117000044A11700179517041799170704770473C
:10118000C00E00201400002010B596B004460121C6
:10119000084603F00DFF0121102003F04DFF072248
:1011A0000921CB4803F049FD07220A21C84803F072
:1011B00044FD00208DF8560001208DF857000220D4
:1011C0008DF854000002149002208DF8550014A9E7
:1011D000BF4803F0A7FC02208DF854004002149091
:1011E00014A9BB4803F09EFCBA4804F071FE1094A9
:1011F0000020ADF84400ADF84600ADF84800ADF869
:101200004C000C20ADF84A0010A9B24804F0AEFE24
:10121000002240F22551AF4804F0E6FF002240F2E0
:101220002661AC4804F0E0FF012240F22441A948C5
:1012300004F0DAFF0121A74804F020FF012188050E
:1012400003F0B6FE01224021A24804F0C4FF0122AF
:101250008021A04804F0BFFF25208DF83C0001202C
:101260008DF83D008DF83E008DF83F000FA802F08C
:1012700026FC46208DF83C0002208DF83D008DF8BC
:101280003E0001208DF83F000FA802F018FC3A2024
:101290008DF83C0000208DF83D0002208DF83E00C6
:1012A00001208DF83F000FA802F009FC8A4803F0E6
:1012B00069F94FF0006000908648001D0190874852
:1012C00002900020039080200490002005904FF4AD
:1012D000806006900020079008904FF4807009907D
:1012E0004FF440300A9000200B900C900D900E901F
:1012F0006946794803F0E8F90121774803F01EFABE
:101300007548783003F03EF94FF000600090714866
:10131000001D0190724802904020039080200490AC
:10132000002005904FF48060069000200790089000
:1013300009904FF480300A9000200B900C900D9093
:101340000E9069466448783003F0BEF9012280218E
:10135000604804F040FF012210215F48783003F01C
:101360007AFA00215C48783003F0E8F916B010BD35
:1013700002465068081A80B2704770B500240025F4
:1013800040F22551534804F06AFF18B1514804F067
:10139000A4FEC4B240F224414E4804F060FF00B302
:1013A0004E48FFF7D6FE80214B48FFF7E1FF4D493D
:1013B00008800021484803F0C1F900BF464803F007
:1013C0000AFA0028FAD18021434803F0D8F9012114
:1013D000414803F0B3F93F480088C5B23D488088D2
:1013E000C5B270BD10B5044600BF2021394804F0D5
:1013F00020FF0028F9D0374804F06FFE10BD70B50B
:1014000004460D4638480078F0B90021324878305B
:1014100003F094F900BF3048783003F0DCF900287D
:10142000F9D1002221462C48783003F0C5F9A9B241
:101430002948783003F0A3F901212748783003F0D8
:101440007DF901202849087070BD70B505460E462B
:10145000002400BF04E0285D21490855601CC4B287
:10146000B442F8DB31461E48FFF7C9FF70BD0FB428
:1014700038B505A800901A48009A049905F0A6F816
:1014800000200090164805F0B3F8044621461448A1
:10149000FFF7B5FF38BC5DF814FB10B513490E48D3
:1014A00003F0F6F918B111490B4803F01BFA10BD0F
:1014B00010B50F490848783003F0EAF938B1002038
:1014C000094908700A490448783003F00BFA10BD46
:1014D000000002400010014040640240F80000207B
:1014E000780100201C00002018000020008020103F
:1014F0000080002810B504466FF0040002F02CFBB9
:10150000E11704EB5171C1F3C701404A1170104655
:10151000007800EB4001C1EBC0104FF6FF7101EA0B
:10152000C0003B49088010BD0146384A12784A4342
:101530004FF0E0235A6100229A611A46126942F084
:1015400001021A6100BF4FF0E022106900F00102B1
:101550001AB100F48032002AF5D04FF0E02212696F
:1015600022F001024FF0E0231A6100229A617047D5
:101570000146274A12884A434FF0E0235A6100226D
:101580009A611A46126942F001021A6100BF4FF0D7
:10159000E022106900F001021AB100F48032002A42
:1015A000F5D04FF0E022126922F001024FF0E02363
:1015B0001A6100229A61704770B504464FF40770B3
:1015C00094FBF0F0C6B24FF4077094FBF0F100FB0F
:1015D000114085B205E04FF40770FFF7C9FF701E98
:1015E000C6B2002EF7D115B12846FFF7C1FF70BD76
:1015F00010B5002107E04AF2104200BF131EA2F10D
:101600000102FBD1491C8142F5D310BD1E00002010
:101610002000002010B58AB004460121084603F0DE
:10162000C7FC0121480603F0F6FC09220C21924870
:1016300003F003FB09220B218F4803F0FEFA4FF45D
:10164000C050019002208DF8080000208DF80A009B
:1016500003208DF8090001A9874803F063FA1420DC
:101660008DF8000001208DF8010002208DF80200A5
:1016700001208DF80300684602F021FA15208DF84C
:10168000000001208DF8010002208DF802000120E9
:101690008DF80300684602F012FA13208DF800005E
:1016A00001208DF801008DF802008DF803006846D6
:1016B00002F005FA714802F06DFA07A802F08EFBFD
:1016C00000208DF822008DF823008DF824008DF87D
:1016D00025008DF8260001208DF8270000208DF8C8
:1016E0001E008DF81F0008208DF8200003208DF8C3
:1016F00021000620ADF81C0007A9604802F063FA3B
:1017000000208DF816008DF8170001208DF81800C4
:101710004FF6FF7000EA4410ADF80C000020ADF861
:101720000E004FF6FF70ADF81000401EADF812002D
:101730000020ADF8140001208DF8190003A802F074
:10174000CCFA012202214D4802F0C6FD01221021EF
:101750004A4802F0C1FD01221146484802F0BCFD92
:101760000AB010BD10B50121444802F01DFE30B191
:101770000120434908700121404802F0B0FE10BD2D
:1017800000B585B002213D4802F00EFE40B10221B5
:101790003A4802F0A4FE6A460021384802F081FC73
:1017A00005B000BD00B585B01021344802F0FCFD45
:1017B00040B11021314802F092FE6A4601212F48C3
:1017C00002F06FFC05B000BD2DE9F04186B0064681
:1017D0000F4615460024A04600208DF80C008DF819
:1017E0000D008DF80E50019600BF05E0395D0DF13A
:1017F0000F000155601CC4B2AC42F7DB01E0601C75
:10180000C4B201A91D4802F057FB042801D17F2C66
:10181000F5DB06B0BDE8F0812DE9F04186B0064663
:101820000F4615460024A04604208DF80C00002029
:101830008DF80D008DF80E50029600BF05E0395D61
:101840000DF10F000155601CC4B2AC42F7DB09E09A
:1018500008F1010000F0FF08B8F1050F02DD4FF0BC
:10186000000805E001A9054802F026FB0428EFD096
:1018700000BF06B0BDE8F0810000024000640040F7
:101880002200002010B58AB004460121022003F096
:101890008FFB0121880603F0BEFB09220C21FD48C5
:1018A00003F0CBF909220D21FA4803F0C6F94FF4F1
:1018B0004050019002208DF8080000208DF80A00A9
:1018C00003208DF8090001A9F24803F02BF940200C
:1018D0008DF8000001208DF8010002208DF8020033
:1018E00001208DF80300684602F0E9F841208DF8E8
:1018F000000001208DF8010002208DF80200012077
:101900008DF80300684602F0DAF83F208DF80000F9
:1019100001208DF801008DF802008DF80300684663
:1019200002F0CDF8DC4802F035F907A802F056FACB
:1019300000208DF822008DF823008DF824008DF80A
:1019400025008DF8260001208DF8270000208DF855
:101950001E008DF81F0008208DF8200003208DF850
:1019600021000C20ADF81C0007A9CB4802F02BF990
:101970000E208DF8160000208DF8170001208DF83C
:1019800018004FF6FF7000EA4410ADF80C0000207C
:10199000ADF80E00ADF81000ADF81200ADF814006F
:1019A00001208DF8190003A802F097F90F208DF897
:1019B000160000208DF8170001208DF81800601C1B
:1019C0004FF6FF7101EA4010ADF80C000020ADF8B1
:1019D0000E00ADF81000ADF81200ADF814000120B3
:1019E0008DF8190003A802F078F910208DF8160080
:1019F00000208DF8170001208DF81800A01C4FF66C
:101A0000FF7101EA4010ADF80C000020ADF80E00A7
:101A1000ADF81000ADF81200ADF8140001208DF8FB
:101A2000190003A802F059F911208DF816000020C2
:101A30008DF8170001208DF81800C020ADF80C00BB
:101A40000020ADF80E00ADF81000ADF81200ADF8B2
:101A5000140001208DF8190003A802F03EF91220AD
:101A60008DF8160000208DF8170001208DF8180061
:101A7000E020ADF80C000020ADF80E00ADF810002D
:101A8000ADF81200ADF8140001208DF8190003A87C
:101A900002F023F9012202217F4802F01DFC0122FD
:101AA00010217D4802F018FC012211467A4802F00C
:101AB00013FC0AB010BD10B50121774802F074FC88
:101AC00030B10121744802F00AFD01207349087009
:101AD00010BD10B586B002216F4802F065FC0028E9
:101AE0006AD002216C4802F0FAFC01AA00216A487F
:101AF00002F0D7FA6A4C0298A04237D19DF8100044
:101B00009DF80F1040EA012000EE100AB8EEC00A5E
:101B1000F2EE040A80EE201A624880ED001A9DF869
:101B200014109DF8130041EA002000EE100AB8EEF0
:101B3000C00AF2EE040A80EE201A9FED5B0A31EE35
:101B4000400A584880ED010A9DF816109DF81500CE
:101B500041EA002000EE100AB8EEC00AF2EE040AD4
:101B600080EE201A4F4880ED021A24E001980628E2
:101B70000FD19DF810004D4908709DF81100487074
:101B80009DF811109DF8100041EA00204749488057
:101B900011E0019807280ED19DF810004449087003
:101BA0009DF8110048709DF811109DF8100041EA51
:101BB00000203F49488000BF06B010BD00B585B089
:101BC0001021354802F0F0FB00B31021324802F03A
:101BD00086FC6A460121304802F063FA35A0FFF71F
:101BE00046FC0098062807D19DF80C002F49087084
:101BF0009DF80D00487009E00098072806D19DF86F
:101C00000C002B4908709DF80D00487005B000BD10
:101C10002DE9F04186B006460F4615460024A04641
:101C200000208DF80C008DF80D008DF80E500196F7
:101C300000BF05E0395D0DF10F000155601CC4B215
:101C4000AC42F7DB09E008F1010000F0FF08B8F151
:101C5000050F02DD4FF0000805E001A90E4802F073
:101C60002BF90428EFD000BF06B0BDE8F0812DE9C4
:101C7000F04186B006460F4615460024A0460420D3
:101C80008DF80C0000208DF80D008DF80E50029696
:101C900000BF19E00004024000680040230000205B
:101CA00001409018C00E002000803B45B400002089
:101CB000B0000020676574310D0A0000395D0DF138
:101CC0000F000155601CC4B2AC42F7DB09E008F11B
:101CD000010000F0FF08B8F1050F02DD4FF0000829
:101CE00005E001A9044802F0E7F80428EFD000BF9E
:101CF00006B0BDE8F0810000006800401CB501217D
:101D0000022003F055F90121042003F084F968460C
:101D100002F050FFC020009002208DF80400032044
:101D20008DF8050001208DF807006946F64802F09D
:101D3000F9FE02220621F44802F07FFF0222072169
:101D4000F14802F07AFF00231A460321EF4804F01D
:101D50008EF847F6FF70ED49243108600121EB4809
:101D600003F09AFB1CBDE949243102680968A1F51A
:101D7000FE41FF391144016047F6FF71E34A243206
:101D80001160704710B5E2480068401CE0490860E7
:101D9000082002F050FE10BD00B585B00121880377
:101DA00003F04AF90121022003F002F90820009013
:101DB00000208DF8040003208DF8050001208DF827
:101DC00007006946D04802F0ADFE0321012004F06F
:101DD0009BFA0820029000208DF80C000C208DF852
:101DE0000D0001208DF80E0002A802F0ADFD0920C3
:101DF0008DF8100003208DF8110002208DF81200DC
:101E000001208DF8130004A801F059FE05B000BDB3
:101E100030B58BB005460C460121022003F0C8F80E
:101E20000121022003F0F7F809A802F0C3FE3320D5
:101E3000099002208DF8280003208DF8290009A9B7
:101E4000B14802F06FFE02220421AF4802F0F5FE15
:101E500002220521AC4802F0F0FE02220021AA482D
:101E600002F0EBFE02220121A74802F0E6FEA9489B
:101E700003F0DCF90795ADF818400020ADF820001C
:101E8000ADF81A0006A9A34803F07DFA01A803F0F3
:101E900033FC6020ADF804000120ADF806000020FE
:101EA000ADF8100001A99B4803F002FB01A9994875
:101EB00003F037FB01A9974803F080FB01A995487F
:101EC00003F0E2FB0821934803F07FFC08219148CE
:101ED00003F084FC08218F4803F08DFC08218D4815
:101EE00003F092FC01218B4803F0B8FA01218948E4
:101EF00003F0D2FA0BB030BD7FB505460C46012188
:101F0000082003F088F8844803F090F90295ADF8B2
:101F100004400020ADF80C00ADF806008DF80E006E
:101F200001A97D4803F02FFA01217B4803F096FABE
:101F30000121794803F0DCFE01221146764803F0C6
:101F4000C3FE0121744803F0A7FA32208DF8000087
:101F500000208DF8010001208DF802008DF80300AB
:101F6000684601F0ACFD7FBD10B501216A4803F061
:101F7000C2FE00286FD069480078401C674908708D
:101F800008460078192804DD002008700120644903
:101F9000087064480078401C624908700846007860
:101FA000102801DD012008705E48007811281AD23F
:101FB000DFE800F0A4091A2B3C434B5256667684A6
:101FC0008A90949AA0005848B0F90010012001F0BE
:101FD00089FC5648B0F900205548B0F9001040F28D
:101FE000031001F027FD89E05248B0F900100220EB
:101FF00001F078FC5048B0F900205048B0F90010CA
:102000004FF4817001F0FDFC78E04D48B0F900100C
:10201000032001F067FC4B48B0F900204A48B0F9B2
:10202000001040F2011001F0D3FC67E04748B0F91E
:102030000010042001F056FC60E0454801680520CE
:1020400001F002FC01F02AFD58E042480188052019
:1020500001F014FC52E056E0052001F029FC4DE0AF
:102060003D480168062001F0EFFB3048B0F9002040
:102070002F48B0F9001040F2031001F0DBFC3DE006
:1020800034480188062001F0F9FB2B48B0F9002004
:102090002A48B0F900104FF4817001F0B2FC2DE035
:1020A000062001F005FC2748B0F900202648B0F9C9
:1020B000001040F2011001F08BFC1FE0274801687E
:1020C000072001F0C1FB19E022480188072001F038
:1020D000D5FB13E0072001F0EBFB0FE0204801687F
:1020E000082001F0B1FB09E01A480188082001F03E
:1020F000C5FB03E0082001F0DBFB00BF00BF0121AE
:10210000054803F009FE10BD00040240000800402D
:102110002400002000040040000C004029000020A2
:10212000280000202C00002084000020A6000020B1
:10213000A400002086000020A2000020A0000020B3
:10214000880000209E0000209C0000208A000020C3
:102150008C0000202A000020900000209400002025
:102160009800002030B58BB005460C4601211020A8
:1021700002F01EFF0121084602F05EFF09A802F0EE
:1021800019FD4FF4C440099002208DF82800032067
:102190008DF8290009A9834802F0C4FC0122092115
:1021A000804802F04AFD01220D217E4802F045FDE3
:1021B00001220E217B4802F040FD7B4803F036F8F7
:1021C0000795ADF818400020ADF82000ADF81A00D2
:1021D0008DF8220006A9744803F0D5F801A803F091
:1021E0008BFA6020ADF804000120ADF80600002055
:1021F000ADF81000039001A96B4803F059F901A94B
:10220000694803F0DBF901A9674803F03DFA0821AA
:10221000654803F0DAFA0821634803F0ECFA082174
:10222000614803F0F1FA01215F4803F017F9012139
:102230005D4803F031F901215B4803F01EFD0BB04E
:1022400030BD30B58BB005460C460121022002F0AE
:10225000AFFE0121402002F0DEFE09A802F0AAFC38
:102260004FF40040099002208DF8280000208DF8DE
:102270002A0003208DF8290000208DF82B0009A9E1
:102280004A4802F04FFC09220F21484802F0D5FCD1
:10229000474802F0CBFF0795ADF818400020ADF895
:1022A0002000ADF81A0006A9414803F06CF801A817
:1022B00003F022FA7020ADF804000120ADF806000A
:1022C0000020ADF81000039001A9394803F029F966
:1022D0000821374803F082FA0121354803F0BEF89F
:1022E0000121334803F0D8F80BB030BD30B58BB0C6
:1022F00005460C460121042002F05AFE012102206D
:1023000002F09AFE09A802F055FC4FF40070099003
:1023100002208DF8280000208DF82A0003208DF877
:10232000290000208DF82B0009A9224802F0FAFBB1
:10233000032209211F4802F080FC1F4802F076FFAB
:102340000795ADF818400020ADF82000ADF81A0050
:102350008DF8220006A9184803F015F801A803F02B
:10236000CBF96020ADF804000120ADF80600002094
:10237000ADF81000039001A90F4803F085F908217A
:102380000D4803F041FA01210B4803F067F80121E1
:10239000094803F081F80121074803F06EFC0BB0F7
:1023A00030BD000000100240000001400004024067
:1023B00000180040000802400004014000B587B04A
:1023C0000121794802F0F4FD0121480402F023FEC6
:1023D00007220321754802F030FC082005900220F6
:1023E0008DF8180000208DF81A0003208DF81900D0
:1023F00000208DF81B0005A96C4802F093FB6C4887
:1024000003F066FD6B4801900020ADF808004FF422
:102410000050ADF80A00C010ADF80C000420ADF873
:102420000E000020ADF8100001A9614803F09EFDE8
:10243000012240F225515E4803F0D6FE01215C489E
:1024400003F01CFE26208DF8000000208DF801000E
:1024500001208DF802008DF80300684601F02FFB83
:1024600007B000BD54480078401C53490870084626
:102470000078642804DD6420087000204F4908704B
:10248000704710B540F22551494803F0E8FE002896
:102490007ED0474803F021FE49490870494800783A
:1024A00038B9084600780F282AD1FF20454908701E
:1024B00026E0434800784449444A12788854434807
:1024C0000078172811D10846C07D022802D008469E
:1024D000C07D18B9FF203E49087006E00020394948
:1024E00008703B4908703949087038480078401C2A
:1024F0003649087008460078182801DD0020087069
:102500003348007800284DD02F4800782E4949786C
:1025100040EA0120C0F30A002E4908802A4880784A
:1025200040012949497840EAE100C0F30A002A49FC
:1025300008802548807880112349C97840EA8100C5
:102540002149097940EA8120C0F30A002349088023
:102550001D48007940101C49497940EAC110C0F378
:102560000A001F4908801848407A00F00F001D49F2
:1025700008801548807900F00F00401C1A49088037
:10258000002010490870124908701049087000E0D6
:1025900008E009490870012008490870042113481F
:1025A00002F047FB10BD00000100200000000240C7
:1025B00000440040A08601003700002036000020C3
:1025C0004200002044000020F801002043000020C9
:1025D000450000202E0000203000002032000020A6
:1025E00034000020380000203C0000200010024091
:1025F0001CB50121102002F0DBFC0420009001201A
:102600008DF8040000208DF8060003208DF80500E9
:1026100001208DF8070069461C4802F083FA1CBDB2
:102620001CB50121082002F0C3FCC020009001204D
:102630008DF8040000208DF8060003208DF80500B9
:1026400001208DF807006946114802F06BFA40211D
:102650000F4802F0E3FA80210D4802F0DFFA1CBDBA
:102660001CB50121102002F0A3FC4FF4A0500090F3
:1026700000208DF8040003208DF8050001208DF85E
:1026800007006946014802F04DFA1CBD00100240E7
:10269000000C024000BF704700BFFE4A128802F0E3
:1026A0004002002AF9D0C2B2FA4B9A80704710B5A6
:1026B00096B004460121880402F0ADFC01210220FD
:1026C00002F076FC0121480502F072FC07220A2183
:1026D000F14802F0B2FA07220B21EF4802F0ADFAFE
:1026E00014A802F067FA4FF48060149002208DF86D
:1026F000540003208DF8550014A9E74802F012FA9F
:102700004FF40060149002208DF8540003208DF8DF
:10271000550014A9E04802F005FAE04803F0D8FBA0
:1027200010A803F089FC10940020ADF84400ADF827
:102730004600ADF84800ADF84C000C20ADF84A005A
:1027400010A9D64803F012FC012240F22441D348DC
:1027500003F04AFD27208DF83C0000208DF83D0055
:1027600001208DF83E008DF83F000FA801F0A7F979
:102770000121CA4803F082FC0C208DF83C000220A5
:102780008DF83D008DF83E0001208DF83F000FA828
:1027900001F095F9C24801F0F5FE4FF0006000909D
:1027A000BE48001D0190BF480290002003904FF4E6
:1027B00000700490002005904FF480600690002087
:1027C000079008904FF4807009904FF440300A90C1
:1027D00000200B900C900D900E906946B04801F0CF
:1027E00073FF01224021AD4803F0F5FC0121AC4804
:1027F00001F0A4FF0E208DF83C0001208DF83D0073
:1028000002208DF83E0001208DF83F000FA801F056
:1028100056F9A348303001F0B5FE4FF0006000904B
:102820009E48001D0190A048029040200390802007
:102830000490002005904FF48060069000200790DF
:10284000089009904FF480300A9000200B900C9073
:102850000D900E9069469248303001F035FF01220C
:1028600080218E4803F0B7FC012210218C483030C3
:1028700001F0F1FF00218A48303001F05FFF16B00F
:1028800010BD02465068081A80B2704770B5002427
:1028900000BF40F22551814803F0E1FC002832D00E
:1028A0007E4803F01AFCC4B28048007830B97F2C0F
:1028B00004D101207D490870002048817B480078C0
:1028C00001281BD17948408976490C5477484089C2
:1028D000401C7649488108464089032801D10846B2
:1028E00004817248408971490989884206DB6F4832
:1028F0004089032802DD00206C49087040F2255110
:10290000664803F0E3FC40F22441644803F0A7FC6E
:1029100018B36448FEF733FC4FF400716048FFF7CA
:10292000B0FF6349088000215D4801F007FF00BF48
:102930005B4801F050FF0028FAD15D4801885848F3
:1029400001F01DFF0121564801F0F8FE53480088B0
:10295000C5B25248001D0088C5B270BD70B50446AE
:102960000D4654480078F0B900214D48303001F050
:10297000E5FE00BF4A48303001F02DFF0028F9D1B4
:10298000002221464648303001F016FFA9B24448E3
:10299000303001F0F4FE01214148303001F0CEFE2C
:1029A00001204449087070BD70B505460E460024EC
:1029B00000BF04E0285D3C490855601CC4B2B44225
:1029C000F8DB31463848FFF7C9FF70BD10B53A490A
:1029D000334801F05DFF18B13749314801F082FFFB
:1029E00010BD0FB438B505A800902F48009A04997F
:1029F00003F0ECFD002000902B4803F0F9FD0446A5
:102A000021462948FFF7AAFF38BC5DF814FB10B532
:102A10002A492348303001F03BFF38B100202549D6
:102A2000087026491E48303001F05CFF10BD10B51B
:102A300096B004460121C80402F0EDFA01210420F9
:102A400002F0B6FA0121480502F0B2FA08220A2182
:102A50001B4802F0F2F808220B21194802F0EDF8A9
:102A600014A802F0A7F84FF48060149002208DF8AB
:102A7000540003208DF8550014A9114802F052F8B3
:102A80004FF40060149002208DF8540003208DF85C
:102A9000550017E0001001400004024000480040CB
:102AA00028600240980200201802002098040020AC
:102AB000540000204C000020008800100080001806
:102AC0000008024014A9FE4802F02CF810A803F0F8
:102AD000B3FA10940020ADF84400ADF84600ADF80C
:102AE0004800ADF84C000C20ADF84A0010A9F5489C
:102AF00003F03CFA0D208DF83C0002208DF83D00DB
:102B00008DF83E0001208DF83F000FA800F0D7FFA0
:102B1000ED4801F037FD4FF000600090E948001DDE
:102B20000190EA4802900020039080200490002049
:102B300005904FF4806006900020079008904FF4B5
:102B40008070099040020A9000200B900C900D902C
:102B50000E906946DC4801F0B7FD01224021D948BA
:102B600003F039FB0121D84801F0E8FD002240F2D2
:102B70002551D44803F038FB002240F22661D148A9
:102B800003F032FB012240F22441CE4803F02CFB3B
:102B900034208DF83C0002208DF83D0003208DF894
:102BA0003E0001208DF83F000FA800F088FF0121B2
:102BB000C44803F063FAC448303001F0E3FC4FF03E
:102BC00000600090BF48001D0190C1480290402065
:102BD000039080200490002005904FF480600690C0
:102BE00000200790089009904FF480300A90002050
:102BF0000B900C900D900E906946B348303001F068
:102C000063FD01228021AF4803F0E5FA0122102183
:102C1000AD48303001F01FFE0021AB48303001F0EC
:102C20008DFD0F208DF83C0002208DF83D008DF8C1
:102C30003E0001208DF83F000FA800F040FF16B0C5
:102C400010BD02465068081A80B2704770B5002463
:102C5000002540F225519B4803F001FB00283DD0A0
:102C6000984803F03AFAC4B29A48007850B9552C03
:102C700008D1012097490870002048810846408902
:102C800092490C5493480078012811D1914840781A
:102C900070B9532C08D101208E49487048810846EC
:102CA00040898A490C5403E000208A490870487022
:102CB0008848007801280CD186484078012808D13E
:102CC0008448408981490C5482484089401C81498C
:102CD000488140F225517B4803F0F8FA40F2244144
:102CE000784803F0BCFAF0B180217748FFF7A9FFDC
:102CF000794908700021744801F020FD00BF724836
:102D000001F069FD0028FAD180216F4801F037FDFC
:102D100001216D4801F012FD6A480088C5B269487A
:102D2000001D0088C5B270BD70B504460D466B48E5
:102D30000078F0B900216448303001F0FFFC00BF9A
:102D40006148303001F047FD0028F9D100222146CA
:102D50005D48303001F030FDA9B25B48303001F001
:102D60000EFD01215848303001F0E8FC01205B499C
:102D7000087070BD70B505460E46002400BF04E023
:102D8000285D53490855601CC4B2B442F8DB314693
:102D90004F48FFF7C9FF70BD10B551494A48303060
:102DA00001F076FD60B100204C4908704D4946485D
:102DB000303001F03CFD4B494348303001F092FD8A
:102DC00010BD10B54849404801F062FD48B14FF0D0
:102DD00081513D4801F02BFD4FF081513A4801F0FF
:102DE00081FD10BD10B596B004460121042002F00B
:102DF000DFF80121082002F0DBF80121080502F0CC
:102E00000AF90121480502F0D3F8082202213748C7
:102E100001F013FF08220C21294801F00EFF0420C5
:102E2000149002208DF8540003208DF855000020E6
:102E30008DF8560001208DF8570014A92B4801F099
:102E400071FE4FF48050149014A91D4801F06AFEE1
:102E500010940020ADF84400ADF84600ADF84800ED
:102E6000ADF84C000C20ADF84A0010A9204803F042
:102E70007DF80B208DF83C0002208DF83D008DF888
:102E80003E0001208DF83F000FA800F018FE0E480C
:102E9000303801F077FB4FF0006000901448001DBF
:102EA000019014480290002003908020049000209C
:102EB00005904FF4806006900020079008901BE07A
:102EC00000080240004C00404060024028050020FD
:102ED000A8040020A8050020580000205900002068
:102EE000208000202000002000802010000C0240E4
:102EF00000500040B40500204FF48070099040025B
:102F00000A9000200B900C900D900E906946F648A8
:102F100001F0DAFB01224021F44803F05CF90121C1
:102F2000F14801F00BFC002240F22551EF4803F07C
:102F30005BF9002240F22661EC4803F055F90122CA
:102F400040F22441E94803F04FF935208DF83C0068
:102F500000208DF83D0001208DF83E008DF83F00E7
:102F60000FA800F0ACFD0121E04803F087F82F2006
:102F70008DF83C0002208DF83D008DF83E000120C8
:102F80008DF83F000FA800F09AFDD748A83001F057
:102F9000F9FA4FF000600090D448001D0190D44829
:102FA00002904020039080200490002005904FF470
:102FB0008060069000200790089009904FF48030C0
:102FC0000A9000200B900C900D900E906946C64818
:102FD000A83001F079FB01228021C44803F0FBF8FE
:102FE00001221021C048A83001F035FC0021BE4864
:102FF000A83001F0A3FB16B010BD02465068081AB5
:1030000080B2704770B50024002540F22551B748C2
:1030100003F025F918B1B54803F05FF8C4B240F2E7
:103020002441B24803F01BF9E8B18021AE48FFF714
:10303000E4FFB04908700021AB4801F07FFB00BFFE
:10304000A94801F0C8FB0028FAD18021A64801F068
:1030500096FB0121A44801F071FBA4480088C5B289
:10306000A2488088C5B270BD10B5A3499E48A8305B
:1030700001F00EFC70B10020A04908704FF0205103
:103080009948A83001F0D3FB4FF020519648A83062
:1030900001F028FC10BD70B504460D469748007835
:1030A000F0B900219048A83001F048FB00BF8E48DD
:1030B000A83001F090FB0028F9D1002221468A486F
:1030C000A83001F079FBA9B28748A83001F057FB7E
:1030D00001218548A83001F031FB012087490870A3
:1030E00070BD70B505460E46002400BF04E0285DA3
:1030F0007F490855601CC4B2B442F8DB31467C48B5
:10310000FFF7C9FF70BD10B596B00446012120201D
:1031100001F092FF0121042001F04AFF01218805FE
:1031200001F046FF08220621754801F086FD0822BD
:103130000721734801F081FD14A801F03BFD4020F8
:10314000149002208DF8540003208DF8550014A926
:103150006B4801F0E7FC8020149002208DF85400A9
:1031600003208DF8550014A9654801F0DBFC654883
:1031700002F0AEFE10A802F05FFF10940020ADF840
:103180004400ADF84600ADF84800ADF84C000C2006
:10319000ADF84A0010A95B4802F0E8FE39208DF82E
:1031A0003C0002208DF83D008DF83E0001208DF896
:1031B0003F000FA800F083FC534801F0E3F94FF003
:1031C000206000904F48001D019050480290002060
:1031D00003904FF480600490002005904FF48060CD
:1031E00006900020079008904FF4807009904002EC
:1031F0000A9000200B900C900D900E90694642486A
:1032000001F062FA012240213E4802F0E4FF012170
:103210003D4801F093FA002240F22551394802F06E
:10322000E3FF002240F22661364802F0DDFF012272
:1032300040F22441334802F0D7FF47208DF83C008C
:1032400001208DF83D008DF83E008DF83F000FA85D
:1032500000F035FC01212B4802F010FF45208DF8CD
:103260003C0002208DF83D008DF83E0001208DF8D5
:103270003F000FA800F023FC2348783001F082F9CA
:103280004FF0206000901F48001D019020480290E0
:103290004020039000010490002005904FF48060CE
:1032A000069000200790089009904FF480300A9013
:1032B00000200B900C900D900E90694612487830CB
:1032C00001F002FA012280210E4802F084FF01225F
:1032D00010210D48783001F0BEFA00210A487830FC
:1032E00001F02CFA16B010BD1060024000500040F2
:1032F000340600205B000020008000285A000020D7
:10330000000802400014014028640240C00A002066
:10331000C0060020012080F3138800BF00BF00BF5B
:1033200000BF00BF00BFBFF34F8F00BF00BF00BF93
:103330006F48006800F4E0606E490843001D6C4966
:10334000086000BF00BF00BFBFF34F8F00BF00BFCA
:1033500000BF00BF00BFFDE702465068081A80B2F8
:10336000704770B50024002540F22441624802F005
:1033700076FF28B34FF480616048FFF7EDFF6049A6
:103380000880084601785F48FEF75FF800215B4837
:1033900001F0D4F900BF594801F01DFA0028FAD114
:1033A0004FF48061554801F0EAF90121534801F0DA
:1033B000C5F951480088C5B24F48001D0088C5B204
:1033C00040F225514C4802F04AFF20B140F225510D
:1033D000494802F07BFF70BD10B54B49474801F0EA
:1033E00057FA38B14949454801F021FA464943485E
:1033F00001F078FA10BD10B545494048783001F029
:1034000047FA60B100204349087041493B48783091
:1034100001F00DFA3E493948783001F063FA10BDE9
:1034200070B504460D463B480078F0B9002133489A
:10343000783001F083F900BF3048783001F0CBF9E3
:103440000028F9D1002221462C48783001F0B4F947
:10345000A9B22A48783001F092F901212748783042
:1034600001F06CF901202B49087070BD70B505465C
:103470000E4600244FF48071274801F0CFFB00BFB7
:1034800004E0285D25490855601CC4B2B442F8DB4D
:1034900031462248FFF7C4FF4FF480711E4801F007
:1034A000BFFB70BD1CB54FF4E130FFF72CFE0121CE
:1034B000042001F07DFD684601F07CFB4FF4807034
:1034C000009001208DF8040000208DF806000220F5
:1034D0008DF8070003208DF8050069460E4801F0BD
:1034E00021FB4FF480710C4801F09AFB1CBD0000D9
:1034F0000CED00E00000FA050014014028640240D1
:103500005E000020C00A00200088001000080010A3
:10351000008020207200002000080240C006002029
:103520007CB505460C46FCA103C9CDE90001200A83
:103530008DF80500E0B28DF804000822694628469F
:10354000FEF742F97CBD7CB505460C46F4A103C9E3
:10355000CDE90001E0B28DF80400200A8DF80500E5
:10356000200C8DF80600200E8DF807000822694611
:103570002846FEF729F97CBD7CB505460C46EAA134
:1035800003C9CDE900018DF80440052269462846AB
:10359000FEF71AF97CBD38B50446E5A00068009036
:1035A000022269462046FEF70FF938BD10B586B0F5
:1035B0000446E0A103C9CDE90401082204A904F5E9
:1035C000C060FEF701F90A20FDF7F6FFDBA103C991
:1035D000CDE90201082202A904F5C060FEF7F4F863
:1035E0000A20FDF7E9FFD7A103C9CDE900010822B0
:1035F000694604F5C060FEF7E7F80A20FDF7DCFF36
:1036000006B010BD1CB50446D0A103C9CDE9000128
:103610000822694604F5C060FEF7D6F81CBD1CB54B
:103620000446CCA103C9CDE900010822694604F58E
:10363000C060FEF7C9F81CBD1FB50446BDA003C895
:10364000CDE90201082202A904F5C060FEF7BCF82A
:103650000A20FDF7B1FFB9A103C9CDE90001082295
:10366000694604F5C060FEF7AFF80A20FDF7A4FF35
:103670001FBD1CB50446B9A103C9CDE9000108224C
:10368000694604F5C060FEF79FF81CBD10B54FF405
:10369000FA70FDF791FF0520FFF7EBFF0A20FDF719
:1036A0008BFF0520FFF7AEFF0A20FDF785FF052001
:1036B000FFF7C2FF0A20FDF77FFF0620FFF7D9FFC3
:1036C0000A20FDF779FF0620FFF79CFF0A20FDF78F
:1036D00073FF0620FFF7B0FF0A20FDF76DFF0720FC
:1036E000FFF7C7FF0A20FDF767FF0720FFF78AFFF4
:1036F0000A20FDF761FF0720FFF79EFF0A20FDF774
:103700005BFF0820FFF7B5FF0A20FDF755FF0820F3
:10371000FFF778FF0A20FDF74FFF0820FFF78CFF27
:103720000A20FDF749FF0120FFF779FF0A20FDF786
:1037300043FF0120FFF766FF0A20FDF73DFF012050
:10374000FFF734FF0A20FDF737FF0220FFF767FF7E
:103750000A20FDF731FF0220FFF754FF0A20FDF792
:103760002BFF0220FFF722FF0A20FDF725FF032091
:10377000FFF755FF0A20FDF71FFF0320FFF742FF69
:103780000A20FDF719FF0320FFF710FF0A20FDF7BD
:1037900013FF0420FFF743FF0A20FDF70DFF04206D
:1037A000FFF730FF0A20FDF707FF0420FFF7FEFEBA
:1037B0000A20FDF701FF10BD2DE9F04104460F4638
:1037C00015461E4621460120FFF7AAFE0A20FDF7F6
:1037D000F3FE39460220FFF7A3FE0A20FDF7ECFEB8
:1037E00029460320FFF79CFE0A20FDF7E5FE31463F
:1037F0000420FFF795FE0A20FDF7DEFEBDE8F0810C
:103800002DE9F04104460F4615461E462146052087
:10381000FFF799FE0A20FDF7CFFE39460620FFF795
:1038200092FE0A20FDF7C8FE29460720FFF78BFE0F
:103830000A20FDF7C1FE31460820FFF784FE0A206A
:10384000FDF7BAFEBDE8F0817CB505460C4645A102
:1038500003C9CDE90001E0B28DF80400200A8DF81B
:103860000500200C8DF80600200E8DF807000822B8
:10387000694605F5C060FDF7A7FF7CBD7CB5054630
:103880000C463AA103C9CDE90001E0B28DF804006D
:10389000200A8DF80500200C8DF80600200E8DF80A
:1038A00007000822694605F5C060FDF78DFF7CBD65
:1038B0001CB504462FA103C9CDE9000108226946C1
:1038C00004F5C060FDF780FF1CBD1CB504462BA1AC
:1038D00003C9CDE900010822694604F5C060FDF77F
:1038E00073FF1CBD7CB505460C4626A103C9CDE976
:1038F0000001E0B28DF80400200A8DF80500200CCC
:103900008DF80600200E8DF807000822694605F59F
:10391000C060FDF759FF7CBDFF06020100000000FA
:10392000FF06160200000000FF0600010000000074
:10393000FF1000002B406001060000002B406001DA
:10394000070000002B4060010F0000002B406001C9
:10395000800000002F606001030000002F60600104
:1039600001000000237A6001000000002381600153
:10397000000000002B4060013F000000404160015A
:103980000000000023FF6001000000000020084943
:1039900008800849088008490880084908800849C3
:1039A00008600849086008490860084908607047CD
:1039B0008400002086000020880000208A0000206B
:1039C0008C0000209000002094000020980000202F
:1039D0007CB506460C461546002000900190200A52
:1039E0008DF80000E0B28DF80100280A8DF8020081
:1039F000E8B28DF80300082269463046FEF708F960
:103A00007CBD7CB506460C46154600200090019012
:103A1000200A8DF80000E0B28DF80100280A8DF828
:103A20000200E8B28DF80300082269463046FEF72E
:103A3000EFF87CBD7CB506460C461546002000908C
:103A40000190200A8DF80000E0B28DF80100280AEC
:103A50008DF80200E8B28DF803000822694630466E
:103A6000FEF7D6F87CBD002006490880064908808C
:103A700006490880064908800649088006490880EA
:103A8000704700009C0000209E000020A000002045
:103A9000A2000020A4000020A600002010B5034CC6
:103AA000082203492046FEF7E2F810BD40019018B5
:103AB000A800002032490143324A1160704770B5B6
:103AC000002100230F22C4781CB32E4C246804F478
:103AD000E064C4F5E064C4F30721C1F10404E3B277
:103AE0000A4144789C40E1B28478144021430C0799
:103AF000210E254C05786155047804F01F0501243A
:103B0000AC4005786D11AD0005F1E025C5F8004128
:103B100009E0047804F01F050124AC401B4D067831
:103B2000761145F8264070BD194A0A400243154BEC
:103B30001B1F1A60704739B1124A121D12680243E6
:103B4000104B1B1D1A6006E00E4A121D12688243BC
:103B50000C4B1B1D1A607047042808D14FF0E02160
:103B6000096941F004014FF0E022116107E04FF0D4
:103B7000E021096921F004014FF0E0221161704752
:103B80000000FA050CED00E000E400E080E100E058
:103B900080FFFF1F10B50446FE48844209D1012171
:103BA000480601F0A0FA00214FF0007001F09BFAE6
:103BB00008E00121880601F096FA00214FF08060AC
:103BC00001F091FA10BD30B50246002000231468C0
:103BD00024F002041460146844F00104146000E04E
:103BE0005B1C546804F001041CB94FF6FF74A34237
:103BF000F6D1546804F001040CB900206CE08C7913
:103C0000012C04D1146844F08004146003E01468AB
:103C100024F080041460CC79012C04D1146844F0A1
:103C20004004146003E0146824F0400414600C7A2B
:103C3000012C04D1146844F02004146003E01468DB
:103C400024F0200414604C7A012C04D1146844F050
:103C50001004146003E0146824F0100414608C7ADB
:103C6000012C04D1146844F00804146003E01468C3
:103C700024F008041460CC7A012C04D1146844F0B8
:103C80000404146003E0146824F0040414608C78C5
:103C9000A407CD7844EA05640D7944EA05444D79DA
:103CA00044EA05540D886D1E2C43D461146824F039
:103CB00001041460002300E05B1C546804F001045C
:103CC0001CB14FF6FF74A342F6D1546804F001040E
:103CD0000CB1002000E0012030BD10B50021837A36
:103CE000012202FA03F1AC4A126842F00102AA4B27
:103CF0001A60A94A1C3212688A43A74B1C331A6007
:103D0000027BCAB9A44A0C3212688A43A24B0C3314
:103D10001A604288C38842EA03439F4A4032847A49
:103D200042F834300288838842EA03439A4A403298
:103D3000847A02EBC4025360027B012A19D1964AAD
:103D40000C3212680A43944B0C331A604288038881
:103D500042EA0343904A4032847A42F83430C288BF
:103D6000838842EA03438C4A4032847A02EBC402DD
:103D70005360C27A3AB9884A121D12688A43864B48
:103D80001B1D1A6006E0844A121D12680A43824B0A
:103D90001B1D1A60028932B97F4A143212688A43A5
:103DA0007D4B14331A600289012A06D17A4A1432F3
:103DB00012680A43784B14331A60427B012A06D1F9
:103DC000754A1C3212680A43734B1C331A60724ADC
:103DD000126822F00102704B1A6010BD002181713F
:103DE000C171017241728172C1728170C17003210F
:103DF0000171022141710121018070476649096802
:103E000041F00101644A11601146096843F60E72DF
:103E10009143614A11601146096841EA002111602D
:103E20001146096821F001011160704721B1026853
:103E300042F48032026003E0026822F480320260C1
:103E40007047E1B1026842F0800202604FF4C27232
:103E5000125842F480734FF4C27213504FF4CA7276
:103E6000125842F480734FF4CA7213504FF4D27256
:103E7000125842F480734FF4D27213501BE0026860
:103E800022F0800202604FF4C272125822F4807352
:103E90004FF4C27213504FF4CA72125822F4807356
:103EA0004FF4CA7213504FF4D272125822F4807336
:103EB0004FF4D2721350704710B502460020936839
:103EC00003F08063B3F1806F00D110E0936803F0DA
:103ED0000063B3F1006F01D1012008E0936803F0A3
:103EE0008053B3F1805F01D1022000E00420042858
:103EF00079D002F5C07303EB00131B6803F00104D3
:103F000002F5C07303EB00131C600B7A7BB94B7A8C
:103F10000C8843EA445302F5C07404EB001424688F
:103F2000234302F5C07404EB0014236010E00B7A05
:103F30004C6843EAC4034C7A234302F5C07404EB93
:103F400000142468234302F5C07404EB00142360BA
:103F50008B7A03F00F038B7202F5C07303EB00132F
:103F60005B6823F00F0402F5C07303EB00135C6081
:103F700002F5C07303EB00135B688C7A234302F5F0
:103F8000C07404EB001463608B7B1C064B7B44EA1B
:103F9000034403E000640040006600400B7B44EAF9
:103FA0000323CC7A234302F5C07404EB0014A3600E
:103FB0008B7C1C064B7C44EA03440B7C44EA0323C1
:103FC000CC7B234302F5C07404EB0014E36002F5DC
:103FD000C07303EB00131B6843F0010402F5C073C8
:103FE00003EB00131C6010BD10B50246002321B185
:103FF000012907D002290FD109E09068F94C00EAA5
:1040000004030BE09068F84C00EA040306E09068B3
:10401000F64C00EA040301E0002300BF00BFF44CAB
:10402000181BA34216D007DC83B16FF080601844E0
:1040300070B1022818D111E0B0F5007F10D0ED4C1E
:10404000204448B1B0F5003F0ED10BE002230DE053
:1040500000230BE0002309E0002307E0012305E033
:10406000012303E0012301E0002300BF00BFD8B219
:1040700010BD21B1012907D002290FD109E08268C2
:1040800042F0800282600AE0826842F4004282606C
:1040900005E0826842F40002826000E000BF00BFD9
:1040A000704710B500F5D87303EB01131B6803F0DC
:1040B00004031372137A53B900F5D87303EB011399
:1040C0001B6840F2FF7404EA5353136009E000F5E3
:1040D000D87303EB01131B686FF0604404EAD30349
:1040E000536000F5D87303EB01131B6803F0020360
:1040F000537200F5D87303EB01135B6803F00F03F1
:10410000937200F5D87303EB01135B681B0AD37439
:1041100000F5D87303EB01139B68D37200F5D873D5
:1041200003EB01139B681C0A147300F5D87303EBAF
:1041300001139B681C0C547300F5D87303EB011337
:104140009B681B0E937300F5D87303EB0113DB68B8
:10415000D37300F5D87303EB0113DB681C0A1474E6
:1041600000F5D87303EB0113DB681C0C547400F5E5
:10417000D87303EB0113DB681B0E937421B9C3687A
:1041800043F02003C36003E0036943F020030361AD
:1041900010BD21B9C26842F02002C26003E002698A
:1041A00042F02002026170470246002019B9D3682C
:1041B00003F0030006E0012903D1136903F00300B3
:1041C00000E00020704710B502460B4600204FF675
:1041D000FF71BBB9146824F0020444F001041460B8
:1041E00000E0491E546804F00304012C01D00029AA
:1041F000F7D1546804F00304012C01D0002032E010
:10420000012030E0012B13D1146824F00304146062
:1042100000E0491E546804F003040CB10029F8D1F1
:10422000546804F003040CB100201CE001201AE0E3
:10423000022B17D1146824F0010444F00204146026
:1042400000E0491E546804F00304022C01D0002948
:10425000F7D1546804F00304022C01D0002002E0DE
:10426000012000E0002010BD014600200A6822F075
:10427000010242F002020A604A6802F00302022AC6
:1042800000D10120704701464FF6FF7200200B68F5
:1042900023F002030B6000E0521E4B6803F00203A0
:1042A000022B01D1002AF7D14B6803F00203022B45
:1042B00000D001207047014600208A6902F070009A
:1042C0007047014600208A69100E704701460020A1
:1042D0008A69C2F3074070471AB143690B434361CF
:1042E00002E043698B434361704710B502460020EA
:1042F00001F4700343B19369C1F3130423400BB17C
:1043000001202DE000202BE001F0807343B15368C1
:10431000C1F3130423400BB1012021E000201FE072
:1043200001F0006343B19368C1F3130423400BB160
:10433000012015E0002013E001F0007343B1D368C1
:10434000C1F3130423400BB1012009E0002007E072
:104350001369C1F3130423400BB1012000E00020D6
:1043600010BD0022244B994202D10023836111E049
:10437000C1F3130201F000730BB1C2600AE001F057
:1043800080630BB1026105E001F000630BB1826054
:1043900000E0426070470246002002EA01030BB1D0
:1043A000012000E00020704770B504460D4600264D
:1043B00060692840002872D0B5F5807F69D01DDC87
:1043C000082D42D006DC012D2DD0022D31D0042D38
:1043D0007FD134E0102D3ED0202D42D0402D78D119
:1043E00045E0000003000004000300080000031083
:1043F000000100080001FFF77000F030B5F5004F34
:1044000061D009DCB5F5007F4AD0B5F5806F4DD09D
:10441000B5F5006F5DD150E0B5F5803F2DD0B5F515
:10442000003F56D12FE0A0685549FFF7B4FF06467C
:1044300051E0E0680321FFF7AEFF06464BE0E0687D
:104440000821FFF7A8FF064645E0E0681021FFF7C6
:10445000A2FF06463FE020690321FFF79CFF0646C6
:1044600039E020690821FFF796FF064633E020690E
:104470001021FFF790FF06462DE060680821FFF746
:104480008AFF064627E060681021FFF784FF064692
:1044900021E0A0690121FFF77EFF06461BE01BE03B
:1044A000A0690221FFF777FF064614E0A069042106
:1044B000FFF771FF06460EE00BE0A0697021FFF7E1
:1044C0006AFF064607E060680421FFF764FF0646BE
:1044D00001E0002600BF00E00026304670BDB1F5C7
:1044E000007F3AD00FDC202928D006DC01291CD01F
:1044F00004291DD0082940D11DE0402921D0B1F563
:10450000807F3AD126E0B1F5004F31D006DCB1F51D
:10451000806F25D0B1F5006F2FD124E0B1F5803F39
:1045200012D0B1F5003F28D111E0154A826025E094
:104530000822C26022E01022C2601FE0082202614D
:104540001CE01022026119E00822426016E01022ED
:10455000426013E00422426010E0042242600DE059
:10456000042242600AE0002282610422426005E0E7
:10457000002282610422426000E000BF00BF704759
:1045800001010100016821F00101016000210160C9
:1045900041608160C160016121214161DB49884244
:1045A00004D13D21D94A103A91608CE0D7491831A5
:1045B000884205D14FF47461D44A103A916082E088
:1045C000D2493031884205D14FF47411CF4A103AA4
:1045D000916078E0CD494831884205D14FF074614F
:1045E000CA4A103A91606EE0C8496031884204D1ED
:1045F000C749C64A103AD16065E0C449783188425B
:1046000004D1C449C14A103AD1605CE0BF4990313D
:10461000884204D1C049BD4A103AD16053E0BB4939
:10462000A831884205D14FF03D51B84A103AD160C7
:1046300049E0BA49884204D13D21B84A083A11609C
:1046400041E0B6491831884205D14FF47461B34A4C
:10465000083A116037E0B1493031884205D14FF452
:104660007411AE4A083A11602DE0AC4948318842D5
:1046700005D14FF07461A94A083A116023E0A749B7
:104680006031884204D1A249A44A121F11601AE085
:10469000A2497831884204D19E49A04A121F116074
:1046A00011E09E499031884204D19B499B4A121FD8
:1046B000116008E09949A831884204D14FF03D517A
:1046C000964A121F1160704710B500220268944B81
:1046D0001A40CC680B6823434C6923438C692343FD
:1046E000CC6923430C6A23434C6A23438C6A2343DB
:1046F0004C6B23438C6B23431A430260426922F0C4
:104700000702D1E90B3423431A4342610B6943602A
:104710004B6883608B68C36010BD002101604160FD
:104720008160C160016141618161C1610162416279
:104730008162C162016341638163704721B1026894
:1047400042F00102026003E0026822F0010202600E
:10475000704721B1026842F40042026003E002683F
:1047600022F400420260704721B1026842F0200248
:10477000026003E0026822F020020260704741609C
:1047800070470146486880B2704722B1036843F41D
:104790000023036003E0036823F400230360016146
:1047A000704721B1026842F48022026003E002688F
:1047B00022F48022026070470AB1016100E0C1600A
:1047C0007047014600200A6802F400220AB1012065
:1047D00000E000207047014600200A6802F0010254
:1047E0000AB1012000E000207047014600204A691C
:1047F00002F03800704730B503460A460020002416
:10480000464DAB4202D24149103901E043491039CB
:1048100002F000550DB14C6800E00C68414D2C4091
:1048200004EA02050DB1012000E0002030BD02467F
:104830003A4B9A4202D23548103801E037481038D6
:1048400001F000531BB1374B0B40C36002E0354B06
:104850000B408360704710B501F080034BB122B16B
:10486000436943F08003436103E0436923F080031D
:10487000436180290BD02AB1036801F01E04234351
:10488000036004E0036801F01E04A343036010BD4D
:1048900070B50246002000240025204EB24202D20C
:1048A0001A4B103B01E01D4B103B1F4E0E4036B122
:1048B0001E2606EAD124166806EA040502E05669B7
:1048C00006F0800501F000560EB15C6800E01C683F
:1048D000144E344004EA010616B10DB1012000E087
:1048E000002070BD02460D4B9A4202D20748103894
:1048F00001E00A48103801F000531BB1094B0B408E
:10490000C36002E0074B0B408360704710600240B9
:104910003D000020400F002000003D2010640240B8
:104920003F801CF07D0F7D0F3C0F3C0F0020444961
:104930000860091D0860091D0860091D08604148DC
:104940003F4914310860704700213D498279002AAF
:104950003AD00A46126803689A430B461A600A1D49
:10496000126803689A430B1D1A60027911440A68A1
:1049700003681A430A60324A0832126803689A438D
:104980002F4B08331A601A1D126803689A432C4B88
:104990000C331A604279102A0ED11A1F126803686C
:1049A0001A43274B08331A601A1D126803681A430A
:1049B000234B0C331A600DE02149427911440A68F7
:1049C00003681A430A6005E0027911440A68036823
:1049D0009A430A6070470021016001710C21417106
:1049E0000021817170471649103109680143144A4A
:1049F00010321160704701460020114A14321268CB
:104A00000A400AB1012000E0002070470C4914312F
:104A100008607047014600200022094B1B6803EA2A
:104A20000102074B14331B680B4013B10AB101207C
:104A300000E0002070470249143108607047000010
:104A4000003C0140FFFF7F0010B504468C488442C3
:104A500008D10121084600F000FB0021012000F0F0
:104A6000FCFA5EE08748844208D10121022000F070
:104A7000F4FA0021022000F0F0FA52E08248844269
:104A800008D10121042000F0E8FA0021042000F000
:104A9000E4FA46E07D48844208D10121082000F074
:104AA000DCFA0021082000F0D8FA3AE07848844285
:104AB00008D10121102000F0D0FA0021102000F0D0
:104AC000CCFA2EE07348844208D10121202000F066
:104AD000C4FA0021202000F0C0FA22E06E4884428F
:104AE00008D10121402000F0B8FA0021402000F058
:104AF000B4FA16E06948844208D10121802000F010
:104B0000ACFA0021802000F0A8FA0AE06448844250
:104B100007D10121801500F0A0FA0021A01500F0B6
:104B20009CFA10BDF0B50A4600210023002400BF06
:104B30003DE0012505FA01F3156805EA03049C42EE
:104B400034D105684F000326BE40B5430560157992
:104B50004E00B5400668354305601579012D02D039
:104B60001579022D16D185684F000326BE40B54346
:104B7000856055794E00B540866835438560456847
:104B800001268E40B5434560456896798E40B6B2A1
:104B900035434560C5684F000326BE40B543C56038
:104BA000D5794E00B540C6683543C560491C10290B
:104BB000BFD3F0BD4FF6FF7101600021017141715B
:104BC0008171C171704708B54FF480320092009A2C
:104BD0000A430092009AC261C161009AC261C2692F
:104BE0000092C269009208BD0246002013690B4082
:104BF0000BB1012000E0002070470146086980B237
:104C000070470246002053690B400BB1012000E0C1
:104C1000002070470146486980B2704701837047A1
:104C2000418370470AB1018300E0418370474161CD
:104C3000704742694A4042617047F0B50023002442
:104C40004D07ED0E02FA05F3CE1000F1200555F8E0
:104C500026504E07F70E0F26BE40B543CF1000F189
:104C6000200646F82750CE1000F1200555F82650B2
:104C700045EA0304CE1000F1200545F82640F0BDBA
:104C8000000002400004024000080240000C024004
:104C9000001002400014024000180240001C0240B4
:104CA00000200240FA48006840F00100F84908601E
:104CB0000020F74908310860F5480068F5490840C8
:104CC000F3490860F448091D0860081F006820F4D3
:104CD0008020091F08600020ED490C3108607047F2
:104CE0000021EB4A921C117011460870704710B5F4
:104CF00001460022002300204A11012A02D1E44C7F
:104D0000236808E0022A03D1E14C7034236802E0F2
:104D1000DF4C7434236801F01F02012494401C40CE
:104D20000CB1012000E0002010BD38B5002000903B
:104D30000024002500BF3120FFF7D9FF0546009869
:104D4000401C00900098B0F5A06F01D0002DF2D06B
:104D50003120FFF7CCFF08B1012400E000242046F9
:104D600038BD01460020CA4A106820F0F80040EA29
:104D7000C10010607047C949086070470021C44AEB
:104D8000703211701170012802D004280AD104E099
:104D90000121BF4A7032117005E00521BC4A703212
:104DA000117000E000BF00BF7047BD490860704748
:104DB00070B5049C41EA82150126C6EB530645EA0C
:104DC0000645054345EA0465B14E361D356070BDA4
:104DD000B24908667047820142EA0172AC4B8433E3
:104DE0001A607047AD4988667047AC49C86470471F
:104DF00002460020A64B0833186820F0EC6042EA17
:104E000001031843A24B0833186070470246002084
:104E10009F4B0833186820F0784042EA010318439A
:104E20009B4B08331860704701460020984A0832AF
:104E3000106820F003000843106070479448083061
:104E4000006800F00C00704701460020904A0832CC
:104E5000106820F0F0000843106070470146002001
:104E60008B4A0832106820F4E05008431060704705
:104E700001460020864A0832106820F4604040EA6B
:104E8000C10010607047F0B5002100220024022507
:104E9000002602237E4F08373F6807F00C0121B13E
:104EA000042905D0082937D105E07E4F076036E098
:104EB0007D4F076033E0764F3F1D3F68C7F3805654
:104EC000734F3F1D3F6807F03F036EB1764FB7FB4E
:104ED000F3F7DFF8BCC10CF1040CDCF800C0CCF334
:104EE000881C07FB0CF40CE06E4FB7FBF3F7DFF800
:104EF000A0C10CF1040CDCF800C0CCF3881C07FB4B
:104F00000CF4634F3F1D3F68C7F301477F1C7D00D2
:104F1000B4FBF5F7076002E0624F076000BF00BF17
:104F20005B4F08373F6807F0F00109095F4F7A5C73
:104F30000768D7404760564F08373F6807F4E0518D
:104F4000890A5A4F7A5C4768D7408760504F0837C4
:104F50003F6807F46041490B544F7A5C4768D7407B
:104F6000C760F0BD002100F44072B2F5407F0AD165
:104F7000474A0832116821F4F8114D4A02401143A2
:104F8000434A08321160424A70321268C0F30B0380
:104F90001A433F4B70331A607047414944390860E7
:104FA00070473F4940390860704742490860704780
:104FB00039B1374A303212680243354B30331A6008
:104FC00006E0334A303212688243314B30331A6084
:104FD000704739B12E4A3432126802432C4B3433B5
:104FE0001A6006E02A4A343212688243284B34336E
:104FF0001A60704739B1264A383212680243244B8E
:1050000038331A6006E0224A383212688243204B55
:1050100038331A60704739B11D4A40321268024372
:105020001B4B40331A6006E0194A40321268824333
:10503000174B40331A60704739B1154A4432126831
:105040000243134B44331A6006E0114A443212689B
:1050500082430F4B44331A60704739B10C4A103207
:10506000126802430A4B10331A6006E0084A1032F5
:1050700012688243064B10331A607047E1B1044A4C
:10508000143212680243024B14331A6019E0000014
:1050900000380240FFFFF6FE1030002400004742B7
:1050A000800E47420024F40040787D01B8000020C3
:1050B000FFFCFF0F5C0147425B4A126882435A4B78
:1050C0001A60704739B1584A121D12680243564B94
:1050D0001B1D1A6006E0544A121D12688243524B8F
:1050E0001B1D1A60704739B14F4A0C3212680243D7
:1050F0004D4B0C331A6006E04B4A0C321268824367
:10510000494B0C331A60704739B1474A1032126864
:105110000243454B10331A6006E0434A10321268CE
:105120008243414B10331A60704739B13E4A3C32DA
:10513000126802433C4B3C331A6006E03A4A3C3268
:1051400012688243384B3C331A60704739B1364A93
:10515000403212680243344B40331A6006E0324A50
:10516000403212688243304B40331A60704739B185
:105170002D4A4432126802432B4B44331A6006E036
:10518000294A443212688243274B44331A607047DD
:1051900039B1254A4C3212680243234B4C331A6012
:1051A00006E0214A4C32126882431F4B4C331A608E
:1051B000704739B11C4A5032126802431A4B5033BF
:1051C0001A6006E0184A503212688243164B503378
:1051D0001A60704739B1144AD21F12780243124B39
:1051E000DB1F1A7006E0104AD21F127882430E4B62
:1051F000DB1F1A7070470C486030006840F0807008
:10520000094960310860704701460020064A083AA3
:1052100012680A400AB1012000E0002070470249EC
:10522000891F0870704700001438024010B504460A
:10523000FE48844208D101210846FFF765FF00219E
:105240000120FFF761FF9DE0B4F1804F08D10121FB
:105250000846FFF748FF00210120FFF744FF91E0D7
:10526000F348844208D101210220FFF73CFF0021CE
:105270000220FFF738FF85E0EE48844208D1012183
:105280000420FFF730FF00210420FFF72CFF79E016
:10529000E948844208D101210820FFF724FF0021BA
:1052A0000820FFF720FF6DE0E448844208D1012187
:1052B0001020FFF718FF00211020FFF714FF61E016
:1052C000DF48844208D101212020FFF70CFF002194
:1052D0002020FFF708FF55E0DA48844208D1012179
:1052E0000220FFF711FF00210220FFF70DFF49E028
:1052F000D548844209D101210804FFF705FF0021A8
:105300004FF48030FFF700FF3CE0D048844209D1E1
:1053100001214804FFF7F8FE00214FF40030FFF7A9
:10532000F3FE2FE0CA48844209D101218804FFF727
:10533000EBFE00214FF48020FFF7E6FE22E0C54897
:10534000844208D101214020FFF7CDFE00214020FA
:10535000FFF7C9FE16E0C048844208D10121802031
:10536000FFF7C1FE00218020FFF7BDFE0AE0BB4829
:10537000844207D101218015FFF7B5FE0021A01559
:10538000FFF7B1FE10BD00220288A84B98420ED054
:10539000AC4B98420BD0B0F1804F08D0A44B984250
:1053A00005D0A44B984202D0A34B984204D14FF6AB
:1053B0008F731A404B881A43A04B984207D0A04BDA
:1053C000984204D04FF6FF431A400B891A430280DB
:1053D0004B68C3620B880385944B984202D0994B6B
:1053E000984201D18B7A03860123838270474FF064
:1053F000FF3141600021018001814180817270474D
:105400000185828270470A46002101884FF68F731A
:10541000194011430180704741627047C162704773
:105420000146486A70470146088D704721B10288DD
:1054300042F00202028004E002884FF6FD731A4037
:105440000280704721B1028842F00402028004E029
:1054500002884FF6FB731A400280704721B1028820
:1054600042F08002028004E002884FF67F731A4007
:105470000280704702884FF6F7731A400280028854
:105480000A430280704702884FF6FF431A400280A9
:1054900002880A430280704721B1028842F001026B
:1054A000028004E002884FF6FE731A4002807047C3
:1054B00070B5002400220023058C4FF6FE7635409F
:1054C0000584028C8388048B4FF68F752C40B51EA3
:1054D0002C400D882C43751E2A408D892A434D8807
:1054E0002A43524DA84202D0564DA84213D14FF63E
:1054F000F7752A40CD892A434FF6FB752A408D88DF
:105500002A434FF6FF652B404FF6FF552B400D8A7F
:105510002B434D8A2B43838004838D68456302842B
:1055200070BD70B5002400220023058C4FF6EF7685
:1055300035400584028C8388048B48F6FF752C4027
:105540004FF6FF452C400D884FF6FF7606EA0525FD
:105550002C434FF6DF752A408D8906EA05152A434C
:105560004D8806EA05152A43304DA84202D0354D34
:10557000A8421DD14FF67F752A40CD894FF6FF76A0
:1055800006EA05152A434FF6BF752A408D8806EABC
:1055900005152A434FF6FF352B404FF2FF752B4080
:1055A0000D8A06EA85052B434D8A06EA85052B43BD
:1055B000838004838D688563028470BD70B5002488
:1055C00000220023058C4FF6FF6635400584028CCF
:1055D0008388848B4FF68F752C404FF6FC752C40DA
:1055E0000D882C434FF6FF552A408D894FF6FF76E4
:1055F00006EA05252A434D8806EA05252A430B4D70
:10560000A84202D00F4DA84238D14FF2FF752A4070
:10561000CD894FF6FF7606EA05252A434FF6FF357A
:105620002A408D8806EA05252A4319E0000001403A
:105630000004004000080040000C00400010004042
:1056400000140040000401400040014000440140BB
:105650000048014000180040001C004000200040AD
:105660004EF6FF752B404DF6FF752B400D8A06EA6E
:1056700005152B434D8A06EA05152B438380848349
:105680008D68C563028470BD70B5002200230024BC
:10569000058C4EF6FF7635400584038C8488828B1A
:1056A00048F6FF752A404FF6FF452A400D884FF611
:1056B000FF7606EA05252A434DF6FF752B408D89B6
:1056C00006EA05352B434D8806EA05352B43FE4D8A
:1056D000A84202D0FD4DA84208D14BF6FF752C40E0
:1056E0000D8A4FF6FF7606EA85152C438480828367
:1056F0008D680564038470BD002101804180818034
:1057000081608181C18101824182704770B5034609
:10571000002000241846183001258D40ACB21D8CA5
:10572000A5431D8409B108290AD100EB6100056871
:105730004FF68F76354005600568154305600FE02C
:105740000D1FC5F34E052844056848F6FF76354021
:10575000056005684FF6FF7606EA022635430560C8
:1057600070BD4163704781637047C16370470164D6
:1057700070470A460021018B4FF68F731940114381
:10578000018370470A460021018B48F6FF731940D8
:105790004FF6FF7303EA02231943018370470A4659
:1057A0000021818B4FF68F7319401143818370471D
:1057B0000A460021818B48F6FF7319404FF6FF73AC
:1057C00003EA02231943818370470A460021018BB3
:1057D0004FF6F77319401143018370470A460021C1
:1057E000018B4FF2FF7319404FF6FF7303EA022358
:1057F0001943018370470A460021818B4FF6F773E6
:1058000019401143818370470A460021818B4FF272
:10581000FF7319404FF6FF7303EA02231943818394
:1058200070470A460021018B4FF6FB731940114364
:10583000018370470A460021018B4FF6FF33194060
:105840004FF6FF7303EA02231943018370470A46A8
:105850000021818B4FF6FB73194011438183704700
:105860000A460021818B4FF6FF3319404FF6FF7334
:1058700003EA02231943818370470A460021018B02
:105880004FF67F7319401143018370470A46002188
:10589000018BC1F30E014FF6FF7303EA0223194394
:1058A000018370470A460021818B4FF67F731940B0
:1058B0001143818370470A460021818BC1F30E0199
:1058C0004FF6FF7303EA02231943818370470A46A8
:1058D0000021018C4FF6FD7319401143018470477C
:1058E0000A460021018C4FF6F773194011430184D9
:1058F00070470A460021018C4FF6DF7319404FF6BE
:10590000FF7303EA02131943018470470A4600211A
:10591000018C4FF67F7319404FF6FF7303EA0213B1
:105920001943018470470A460021018C4FF6FF534A
:1059300019404FF6FF7303EA0223194301847047AD
:105940000A460021018C4FF2FF7319404FF6FF7396
:1059500003EA02231943018470470A460021018C9F
:105960004DF6FF7319404FF6FF7303EA02331943F4
:105970000184704730B5002301248C40A3B2048C0D
:105980009C430484048C02FA01F5ADB22C430484D8
:1059900030BD30B5002304248C40A3B2048C9C435A
:1059A0000484048C02FA01F5ADB22C43048430BDAA
:1059B000828B4FF2FF331A408283828B4FF6FF7344
:1059C00003EA01231A4382837047F0B50C4615465B
:1059D000002100220026078C4EF6FF7C07EA0C0708
:1059E0000784818B028C4FF6FF7707EA043640F676
:1059F000FF4739404FF6FF7707EA052739434FF64F
:105A0000FF7707EA0337394345F6FF773A4046F414
:105A100080573A4381830284F0BD828B4FF6F37343
:105A20001A408283828B0A4382837047F0B50C460A
:105A30001546002100220026078C4FF6FF6C07EA6E
:105A40000C070784818B028C4FF6FF7707EA042648
:105A50004FF60C7739404FF6FF7707EA03172F43CD
:105A600039434FF2FF573A4046F480773A438183F7
:105A70000284F0BD028B4FF2FF331A400283028B87
:105A80004FF6FF7303EA01231A4302837047F0B510
:105A90000C461546002100220026078C4FF6EF7CAD
:105AA00007EA0C070784018B028C4FF6FF7707EAA1
:105AB000041640F6FF4739404FF6FF7707EA0337F1
:105AC00039434FF6FF7703E0000001400004014036
:105AD00007EA052739434FF65F773A4046F010074B
