:020000040800F2
:10000000B0200020A5A00008CD070008CF070008F9
:10001000D9070008DD070008E1070008000000001C
:10002000000000000000000000000000B7A0000871
:10003000E507000800000000BBA00008BDA0000804
:10004000BFA00008BFA00008BFA00008BFA0000814
:10005000BFA00008BFA00008BFA00008BFA0000804
:10006000BFA00008693D0008BFA00008BFA00008AD
:10007000254A0008BD4D0008954A0008934D000828
:10008000BFA00008BFA00008BFA000088536000878
:10009000A1360008C5360008BFA00008BFA00008B0
:1000A000BFA00008BFA00008BFA00008BFA00008B4
:1000B000BFA00008BFA00008BFA00008BFA00008A4
:1000C000BFA00008BFA00008BFA00008BFA0000894
:1000D000BFA000089B320008EF4300083B4800081F
:1000E000BFA00008BFA00008BFA00008BFA0000874
:1000F000BFA00008BFA00008BFA000086B50000808
:10010000BFA00008BFA00008653E0008BFA000080F
:10011000A34C000807500008BFA00008BFA00008BB
:10012000BFA0000807540008BB330008BFA00008A8
:10013000BFA00008BFA00008BFA000080B3A00083D
:10014000273A0008C93B0008BFA00008BFA000086C
:10015000BFA000082B540008D13300088B530008BF
:10016000BFA00008BFA00008BFA00008BFA00008F3
:10017000BFA00008BFA00008BFA00008BFA00008E3
:10018000BFA00008BFA0000800F002F800F092F83D
:100190000AA090E8000C82448344AAF10107DA45E2
:1001A00001D100F087F8AFF2090EBAE80F0013F0A2
:1001B000010F18BFFB1A43F00103184728EC000099
:1001C00048EC0000103A24BF78C878C1FAD852072A
:1001D00024BF30C830C144BF04680C6070470000C1
:1001E0000023002400250026103A28BF78C1FBD840
:1001F000520728BF30C148BF0B6070476E290AF014
:10020000018170290AF0438266290EF0B5826529C2
:100210000EF0B28267290EF0AF8261290EF0AE8235
:1002200003681B0A28BF41F0800169290AF0AE80EB
:1002300064290AF0AB8075290AF0A8806F290AF0BA
:10024000D08178290AF00F82E9290AF06B81E4292C
:100250000AF06881F5290AF06581EF290AF0CD815D
:10026000F8290AF00E820368DB0928BF41F08001FB
:1002700063290AF0158773290AF01A87E3290AF01F
:100280002587F3290AF02A87002070471FB50EF052
:100290002CFA0AF079FF0400002000210DF018FB71
:1002A000401C6060002000210DF0FCFAE0601FBDE2
:1002B00010B510BD0AF03AFF1146FFF7E7FF00F056
:1002C0006FF80BF017F803B4FFF7F2FF03BC04F06C
:1002D000C7F9000010B54FF4A06007F079F9A82025
:1002E00003F098F804F06AF904F080F904F09EF93C
:1002F0004FF4E13002F0D8FE642003F0EDF804F092
:1003000013F8642003F0E8F84FF4E13004F0B5F995
:10031000642003F0E1F84FF4E13004F0C9FB6420FD
:1003200003F0DAF84FF4E13004F05CFD05F0CCF8AE
:100330004FF47A7003F0D0F8012003F0FBF8C820E6
:1003400003F0CAF840F2015003F02AFA642003F0E7
:10035000C3F8532140F2CF7003F04CFDD0A004F05D
:10036000D3FE10BD10B5D3480078401CD1490870A9
:1003700008460078142812DDCF4800880D280ED1D9
:10038000CE48007858B1CE484388CE484288CE48FF
:100390000178CEA004F0B8FE0020C649087010BD58
:1003A0002DED048B86B0FFF795FF05F07FF9002057
:1003B00000F0CAFB642003F08FF870E1CA480078AF
:1003C0000028FAD000F017FDBF48007830B10128AE
:1003D0000FD002287ED003280AD121E105F0E6FAE9
:1003E00005F051FB642003F077F8C0A004F08CFE08
:1003F0004BE1B14800880D280DD1C048008802B2F9
:10040000BF48008801B2BF48008800B202F01EFA5F
:1004100005F039FB19E0A848008801280DD1BA4839
:10042000008802B2B648008801B2B648008800B21F
:1004300002F096FD05F0BAFA07E09F4800880F2801
:1004400003D10121084600F080FFB04800886428ED
:100450000DDDAF480078042802D10620AC490870B1
:100460000620AB4908700120AA4908703FE0AA485D
:100470000078401CA849087008460078142836DD2A
:10048000A64890ED041BB0EE410AF0EE610A9FED24
:10049000A41B53EC112B51EC100B0DF017FD41EC8C
:1004A000180B9E4890ED021BB0EE410AF0EE610A77
:1004B0009FED9B1B53EC112B51EC100B0DF006FD27
:1004C00041EC190B954890F825000490934890ED65
:1004D000060B00E00CE08DED020B8DED008B53EC74
:1004E000192B91A004F010FE00208B490870CCE07D
:1004F0009948007860B19848407848B984480078B5
:1005000030B90120824908709348007892494870B8
:100510007F4800780A2818D2DFE800F00518802408
:100520003443596A747C7C480078401C7A490870CE
:1005300008460078142808DD0020087000F0D2FC7E
:1005400002F0A0F885A004F0DFFD67E00121084675
:1005500000F0FBFE0121084600F06EFB012000F0D8
:10056000F3FA5BE00021022000F0EFFE87480078FC
:1005700038B186480078072803D00221002000F017
:100580005BFB4BE064480078401C634908700846F8
:100590000078142804DD002008707DA004F0B4FD6C
:1005A0003CE00021012000F0D0FE8548007830B109
:1005B00083480078072802D0002000F0C5FA804860
:1005C0000078072802D106205149087026E001F082
:1005D000AEFF0221012000F02FFB6C4800780728B5
:1005E00005D101207749087007204949087015E0B6
:1005F00002F04CF873480078072802D108204449DB
:1006000008700BE00121022000F09FFE022000F0A4
:100610009BFA03E000203E49087000BF00BF34E0B1
:10062000694B93ED030ABDEEC00A10EE103A1AB200
:10063000654B93ED020ABDEEC00A10EE103A19B2F6
:10064000614B93ED010ABDEEC00A10EE103A18B2EC
:1006500002F0FCF85C4B93ED060ABDEEC00A10EE0A
:10066000103A1AB2584B93ED050ABDEEC00A10EECF
:10067000103A19B2544B93ED040ABDEEC00A10EEC5
:10068000103A18B202F06CFC00BF00BF03F0A0FEED
:1006900000F0CDF900F0A8F80020134908708DE6AD
:1006A00073797320696E69742066696E6973682155
:1006B0000D0A000000000020600000205A00002009
:1006C000A4000020A00000200F0000206D6F6465D2
:1006D0003A256420686D63663A256420686D63621C
:1006E0003A25640D0A0000004C0000207374616E0E
:1006F0006462792E2E2E0D0A0000000058000020A2
:100700005400002052000020560000205E0000200F
:10071000100000202300002001000020F00F002026
:1007200000000000000059406167765F6C6F6E3A10
:10073000256C662C6167765F6C61743A256C662C5B
:100740006167765F616E673A256C66206D6F6465E0
:100750003A25640D0A000000020000207461736BEA
:10076000206F6B2C706C616E6520696E20686F6DF8
:10077000652C616776206973206368617267696EB2
:1007800067206E6F772E2E2E0D0A00000D000020C0
:100790007461736B206F6B2C706C616E65206F756C
:1007A0007420686F6D652C616776206973206368BB
:1007B000617267696E67206E6F772E2E2E0D0A00AC
:1007C0000C00002024000020EC000020704702E014
:1007D000642002F081FEFBE700BFFEE700BFFEE7FA
:1007E00000BFFEE77047000010B5A2B000248021D2
:1007F00002A809F032FD00200190CC480078401C8E
:10080000CA490870084600780A287DDD0020087073
:10081000F1222046611CCCB202A90A5401222046D2
:10082000611CCCB202A90A54601CC4B2C04890ED4D
:10083000000A8DED010A9DF804202046611CCCB20F
:1008400002A90A549DF805202046611CCCB202A9D9
:100850000A549DF806202046611CCCB202A90A5415
:100860009DF807202046611CCCB202A90A54B0486A
:1008700090ED010A8DED010A9DF804202046611CCF
:10088000CCB202A90A549DF805202046611CCCB2C6
:1008900002A90A549DF806202046611CCCB202A988
:1008A0000A549DF807202046611CCCB202A90A54C4
:1008B0009F4890ED020A8DED010A9DF80420204624
:1008C000611CCCB202A90A549DF805202046611C87
:1008D000CCB202A90A549DF806202046611CCCB275
:1008E00002A90A549DF807202046611CCCB202A937
:1008F0000A5408222046611CCCB202A90A541922CB
:100900002046611CCCB200E00FE002A90A548DF829
:100910000A40A01EC1B202A803F02EFEA11E02AA28
:100920005054214602A802F020FD22B010BD10B59F
:100930008178022900DA10BD8B1EC25C0378F12B8E
:1009400001D1012300E000234478022C01D10124CD
:1009500000E00024234033B1C378764C2370037940
:10096000E3704379237100BFE5E710B58178022970
:1009700000DA10BD8B1EC25C0378712B01D10123FC
:1009800000E000234478082C01D1012400E0002479
:100990002340E3B3C378684C63700379A370437951
:1009A000E370C379847943EA042300EE103AB8EE89
:1009B000C00A614B83ED010A437A047A43EA0423B7
:1009C00000EE103AB8EEC00A5B4B83ED020AC37A20
:1009D000847A43EA042300EE103AB8EEC00A564B7C
:1009E00083ED030A437B047B43EA042300EE103AC1
:1009F000B8EEC00A504B83ED040AC37B847B43EA04
:100A0000042300EE103AB8EEC00A4B4B00E00CE0B5
:100A100083ED050A437C047C43EA042300EE103A8C
:100A2000B8EEC00A444B83ED060A00BFA1E710B53B
:100A300090B000244021684609F00FFC3F48007840
:100A4000401C3E490870084600780A286BDD0020EB
:100A5000087071222046611CCCB20DF800200722DC
:100A60002046611CCCB20DF80020601CC4B2344892
:100A700002782046611CCCB20DF8002000222046EE
:100A8000611CCCB20DF800202046611CCCB20DF8E0
:100A900000202C4802782046611CCCB20DF80020C2
:100AA000284842782046611CCCB20DF80020254829
:100AB00082782046611CCCB20DF800202148C27813
:100AC0002046611CCCB20DF800201E480279204659
:100AD000611CCCB20DF800201A4842792046611CF6
:100AE000CCB20DF8002000222046611CCCB20DF8DB
:100AF000002008222046611CCCB20DF800201922EB
:100B00002046611CCCB20DF800208DF80240A01EDA
:100B1000C1B2684603F030FDA11E0DF80100214668
:100B2000684604F024F910B010BD00000700002052
:100B3000F80E002002000020EC0000200800002039
:100B40000F0000204200002010B50446002C47D0C2
:100B5000FE480078012806D0022814D0032822D0AD
:100B600004283CD132E004F0B9FFF948807802282B
:100B700008D1F748C078022804D104F0B6FF02205B
:100B8000F24908702BE004F0BDFFF148007901281C
:100B900008D1EF484079012804D104F0BAFF0320BE
:100BA000EA4908701BE004F07CFFE948007801285E
:100BB0000BD1E7484078012807D104F081FF0420D9
:100BC000E2490870E3A004F09FFA08E00720DF493B
:100BD0000870012C02D10320E549087000BF2AE00B
:100BE00000BF04F07BFF04F08DFF04F05AFFD848EB
:100BF00080780228F5D1D648C0780228F1D1D448AF
:100C000000790128EDD1D24840790128E9D1D048B6
:100C100000780128E5D1CE4840780128E1D104F0E0
:100C200064FF04F076FF04F04BFF0720C74908700B
:100C3000D0A004F069FA10BD70B504460D46012C31
:100C40006FD1D3480078012816D1D14840780128C7
:100C500012D1CF48807878B9CD48C07860B90120EA
:100C6000CC4908700020CC4908700120C849887020
:100C7000C870CAA004F048FA022D3CD1C5480078DB
:100C8000012804D0022812D0032833D12EE004F02A
:100C900032FFAF480079022808D1AD4840790228D8
:100CA00004D104F036FF0220BA49087022E004F0B3
:100CB0000DFF04F0FDFEA6480078022815D1A448D7
:100CC0004078022811D1A248807801280DD1A0488F
:100CD000C078012809D104F008FF04F0F1FE0320D8
:100CE000AC490870B3A004F00FFA03E00720A9494B
:100CF000087000BF7EE0012D7CD1A6480078012855
:100D000006D0022820D003282ED004284FD147E057
:100D1000AE48008830B90120AC49088004F0C8FE14
:100D200011E045E0AA480088401CA949088008460F
:100D30000088B0F5AA7F06DD0020088004F0C0FE20
:100D400002209449087032E004F0D5FE8048007912
:100D5000022808D17E484079022804D104F0D9FE47
:100D600003208C49087022E004F0B0FE04F0A0FEDD
:100D700077488078012812D17548C07801280ED1B3
:100D80007348007802280AD171484078022806D1B9
:100D900004F096FE04F0A9FE04207E49087006E0E7
:100DA00084A004F0B1F907207A49087000BF21E05F
:100DB00004BB00BF04F09FFE04F07AFE6448007993
:100DC0000228F7D1624840790228F3D160480078C0
:100DD0000228EFD15E4840780228EBD104F099FE5A
:100DE00004F083FE04F06CFE00206A49087079A0CC
:100DF00004F08AF970BD7E480078012802D17D494F
:100E0000087022E07C480078012803D1022079494B
:100E100008701AE078480078022803D1002075494C
:100E2000087012E074480078032805D10020714949
:100E300008704F49087008E06D48007828B96E487E
:100E4000007810B900206B49087070472DE9FC410B
:100E500000200090019000245025FF26FF27B04677
:100E600066480078401C65490870084600781428D8
:100E70001ADD002008700A208DF80000FE208DF891
:100E8000010001208DF802008DF803508DF8044018
:100E90008DF805808DF806708DF807600822694688
:100EA00040F2013002F0B7FEBDE8FC8110B54FF40E
:100EB0008061534807F026FC18B9012034490870B6
:100EC00002E00020324908704FF480514C4807F08E
:100ED00019FC18B901202E49487002E000202C4965
:100EE000487010BDFD2047490870474908704749C0
:100EF000087047490870704710B504464548C078E7
:100F0000012821D0434890F9020010F1020F05DCBE
:100F1000414890F9020010F1020F16DD3D4890F9AA
:100F2000020001280BDC3B4890F90200B0F1FF3FC2
:100F300005DB394890F90200B0F1FF3F7BDB364812
:100F400090F90200012869E039E174E00C0000200A
:100F50004200002072656C6561736520706C616E83
:100F600065206973206F6B2E2E2E0D0A0000000085
:100F7000100000207069636B706C616E652069738E
:100F8000206F70656E206F6B2E2E2E0D0A000000F4
:100F9000120000200D0000200E00002066696E6423
:100FA00020706C616E65206973206F6B2E2E2E0D84
:100FB0000A0000007069636B20706C616E652069C7
:100FC00073206F6B2E2E2E0D0A00000032000020C1
:100FD000300000207069636B206D616368696E6525
:100FE00020697320636C6F73652E2E2E0D0A00002E
:100FF0005A0000200F0000200200002034000020D2
:1010000000100240160000201700002018000020E9
:1010100019000020B0000020A80000201EDCF748C6
:1010200090F90200B0F1FF3F18DBF54890F902009B
:10103000B0F1FF3F12DA5020F24908809FEDF20A2A
:10104000F24880ED000A0120F1490870EC4842782E
:10105000EA484178EFA004F057F8D2E0E84890F968
:101060000200022804DBE54890F9020002281FDA9A
:10107000E34890F9020001280ADCE14890F90200F7
:10108000B0F1FF3F04DBDD4890F9020001280FDCDE
:10109000DA4890F9020001281DDCD84890F90200D6
:1010A000B0F1FF3F17DBD64890F90200012812DDAE
:1010B0005020D44908809FEDD40AD44880ED000A1E
:1010C000FF20D3490870CE484278CC484178DBA055
:1010D00004F01AF895E0CA4890F90200022818DBDB
:1010E000C64890F9020010F1020F12DA5020C549EB
:1010F00008809FEDDB0AC54880ED000A0020C44946
:101100000870BF484278BD484178D6A003F0FCFF84
:1011100077E0BB4890F9020010F1020F17DCB748E6
:1011200090F90200022812DD5020B64908809FED98
:10113000D60AB64880ED000A0020B5490870B048CC
:101140004278AE484178D1A003F0DEFF59E0D8489C
:10115000408888B9D748408870B90020A9490880DC
:101160009FEDD50AA94880ED000A0020A849087023
:10117000D2A003F0C9FF44E0012C0AD1B420A14958
:1011800008809F4842789D484178D1A003F0BCFF79
:101190000CE0022C0AD16FF0B3009A4908809848FD
:1011A000427896484178D3A003F0AEFF9FEDC20A83
:1011B000964880ED000A00209549087021E0012C36
:1011C0000AD1B4208F4908808D4842788B484178F5
:1011D000BFA003F099FF0CE0022C0AD16FF0B3001E
:1011E000884908808648427884484178C1A003F045
:1011F0008BFF9FEDB10A854880ED000A00208449ED
:10120000087010BD884201DD084603E04A42904262
:1012100000DA4842704710B503460C46F4B304FBAD
:1012200003F000B2BC49088004FB03F000B2BB49E4
:10123000088004FB03F000B2B949088004FB03F006
:1012400000B2B8490880DFEDB80A60EE200AFDEE72
:10125000E00A10EE900A4FF44831FFF7D3FF404206
:10126000B2490860DFEDB00A60EE200AFDEEE00A48
:1012700010EE900A4FF44831FFF7C4FFAC49086004
:10128000DFEDA90A60EE200AFDEEE00A10EE900AFA
:101290004FF44831FFF7B6FF404200E010E0A549A7
:1012A0000860DFEDA10A60EE200AFDEEE00A10EE14
:1012B000900A4FF44831FFF7A5FF9F49086043E0CB
:1012C000584200B294490880584200B293490880BD
:1012D0009348038093480380DFED930A60EE200A71
:1012E000FDEEE00A10EE900A4FF44831FFF78AFF56
:1012F0008E490860DFED8C0A60EE200AFDEEE00A00
:1013000010EE900A4FF44831FFF77CFF88490860DF
:10131000DFED850A60EE200AFDEEE00A10EE900A8D
:101320004FF44831FFF76EFF82490860DFED7E0A17
:1013300060EE200AFDEEE00A10EE900A4FF448310C
:10134000FFF760FF7C49086010BD70B504460D468C
:101350007A480088401C794908800846008814288B
:1013600049DD0020088052494888244904F0F2FBF6
:1013700050494888224904F0EDFB714800787149D2
:1013800008701F48C0786E4908706F48007878B1BF
:101390006D48007807280BD000201A4908809FED7F
:1013A000460A1A4880ED000A00201949087055E2E3
:1013B0006648007878B16548007807280BD000208F
:1013C000104908809FED3C0A104880ED000A00207B
:1013D0000F490870EBE75E48007801280CD1002027
:1013E000084908809FED340A084880ED000A002073
:1013F00007490870DBE7FCE3ACE00000A800002030
:10140000B00000201A000020000034421C00002020
:10141000200000207475726E2072696768742068FD
:101420006D63665F6D69643A256420686D63625F11
:101430006D69643A25640D0A000000007475726ECF
:10144000206C65667420686D63665F6D69643A251B
:101450006420686D63625F6D69643A25640D0A00FB
:101460000000B44272756E20726967687420686DFE
:1014700063665F6D69643A256420686D63625F6DC1
:1014800069643A25640D0A000000B4C272756E20CA
:101490006C65667420686D63665F6D69643A256487
:1014A00020686D63625F6D69643A25640D0A00000F
:1014B000A0000020A4000020000000006D697373EC
:1014C000206C696E652C73746F700D0A000000004B
:1014D000676F206F757420686D63665F6D69643A2D
:1014E000256420686D63625F6D69643A25640D0A46
:1014F00000000000676F206261636B20686D6366A7
:101500005F6D69643A256420686D63625F6D69642C
:101510003A25640D0A0000007C0000207E000020B7
:101520008000002082000020CD380E45840000207D
:10153000880000208C000020900000203600002051
:1015400021000020220000200C0000200D000020BF
:101550000E000020012D7BD1022C7AD1FC4890F99D
:101560000000C01CD0B9FB480078012816D1FA4809
:101570000078012812D0FE20F54908706FF0B30002
:10158000F64908801FED340AF54880ED000A002076
:10159000F4490870F4A003F0B7FD08E7EC4890F9AF
:1015A0000000801CD0B9EB480078012816D0EA482A
:1015B0000078012812D1FF20E54908706FF0B300D0
:1015C000E64908801FED440AE54880ED000A002046
:1015D000E4490870ECA003F097FDE8E6DC4890F9D8
:1015E0000000401CD0B9DB480078012816D1DA4849
:1015F0000078012812D00020D54908706FF0B300A0
:10160000D64908801FED540AD54880ED000A002015
:10161000D4490870E4A003F077FDC8E6CC48007810
:10162000E0B9CC480078012818D0CB4800780128D0
:1016300014D1C74908706FF06300C84908801FEDD6
:10164000620AC74880ED000A0020C649087001E020
:1016500092E287E0E0A003F057FDA8E6BC480078DE
:1016600001281CD1BB480078012818D1BA4800785D
:10167000012814D00220B64908700120E249087000
:101680000020B64908801FED740AB54880ED000AB5
:101690000020B4490870DDA003F036FD87E6AC48B1
:1016A000007802281AD1AB480078012816D0AA4841
:1016B0000078012812D10320A54908706FF0B3000B
:1016C000A64908801FED840AA54880ED000A002085
:1016D000A4490870D9A003F017FD68E69C4800787B
:1016E00003281AD19B480078012816D19A4800781F
:1016F000012812D00420964908706FF0B300974972
:1017000008801FED930A964880ED000A0020954955
:101710000870D3A003F0F8FC49E68D48007804284F
:101720001CD18C480078012818D08B4800780128FB
:1017300014D10520864908700020884908801FEDD3
:10174000A20A874880ED000A002086490870092017
:10175000C9490870C9A003F0D7FC28E60220FFF7AA
:10176000CBFB24E6012C99D1CE4890F90000C01C97
:10177000C8B978480078012815D177480078012841
:1017800011D0FE20C7490870B420744908801FEDAD
:10179000B60A734880ED000A002072490870C2A0A2
:1017A00003F0B2FC03E6BF4890F90000801CC8B902
:1017B00068480078012815D067480078012811D1C1
:1017C000FF20B8490870B420644908801FEDC60A9C
:1017D000634880ED000A002062490870B8A003F059
:1017E00093FCE4E5AF4890F90000401CC8B95948A3
:1017F0000078012815D158480078012811D0002020
:10180000A84908706420554908801FEDD50A54483E
:1018100080ED000A002053490870AFA003F074FC6B
:10182000C5E5A0480078D0B94A480078012816D00C
:1018300049480078012812D19A490870AC490870CB
:101840000020464908801FEDE40A454880ED000A63
:10185000002044490870A7A003F056FC14E2914808
:101860000078012819D13B480078012815D13A4861
:101870000078012811D002208A490870B420374925
:1018800008801FEDF30A364880ED000A0020354934
:101890000870A4A003F038FCF6E182480078022822
:1018A00019D12C480078012815D02B480078012840
:1018B00011D103207B490870B420284908809FED8E
:1018C0009F0A274880ED000A0020264908709CA046
:1018D00003F01AFCD8E173480078032819D11D4899
:1018E0000078012815D11C480078012811D0042067
:1018F0006C490870B420194908809FED900A184877
:1019000080ED000A00201749087055A003F0FCFB89
:10191000F3E364480078042819D10E4800780128C0
:1019200015D00D480078012811D105205D490870B7
:1019300000200A4908809FED810A094880ED000ACD
:1019400000200849087001202F4908700CE10FE1C0
:101950001600002021000020220000201A00002094
:101960001C0000202000002072656C6561736520FA
:10197000706C616E65206C696E652066696E642EA0
:101980002E2E0D0A0000000072656C6561736520E3
:10199000706C616E65206C696E65206D6973732E65
:1019A0002E2E0D0A000000006669727374206C69A7
:1019B0006E652066696E642C616776206E6F742098
:1019C00073746F70207374696C6C20676F20626130
:1019D000636B2E2E2E0D0A006669727374206C697B
:1019E0006E65206D6973732C616776206E6F74204D
:1019F00073746F70207374696C6C20676F20626100
:101A0000636B2E2E2E0D0A000C0000207365636F91
:101A10006E64206C696E652066696E642C61677601
:101A20002073746F7020616E642072656C656173E1
:101A30006520706C616E650D0A0000007365636F50
:101A40006E64206C696E65206D6973732C616776B6
:101A500020676F206261636B20686F6D650D0A00FF
:101A60007468697264206C696E652066696E642EA4
:101A70002E2E0D0A0000000010000020746869720C
:101A800064206C696E65206D6973732C61677620C4
:101A900073746F70206368616E67652E2E2E0D0A59
:101AA0000000000017000020636861726765206C09
:101AB000696E652066696E642E2E2E0D0A00000088
:101AC000636861726765206C696E65206D69737308
:101AD0002E2E2E0D0A0000006669727374206C6948
:101AE0006E652066696E642E2E2E0D0A00000000C1
:101AF0000D0000206669727374206C696E65206D3C
:101B00006973732C6167762073746F7020616E64E3
:101B1000207069636B20706C616E652E2E2E0D0A2D
:101B2000000000007365636F6E64206C696E652051
:101B300066696E642E2E2E0D0A0000000000000063
:101B40007365636F6E64206C696E65206D69737375
:101B50002C616776207374696C6C20676F206F75D9
:101B6000742E2E2E0D0A0000F8A003F0CDFAC4E268
:101B70000120FFF7C1F9C0E2002DF8D1022C7DD180
:101B8000FE4890F90000C01CD8B9FD480078012833
:101B900017D1FC480078012813D0FE20F7490870BF
:101BA0006FF0B300F84908801FED1C0AF74880ED7C
:101BB000000A0020F6490870AFF2542003F0A4FA9E
:101BC0009BE2EE4890F90000801CE8B9EC480078F0
:101BD000012819D0EB480078012815D1FF20E749EA
:101BE00008706FF0B300E84908801FED2C0AE74841
:101BF00000E08DE280ED000A0020E5490870AFF2B8
:101C0000782003F081FA78E2DC4890F90000401C6B
:101C1000E0B9DB480078012818D1DA4800780128BB
:101C200014D00020D54908700120DA49087000203E
:101C3000D54908801FED3F0AD44880ED000A0020F6
:101C4000D3490870D4A003F05FFA56E2CB4800787D
:101C5000D8B9CB480078012817D0CA4800780128A5
:101C600013D1C64908706FF0B300C74908801FED53
:101C70004D0AC64880ED000A002000E089E0C44912
:101C80000870D1A003F040FA37E2BC480078012880
:101C90001BD1BB480078012817D1BA480078012829
:101CA00013D00220B54908706FF0B300B649088020
:101CB0001FED5E0AB54880ED000A0020B4490870A7
:101CC000AFF2A01003F020FA17E2AC480078022827
:101CD0001AD1AB480078012816D0AA48007801280C
:101CE00012D10320A54908706FF0B300A6490880FF
:101CF0001FED6E0AA54880ED000A0020A449087077
:101D0000B7A003F001FAF8E19C48007803281BD142
:101D10009B480078012817D19A480078012813D0F1
:101D20000420964908706FF0B300974908801FEDB2
:101D30007D0A964880ED000A002095490870AFF2B0
:101D4000E02003F0E1F9D8E18C48007804281CD1A8
:101D50008B480078012818D08A480078012814D1CF
:101D60000520864908700020874908801FED8D0AEC
:101D7000864880ED000A0020854908700420A249A9
:101D80000870A2A003F0C0F9B7E10220FFF7B4F891
:101D9000B3E1012C98D1AC4890F90000C01CD0B937
:101DA00077480078012816D176480078012812D0AB
:101DB000FE20A5490870B420734908801FEDA10AD0
:101DC000724880ED000A002071490870AFF2283097
:101DD00003F09AF991E19C4890F90000801CD0B979
:101DE00067480078012816D066480078012812D18B
:101DF000FF2095490870B420634908801FEDB10A9F
:101E0000624880ED000A002061490870AFF250304E
:101E100003F07AF971E18C4890F90000401CD0B9C8
:101E200057480078012816D156480078012812D06A
:101E3000002085490870B420534908801FEDC10A6D
:101E4000524880ED000A002051490870AFF2783006
:101E500003F05AF951E17C480078C0B9484800784D
:101E6000012814D047480078012810D1764908701D
:101E700076A003F049F9B420434908801FEDD10A48
:101E8000424880ED000A00204149087035E16E4863
:101E9000007801281AD13A480078012816D139482B
:101EA0000078012812D0022067490870AFF28C3008
:101EB00003F02AF9B420344908801FEDE00A3348C2
:101EC00080ED000A00203249087016E15E48007873
:101ED00002281CD12A480078012818D02948007807
:101EE000012814D103205849087001206249087064
:101EF00062A003F009F90020234908801FEDF10AD0
:101F0000224880ED000A002021490870F5E04E4883
:101F10000078032818D11A480078012814D11948EC
:101F20000078012810D0042047490870AFF2D04053
:101F300003F0EAF8B420144908809FED5B0A1348C7
:101F400080ED000A0020B1E0B3E00000746869721F
:101F500064206C696E65206D6973732C61677620EF
:101F600073746F7020616E642072656C6561736557
:101F700020706C616E652E2E2E0D0A001800002058
:101F800021000020220000201A0000201C00002058
:101F9000200000200D0000206669727374206C69B7
:101FA0006E652066696E642C6167762073746F704D
:101FB00020616E6420636C6F7365207069636B2EA3
:101FC0002E2E0D0A000000006669727374206C6981
:101FD0006E65206D6973732E2E2E0D0A00000000B1
:101FE0007365636F6E64206C696E65206D697373D1
:101FF0002C616776207374696C6C20676F20626156
:10200000636B2E2E2E0D0A0010000020746869727A
:1020100064206C696E65206D6973732C616776202E
:1020200073746F7020616E64206368617267652CE1
:10203000706C616E65206973206F75747369646577
:102040002E2E2E0D0A000000190000206669727302
:1020500074206C696E65206D6973732C61677620DE
:102060006973207374696C6C20676F206F75742EB0
:102070002E2E0D0A000000000C0000207365636F17
:102080006E64206C696E65206D6973732C72656176
:10209000647920746F206F70656E207069636B2E99
:1020A0002E2E0D0A0000000000000000FA49087002
:1020B00023E0FA48007804281CD1F9480078012868
:1020C00018D0F8480078012814D10520F349087089
:1020D0000120F5490870F5A003F016F80020FE492C
:1020E00008801FED0F0AFD4880ED000A0020EA4934
:1020F000087002E00120FEF7FFFEE74890F90010AB
:10210000F64890ED000AF448B0F90000FFF783F8B4
:1021100070BD70B52DED048B86B0B0EE408AF0EE48
:10212000608A044600250026012C79D1B0EE080A09
:1021300038EEC00AB5EEC00AF1EE10FA04DDB0EEDA
:10214000080A38EEC00A05E0B0EE080A38EEC00A08
:10215000B1EE400ADFEDE20AB4EEE00AF1EE10FA69
:102160005CDDB0EE080A38EEC00ADFEDDD0AB4EE41
:10217000E00AF1EE10FA01DD01260CE0B0EE080AEB
:1021800038EEC00ADFEDD70AB4EEE00AF1EE10FA3D
:1021900001D24FF0FF36B0EE000A28EE800AF2EED0
:1021A000040A20EE200AB5EEC00AF1EE10FA08DDAE
:1021B000B0EE000A28EE800AF2EE040A20EE200AB1
:1021C00007E0B0EE000A28EE800AF2EE040A20EEE4
:1021D000600ABDEEC00A10EE101A08B231469FED3B
:1021E000C20AFFF718F818EE900A0CF00DFA41EC4D
:1021F000190BBE4890ED020B8DED040B90ED000B1A
:102200008DED020B90ED040B8DED000B53EC192BB3
:10221000B74802F079FF002584E101E0012581E162
:10222000022C73D1B1EE040A38EE400AB5EEC00AB2
:10223000F1EE10FA04DDB1EE040A38EE400A05E0D2
:10224000B1EE040A38EE400AB1EE400ADFEDA40A0E
:10225000B4EEE00AF1EE10FA7EDDB1EE040A38EEDB
:10226000400ADFED9F0AB4EEE00AF1EE10FA34DD29
:10227000B0EE000A28EE000AB5EEC00AF1EE10FA40
:1022800004DDB0EE000A28EE000A03E0B0EE000A1A
:1022900028EE400ABDEEC00A10EE101A08B2002166
:1022A0009FED940AFEF7B7FF18EE100A0CF0ACF998
:1022B00041EC190B8D4890ED020B8DED040B90ED68
:1022C000000B8DED020B90ED040B8DED000B53EC2C
:1022D000192B894802F018FF41E0B1EE040A38EEEC
:1022E000400ADFED800AB4EEE00AF1EE10FA36D2D1
:1022F000B0EE000A28EE000AB5EEC00AF1EE10FAC0
:1023000005DDB0EE000A28EE000A04E02BE0B0EE96
:10231000000A28EE400ABDEEC00A10EE101A08B2FC
:1023200000219FED760AFEF776FF18EE100A0CF0FA
:102330006BF941EC190B6D4890ED020B8DED040B20
:1023400090ED000B8DED020B90ED040B8DED000B6D
:1023500053EC192B684800E003E002F0D5FE00259D
:10236000E0E00125DEE0002C79D1B1EE040A38EE80
:10237000400AB5EEC00AF1EE10FA04DDB1EE040A2F
:1023800038EE400A05E0B1EE040A38EE400AB1EE3C
:10239000400ADFED530AB4EEE00AF1EE10FA79DDFF
:1023A000B1EE040A38EE400ADFED4D0AB4EEE00A61
:1023B000F1EE10FA3ADDB1EE480AF0EE000A20EE36
:1023C000200AB5EEC00AF1EE10FA06DDB1EE480AB9
:1023D000F0EE000A20EE200A05E0B1EE480AF0EE29
:1023E000000A20EE600ABDEEC00A10EE101A08B214
:1023F00000211FEDD30AFEF70EFF18EE100A0CF0B5
:1024000003F941EC190B394890ED020B8DED040BEB
:1024100090ED000B8DED020B90ED040B8DED000B9C
:1024200053EC192B364802F06FFE78E0B1EE040A47
:1024300038EE400ADFED2B0AB4EEE00AF1EE10FAB6
:102440006DD2B0EE000A28EE000AB5EEC00AF1EE39
:1024500010FA05DDB0EE000A28EE000A04E061E0A3
:10246000B0EE000A28EE400ABDEEC00A10EE101AC7
:1024700008B200211FEDF40AFEF7CDFE18EE100A97
:102480000CF0C2F841EC190B184890ED020B8DEDE1
:10249000040B37E045E042E0200000201900002056
:1024A00021000020220000200E00002074686972C4
:1024B00064206C696E65206D6973732C726561644C
:1024C0007920746F207069636B20706C616E652E6B
:1024D0002E2E0D0A000000001A0000201C00002013
:1024E000CDCCCC3DCDCCCCBD000034420801002089
:1024F00054ED00080000B44208ED00080000B4C22A
:10250000BCEC000890ED000B8DED020B90ED040B80
:102510008DED000B53EC192BFE4802F0F5FD002564
:1025200000E00125284606B0BDEC048B70BD00B567
:102530002DED0A8B8BB09FEDF80BB0EE409AF0EECC
:10254000609A9FEDF50BB0EE40AAF0EE60AA9FED09
:10255000F20BB0EE40BAF0EE60BAF14890ED066BC7
:10256000B0EE465AF0EE665A90ED046BB0EE464A75
:10257000F0EE664A90ED026BB0EE463AF0EE663A47
:10258000E84890ED066BB0EE462AF0EE662A90ED34
:10259000046BB0EE461AF0EE661A90ED026BB0EEE8
:1025A000460AF0EE660AE04800F020FDDE4890EDB5
:1025B0000C0B8DED080B90ED0A0B8DED060B90EDDD
:1025C000080B8DED040B90ED040B8DED020B90EDDF
:1025D000020B8DED000B90ED001BB0EE410AF0EE0A
:1025E000610A53EC102BD14802F08EFD0020D04937
:1025F000087008460078012804D002281FD004285B
:102600003BD136E09FEDCB0B53EC102B51EC190B6B
:102610000BF05CFC41EC1C0B0BF07CF908EE100A93
:102620000220DFEDC60AB0EE480AFFF772FD28B1BE
:10263000C3A002F069FD0220BD4908701DE0CB482F
:10264000007848B100219FEDBD0AB420FEF7E3FDFC
:10265000C7A002F059FD0BE000219FEDB80A084623
:10266000FEF7D9FDCDA002F04FFD0420B04908705F
:1026700003E00720AE49087000BF00BF0BB0BDECFF
:102680000A8B00BD0020AA490870704700B52DEDE7
:10269000108B83B09FEDA00BB0EE408AF0EE608A05
:1026A0009FED9D0BB0EE409AF0EE609A9FED9A0B75
:1026B000B0EE40AAF0EE60AA9FED970BB0EE40BAE4
:1026C000F0EE60BA9FED940BB0EE40CAF0EE60CA37
:1026D0009FED910BB0EE40DAF0EE60DA9FED8E0BDD
:1026E0008DED000B8E4890ED066BB0EE465AF0EE85
:1026F000665A90ED046BB0EE464AF0EE664A90EDF5
:10270000026BB0EE463AF0EE663A864890ED066B04
:10271000B0EE462AF0EE662A90ED046BB0EE461A53
:10272000F0EE661A90ED026BB0EE460AF0EE660A25
:102730007D4800F05BFC7C4890ED001BB0EE410A48
:10274000F0EE610A53EC102B9FED9F1B51EC110B27
:102750000BF070FE41EC180B734890ED021BB0EECD
:10276000410AF0EE610A53EC102B9FED991B51ECDE
:10277000110B0BF05FFE41EC190B9FED970BB0EEC8
:1027800040AAF0EE60AA96480078012806D00228F8
:1027900019D0032834D0042853D14EE051EC1A0B41
:1027A0000BF0B8F80EEE100A0120F0EE4E0A9FED85
:1027B000630AFFF7AEFC28B18AA002F0A5FC022054
:1027C000874908703DE09FED5B0B53EC102B51ECFB
:1027D000180B0BF07BFB41EC1F0B0BF09BF80EEE84
:1027E000100A0220DFED550AB0EE4E0AFFF791FC09
:1027F00028B186A002F088FC03207949087020E007
:102800009FED4C0B53EC102B51EC190B0BF05EFBB6
:1028100041EC1F0B0BF07EF80EEE100A0020DFEDEE
:10282000470AB0EE4E0AFFF774FC28B181A002F00F
:102830006BFC04206A49087003E0072068490870AF
:1028400000BF00BF03B0BDEC108B00BD2DE9FC4FF5
:1028500007468846914600250024002300269A4614
:102860009B46002001900090A8F57A7004B2A7F56D
:102870007A7003B2A9F57A7006B2002B01DD184612
:1028800000E05842B0F5967F40DD002C01DD204687
:1028900000E06042B0F5967FF6DD704890ED000AEA
:1028A0006F4880ED000AB3F5967F21DD14F5967F21
:1028B0001EDA9FED6C0A694880ED000A002B01DDED
:1028C000184600E05842002C01DD214600E061423C
:1028D0000844404200EE100AB8EEC00ADFED620A7A
:1028E00020EE200ABDEEC00A10EE100A05B273E118
:1028F00013F5967F0BDA14F5967F08DA9FED5B0AE5
:10290000564880ED000A002B02DDB1E010E1C7E07F
:10291000B0E00000BCEC0008000000000000000077
:1029200020100020F00F002008010020A0ED00087A
:1029300023000020000000000000594000000000BB
:1029400061677620697320617272697665642061BF
:1029500074206472676F6E206669736827732078CD
:10296000706F732E2E2E0D0A000000000E00002046
:1029700061677620676F2061686561642C74727985
:1029800020746F207069636B206472676F6E2066BD
:102990006973682E2E2E0D0A000000006472676FA6
:1029A0006E20666973682069732066696E642C61A5
:1029B00067762073746F7020616E64207069636B3A
:1029C0002E2E2E0D0A000000000000000000004026
:1029D000CDCCCCCCCCCC0C400000000000003BC0E7
:1029E0002400002061677620697320617272697625
:1029F000656420617420626C61636B6C696E65272D
:102A000073206D69642E2E2E0D0A000061677620FA
:102A10006973206172726976656420617420626CEA
:102A200061636B6C696E6527732078706F732E2EEF
:102A30002E0D0A00616776206973206172726976D3
:102A4000656420617420626C61636B6C696E6527DC
:102A5000732079706F732E2E2E0D0A00280000202F
:102A60002C000020000034C29A99193F0000344223
:102A7000184600E05842002C01DD214600E061428A
:102A80000844404200EE100AB8EEC00A5FED0A0AA0
:102A900020EE200ABDEEC00A10EE100A05B29BE03F
:102AA00013F5967F20DAB4F5967F1DDD1FED130A2E
:102AB000FE4880ED000A002B01DD184600E0584278
:102AC000002C01DD214600E06142084400EE100ABE
:102AD000B8EEC00A5FED1C0A20EE200ABDEEC00A67
:102AE00010EE100A05B277E0B3F5967F74DDB4F509
:102AF000967F71DD1FED230AEC4880ED000A002B64
:102B000001DD184600E05842002C01DD214600E0BE
:102B10006142084400EE100AB8EEC00A5FED2E0ACA
:102B200020EE200ABDEEC00A10EE100A05B253E0F6
:102B3000002B01DD184600E05842B0F5967F26DDF7
:102B4000002C01DD204600E06042B0F5967F1EDAE1
:102B5000D64890ED000AD64880ED000AB3F5967F7E
:102B600008DD9FEDD40AD14880ED000AA3F59670E8
:102B700005B231E013F5967F2EDA9FEDCF0ACB48F0
:102B800080ED000A03F59670404205B224E0002B68
:102B900001DD184600E05842B0F5967F1CDA002CA3
:102BA00001DD204600E06042B0F5967F14DDBF48AD
:102BB00090ED000ABE4880ED000A1FEDA00ABB4858
:102BC00080ED000AB4F5967F03DDA4F5967005B29A
:102BD00002E004F5967005B2002E01DD304600E0FB
:102BE0007042B0F5967F7BDDB6F5967F03DDA6F5E6
:102BF000967005B202E006F5967005B2AB4890ED0E
:102C0000000AAB4880ED000A1FED680AA74880ED76
:102C1000000AA74890ED000AA448D0ED000A30EE63
:102C2000600AB5EEC00AF1EE10FA08DDA04890ED9A
:102C3000000A9E48D0ED000A30EE600A09E09C4888
:102C400090ED000A9948D0ED000A30EE600AB1EE2E
:102C5000400AF3EE040AB4EEE00AF1EE10FA02DDE7
:102C600014209649088095480088401E00B2934978
:102C700008800846B0F90000002844DC00200880E5
:102C800005EB450000B28E49088005EB450000B217
:102C90008C49088005EB450000B28B49088005EBA4
:102CA000450000B289490880804890ED000AB1EEE5
:102CB000400ADFED870A20EE200ABDEEC00A10EEC2
:102CC00010AA90ED000ADFED820A20EE200ABDEE88
:102CD000C00A10EE10BA90ED000AB1EE400A00E012
:102CE00012E0DFED7B0A20EE200ABDEEC00A8DED7A
:102CF000010A90ED000ADFED760A20EE200ABDEE13
:102D0000C00A8DED000A0DE1002B01DD184600E040
:102D10005842B0F5967F49DA002C01DD204600E0EC
:102D20006042B0F5967F41DA1FEDFC0A5F4880ED06
:102D3000000A0025684200EB800061490880684273
:102D400000EB80005F49088005EB85005E49088044
:102D500005EB85005D490880544890ED000ADFEDE1
:102D60005C0A20EE200ABDEEC00A10EE10AA90ED1B
:102D7000000ADFED570A20EE200ABDEEC00A10EE71
:102D800010BA90ED000ADFED520A20EE200ABDEEE7
:102D9000C00A8DED010A90ED000ADFED4D0A20EE2C
:102DA000200ABDEEC00A8DED000ABBE0404890ED60
:102DB000000A3E48D0ED000A30EE600AB5EEC00AC7
:102DC000F1EE10FA08DD3A4890ED000A3748D0EDF0
:102DD000000A30EE600A09E0354890ED000A3348F9
:102DE000D0ED000A30EE600AB1EE400ADFED390A9C
:102DF000B4EEE00AF1EE10FA03DD20202F4908803E
:102E000029E02B4890ED000A2848D0ED000A30EE6A
:102E1000600AB5EEC00AF1EE10FA08DD244890ED24
:102E2000000A2248D0ED000A30EE600A09E020488E
:102E300090ED000A1D48D0ED000A30EE600AB1EEB8
:102E4000400AF3EE0E0AB4EEE00AF1EE10FA02DDEB
:102E500014201A49088019480088401E00B21749FA
:102E600008800846B0F9000000281BDC002008801C
:102E7000684200EB4000400000B2114908806842FF
:102E800000EB4000400000B20E49088005EB450011
:102E9000400000B20C49088005EB4500400000B23C
:102EA0000A490880014890ED000A15E0280000203A
:102EB0002C0000200000B4420000B4C22600002014
:102EC0007C0000207E000020800000208200002086
:102ED000CD380E45000070425FED030A20EE200A57
:102EE000BDEEC00A10EE10AA90ED000A5FED080AD0
:102EF00020EE200ABDEEC00A10EE10BA90ED000AD6
:102F00005FED0D0A20EE200ABDEEC00A8DED010A2C
:102F100090ED000A5FED120A20EE200ABDEEC00A15
:102F20008DED000A4FF448315046FEF76BF92B49FE
:102F300008604FF448315846FEF764F928490860A4
:102F40004FF448310198FEF75DF9264908604FF4C7
:102F500048310098FEF756F923490860BDE8FC8F18
:102F60002DE9F04704460D46914600260027B0465D
:102F7000A9F57A700FFA80F8A5F57A7007B2A4F572
:102F80007A7006B2B6F5967F02DD02F08AFD07E0A0
:102F900016F5967F02DA02F08BFD01E002F090FD5B
:102FA000B7F5967F02DD02F091FD07E017F5967FF9
:102FB00002DA02F093FD01E002F097FDB8F5967F8A
:102FC00002DD02F098FD07E018F5967F02DA02F0C4
:102FD00099FD01E002F09DFDBDE8F087840000202E
:102FE000880000208C0000209000002010B52DEDFE
:102FF000108B84B0B0EE40AAF0EE60AAB0EE41BAF9
:10300000F0EE61BAB0EE428AF0EE628AB0EE459A16
:10301000F0EE659A04469FED220B8DED020B9FEDBD
:10302000200B8DED000B9FED1E0BB0EE40CAF0EEB5
:1030300060CA9FED1B0BB0EE40DAF0EE60DA9FED58
:10304000180BB0EE40EAF0EE60EA9FED150BB0EE23
:1030500040FAF0EE60FAB0EE4B1AF0EE6B1AB0EEFA
:103060004A0AF0EE6A0A694602A803F096FF9DED4F
:10307000020B84ED000B9DED000B84ED020B84ED43
:10308000048B84ED06CB84ED08DB84ED0AEB84ED44
:103090000C9B84ED0EFB04B0BDEC108B10BD00004A
:1030A000000000000000000010B596B004460121A9
:1030B000084605F00BFD0121102005F04BFD07220D
:1030C0000921CB4805F047FB07220A21C84805F033
:1030D00042FB00208DF8560001208DF85700022099
:1030E0008DF854000002149002208DF8550014A9A8
:1030F000BF4805F0A5FA02208DF854004002149054
:1031000014A9BB4805F09CFABA4806F06FFC10946D
:103110000020ADF84400ADF84600ADF84800ADF829
:103120004C000C20ADF84A0010A9B24806F0ACFCE7
:10313000002240F22551AF4806F0E4FD002240F2A3
:103140002661AC4806F0DEFD012240F22441A94888
:1031500006F0D8FD0121A74806F01EFD01218805D3
:1031600005F0B4FC01224021A24806F0C2FD012274
:103170008021A04806F0BDFD25208DF83C000120EF
:103180008DF83D008DF83E008DF83F000FA804F04B
:1031900024FA46208DF83C0002208DF83D008DF881
:1031A0003E0001208DF83F000FA804F016FA3A20E7
:1031B0008DF83C0000208DF83D0002208DF83E0087
:1031C00001208DF83F000FA804F007FA8A4804F0A8
:1031D00067FF4FF0006000908648001D019087480F
:1031E00002900020039080200490002005904FF46E
:1031F000806006900020079008904FF4807009903E
:103200004FF440300A9000200B900C900D900E90DF
:103210006946794804F0E6FF0121774805F01CF87B
:103220007548783004F03CFF4FF000600090714822
:10323000001D01907248029040200390800004908D
:10324000002005904FF480600690002007900890C1
:1032500009904FF480300A9000200B900C900D9054
:103260000E9069466448783004F0BCFF012280214A
:10327000604806F03EFD012210215F48783005F0DD
:1032800078F800215C48783004F0E6FF16B010BDF5
:1032900002465068081A80B2704770B500240025B5
:1032A00040F22551534806F068FD18B1514806F028
:1032B000A2FCC4B240F224414E4806F05EFD00B3C9
:1032C0004E48FDF734FB80214B48FFF7E1FF4D49A5
:1032D00008800021484804F0BFFF00BF464805F0C1
:1032E00008F80028FAD18021434804F0D6FF0121D4
:1032F000414804F0B1FF3F480088C5B23D4880888E
:10330000C5B270BD10B5044600BF2021394806F093
:103310001EFD0028F9D0374806F06DFC10BD70B5D1
:1033200004460D4638480078F0B90021324878301C
:1033300004F092FF00BF3048783004F0DAFF002834
:10334000F9D1002221462C48783004F0C3FFA9B2FD
:103350002948783004F0A1FF01212748783004F093
:103360007BFF01202849087070BD70B505460E46E8
:10337000002400BF04E0285D21490855601CC4B248
:10338000B442F8DB31461E48FFF7C9FF70BD0FB4E9
:1033900038B505A800901A48009A049906F01AFF5B
:1033A00000200090164806F039FF044621461448D4
:1033B000FFF7B5FF38BC5DF814FB10B513490E4894
:1033C00004F0F4FF18B111490B4805F019F810BDCD
:1033D00010B50F490848783004F0E8FF38B10020F4
:1033E000094908700A490448783005F009F810BD09
:1033F00000000240001001404064024048010020EB
:10340000C80100203A000020380000200080201071
:103410000080002810B504466FF0040004F02AF97B
:10342000E11704EB5171C1F3C701404A1170104616
:10343000007800EB4001C1EBC0104FF6FF7101EACC
:10344000C0003B49088010BD0146384A12784A4303
:103450004FF0E0235A6100229A611A46126942F045
:1034600001021A6100BF4FF0E022106900F0010272
:103470001AB100F48032002AF5D04FF0E022126930
:1034800022F001024FF0E0231A6100229A61704796
:103490000146274A12884A434FF0E0235A6100222E
:1034A0009A611A46126942F001021A6100BF4FF098
:1034B000E022106900F001021AB100F48032002A03
:1034C000F5D04FF0E022126922F001024FF0E02324
:1034D0001A6100229A61704770B504464FF4077074
:1034E00094FBF0F0C6B24FF4077094FBF0F100FBD0
:1034F000114085B205E04FF40770FFF7C9FF701E59
:10350000C6B2002EF7D115B12846FFF7C1FF70BD36
:1035100010B5002107E04AF2104200BF131EA2F1CD
:103520000102FBD1491C8142F5D310BD3C000020B3
:103530003E00002010B58AB004460121084605F07F
:10354000C5FA0121480605F0F4FA09220C21914838
:1035500005F001F909220B218E4805F0FCF84FF423
:10356000C050019002208DF8080000208DF80A005C
:1035700003208DF8090001A9864805F061F81420A0
:103580008DF8000001208DF8010002208DF8020066
:1035900001208DF80300684604F01FF815208DF80F
:1035A000000001208DF8010002208DF802000120AA
:1035B0008DF80300684604F010F813208DF8000021
:1035C00001208DF801008DF802008DF80300684697
:1035D00004F003F8704804F06BF807A804F08CF9C5
:1035E00000208DF822008DF823008DF824008DF83E
:1035F00025008DF8260001208DF8270000208DF889
:103600001E008DF81F0008208DF8200003208DF883
:1036100021000620ADF81C0007A95F4804F061F8FE
:1036200000208DF816008DF8170001208DF8180085
:103630004FF6FF7000EA4410ADF80C000020ADF822
:103640000E004FF6FF70ADF81000401EADF81200EE
:103650000020ADF8140001208DF8190003A804F033
:10366000CAF8012202214C4804F0C4FB01221021B7
:10367000494804F0BFFB01221146474804F0BAFB59
:103680000AB010BD10B50121434804F01BFC30B155
:1036900001204249087001213F4804F0AEFC10BDF2
:1036A00000B585B002213C4804F00CFC40B1022179
:1036B000394804F0A2FC6A460021374804F07FFA3A
:1036C00005B000BD00B585B01021334804F0FAFB09
:1036D00040B11021304804F090FC6A4601212E4888
:1036E00004F06DFA05B000BDF0B585B006460F4692
:1036F0001546002400208DF808008DF809008DF88B
:103700000A50009600BF05E0395D0DF10B00015530
:10371000601CC4B2AC42F7DB01E0601CC4B2694675
:103720001D4804F057F9042801D17F2CF5DB05B0C2
:10373000F0BD2DE9F04186B006460F46154600243F
:10374000A04604208DF80C0000208DF80D008DF8A7
:103750000E50029600BF05E0395D0DF10F000155D6
:10376000601CC4B2AC42F7DB09E008F1010000F0D4
:10377000FF08B8F1050F02DD4FF0000805E001A9D0
:10378000054804F027F90428EFD000BF06B0BDE8D3
:10379000F081000000000240006400404000002072
:1037A00010B58AB004460121022005F08FF90121ED
:1037B000880605F0BEF909220C21FA4804F0CBFF77
:1037C00009220D21F74804F0C6FF4FF44050019044
:1037D00002208DF8080000208DF80A0003208DF8E3
:1037E000090001A9EF4804F02BFF40208DF80000EC
:1037F00001208DF8010002208DF8020001208DF8D3
:103800000300684603F0E9FE41208DF80000012026
:103810008DF8010002208DF8020001208DF80300D0
:10382000684603F0DAFE3F208DF8000001208DF895
:1038300001008DF802008DF80300684603F0CDFE0C
:10384000D94803F035FF07A804F056F800208DF89A
:1038500022008DF823008DF824008DF825008DF8C6
:10386000260001208DF8270000208DF81E008DF81D
:103870001F0008208DF8200003208DF821000C2067
:10388000ADF81C0007A9C84803F02BFF0E208DF8E7
:10389000160000208DF8170001208DF818004FF653
:1038A000FF7000EA4410ADF80C000020ADF80E00E7
:1038B000ADF81000ADF81200ADF8140001208DF83D
:1038C000190003A803F097FF0F208DF816000020C1
:1038D0008DF8170001208DF81800601C4FF6FF715D
:1038E00001EA4010ADF80C000020ADF80E00ADF874
:1038F0001000ADF81200ADF8140001208DF8190089
:1039000003A803F078FF10208DF8160000208DF832
:10391000170001208DF81800A01C4FF6FF7101EA76
:103920004010ADF80C000020ADF80E00ADF810000E
:10393000ADF81200ADF8140001208DF8190003A8AD
:1039400003F059FF11208DF8160000208DF81700A4
:1039500001208DF81800C020ADF80C000020ADF853
:103960000E00ADF81000ADF81200ADF81400012003
:103970008DF8190003A803F03EFF12208DF8160001
:1039800000208DF8170001208DF81800E020ADF818
:103990000C000020ADF80E00ADF81000ADF81200DC
:1039A000ADF8140001208DF8190003A803F023FFDF
:1039B00013208DF8160000208DF8170001208DF8D7
:1039C000180044F22000ADF80C000020ADF80E0005
:1039D000ADF81000ADF81200ADF8140001208DF81C
:1039E000190003A803F007FF012202216E4804F02A
:1039F00001FA012210216C4804F0FCF90122114661
:103A0000694804F0F7F90AB010BD10B50121664805
:103A100004F058FA30B10121634804F0EEFA0120B5
:103A20006249087010BD10B586B002215E4804F0EE
:103A300049FA002879D002215B4804F0DEFA01AA95
:103A40000021594804F0BBF8594C0298A04237D1E4
:103A50009DF810009DF80F1040EA012000EE100ABA
:103A6000B8EEC00AF2EE040A80EE201A514880ED4A
:103A7000001A9DF814109DF8130041EA002000EE92
:103A8000100AB8EEC00AF2EE040A80EE201A9FED8A
:103A90004A0A31EE400A474880ED010A9DF81610A7
:103AA0009DF8150041EA002000EE100AB8EEC00AA9
:103AB000F2EE040A80EE201A3E4880ED021A24E05D
:103AC000019806280FD19DF810003C4908709DF818
:103AD000110048709DF811109DF8100041EA002077
:103AE0003649488011E0019807280ED19DF8100052
:103AF000334908709DF8110048709DF811109DF829
:103B0000100041EA00202E49488040F2012101982E
:103B100088422CD19DF80F002A4988700846807889
:103B2000012803D10220887007E038E0254880781A
:103B3000022802D10120234988709DF810002149F4
:103B4000C8709DF81100087008460078012802D15D
:103B50000220087006E01B480078022802D10120EC
:103B6000184908709DF812001649487016E040F296
:103B700001510198884211D19DF80F001149087137
:103B80009DF81000012802D10220487106E09DF83E
:103B90001000022802D101200A49487100BF06B076
:103BA00010BD0000000402400068004041000020F9
:103BB00001409018F80E002000803B45A400002032
:103BC000A00000204200002000B585B0102141482F
:103BD00004F078F9E8B110213E4804F00EFA6A4684
:103BE00001213C4803F0EBFF0098062807D19DF81F
:103BF0000C00394908709DF80D00487009E00098E4
:103C0000072806D19DF80C00344908709DF80D0076
:103C1000487005B000BD2DE9F04186B006460F465C
:103C200015460024A04600208DF80C008DF80D00EC
:103C30008DF80E50019600BF05E0395D0DF10F00C3
:103C40000155601CC4B2AC42F7DB09E008F1010089
:103C500000F0FF08B8F1050F02DD4FF0000805E0A5
:103C600001A91C4803F0B6FE0428EFD000BF06B03F
:103C7000BDE8F0812DE9F04186B006460F461546B5
:103C80000024A04604208DF80C0000208DF80D00C3
:103C90008DF80E50029600BF05E0395D0DF10F0062
:103CA0000155601CC4B2AC42F7DB09E008F1010029
:103CB00000F0FF08B8F1050F02DD4FF0000805E045
:103CC00001A9044803F086FE0428EFD000BF06B027
:103CD000BDE8F08100680040A4000020A0000020A2
:103CE0001CB50121022004F0F1FE0121042004F0A2
:103CF00020FF684604F0ECFCC020009002208DF804
:103D0000040003208DF8050001208DF807006946A6
:103D1000FE4804F095FC02220621FC4804F01BFD3D
:103D200002220721F94804F016FD00231A46032158
:103D3000F74805F02AFE47F6FF70F5492431086080
:103D40000121F34805F036F91CBDF1492431026820
:103D50000968A1F5FE41FF391144016047F6FF7182
:103D6000EB4A24321160704710B5EA480068401CE5
:103D7000E8490860082004F0ECFB10BD00B585B0F0
:103D80000121880304F0E6FE0121022004F09EFEDA
:103D90000820009000208DF8040003208DF8050015
:103DA00001208DF807006946D84804F049FC03213A
:103DB000012006F037F80820029000208DF80C0052
:103DC0000C208DF80D0001208DF80E0002A804F0E3
:103DD00049FB09208DF8100003208DF81100022006
:103DE0008DF8120001208DF8130004A803F0F5FBF4
:103DF00005B000BD7FB505460C460121082004F042
:103E000098FEC54804F0A0FF0295ADF804400020DC
:103E1000ADF80C00ADF806008DF80E0001A9BE4803
:103E200005F03FF80121BC4805F0A6F80121BA4889
:103E300005F0ECFC01221146B74805F0D3FC012146
:103E4000B54805F0B7F832208DF8000000208DF855
:103E5000010001208DF802008DF80300684603F090
:103E6000BCFB7FBD10B50121AB4805F0D2FC00289A
:103E70006FD0AA480078401CA8490870084600780E
:103E8000192804DD002008700120A5490870A54804
:103E90000078401CA349087008460078102801DD0E
:103EA000012008709F48007811281AD2DFE800F03E
:103EB00092091A2B3C434B52565C6270767C808888
:103EC0008E009948B0F90010012001F01BFD9748C1
:103ED000B0F900209648B0F9001040F2031001F04C
:103EE000B9FD77E09348B0F90010022001F00AFD17
:103EF0009148B0F900209148B0F900104FF481705A
:103F000001F08FFD66E08E48B0F90010032001F04B
:103F1000F9FC8C48B0F900208B48B0F9001040F251
:103F2000011001F065FD55E08848B0F9001004204B
:103F300001F0E8FC4EE086480168052001F094FCA1
:103F400001F0FAFD46E083480188052001F0A6FC57
:103F500040E044E0052001F0BBFC3BE07E48016806
:103F6000062001F081FC35E07A480188062001F046
:103F700095FC2FE0062001F0ABFC7248B0F9002060
:103F80007148B0F9001040F2011001F031FD21E05C
:103F900072480168072001F067FC1BE06D4801884A
:103FA000072001F07BFC15E0072001F091FC11E0F7
:103FB0006B480168082001F057FCFCF747FF09E057
:103FC00064480188082001F069FC03E0082001F042
:103FD0007FFC00BF00BF01214F4805F02BFC10BD46
:103FE00000B589B00121022004F0A3FD012108469B
:103FF00004F09FFD0020ADF81800ADF81A004FF650
:10400000FF7007900020ADF820008DF8220006A96F
:10401000544804F046FF06A94FF0804004F041FFE9
:104020000020ADF80400ADF81000ADF806000390D4
:1040300001A94FF0804004F0C9FF01A94FF0804072
:1040400004F0FDFF01A9474804F0C0FF01A945485D
:1040500004F0F5FF01A9434805F03EF801A94148E5
:1040600005F0A0F800214FF0804005F03CF9002158
:104070004FF0804005F040F900213A4805F033F94F
:104080000021384805F038F90021364805F041F99B
:104090000021344805F046F90121880704F06CFF3F
:1040A0000121304804F068FF0221480705F0C2FBF7
:1040B00001220221480705F095FB0421080705F0BD
:1040C000B9FB01220421080705F08CFB02212548D9
:1040D00005F0B0FB01220221224805F083FB0421F8
:1040E000204805F0A7FB012204211E4805F07AFBB9
:1040F00008211C4805F09EFB01220821194805F003
:1041000071FB1021174805F095FB2DE000040240DB
:104110000008004048000020000C00404D00002036
:104120004C000020500000207C0000209E00002059
:104130009C0000207E0000209A00002098000020B3
:1041400080000020960000209400002082000020C3
:10415000840000204E000020880000208C000020F9
:104160009000002000040040012210216B4805F05F
:1041700039FB1D208DF8000001208DF8010003207F
:104180008DF8020001208DF80300684603F025FA3F
:104190001C208DF80000684603F01FFA00214FF044
:1041A000804005F06AFB07214FF0804005F0DBFB03
:1041B0008021C80505F0E0FB3021584805F05DFB83
:1041C0000721564805F0CFFB8021544805F0D4FB69
:1041D0000121880704F0EEFE0121504804F0EAFEB8
:1041E00009B000BD00B589B00121084604F0B2FC59
:1041F0000121042004F09DFC494804F0A5FD494834
:1042000004F0A2FD5320ADF818000020ADF81A000C
:1042100040F23F6007900020ADF820008DF82200AA
:1042200006A9404804F03DFE5320ADF818000020D8
:10423000ADF81A0040F67F4007900020ADF820004E
:104240008DF8220006A9364804F02BFE01A804F0E0
:10425000E1FF6020ADF804000120ADF80600002069
:10426000ADF81000039001A92D4804F0AFFE01A99C
:104270002B4804F0E4FE01A92A4804F0A7FE01A996
:10428000284804F0DCFE01A9264804F025FF01A916
:10429000244804F087FF0821214805F024F808216C
:1042A0001F4805F029F808211E4805F01CF80821D0
:1042B0001C4805F021F808211A4805F02AF80821C1
:1042C000184805F02FF80121154804F055FE01218A
:1042D000144804F051FE0121114804F06BFE012145
:1042E000104804F067FE20210E4805F033FB8021C2
:1042F0000C4805F041FB2021094805F02BFB8021EB
:10430000074805F039FB0121054805F044FA012171
:10431000044805F040FA09B000BD00000004004068
:10432000000001400008004000B587B001217F482F
:1043300004F0CCFB0121480404F0FBFB072203211D
:104340007B4804F008FA0820059002208DF8180038
:1043500000208DF81A0003208DF8190000208DF838
:104360001B0005A9724804F06BF9724805F03EFB8A
:10437000714801900020ADF808004FF40050ADF8EE
:104380000A00C010ADF80C000420ADF80E000020AB
:10439000ADF8100001A9674805F076FB012240F254
:1043A0002551644805F0AEFC0121624805F0F4FB9C
:1043B00026208DF8000000208DF8010001208DF8E6
:1043C00002008DF80300684603F007F907B000BD4E
:1043D0005A480078401C59490870084600786428FB
:1043E00004DD64200870002055490870704710B53E
:1043F00040F225514F4805F0C0FC00287ED04D48C2
:1044000005F0F9FB4F4908704F48007838B9084665
:1044100000780F282AD1FF204B49087026E0494830
:1044200000784A494A4A127888544948007817283F
:1044300011D10846C07D022802D00846C07D18B9B7
:10444000FF204449087006E000203F4908704149B8
:1044500008703F4908703E480078401C3C4908708D
:1044600008460078182801DD0020087039480078D7
:1044700000285AD0354800783449497840EA01206C
:10448000C0F30A00344908803048807840012F4941
:10449000497840EAE100C0F30A00304908802B481F
:1044A000807880112949C97840EA81002749097933
:1044B00040EA8120C0F30A00294908802348007996
:1044C00040102249497940EAC110C0F30A00254949
:1044D00008801E48407A00F00F00234908801B48DE
:1044E000807900F00F00401C204908801748807A2E
:1044F0001F49088000201449087000E015E01549A4
:104500000870134908701148807D0C2803D10020E1
:104510000B49087005E0002008490870012008498F
:1045200008700421134804F012F910BD01002000A6
:104530000000024000440040A08601005B00002013
:104540005A0000206600002068000020C8020020F9
:104550006700002069000020520000205400002065
:1045600056000020580000205C0000206000002061
:104570005E0000200010024010B50246002006E058
:10458000137843400C4CE05C521C4B1ED9B20029FE
:10459000F6DC10BD30B50346002006E01C78444030
:1045A000054D285D5B1C4C1EE1B20029F6DC80EA5B
:1045B0000204014D285D30BD70E800081CB50121E2
:1045C000102004F083FA0420009001208DF80400EC
:1045D00000208DF8060003208DF8050001208DF8DD
:1045E000070069461C4804F02BF81CBD1CB50121CE
:1045F000082004F06BFAC020009001208DF8040020
:1046000000208DF8060003208DF8050001208DF8AC
:1046100007006946114804F013F840210F4804F0E0
:104620008BF880210D4804F087F81CBD1CB50121D2
:10463000102004F04BFA4FF4A050009000208DF8A9
:10464000040003208DF8050001208DF8070069465D
:10465000014803F0F5FF1CBD00100240000C0240B1
:1046600000BF704700BFF64A128802F04002002ADD
:10467000F9D0C2B2F24B9A80704710B596B004469A
:104680000121880404F055FA0121022004F01EFAE9
:104690000121480504F01AFA07220A21E94804F02A
:1046A0005AF807220B21E74804F055F814A804F043
:1046B0000FF84FF48060149002208DF8540003200E
:1046C0008DF8550014A9DF4803F0BAFF4FF40060DD
:1046D000149002208DF8540003208DF8550014A981
:1046E000D84803F0ADFFD84805F080F910A805F0D0
:1046F00031FA10940020ADF84400ADF84600ADF852
:104700004800ADF84C000C20ADF84A0010A9CE4886
:1047100005F0BAF90121CC4805F03EFA0C208DF8DD
:104720003C0002208DF83D008DF83E0001208DF800
:104730003F000FA802F051FFC44803F0B1FC4FF056
:1047400000600090C048001D0190C1480290002008
:1047500003904FF480700490002005904FF4806027
:1047600006900020079008904FF4807009904FF455
:1047700040300A9000200B900C900D900E906946EE
:10478000B24803F02FFD01221021B04803F0F1FDE3
:1047900001224021AC4805F0ACFA0121AB4803F0FE
:1047A0005BFD0E208DF83C0001208DF83D000220BD
:1047B0008DF83E0001208DF83F000FA802F00DFF9C
:1047C000A248303003F06CFC4FF0006000909E482F
:1047D000001D01909F48029040200390802004908B
:1047E000002005904FF4806006900020079008900C
:1047F00009904FF480300A9000200B900C900D909F
:104800000E9069469148303003F0ECFC0122802183
:104810008D4805F06EFA012210218C48303003F0EB
:10482000A8FD00218948303003F016FD16B010BDF8
:1048300002465068081A80B2704770B5002400BF65
:1048400040F22551804805F098FA00281CD07E4897
:1048500005F0D1F9C4B240F225517B4805F0C4FA05
:10486000242C12D17C48007801280ED001207A49EE
:1048700008700020C8810846C08975490C547648E4
:10488000C089401C7449C88169E0734800780128D8
:1048900065D1472C10D17048407801280CD00120F8
:1048A0006D4948700846C08969490C546A48C089F6
:1048B000401C6949C88152E06748407801284ED1C0
:1048C000502C10D16448807801280CD00120624916
:1048D00088700846C0895E490C545F48C089401CF6
:1048E0005D49C8813BE05C488078012837D1472C7E
:1048F00010D15948C07801280CD001205649C87001
:104900000846C08952490C545348C089401C52493A
:10491000C88124E0472C10D14F48007901280CD0E1
:1049200001204D4908710846C08949490C544A483C
:10493000C089401C4849C88111E0412C0FD146482C
:10494000407901280BD00120434948710846C089AD
:104950003F490C544048C089401C3F49C88140F23F
:104960002441394805F009FA18B3394801F0B7FD78
:104970004FF480713548FFF75BFF3849088000210C
:10498000324803F069FC00BF304803F0B2FC002855
:10499000FAD1324801882D4803F07FFC01212B48D1
:1049A00003F05AFC28480088C5B22748001D00883B
:1049B000C5B270BD70B504460D4629480078F0B9FF
:1049C00000212248303003F047FC00BF1F48303040
:1049D00003F08FFC0028F9D1002221461B4830301B
:1049E00003F078FCA9B21948303003F056FC0121DD
:1049F0001648303003F030FC01201949087070BDB2
:104A000070B505460E46002400BF04E0285D11493C
:104A10000855601CC4B2B442F8DB31460D48FFF7BC
:104A2000C9FF70BD10B50F49084803F0BFFC30B195
:104A3000074801F054FD0B49044803F0E1FC10BDA8
:104A4000001001400004024000480040286002407D
:104A500068030020E80200206804002072000020A3
:104A600070000020008800100FB438B505A8009031
:104A7000FE48009A049905F0ADFB00200090FB4829
:104A800005F0CCFB04462146F848FFF793FF38BCFD
:104A90005DF814FB10B5F649F64803F087FC30B119
:104AA0000020F5490870F249F24803F0A9FC10BD56
:104AB00010B596B004460121C80404F03AF801216B
:104AC000042004F003F80121480503F0FFFF082249
:104AD0000A21EA4803F03FFE08220B21E74803F0D1
:104AE0003AFE14A803F0F4FD4FF480601490022005
:104AF0008DF8540003208DF8550014A9DF4803F009
:104B00009FFD4FF40060149002208DF854000320A4
:104B10008DF8550014A9D94803F092FD10A805F0AE
:104B200019F810940020ADF84400ADF84600ADF837
:104B30004800ADF84C000C20ADF84A0010A9D04850
:104B400004F0A2FF0D208DF83C0002208DF83D00FE
:104B50008DF83E0001208DF83F000FA802F03DFDCA
:104B6000C448183803F09CFA4FF000600090C44825
:104B7000001D0190C3480290002003908020049003
:104B8000002005904FF48060069000200790089068
:104B90004FF48070099040020A9000200B900C9016
:104BA0000D900E906946B348183803F01BFB0122A4
:104BB0004021B34805F09DF80121AE48183803F0B4
:104BC0004BFB002240F22551AD4805F09BF8002236
:104BD00040F22661AA4805F095F8012240F22441EE
:104BE000A74805F08FF834208DF83C0002208DF89E
:104BF0003D0003208DF83E0001208DF83F000FA8F6
:104C000002F0EBFC01219E4804F0C6FF99481830E1
:104C100003F046FA4FF0006000909948001D0190A3
:104C20009948029040200390802004900020059035
:104C30004FF48060069000200790089009904FF490
:104C400080300A9000200B900C900D900E906946D9
:104C50008848183003F0C6FA01228021884805F000
:104C600048F8012210218348183003F082FB00210C
:104C70008048183003F0F0FA0F208DF83C00022035
:104C80008DF83D008DF83E0001208DF83F000FA803
:104C900002F0A3FC16B010BD02465068081A80B29C
:104CA000704770B50024002540F22551744805F086
:104CB00064F840B1724804F09EFFC4B240F225513E
:104CC0006F4805F091F840F224416D4805F055F821
:104CD00030B36E48FBF749FE802166481838FFF76D
:104CE000DBFF6B49087000216248183803F0B4FA02
:104CF00000BF6048183803F0FCFA0028F9D1802181
:104D00005C48183803F0C9FA01215A48183803F0F2
:104D1000A3FA5B480088C5B25948001D0088C5B297
:104D200070BD70B504460D465A480078F0B90021B0
:104D30005048183003F090FA00BF4E48183003F086
:104D4000D8FA0028F9D1002221464A48183003F049
:104D5000C1FAA9B24748183003F09FFA012145482B
:104D6000183003F079FA01204A49087070BD70B517
:104D700005460E46002400BF04E0285D4249085560
:104D8000601CC4B2B442F8DB31463F48FFF7C9FFAC
:104D900070BD10B540493748183003F007FB60B1CB
:104DA00000203C4908703D493248183003F0CDFAE4
:104DB0003A493048183003F023FB10BD10B538498C
:104DC0002C48183803F0F2FA58B14FF081512948B5
:104DD000183803F0BAFA4FF081512648183803F01A
:104DE0000FFB10BD10B596B004460121042003F05E
:104DF0006DFE0121082003F069FE0121080503F082
:104E000098FE0121480503F061FE08220221254891
:104E100003F0A1FC08220C21184803F09CFC04209C
:104E2000149002208DF8540003208DF855000020C6
:104E30008DF8560001208DF8570014A9194803F089
:104E4000FFFB4FF48050149014A90C4803F0F8FBBA
:104E500010940020ADF84400ADF84600ADF84800CD
:104E6000ADF84C000C20ADF84A001DE0E80200202F
:104E700000800018586002407000002000080240C6
:104E8000004C0040F8040020780400206803002053
:104E900074000020750000202080002020000020E9
:104EA00000802010000C024010A9FE4804F0ECFD28
:104EB0000B208DF83C0002208DF83D008DF83E005F
:104EC00001208DF83F000FA802F087FBF64803F0A1
:104ED000E7F84FF000600090F248001D0190F348A1
:104EE00002900020039080200490002005904FF451
:104EF000806006900020079008904FF48070099021
:104F000040020A9000200B900C900D900E90694684
:104F1000E54803F067F901224021E24804F0E9FE88
:104F20000121E14803F098F9002240F22551DD48C3
:104F300004F0E8FE002240F22661DA4804F0E2FEC6
:104F4000012240F22441D74804F0DCFE35208DF8E0
:104F50003C0000208DF83D0001208DF83E008DF8CA
:104F60003F000FA802F039FB0121CE4804F014FEE7
:104F70002F208DF83C0002208DF83D008DF83E007A
:104F800001208DF83F000FA802F027FBC648A8308B
:104F900003F086F84FF000600090C248001D0190B9
:104FA000C3480290402003908000049000200590A8
:104FB0004FF48060069000200790089009904FF40D
:104FC00080300A9000200B900C900D900E90694656
:104FD000B548A83003F006F901228021B14804F059
:104FE00088FE01221021B048A83003F0C2F9002148
:104FF000AD48A83003F030F916B010BD0246506835
:10500000081A80B2704770B50024002540F225517F
:10501000A44804F0B2FE18B1A24804F0ECFDC4B2FA
:1050200040F224419F4804F0A8FEE8B180219E4848
:10503000FFF7E4FF9F49087000219B4803F00CF93B
:1050400000BF994803F055F90028FAD1802196480D
:1050500003F023F90121944803F0FEF891480088F9
:10506000C5B290488088C5B270BD10B592498E48CF
:10507000A83003F09BF970B10020904908704FF000
:1050800020518948A83003F060F94FF0205186483C
:10509000A83003F0B5F910BD70B504460D46874839
:1050A0000078F0B900218048A83003F0D5F800BF9F
:1050B0007D48A83003F01DF90028F9D100222146CF
:1050C0007948A83003F006F9A9B27748A83003F070
:1050D000E4F801217448A83003F0BEF801207749B4
:1050E000087070BD70B505460E46002400BF04E090
:1050F000285D6F490855601CC4B2B442F8DB3146E4
:105100006B48FFF7C9FF70BD0FB438B505A8009014
:105110006748009A049905F05DF800200090644803
:1051200005F07CF8044621466148FFF7B5FF38BC1E
:105130005DF814FB10B596B004460121202003F061
:1051400009FD0121042003F0C1FC0121880503F0C1
:10515000BDFC082206215A4803F0FDFA0822072167
:10516000574803F0F8FA14A803F0B2FA402014905C
:1051700002208DF8540003208DF8550014A95048E2
:1051800003F05EFA8020149002208DF85400032072
:105190008DF8550014A94A4803F052FA494804F022
:1051A00025FC10A804F0D6FC10940020ADF84400B3
:1051B000ADF84600ADF84800ADF84C000C20ADF855
:1051C0004A0010A93F4804F05FFC39208DF83C00EC
:1051D00002208DF83D008DF83E0001208DF83F0043
:1051E0000FA802F0FAF9384802F05AFF4FF0206099
:1051F00000903448001D0190344802900020039034
:105200004FF480600490002005904FF48060069079
:105210000020079008904FF48070099040020A9097
:1052200000200B900C900D900E906946264802F0DD
:10523000D9FF01224021234804F05BFD01212248CF
:1052400003F00AF8002240F225511E4804F05AFDEE
:10525000002240F226611B4804F054FD012240F276
:105260002441184804F04EFD47208DF83C000120F1
:105270008DF83D008DF83E008DF83F000FA802F03C
:10528000ACF901210F4804F087FC45208DF83C0063
:1052900002208DF83D008DF83E0001208DF83F0082
:1052A0000FA815E000500040106002407805002073
:1052B000F8050020770000200080002876000020FC
:1052C000000802400014014028640240F80A00204F
:1052D00002F083F98F4802F0E3FE4FF02060009067
:1052E0008D4801908D480290402003900001049069
:1052F000002005904FF480600690002007900890F1
:1053000009904FF480300A9000200B900C900D9083
:105310000E9069467F4802F065FF012280217E4899
:10532000001F04F0E6FC012210217A4803F021F866
:105330000021784802F090FF16B010BD012080F3E4
:10534000138800BF00BF00BF00BF00BF00BFBFF396
:105350004F8F00BF00BF00BF7148006800F4E060DD
:1053600070490843001D6E49086000BF00BF00BFC0
:10537000BFF34F8F00BF00BF00BF00BF00BFFDE7FE
:1053800002465068081A80B2704770B500240025A4
:1053900040F224416048001F04F0EFFC28B34FF4B2
:1053A00080615C487838FFF7EBFF5F490880002197
:1053B0005848783802F050FF00BF5648783802F05D
:1053C00098FF0028F9D14FF480615248783802F0F4
:1053D00064FF01214F48783802F03EFF4E48001F1D
:1053E0000088C5B24C480088C5B240F225514A48F1
:1053F000001F04F0C2FC28B140F225514648001FAE
:1054000004F0F2FC70BD10B548494248783802F00B
:10541000CDFF48B146493F48783802F096FF4349EE
:105420003C48783802F0ECFF10BD10B541493948CE
:1054300002F0BCFF50B100203F4908703D4935489B
:1054400002F083FF3B49334802F0DAFF10BD70B52C
:1054500004460D4638480078C8B900212D4802F0AE
:10546000FBFE00BF2B4802F044FF0028FAD10022C7
:105470002146284802F02EFFA9B2264802F00DFF6F
:105480000121244802F0E8FE01202B49087070BD7C
:1054900070B505460E4600244FF48071274803F08E
:1054A0004BF900BF04E0285D1C490855601CC4B2DC
:1054B000B442F8DB31461948FFF7C9FF4FF4807159
:1054C0001E4803F03BF970BD1CB54FF4E130FFF707
:1054D00031FE684603F0FCF80121042003F0F6FADF
:1054E0004FF48070009001208DF8040000208DF8AA
:1054F000060002208DF8070003208DF8050069469C
:105500000E4803F09DF84FF480710C4803F016F933
:105510001CBD0000A064024004140140F8060020F5
:105520000CED00E00000FA05780000200088001073
:1055300000080010008020207A00002000080240AF
:105540007CB505460C46FCA103C9CDE90001200A43
:105550008DF80500E0B28DF804000822694628465F
:10556000FEF7C2F87CBD7CB505460C46F4A103C924
:10557000CDE90001E0B28DF80400200A8DF80500A5
:10558000200C8DF80600200E8DF8070008226946D1
:105590002846FEF7A9F87CBD7CB505460C46EAA175
:1055A00003C9CDE900018DF804400522694628466B
:1055B000FEF79AF87CBD38B50446E5A00068009077
:1055C000022269462046FEF78FF838BD10B586B036
:1055D0000446E0A103C9CDE90401082204A904F5A9
:1055E000C060FEF781F80A20FDF776FFDBA103C952
:1055F000CDE90201082202A904F5C060FEF774F8A3
:105600000A20FDF769FFD7A103C9CDE900010822EF
:10561000694604F5C060FEF767F80A20FDF75CFFF5
:1056200006B010BD1CB50446D0A103C9CDE90001E8
:105630000822694604F5C060FEF756F81CBD1CB58B
:105640000446CCA103C9CDE900010822694604F54E
:10565000C060FEF749F81CBD1FB50446BDA003C8D5
:10566000CDE90201082202A904F5C060FEF73CF86A
:105670000A20FDF731FFB9A103C9CDE900010822D5
:10568000694604F5C060FEF72FF80A20FDF724FFF5
:105690001FBD1CB50446B9A103C9CDE9000108220C
:1056A000694604F5C060FEF71FF81CBD10B54FF445
:1056B000FA70FDF711FF0520FFF7EBFF0A20FDF759
:1056C0000BFF0520FFF7AEFF0A20FDF705FF0520C1
:1056D000FFF7C2FF0A20FDF7FFFE0620FFF7D9FF04
:1056E0000A20FDF7F9FE0620FFF79CFF0A20FDF7D0
:1056F000F3FE0620FFF7B0FF0A20FDF7EDFE0720BE
:10570000FFF7C7FF0A20FDF7E7FE0720FFF78AFF34
:105710000A20FDF7E1FE0720FFF79EFF0A20FDF7B4
:10572000DBFE0820FFF7B5FF0A20FDF7D5FE0820B5
:10573000FFF778FF0A20FDF7CFFE0820FFF78CFF68
:105740000A20FDF7C9FE0120FFF779FF0A20FDF7C7
:10575000C3FE0120FFF766FF0A20FDF7BDFE012012
:10576000FFF734FF0A20FDF7B7FE0220FFF767FFBF
:105770000A20FDF7B1FE0220FFF754FF0A20FDF7D3
:10578000ABFE0220FFF722FF0A20FDF7A5FE032053
:10579000FFF755FF0A20FDF79FFE0320FFF742FFAA
:1057A0000A20FDF799FE0320FFF710FF0A20FDF7FE
:1057B00093FE0420FFF743FF0A20FDF78DFE04202F
:1057C000FFF730FF0A20FDF787FE0420FFF7FEFEFB
:1057D0000A20FDF781FE10BD2DE9F04104460F4679
:1057E00015461E4621460120FFF7AAFE0A20FDF7B6
:1057F00073FE39460220FFF7A3FE0A20FDF76CFE78
:1058000029460320FFF79CFE0A20FDF765FE31467E
:105810000420FFF795FE0A20FDF75EFEBDE8F0814B
:105820002DE9F04104460F4615461E462146052047
:10583000FFF799FE0A20FDF74FFE39460620FFF7D5
:1058400092FE0A20FDF748FE29460720FFF78BFE4F
:105850000A20FDF741FE31460820FFF784FE0A20AA
:10586000FDF73AFEBDE8F0817CB505460C4645A142
:1058700003C9CDE90001E0B28DF80400200A8DF8DB
:105880000500200C8DF80600200E8DF80700082278
:10589000694605F5C060FDF727FF7CBD7CB5054670
:1058A0000C463AA103C9CDE90001E0B28DF804002D
:1058B000200A8DF80500200C8DF80600200E8DF8CA
:1058C00007000822694605F5C060FDF70DFF7CBDA5
:1058D0001CB504462FA103C9CDE900010822694681
:1058E00004F5C060FDF700FF1CBD1CB504462BA1EC
:1058F00003C9CDE900010822694604F5C060FDF73F
:10590000F3FE1CBD7CB505460C4626A103C9CDE9B6
:105910000001E0B28DF80400200A8DF80500200C8B
:105920008DF80600200E8DF807000822694605F55F
:10593000C060FDF7D9FE7CBDFF060201000000003B
:10594000FF06160200000000FF0600010000000034
:10595000FF1000002B406001060000002B4060019A
:10596000070000002B4060010F0000002B40600189
:10597000800000002F606001030000002F606001C4
:1059800001000000237A6001000000002381600113
:10599000000000002B4060013F000000404160011A
:1059A0000000000023FF6001000000000020084903
:1059B0000880084908800849088008490880084983
:1059C000086008490860084908600849086070478D
:1059D0007C0000207E00002080000020820000204B
:1059E00084000020880000208C000020900000200F
:1059F0007CB506460C461546002000900190200A12
:105A00008DF80000E0B28DF80100280A8DF8020040
:105A1000E8B28DF80300082269463046FEF7FBF82D
:105A20007CBD7CB506460C461546002000900190D2
:105A3000200A8DF80000E0B28DF80100280A8DF8E8
:105A40000200E8B28DF80300082269463046FEF7EE
:105A5000E2F87CBD7CB506460C4615460020009059
:105A60000190200A8DF80000E0B28DF80100280AAC
:105A70008DF80200E8B28DF803000822694630462E
:105A8000FEF7C9F87CBD002025490880254908801B
:105A9000254908802549088025490880254908802E
:105AA0007047C82022490880404222490880704738
:105AB0006FF0C7001E490880C8201E490880704743
:105AC00000201B4908801B49088070476FF0C70001
:105AD00015490880C820154908807047C820124918
