:020000040800F2
:10000000F01E0020F1720008B50C0008B70C0008C3
:10001000C70C0008CB0C0008CF0C00080000000043
:100020000000000000000000000000000373000852
:10003000D30C0008000000000773000809730008D3
:100040000B7300080B7300080B7300080B73000898
:100050000B7300080B7300080B7300080B73000888
:100060000B730008712B00080B7300080B7300085A
:100070003B370008D93A00087D370008AF3A00083E
:100080000B7300080B7300080B7300088D24000825
:10009000A9240008CD2400080B7300080B73000886
:1000A0000B7300080B7300080B7300080B73000838
:1000B0000B7300080B7300080B7300080B73000828
:1000C0000B7300080B7300080B7300080B73000818
:1000D0000B7300089B200008F3310008513600081C
:1000E0000B7300080B7300080B7300080B730008F8
:1000F0000B7300080B7300080B730008873D0008A2
:100100000B7300080B7300086D2C00080B730008BC
:10011000C7390008193D00080B7300080B7300086D
:100120000B730008B1400008C12100080B730008E0
:100130000B7300080B7300080B73000813280008EA
:100140002F280008D12900080B7300080B73000842
:100150000B73000811410008D72100084540000832
:100160000B7300080B7300080B7300080B73000877
:100170000B7300080B7300080B7300080B73000867
:100180000B7300080B73000800F002F800F092F8FF
:100190000AA090E8000C82448344AAF10107DA45E2
:1001A00001D100F087F8AFF2090EBAE80F0013F0A2
:1001B000010F18BFFB1A43F001031847208D000000
:1001C000408D0000103A24BF78C878C1FAD8520791
:1001D00024BF30C830C144BF04680C6070470000C1
:1001E0000023002400250026103A28BF78C1FBD840
:1001F000520728BF30C148BF0B6070476E2907F017
:100200009381702907F0D582662908F064856529F5
:1002100008F06185672908F05E85612908F05D8531
:1002200003681B0A28BF41F08001692907F040815B
:10023000642907F03D81752907F03A816F2907F09D
:100240006282782907F0A182E92907F0FD81E4297B
:1002500007F0FA81F52907F0F781EF2907F05F82AF
:10026000F82907F0A0820368DB0928BF41F080016C
:10027000632907F0A387732907F0A887E32907F00C
:10028000B387F32907F0B887002070471FB508F03F
:100290001DFD08F003F804000020002108F000FD17
:1002A000401C60600020002108F0E4FCE0601FBDFD
:1002B00010B510BD07F0C4FF1146FFF7E7FF00F0CF
:1002C0007CFB08F0A1F803B4FFF7F2FF03BC03F0D6
:1002D000C3F8000010B54FF4A06004F09FFAA82006
:1002E00001F09CFF03F066F803F07CF803F09AF845
:1002F0004FF4E13001F0D8FD02F018FF4FF47A70AE
:1003000001F0EEFF012002F019F8C82001F0E8FF2B
:1003100040F2015002F048F9642001F0E1FF53215E
:1003200040F2CF7002F06AFCFEA001F033FF10BD76
:100330002DE9FE4F8046894692460026002500247E
:100340000027A3460020029001900090A9F57A7042
:1003500005B2A8F57A7004B2AAF57A7007B2002C3B
:1003600001DD204600E06042B0F5967F7BDD002D88
:1003700001DD284600E06842B0F5967FF6DDEE48E4
:1003800090ED000AED4880ED000AB4F5967F21DD7E
:1003900015F5967F1EDA9FEDEA0AE74880ED000A20
:1003A000002C01DD204600E06042002D01DD2946E1
:1003B00000E069420844404200EE100AB8EEC00A6C
:1003C000DFEDE00A20EE200ABDEEC00A10EE100AB2
:1003D00006B2C1E014F5967F21DA15F5967F1EDA94
:1003E0009FEDD90AD44880ED000A002C01DD20469B
:1003F00000E06042002D01DD294600E0694208442A
:10040000404200EE100AB8EEC00ADFEDCE0A20EE40
:10041000200ABDEEC00A10EE100A06B29CE014F5E8
:10042000967F21DAB5F5967F1EDD9FEDC50AC2489D
:1004300080ED000A002C01DD204600E06042002D26
:1004400001DD294600E06942084400EE100AB8EEDA
:10045000C00ADFEDBC0A20EE200ABDEEC00A10EE95
:10046000100A06B278E023E0B4F5967F74DDB5F5A6
:10047000967F71DD9FEDB40AAF4880ED000A002C35
:1004800001DD204600E06042002D01DD294600E04C
:100490006942084400EE100AB8EEC00ADFEDA90A6E
:1004A00020EE200ABDEEC00A10EE100A06B253E09C
:1004B000002C01DD204600E06042B0F5967F26DD8D
:1004C000002D01DD284600E06842B0F5967F1EDA77
:1004D000994890ED000A994880ED000AB4F5967F9E
:1004E00008DD9FED9A0A944880ED000AA4F5967005
:1004F00006B231E014F5967F2EDA9FED950A8E480C
:1005000080ED000A04F59670404206B224E0002C0B
:1005100001DD204600E06042B0F5967F1CDA002D38
:1005200001DD284600E06842B0F5967F14DD824880
:1005300090ED000A814880ED000A9FED860A7E4812
:1005400080ED000AB5F5967F03DDA5F5967006B23D
:1005500002E005F5967006B2002F01DD384600E096
:100560007842B0F5967F7DDDB7F5967F03DDA7F580
:10057000967006B202E007F5967006B26E4890EDEE
:10058000000A6E4880ED000A9FED6F0A6A4880ED10
:10059000000A6A4890ED000A6748D0ED000A30EE84
:1005A000600AB5EEC00AF1EE10FA08DD634890ED7E
:1005B000000A6148D0ED000A30EE600A09E05F48A9
:1005C00090ED000A5C48D0ED000A30EE600AB1EE12
:1005D000400AF3EE040AB4EEE00AF1EE10FA02DD8E
:1005E00019205D4908805C480088401E00B25A49C5
:1005F00008800846B0F90000002844DC002008808C
:1006000006EB460000B25549088006EB460000B2F2
:100610005349088006EB460000B25249088006EBB9
:10062000460000B250490880434890ED000AB1EE00
:10063000400ADFED4E0A20EE200ABDEEC00A10EEA1
:1006400010BA90ED000ADFED490A20EE200ABDEE57
:10065000C00A8DED020A90ED000AB1EE400ADFED0E
:10066000430A00E010E020EE200ABDEEC00A8DED46
:10067000010A90ED000ADFED3D0A20EE200ABDEEF2
:10068000C00A8DED000A1EE1002C01DD204600E0CD
:100690006042B0F5967F71DA002D01DD284600E05A
:1006A0006842B0F5967F69DA9FED2A0A224880ED0C
:1006B000000A0026704200EB800028490880704242
:1006C00000EB80002649088006EB8600254908805B
:1006D00006EB860024490880174890ED000ADFEDFC
:1006E000230A20EE200ABDEEC00A10EE10BA90EDEB
:1006F000000ADFED1E0A20EE200ABDEEC00A8DEDD5
:10070000020A90ED000ADFED190A20EE200ABDEE84
:10071000C00A8DED010A90ED000ADFED140A20EE0B
:10072000200A26E073797320696E69742066696E09
:10073000697368210D0A00000400002008000020F1
:10074000000034C29A99193F000034420000B442BC
:100750000000B4C200000000000000206C00002077
:100760006E0000207000002072000020CD380E4581
:1007700004E0BDEEC00A8DED000AA4E0FE4890ED55
:10078000000AFE48D0ED000A30EE600AB5EEC00A5D
:10079000F1EE10FA08DDF84890ED000AF748D0EDC8
:1007A000000A30EE600A09E0F34890ED000AF348D1
:1007B000D0ED000A30EE600AB1EE400ADFEDF00A3B
:1007C000B4EEE00AF1EE10FA03DD2020ED490880D6
:1007D00029E0E94890ED000AE848D0ED000A30EE43
:1007E000600AB5EEC00AF1EE10FA08DDE24890EDBD
:1007F000000AE248D0ED000A30EE600A09E0DE4867
:1008000090ED000ADD48D0ED000A30EE600AB1EE4E
:10081000400AF3EE0E0AB4EEE00AF1EE10FA02DD41
:100820001420D8490880D7480088401E00B2D54916
:1008300008800846B0F9000000281BDC0020088072
:10084000704200EB4000400000B2CF490880704287
:1008500000EB4000400000B2CC49088006EB4600A7
:10086000400000B2CA49088006EB4600400000B2D2
:10087000C8490880C14890ED000A5FED440A20EEA7
:10088000200ABDEEC00A10EE10BA90ED000A5FED2E
:10089000490A20EE200ABDEEC00A8DED020A90ED55
:1008A000000A5FED4E0A20EE200ABDEEC00A8DED73
:1008B000010A90ED000A5FED530A20EE200ABDEE1A
:1008C000C00A8DED000A4FF44831584600F02DFD66
:1008D000B14908604FF44831029800F026FDAF4955
:1008E00008604FF44831019800F01FFDAC490860E2
:1008F0004FF44831009800F018FDAA490860BDE89F
:10090000FE8F2DE9F04704460D469146002600274C
:10091000B046A9F57A700FFA80F8A5F57A7007B29B
:10092000A4F57A7006B2B6F5967F02DD03F01FFFDC
:1009300007E016F5967F02DA03F020FF01E003F0EE
:1009400025FFB7F5967F02DD03F026FF07E017F5D8
:10095000967F02DA03F028FF01E003F02CFFB8F5E0
:10096000967F02DD03F02DFF07E018F5967F02DA8F
:1009700003F02EFF01E003F032FFBDE8F08710B571
:1009800089480078401C8849087008460078142877
:1009900012DD864800880D280ED18548007858B1B0
:1009A00084484388844842888448017884A001F0C0
:1009B000F1FB00207C49087010BDFFF78BFC03F0B1
:1009C000DBFC642001F08CFC6EE184480078002898
:1009D000FAD000F050FC7948007830B101280CD0F2
:1009E000022835D0032807D1A0E003F045FE03F02C
:1009F000B0FE7BA001F0CEFB4AE16C4800880D28D8
:100A00000BD17A48008802B27948008801B279484F
:100A1000008800B2FFF78CFC19E0644800880128C8
:100A20000DD17548008802B27148008801B2714842
:100A3000008800B2FFF765FF03F01EFE07E05B4889
:100A400000880F2803D10121084600F077FC1FE140
:100A50006A48007860B16948407848B968480078C9
:100A600030B90120664908706448007863494870CD
:100A700063480078092857D2DFE800F0050E561ABF
:100A80002A31564A5200642001F02AFC00F03BFC57
:100A90005CA001F07FFB47E00121084600F04EFC1E
:100AA0000121084600F029FB012000F0B1FA3BE0EB
:100AB0000021022000F042FC5E48007838B15D4819
:100AC0000078072803D00221002000F016FB2BE05D
:100AD000642001F005FC58A001F05CFB24E000213B
:100AE000012000F02BFC6048007830B15E480078AF
:100AF000072802D0002000F08BFA0221012000F02C
:100B0000FCFA4C480078072801D13D4908700BE0F9
:100B10000121022000F012FC022000F079FA03E02B
:100B200000203749087000BF00BFB1E04F4B93ED84
:100B3000030ABDEEC00A10EE103A1AB24B4B93ED09
:100B4000020ABDEEC00A10EE103A19B2474B93EDFF
:100B5000010ABDEEC00A10EE103A18B2FFF7E8FB2A
:100B6000424B93ED060ABDEEC00A10EE103A1AB2DF
:100B70003E4B93ED050A7BE00800002004000020B6
:100B800000007042000000206C0000206E00002079
:100B90007000002072000020740000207800002007
:100BA0007C000020800000200C000020500000206D
:100BB0004A0000209C000020980000201600002021
:100BC0006D6F64653A256420686D63663A2564201C
:100BD000686D63623A25640D0A0000003C00002045
:100BE0007374616E6462790D0A0000004800002091
:100BF0004400002042000020460000200D0000209C
:100C0000170000207461736B206F6B2C706C616E29
:100C10006520696E20686F6D652C61677620697349
:100C2000206368617267696E67206E6F772E2E2E63
:100C30000D0A0000150000207461736B206F6B2C8F
:100C4000706C616E65206F757420686F6D652C61C6
:100C50006776206973206368617267696E67206ECA
:100C60006F772E2E2E0D0A0014000020C4000020E5
:100C7000BDEEC00A10EE103A19B20C4B93ED040A07
:100C8000BDEEC00A10EE103A18B2FFF73AFE00BFF0
:100C900000BF00F01CFB00F019FB02F09BFAFFF70D
:100CA0006EFE0020024908708FE60000C40000209C
:100CB0003C000020704705E006A001F06BFA6420BC
:100CC00001F00EFBF8E700BFFEE700BFFEE700BF44
:100CD000FEE77047686172646661756C742E2E2E33
:100CE0000D0A000010B5A2B00024802102A806F071
:100CF00052FB00200190F1222146641C02A84254BC
:100D000001222146641C4254641CBB4890ED000A39
:100D10008DED010A9DF804202146641C02A842546E
:100D20009DF805202146641C42549DF8062021466A
:100D3000641C42549DF807202146641C4254AE486E
:100D400090ED010A8DED010A9DF804202046611CFA
:100D5000CCB202A90A549DF805202046611CCCB2F1
:100D600002A90A549DF806202046611CCCB202A9B3
:100D70000A549DF807202046611CCCB202A90A54EF
:100D80009D4890ED020A8DED010A9DF80420204651
:100D9000611CCCB202A90A549DF805202046611CB2
:100DA000CCB202A90A549DF806202046611CCCB2A0
:100DB00002A90A549DF807202146601CC4B202A86B
:100DC000425408222046611CCCB202A90A541922BE
:100DD0002046611CCCB202A90A548DF80A40A01E1C
:100DE000C1B202A802F0C4FAA11E02AA50542146C0
:100DF00002A801F0BDF922B010BD10B5817802291A
:100E000000DA10BD8B1EC25C0378F12B01D10123E7
:100E100000E000234478022C01D1012400E00024EA
:100E2000234033B1C378754C23700379E370437961
:100E3000237100BFE5E710B58178022900DA10BD03
:100E40008B1EC25C0378712B01D1012300E00023CB
:100E50004478082C01D1012400E000242340E3B3AE
:100E6000C378674C63700379A3704379E370C379E7
:100E7000847943EA042300EE103AB8EEC00A604BCE
:100E800083ED010A437A047A43EA042300EE103A20
:100E9000B8EEC00A5A4B83ED020AC37A847A43EA59
:100EA000042300EE103AB8EEC00A554B83ED030A56
:100EB000437B047B43EA042300EE103AB8EEC00AF9
:100EC0004F4B83ED040AC37B847B43EA042300EE8B
:100ED000103AB8EEC00A4A4B00E00CE083ED050A78
:100EE000437C047C43EA042300EE103AB8EEC00AC7
:100EF000434B83ED060A00BFA1E710B590B0002474
:100F00004021684606F047FA3E480078401C3D49BB
:100F10000870084600780A286BDD002008707122EE
:100F20002046611CCCB20DF8002007222046611C2F
:100F3000CCB20DF80020601CC4B2334802782046C1
:100F4000611CCCB20DF8002000222046611CCCB2FE
:100F50000DF800202046611CCCB20DF800202B4873
:100F600002782046611CCCB20DF800202748427858
:100F70002046611CCCB20DF800202448827820461F
:100F8000611CCCB20DF800202048C2782046611CBC
:100F9000CCB20DF800201D4802792046611CCCB26D
:100FA0000DF80020194842792046611CCCB20DF89A
:100FB000002000222046611CCCB20DF8002008223F
:100FC0002046611CCCB20DF8002019222046611C7D
:100FD000CCB20DF800208DF80240A01EC1B26846C8
:100FE00002F0C6F9A11E0DF801002146684602F084
:100FF0004CFD10B010BD0000800E00200D00002040
:10100000C400002012000020160000203200002042
:1010100010B50446002C47D0F5480078012806D0CA
:10102000022814D0032822D004283CD132E003F057
:10103000BBFBF0488078022808D1EE48C07802282F
:1010400004D103F0B8FB0220E94908702BE003F05B
:10105000BFFBE8480079012808D1E648407901281B
:1010600004D103F0BCFB0320E14908701BE003F04E
:101070007EFBE048007801280BD1DE48407801284B
:1010800007D103F083FB0420D9490870DAA001F0EE
:1010900081F808E00720D6490870012C02D103200E
:1010A000DC49087000BF27E000BF03F07DFB03F0C0
:1010B0008FFB03F05CFBCF4880780228F5D1CD4848
:1010C000C0780228F1D1CB4800790128EDD1C94878
:1010D00040790128E9D1C74800780128E5D1C54801
:1010E00040780128E1D103F066FB03F078FB03F0C0
:1010F0004DFBC9A001F04EF810BD70B505460C4679
:10110000012D70D1CB480078012812D1C948407810
:1011100001280ED1C748807858B9C648C07840B970
:101120000120C5490870C3498870C870C3A001F088
:1011300031F8022C3CD1C0480078012804D00228A4
:1011400012D0032833D12EE003F03BFBA9480079ED
:10115000022808D1A7484079022804D103F03FFBB8
:101160000220B549087022E003F016FB03F006FBED
:10117000A0480078022815D19E484078022811D155
:101180009C48807801280DD19A48C078012809D15F
:1011900003F011FB03F0FAFA0320A7490870ADA091
:1011A00000F0F8FF03E00720A349087000BF61E0EA
:1011B000012C5FD1A0480078012804D0022813D068
:1011C000032834D12FE003F0D9FA8A4800780228A6
:1011D00008D188484078022804D103F0D7FA0220C9
:1011E0009549087023E023E003F0D6FA03F0E9FA0A
:1011F00080480079022815D17E484079022811D113
:101200007C48807801280DD17A48C078012809D11E
:1012100003F0D1FA03F0E3FA0320874908708DA0A8
:1012200000F0B8FF03E007208349087000BF21E009
:1012300005BB00BF03F0C5FA03F0A0FA6D480079C2
:101240000228F7D16B4840790228F3D16948007829
:101250000228EFD1674840780228EBD103F0BFFAAB
:1012600003F0A9FA03F092FA0020734908707FA0F6
:1012700000F090FF70BD84480078012802D18349B6
:10128000087022E082480078012803D102207F49BB
:1012900008701AE07E480078022803D100207B49BC
:1012A000087012E07A480078032805D100207749B9
:1012B00008705849087008E07348007828B97448E5
:1012C000007810B90020714908707047704710B558
:1012D0004FF480616F4804F03BFB18B90120554979
:1012E000087002E00020534908704FF480516948AB
:1012F00004F02EFB18B901204E49487002E000208E
:101300004C49487010BD002063490870634908705B
:10131000634908706349087063490870634908703D
:1013200063490870634908707047884201DD0846C8
:1013300003E04A42904200DA484270472DE9F0410A
:101340002DED028B05460E4600249FED5B0AB0EEA4
:10135000408A002759480088401C584908800846A0
:1013600000883C2840DD002008802148007848B1F2
:101370001F480078072805D000BF9FED4F0AB0EE48
:10138000408A1CE22C48007850B12B48007807288E
:1013900006D000249FED480AB0EE408A0027F0E70F
:1013A000474840884EF28711084088421DD1012EDF
:1013B0001CD1022D1BD138480078A0B937480078DD
:1013C000401C3649087008460078012803DD0120DA
:1013D0000870314908706FF095049FED370AB0EE40
:1013E000408A00276EE071E0FEE319E22FE1C1E0E0
:1013F000140000203200002072656C656173652066
:10140000706C616E65206973206F6B2E2E2E0D0A35
:1014100000000000170000207069636B706C616E43
:1014200065206973206F70656E206F6B2E2E2E0DF8
:101430000A000000190000201500002066696E6493
:1014400020706C616E65206973206F6B2E2E2E0DDF
:101450000A0000007069636B20706C616E65206922
:1014600073206F6B2E2E2E0D0A0000007069636BC7
:10147000206D616368696E6520697320636C6F73AA
:10148000652E2E2E0D0A00004A00002016000020B6
:101490000D000020001002401D0000201E00002052
:1014A0001F0000202000002021000020220000203A
:1014B000230000202400002000000000260000205F
:1014C0009C000020F3A000F065FEBDE3FB4800781F
:1014D000012825D1FA480078401CF94908700846CF
:1014E0000078032811DD032008700220F3490870FA
:1014F00000241FED0F0AB0EE408A00270120F149B9
:101500000870F1A000F046FE9EE36FF095041FED19
:10151000160AB0EE408A0027F7A000F03BFE93E3E6
:10152000E64800780228D0D1E5480078401CE4491C
:10153000087008460078052811DD05200870032092
:10154000DE49087000241FED240AB0EE408A00270F
:101550000820F1490870F1A000F01CFE74E36FF060
:1015600095041FED2B0AB0EE408A0027F5A000F08D
:1015700011FE69E3012DA8D1FA48007810BBFA48A2
:101580000078401CF84908700846007801280FDDF3
:1015900001200870F3490870F449087000241FED19
:1015A0003A0AB0EE408A0027F1A000F0F3FD4BE3C9
:1015B00096241FED3F0AB0EE408A0027F4A000F009
:1015C000E9FD41E3E7480078012817D1E6480078B3
:1015D000401CE549087008460078032804DD032014
:1015E00008700220DF49087096241FED4D0AB0EE06
:1015F000408A0027ECA000F0CDFD25E3D948007813
:1016000002288CD1D8480078401CD7490870084679
:101610000078052811DD052008700320D1490870E5
:1016200000241FED5B0AB0EE408A00270120A54987
:101630000870E6A000F0AEFD06E396241FED620AF6
:10164000B0EE408A0027EAA000F0A4FDFCE2002EE4
:1016500084D1022D79D1ED48007818BBEC48007890
:10166000401CEB4908700846007801280FDD012076
:101670000870E649087000241FED710AB0EE408A38
:101680000027BA490870E3A000F084FDDCE2C0A0A6
:1016900000F080FD6FF095041FED790AB0EE408AEE
:1016A0000027D1E2D9480078012823D1D848007812
:1016B000401CD74908700846007803280FDD032036
:1016C00008700220D14908706FF095041FED860A5A
:1016D000B0EE408A0027D9A000F05CFDB4E26FF0C4
:1016E00095041FED8B0AB0EE408A002782A000F01F
:1016F00051FDA9E2C548007802289DD1C448007870
:10170000401CC349087008460078052811DD0520F3
:1017100008700320BD49087000241FED990AB0EE3F
:10172000408A002704207C490870CDA000F032FDDB
:101730008AE26FF095041FEDA00AB0EE408A002700
:1017400080A000F027FD7FE2FFE7012D9ED1D24867
:101750000078B0B9D1480078401CD04908700846DC
:101760000078012803DD01200870CB490870CCA067
:1017700000F010FD96241FEDB00AB0EE408A00275D
:1017800062E2C5480078012824D1C4480078401C92
:10179000C249087008460078032811DD032008704C
:1017A0000220BD490870012046490870C5A000F01C
:1017B000F1FC00241FEDC00AB0EE408A002743E28E
:1017C000CBA000F0E7FC96241FEDC50AB0EE408ADE
:1017D000002739E2B048007802288AD1AF48007863
:1017E000401CAE4908700846007805280EDD05202B
:1017F00008700320A8490870C5A000F0CBFC0024A5
:101800001FEDD30AB0EE408A00271DE278A000F059
:10181000C1FC96241FEDD80AB0EE408A002713E2DF
:10182000C6484088B0F5F06F12DBC5484088B0F577
:10183000F06F0DDB46249FEDC30AB0EE408A01270E
:10184000BE484288BE484188BFA000F0A3FCFBE12F
:10185000BA484088B0F5707F1BDCB8484088002843
:1018600017DDB7484088B0F5707F12DCB448408877
:1018700000280EDD46249FEDB30AB0EE408A4FF0FB
:10188000FF37AE484288AE484188B7A000F082FCDE
:10189000DAE177E16669727374206C696E652C6EAB
:1018A0006F742073746F70207374696C6C20676F31
:1018B000206261636B2E2E2E0D0A00001D00002099
:1018C0001E0000201400002066696E6420736563AA
:1018D0006F6E64206C696E652C6167762073746F1F
:1018E0007020616E642072656C6561736520706C38
:1018F000616E650D0A000000676F206261636B2CEA
:1019000066696E64207365636F6E64206C696E65D2
:101910002E2E2E0D0A0000001700002066696E644E
:10192000207468697264206C696E652073746F70CE
:101930002C616776206368616E67652E2E2E0D0A16
:1019400000000000676F206261636B2C66696E6443
:10195000207468697264206C696E652E2E2E0D0AE3
:10196000000000001F0000202000002015000020C3
:101970006669727374206C696E652073746F702C65
:101980007069636B20706C616E652E2E2E0D0A00DF
:101990006669727374206C696E652066696E642E68
:1019A0002E2E0D0A000000007365636F6E64206CBC
:1019B000696E65206E6F742073746F702C676F2072
:1019C0006F75742E2E2E0D0A000000007468697267
:1019D00064206C696E652073746F702C72656C6521
:1019E00061736520706C616E652E2E2E0D0A0000ED
:1019F000676F206F75742C66696E642074686972F5
:101A000064206C696E652E2E2E0D0A0021000020C8
:101A1000220000206669727374206C696E652C6107
:101A200067762073746F7020616E6420636C6F73CF
:101A300065207069636B2E2E2E0D0A007365636F2F
:101A40006E64206C696E652C616776207374696CB6
:101A50006C20676F206261636B2E2E2E0D0A0000D2
:101A60007468697264206C696E652C616776207396
:101A7000746F7020616E64206368617267652C709A
:101A80006C616E65206973206F7574736964652E6F
:101A90002E2E0D0A0000000023000020240000204C
:101AA0006669727374206C696E652C616776206953
:101AB00073207374696C6C20676F206F75742E2EA1
:101AC0002E0D0A0066696E64207365636F6E642074
:101AD0006C696E652C726561647920746F206F701B
:101AE000656E207069636B2E2E2E0D0A00000000BB
:101AF000676F206F75742C66696E64207365636F01
:101B00006E64206C696E652E2E2E0D0A000000009A
:101B100066696E64207468697264206C696E652CF5
:101B2000726561647920746F207069636B20706CDA
:101B3000616E652E2E2E0D0A000000009C00002014
:101B400098000020000034427475726E207269673C
:101B5000687420686D63663A256420686D63623A34
:101B600025640D0A000000007475726E206C6566B5
:101B70007420686D63663A256420686D63623A2557
:101B8000640D0A009E484088002817DD9C48408864
:101B9000B0F5487F12DA9B484088B0F5F06F0DDB56
:101BA00046249FED990AB0EE408A00279448428867
:101BB0009448418895A000F0EDFA45E091484088AE
:101BC000002819DD8F484088B0F5487F14DA8C482A
:101BD0004088B0F5F06F0FDB46249FED930AB0EE1E
:101BE000408A0027864800E006E14288854841880F
:101BF0008EA000F0CFFA27E08248408810B18048DC
:101C0000408830B900249FED900AB0EE408A00274A
:101C10001AE0012D08D196247948428879484188F4
:101C20008AA000F0B7FA0AE0022D08D16FF09504FF
:101C300073484288734841888BA000F0ABFA9FED4F
:101C4000820AB0EE408A0027012F42D18D480480DD
:101C50008D4804808D4804808D4804809FED8D0A56
:101C600028EE000ABDEEC00A10EE100A4FF448310B
:101C7000FFF75BFB4042884908609FED860A28EE2B
:101C8000000ABDEEC00A10EE100A4FF44831FFF70B
:101C90004CFB824908609FED7F0A28EE000ABDEEEA
:101CA000C00A10EE100A4FF44831FFF73EFB4042E5
:101CB0007B4908609FED770A28EE000ABDEEC00A56
:101CC00010EE100A4FF44831FFF72FFB75490860FA
:101CD00092E0781CE0BB604200B26A490880604232
:101CE00000B269490880604200B2684908806042D9
:101CF00000B2674908809FED670A28EE000ABDEE32
:101D0000C00A10EE100A4FF44831FFF70EFB4042B4
:101D1000614908609FED5F0A28EE000ABDEEC00A27
:101D200010EE100A4FF44831FFF7FFFA5B490860E4
:101D30009FED580A28EE000ABDEEC00A10EE100A08
:101D40004FF44831FFF7F1FA40425549086000E08E
:101D50000EE09FED500A28EE000ABDEEC00A10EE1C
:101D6000100A4FF44831FFF7E0FA4E49086043E0AB
:101D7000604200B243490880604200B24249088094
:101D800042480480424804809FED420A28EE000A3F
:101D9000BDEEC00A10EE100A4FF44831FFF7C5FA45
:101DA0003D4908609FED3B0A28EE000ABDEEC00ADF
:101DB00010EE100A4FF44831FFF7B7FA37490860C0
:101DC0009FED340A28EE000ABDEEC00A10EE100A9C
:101DD0004FF44831FFF7A9FA314908609FED2D0A09
:101DE00028EE000ABDEEC00A10EE100A4FF448318A
:101DF000FFF79BFA2B490860BDEC028BBDE8F08130
:101E00009C000020980000200000B44272756E20F3
:101E1000726967687420686D63663A256420686D2E
:101E200063623A25640D0A000000B4C272756E2028
:101E30006C65667420686D63663A256420686D631E
:101E4000623A25640D0A000000000000676F206FF1
:101E5000757420686D63663A256420686D63623A24
:101E600025640D0A00000000676F206261636B202B
:101E7000686D63663A256420686D63623A25640D77
:101E80000A0000006C0000206E000020700000209E
:101E900072000020CD380E4574000020780000202C
:101EA0007C0000208000002010B596B0044601217F
:101EB000084603F031FF0121102003F071FF0722D3
:101EC0000921CD4803F06DFD07220A21CA4803F01D
:101ED00068FD00208DF8560001208DF85700022083
:101EE0008DF854000002149002208DF8550014A9BA
:101EF000C14803F0CBFC02208DF85400400214903E
:101F000014A9BD4803F0C2FCBC4804F095FE10942F
:101F10000020ADF84400ADF84600ADF84800ADF83B
:101F20004C000C20ADF84A0010A9B44804F0D2FED1
:101F3000002240F22551B14805F00AF8002240F293
:101F40002661AE4805F004F8012240F22441AB4876
:101F500004F0FEFF0121A94804F044FF0121880597
:101F600003F0DAFE01224021A44804F0E8FF012238
:101F70008021A24804F0E3FF25208DF83C000120D9
:101F80008DF83D008DF83E008DF83F000FA802F05F
:101F90004AFC46208DF83C0002208DF83D008DF86B
:101FA0003E0001208DF83F000FA802F03CFC3A20D3
:101FB0008DF83C0000208DF83D0002208DF83E0099
:101FC00001208DF83F000FA802F02DFC8C4803F093
:101FD0008DF94FF0006000908848001D01908948FD
:101FE00002900020039080200490002005904FF480
:101FF000806006900020079008904FF48070099050
:102000004FF440300A9000200B900C900D900E90F1
:1020100069467B4803F00CFA0121794803F042FA43
:102020007748783003F062F94FF000600090734811
:10203000001D01907448029040200390802004907D
:10204000002005904FF480600690002007900890D3
:1020500009904FF480300A9000200B900C900D9066
:102060000E9069466648783003F0E2F9012280213B
:10207000624804F064FF012210216148783003F0C7
:102080009EFA00215E48783003F00CFA16B010BDBD
:1020900002465068081A80B2704770B500240025C7
:1020A00040F22551554804F08EFF18B1534804F012
:1020B000C8FEC4B240F22441504804F084FF18B373
:1020C0005048FEF79AFE4F48FEF7B5FE80214C4877
:1020D000FFF7DEFF4D4908800021494803F0E2F98F
:1020E00000BF474803F02BFA0028FAD1802144486A
:1020F00003F0F9F90121424803F0D4F93F48008880
:10210000C5B23E488088C5B270BD10B5044600BF58
:1021100020213A4804F041FF0028F9D0374804F064
:1021200090FE10BD70B504460D4639480078F0B9F0
:1021300000213348783003F0B5F900BF30487830DB
:1021400003F0FDF90028F9D1002221462C4878300F
:1021500003F0E6F9A9B22A48783003F0C4F9012166
:102160002748783003F09EF901202949087070BD96
:1021700070B505460E46002400BF04E0285D2249E4
:102180000855601CC4B2B442F8DB31461E48FFF764
:10219000C9FF70BD0FB438B505A800901A48009A61
:1021A000049905F0C7F800200090174805F0D4F80E
:1021B000044621461448FFF7B5FF38BC5DF814FB10
:1021C00010B514490E4803F017FA18B111490C481C
:1021D00003F03CFA10BD10B50F490948783003F000
:1021E0000BFA38B100200A4908700B4904487830CE
:1021F00003F02CFA10BD0000000002400010014066
:1022000040640240E0000020600100202A0000201D
:1022100028000020008020100080002810B504460F
:102220006FF0040002F04CFBE11704EB5171C1F3B5
:10223000C701404A11701046007800EB4001C1EB25
:10224000C0104FF6FF7101EAC0003B49088010BD85
:102250000146384A12784A434FF0E0235A6100227F
:102260009A611A46126942F001021A6100BF4FF0EA
:10227000E022106900F001021AB100F48032002A55
:10228000F5D04FF0E022126922F001024FF0E02376
:102290001A6100229A6170470146274A12884A4310
:1022A0004FF0E0235A6100229A611A46126942F007
:1022B00001021A6100BF4FF0E022106900F0010234
:1022C0001AB100F48032002AF5D04FF0E0221269F2
:1022D00022F001024FF0E0231A6100229A61704758
:1022E00070B504464FF4077094FBF0F0C6B24FF49B
:1022F000077094FBF0F100FB114085B205E04FF44C
:102300000770FFF7C9FF701EC6B2002EF7D115B1D6
:102310002846FFF7C1FF70BD10B5002107E04AF263
:10232000104200BF131EA2F10102FBD1491C8142E1
:10233000F5D310BD2C0000202E00002010B58AB06F
:1023400004460121084603F0E7FC0121480603F09A
:1023500016FD09220C21914803F023FB09220B21D1
:102360008E4803F01EFB4FF4C050019002208DF800
:10237000080000208DF80A0003208DF8090001A94B
:10238000864803F083FA14208DF8000001208DF8B0
:10239000010002208DF8020001208DF8030068463C
:1023A00002F041FA15208DF8000001208DF801009F
:1023B00002208DF8020001208DF80300684602F02B
:1023C00032FA13208DF8000001208DF801008DF8FD
:1023D00002008DF80300684602F025FA704802F00A
:1023E0008DFA07A802F0AEFB00208DF822008DF8D0
:1023F00023008DF824008DF825008DF8260001209B
:102400008DF8270000208DF81E008DF81F00082091
:102410008DF8200003208DF821000620ADF81C0067
:1024200007A95F4802F083FA00208DF816008DF8A6
:10243000170001208DF818004FF6FF7000EA4410D5
:10244000ADF80C000020ADF80E004FF6FF70ADF8AF
:102450001000401EADF812000020ADF8140001205D
:102460008DF8190003A802F0ECFA012202214C4871
:1024700002F0E6FD01221021494802F0E1FD0122AF
:102480001146474802F0DCFD0AB010BD10B501212D
:10249000434802F03DFE30B101204249087001215D
:1024A0003F4802F0D0FE10BD00B585B002213C4887
:1024B00002F02EFE40B10221394802F0C4FE6A4605
:1024C0000021374802F0A1FC05B000BD00B585B081
:1024D0001021334802F01CFE40B11021304802F0B8
:1024E000B2FE6A4601212E4802F08FFC05B000BD05
:1024F000F0B585B006460F461546002400208DF83D
:1025000008008DF809008DF80A50009600BF05E01C
:10251000395D0DF10B000155601CC4B2AC42F7DB14
:1025200001E0601CC4B269461D4802F079FB042832
:1025300001D17F2CF5DB05B0F0BD2DE9F04186B06F
:1025400006460F4615460024A04604208DF80C00D0
:1025500000208DF80D008DF80E50029600BF05E0AA
:10256000395D0DF10F000155601CC4B2AC42F7DBC0
:1025700009E008F1010000F0FF08B8F1050F02DDE5
:102580004FF0000805E001A9054802F049FB0428C6
:10259000EFD000BF06B0BDE8F081000000000240AF
:1025A000006400403000002010B58AB004460121CC
:1025B000022003F0B1FB0121880603F0E0FB0922B1
:1025C0000C21FA4803F0EDF909220D21F74803F038
:1025D000E8F94FF44050019002208DF808000020E7
:1025E0008DF80A0003208DF8090001A9EF4803F0D7
:1025F0004DF940208DF8000001208DF801000220E7
:102600008DF8020001208DF80300684602F00BF9F6
:1026100041208DF8000001208DF8010002208DF886
:10262000020001208DF80300684602F0FCF83F200C
:102630008DF8000001208DF801008DF802008DF862
:102640000300684602F0EFF8D94802F057F907A8EE
:1026500002F078FA00208DF822008DF823008DF822
:1026600024008DF825008DF8260001208DF8270024
:1026700000208DF81E008DF81F0008208DF8200026
:1026800003208DF821000C20ADF81C0007A9C848D4
:1026900002F04DF90E208DF8160000208DF817007D
:1026A00001208DF818004FF6FF7000EA4410ADF8D5
:1026B0000C000020ADF80E00ADF81000ADF81200CF
:1026C000ADF8140001208DF8190003A802F0B9F943
:1026D0000F208DF8160000208DF8170001208DF8CE
:1026E0001800601C4FF6FF7101EA4010ADF80C00B5
:1026F0000020ADF80E00ADF81000ADF81200ADF8F6
:10270000140001208DF8190003A802F09AF9102096
:102710008DF8160000208DF8170001208DF81800A4
:10272000A01C4FF6FF7101EA4010ADF80C0000202C
:10273000ADF80E00ADF81000ADF81200ADF81400C1
:1027400001208DF8190003A802F07BF911208DF803
:10275000160000208DF8170001208DF81800C02009
:10276000ADF80C000020ADF80E00ADF81000ADF88B
:102770001200ADF8140001208DF8190003A802F032
:1027800060F912208DF8160000208DF81700012046
:102790008DF81800E020ADF80C000020ADF80E0018
:1027A000ADF81000ADF81200ADF8140001208DF85E
:1027B000190003A802F045F913208DF81600002037
:1027C0008DF8170001208DF8180044F22000ADF8B4
:1027D0000C000020ADF80E00ADF81000ADF81200AE
:1027E000ADF8140001208DF8190003A802F029F9B2
:1027F000012202216E4802F023FC012210216C48C4
:1028000002F01EFC01221146694802F019FC0AB0D0
:1028100010BD10B50121664802F07AFC30B10121EB
:10282000634802F010FD01206249087010BD10B528
:1028300086B002215E4802F06BFC002879D00221AC
:102840005B4802F000FD01AA0021594802F0DDFAC0
:10285000594C0298A04237D19DF810009DF80F10F6
:1028600040EA012000EE100AB8EEC00AF2EE040AB7
:1028700080EE201A514880ED001A9DF814109DF842
:10288000130041EA002000EE100AB8EEC00AF2EE92
:10289000040A80EE201A9FED4A0A31EE400A4748AA
:1028A00080ED010A9DF816109DF8150041EA002000
:1028B00000EE100AB8EEC00AF2EE040A80EE201A0A
:1028C0003E4880ED021A24E0019806280FD19DF8B9
:1028D00010003C4908709DF8110048709DF81110D7
:1028E0009DF8100041EA00203649488011E0019827
:1028F00007280ED19DF81000334908709DF811008B
:1029000048709DF811109DF8100041EA00202E49F2
:10291000488040F20121019888422CD19DF80F0097
:102920002A49887008468078012803D102208870DF
:1029300007E038E025488078022802D101202349A9
:1029400088709DF810002149C8709DF8110008702A
:1029500008460078012802D10220087006E01B48D2
:102960000078022802D10120184908709DF8120051
:102970001649487016E040F201510198884211D181
:102980009DF80F00114908719DF81000012802D12F
:102990000220487106E09DF81000022802D10120B3
:1029A0000A49487100BF06B010BD00000004024093
:1029B000006800403100002001409018800E002087
:1029C00000803B459C000020980000203200002041
:1029D00000B585B01021414802F09AFBE8B1102102
:1029E0003E4802F030FC6A4601213C4802F00DFAF4
:1029F0000098062807D19DF80C00394908709DF809
:102A00000D00487009E00098072806D19DF80C00D9
:102A1000344908709DF80D00487005B000BD2DE9DF
:102A2000F04186B006460F4615460024A046002019
:102A30008DF80C008DF80D008DF80E50019600BF3A
:102A400005E0395D0DF10F000155601CC4B2AC42C8
:102A5000F7DB09E008F1010000F0FF08B8F1050F0D
:102A600002DD4FF0000805E001A91C4802F0D8F88B
:102A70000428EFD000BF06B0BDE8F0812DE9F04199
:102A800086B006460F4615460024A04604208DF861
:102A90000C0000208DF80D008DF80E50029600BF3E
:102AA00005E0395D0DF10F000155601CC4B2AC4268
:102AB000F7DB09E008F1010000F0FF08B8F1050FAD
:102AC00002DD4FF0000805E001A9044802F0A8F873
:102AD0000428EFD000BF06B0BDE8F08100680040D8
:102AE0009C000020980000201CB50121022003F06A
:102AF00013F90121042003F042F9684602F00EFFA9
:102B0000C020009002208DF8040003208DF80500FD
:102B100001208DF807006946FE4802F0B7FE022248
:102B20000621FC4802F03DFF02220721F94802F08D
:102B300038FF00231A460321F74804F04CF847F603
:102B4000FF70F549243108600121F34803F058FB78
:102B50001CBDF149243102680968A1F5FE41FF3925
:102B60001144016047F6FF71EB4A2432116070474F
:102B700010B5EA480068401CE8490860082002F0E7
:102B80000EFE10BD00B585B00121880303F008F9E1
:102B90000121022003F0C0F80820009000208DF8E9
:102BA000040003208DF8050001208DF80700694618
:102BB000D84802F06BFE0321012004F059FA0820E6
:102BC000029000208DF80C000C208DF80D000120E3
:102BD0008DF80E0002A802F06BFD09208DF81000A0
:102BE00003208DF8110002208DF8120001208DF8CD
:102BF000130004A801F017FE05B000BD7FB505461F
:102C00000C460121082003F0BAF8C54803F0C2F9C8
:102C10000295ADF804400020ADF80C00ADF80600B8
:102C20008DF80E0001A9BE4803F061FA0121BC48ED
:102C300003F0C8FA0121BA4803F00EFF0122114641
:102C4000B74803F0F5FE0121B54803F0D9FA322068
:102C50008DF8000000208DF8010001208DF80200A1
:102C60008DF80300684601F0DEFD7FBD10B501213F
:102C7000AB4803F0F4FE00286FD0AA480078401C4F
:102C8000A849087008460078192804DD002008705B
:102C90000120A5490870A5480078401CA349087088
:102CA00008460078102801DD012008709F48007850
:102CB00011281AD2DFE800F090091A2B3C434B523E
:102CC000565C6270767C80868C009948B0F9001062
:102CD000012001F07DFC9748B0F900209648B0F93A
:102CE000001040F2031001F01BFD75E09348B0F9AD
:102CF0000010022001F06CFC9148B0F900209148CE
:102D0000B0F900104FF4817001F0F1FC64E08E48DE
:102D1000B0F90010032001F05BFC8C48B0F90020F2
:102D20008B48B0F9001040F2011001F0C7FC53E0ED
:102D30008848B0F90010042001F04AFC4CE08648B5
:102D40000168052001F0F6FB01F05CFD44E08348DA
:102D50000188052001F008FC3EE042E0052001F07A
:102D60001DFC39E07E480168062001F0E3FB33E0FA
:102D70007A480188062001F0F7FB2DE0062001F0DB
:102D80000DFC7248B0F900207148B0F9001040F213
:102D9000011001F093FC1FE072480168072001F068
:102DA000C9FB19E06D480188072001F0DDFB13E045
:102DB000072001F0F3FB0FE06B480168082001F0E9
:102DC000B9FB09E065480188082001F0CDFB03E06C
:102DD000082001F0E3FB00BF00BF0121504803F0D1
:102DE0004FFE10BD00B589B00121022002F0C7FFDF
:102DF0000121084602F0C3FF0020ADF81800ADF82D
:102E00001A004FF6FF7007900020ADF820008DF8F3
:102E1000220006A9554803F06AF906A94FF0804040
:102E200003F065F90020ADF80400ADF81000ADF82E
:102E30000600039001A94FF0804003F0EDF901A9CD
:102E40004FF0804003F021FA01A9484803F0E4F96B
:102E500001A9464803F019FA01A9444803F062FAAF
:102E600001A9424803F0C4FA00214FF0804003F06A
:102E700060FB00214FF0804003F064FB00213B48E1
:102E800003F057FB0021394803F05CFB0021374871
:102E900003F065FB0021354803F06AFB0121880738
:102EA00003F090F90121314803F08CF90221480721
:102EB00003F0E6FD01220221480703F0B9FD0421D9
:102EC000080703F0DDFD01220421080703F0B0FD2F
:102ED0000221264803F0D4FD01220221234803F0F9
:102EE000A7FD0421214803F0CBFD012204211F4846
:102EF00003F09EFD08211D4803F0C2FD01220821B8
:102F00001A4803F095FD1021184803F0B9FD01227D
:102F100010212DE00004024000080040380000208D
:102F2000000C00403D0000203C000020400000203C
:102F30006C0000208E0000208C0000206E0000201D
:102F40008A000020880000207000002086000020F9
:102F50008400002072000020740000203E00002049
:102F6000780000207C000020800000200004004049
:102F70006B4803F05DFD1D208DF8000001208DF8E9
:102F8000010003208DF8020001208DF8030068463F
:102F900001F049FC1C208DF80000684601F043FC5C
:102FA00000214FF0804003F08EFD07214FF080405C
:102FB00003F0FFFD8021C80503F004FE30215848CE
:102FC00003F081FD0721564803F0F3FD80215448AA
:102FD00003F0F8FD0121880703F012F901215048A0
:102FE00003F00EF909B000BD00B589B00121084613
:102FF00002F0D6FE0121042002F0C1FE494802F091
:10300000C9FF494802F0C6FF5320ADF81800002060
:10301000ADF81A0040F23F6007900020ADF82000A4
:103020008DF8220006A9404803F061F85320ADF85E
:1030300018000020ADF81A0040F67F4007900020ED
:10304000ADF820008DF8220006A9364803F04FF8AD
:1030500001A803F005FA6020ADF804000120ADF8E6
:1030600006000020ADF81000039001A92D4803F0E0
:10307000D3F801A92B4803F008F901A92A4803F065
:10308000CBF801A9284803F000F901A9264803F06C
:1030900049F901A9244803F0ABF90821214803F0BC
:1030A00048FA08211F4803F04DFA08211E4803F092
:1030B00040FA08211C4803F045FA08211A4803F099
:1030C0004EFA0821184803F053FA0121154803F07D
:1030D00079F80121144803F075F80121114803F033
:1030E0008FF80121104803F08BF820210E4803F0DF
:1030F00057FD80210C4803F065FD2021094803F0AD
:103100004FFD8021074803F05DFD0121054803F0D4
:1031100068FC0121044803F064FC09B000BD000014
:1031200000040040000001400008004000B587B0E6
:1031300001217D4802F0F0FD0121480402F01FFE4C
:1031400007220321794802F02CFC08200590022078
:103150008DF8180000208DF81A0003208DF8190052
:1031600000208DF81B0005A9704802F08FFB704805
:1031700003F062FD6F4801900020ADF808004FF4A5
:103180000050ADF80A00C010ADF80C000420ADF8F6
:103190000E000020ADF8100001A9654803F09AFD6B
:1031A000012240F22551624803F0D2FE012160481D
:1031B00003F018FE26208DF8000000208DF8010095
:1031C00001208DF802008DF80300684601F02BFB0A
:1031D00007B000BD58480078401C574908700846A1
:1031E0000078642804DD64200870002053490870CA
:1031F000704710B540F225514D4803F0E4FE002819
:103200007ED04B4803F01DFE4D4908704D480078B4
:1032100038B9084600780F282AD1FF20494908709C
:1032200026E0474800784849484A12788854474879
:103230000078172811D10846C07D022802D0084620
:10324000C07D18B9FF204249087006E000203D49C2
:1032500008703F4908703D4908703C480078401CA0
:103260003A49087008460078182801DD00200870E7
:1032700037480078002856D03348007832494978DA
:1032800040EA0120C0F30A00324908802E488078C5
:1032900040012D49497840EAE100C0F30A002E4977
:1032A00008802948807880112749C97840EA810040
:1032B0002549097940EA8120C0F30A00274908809E
:1032C0002148007940102049497940EAC110C0F3F3
:1032D0000A00234908801C48407A00F00F00214969
:1032E00008801948807900F00F00401C1E490880B2
:1032F000002014490870164908701449087000E04D
:1033000011E01148807D0C2803D100200B49087082
:1033100005E00020084908700120084908700421D0
:10332000124802F03AFB10BD0100200000000240EC
:1033300000440040A08601004B0000204A0000200D
:103340005600002058000020E00100205700002017
:1033500059000020420000204400002046000020C8
:10336000480000204C0000205000002000100240C7
:1033700010B50246002006E0137843400C4CE05C98
:10338000521C4B1ED9B20029F6DC10BD30B50346E5
:10339000002006E01C784440054D285D5B1C4C1E57
:1033A000E1B20029F6DC80EA0204014D285D30BD5F
:1033B000DE8C00081CB50121102002F0ADFC0420B9
:1033C000009001208DF8040000208DF806000320F5
:1033D0008DF8050001208DF8070069461C4802F0B1
:1033E00055FA1CBD1CB50121082002F095FCC02037
:1033F000009001208DF8040000208DF806000320C5
:103400008DF8050001208DF807006946114802F08B
:103410003DFA40210F4802F0B5FA80210D4802F034
:10342000B1FA1CBD1CB50121102002F075FC4FF44F
:10343000A050009000208DF8040003208DF80500B6
:1034400001208DF807006946014802F01FFA1CBDF3
:1034500000100240000C024000BF704700BFFE4A4F
:10346000128802F04002002AF9D0C2B2FA4B9A80C8
:10347000704710B596B004460121880402F07FFC25
:103480000121022002F048FC0121480502F044FC21
:1034900007220A21F14802F084FA07220B21EF48A3
:1034A00002F07FFA14A802F039FA4FF48060149009
:1034B00002208DF8540003208DF8550014A9E74828
:1034C00002F0E4F94FF40060149002208DF85400EB
:1034D00003208DF8550014A9E04802F0D7F9E04820
:1034E00003F0AAFB10A803F05BFC10940020ADF8D9
:1034F0004400ADF84600ADF84800ADF84C000C2093
:10350000ADF84A0010A9D64803F0E4FB012240F2CE
:103510002441D34803F01CFD27208DF83C000020F7
:103520008DF83D0001208DF83E008DF83F000FA87A
:1035300001F079F90121CA4803F054FC0C208DF800
:103540003C0002208DF83D008DF83E0001208DF8F2
:103550003F000FA801F067F9C24801F0C7FE4FF025
:1035600000600090BE48001D0190BF4802900020FE
:1035700003904FF400700490002005904FF4806099
:1035800006900020079008904FF4807009904FF447
:1035900040300A9000200B900C900D900E906946E0
:1035A000B04801F045FF01224021AD4803F0C7FCBF
:1035B0000121AC4801F076FF0E208DF83C0001207F
:1035C0008DF83D0002208DF83E0001208DF83F006F
:1035D0000FA801F028F9A348303001F087FE4FF022
:1035E000006000909E48001D0190A048029040207D
:1035F000039080200490002005904FF48060069096
:1036000000200790089009904FF480300A90002025
:103610000B900C900D900E9069469248303001F05E
:1036200007FF012280218E4803F089FC012210212E
:103630008C48303001F0C3FF00218A48303001F05F
:1036400031FF16B010BD02465068081A80B27047AC
:1036500070B5002500BF40F22551814803F0B3FC4E
:1036600040B17F4803F0EDFBC5B240F225517C48E4
:1036700003F0E0FC40F22441794803F0A4FC18B3C5
:103680007948FDF7D8FB4FF400717648FFF7DBFF70
:10369000774908800021734801F004FF00BF71489A
:1036A00001F04DFF0028FAD1714801886D4801F002
:1036B0001AFF01216B4801F0F5FE69480088C4B289
:1036C0006748001D0088C4B270BD70B504460D4641
:1036D00068480078F0B900216248303001F0E2FE1D
:1036E00000BF6048303001F02AFF0028F9D10022E5
:1036F00021465C48303001F013FFA9B25948303000
:1037000001F0F1FE01215748303001F0CBFE0120DD
:103710005849087070BD70B505460E46002400BFBC
:1037200004E0285D51490855601CC4B2B442F8DB7E
:1037300031464E48FFF7C9FF70BD10B54E494948A4
:1037400001F05AFF18B14C49464801F07FFF10BD07
:103750000FB438B505A800904448009A049903F0C6
:10376000E9FD00200090414803F0F6FD04462146A3
:103770003E48FFF7AAFF38BC5DF814FB10B53F497F
:103780003848303001F038FF38B10020394908702E
:103790003A493448303001F059FF10BD10B596B0A9
:1037A00004460121C80402F0EAFA0121042002F0D3
:1037B000B3FA0121480502F0AFFA08220A21304885
:1037C00002F0EFF808220B212D4802F0EAF814A8C5
:1037D00002F0A4F84FF48060149002208DF8540099
:1037E00003208DF8550014A9254802F04FF84FF436
:1037F0000060149002208DF8540003208DF85500CD
:1038000014A91F4802F042F810A803F0C9FA109456
:103810000020ADF84400ADF84600ADF84800ADF822
:103820004C000C20ADF84A0010A9164803F052FADB
:103830000D208DF83C0002208DF83D008DF83E00F3
:1038400001208DF83F000FA800F0EDFF054818306B
:1038500001F04CFD18E0000000100140000402409F
:103860000048004028600240800200200002002042
:103870006200002060000020008800100080001816
:1038800000080240004C00404FF000600090FE48ED
:103890000190FE48029000200390802004900020B8
:1038A00005904FF4806006900020079008904FF438
:1038B0008070099040020A9000200B900C900D90AF
:1038C0000E906946F24801F0B3FD01224021EE4816
:1038D000001F03F034FB0121ED4801F0E3FD00225D
:1038E00040F22551E848001F03F032FB002240F26D
:1038F0002661E548001F03F02BFB012240F2244122
:10390000E148001F03F024FB34208DF83C00022026
:103910008DF83D0003208DF83E0001208DF83F001A
:103920000FA800F080FF0121D748001F03F05AFACA
:10393000D748303001F0DAFC4FF000600090D248F8
:103940000190D448029040200390802004900020F1
:1039500005904FF480600690002007900890099031
:103960004FF480300A9000200B900C900D900E9038
:103970006946C748303001F05BFD01228021C24812
:10398000001F03F0DCFA01221021C148303001F0A1
:1039900016FE0021BE48303001F084FD0F208DF866
:1039A0003C0002208DF83D008DF83E0001208DF88E
:1039B0003F000FA800F037FF16B010BD0246506858
:1039C000081A80B2704770B50024002540F22551D6
:1039D000AD48001F03F0F7FA50B1AB48001F03F0E9
:1039E00030FAC4B240F22551A748001F03F022FB71
:1039F00040F22441A448001F03F0E5FAF0B1802111
:103A0000A348FFF7DBFFA44908700021A04801F09C
:103A100049FD00BF9E4801F092FD0028FAD18021A7
:103A20009B4801F060FD0121994801F03BFD96485B
:103A3000001F0088C5B294480088C5B270BD70B53B
:103A400004460D4695480078F0B900219048303082
:103A500001F028FD00BF8E48303001F070FD0028D5
:103A6000F9D1002221468A48303001F059FDA9B22F
:103A70008748303001F037FD01218548303001F0B2
:103A800011FD01208549087070BD70B505460E46D0
:103A9000002400BF04E0285D7E490855601CC4B2C4
:103AA000B442F8DB31467B48FFF7C9FF70BD10B563
:103AB0007B497748303001F09FFD60B100207749A5
:103AC000087078497248303001F065FD75497048DA
:103AD000303001F0BBFD10BD10B573496C4801F0EA
:103AE0008BFD48B14FF08151694801F054FD4FF012
:103AF0008151674801F0AAFD10BD10B596B004468B
:103B00000121042002F008F90121082002F004F943
:103B10000121080502F033F90121480502F0FCF803
:103B200008220221614801F03CFF08220C21604874
:103B300001F037FF0420149002208DF85400032078
:103B40008DF8550000208DF8560001208DF85700A3
:103B500014A9564801F09AFE4FF48050149014A90D
:103B6000534801F093FE10940020ADF84400ADF8E6
:103B70004600ADF84800ADF84C000C20ADF84A0006
:103B800010A94C4803F0A6F80B208DF83C00022049
:103B90008DF83D008DF83E0001208DF83F000FA804
:103BA00000F041FE3A48303801F0A0FB4FF00060D1
:103BB00000904048001D01903F4802900020039073
:103BC00080200490002005904FF480600690002033
:103BD000079008904FF48070099040020A900020EE
:103BE0000B900C900D900E9069462948303801F0EA
:103BF0001FFC012240212F4803F0A1F90121244894
:103C0000303801F04FFC002240F22551294803F0E2
:103C10009FF9002240F22661264803F099F901221B
:103C200040F22441234803F093F935208DF83C00FD
:103C300000208DF83D0001208DF83E008DF83F00FA
:103C40000FA800F0F0FD01211A4803F0CBF82F2057
:103C50008DF83C0002208DF83D008DF83E000120DB
:103C60008DF83F000FA800F0DEFD0948783001F024
:103C70003DFB4FF0006000900E48001D01900F4882
:103C80000290402003901BE0044C004000050020FF
:103C90004060024080040020640000206500002095
:103CA000208000202000002000802010000C024016
:103CB000000802400050004080050020000600205F
:103CC00080200490002005904FF480600690002032
:103CD0000790089009904FF480300A9000200B90D4
:103CE0000C900D900E906946F94801F0A1FB01225D
:103CF0008021F84803F023F901221021F44801F053
:103D00005EFC0021F24801F0CDFB16B010BD02466A
:103D10005068081A80B2704770B50024002540F240
:103D20002551EC4803F04FF918B1EA4803F089F83F
:103D3000C4B240F22441E74803F045F910B38021B2
:103D4000E348A838FFF7E3FFE34908700021E048A3
:103D5000A83801F0A7FB00BFDD48A83801F0EFFB51
:103D60000028F9D18021DA48A83801F0BCFB0121F4
:103D7000D748A83801F096FBD6480088C5B2D54888
:103D80008088C5B270BD10B5D449D14801F034FC6B
:103D900060B10020D24908704FF02051CC4801F0AA
:103DA000FAFB4FF02051CA4801F050FC10BD70B52D
:103DB00004460D46CA480078C8B90021C44801F03D
:103DC00071FB00BFC24801F0BAFB0028FAD1002203
:103DD0002146BF4801F0A4FBA9B2BD4801F083FB16
:103DE0000121BB4801F05EFB0120BD49087070BD98
:103DF00070B505460E46002400BF04E0285DB949B1
:103E00000855601CC4B2B442F8DB3146B548FFF730
:103E1000CEFF70BD10B596B004460121202001F000
:103E2000BFFF0121042001F077FF0121880501F087
:103E300073FF08220621AC4801F0B3FD08220721D8
:103E4000A94801F0AEFD14A801F068FD40201490CF
:103E500002208DF8540003208DF8550014A9A248C3
:103E600001F014FD8020149002208DF854000320EE
:103E70008DF8550014A99C4801F008FD9B4802F0FC
:103E8000DBFE10A802F08CFF10940020ADF8440077
:103E9000ADF84600ADF84800ADF84C000C20ADF888
:103EA0004A0010A9914802F015FF39208DF83C0016
:103EB00002208DF83D008DF83E0001208DF83F0076
:103EC0000FA800F0B0FC8A4801F010FA4FF0206013
:103ED00000908648001D01908648029000200390C3
:103EE0004FF480600490002005904FF480600690AD
:103EF0000020079008904FF48070099040020A90CB
:103F000000200B900C900D900E906946784801F0BF
:103F10008FFA01224021754803F011F801217448FD
:103F200001F0C0FA002240F22551704803F010F869
:103F3000002240F226616D4803F00AF8012240F2A7
:103F400024416A4803F004F847208DF83C00012022
:103F50008DF83D008DF83E008DF83F000FA800F071
:103F600062FC0121614802F03DFF45208DF83C00D4
:103F700002208DF83D008DF83E0001208DF83F00B5
:103F80000FA800F050FC5A48783001F0AFF94FF01C
:103F9000206000905548001D019057480290402035
:103FA000039000010490002005904FF4806006907B
:103FB00000200790089009904FF480300A9000206C
:103FC0000B900C900D900E9069464948783001F0A6
:103FD0002FFA01228021454802F0B1FF0122102171
:103FE0004348783001F0EBFA00214148783001F085
:103FF00059FA16B010BD012080F3138800BF00BF2E
:1040000000BF00BF00BF00BFBFF34F8F00BF00BFA6
:1040100000BF3A48006800F4E06039490843001DD9
:104020003649086000BF00BF00BFBFF34F8F00BF1D
:1040300000BF00BF00BF00BFFDE702465068081A7E
:1040400080B2704770B50024002540F22441274813
:1040500002F0B9FF00B34FF480612548FFF7EDFF90
:10406000284908800021224801F01CFA00BF20489E
:1040700001F065FA0028FAD14FF480611C4801F084
:1040800032FA01211A4801F00DFA18480088C5B229
:104090001648001D0088C5B240F22551134802F0B1
:1040A00092FF20B140F22551104802F0C3FF70BDCD
:1040B00010B515490E4801F09FFA38B113490C4864
:1040C00001F069FA10490A4801F0C0FA10BD000079
:1040D000B8600240005000406700002000800028C7
:1040E0006600002000060020000802400014014085
:1040F00028640240800A0020800600200CED00E0C9
:104100000000FA0568000020008800100008001078
:1041100010B53949394801F06FFA50B100203849DB
:1041200008703549354801F036FA3349334801F013
:104130008DFA10BD70B504460D4631480078C8B9F7
:1041400000212E4801F0AEF900BF2C4801F0F7F92C
:104150000028FAD100222146284801F0E1F9A9B24D
:10416000264801F0C0F90121244801F09BF9012003
:104170002349087070BD70B505460E4600244FF403
:104180008071204801F0FEFB00BF04E0285D1E495D
:104190000855601CC4B2B442F8DB31461A48FFF738
:1041A000C9FF4FF48071174801F0EEFB70BD1CB5DC
:1041B0004FF4E130FFF72EFE684601F0AFFB01211E
:1041C000042001F0A9FD4FF48070009001208DF8CB
:1041D000040000208DF8060002208DF8070003205F
:1041E0008DF805006946074801F050FB4FF48071D7
:1041F000044801F0C9FB1CBD00802020A0640240DF
:104200006A00002000080240800600207CB50546B8
:104210000C46FCA103C9CDE90001200A8DF8050078
:10422000E0B28DF80400082269462846FEF760F9DE
:104230007CBD7CB505460C46F4A103C9CDE900015F
:10424000E0B28DF80400200A8DF80500200C8DF8EE
:104250000600200E8DF80700082269462846FEF762
:1042600047F97CBD7CB505460C46EAA103C9CDE9FA
:1042700000018DF80440052269462846FEF738F90A
:104280007CBD38B50446E5A000680090022269466E
:104290002046FEF72DF938BD10B586B00446E0A1E2
:1042A00003C9CDE90401082204A904F5C060FEF7A2
:1042B0001FF90A20FEF714F8DBA103C9CDE90201BA
:1042C000082202A904F5C060FEF712F90A20FEF7E1
:1042D00007F8D7A103C9CDE900010822694604F512
:1042E000C060FEF705F90A20FDF7FAFF06B010BD21
:1042F0001CB50446D0A103C9CDE9000108226946D6
:1043000004F5C060FEF7F4F81CBD1CB50446CCA152
:1043100003C9CDE900010822694604F5C060FEF733
:10432000E7F81CBD1FB50446BDA003C8CDE90201D6
:10433000082202A904F5C060FEF7DAF80A20FDF7AA
:10434000CFFFB9A103C9CDE900010822694604F5F0
:10435000C060FEF7CDF80A20FDF7C2FF1FBD1CB5F7
:104360000446B9A103C9CDE900010822694604F554
:10437000C060FEF7BDF81CBD10B54FF4FA70FDF734
:10438000AFFF0520FFF7EBFF0A20FDF7A9FF05208F
:10439000FFF7AEFF0A20FDF7A3FF0520FFF7C2FFDE
:1043A0000A20FDF79DFF0620FFF7D9FF0A20FDF741
:1043B00097FF0620FFF79CFF0A20FDF791FF0620DC
:1043C000FFF7B0FF0A20FDF78BFF0720FFF7C7FFBD
:1043D0000A20FDF785FF0720FFF78AFF0A20FDF777
:1043E0007FFF0720FFF79EFF0A20FDF779FF0820D7
:1043F000FFF7B5FF0A20FDF773FF0820FFF778FFEE
:104400000A20FDF76DFF0820FFF78CFF0A20FDF75B
:1044100067FF0120FFF779FF0A20FDF761FF012008
:10442000FFF766FF0A20FDF75BFF0120FFF734FF6F
:104430000A20FDF755FF0220FFF767FF0A20FDF76E
:104440004FFF0220FFF754FF0A20FDF749FF02202B
:10445000FFF722FF0A20FDF743FF0320FFF755FF78
:104460000A20FDF73DFF0320FFF742FF0A20FDF77A
:1044700037FF0320FFF710FF0A20FDF731FF04206C
:10448000FFF743FF0A20FDF72BFF0420FFF730FF63
:104490000A20FDF725FF0420FFF7FEFE0A20FDF7A6
:1044A0001FFF10BD2DE9F04104460F4615461E467C
:1044B00021460120FFF7AAFE0A20FDF711FF394629
:1044C0000220FFF7A3FE0A20FDF70AFF294603207A
:1044D000FFF79CFE0A20FDF703FF31460420FFF79B
:1044E00095FE0A20FDF7FCFEBDE8F0812DE9F041C4
:1044F00004460F4615461E4621460520FFF799FE45
:104500000A20FDF7EDFE39460620FFF792FE0A204D
:10451000FDF7E6FE29460720FFF78BFE0A20FDF790
:10452000DFFE31460820FFF784FE0A20FDF7D8FEA3
:10453000BDE8F0817CB505460C4645A103C9CDE92F
:104540000001E0B28DF80400200A8DF80500200C6F
:104550008DF80600200E8DF807000822694605F543
:10456000C060FDF7C5FF7CBD7CB505460C463AA191
:1045700003C9CDE90001E0B28DF80400200A8DF8EE
:104580000500200C8DF80600200E8DF8070008228B
:10459000694605F5C060FDF7ABFF7CBD1CB5044660
:1045A0002FA103C9CDE900010822694604F5C060C6
:1045B000FDF79EFF1CBD1CB504462BA103C9CDE928
:1045C00000010822694604F5C060FDF791FF1CBD9B
:1045D0007CB505460C4626A103C9CDE90001E0B231
:1045E0008DF80400200A8DF80500200C8DF80600D7
:1045F000200E8DF807000822694605F5C060FDF71A
:1046000077FF7CBDFF06020100000000FF061602D6
:1046100000000000FF06000100000000FF10000085
:104620002B406001060000002B40600107000000E5
:104630002B4060010F0000002B4060018000000053
:104640002F606001030000002F6060010100000086
:10465000237A600100000000238160010000000057
:104660002B4060013F00000040416001000000005D
:1046700023FF60010000000000200849088008496D
:1046800008800849088008490880084908600849E6
:104690000860084908600849086070476C000020FD
:1046A0006E000020700000207200002074000020C6
:1046B000780000207C000020800000207CB50646A9
:1046C0000C461546002000900190200A8DF800004D
:1046D000E0B28DF80100280A8DF80200E8B28DF8EA
:1046E0000300082269463046FEF799F97CBD7CB587
:1046F00006460C461546002000900190200A8DF8D1
:104700000000E0B28DF80100280A8DF80200E8B23E
:104710008DF80300082269463046FEF780F97CBD1B
:104720007CB506460C461546002000900190200AF4
:104730008DF80000E0B28DF80100280A8DF8020023
:10474000E8B28DF80300082269463046FEF767F9A3
:104750007CBD00202549088025490880254908801E
:104760002549088025490880254908807047C820C8
:104770002249088040422249088070476FF0C700F4
:104780001E490880C8201E490880704700201B4928
:1047900008801B49088070476FF0C70015490880E2
:1047A000C820154908807047C82012490880404237
:1047B00011490880704700200E4908800E49088082
:1047C00070474FF4C870094908800949088070474C
:1047D0004FF6706005490880054908807047002041
:1047E00002490880024908807047000084000020C8
:1047F00086000020880000208A0000208C00002015
:104800008E00002010B5034C082203492046FEF715
:1048100035F910BD40019018900000203249014345
:10482000324A1160704770B5002100230F22C4780E
:104830001CB32E4C246804F4E064C4F5E064C4F3B3
:104840000721C1F10404E3B20A4144789C40E1B27B
:104850008478144021430C07210E254C05786155BE
:10486000047804F01F050124AC4005786D11AD00FB
:1048700005F1E025C5F8004109E0047804F01F05C2
:104880000124AC401B4D0678761145F8264070BDDA
:10489000194A0A400243154B1B1F1A60704739B171
:1048A000124A121D12680243104B1B1D1A6006E0CB
:1048B0000E4A121D126882430C4B1B1D1A60704772
:1048C000042808D14FF0E021096941F004014FF0BC
:1048D000E022116107E04FF0E021096921F00401B5
:1048E0004FF0E022116170470000FA050CED00E086
:1048F00000E400E080E100E080FFFF1F10B5044607
:10490000FE48844209D10121480601F0A0FA0021A5
:104910004FF0007001F09BFA08E00121880601F0D9
:1049200096FA00214FF0806001F091FA10BD30B589
:10493000024600200023146824F002041460146866
:1049400044F00104146000E05B1C546804F00104AE
:104950001CB94FF6FF74A342F6D1546804F0010469
:104960000CB900206CE08C79012C04D1146844F05F
:104970008004146003E0146824F080041460CC798F
:10498000012C04D1146844F04004146003E014685E
:1049900024F0400414600C7A012C04D1146844F013
:1049A0002004146003E0146824F0200414604C7A9E
:1049B000012C04D1146844F01004146003E014685E
:1049C00024F0100414608C7A012C04D1146844F093
:1049D0000804146003E0146824F008041460CC7A1E
:1049E000012C04D1146844F00404146003E014683A
:1049F00024F0040414608C78A407CD7844EA05649C
:104A00000D7944EA05444D7944EA05540D886D1E3C
:104A10002C43D461146824F001041460002300E0E6
:104A20005B1C546804F001041CB14FF6FF74A342F0
:104A3000F6D1546804F001040CB1002000E001201C
:104A400030BD10B50021837A012202FA03F1AC4A8D
:104A5000126842F00102AA4B1A60A94A1C3212687D
:104A60008A43A74B1C331A60027BCAB9A44A0C3292
:104A700012688A43A24B0C331A604288C38842EA08
:104A800003439F4A4032847A42F834300288838854
:104A900042EA03439A4A4032847A02EBC4025360EA
:104AA000027B012A19D1964A0C3212680A43944BB0
:104AB0000C331A604288038842EA0343904A40322A
:104AC000847A42F83430C288838842EA03438C4AAD
:104AD0004032847A02EBC4025360C27A3AB9884AFF
:104AE000121D12688A43864B1B1D1A6006E0844A19
:104AF000121D12680A43824B1B1D1A60028932B9CB
:104B00007F4A143212688A437D4B14331A6002893B
:104B1000012A06D17A4A143212680A43784B1433B8
:104B20001A60427B012A06D1754A1C3212680A4378
:104B3000734B1C331A60724A126822F00102704BE8
:104B40001A6010BD00218171C171017241728172C0
:104B5000C1728170C1700321017102214171012173
:104B6000018070476649096841F00101644A11609B
:104B70001146096843F60E729143614A116011466D
:104B8000096841EA002111601146096821F001011C
:104B90001160704721B1026842F48032026003E084
:104BA000026822F4803202607047E1B1026842F08C
:104BB000800202604FF4C272125842F480734FF4C4
:104BC000C27213504FF4CA72125842F480734FF4F9
:104BD000CA7213504FF4D272125842F480734FF4D9
:104BE000D27213501BE0026822F0800202604FF480
:104BF000C272125822F480734FF4C27213504FF4F1
:104C0000CA72125822F480734FF4CA7213504FF4D0
:104C1000D272125822F480734FF4D272135070473C
:104C200010B502460020936803F08063B3F1806FF3
:104C300000D110E0936803F00063B3F1006F01D17D
:104C4000012008E0936803F08053B3F1805F01D145
:104C5000022000E00420042879D002F5C07303EBA1
:104C600000131B6803F0010402F5C07303EB00138B
:104C70001C600B7A7BB94B7A0C8843EA445302F5EB
:104C8000C07404EB00142468234302F5C07404EBE1
:104C90000014236010E00B7A4C6843EAC4034C7A9A
:104CA000234302F5C07404EB00142468234302F587
:104CB000C07404EB001423608B7A03F00F038B7233
:104CC00002F5C07303EB00135B6823F00F0402F5D9
:104CD000C07303EB00135C6002F5C07303EB0013B9
:104CE0005B688C7A234302F5C07404EB00146360A4
:104CF0008B7B1C064B7B44EA034403E000640040CA
:104D0000006600400B7B44EA0323CC7A234302F580
:104D1000C07404EB0014A3608B7C1C064B7C44EA3B
:104D200003440B7C44EA0323CC7B234302F5C07489
:104D300004EB0014E36002F5C07303EB00131B687F
:104D400043F0010402F5C07303EB00131C6010BDB7
:104D500010B50246002321B1012907D002290FD145
:104D600009E09068F94C00EA04030BE09068F84C05
:104D700000EA040306E09068F64C00EA040301E050
:104D8000002300BF00BFF44C181BA34216D007DC61
:104D900083B16FF08060184470B1022818D111E01F
:104DA000B0F5007F10D0ED4C204448B1B0F5003F85
:104DB0000ED10BE002230DE000230BE0002309E0FD
:104DC000002307E0012305E0012303E0012301E0C4
:104DD000002300BF00BFD8B210BD21B1012907D008
:104DE00002290FD109E0826842F0800282600AE065
:104DF000826842F40042826005E0826842F4000268
:104E0000826000E000BF00BF704710B500F5D873A6
:104E100003EB01131B6803F004031372137A53B9F5
:104E200000F5D87303EB01131B6840F2FF7404EA2A
:104E30005353136009E000F5D87303EB01131B68AB
:104E40006FF0604404EAD303536000F5D87303EBBA
:104E500001131B6803F00203537200F5D87303EBD0
:104E600001135B6803F00F03937200F5D87303EB33
:104E700001135B681B0AD37400F5D87303EB0113AD
:104E80009B68D37200F5D87303EB01139B681C0A6F
:104E9000147300F5D87303EB01139B681C0C547357
:104EA00000F5D87303EB01139B681B0E937300F599
:104EB000D87303EB0113DB68D37300F5D87303EBEE
:104EC0000113DB681C0A147400F5D87303EB01139B
:104ED000DB681C0C547400F5D87303EB0113DB681A
:104EE0001B0E937421B9C36843F02003C36003E031
:104EF000036943F02003036110BD21B9C26842F089
:104F00002002C26003E0026942F0200202617047A1
:104F10000246002019B9D36803F0030006E0012916
:104F200003D1136903F0030000E00020704710B5BF
:104F300002460B4600204FF6FF71BBB9146824F0FF
:104F4000020444F00104146000E0491E546804F0B7
:104F50000304012C01D00029F7D1546804F00304A4
:104F6000012C01D0002032E0012030E0012B13D1D0
:104F7000146824F00304146000E0491E546804F02F
:104F800003040CB10029F8D1546804F003040CB1F7
:104F900000201CE001201AE0022B17D1146824F035
:104FA000010444F00204146000E0491E546804F057
:104FB0000304022C01D00029F7D1546804F0030443
:104FC000022C01D0002002E0012000E0002010BDF2
:104FD000014600200A6822F0010242F002020A6043
:104FE0004A6802F00302022A00D1012070470146FC
:104FF0004FF6FF7200200B6823F002030B6000E005
:10500000521E4B6803F00203022B01D1002AF7D194
:105010004B6803F00203022B00D0012070470146C9
:1050200000208A6902F070007047014600208A69FA
:10503000100E7047014600208A69C2F3074070478E
:105040001AB143690B43436102E043698B434361F7
:10505000704710B50246002001F4700343B1936914
:10506000C1F3130423400BB101202DE000202BE0FD
:1050700001F0807343B15368C1F3130423400BB1B3
:10508000012021E000201FE001F0006343B193689C
:10509000C1F3130423400BB1012015E0002013E0FD
:1050A00001F0007343B1D368C1F3130423400BB183
:1050B000012009E0002007E01369C1F31304234035
:1050C0000BB1012000E0002010BD0022244B9942CA
:1050D00002D10023836111E0C1F3130201F00073D8
:1050E0000BB1C2600AE001F080630BB1026105E020
:1050F00001F000630BB1826000E04260704702463D
:10510000002002EA01030BB1012000E000207047FB
:1051100070B504460D46002660692840002872D00C
:10512000B5F5807F69D01DDC082D42D006DC012D4D
:105130002DD0022D31D0042D7FD134E0102D3ED062
:10514000202D42D0402D78D145E00000030000041E
:105150000003000800000310000100080001FFF731
:105160007000F030B5F5004F61D009DCB5F5007F77
:105170004AD0B5F5806F4DD0B5F5006F5DD150E0E8
:10518000B5F5803F2DD0B5F5003F56D12FE0A06892
:105190005549FFF7B4FF064651E0E0680321FFF7E9
:1051A000AEFF06464BE0E0680821FFF7A8FF064681
:1051B00045E0E0681021FFF7A2FF06463FE02069C6
:1051C0000321FFF79CFF064639E020690821FFF71D
:1051D00096FF064633E020691021FFF790FF064650
:1051E0002DE060680821FFF78AFF064627E0606827
:1051F0001021FFF784FF064621E0A0690121FFF797
:105200007EFF06461BE01BE0A0690221FFF777FF47
:10521000064614E0A0690421FFF771FF06460EE080
:105220000BE0A0697021FFF76AFF064607E060689F
:105230000421FFF764FF064601E0002600BF00E0FE
:105240000026304670BDB1F5007F3AD00FDC202932
:1052500028D006DC01291CD004291DD0082940D102
:105260001DE0402921D0B1F5807F3AD126E0B1F58B
:10527000004F31D006DCB1F5806F25D0B1F5006F5D
:105280002FD124E0B1F5803F12D0B1F5003F28D1F5
:1052900011E0154A826025E00822C26022E0102257
:1052A000C2601FE0082202611CE01022026119E0C6
:1052B0000822426016E01022426013E0042242609D
:1052C00010E0042242600DE0042242600AE0002265
:1052D00082610422426005E0002282610422426071
:1052E00000E000BF00BF704701010100016821F02C
:1052F000010101600021016041608160C1600161C4
:1053000021214161DB49884204D13D21D94A103A2B
:1053100091608CE0D7491831884205D14FF474610F
:10532000D44A103A916082E0D2493031884205D1A6
:105330004FF47411CF4A103A916078E0CD4948316A
:10534000884205D14FF07461CA4A103A91606EE00C
:10535000C8496031884204D1C749C64A103AD16071
:1053600065E0C4497831884204D1C449C14A103A41
:10537000D1605CE0BF499031884204D1C049BD4A48
:10538000103AD16053E0BB49A831884205D14FF0B3
:105390003D51B84A103AD16049E0BA49884204D137
:1053A0003D21B84A083A116041E0B64918318842B7
:1053B00005D14FF47461B34A083A116037E0B1493E
:1053C0003031884205D14FF47411AE4A083A116069
:1053D0002DE0AC494831884205D14FF07461A94AAB
:1053E000083A116023E0A7496031884204D1A249FC
:1053F000A44A121F11601AE0A2497831884204D1F0
:105400009E49A04A121F116011E09E4990318842C6
:1054100004D19B499B4A121F116008E09949A831A9
:10542000884204D14FF03D51964A121F11607047D7
:1054300010B500220268944B1A40CC680B682343D5
:105440004C6923438C692343CC6923430C6A23436F
:105450004C6A23438C6A23434C6B23438C6B23435A
:105460001A430260426922F00702D1E90B34234358
:105470001A4342610B6943604B6883608B68C36069
:1054800010BD0021016041608160C1600161416126
:105490008161C161016241628162C16201634163F4
:1054A0008163704721B1026842F00102026003E0AB
:1054B000026822F001020260704721B1026842F4E2
:1054C0000042026003E0026822F40042026070477A
:1054D00021B1026842F02002026003E0026822F07B
:1054E000200202607047416070470146486880B200
:1054F000704722B1036843F40023036003E00368AC
:1055000023F4002303600161704721B1026842F473
:105510008022026003E0026822F480220260704769
:105520000AB1016100E0C1607047014600200A68CD
:1055300002F400220AB1012000E000207047014679
:1055400000200A6802F001020AB1012000E00020F8
:105550007047014600204A6902F03800704730B5B4
:1055600003460A4600200024464DAB4202D2414980
:10557000103901E04349103902F000550DB14C6873
:1055800000E00C68414D2C4004EA02050DB10120F9
:1055900000E0002030BD02463A4B9A4202D2354824
:1055A000103801E03748103801F000531BB1374B79
:1055B0000B40C36002E0354B0B408360704710B571
:1055C00001F080034BB122B1436943F08003436192
:1055D00003E0436923F08003436180290BD02AB1A3
:1055E000036801F01E042343036004E0036801F034
:1055F0001E04A343036010BD70B5024600200024C2
:105600000025204EB24202D21A4B103B01E01D4B46
:10561000103B1F4E0E4036B11E2606EAD1241668F6
:1056200006EA040502E0566906F0800501F000561E
:105630000EB15C6800E01C68144E344004EA0106B8
:1056400016B10DB1012000E0002070BD02460D4BE7
:105650009A4202D20748103801E00A48103801F097
:1056600000531BB1094B0B40C36002E0074B0B40DA
:1056700083607047106002403D000020400F002012
:1056800000003D20106402403F801CF07D0F7D0F24
:105690003C0F3C0F002044490860091D0860091DAB
:1056A0000860091D086041483F491431086070478F
:1056B00000213D498279002A3AD00A4612680368DF
:1056C0009A430B461A600A1D126803689A430B1D21
:1056D0001A60027911440A6803681A430A60324A60
:1056E0000832126803689A432F4B08331A601A1D58
:1056F000126803689A432C4B0C331A604279102AC3
:105700000ED11A1F126803681A43274B08331A6018
:105710001A1D126803681A43234B0C331A600DE0FC
:105720002149427911440A6803681A430A6005E076
:10573000027911440A6803689A430A60704700219D
:10574000016001710C21417100218171704716497E
:10575000103109680143144A103211607047014644
:105760000020114A143212680A400AB1012000E0F8
:10577000002070470C491431086070470146002032
:105780000022094B1B6803EA0102074B14331B6814
:105790000B4013B10AB1012000E00020704702491C
:1057A0001431086070470000003C0140FFFF7F009B
:1057B00010B504468C48844208D10121084600F007
:1057C00000FB0021012000F0FCFA5EE087488442E3
:1057D00008D10121022000F0F4FA0021022000F09B
:1057E000F0FA52E08248844208D10121042000F0FE
:1057F000E8FA0021042000F0E4FA46E07D48844203
:1058000008D10121082000F0DCFA0021082000F076
:10581000D8FA3AE07848844208D10121102000F0FB
:10582000D0FA0021102000F0CCFA2EE07348844218
:1058300008D10121202000F0C4FA0021202000F02E
:10584000C0FA22E06E48844208D10121402000F0D5
:10585000B8FA0021402000F0B4FA16E0694884420A
:1058600008D10121802000F0ACFA0021802000F056
:10587000A8FA0AE06448844207D10121801500F0AB
:10588000A0FA0021A01500F09CFA10BDF0B50A4660
:1058900000210023002400BF3DE0012505FA01F3AB
:1058A000156805EA03049C4234D105684F000326BD
:1058B000BE40B543056015794E00B54006683543D6
:1058C00005601579012D02D01579022D16D1856854
:1058D0004F000326BE40B543856055794E00B54064
:1058E000866835438560456801268E40B54345602E
:1058F000456896798E40B6B235434560C5684F001D
:105900000326BE40B543C560D5794E00B540C66894
:105910003543C560491C1029BFD3F0BD4FF6FF7158
:1059200001600021017141718171C171704708B539
:105930004FF480320092009A0A430092009AC261AA
:10594000C161009AC261C2690092C269009208BD39
:105950000246002013690B400BB1012000E000203B
:1059600070470146086980B27047024600205369BB
:105970000B400BB1012000E0002070470146486950
:1059800080B2704701837047418370470AB1018339
:1059900000E0418370474161704742694A4042617B
:1059A0007047F0B5002300244D07ED0E02FA05F311
:1059B000CE1000F1200555F826504E07F70E0F26A1
:1059C000BE40B543CF1000F1200646F82750CE1058
:1059D00000F1200555F8265045EA0304CE1000F1E9
:1059E000200545F82640F0BD0000024000040240BA
:1059F00000080240000C0240001002400014024067
:105A000000180240001C024000200240FA480068D2
:105A100040F00100F84908600020F74908310860AB
:105A2000F5480068F5490840F3490860F448091D45
:105A30000860081F006820F48020091F086000200B
:105A4000ED490C31086070470021EB4A921C11703F
:105A500011460870704710B501460022002300204F
:105A60004A11012A02D1E44C236808E0022A03D13A
:105A7000E14C7034236802E0DF4C7434236801F099
:105A80001F02012494401C400CB1012000E00020C2
:105A900010BD38B5002000900024002500BF312043
:105AA000FFF7D9FF05460098401C00900098B0F51C
:105AB000A06F01D0002DF2D03120FFF7CCFF08B14C
:105AC000012400E00024204638BD01460020CA4AD7
:105AD000106820F0F80040EAC10010607047C94922
