:020000040800F2
:10000000F81E00205954000825060008270600089D
:10001000370600083B0600083F0600080000000005
:100020000000000000000000000000006B54000809
:1000300043060008000000006F54000871540008D7
:100040007354000873540008735400087354000874
:100050007354000873540008735400087354000864
:1000600073540008710D000873540008735400089D
:1000700027190008271D00086D190008FD1C00083D
:100080007354000873540008735400082D0C0008C2
:10009000490C00086D0C00087354000873540008E4
:1000A0007354000873540008735400087354000814
:1000B0007354000873540008735400087354000804
:1000C00073540008735400087354000873540008F4
:1000D000735400084708000807140008ED170008CB
:1000E00073540008735400087354000873540008D4
:1000F000735400087354000873540008DD1F00088F
:100100007354000873540008550F00087354000816
:10011000B11B0008651F00087354000873540008E1
:10012000735400084D230008610900087354000847
:100130007354000873540008735400087354000883
:100140007354000873540008735400087354000873
:10015000735400086B230008770900089B220008ED
:100160007354000873540008735400087354000853
:100170007354000873540008735400087354000843
:10018000735400087354000800F002F800F092F86D
:100190000AA090E8000C82448344AAF10107DA45E2
:1001A00001D100F087F8AFF2090EBAE80F0013F0A2
:1001B000010F18BFFB1A43F001031847F07A000043
:1001C000107B0000103A24BF78C878C1FAD85207D3
:1001D00024BF30C830C144BF04680C6070470000C1
:1001E0000023002400250026103A28BF78C1FBD840
:1001F000520728BF30C148BF0B6070476E2905F019
:100200002182702905F06383662907F07F846529C0
:1002100007F07C84672907F07984612907F07884E6
:1002200003681B0A28BF41F08001692905F0CE81CF
:10023000642905F0CB81752905F0C8816F2905F087
:10024000F082782905F02F83E92905F08B82E429D3
:1002500005F08882F52905F08582EF2905F0ED8209
:10026000F82905F02E830368DB0928BF41F08001DF
:10027000632906F03180732906F03680E32906F001
:100280004180F32906F04680002070471FB507F033
:1002900033FC06F091F804000020002106F09EFFD8
:1002A000401C60600020002106F082FFE0601FBD5E
:1002B00010B510BD06F052F81146FFF7E7FF00F049
:1002C00063F906F02FF903B4FFF7F2FF03BC01F066
:1002D000D3F9000010B54FF4A06002F053FBA82042
:1002E00000F06CFB01F04CF94FF4E13000F0B2F992
:1002F00001F00CF8012000F0F1FB532140F2CF7027
:1003000000F0F0FD40F6B83000F0BAFBA4A000F019
:1003100011FB10BD884201DD084603E04A429042CD
:1003200000DA4842704708B5A2480078401CA1494D
:100330000870084600780A280FDD9F480068009082
:100340009E48B0F900309E4802889E4801889EA0D1
:1003500000F0F0FA00209749087008BD2DE9F0413F
:100360002DED088B00260025002400279FED9E0A16
:10037000B0EE408A9D48007800286ED090480088F2
:10038000A0F57A7005B28F480088A0F57A7004B2A3
:10039000002C01DD204600E06042502859DD002D90
:1003A00001DD284600E06842502852DD94FBF5F854
:1003B000404607F096F941EC1B0BB0EE4B0AF0EE0D
:1003C0006B0A06F0DDFCB0EE40AAF0EE60AA9FEDED
:1003D000880B53EC102B51EC1A0B07F099F941ECF8
:1003E000190B06F01DFF08EE100A502C15DD15F153
:1003F000500F12DA9FED800A38EE000AB0EE408A04
:10040000002C01DD204600E06042002D01DD294680
:1004100000E06942084406B251E014F1500F15DAC9
:1004200015F1500F12DA9FED740A38EE400AB0EE63
:10043000408A002C01DD204600E06042002D01DDF5
:10044000294600E06942084406B238E0601906B265
:1004500035E0002C02DD204601E091E060425028AA
:1004600019DD002D01DD284600E06842502812DA2F
:10047000502C07DD9FED610AB0EE408A6042401BC0
:1004800006B21CE0502C1ADA9FED5D0AB0EE408AED
:10049000601906B213E0002C01DD204600E0604246
:1004A00050280CDA002D01DD284600E06842502873
:1004B00005DD9FED4D0AB0EE408A601906B2514845
:1004C0000088A0F57A70002804DD4E480088A0F569
:1004D0007A7003E04B480088C0F57A70502812DD2E
:1004E00048480088A0F57A7006B2704200B23349DD
:1004F0000880704200B2444908804448068044485D
:10050000068000270FE02D4806803F4806803F48C0
:1005100006803F4806809FED3F0A28EE000ABDEEA8
:10052000C00A10EE107A244807604FF44831006882
:10053000FFF7F0FE404220490860374807604FF45B
:1005400048310068FFF7E6FE40423349086033480F
:1005500007604FF448310068FFF7DCFE40422F4946
:1005600008602F4807604FF448310068FFF7D2FE5B
:1005700040422B49086000201C490870FFF7D3FE59
:10058000BDEC088BBDE8F081FFF7A4FE02F064F833
:10059000642000F075FA01E0FFF7E0FEFCE70000E0
:1005A00073797320696E69742066696E6973682156
:1005B0000D0A000001000020980000208C0000209F
:1005C0001E0000201C0000206368303A2564206370
:1005D00068313A25642073703A2564206F6D673A5C
:1005E00025640D0A0000000000000000300000201B
:1005F000000000C0F5A84C40000034430000B442A5
:100600000000B4C2220000208E00002090000020D4
:1006100092000020CD380E459C000020A000002054
:10062000A4000020704705E006A000F083F96420D4
:1006300000F026FAF8E700BFFEE700BFFEE700BFC4
:10064000FEE77047686172646661756C742E2E2EC9
:100650000D0A000010B596B004460121084603F0CB
:100660000FFC0121102003F04FFC07220921CA488A
:1006700003F04BFA07220A21C74803F046FA00208C
:100680008DF8560001208DF8570002208DF8540097
:100690000002149002208DF8550014A9BE4803F002
:1006A000A9F902208DF854004002149014A9BA4808
:1006B00003F0A0F9B94804F073FB10940020ADF8E2
:1006C0004400ADF84600ADF84800ADF84C000C20F1
:1006D000ADF84A0010A9B14804F0B0FB002240F286
:1006E0002551AE4804F0E8FC002240F22661AB48F8
:1006F00004F0E2FC012240F22441A84804F0DCFCB2
:100700000121A64804F022FC0121880503F0B8FB72
:1007100001224021A14804F0C6FC012280219F480B
:1007200004F0C1FC25208DF83C0001208DF83D002F
:100730008DF83E008DF83F000FA802F028F9462002
:100740008DF83C0002208DF83D008DF83E00012020
:100750008DF83F000FA802F01AF93A208DF83C00FE
:1007600000208DF83D0002208DF83E0001208DF81C
:100770003F000FA802F00BF9894802F06BFE4FF022
:10078000006000908548001D01908648029000207E
:10079000039080200490002005904FF48060069024
:1007A0000020079008904FF4807009904FF440307B
:1007B0000A9000200B900C900D900E90694678489E
:1007C00002F0EAFE0121764802F020FF74487830FA
:1007D00002F040FE4FF0006000907048001D019054
:1007E00071480290402003908020049000200590E2
:1007F0004FF48060069000200790089009904FF415
:1008000080300A9000200B900C900D900E9069465D
:100810006348783002F0C0FE012280215F4804F076
:1008200042FC012210215E48783002F07CFF00215A
:100830005B48783002F0EAFE16B010BD0246506800
:10084000081A80B2704770B50024002540F2255187
:10085000524804F06CFC18B1504804F0A6FBC4B236
:1008600040F224414D4804F062FCE8B180214C483C
:10087000FFF7E4FF4D4908800021494802F0C6FE19
:1008800000BF474802F00FFF0028FAD180214448FA
:1008900002F0DDFE0121424802F0B8FE3F48008828
:1008A000C5B23E488088C5B270BD10B5044600BFD1
:1008B00020213A4804F025FC0028F9D0374804F0FC
:1008C00074FB10BD70B504460D4639480078F0B988
:1008D00000213348783002F099FE00BF304878306C
:1008E00002F0E1FE0028F9D1002221462C487830A0
:1008F00002F0CAFEA9B22A48783002F0A8FE01210F
:100900002748783002F082FE01202949087070BD26
:1009100070B505460E46002400BF04E0285D22495C
:100920000855601CC4B2B442F8DB31461E48FFF7DC
:10093000C9FF70BD0FB438B505A800901A48009AD9
:10094000049904F0ABFD00200090174804F0B8FDB6
:10095000044621461448FFF7B5FF38BC5DF814FB88
:1009600010B514490E4802F0FBFE18B111490C48AD
:1009700002F020FF10BD10B50F490948783002F091
:10098000EFFE38B100200A4908700B49044878305E
:1009900002F010FF10BD00000000024000100140F6
:1009A00040640240D00000205001002006000020DA
:1009B00002000020008020100080002810B50446AE
:1009C0006FF0040002F030F8E11704EB5171C1F34D
:1009D000C701404A11701046007800EB4001C1EB9E
:1009E000C0104FF6FF7101EAC0003B49088010BDFE
:1009F0000146384A12784A434FF0E0235A610022F8
:100A00009A611A46126942F001021A6100BF4FF062
:100A1000E022106900F001021AB100F48032002ACD
:100A2000F5D04FF0E022126922F001024FF0E023EE
:100A30001A6100229A6170470146274A12884A4388
:100A40004FF0E0235A6100229A611A46126942F07F
:100A500001021A6100BF4FF0E022106900F00102AC
:100A60001AB100F48032002AF5D04FF0E02212696A
:100A700022F001024FF0E0231A6100229A617047D0
:100A800070B504464FF4077094FBF0F0C6B24FF413
:100A9000077094FBF0F100FB114085B205E04FF4C4
:100AA0000770FFF7C9FF701EC6B2002EF7D115B14F
:100AB0002846FFF7C1FF70BD10B5002107E04AF2DC
:100AC000104200BF131EA2F10102FBD1491C81425A
:100AD000F5D310BD080000200A00002010B58AB030
:100AE00004460121084603F0CBF90121480603F032
:100AF000FAF909220C21794803F007F809220B21A1
:100B0000764803F002F84FF4C050019002208DF8AF
:100B1000080000208DF80A0003208DF8090001A9C3
:100B20006E4802F067FF14208DF8000001208DF858
:100B3000010002208DF8020001208DF803006846B4
:100B400001F025FF15208DF8000001208DF801002F
:100B500002208DF8020001208DF80300684601F0A4
:100B600016FF13208DF8000001208DF801008DF88C
:100B700002008DF80300684601F009FF584801F0B3
:100B800071FF07A802F092F800208DF822008DF87E
:100B900023008DF824008DF825008DF82600012013
:100BA0008DF8270000208DF81E008DF81F0008200A
:100BB0008DF8200003208DF821000620ADF81C00E0
:100BC00007A9474801F067FF00208DF816008DF84F
:100BD000170001208DF818004FF6FF7000EA44104E
:100BE000ADF80C000020ADF80E004FF6FF70ADF828
:100BF0001000401EADF812000020ADF814000120D6
:100C00008DF8190003A801F0D0FF01220221344819
:100C100002F0CAFA01221021314802F0C5FA01227D
:100C200011462F4802F0C0FA0AB010BD10B50121DC
:100C30002B4802F021FB30B101202A490870012124
:100C4000274802F0B4FB10BD00B585B0022124484E
:100C500002F012FB40B10221214802F0A8FB6A46D3
:100C600000211F4802F085F905B000BD00B585B030
:100C700010211B4802F000FB48B11021184802F077
:100C800096FB6A460121164802F073F900BF05B0D1
:100C900000BD2DE9F04186B006460F4615460024FA
:100CA000A04600208DF80C008DF80D008DF80E5038
:100CB000019600BF05E0395D0DF10F000155601C84
:100CC000C4B2AC42F7DB00BF01A9054802F05CF8F2
:100CD0000428F9D006B0BDE8F08100000000024011
:100CE000006400400C0000201CB50121022003F02C
:100CF000C7F80121042003F0F6F8684602F0C2FEAE
:100D0000C020009002208DF8040003208DF805001B
:100D100001208DF807006946FE4802F06BFE0222B2
:100D20000621FC4802F0F1FE02220721F94802F0F8
:100D3000ECFE00231A460321F74804F000F847F6BA
:100D4000FF70F549243108600121F34803F00CFBE2
:100D50001CBDF149243102680968A1F5FE41FF3943
:100D60001144016047F6FF71EB4A2432116070476D
:100D700010B5EA480068401CE8490860082002F005
:100D8000C2FD10BD00B585B00121880303F0BCF899
:100D90000121022003F074F80820009000208DF853
:100DA000040003208DF8050001208DF80700694636
:100DB000D84802F01FFE0321012004F00DFA08209C
:100DC000029000208DF80C000C208DF80D00012001
:100DD0008DF80E0002A802F01FFD09208DF810000A
:100DE00003208DF8110002208DF8120001208DF8EB
:100DF000130004A801F0CBFD05B000BD30B58BB0E9
:100E000005460C460121022003F03AF80121022098
:100E100003F069F809A802F035FE3320099002209A
:100E20008DF8280003208DF8290009A9B94802F09F
:100E3000E1FD02220421B74802F067FE02220521EB
:100E4000B44802F062FE02220021B24802F05DFEC8
:100E500002220121AF4802F058FEB14803F04EF9DA
:100E60000795ADF818400020ADF82000ADF81A0045
:100E700006A9AB4803F0EFF901A803F0A5FB602039
:100E8000ADF804000120ADF806000020ADF8100018
:100E900001A9A34803F074FA01A9A14803F0A9FA33
:100EA00001A99F4803F0F2FA01A99D4803F054FB01
:100EB00008219B4803F0F1FB0821994803F0F6FB59
:100EC0000821974803F0FFFB0821954803F004FC34
:100ED0000121934803F02AFA0121914803F044FAD2
:100EE0000BB030BD7FB505460C460121082002F04D
:100EF000FAFF8C4803F002F90295ADF80440002097
:100F0000ADF80C00ADF806008DF80E0001A985487B
:100F100003F0A1F90121834803F008FA0121814877
:100F200003F04EFE012211467E4803F035FE0121FA
:100F30007C4803F019FA32208DF8000000208DF86B
:100F4000010001208DF802008DF80300684601F0D1
:100F50001EFD7FBD10B50121724803F034FE00284C
:100F600070D001207049087070480078401C6F49AB
:100F7000087008460078102801DD012008706B48D1
:100F80000078112873D2DFE800F07209131D2731B1
:100F9000373D41474D51575E62686E006448B0F975
:100FA000000000EB80004100012001F0C9FC5EE080
:100FB0006048B0F9000000EB80004100022001F021
:100FC000BFFC54E05C48B0F9000000EB8000410039
:100FD000032001F0B5FC4AE05848B0F9000000EBEE
:100FE00080004100042001F0ABFC40E0544801685F
:100FF000052001F0EDFA3AE052480188052001F0A1
:1010000085FC34E0052001F0D6FA30E04C48016858
:10101000062001F0DDFA2AE04A480188062001F0A6
:1010200075FC24E0062001F0C6FA20E0444801687F
:10103000072001F0CDFA1AE042480188072001F0AC
:1010400065FC14E018E0072001F0B5FA0FE03C4819
:101050000168082001F0BCFA09E03A48018808203C
:1010600001F054FC03E0082001F0A5FA00BF00BF26
:1010700001212C4803F0B8FD10BD30B58BB00546FA
:101080000C460121102002F0FBFE0121084602F06F
:101090003BFF09A802F0F6FC4FF4C440099002207F
:1010A0008DF8280003208DF8290009A9264802F0B0
:1010B000A1FC01220921244802F027FD01220D2173
:1010C000214802F022FD01220E211F4802F01DFDE1
:1010D0001E4803F013F80795ADF818400020ADF84E
:1010E0002000ADF81A008DF8220006A9174803F079
:1010F000B2F801A803F068FA6020ADF804000120FE
:10110000ADF806000020ADF81000039001A90F48CB
:101110001EE0000000040240000800401000002013
:1011200000040040000C00401400002018000020C3
:101130008C0000208E0000209000002092000020F3
:10114000A400002016000020001002400000014012
:1011500003F016F901A9684803F098F901A9664857
:1011600003F0FAF90821644803F097FA082162486D
:1011700003F0A9FA0821604803F0AEFA01215E48A5
:1011800003F0D4F801215C4803F0EEF801215A483D
:1011900003F0DBFC0BB030BD30B58BB005460C4620
:1011A0000121022002F06CFE0121402002F09BFE92
:1011B00009A802F067FC4FF40040099002208DF866
:1011C000280000208DF82A0003208DF82900002037
:1011D0008DF82B0009A9494802F00CFC09220F21C7
:1011E000464802F092FC464802F088FF0795ADF8A9
:1011F00018400020ADF82000ADF81A0006A94048BC
:1012000003F029F801A803F0DFF97020ADF804001D
:101210000120ADF806000020ADF81000039001A9F0
:10122000374803F0E6F80821354803F03FFA01217A
:10123000334803F07BF80121314803F095F80BB0F7
:1012400030BD30B58BB005460C460121042002F0BC
:1012500017FE0121022002F057FE09A802F012FC3D
:101260004FF40070099002208DF8280000208DF8BE
:101270002A0003208DF8290000208DF82B0009A9F1
:10128000204802F0B7FB032209211E4802F03DFC72
:101290001D4802F033FF0795ADF818400020ADF867
:1012A0002000ADF81A008DF8220006A9164802F0B9
:1012B000D2FF01A803F088F96020ADF804000120F6
:1012C000ADF806000020ADF81000039001A90E480B
:1012D00003F042F908210C4803F0FEF901210A4805
:1012E00003F024F80121084803F03EF801210648E4
:1012F00003F02BFC0BB030BD0000014000040240A5
:1013000000180040000802400004014000B587B00A
:101310000121864802F0B4FD0121480402F0E3FDFA
:1013200007220321824802F0F0FB082005900220EA
:101330008DF8180000208DF81A0003208DF8190090
:1013400000208DF81B0005A9794802F053FB79486D
:1013500003F026FD784801900020ADF808004FF416
:101360000050ADF80A00C010ADF80C000420ADF834
:101370000E000020ADF8100001A96E4803F05EFDDC
:10138000012240F225516B4803F096FE0121694885
:1013900003F0DCFD26208DF8000000208DF8010010
:1013A00001208DF802008DF80300684601F0EFFA85
:1013B00007B000BD70B52DED048B04465F48B0F951
:1013C00000006438A04207DA5C48B0F900006430DD
:1013D000844201DA002503E058480088001B05B26A
:1013E000284606F07EF941EC190B9FED550B53ECA6
:1013F000102B06F08DF941EC180B06F043F900B202
:10140000BDEC048B70BD10B540F22551494803F086
:101410008EFE00287ED0474803F0C7FD4A49087079
:101420004A48007838B9084600780F282AD1FF20AA
:101430004649087026E0444800784549454A1278F4
:10144000885444480078172811D10846C07D0228E6
:1014500002D00846C07D18B9FF203F49087006E059
:1014600000203A4908703C4908703A4908703948E8
:101470000078401C3749087008460078182801DDBC
:10148000002008703448007800284DD0304800789B
:101490002F49497840EA0120C0F30A002F4908800B
:1014A0002B48807840012A49497840EAE100C0F39E
:1014B0000A002B4908802648807880112449C97881
:1014C00040EA81002249097940EA8120C0F30A00FC
:1014D000244908801E48007940101D49497940EA96
:1014E000C110C0F30A00204908801948407A00F072
:1014F0000F001E4908801648807900F00F00401C3C
:101500001B490880002011490870134908701149CF
:10151000087000E008E017490860012016490870CB
:101520000421164802F0EDFA10BD00000100200071
:101530000000024000440040A0860100320000206C
:10154000000000000000F83F480000204A00002092
:10155000D0010020490000204B0000201C0000208A
:101560001E00002020000020220000203E0000205D
:10157000420000202C00002030000020001002401B
:101580001CB50121162002F07BFC042000900120F4
:101590008DF8040000208DF8060003208DF805006A
:1015A00001208DF8070069462F4802F023FA4FF416
:1015B0000070009069462D4802F01CFA4FF48040FC
:1015C000009069462A4802F015FA1CBD1CB501219D
:1015D000182002F055FC7020009001208DF80400C6
:1015E00000208DF8060003208DF8050001208DF8FD
:1015F000070069461C4802F0FDF970211A4802F004
:1016000077FA3020009001208DF8040000208DF83A
:10161000060003208DF8050001208DF807006946BB
:10162000144802F0E7F93021124802F061FA1CBDBB
:101630001CB50121102002F023FC70200090012035
:101640008DF8040000208DF8060003208DF80500B9
:1016500001208DF807006946034802F0CBF970219C
:10166000014802F045FA1CBD00100240000802408B
:1016700000040240000C024000BF704700BFFE4A59
:10168000128802F04002002AF9D0C2B2FA4B9A80C6
:10169000704710B596B004460121880402F023FC7F
:1016A0000121022002F0ECFB0121480502F0E8FBD9
:1016B00007220A21F14802F028FA07220B21EF48FD
:1016C00002F023FA14A802F0DDF94FF480601490C0
:1016D00002208DF8540003208DF8550014A9E74826
:1016E00002F088F94FF40060149002208DF8540045
:1016F00003208DF8550014A9E04802F07BF9E0487A
:1017000003F04EFB10A803F0FFFB10940020ADF88F
:101710004400ADF84600ADF84800ADF84C000C2090
:10172000ADF84A0010A9D64803F088FB012240F228
:101730002551D34803F0C0FC27208DF83C00002041
:101740008DF83D0001208DF83E008DF83F000FA878
:1017500001F01DF90121CA4803F0F8FB0E208DF8B5
:101760003C0001208DF83D0002208DF83E00012054
:101770008DF83F000FA801F00AF9C24801F06AFE97
:101780004FF000600090BE48001D0190BE480290DE
:101790004020039080200490002005904FF480604A
:1017A000069000200790089009904FF480300A902E
:1017B00000200B900C900D900E906946B14801F0FE
:1017C000EBFE01228021AE4803F06DFC01221021C6
:1017D000AC4801F0A8FF0021AA4801F017FF16B09D
:1017E00010BD02465068081A80B2704770B50024D8
:1017F00000BF40F22551A24803F099FC002832D0E6
:101800009F4803F0D2FBC4B2A048007830B97F2CC7
:1018100004D101209D490870002048819B48007830
:1018200001281BD19948408999490C54974840890F
:10183000401C9649488108464089032801D1084642
:1018400004819248408991490989884206DB8F4882
:101850004089032802DD00208C49087040F22551A0
:10186000874803F09BFC40F22441854803F05FFC6D
:1018700028B34FF4007183483038FFF7B2FF854931
:10188000088000217F48303801F0C0FE00BF7D484D
:10189000303801F008FF0028F9D17E4801887948E6
:1018A000303801F0D4FE01217648303801F0AEFE28
:1018B00073480088C5B27248001D0088C5B270BD6B
:1018C00070B504460D4674480078C8B900216D48CB
:1018D00001F09CFE00BF6B4801F0E5FE0028FAD144
:1018E00000222146674801F0CFFEA9B2654801F009
:1018F000AEFE0121634801F089FE012066490870AF
:1019000070BD70B505460E46002400BF04E0285D9A
:101910005D490855601CC4B2B442F8DB31465A48F0
:10192000FFF7CEFF70BD10B55C495648303801F066
:1019300017FF20B159495348303801F03BFF10BD23
:101940000FB438B505A800904F48009A049903F0E9
:10195000A5FD002000904C4803F0B2FD044621464E
:101960004948FFF7ADFF38BC5DF814FB10B54C4992
:10197000444801F0F5FE30B100204749087048495D
:10198000404801F017FF10BD10B596B00446012184
:10199000C80402F0A8FA0121042002F071FA012122
:1019A000480502F06DFA08220A213E4802F0ADF81F
:1019B00008220B213B4802F0A8F814A802F062F8B4
:1019C0004FF48060149002208DF8540003208DF8AD
:1019D000550014A9334802F00DF84FF4006014903C
:1019E00002208DF8540003208DF8550014A92D48CD
:1019F00002F000F810A803F087FA10940020ADF868
:101A00004400ADF84600ADF84800ADF84C000C209D
:101A1000ADF84A0010A9244803F010FA0D208DF803
:101A20003C0002208DF83D008DF83E0001208DF82D
:101A30003F000FA800F0ABFF1248183801F00AFD74
:101A40004FF0006000901848001D01901748029068
:101A50000020039080200490002005904FF48060C7
:101A600006900020079008904FF480700990400283
:101A70000A9000200B901BE000100140000402407F
:101A80000048004058600240F0010020700400202F
:101A9000700200205C00002054000020008800102C
:101AA0000080001800080240004C004000050020A3
:101AB0000C900D900E906946FE4801F06DFD0122DC
:101AC0004021FD4803F0EFFA0121FA4801F09EFDA4
:101AD000002240F22551F84803F0EEFA002240F2CD
:101AE0002661F54803F0E8FA012240F22441F24869
:101AF00003F0E2FA34208DF83C0002208DF83D001E
:101B000003208DF83E0001208DF83F000FA800F063
:101B10003EFF0121E84803F019FAE648303001F0B1
:101B200099FC4FF000600090E348001D0190E348ED
:101B300002904020039080200490002005904FF4F4
:101B40008060069000200790089009904FF4803044
:101B50000A9000200B900C900D900E906946D5488D
:101B6000303001F019FD01228021D34803F09BFAA7
:101B700001221021CF48303001F0D5FD0021CD48A1
:101B8000303001F043FD0F208DF83C0002208DF82D
:101B90003D008DF83E0001208DF83F000FA800F0B9
:101BA000F6FE16B010BD02465068081A80B27047A3
:101BB00070B50024002540F22551BF4803F0B7FA64
:101BC00000283DD0BC4803F0F0F9C4B2BC4800780E
:101BD00050B9552C08D10120B9490870002048811E
:101BE00008464089B7490C54B5480078012811D1FE
:101BF000B348407870B9532C08D10120B0494870DF
:101C0000488108464089AF490C5403E00020AC49A4
:101C100008704870AA48007801280CD1A84840787C
:101C2000012808D1A6484089A6490C54A4484089F7
:101C3000401CA349488140F225519F4803F0AEFA69
:101C400040F224419C4803F072FAF0B18021994897
:101C5000FFF7A9FF9C4908700021964801F0D6FCC7
:101C600000BF944801F01FFD0028FAD1802191485F
:101C700001F0EDFC01218F4801F0C8FC8E4800887E
:101C8000C5B28D48001D0088C5B270BD70B5044650
:101C90000D468E480078F0B900218648303001F0BA
:101CA000B5FC00BF8348303001F0FDFC0028F9D1BD
:101CB000002221467F48303001F0E6FCA9B27D4881
:101CC000303001F0C4FC01217A48303001F09EFC34
:101CD00001207E49087070BD70B505460E4600248F
:101CE00000BF04E0285D75490855601CC4B2B442C9
:101CF000F8DB31467148FFF7C9FF70BD10B5744974
:101D00006C48303001F02CFD60B100206F49087044
:101D100070496848303001F0F2FC6E496548303057
:101D200001F048FD10BD10B56B49624801F018FD87
:101D300048B14FF081515F4801F0E1FC4FF0815113
:101D40005C4801F037FD10BD10B596B00446012186
:101D5000042002F095F80121082002F091F80121F9
:101D6000080502F0C0F80121480502F089F80822B0
:101D700002215A4801F0C9FE08220C21584801F0FE
:101D8000C4FE0420149002208DF8540003208DF826
:101D9000550000208DF8560001208DF8570014A939
:101DA0004E4801F027FE4FF48050149014A94C487F
:101DB00001F020FE10940020ADF84400ADF846007C
:101DC000ADF84800ADF84C000C20ADF84A0010A961
:101DD000444803F033F80B208DF83C0002208DF8C6
:101DE0003D008DF83E0001208DF83F000FA800F067
:101DF000CEFD3048303801F02DFB4FF000600090F0
:101E00003848001D0190384802900020039080203F
:101E10000490002005904FF4806006900020079009
:101E200008904FF48070099040020A9000200B90B7
:101E30000C900D900E9069461E48303801F0ACFBB6
:101E400001224021274803F02EF90121194830389A
:101E500001F0DCFB002240F22551224803F02CF96E
:101E6000002240F226611F4803F026F9012240F2C9
:101E700024411C4803F020F935208DF83C00002057
:101E80008DF83D0001208DF83E008DF83F000FA831
:101E900000F07DFD0121134803F058F82F208DF844
:101EA0003C0002208DF83D008DF83E0001208DF8A9
:101EB0003F001BE040600240004C004080040020D6
:101EC0008005002000050020600000206100002047
:101ED000208000202000002000802010000C024004
:101EE00000080240005000408C0500200FA800F0C0
:101EF0004EFDFE4801F0AEFA4FF000600090FC4845
:101F00000190FC4802904020039080200490002023
:101F100005904FF48060069000200790089009908B
:101F20004FF480300A9000200B900C900D900E9092
:101F30006946EE4801F030FB01228021EC48001F89
:101F400003F0B1F801221021E84801F0ECFB002178
:101F5000E64801F05BFB16B010BD02465068081A57
:101F600080B2704770B50024002540F22551E0484A
:101F7000001F03F0DCF820B1DD48001F03F015F866
:101F8000C4B240F22441DA48001F03F0D0F820B375
:101F90008021D648A838FFF7E0FFD7490870002114
:101FA000D248A83801F032FB00BFD048A83801F071
:101FB0007AFB0028F9D18021CC48A83801F047FBF2
:101FC0000121CA48A83801F021FBC948001F008838
:101FD000C5B2C748001F8088C5B270BD10B5C749DB
:101FE000C24801F0BDFB60B10020C54908704FF048
:101FF0002051BE4801F083FB4FF02051BB4801F057
:10200000D9FB10BD70B504460D46BD480078C8B96F
:102010000021B64801F0FAFA00BFB44801F043FBD2
:102020000028FAD100222146B04801F02DFBA9B2C8
:10203000AE4801F00CFB0121AC4801F0E7FA0120A9
:10204000AF49087070BD70B505460E46002400BF4C
:1020500004E0285DA7490855601CC4B2B442F8DB0F
:102060003146A448FFF7CEFF70BD10B596B00446C8
:102070000121202001F048FF0121042001F000FF90
:102080000121880501F0FCFE082206219D4801F08F
:102090003CFD082207219B4801F037FD14A801F000
:1020A000F1FC4020149002208DF8540003208DF89C
:1020B000550014A9934801F09DFC80201490022043
:1020C0008DF8540003208DF8550014A98D4801F0B7
:1020D00091FC8D4802F064FE10A802F015FF1094E8
:1020E0000020ADF84400ADF84600ADF84800ADF86A
:1020F0004C000C20ADF84A0010A9834802F09EFE67
:1021000039208DF83C0002208DF83D008DF83E000E
:1021100001208DF83F000FA800F039FC7B4801F04A
:1021200099F94FF0206000907748001D01907848A1
:102130000290002003904FF48060049000200590EE
:102140004FF4806006900020079008904FF4807054
:10215000099040020A9000200B900C900D900E9078
:1021600069466A4801F018FA01224021664802F0E7
:102170009AFF0121654801F049FA002240F22551F9
:10218000614802F099FF002240F226615E4802F0A9
:1021900093FF012240F224415B4802F08DFF47206B
:1021A0008DF83C0001208DF83D008DF83E008DF843
:1021B0003F000FA800F0EBFB0121534802F0C6FEE0
:1021C00045208DF83C0002208DF83D008DF83E0042
:1021D00001208DF83F000FA800F0D9FB4B48783064
:1021E00001F038F94FF0206000904748001D019041
:1021F0004848029040200390000104900020059080
:102200004FF48060069000200790089009904FF4EA
:1022100080300A9000200B900C900D900E90694633
:102220003A48783001F0B8F901228021364802F0AE
:102230003AFF012210213548783001F074FA00216C
:102240003248783001F0E2F916B010BD012080F379
:10225000138800BF00BF00BF00BF00BF00BFBFF3B7
:102260004F8F00BF00BF00BF2B48006800F4E06044
:102270002A490843001D2849086000BF00BF00BF6D
:10228000BFF34F8F00BF00BF00BF00BF00BFFDE71F
:1022900002465068081A80B2704770B500240025C5
:1022A00040F22441184802F042FFD8B34FF4806155
:1022B0001648FFF7EDFF1A490880084601781448D0
:1022C000FEF726FB0021114801F0A0F900BF0F48DE
:1022D00001F0E9F90028FAD14FF480610B4801F0D0
:1022E000B6F90121094801F091F91CE0B8600240FB
:1022F000045000400C0600206300002000800028ED
:1023000062000020000802400014014028640240DE
:10231000980A0020980600200CED00E00000FA0565
:102320006600002006E04F480088C5B24D48001DF9
:102330000088C5B240F225514A4802F0F8FE20B1AB
:1023400040F22551474802F029FF70BD10B54649BB
:10235000464801F005FA38B14549444801F0CFF943
:102360004149424801F026FA10BD10B541493F48A5
:10237000783001F0F5F960B100203F4908703D491F
:102380003A48783001F0BBF93A493848783001F0E2
:1023900011FA10BD70B504460D4637480078F0B903
:1023A00000213248783001F031F900BF2F487830F1
:1023B00001F079F90028F9D1002221462B48783024
:1023C00001F062F9A9B22948783001F040F9012101
:1023D0002648783001F01AF901202749087070BDAD
:1023E00070B505460E4600244FF48071234801F075
:1023F0007DFB00BF04E0285D21490855601CC4B284
:10240000B442F8DB31461E48FFF7C4FF4FF4807139
:102410001A4801F06DFB70BD1CB54FF4E130FFF7B9
:1024200024FE0121042001F02BFD684601F02AFB67
:102430004FF48070009001208DF8040000208DF88A
:10244000060002208DF8070003208DF8050069467C
:102450000A4801F0CFFA4FF48071084801F048FBB8
:102460001CBD0000001401400088001028640240D8
:1024700000080010008020207A00002000080240A0
:10248000980600207CB505460C46FEA103C9CDE99F
:102490000001200A8DF80500E0B28DF80400082242
:1024A00069462846FEF7F5FB7CBD7CB505460C4623
:1024B000F6A103C9CDE90001E0B28DF80400200ABD
:1024C0008DF80500200C8DF80600200E8DF8070011
:1024D000082269462846FEF7DCFB7CBD7CB5054634
:1024E0000C46ECA103C9CDE900018DF8044005229A
:1024F00069462846FEF7CDFB7CBD38B50446E7A00B
:1025000000680090022269462046FEF7C2FB38BDF3
:1025100010B586B00446E2A103C9CDE90401082242
:1025200004A904F5C060FEF7B4FB0A20FEF7A8FA80
:10253000DDA103C9CDE90201082202A904F5C060AA
:10254000FEF7A7FB0A20FEF79BFAD9A103C9CDE944
:1025500000010822694604F5C060FEF79AFB0A20D4
:10256000FEF78EFA06B010BD1CB50446D2A103C911
:10257000CDE900010822694604F5C060FEF789FB39
:102580001CBD1CB50446CEA103C9CDE9000108223B
:10259000694604F5C060FEF77CFB1CBD1CB5044613
:1025A000C9A103C9CDE900010822694604F5C0604C
:1025B000FEF76FFB1CBD1CB50446C5A103C9CDE9E0
:1025C00000010822694604F5C060FEF762FB1CBDED
:1025D0007CB505460C46C0A103C9CDE90001E0B2B7
:1025E0008DF80400200A8DF80500200C8DF80600F7
:1025F000200E8DF807000822694605F5C060FEF739
:1026000048FB7CBD1FB50446A5A003C8CDE9020167
:10261000082202A904F5C060FEF73BFB0A20FEF782
:102620002FFAA1A103C9CDE900010822694604F5EA
:10263000C060FEF72EFB0A20FEF722FA1FBD1CB574
:102640000446A7A103C9CDE900010822694604F5A3
:10265000C060FEF71EFB1CBD10B50520FFF7EFFFA5
:102660000A20FEF70DFA0520FFF77EFF0A20FEF78D
:1026700007FA0520FFF7C6FF0A20FEF701FA00213E
:102680000520FFF7A5FF0A20FEF7FAF90520FFF75E
:1026900092FF0A20FEF7F4F90520FFF77FFF0A20DA
:1026A000FEF7EEF90620FFF7CAFF0A20FEF7E8F969
:1026B0000620FFF759FF0A20FEF7E2F90620FFF790
:1026C000A1FF0A20FEF7DCF900210620FFF780FFBA
:1026D0000A20FEF7D5F90620FFF76DFF0A20FEF766
:1026E000CFF90620FFF75AFF0A20FEF7C9F90720A5
:1026F000FFF7A5FF0A20FEF7C3F90720FFF734FF15
:102700000A20FEF7BDF90720FFF77CFF0A20FEF73D
:10271000B7F900210720FFF75BFF0A20FEF7B0F9A9
:102720000720FFF748FF0A20FEF7AAF90720FFF766
:1027300035FF0A20FEF7A4F90820FFF780FF0A20E2
:10274000FEF79EF90820FFF70FFF0A20FEF798F921
:102750000820FFF757FF0A20FEF792F90021082012
:10276000FFF736FF0A20FEF78BF90820FFF723FF5B
:102770000A20FEF785F90820FFF710FF0A20FEF770
:102780007FF90120FFF7FDFE0A20FEF779F901200D
:10279000FFF7EAFE0A20FEF773F90120FFF7B8FE03
:1027A0000A20FEF76DF90220FFF7EBFE0A20FEF784
:1027B00067F90220FFF7D8FE0A20FEF761F9022030
:1027C000FFF7A6FE0A20FEF75BF90320FFF7D9FE0C
:1027D0000A20FEF755F90320FFF7C6FE0A20FEF790
:1027E0004FF90320FFF794FE0A20FEF749F9042071
:1027F000FFF7C7FE0A20FEF743F90420FFF7B4FEF7
:102800000A20FEF73DF90420FFF782FE0A20FEF7BA
:1028100037F910BD2DE9F04104460F4615461E4616
:1028200021460120FFF72EFE0A20FEF729F939463E
:102830000220FFF727FE0A20FEF722F9294603208F
:10284000FFF720FE0A20FEF71BF931460420FFF7B0
:1028500019FE0A20FEF714F9BDE8F0812DE9F041D8
:1028600004460F4615461E4621460520FFF71DFE6D
:102870000A20FEF705F939460620FFF716FE0A2062
:1028800032E00000FF06020100000000FF06160211
:1028900000000000FF06000100000000FF10000023
:1028A0002B406001060000002B4060010700000083
:1028B0002B4060010F0000002B40600180000000F1
:1028C0002F60600103000000404160010000000033
:1028D0002B4060011F000000237A6001000000000F
:1028E0002F60600101000000FEF7CAF829460720AA
:1028F000FFF7DBFD0A20FEF7C3F831460820FFF79B
:10290000D4FD0A20FEF7BCF8BDE8F0817CB5054691
:102910000C4618A103C9CDE90001E0B28DF804000E
:10292000200A8DF80500200C8DF80600200E8DF889
:1029300007000822694605F5C060FEF7AAF97CBDCC
:102940007CB505460C460DA103C9CDE90001E0B2F6
:102950008DF80400200A8DF80500200C8DF8060083
:10296000200E8DF807000822694605F5C060FEF7C5
:1029700090F97CBD238160010000000023FF60010D
:102980000000000032490143324A1160704770B5BF
:10299000002100230F22C4781CB32E4C246804F4B9
:1029A000E064C4F5E064C4F30721C1F10404E3B2B8
:1029B0000A4144789C40E1B28478144021430C07DA
:1029C000210E254C05786155047804F01F0501247B
:1029D000AC4005786D11AD0005F1E025C5F800416A
:1029E00009E0047804F01F050124AC401B4D067873
:1029F000761145F8264070BD194A0A400243154B2E
:102A00001B1F1A60704739B1124A121D1268024327
:102A1000104B1B1D1A6006E00E4A121D12688243FD
:102A20000C4B1B1D1A607047042808D14FF0E021A1
:102A3000096941F004014FF0E022116107E04FF015
:102A4000E021096921F004014FF0E0221161704793
:102A50000000FA050CED00E000E400E080E100E099
:102A600080FFFF1F10B50446FE48844209D10121B2
:102A7000480601F0A0FA00214FF0007001F09BFA27
:102A800008E00121880601F096FA00214FF08060ED
:102A900001F091FA10BD30B5024600200023146801
:102AA00024F002041460146844F00104146000E08F
:102AB0005B1C546804F001041CB94FF6FF74A34278
:102AC000F6D1546804F001040CB900206CE08C7954
:102AD000012C04D1146844F08004146003E01468ED
:102AE00024F080041460CC79012C04D1146844F0E3
:102AF0004004146003E0146824F0400414600C7A6D
:102B0000012C04D1146844F02004146003E014681C
:102B100024F0200414604C7A012C04D1146844F091
:102B20001004146003E0146824F0100414608C7A1C
:102B3000012C04D1146844F00804146003E0146804
:102B400024F008041460CC7A012C04D1146844F0F9
:102B50000404146003E0146824F0040414608C7806
:102B6000A407CD7844EA05640D7944EA05444D791B
:102B700044EA05540D886D1E2C43D461146824F07A
:102B800001041460002300E05B1C546804F001049D
:102B90001CB14FF6FF74A342F6D1546804F001044F
:102BA0000CB1002000E0012030BD10B50021837A77
:102BB000012202FA03F1AC4A126842F00102AA4B68
:102BC0001A60A94A1C3212688A43A74B1C331A6048
:102BD000027BCAB9A44A0C3212688A43A24B0C3356
:102BE0001A604288C38842EA03439F4A4032847A8B
:102BF00042F834300288838842EA03439A4A4032DA
:102C0000847A02EBC4025360027B012A19D1964AEE
:102C10000C3212680A43944B0C331A6042880388C2
:102C200042EA0343904A4032847A42F83430C28800
:102C3000838842EA03438C4A4032847A02EBC4021E
:102C40005360C27A3AB9884A121D12688A43864B89
:102C50001B1D1A6006E0844A121D12680A43824B4B
:102C60001B1D1A60028932B97F4A143212688A43E6
:102C70007D4B14331A600289012A06D17A4A143234
:102C800012680A43784B14331A60427B012A06D13A
:102C9000754A1C3212680A43734B1C331A60724A1D
:102CA000126822F00102704B1A6010BD0021817180
:102CB000C171017241728172C1728170C170032150
:102CC0000171022141710121018070476649096843
:102CD00041F00101644A11601146096843F60E7221
:102CE0009143614A11601146096841EA002111606F
:102CF0001146096821F001011160704721B1026895
:102D000042F48032026003E0026822F48032026002
:102D10007047E1B1026842F0800202604FF4C27273
:102D2000125842F480734FF4C27213504FF4CA72B7
:102D3000125842F480734FF4CA7213504FF4D27297
:102D4000125842F480734FF4D27213501BE00268A1
:102D500022F0800202604FF4C272125822F4807393
:102D60004FF4C27213504FF4CA72125822F4807397
:102D70004FF4CA7213504FF4D272125822F4807377
:102D80004FF4D2721350704710B50246002093687A
:102D900003F08063B3F1806F00D110E0936803F01B
:102DA0000063B3F1006F01D1012008E0936803F0E4
:102DB0008053B3F1805F01D1022000E00420042899
:102DC00079D002F5C07303EB00131B6803F0010414
:102DD00002F5C07303EB00131C600B7A7BB94B7ACE
:102DE0000C8843EA445302F5C07404EB00142468D1
:102DF000234302F5C07404EB0014236010E00B7A47
:102E00004C6843EAC4034C7A234302F5C07404EBD4
:102E100000142468234302F5C07404EB00142360FB
:102E20008B7A03F00F038B7202F5C07303EB001370
:102E30005B6823F00F0402F5C07303EB00135C60C2
:102E400002F5C07303EB00135B688C7A234302F531
:102E5000C07404EB001463608B7B1C064B7B44EA5C
:102E6000034403E000640040006600400B7B44EA3A
:102E70000323CC7A234302F5C07404EB0014A3604F
:102E80008B7C1C064B7C44EA03440B7C44EA032302
:102E9000CC7B234302F5C07404EB0014E36002F51D
:102EA000C07303EB00131B6843F0010402F5C07309
:102EB00003EB00131C6010BD10B50246002321B1C6
:102EC000012907D002290FD109E09068F94C00EAE6
:102ED00004030BE09068F84C00EA040306E09068F5
:102EE000F64C00EA040301E0002300BF00BFF44CED
:102EF000181BA34216D007DC83B16FF08060184422
:102F000070B1022818D111E0B0F5007F10D0ED4C5F
:102F1000204448B1B0F5003F0ED10BE002230DE094
:102F200000230BE0002309E0002307E0012305E074
:102F3000012303E0012301E0002300BF00BFD8B25A
:102F400010BD21B1012907D002290FD109E0826803
:102F500042F0800282600AE0826842F400428260AD
:102F600005E0826842F40002826000E000BF00BF1A
:102F7000704710B500F5D87303EB01131B6803F01D
:102F800004031372137A53B900F5D87303EB0113DA
:102F90001B6840F2FF7404EA5353136009E000F524
:102FA000D87303EB01131B686FF0604404EAD3038A
:102FB000536000F5D87303EB01131B6803F00203A1
:102FC000537200F5D87303EB01135B6803F00F0332
:102FD000937200F5D87303EB01135B681B0AD3747B
:102FE00000F5D87303EB01139B68D37200F5D87317
:102FF00003EB01139B681C0A147300F5D87303EBF1
:1030000001139B681C0C547300F5D87303EB011378
:103010009B681B0E937300F5D87303EB0113DB68F9
:10302000D37300F5D87303EB0113DB681C0A147427
:1030300000F5D87303EB0113DB681C0C547400F526
:10304000D87303EB0113DB681B0E937421B9C368BB
:1030500043F02003C36003E0036943F020030361EE
:1030600010BD21B9C26842F02002C26003E00269CB
:1030700042F02002026170470246002019B9D3686D
:1030800003F0030006E0012903D1136903F00300F4
:1030900000E00020704710B502460B4600204FF6B6
:1030A000FF71BBB9146824F0020444F001041460F9
:1030B00000E0491E546804F00304012C01D00029EB
:1030C000F7D1546804F00304012C01D0002032E051
:1030D000012030E0012B13D1146824F003041460A4
:1030E00000E0491E546804F003040CB10029F8D133
:1030F000546804F003040CB100201CE001201AE025
:10310000022B17D1146824F0010444F00204146067
:1031100000E0491E546804F00304022C01D0002989
:10312000F7D1546804F00304022C01D0002002E01F
:10313000012000E0002010BD014600200A6822F0B6
:10314000010242F002020A604A6802F00302022A07
:1031500000D10120704701464FF6FF7200200B6836
:1031600023F002030B6000E0521E4B6803F00203E1
:10317000022B01D1002AF7D14B6803F00203022B86
:1031800000D001207047014600208A6902F07000DB
:103190007047014600208A69100E704701460020E2
:1031A0008A69C2F3074070471AB143690B43436110
:1031B00002E043698B434361704710B5024600202B
:1031C00001F4700343B19369C1F3130423400BB1BD
:1031D00001202DE000202BE001F0807343B1536803
:1031E000C1F3130423400BB1012021E000201FE0B4
:1031F00001F0006343B19368C1F3130423400BB1A2
:10320000012015E0002013E001F0007343B1D36802
:10321000C1F3130423400BB1012009E0002007E0B3
:103220001369C1F3130423400BB1012000E0002017
:1032300010BD0022244B994202D10023836111E08A
:10324000C1F3130201F000730BB1C2600AE001F098
:1032500080630BB1026105E001F000630BB1826095
:1032600000E0426070470246002002EA01030BB111
:10327000012000E00020704770B504460D4600268E
:1032800060692840002872D0B5F5807F69D01DDCC8
:10329000082D42D006DC012D2DD0022D31D0042D79
:1032A0007FD134E0102D3ED0202D42D0402D78D15A
:1032B00045E00000030000040003000800000310C4
:1032C000000100080001FFF77000F030B5F5004F75
:1032D00061D009DCB5F5007F4AD0B5F5806F4DD0DF
:1032E000B5F5006F5DD150E0B5F5803F2DD0B5F557
:1032F000003F56D12FE0A0685549FFF7B4FF0646BE
:1033000051E0E0680321FFF7AEFF06464BE0E068BE
:103310000821FFF7A8FF064645E0E0681021FFF707
:10332000A2FF06463FE020690321FFF79CFF064607
:1033300039E020690821FFF796FF064633E020694F
:103340001021FFF790FF06462DE060680821FFF787
:103350008AFF064627E060681021FFF784FF0646D3
:1033600021E0A0690121FFF77EFF06461BE01BE07C
:10337000A0690221FFF777FF064614E0A069042147
:10338000FFF771FF06460EE00BE0A0697021FFF722
:103390006AFF064607E060680421FFF764FF0646FF
:1033A00001E0002600BF00E00026304670BDB1F508
:1033B000007F3AD00FDC202928D006DC01291CD060
:1033C00004291DD0082940D11DE0402921D0B1F5A4
:1033D000807F3AD126E0B1F5004F31D006DCB1F55F
:1033E000806F25D0B1F5006F2FD124E0B1F5803F7B
:1033F00012D0B1F5003F28D111E0154A826025E0D6
:103400000822C26022E01022C2601FE0082202618E
:103410001CE01022026119E00822426016E010222E
:10342000426013E00422426010E0042242600DE09A
:10343000042242600AE0002282610422426005E028
:10344000002282610422426000E000BF00BF70479A
:1034500001010100016821F001010160002101600A
:1034600041608160C160016121214161DB49884285
:1034700004D13D21D94A103A91608CE0D7491831E6
:10348000884205D14FF47461D44A103A916082E0C9
:10349000D2493031884205D14FF47411CF4A103AE5
:1034A000916078E0CD494831884205D14FF0746190
:1034B000CA4A103A91606EE0C8496031884204D12E
:1034C000C749C64A103AD16065E0C449783188429C
:1034D00004D1C449C14A103AD1605CE0BF4990317F
:1034E000884204D1C049BD4A103AD16053E0BB497B
:1034F000A831884205D14FF03D51B84A103AD16009
:1035000049E0BA49884204D13D21B84A083A1160DD
:1035100041E0B6491831884205D14FF47461B34A8D
:10352000083A116037E0B1493031884205D14FF493
:103530007411AE4A083A11602DE0AC494831884216
:1035400005D14FF07461A94A083A116023E0A749F8
:103550006031884204D1A249A44A121F11601AE0C6
:10356000A2497831884204D19E49A04A121F1160B5
:1035700011E09E499031884204D19B499B4A121F19
:10358000116008E09949A831884204D14FF03D51BB
:10359000964A121F1160704710B500220268944BC2
:1035A0001A40CC680B6823434C6923438C6923433E
:1035B000CC6923430C6A23434C6A23438C6A23431C
:1035C0004C6B23438C6B23431A430260426922F005
:1035D0000702D1E90B3423431A4342610B6943606C
:1035E0004B6883608B68C36010BD0021016041603F
:1035F0008160C160016141618161C16101624162BB
:103600008162C162016341638163704721B10268D5
:1036100042F00102026003E0026822F0010202604F
:10362000704721B1026842F40042026003E0026880
:1036300022F400420260704721B1026842F0200289
:10364000026003E0026822F02002026070474160DD
:1036500070470146486880B2704722B1036843F45E
:103660000023036003E0036823F400230360016187
:10367000704721B1026842F48022026003E00268D0
:1036800022F48022026070470AB1016100E0C1604B
:103690007047014600200A6802F400220AB10120A6
:1036A00000E000207047014600200A6802F0010295
:1036B0000AB1012000E000207047014600204A695D
:1036C00002F03800704730B503460A460020002457
:1036D000464DAB4202D24149103901E0434910390D
:1036E00002F000550DB14C6800E00C68414D2C40D3
:1036F00004EA02050DB1012000E0002030BD0246C1
:103700003A4B9A4202D23548103801E03748103817
:1037100001F000531BB1374B0B40C36002E0354B47
:103720000B408360704710B501F080034BB122B1AC
:10373000436943F08003436103E0436923F080035E
:10374000436180290BD02AB1036801F01E04234392
:10375000036004E0036801F01E04A343036010BD8E
:1037600070B50246002000240025204EB24202D24D
:103770001A4B103B01E01D4B103B1F4E0E4036B163
:103780001E2606EAD124166806EA040502E05669F8
:1037900006F0800501F000560EB15C6800E01C6880
:1037A000144E344004EA010616B10DB1012000E0C8
:1037B000002070BD02460D4B9A4202D207481038D5
:1037C00001E00A48103801F000531BB1094B0B40CF
:1037D000C36002E0074B0B408360704710600240FB
:1037E0003D000020400F002000003D2010640240FA
:1037F0003F801CF07D0F7D0F3C0F3C0F00204449A3
:103800000860091D0860091D0860091D086041481D
:103810003F4914310860704700213D498279002AF0
:103820003AD00A46126803689A430B461A600A1D8A
:10383000126803689A430B1D1A60027911440A68E2
:1038400003681A430A60324A0832126803689A43CE
:103850002F4B08331A601A1D126803689A432C4BC9
:103860000C331A604279102A0ED11A1F12680368AD
:103870001A43274B08331A601A1D126803681A434B
:10388000234B0C331A600DE02149427911440A6838
:1038900003681A430A6005E0027911440A68036864
:1038A0009A430A6070470021016001710C21417147
:1038B0000021817170471649103109680143144A8B
:1038C00010321160704701460020114A143212680C
:1038D0000A400AB1012000E0002070470C49143171
:1038E00008607047014600200022094B1B6803EA6C
:1038F0000102074B14331B680B4013B10AB10120BE
:1039000000E0002070470249143108607047000051
:10391000003C0140FFFF7F0010B504468C48844204
:1039200008D10121084600F000FB0021012000F031
:10393000FCFA5EE08748844208D10121022000F0B1
:10394000F4FA0021022000F0F0FA52E082488442AA
:1039500008D10121042000F0E8FA0021042000F041
:10396000E4FA46E07D48844208D10121082000F0B5
:10397000DCFA0021082000F0D8FA3AE078488442C6
:1039800008D10121102000F0D0FA0021102000F011
:10399000CCFA2EE07348844208D10121202000F0A7
:1039A000C4FA0021202000F0C0FA22E06E488442D0
:1039B00008D10121402000F0B8FA0021402000F099
:1039C000B4FA16E06948844208D10121802000F051
:1039D000ACFA0021802000F0A8FA0AE06448844292
:1039E00007D10121801500F0A0FA0021A01500F0F8
:1039F0009CFA10BDF0B50A4600210023002400BF48
:103A00003DE0012505FA01F3156805EA03049C422F
:103A100034D105684F000326BE40B54305601579D3
:103A20004E00B5400668354305601579012D02D07A
:103A30001579022D16D185684F000326BE40B54387
:103A4000856055794E00B540866835438560456888
:103A500001268E40B5434560456896798E40B6B2E2
:103A600035434560C5684F000326BE40B543C56079
:103A7000D5794E00B540C6683543C560491C10294C
:103A8000BFD3F0BD4FF6FF7101600021017141719C
:103A90008171C171704708B54FF480320092009A6D
:103AA0000A430092009AC261C161009AC261C26970
:103AB0000092C269009208BD0246002013690B40C3
:103AC0000BB1012000E0002070470146086980B278
:103AD00070470246002053690B400BB1012000E003
:103AE000002070470146486980B2704701837047E3
:103AF000418370470AB1018300E04183704741610F
:103B0000704742694A4042617047F0B50023002483
:103B10004D07ED0E02FA05F3CE1000F1200555F821
:103B200026504E07F70E0F26BE40B543CF1000F1CA
:103B3000200646F82750CE1000F1200555F82650F3
:103B400045EA0304CE1000F1200545F82640F0BDFB
:103B5000000002400004024000080240000C024045
:103B6000001002400014024000180240001C0240F5
:103B700000200240FA48006840F00100F84908605F
:103B80000020F74908310860F5480068F549084009
:103B9000F3490860F448091D0860081F006820F414
:103BA0008020091F08600020ED490C310860704733
:103BB0000021EB4A921C117011460870704710B535
:103BC00001460022002300204A11012A02D1E44CC0
:103BD000236808E0022A03D1E14C7034236802E034
:103BE000DF4C7434236801F01F02012494401C4010
:103BF0000CB1012000E0002010BD38B5002000907D
:103C00000024002500BF3120FFF7D9FF05460098AA
:103C1000401C00900098B0F5A06F01D0002DF2D0AC
:103C20003120FFF7CCFF08B1012400E0002420463A
:103C300038BD01460020CA4A106820F0F80040EA6A
:103C4000C10010607047C949086070470021C44A2C
:103C5000703211701170012802D004280AD104E0DA
:103C60000121BF4A7032117005E00521BC4A703253
:103C7000117000E000BF00BF7047BD490860704789
:103C800070B5049C41EA82150126C6EB530645EA4D
:103C90000645054345EA0465B14E361D356070BDE5
:103CA000B24908667047820142EA0172AC4B843324
:103CB0001A607047AD4988667047AC49C864704760
:103CC00002460020A64B0833186820F0EC6042EA58
:103CD00001031843A24B08331860704702460020C6
:103CE0009F4B0833186820F0784042EA01031843DC
:103CF0009B4B08331860704701460020984A0832F1
:103D0000106820F0030008431060704794480830A2
:103D1000006800F00C00704701460020904A08320D
:103D2000106820F0F0000843106070470146002042
:103D30008B4A0832106820F4E05008431060704746
:103D400001460020864A0832106820F4604040EAAC
:103D5000C10010607047F0B5002100220024022548
:103D6000002602237E4F08373F6807F00C0121B17F
:103D7000042905D0082937D105E07E4F076036E0D9
:103D80007D4F076033E0764F3F1D3F68C7F3805695
:103D9000734F3F1D3F6807F03F036EB1764FB7FB8F
:103DA000F3F7DFF8BCC10CF1040CDCF800C0CCF375
:103DB000881C07FB0CF40CE06E4FB7FBF3F7DFF841
:103DC000A0C10CF1040CDCF800C0CCF3881C07FB8C
:103DD0000CF4634F3F1D3F68C7F301477F1C7D0014
:103DE000B4FBF5F7076002E0624F076000BF00BF59
:103DF0005B4F08373F6807F0F00109095F4F7A5CB5
:103E00000768D7404760564F08373F6807F4E051CE
:103E1000890A5A4F7A5C4768D7408760504F083705
:103E20003F6807F46041490B544F7A5C4768D740BC
:103E3000C760F0BD002100F44072B2F5407F0AD1A6
:103E4000474A0832116821F4F8114D4A02401143E3
:103E5000434A08321160424A70321268C0F30B03C1
:103E60001A433F4B70331A60704741494439086028
:103E700070473F49403908607047424908607047C1
:103E800039B1374A303212680243354B30331A6049
:103E900006E0334A303212688243314B30331A60C5
:103EA000704739B12E4A3432126802432C4B3433F6
:103EB0001A6006E02A4A343212688243284B3433AF
:103EC0001A60704739B1264A383212680243244BCF
:103ED00038331A6006E0224A383212688243204B97
:103EE00038331A60704739B11D4A403212680243B4
:103EF0001B4B40331A6006E0194A40321268824375
:103F0000174B40331A60704739B1154A4432126872
:103F10000243134B44331A6006E0114A44321268DC
:103F200082430F4B44331A60704739B10C4A103248
:103F3000126802430A4B10331A6006E0084A103236
:103F400012688243064B10331A607047E1B1044A8D
:103F5000143212680243024B14331A6019E0000055
:103F600000380240FFFFF6FE1030002400004742F8
:103F7000800E47420024F40040787D01A800002014
:103F8000FFFCFF0F5C0147425B4A126882435A4BB9
:103F90001A60704739B1584A121D12680243564BD5
:103FA0001B1D1A6006E0544A121D12688243524BD0
:103FB0001B1D1A60704739B14F4A0C321268024318
:103FC0004D4B0C331A6006E04B4A0C3212688243A8
:103FD000494B0C331A60704739B1474A10321268A6
:103FE0000243454B10331A6006E0434A1032126810
:103FF0008243414B10331A60704739B13E4A3C321C
:10400000126802433C4B3C331A6006E03A4A3C32A9
:1040100012688243384B3C331A60704739B1364AD4
:10402000403212680243344B40331A6006E0324A91
:10403000403212688243304B40331A60704739B1C6
:104040002D4A4432126802432B4B44331A6006E077
:10405000294A443212688243274B44331A6070471E
:1040600039B1254A4C3212680243234B4C331A6053
:1040700006E0214A4C32126882431F4B4C331A60CF
:10408000704739B11C4A5032126802431A4B503300
:104090001A6006E0184A503212688243164B5033B9
:1040A0001A60704739B1144AD21F12780243124B7A
:1040B000DB1F1A7006E0104AD21F127882430E4BA3
:1040C000DB1F1A7070470C486030006840F0807049
:1040D000094960310860704701460020064A083AE5
:1040E00012680A400AB1012000E00020704702492E
:1040F000891F0870704700001438024010B504464C
:10410000FE48844208D101210846FFF765FF0021DF
:104110000120FFF761FF9DE0B4F1804F08D101213C
:104120000846FFF748FF00210120FFF744FF91E018
:10413000F348844208D101210220FFF73CFF00210F
:104140000220FFF738FF85E0EE48844208D10121C4
:104150000420FFF730FF00210420FFF72CFF79E057
:10416000E948844208D101210820FFF724FF0021FB
:104170000820FFF720FF6DE0E448844208D10121C8
:104180001020FFF718FF00211020FFF714FF61E057
:10419000DF48844208D101212020FFF70CFF0021D5
:1041A0002020FFF708FF55E0DA48844208D10121BA
:1041B0000220FFF711FF00210220FFF70DFF49E069
:1041C000D548844209D101210804FFF705FF0021E9
:1041D0004FF48030FFF700FF3CE0D048844209D123
:1041E00001214804FFF7F8FE00214FF40030FFF7EB
:1041F000F3FE2FE0CA48844209D101218804FFF769
:10420000EBFE00214FF48020FFF7E6FE22E0C548D8
:10421000844208D101214020FFF7CDFE002140203B
:10422000FFF7C9FE16E0C048844208D10121802072
:10423000FFF7C1FE00218020FFF7BDFE0AE0BB486A
:10424000844207D101218015FFF7B5FE0021A0159A
:10425000FFF7B1FE10BD00220288A84B98420ED095
:10426000AC4B98420BD0B0F1804F08D0A44B984291
:1042700005D0A44B984202D0A34B984204D14FF6EC
:104280008F731A404B881A43A04B984207D0A04B1B
:10429000984204D04FF6FF431A400B891A4302801C
:1042A0004B68C3620B880385944B984202D0994BAC
:1042B000984201D18B7A03860123838270474FF0A5
:1042C000FF3141600021018001814180817270478E
:1042D0000185828270470A46002101884FF68F735C
:1042E000194011430180704741627047C1627047B5
:1042F0000146486A70470146088D704721B102881F
:1043000042F00202028004E002884FF6FD731A4078
:104310000280704721B1028842F00402028004E06A
:1043200002884FF6FB731A400280704721B1028861
:1043300042F08002028004E002884FF67F731A4048
:104340000280704702884FF6F7731A400280028895
:104350000A430280704702884FF6FF431A400280EA
:1043600002880A430280704721B1028842F00102AC
:10437000028004E002884FF6FE731A400280704704
:1043800070B5002400220023058C4FF6FE763540E0
:104390000584028C8388048B4FF68F752C40B51EE4
:1043A0002C400D882C43751E2A408D892A434D8848
:1043B0002A43524DA84202D0564DA84213D14FF67F
:1043C000F7752A40CD892A434FF6FB752A408D8820
:1043D0002A434FF6FF652B404FF6FF552B400D8AC1
:1043E0002B434D8A2B43838004838D68456302846D
:1043F00070BD70B5002400220023058C4FF6EF76C7
:1044000035400584028C8388048B48F6FF752C4068
:104410004FF6FF452C400D884FF6FF7606EA05253E
:104420002C434FF6DF752A408D8906EA05152A438D
:104430004D8806EA05152A43304DA84202D0354D75
:10444000A8421DD14FF67F752A40CD894FF6FF76E1
:1044500006EA05152A434FF6BF752A408D8806EAFD
:1044600005152A434FF6FF352B404FF2FF752B40C1
:104470000D8A06EA85052B434D8A06EA85052B43FE
:10448000838004838D688563028470BD70B50024C9
:1044900000220023058C4FF6FF6635400584028C10
:1044A0008388848B4FF68F752C404FF6FC752C401B
:1044B0000D882C434FF6FF552A408D894FF6FF7625
:1044C00006EA05252A434D8806EA05252A430B4DB1
:1044D000A84202D00F4DA84238D14FF2FF752A40B2
:1044E000CD894FF6FF7606EA05252A434FF6FF35BC
:1044F0002A408D8806EA05252A4319E0000001407C
:104500000004004000080040000C00400010004083
:1045100000140040000401400040014000440140FC
:104520000048014000180040001C004000200040EE
:104530004EF6FF752B404DF6FF752B400D8A06EAAF
:1045400005152B434D8A06EA05152B43838084838A
:104550008D68C563028470BD70B5002200230024FD
:10456000058C4EF6FF7635400584038C8488828B5B
:1045700048F6FF752A404FF6FF452A400D884FF652
:10458000FF7606EA05252A434DF6FF752B408D89F7
:1045900006EA05352B434D8806EA05352B43FE4DCB
:1045A000A84202D0FD4DA84208D14BF6FF752C4021
:1045B0000D8A4FF6FF7606EA85152C4384808283A8
:1045C0008D680564038470BD002101804180818075
:1045D00081608181C18101824182704770B503464B
:1045E000002000241846183001258D40ACB21D8CE7
:1045F000A5431D8409B108290AD100EB61000568B3
:104600004FF68F76354005600568154305600FE06D
:104610000D1FC5F34E052844056848F6FF76354062
:10462000056005684FF6FF7606EA02263543056009
:1046300070BD4163704781637047C1637047016417
:1046400070470A460021018B4FF68F7319401143C2
:10465000018370470A460021018B48F6FF73194019
:104660004FF6FF7303EA02231943018370470A469A
:104670000021818B4FF68F7319401143818370475E
:104680000A460021818B48F6FF7319404FF6FF73ED
:1046900003EA02231943818370470A460021018BF4
:1046A0004FF6F77319401143018370470A46002102
:1046B000018B4FF2FF7319404FF6FF7303EA022399
:1046C0001943018370470A460021818B4FF6F77327
:1046D00019401143818370470A460021818B4FF2B4
:1046E000FF7319404FF6FF7303EA022319438183D6
:1046F00070470A460021018B4FF6FB7319401143A6
:10470000018370470A460021018B4FF6FF331940A1
:104710004FF6FF7303EA02231943018370470A46E9
:104720000021818B4FF6FB73194011438183704741
:104730000A460021818B4FF6FF3319404FF6FF7375
:1047400003EA02231943818370470A460021018B43
:104750004FF67F7319401143018370470A460021C9
:10476000018BC1F30E014FF6FF7303EA02231943D5
:10477000018370470A460021818B4FF67F731940F1
:104780001143818370470A460021818BC1F30E01DA
:104790004FF6FF7303EA02231943818370470A46E9
:1047A0000021018C4FF6FD731940114301847047BD
:1047B0000A460021018C4FF6F7731940114301841A
:1047C00070470A460021018C4FF6DF7319404FF6FF
:1047D000FF7303EA02131943018470470A4600215C
:1047E000018C4FF67F7319404FF6FF7303EA0213F3
:1047F0001943018470470A460021018C4FF6FF538C
:1048000019404FF6FF7303EA0223194301847047EE
:104810000A460021018C4FF2FF7319404FF6FF73D7
:1048200003EA02231943018470470A460021018CE0
:104830004DF6FF7319404FF6FF7303EA0233194335
:104840000184704730B5002301248C40A3B2048C4E
:104850009C430484048C02FA01F5ADB22C43048419
:1048600030BD30B5002304248C40A3B2048C9C439B
:104870000484048C02FA01F5ADB22C43048430BDEB
:10488000828B4FF2FF331A408283828B4FF6FF7385
:1048900003EA01231A4382837047F0B50C4615469C
:1048A000002100220026078C4EF6FF7C07EA0C0749
:1048B0000784818B028C4FF6FF7707EA043640F6B7
:1048C000FF4739404FF6FF7707EA052739434FF690
:1048D000FF7707EA0337394345F6FF773A4046F456
:1048E00080573A4381830284F0BD828B4FF6F37385
:1048F0001A408283828B0A4382837047F0B50C464C
:104900001546002100220026078C4FF6FF6C07EAAF
:104910000C070784818B028C4FF6FF7707EA042689
:104920004FF60C7739404FF6FF7707EA03172F430E
:1049300039434FF2FF573A4046F480773A43818338
:104940000284F0BD028B4FF2FF331A400283028BC8
:104950004FF6FF7303EA01231A4302837047F0B551
:104960000C461546002100220026078C4FF6EF7CEE
:1049700007EA0C070784018B028C4FF6FF7707EAE2
:10498000041640F6FF4739404FF6FF7707EA033732
:1049900039434FF6FF7703E0000001400004014077
:1049A00007EA052739434FF65F773A4046F010078C
:1049B0003A4301830284F0BD028B4FF6F3731A4031
:1049C0000283028B0A4302837047F0B50C461546FA
:1049D00000210022068C4FF6FE773E400684018BB4
:1049E000028C4FF60C7631407E1C06EA03162E43ED
:1049F00031434FF6F576324044F0010632430183ED
:104A00000284F0BD70B505460C46208850B9238954
:104A1000A28861882846FFF7D8FFE1882846FFF77B
:104A2000CBFF25E0208804280AD12389A288618849
:104A30002846FFF794FFE1882846FFF783FF17E039
:104A4000208808280AD12389A28861882846FFF790
:104A500055FFE1882846FFF748FF09E02389A2882F
:104A600061882846FFF719FFE1882846FFF708FF0D
:104A700070BD002101804180012181800021C18021
:104A8000018170472DE9F04105460C4600260127BB
:104A9000608808B9022600E00026A088012801D11C
:104AA000022700E001272088A0B92389A288618815
:104AB0002846FFF78AFFE1882846FFF77DFF238914
:104AC0003A4631462846FFF74AFFE1882846FFF775
:104AD00039FF13E02389A28861882846FFF73FFF4A
:104AE000E1882846FFF72EFF23893A4631462846BB
:104AF000FFF76BFFE1882846FFF75EFFBDE8F08116
:104B00000146486B70470146886B70470146C86B89
:104B100070470146086C70470A884B881A438B8897
:104B20001A43CB881A430B891A434B891A438B8942
:104B30001A43A0F844207047002101804180818001
:104B4000C180018141818181704731B1B0F8442039
:104B500042F40042A0F8442005E0B0F84420C2F33B
:104B60000E02A0F84420704721B1828842F004026E
:104B7000828004E082884FF6FB731A40828070477F
:104B800021B1828842F00102828004E082884FF6DF
:104B9000FE731A40828070471AB183890B43838168
:104BA00002E083898B43838170478182704702468C
:104BB0000020138A0B400BB1012000E00020704759
:104BC000CA430282704730B5024600200023002409
:104BD000158A05EA0103958905EA010413B10CB1B0
:104BE000012000E0002030BDCA430282704741EA44
:104BF0000203A0F8483070471AB183890B438381C0
:104C000002E083898B438381704721B1828842F01F
:104C10000802828004E082884FF6F7731A4082808F
:104C2000704701894FF6F8721140018170470A46BA
:104C3000002101894FF68F7319401143018170479C
:104C400030B504460D4629462046FFF7F0FF20897F
:104C500040F00700208130BD2DE9F04104460D46AB
:104C600016461F46602D06D13B460122314620469E
:104C7000FFF775FE05E03B46012231462046FFF76F
:104C8000A4FE29462046FFF7D2FF208940F0070006
:104C90002081BDE8F08130B50C4600210189C9B200
:104CA0004FF6FF7505EA0325154325432943018186
:104CB00030BD2DE9F04105460E46174698460024C2
:104CC00043463A4631462846FFF7E5FF2C894FF622
:104CD000F870044044F007044FF68F70044044F02D
:104CE00070042C81BDE8F081F0B504460D461646EF
:104CF0001F463B46324629462046FFF7CCFF208917
:104D000040F480402081F0BD82884FF68F731A40B6
:104D1000828082880A438280704702894FF6F87346
:104D20001A40028102890A430281704702894FF6C4
:104D30007F731A40028102890A4302817047F0B5ED
:104D40000C4615461E460021002200230189028BD5
:104D5000038C4FF6F877394021434FF6FC473A4031
:104D600040F201173A434FF6DD773B404FF6FF77AD
:104D700007EA06172F433B43018102830384F0BDFA
:104D800021B1828842F08002828004E082884FF65E
:104D90007F731A4082807047A0F85010704700005F
:104DA00010B50446F748844208D101211020FFF7CE
:104DB00013F900211020FFF70FF93EE0F24884427A
:104DC00009D101214804FFF7F6F800214FF4003023
:104DD000FFF7F1F831E0ED48844209D10121880460
:104DE000FFF7E9F800214FF48020FFF7E4F824E012
:104DF000E748844209D10121C804FFF7DCF800210B
:104E00004FF40020FFF7D7F817E0E248844209D1B9
:104E100001210805FFF7CFF800214FF48010FFF7BC
:104E2000CAF80AE0DC48844207D101212020FFF7BC
:104E3000D3F800212020FFF7CFF810BD2DE9FF4760
:104E400005460E460024A14600BFA046B08900B129
:104E500000BF2C8A24F44054F08804432C82AC898F
:104E600041F20C608443B08831890843718908435A
:104E70000443AC81AC8A24F44074B0890443AC820E
:104E80006846FEF768FFBF48854202D0C2488542A7
:104E900002D1DDF80C9001E0DDF80890A88900F45B
:104EA000004040B109EBC90000EB0910316849002E
:104EB000B0FBF1F707E009EBC90000EB091031681E
:104EC0008900B0FBF1F76420B7FBF0F00401200982
:104ED000642101FB1078A88900F4004040B1322021
:104EE00000EBC800B0FBF1F000F00700044308E05D
:104EF000322000EB08106421B0FBF1F000F00F004D
:104F000004432C81BDE8FF874FF416510160002156
:104F10008180C18001810C21418100218181704704
:104F200010B502460020108A20F470600B884C886F
:104F300023438C882343CC8823431843108210BD1D
:104F40000021018041808180C180704721B1828928
:104F500042F40052828104E082894DF6FF731A40C8
:104F600082817047028B02F47F420283028B0A43E4
:104F70000283704721B1828942F40042828103E0BA
:104F80008289C2F30E028281704721B1828A42F483
:104F90000062828204E0828A4FF2FF731A408282AA
:104FA0007047C1F308028280704701468888C0F3C9
:104FB00008007047028A4FF6F0731A400282028A94
:104FC0000A430282704721B1828942F00202828143
:104FD00004E082894FF6FD731A408281704782890E
:104FE0004FF2FF731A40828182890A43828170479F
:104FF000028A4FF6DF731A400282028A0A43028253
:10500000704721B1028A42F48042028204E0028A9F
:105010004BF6FF731A4002827047818941F001010B
:105020008181704721B1828A42F00802828204E0C5
:10503000828A4FF6F7731A4082827047028BD2B28F
:105040000283028B42EA01220283704721B1828AE5
:1050500042F02002828204E0828A4FF6DF731A4017
:105060008282704721B1828A42F01002828204E07B
:10507000828A4FF6EF731A4082827047828A4FF617
:10508000FB731A408282828A0A438282704721B16E
:10509000828A42F00202828204E0828A4FF6FD7325
:1050A0001A40828270471AB1838A0B43838202E0DE
:1050B000838A8B4383827047F0B503460024002621
:1050C0000025002040F66A17B94200D100BF1846FB
:1050D000C1F3421401F01F06012707FA06F5012C5F
:1050E00001D10C3004E0022C01D1103000E014306A
:1050F0001AB107682F43076002E00768AF430760F3
:10510000F0BD02460020B1F5007F00D100BF13883A
:105110000B400BB1012000E00020704701F4007249
:10512000B2F5007F00D100BFCA430280704770B55E
:105130000246002400230025002040F66A16B142F2
:1051400000D100BFC1F3421501F01F03012606FA8A
:1051500003F3012D02D19689334006E0022D02D1DE
:10516000168A334001E0968A33400C12012606FA73
:1051700004F41688344013B10CB1012000E0002083
:1051800070BD000000100140004400400048004095
:10519000004C0040005000400014014010B50022B7
:1051A000002340F66A14A14200D100BF0A12012474
:1051B0009440A3B2DC43048010BD000010B501216F
:1051C0008803FEF709FF00214FF48040FEF704FF3B
:1051D00010BD1A490860704730B500228B071C0FBC
:1051E0000F2303FA04F2154B08338C1053F82430C4
:1051F0009343124C08348D1044F8253023468C100C
:1052000053F824308C07240F00FA04F423430B4C8A
:1052100008348D1044F8253030BD094908607047C6
:10522000084908607047002004492031096801F4EA
:10523000807109B1012000E0002070470038014072
:10524000DC002742000427420CB5002001900090AA
:105250007648006840F480307449086000BF7348A5
:10526000006800F4003000900198401C0190009804
:1052700018B90198B0F5A06FF1D16C48006800F43E
:10528000003010B10120009001E000200090009853
:10529000012846D165484030006840F0805063499D
:1052A000403108606248006840F48040604908600E
:1052B0005E48083000685D490831086008460068AB
:1052C00040F4004008600846006840F4A0500860C0
:1052D0005848091F0860081F006840F08070091FC7
:1052E000086000BF5148006800F000700028F9D045
:1052F00040F20560504908604C480830006820F0D2
:1053000003004A49083108600846006840F002007E
:10531000086000BF45480830006800F00C0008280D
:10532000F8D10CBD10B54548006840F47000434901
:1053300008603E48006840F001003C4908600020D9
:105340003A4908310860394800683D490840374902
:1053500008603C48091D0860081F006820F4802090
:10536000091F0860002031490C310860FFF76CFF0D
:105370004FF0006031498039086010BD70B50020E1
:105380000022022300240221284D08352D6805F053
:105390000C0020B1042806D0082834D107E02A4D9B
:1053A0002A4E356033E02A4D284E35602FE01F4DE0
:1053B0002D1D2D68C5F380541C4D2D1D2D6805F045
:1053C0003F0154B1224DB5FBF1F5184E361D36683C
:1053D000C6F3881605FB06F209E01B4DB5FBF1F597
:1053E000124E361D3668C6F3881605FB06F20F4DC1
:1053F0002D1D2D68C5F301456D1C6B00B2FBF3F547
:10540000124E356003E0104D104E356000BF00BFF6
:10541000064D08352D68C5F303150E4E705D0B4D16
:105420002D68C540094E356070BD0000003802404F
:105430000070004019544007003C024088ED00E035
:10544000FFFFF6FE103000240024F400B800002016
:1054500040787D01BC00002009488047094800478A
:10546000FEE7FEE7FEE7FEE7FEE7FEE7FEE7FEE714
:10547000FEE7FEE704480549054A064B7047000071
:105480002553000889010008F80E0020F81E0020AE
:10549000F8120020F8120020704700001CB50C46DE
:1054A000064B7B4469460090204600F0E4F8044631
:1054B0000020694600F0F2F820461CBDF70100000C
:1054C00010B5431C02E010F8011B71B18107FAD13D
:1054D0004FF0013202C88C1A8C4314EAC211F9D081
:1054E000C01A0A0603D0C01E10BDC01A10BD0A049F
:1054F00001D0801E10BD0902FCD0401E10BD7047B7
:1055000070477047704770B5044685690068C106EA
:1055100001D5302600E02026C00707D070BDD4E9B1
:10552000012130469047206A401C20626D1EF6D54E
:1055300070BD70B5044685690078C00707D170BD9D
:10554000D4E9012120209047206A401C20626D1E72
:10555000F6D570BD09684A0501D540B27047C90546
:10556000FCD500B2704709684A0501D5C0B2704742
:10557000C905FCD580B2704770B50C460546012AB6
:1055800005D02878800600D5EA69002302E00123CF
:1055900005E05B1C934202D2E05C0028F9D1A869C7
:1055A000E618C01AA861286A184428622846FFF73E
:1055B000AAFF04E0D5E9012114F8010B9047B44299
:1055C000F8D32846FFF7B5FF70BD00002DE9F04184
:1055D0000646002410687529314616A510D0FFF73D
:1055E000B9FF002802DA404213A507E031688A07B4
:1055F00001D512A502E0490704D511A5012401E057
:10560000FFF7B1FF00210A2206F1240709E0B0FBF1
:10561000F2FCB0FBF2F302FB1C0030307854184669
:10562000491C0028F3D123462A463046BDE8F04104
:1056300000F061BA000000002D0000002B00000007
:105640002000000011680268006A530501D5087047
:105650000AE0D30501D5088006E0130603D5C2177A
:10566000C1E9000200E008600120704701694A1C9E
:1056700002610878704700B58FB0CDE90131002193
:10568000059105497944CDE903101146684600F0BB
:1056900029F90FB000BD0000E5FFFFFF0A6802F81E
:1056A000010B0A60704700002DE9FF5F15468A462E
:1056B0000446DFF8AC80F8440027D8E900103E46E5
:1056C000CDE9001010E03AF816106A4602A800F082
:1056D00025FE411C07D02178890603D5E2693918D7
:1056E00091420DD80744761C2078800602D5E069E7
:1056F000B84205DDAE42E6DB3AF816000028E2D1FA
:10570000A069C01BA0612046FFF7FDFED8E900108C
:10571000CDE90010002017E03AF818106A4602A8F8
:1057200000F0FCFDB0F1FF3F81460BD000250DF1EC
:10573000080B05E0D4E901211BF8050090476D1C1A
:105740004D45F7D308F10100B0428046E4DB206A02
:10575000384420622046FFF7ECFEBDE8FF9F0000C2
:10576000F62400002DE9F0418046D21D22F0070208
:105770000025D2E90002F52915A614D0011E72F108
:10578000000106DA0023D0EB030063EB020211A64E
:1057900008E0D8F800108B0701D50FA602E04907F2
:1057A00001D50EA601251146002408F1240704E0C6
:1057B00000F05CF930323A55641C50EA0102F7D12E
:1057C0002B46324621464046BDE8F04100F093B9F1
:1057D000000000002D0000002B0000002000000051
:1057E00030B4002100F1240408E002F00705D208DB
:1057F000303542EA4372DB086554491C52EA03051E
:10580000F3D10468002310A2250707D5A40600D40D
:1058100021B1C46901230DA2641EC46130BC00F033
:105820006AB910B5044621461068FFF79CFE02468F
:105830002046BDE810400023D2E7D21D22F0070128
:10584000D1E90023CCE70000000000003000000098
:10585000F0B40D460188090502D5214C7C4402E0D4
:105860001F4C7C440E34002100F1240608E002F0B5
:105870000F071209E75D42EA03721B097754491CBE
:1058800052EA0307F3D102780023120704D5702DE2
:1058900006D009B1022311342246F0BC00F02BB926
:1058A00001231034F8E770B504460D462146106810
:1058B000FFF759FE024629462046BDE87040002306
:1058C000C6E7D21D22F00703D3E90023C0E703682F
:1058D000126843F0200303600823C3610023B7E785
:1058E000582300002DE9F05F894604464FF0000A76
:1058F000DFF874B1FB44C0F820A02046E168884777
:10590000002874D0252806D0D4E901219047206AC8
:10591000401C2062F1E700265F462046E168884788
:105920002028054607DB312D05D2781910F8200C08
:1059300008B10643F1E7B00701D526F00406C4F824
:105940001CA00027C4F818A02A2D09D0284601F071
:105950001BFC38B304EB8708303DC8F8185019E039
:1059600059F8041B204604EB87029161E1688847DF
:10597000012F054618D1E069002820DA26F020061C
:105980001DE0D8F8180000EB800005EB400030382F
:10599000C8F818002046E1688847054601F0F4FB86
:1059A0000028EED1012F0AD02E2D08D12046E16823
:1059B00088477F1C0546022F46F02006C4DBA069FD
:1059C000002803DA404246F00106A061F00701D04A
:1059D00026F010066C2D0BD0682D09D04C2D39D037
:1059E0006A2D35D0742D35D07A2D33D016E038E0BD
:1059F000E1682F4620468847B842054609D16C2FFA
:105A000026D04FF48060E16806432046884705466B
:105A100004E06C2F1AD04FF4807006430DB3A5F14B
:105A20004100192802D8203546F400664A46294626
:105A3000204626604E46FAF7E1FB80B101280BD0E4
:105A4000F61D26F0070000F1080956E74020E4E7BC
:105A50008020D8E70020D6E706F104094DE7284664
:105A600052E7206ABDE8F09FE822000030B5B0F1AF
:105A70000A024FEA900E71F100034EEA817EB0EB0C
:105A80000E0061EB91014FEA101E4EEA017E10EB11
:105A90000E0041EB11114FEA102E4EEA016E10EB91
:105AA0000E0041EB11214FEA104E4EEA014E10EB71
:105AB0000E0041EB1141401841F100014FEAD000C6
:105AC00040EA41704FEAD10110EB80054FEA8104B2
:105AD00044EA907444EB01046D1944EB0404521B36
