:020000040800F2
:1000000048240020E9950008B5070008B707000854
:10001000C7070008CB070008CF0700080000000052
:10002000000000000000000000000000FB95000838
:10003000D307000800000000FF95000801960008A3
:10004000039600080396000803960008039600082C
:10005000039600080396000803960008039600081C
:10006000039600083D350008039600080396000833
:100070000D4100089F4400084F41000875440008E6
:10008000039600080396000803960008592E0008FE
:10009000752E0008992E00080396000803960008A4
:1000A00003960008039600080396000803960008CC
:1000B00003960008039600080396000803960008BC
:1000C00003960008039600080396000803960008AC
:1000D00003960008672A0008BF3B00082940000873
:1000E000039600080396000803960008039600088C
:1000F000039600080396000803960008514700087D
:100100000396000803960008393600080396000895
:100110008F430008E3460008039600080396000892
:10012000039600087B4A00088D2B00080396000800
:10013000039600080396000803960008DF310008C4
:10014000FB3100089D330008039600080396000861
:1001500003960008D94A0008A32B00080F4A00089C
:10016000039600080396000803960008039600080B
:1001700003960008039600080396000803960008FB
:10018000039600080396000800F002F800F092F8C9
:100190000AA090E8000C82448344AAF10107DA45E2
:1001A00001D100F087F8AFF2090EBAE80F0013F0A2
:1001B000010F18BFFB1A43F001031847B4E0000019
:1001C000D4E00000103A24BF78C878C1FAD85207AA
:1001D00024BF30C830C144BF04680C6070470000C1
:1001E0000023002400250026103A28BF78C1FBD840
:1001F000520728BF30C148BF0B6070476E2909F015
:10020000D58470290AF03D8066290DF06D85652939
:100210000DF06A8567290DF0678561290DF0668507
:1002200003681B0A28BF41F08001692909F0EC82AC
:10023000642909F0E982752909F0E6826F2909F03D
:10024000CA8778290AF00980E92909F06587E42935
:1002500009F06287F52909F05F87EF2909F0C78760
:10026000F8290AF008800368DB0928BF41F0800103
:10027000632909F0E686732909F0EB86E3290AF081
:100280002182F3290AF02682002070471FB50DF065
:10029000E4FC0AF001F80400002000210CF0D0FD7D
:1002A000401C6060002000210CF0B4FDE0601FBD28
:1002B00010B510BD0AF0A8FA1146FFF7E7FF00F0ED
:1002C0005DF80AF0CFFA03B4FFF7F2FF03BC03F0C6
:1002D000AFFD000010B54FF4A06006F01BFCA82095
:1002E00002F082FC03F052FD03F068FD03F086FD8E
:1002F0004FF4E13002F0BEFA03F0FEFB4FF4E130C0
:1003000003F0A3FD4FF4E13003F031FF4FF47A70B6
:1003100002F0CCFC012002F0F7FCC82002F0C6FC81
:1003200040F2015002F026FE642002F0BFFC53218F
:1003300040F2CF7003F048F9C4A002F011FC10BDE8
:1003400010B5C7480078401CC549087008460078B9
:10035000142812DDC34800880D280ED1C248007849
:1003600058B1C2484388C2484288C2480178C2A0F6
:1003700002F0F6FB0020BA49087010BD2DED048B89
:1003800088B09FEDC40B8DED060B9FEDC40A8DED7B
:10039000040AFFF79FFF04F0D3FC002000F0B8FB35
:1003A000642002F083FC4FE1BD4800780028FAD0B9
:1003B00000F005FDAF48007830B101280FD00228C9
:1003C0007ED003280AD100E104F03AFE04F0A5FE35
:1003D000642002F06BFCB3A002F0C2FB2AE1A1484A
:1003E00000880D280DD1B348008802B2B2480088B9
:1003F00001B2B248008800B201F0FCFE04F08DFEAC
:1004000019E09848008801280DD1AD48008802B253
:10041000A948008801B2A948008800B202F0D2F9C8
:1004200004F00EFE07E08F4800880F2803D1012159
:10043000084600F0D4FEA3480088642852DD06AACE
:1004400004A905A89FEDA03B9FEDA12B9FEDA21B4A
:100450009FEDA30B06F0F0FA04980DF08DFB41EC34
:10046000180B05980DF088FB41EC190B9DED060B60
:100470008DED020B8DED008B53EC192B9AA002F041
:100480006FFB642002F012FC06AA04A905A89FEDE8
:100490009E3B9FED9F2B9FEDA01B9FED8D0B06F0CC
:1004A000CBFA04980DF068FB41EC180B05980DF0A1
:1004B00063FB41EC190B9DED060B8DED020B00E08B
:1004C00011E08DED008B53EC192B95A002F048FB49
:1004D000642002F0EBFB9A480078042802D1052042
:1004E00097490870A6E09748007860B19548407831
:1004F00048B99348007830B9012091490870914873
:100500000078904948708E48007809285BD2DFE86F
:1005100000F0050E5A1A2A315A4E5600642002F095
:10052000C5FB00F0C3FC88A002F01AFB4BE00121E0
:10053000084600F054FE0121084600F061FB01204E
:1005400000F0E6FA3FE00021022000F048FE8A4871
:10055000007838B188480078072803D002210020AD
:1005600000F04EFB2FE0642002F0A0FB83A002F01D
:10057000F7FA28E00021012000F031FE8B480078D6
:1005800030B18A480078072802D0002000F0C0FA75
:1005900086480078072803D10221012000F030FBB3
:1005A00075480078072801D1654908700BE00121E2
:1005B000022000F014FE022000F0AAFA03E000205E
:1005C0005F49087000BF00BF34E0794B93ED030A28
:1005D000BDEEC00A10EE103A1AB2754B93ED020A46
:1005E000BDEEC00A10EE103A19B2714B93ED010A3C
:1005F000BDEEC00A10EE103A18B201F0FBFD6C4BD4
:1006000093ED060ABDEEC00A10EE103A1AB2684B1E
:1006100093ED050ABDEEC00A10EE103A19B2644B14
:1006200093ED040ABDEEC00A10EE103A18B202F0C3
:10063000C9F800BF00BF00F01DFC00F0EBFB03F0A9
:10064000AFFA002016490870AEE6000073797320F7
:10065000696E69742066696E697368210D0A00000D
:10066000000000205C00002056000020A8000020B0
:10067000A40000200B0000206D6F64653A25642003
:10068000686D63663A256420686D63623A25640D7F
:100690000A00000000000000000000000000000050
:1006A000480000207374616E6462792E2E2E0D0A4C
:1006B0000000000054000020500000204E000020E8
:1006C000520000205A000020B4B8105439DC3E40DB
:1006D000281E36E200B35D402801E00A37DC3E40C8
:1006E0008E272E3901B35D4078313A252E336609C5
:1006F0002079313A252E336620646973313A252EEC
:1007000033660D0A00000000BF7D5F5439DC3E40B7
:10071000FC85C83001B35D40000000C038DC3E40BD
:1007200078323A252E3366092079323A252E3366FF
:1007300020646973323A252E33660D0A00000000EA
:100740000C000020010000207461736B206F6B2C83
:10075000706C616E6520696E20686F6D652C6167D5
:1007600076206973206368617267696E67206E6FB7
:10077000772E2E2E0D0A0000090000207461736B85
:10078000206F6B2C706C616E65206F757420686FC4
:100790006D652C6167762069732063686172676993
:1007A0006E67206E6F772E2E2E0D0A000800002037
:1007B000E8000020704705E006A002F0D1F96420AF
:1007C00002F074FAF8E700BFFEE700BFFEE700BFE3
:1007D000FEE77047686172646661756C742E2E2E38
:1007E0000D0A000010B5A2B00024802102A809F073
:1007F0003CF900200190F1222146641C02A84254D9
:1008000001222146641C4254641CBB4890ED000A3E
:100810008DED010A9DF804202146641C02A8425473
:100820009DF805202146641C42549DF8062021466F
:10083000641C42549DF807202146641C4254AE4873
:1008400090ED010A8DED010A9DF804202046611CFF
:10085000CCB202A90A549DF805202046611CCCB2F6
:1008600002A90A549DF806202046611CCCB202A9B8
:100870000A549DF807202046611CCCB202A90A54F4
:100880009D4890ED020A8DED010A9DF80420204656
:10089000611CCCB202A90A549DF805202046611CB7
:1008A000CCB202A90A549DF806202046611CCCB2A5
:1008B00002A90A549DF807202146601CC4B202A870
:1008C000425408222046611CCCB202A90A541922C3
:1008D0002046611CCCB202A90A548DF80A40A01E21
:1008E000C1B202A803F030FAA11E02AA5054214658
:1008F00002A802F023F922B010BD10B581780229B8
:1009000000DA10BD8B1EC25C0378F12B01D10123EC
:1009100000E000234478022C01D1012400E00024EF
:10092000234033B1C378754C23700379E370437966
:10093000237100BFE5E710B58178022900DA10BD08
:100940008B1EC25C0378712B01D1012300E00023D0
:100950004478082C01D1012400E000242340E3B3B3
:10096000C378674C63700379A3704379E370C379EC
:10097000847943EA042300EE103AB8EEC00A604BD3
:1009800083ED010A437A047A43EA042300EE103A25
:10099000B8EEC00A5A4B83ED020AC37A847A43EA5E
:1009A000042300EE103AB8EEC00A554B83ED030A5B
:1009B000437B047B43EA042300EE103AB8EEC00AFE
:1009C0004F4B83ED040AC37B847B43EA042300EE90
:1009D000103AB8EEC00A4A4B00E00CE083ED050A7D
:1009E000437C047C43EA042300EE103AB8EEC00ACC
:1009F000434B83ED060A00BFA1E710B590B0002479
:100A00004021684609F031F83E480078401C3D49D5
:100A10000870084600780A286BDD002008707122F3
:100A20002046611CCCB20DF8002007222046611C34
:100A3000CCB20DF80020601CC4B2334802782046C6
:100A4000611CCCB20DF8002000222046611CCCB203
:100A50000DF800202046611CCCB20DF800202B4878
:100A600002782046611CCCB20DF80020274842785D
:100A70002046611CCCB20DF8002024488278204624
:100A8000611CCCB20DF800202048C2782046611CC1
:100A9000CCB20DF800201D4802792046611CCCB272
:100AA0000DF80020194842792046611CCCB20DF89F
:100AB000002000222046611CCCB20DF80020082244
:100AC0002046611CCCB20DF8002019222046611C82
:100AD000CCB20DF800208DF80240A01EC1B26846CD
:100AE00003F032F9A11E0DF801002146684603F01B
:100AF000AFFC10B010BD0000A80E002001000020C7
:100B0000E8000020060000200B0000203E0000202E
:100B100010B50446002C47D0FE480078012806D0C6
:100B2000022814D0032822D004283CD132E004F05B
:100B30001FFBF9488078022808D1F748C0780228BE
:100B400004D104F01CFB0220F24908702BE004F0F1
:100B500023FBF1480079012808D1EF4840790128AA
:100B600004D104F020FB0320EA4908701BE004F0E4
:100B7000E2FAE948007801280BD1E74840780128DB
:100B800007D104F0E7FA0420E2490870E3A001F07D
:100B9000E7FF08E00720DF490870012C02D103209D
:100BA000E549087000BF2AE000BF04F0E1FA04F054
:100BB000F3FA04F0C0FAD84880780228F5D1D64874
:100BC000C0780228F1D1D44800790128EDD1D2486B
:100BD00040790128E9D1D04800780128E5D1CE48F4
:100BE00040780128E1D104F0CAFA04F0DCFA04F0FC
:100BF000B1FA0720C7490870D0A001F0B1FF10BDBD
:100C000070B504460D46012C6FD1D34800780128F9
:100C100016D1D1484078012812D1CF48807878B9D0
:100C2000CD48C07860B90120CC4908700020CC497B
:100C300008700120C8498870C870CAA001F090FFF0
:100C4000022D3CD1C5480078012804D0022812D0DA
:100C5000032833D12EE004F098FAAF480079022837
:100C600008D1AD484079022804D104F09CFA022052
:100C7000BA49087022E004F073FA04F063FAA64857
:100C80000078022815D1A4484078022811D1A24842
:100C9000807801280DD1A048C078012809D104F03E
:100CA0006EFA04F057FA0320AC490870B3A001F0C3
:100CB00057FF03E00720A949087000BF7EE0012D1F
:100CC0007CD1A6480078012806D0022820D003282D
:100CD0002ED004284FD147E0AE48008830B901201B
:100CE000AC49088004F02EFA11E045E0AA480088DB
:100CF000401CA949088008460088B0F5AA7F06DD97
:100D00000020088004F026FA02209449087032E09E
:100D100004F03BFA80480079022808D17E484079E7
:100D2000022804D104F03FFA03208C49087022E025
:100D300004F016FA04F006FA77488078012812D1F8
:100D40007548C07801280ED17348007802280AD16E
:100D500071484078022806D104F0FCF904F00FFA3B
:100D600004207E49087006E084A001F0F9FE072007
:100D70007A49087000BF21E004BB00BF04F005FA07
:100D800004F0E0F9644800790228F7D1624840791C
:100D90000228F3D1604800780228EFD15E484078FD
:100DA0000228EBD104F0FFF904F0E9F904F0D2F9DC
:100DB00000206A49087079A001F0D2FE70BD7E481B
:100DC0000078012802D17D49087022E07C48007833
:100DD000012803D10220794908701AE07848007888
:100DE000022803D100207549087012E07448007889
:100DF000032805D10020714908704F49087008E0A8
:100E00006D48007828B96E48007810B900206B4909
:100E1000087070472DE9FC410020009001900024EB
:100E20005025002600274FF0FF0866480078401C38
:100E30006449087008460078142819DD00200870FD
:100E40008DF800000A208DF8010001208DF80200C5
:100E50008DF803408DF804508DF805808DF80670EC
:100E60008DF807600822694640F2013002F0BDFAB1
:100E7000BDE8FC8110B54FF48061534806F0E4FEF4
:100E800018B901203449087002E000203249087086
:100E90004FF480514C4806F0D7FE18B901202E4976
:100EA000487002E000202C49487010BDFD204749E1
:100EB00008704749087047490870474908707047EB
:100EC00010B504464548C078012821D0434890F920
:100ED000020010F1020F05DC414890F9020010F108
:100EE000020F16DD3D4890F9020001280BDC3B485B
:100EF00090F90200B0F1FF3F05DB394890F902009C
:100F0000B0F1FF3F7BDB364890F90200012869E031
:100F100039E174E0080000203E00002072656C6535
:100F200061736520706C616E65206973206F6B2E34
:100F30002E2E0D0A000000000C0000207069636B6B
:100F4000706C616E65206973206F70656E206F6BC9
:100F50002E2E2E0D0A0000000E0000200900002099
:100F60000A00002066696E6420706C616E652069FD
:100F700073206F6B2E2E2E0D0A0000007069636BBC
:100F800020706C616E65206973206F6B2E2E2E0DA4
:100F90000A0000002E0000202C0000207069636B06
:100FA000206D616368696E6520697320636C6F737F
:100FB000652E2E2E0D0A0000560000200B0000208A
:100FC000010000203000002000100240120000202C
:100FD000130000201400002015000020B4000020A1
:100FE000AC0000201EDCFB4890F90200B0F1FF3F8E
:100FF00018DBF94890F90200B0F1FF3F12DA5020F7
:10100000F64908809FEDF60AF64880ED000A0120B7
:10101000F5490870F0484278EE484178F3A001F0B5
:101020009FFDD2E0EC4890F90200022804DBE94879
:1010300090F9020002281FDAE74890F9020001281F
:101040000ADCE54890F90200B0F1FF3F04DBE1481B
:1010500090F9020001280FDCDE4890F90200012817
:101060001DDCDC4890F90200B0F1FF3F17DBDA48E5
:1010700090F90200012812DD5020D84908809FED28
:10108000D80AD84880ED000AFF20D7490870D24816
:101090004278D0484178DFA001F062FD95E0CE486B
:1010A00090F90200022818DBCA4890F9020010F1FA
:1010B000020F12DA5020C94908809FEDDF0AC948A3
:1010C00080ED000A0020C8490870C3484278C14832
:1010D0004178DAA001F044FD77E0BF4890F90200C2
:1010E00010F1020F17DCBB4890F90200022812DD54
:1010F0005020BA4908809FEDDA0ABA4880ED000A0C
:101100000020B9490870B4484278B2484178D5A067
:1011100001F026FD59E0DC48408888B9DB4840886A
:1011200070B90020AD4908809FEDD90AAD4880ED27
:10113000000A0020AC490870D6A001F011FD44E07F
:10114000012C0AD1B420A5490880A3484278A148BF
:101150004178D5A001F004FD0CE0022C0AD16FF01B
:10116000B3009E4908809C4842789A484178D7A0AD
:1011700001F0F6FC9FEDC60A9A4880ED000A0020B7
:101180009949087021E0012C0AD1B42093490880C4
:10119000914842788F484178C3A001F0E1FC0CE00F
:1011A000022C0AD16FF0B3008C4908808A4842783B
:1011B00088484178C5A001F0D3FC9FEDB50A894865
:1011C00080ED000A00208849087010BD884201DDCA
:1011D000084603E04A42904200DA4842704770B540
:1011E00004460D46C2480088401CC1490880084694
:1011F00000880A287EDD00200880A34948887549B8
:1012000003F0F0FFA1494888734903F0EBFFB948A8
:101210000078B94908707048C078B6490870B74876
:10122000007878B1B548007807280BD000206B49CA
:1012300008809FED970A6B4880ED000A00206A49FC
:10124000087096E2AE48007878B1AD48007807287B
:101250000BD00020614908809FED8D0A614880ED28
:10126000000A002060490870EBE7A64800780128D2
:101270000BD10020594908809FED850A594880ED1F
:10128000000A002058490870DBE7012D7DD1022CAF
:101290007CD19D4890F90000C01CD0B995480078D9
:1012A000012816D194480078012812D0FE209649D2
:1012B00008706FF0B300494908809FED750A4948EE
:1012C00080ED000A00204849087090A001F048FC19
:1012D000B7E78D4890F90000801CE0B98548007898
:1012E000012818D084480078012814D1FF208649AD
:1012F000087000E0FAE36FF0B300384908809FED12
:10130000640A384880ED000A00203749087087A039
:1013100001F026FC95E77C4890F90000401CD0B90C
:1013200074480078012816D173480078012812D03B
:101330000020754908706FF0B300284908809FEDC0
:10134000540A284880ED000A0020274908707FA031
:1013500001F006FC75E76C480078E0B96548007854
:10136000012818D064480078012814D16649087013
:101370006FF06300194908809FED450A194880ED18
:10138000000A00201849087001E072E275E17BA0B4
:1013900001F0E6FB55E75C480078012819D1554873
:1013A0000078012815D154480078012811D0022076
:1013B00055490870012051490870002007490880EC
:1013C0009FED330A074880ED000A002006490870A7
:1013D000ECE0EFE0AC000020B4000020160000209C
:1013E00000003442180000201C0000207475726E4A
:1013F00020726967687420686D63665F6D69643A1E
:10140000256420686D63625F6D69643A25640D0A26
:10141000000000007475726E206C65667420686D43
:1014200063665F6D69643A256420686D63625F6D11
:1014300069643A25640D0A000000B44272756E209A
:10144000726967687420686D63665F6D69643A25C8
:101450006420686D63625F6D69643A25640D0A00FB
:101460000000B4C272756E206C65667420686D638E
:10147000665F6D69643A256420686D63625F6D69BB
:10148000643A25640D0A0000A4000020A800002092
:10149000000000006D697373206C696E652C7374B5
:1014A0006F700D0A00000000676F206F7574206870
:1014B0006D63665F6D69643A256420686D63625F81
:1014C0006D69643A25640D0A00000000676F2062B0
:1014D00061636B20686D63665F6D69643A256420A3
:1014E000686D63625F6D69643A25640D0A000000EF
:1014F000320000201D0000201E00002008000020F7
:10150000090000200A0000201200002072656C65AE
:1015100061736520706C616E65206C696E65206614
:10152000696E642E2E2E0D0A0000000072656C6537
:1015300061736520706C616E65206C696E65206DED
:101540006973732E2E2E0D0A0000000066697273F7
:1015500074206C696E652066696E642C6167762004
:101560006E6F742073746F70207374696C6C206775
:101570006F206261636B2E2E2E0D0A0066697273F6
:1015800074206C696E65206D6973732C61677620B9
:101590006E6F742073746F70207374696C6C206745
:1015A0006F206261636B2E2E2E0D0A00E4A001F005
:1015B000D7FA46E6EE48007802281AD1ED480078BE
:1015C000012816D0EC480078012812D10320E84900
:1015D00008706FF0B300E94908801FED530AE8482E
:1015E00080ED000A0020E7490870E7A001F0B8FA92
:1015F00027E6DF48007803281AD1DE480078012862
:1016000016D1DD480078012812D00420D84908708E
:101610006FF0B300D94908801FED630AD84880ED08
:10162000000A0020D7490870E0A001F099FA08E606
:10163000CF48007804281CD1CE480078012818D063
:10164000CD480078012814D10520C9490870002030
:10165000CA4908801FED720AC94880ED000A0020BF
:10166000C84908700820D7490870D7A001F078FA57
:10167000E3E30220FFF724FCDFE3012C99D1DC48EF
:1016800090F90000C01CC8B9BA480078012815D1EB
:10169000B9480078012811D0FE20D5490870B4203F
:1016A000B64908801FED860AB54880ED000A002083
:1016B000B4490870CFA001F053FABEE3CC4890F9CA
:1016C0000000801CC8B9AB480078012815D0AA4892
:1016D0000078012811D1FF20C5490870B420A7491E
:1016E00008801FED950AA64880ED000A0020A54954
:1016F0000870C6A001F034FA9FE3BD4890F90000DD
:10170000401CC8B99B480078012815D19A48007838
:10171000012811D00020B64908706420974908803C
:101720001FEDA50A964880ED000A00209549087033
:10173000BCA001F015FA80E3AD480078D0B98D481F
:101740000078012816D08C480078012812D1A849C9
:101750000870BA4908700020884908801FEDB40A53
:10176000874880ED000A002086490870B4A001F087
:10177000F7F962E39E480078012819D17D48007886
:10178000012815D17C480078012811D00220984901
:101790000870B420794908801FEDC30A784880EDAD
:1017A000000A002077490870B1A001F0D9F944E39C
:1017B0008F480078022819D16E480078012815D08A
:1017C0006D480078012811D1032089490870B420A0
:1017D0006A4908801FEDD20A694880ED000A00209E
:1017E00068490870A8A001F0BBF926E3804800789A
:1017F000032819D15F480078012815D15E48007888
:10180000012811D004207A490870B4205B4908806F
:101810001FEDE10A5A4880ED000A0020594908707E
:1018200062A001F09DF908E37148007804281CD1FA
:1018300050480078012818D04F480078012814D16A
:1018400005206B49087000204C4908801FEDF00A04
:101850004B4880ED000A00204A4908700120944955
:10186000087094A001F07CF9E7E20120FFF728FB63
:10187000E3E2002D9BD1022C60D19A4890F9000040
:10188000C01CD8B93B480078012817D13A480078E5
:10189000012813D0FE20934908706FF0B300374938
:1018A00008809FED910A364880ED000A00203549F6
:1018B0000870AFF2A83001F053F9BEE2894890F900
:1018C0000000801CD8B92B480078012817D02A487E
:1018D0000078012813D1FF20824908706FF0B3000F
:1018E000264908809FED800A254880ED000A0020E7
:1018F00024490870AFF2CC3001F032F99DE279480A
:1019000090F90000401CD0B91A480078012816D17F
:1019100019480078012812D000207249087001206F
:10192000464908700020154908809FED6F0A144849
:1019300080ED000A002013490870D8E07CE1DAE06D
:101940007365636F6E64206C696E652066696E6492
:101950002C6167762073746F7020616E64207265ED
:101960006C6561736520706C616E650D0A00000026
:10197000120000201D0000201E0000201600002084
:10198000180000201C0000207365636F6E64206CDB
:10199000696E65206D6973732C61677620676F20AF
:1019A0006261636B20686F6D650D0A00746869720F
:1019B00064206C696E652066696E642E2E2E0D0A99
:1019C000000000000C0000207468697264206C69DB
:1019D0006E65206D6973732C6167762073746F7008
:1019E000206368616E67652E2E2E0D0A00000000D0
:1019F00013000020636861726765206C696E652062
:101A000066696E642E2E2E0D0A00000063686172F6
:101A10006765206C696E65206D6973732E2E2E0DBF
:101A20000A0000006669727374206C696E65206636
:101A3000696E642E2E2E0D0A0000000009000020A1
:101A40006669727374206C696E65206D6973732C9E
:101A50006167762073746F7020616E6420706963B3
:101A60006B20706C616E652E2E2E0D0A000000003A
:101A70007365636F6E64206C696E652066696E6461
:101A80002E2E2E0D0A0000007365636F6E64206CAD
:101A9000696E65206D6973732C6167762073746954
:101AA0006C6C20676F206F75742E2E2E0D0A00004F
:101AB000080000207468697264206C696E65206D8E
:101AC0006973732C6167762073746F7020616E6424
:101AD0002072656C6561736520706C616E652E2E79
:101AE0002E0D0A001400002000000000C0E2F3A048
:101AF00001F036F8A1E1FD480078C8B9FC4800784B
:101B0000012815D0FB480078012811D1F749087049
:101B10006FF0B300F84908801FED0D0AF74880ED1B
:101B2000000A0020F6490870F6A001F019F884E1D7
:101B3000EE48007801281BD1ED480078012817D124
:101B4000EC480078012813D00220E84908706FF0B3
:101B5000B300E94908801FED1C0AE84880ED000A3F
:101B60000020E7490870AFF2F80000F0F9FF64E1E7
:101B7000DE48007802281AD1DD480078012816D006
:101B8000DC480078012812D10320D84908706FF092
:101B9000B300D94908801FED2C0AD84880ED000A0F
:101BA0000020D7490870DDA000F0DAFF45E1CF48FA
:101BB000007803281BD1CE480078012817D1CD48E2
:101BC0000078012813D00420C84908706FF0B300D2
:101BD000C94908801FED3C0AC84880ED000A002072
:101BE000C7490870AFF23C2000F0BAFF25E1BF48BA
:101BF000007804281CD1BE480078012818D0BD48C0
:101C00000078012814D10520B84908700020BA498D
:101C100008801FED4B0AB94880ED000A0020B84942
:101C200008700420C7490870C7A000F099FF04E1BC
:101C30000220FFF745F900E1012C98D1D14890F935
:101C40000000C01CD0B9AA480078012816D1A948C4
:101C50000078012812D0FE20CA490870B420A64995
:101C600008801FED5F0AA54880ED000A0020A44906
:101C70000870AFF2802000F073FFDEE0C14890F9F9
:101C80000000801CD0B99A480078012816D09948E5
:101C90000078012812D1FF20BA490870B420964973
:101CA00008801FED6F0A954880ED000A00209449D6
:101CB0000870AFF2A82000F053FFBEE0B14890F9E1
:101CC0000000401CD0B98A480078012816D1894804
:101CD0000078012812D00020AA490870B420864953
:101CE00008801FED7F0A854880ED000A00208449A6
:101CF0000870AFF2D02000F033FF9EE0A1480078DA
:101D0000C0B97B480078012814D07A4800780128AF
:101D100010D19C4908709CA000F022FFB4207649A5
:101D200008801FED8F0A754880ED000A0020744975
:101D3000087082E09348007801281AD16C48007836
:101D4000012816D16B480078012812D002208D4955
:101D50000870AFF2E42000F003FFB4206649088069
:101D60001FED9F0A654880ED000A00206449087055
:101D700063E08448007802281CD15D48007801287F
:101D800018D05C480078012814D103207D490870E0
:101D900001208849087088A000F0E2FE0020564922
:101DA00008801FEDAF0A554880ED000A0020544915
:101DB000087042E07348007803281AD14C48007834
:101DC000012816D14B480078012812D004206D4913
:101DD0000870AFF2284000F0C3FEB42046490880E6
:101DE0001FEDBF0A454880ED000A002044490870F5
:101DF00023E06448007804281CD13D48007801287D
:101E000018D03C480078012814D105205D4908709D
:101E100001207449087074A000F0A2FE0020364929
:101E200008801FEDCF0A354880ED000A00203449B4
:101E3000087002E00120FFF743F8314800780128DC
:101E40003AD12D48B0F90000724908802A48B0F90B
:101E50000000714908802848B0F900006F490880E7
:101E60002548B0F900006E490880244991ED000A28
:101E7000DFED6C0A20EE200ABDEEC00A10EE100A5B
:101E80004FF44831FFF7A2F94042674908601B4907
:101E900091ED000ADFED630A20EE200ABDEEC00AD4
:101EA00010EE100A4FF44831FFF790F95F490860CF
:101EB000124991ED000ABBE0DBE000006669727335
:101EC00074206C696E652066696E642C616776208B
:101ED00073746F7020616E6420636C6F7365207023
:101EE00069636B2E2E2E0D0A0000000014000020E6
:101EF0001D0000201E0000201600002018000020F9
:101F00001C0000206669727374206C696E65206D18
:101F10006973732E2E2E0D0A000000007365636F27
:101F20006E64206C696E65206D6973732C616776D1
:101F3000207374696C6C20676F206261636B2E2E56
:101F40002E0D0A000C0000207468697264206C6910
:101F50006E65206D6973732C6167762073746F7082
:101F600020616E64206368617267652C706C616EBD
:101F700065206973206F7574736964652E2E2E0D4C
:101F80000A000000150000206669727374206C69F5
:101F90006E65206D6973732C616776206973207399
:101FA00074696C6C20676F206F75742E2E2E0D0A6D
:101FB00000000000080000207365636F6E64206CF1
:101FC000696E65206D6973732C7265616479207424
:101FD0006F206F70656E207069636B2E2E2E0D0A58
:101FE000000000000A0000207468697264206C69B7
:101FF0006E65206D6973732C726561647920746FEE
:10200000207069636B20706C616E652E2E2E0D0A38
:1020100000000000780000207A0000207C000020F2
:102020007E000020CD380E45800000208400002076
:102030005FED040A20EE200ABDEEC00A10EE100A81
:102040004FF44831FFF7C2F84042FC490860FC49B0
:1020500091ED000A5FED0D0A20EE200ABDEEC00AE8
:1020600010EE100A4FF44831FFF7B0F8F549086058
:10207000BFE0F54890F90000401CE0BBF348008841
:10208000404200B2F2490880F0480088404200B265
:10209000F0490880ED480088404200B2EE490880CF
:1020A000EA480088404200B2EC490880E44991EDDA
:1020B000000A5FED240A20EE200ABDEEC00A10EEF1
:1020C000100A4FF44831FFF781F84042E4490860B4
:1020D000DB4991ED000A5FED2D0A20EE200ABDEEEE
:1020E000C00A10EE100A4FF44831FFF76FF8DD49CF
:1020F0000860D34900E022E091ED000A5FED370A65
:1021000020EE200ABDEEC00A10EE100A4FF448314E
:10211000FFF75CF84042C9490860C94991ED000ADF
:102120005FED400A20EE200ABDEEC00A10EE100A54
:102130004FF44831FFF74AF8C249086059E0C348F4
:102140000088404200B2C2490880C048008840422E
:1021500000B2C0490880BD48B0F90000BE490880FF
:10216000BA48B0F90000BD490880B54991ED000AB0
:102170005FED540A20EE200ABDEEC00A10EE100AF0
:102180004FF44831FFF722F8B5490860AC4991EDAA
:10219000000A5FED5C0A20EE200ABDEEC00A10EED8
:1021A000100A4FF44831FFF711F8AE490860A4490E
:1021B00091ED000A5FED650A20EE200ABDEEC00A2F
:1021C00010EE100A4FF44831FFF700F89B49086001
:1021D0009B4991ED000A5FED6D0A20EE200ABDEEED
:1021E000C00A10EE100A4FF44831FEF7EFFF954990
:1021F000086070BD2DE9FC4F0746884691460025D2
:102200000024002300269A469B460020019000905F
:10221000A8F57A7004B2A7F57A7003B2A9F57A70BE
:1022200006B2002B01DD184600E05842B0F5967F5B
:102230007BDD002C01DD204600E06042B0F5967F9A
:10224000F6DD894890ED000A884880ED000AB3F574
:10225000967F21DD14F5967F1EDA9FED850A824870
:1022600080ED000A002B01DD184600E05842002CEA
:1022700001DD214600E061420844404200EE100AC0
:10228000B8EEC00ADFED7B0A20EE200ABDEEC00AE0
:1022900010EE100A05B2C1E013F5967F21DA14F5AD
:1022A000967F1EDA9FED740A6F4880ED000A002BBE
:1022B00001DD184600E05842002C01DD214600E017
:1022C00061420844404200EE100AB8EEC00ADFED59
:1022D000690A20EE200ABDEEC00A10EE100A05B20F
:1022E0009CE013F5967F21DAB4F5967F1EDD9FED15
:1022F000600A5D4880ED000A002B01DD184600E011
:102300005842002C01DD214600E06142084400EE05
:10231000100AB8EEC00ADFED570A20EE200ABDEE23
:10232000C00A10EE100A05B278E023E0B3F5967FFC
:1023300074DDB4F5967F71DD9FED4F0A4A4880ED5C
:10234000000A002B01DD184600E05842002C01DD98
:10235000214600E06142084400EE100AB8EEC00ACF
:10236000DFED440A20EE200ABDEEC00A10EE100A8E
:1023700005B253E0002B01DD184600E05842B0F5ED
:10238000967F26DD002C01DD204600E06042B0F59E
:10239000967F1EDA344890ED000A344880ED000A3A
:1023A000B3F5967F08DD9FED350A2F4880ED000AD2
:1023B000A3F5967005B231E013F5967F2EDA9FED06
:1023C000300A294880ED000A03F59670404205B2B4
:1023D00024E0002B01DD184600E05842B0F5967F5E
:1023E0001CDA002C01DD204600E06042B0F5967F4B
:1023F00014DD1D4890ED000A1C4880ED000A9FED99
:10240000210A194880ED000AB4F5967F03DDA4F592
:10241000967005B202E004F5967005B2002E01DD5B
:10242000304600E07042B0F5967F7DDDB6F5967FD0
:102430002ADDA6F5967005B229E00000880000208C
:10244000180000208C0000201C0000201600002036
:10245000780000207A0000207C0000207E00002010
:10246000800000208400002024000020280000209C
:10247000000034C29A99193F000034420000B4426F
:102480000000B4C20000000006F5967005B2EC48EA
:1024900090ED000AEB4880ED000A1FED090AE848BC
:1024A00080ED000AE74890ED000AE548D0ED000A0B
:1024B00030EE600AB5EEC00AF1EE10FA08DDE14830
:1024C00090ED000ADE48D0ED000A30EE600A09E027
:1024D000DC4890ED000ADA48D0ED000A30EE600AE0
:1024E000B1EE400AF3EE040AB4EEE00AF1EE10FA9F
:1024F00002DD1920D4490880D3480088401E00B26C
:10250000D14908800846B0F90000002844DC0020CA
:10251000088005EB450000B2CC49088005EB45007A
:1025200000B2CB49088000E037E005EB450000B27F
:10253000C849088005EB450000B2C7490880C0487B
:1025400090ED000AB1EE400ADFEDC40A20EE200A49
:10255000BDEEC00A10EE10AA90ED000ADFEDBF0A32
:1025600020EE200ABDEEC00A10EE10BA90ED000A6F
:10257000B1EE400ADFEDB90A20EE200ABDEEC00A36
:102580008DED010A90ED000ADFEDB40A20EE200A7D
:10259000BDEEC00A8DED000AF6E0002B01DD184605
:1025A00000E05842B0F5967F49DA002C01DD204664
:1025B00000E06042B0F5967F41DA1FED4E0AA04878
:1025C00080ED000A0025684200EB80009F490880EA
:1025D000684200EB80009E49088005EB85009D491C
:1025E000088005EB85009C490880954890ED000A1D
:1025F000DFED9A0A20EE200ABDEEC00A10EE10AA06
:1026000090ED000ADFED950A20EE200ABDEEC00A2B
:1026100010EE10BA90ED000ADFED900A20EE200ACD
:10262000BDEEC00A8DED010A90ED000ADFED8B0AC8
:1026300020EE200ABDEEC00A8DED000AA4E081481C
:1026400090ED000A7E48D0ED000A30EE600AB5EE4B
:10265000C00AF1EE10FA08DD7A4890ED000A7848D9
:10266000D0ED000A30EE600A09E0764890ED000AED
:102670007348D0ED000A30EE600AB1EE400ADFED9B
:10268000780AB4EEE00AF1EE10FA03DD20206E497C
:10269000088029E06B4890ED000A6948D0ED000AF7
:1026A00030EE600AB5EEC00AF1EE10FA08DD6548BA
:1026B00090ED000A6248D0ED000A30EE600A09E0B1
:1026C000604890ED000A5E48D0ED000A30EE600AE6
:1026D000B1EE400AF3EE0E0AB4EEE00AF1EE10FAA3
:1026E00002DD14205849088057480088401E00B277
:1026F000554908800846B0F9000000281BDC00207E
:102700000880684200EB4000400000B24F4908805A
:10271000684200EB4000400000B24D49088005EBE4
:102720004500400000B24B49088005EB45004000E1
:1027300000B249490880424890ED000ADFED470A9F
:1027400020EE200ABDEEC00A10EE10AA90ED000A9D
:10275000DFED420A20EE200ABDEEC00A10EE10BAEC
:1027600090ED000ADFED3D0A20EE200ABDEEC00A22
:102770008DED010A90ED000ADFED380A20EE200A07
:10278000BDEEC00A8DED000A4FF448315046FEF709
:102790001DFD344908604FF448315846FEF716FDD8
:1027A000314908604FF448310198FEF70FFD2F4979
:1027B00008604FF448310098FEF708FD2C49086086
:1027C000BDE8FC8F2DE9F04704460D4691460026F2
:1027D0000027B046A9F57A700FFA80F8A5F57A704F
:1027E00007B2A4F57A7006B2B6F5967F02DD02F064
:1027F000A2FC07E016F5967F02DA02F0A3FC01E0E6
:1028000002F0A8FCB7F5967F02DD02F0A9FC07E014
:1028100017F5967F02DA02F0ABFC01E002F0AFFCA4
:10282000B8F5967F02DD02F0B0FC07E018F5967F60
:1028300002DA02F0B1FC01E002F0B5FCBDE8F0877D
:102840002400002028000020200000207800002024
:102850007A0000207C0000207E000020CD380E454C
:1028600000007042800000208400002088000020CA
:102870008C00002010B596B004460121084605F0F2
:10288000C7FB0121102005F007FC07220921CD48D4
:1028900005F003FA07220A21CA4805F0FEF90020D4
:1028A0008DF8560001208DF8570002208DF8540055
:1028B0000002149002208DF8550014A9C14805F0BB
:1028C00061F902208DF854004002149014A9BD480B
:1028D00005F058F9BC4806F02BFB10940020ADF829
:1028E0004400ADF84600ADF84800ADF84C000C20AF
:1028F000ADF84A0010A9B44806F068FB002240F287
:102900002551B14806F0A0FC002240F22661AE48F5
:1029100006F09AFC012240F22441AB4806F094FCF8
:102920000121A94806F0DAFB0121880505F070FBBA
:1029300001224021A44806F07EFC01228021A24809
:1029400006F079FC25208DF83C0001208DF83D0033
:102950008DF83E008DF83F000FA804F0E0F8462007
:102960008DF83C0002208DF83D008DF83E000120DE
:102970008DF83F000FA804F0D2F83A208DF83C0003
:1029800000208DF83D0002208DF83E0001208DF8DA
:102990003F000FA804F0C3F88C4804F023FE4FF06A
:1029A000006000908848001D019089480290002036
:1029B000039080200490002005904FF480600690E2
:1029C0000020079008904FF4807009904FF4403039
:1029D0000A9000200B900C900D900E9069467B4859
:1029E00004F0A2FE0121794804F0D8FE774878303F
:1029F00004F0F8FD4FF0006000907348001D019056
:102A0000744802904020039080200490002005909C
:102A10004FF48060069000200790089009904FF4D2
:102A200080300A9000200B900C900D900E9069461B
:102A30006648783004F078FE01228021624806F072
:102A4000FAFB012210216148783004F034FF0021A4
:102A50005E48783004F0A2FE16B010BD0246506801
:102A6000081A80B2704770B50024002540F2255145
:102A7000554806F024FC18B1534806F05EFBC4B27A
:102A800040F22441504806F01AFC18B35048FDF7B4
:102A900034FF4F48FDF74FFF80214C48FFF7DEFF22
:102AA0004D4908800021494804F078FE00BF47489E
:102AB00004F0C1FE0028FAD18021444804F08FFEC2
:102AC0000121424804F06AFE3F480088C5B23E48F2
:102AD0008088C5B270BD10B5044600BF20213A48B9
:102AE00006F0D7FB0028F9D0374806F026FB10BDCA
:102AF00070B504460D4639480078F0B900213348D6
:102B0000783004F04BFE00BF3048783004F093FE7C
:102B10000028F9D1002221462C48783004F07CFEB0
:102B2000A9B22A48783004F05AFE012127487830AB
:102B300004F034FE01202949087070BD70B50546C7
:102B40000E46002400BF04E0285D22490855601CA1
:102B5000C4B2B442F8DB31461E48FFF7C9FF70BD6E
:102B60000FB438B505A800901A48009A049906F0E9
:102B7000D3FD00200090174806F058FF0446214678
:102B80001448FFF7B5FF38BC5DF814FB10B51449C5
:102B90000E4804F0ADFE18B111490C4804F0D2FE05
:102BA00010BD10B50F490948783004F0A1FE38B1C6
:102BB00000200A4908700B490448783004F0C2FE2E
:102BC00010BD0000000002400010014040640240BF
:102BD0000801002088010020360000203400002079
:102BE000008020100080002810B504466FF004001B
:102BF00003F0E2FFE11704EB5171C1F3C701404A52
:102C000011701046007800EB4001C1EBC0104FF688
:102C1000FF7101EAC0003B49088010BD0146384AF7
:102C200012784A434FF0E0235A6100229A611A4613
:102C3000126942F001021A6100BF4FF0E0221069F0
:102C400000F001021AB100F48032002AF5D04FF0F2
:102C5000E022126922F001024FF0E0231A61002203
:102C60009A6170470146274A12884A434FF0E02391
:102C70005A6100229A611A46126942F001021A61F1
:102C800000BF4FF0E022106900F001021AB100F419
:102C90008032002AF5D04FF0E022126922F00102C2
:102CA0004FF0E0231A6100229A61704770B5044624
:102CB0004FF4077094FBF0F0C6B24FF4077094FB2A
:102CC000F0F100FB114085B205E04FF40770FFF70B
:102CD000C9FF701EC6B2002EF7D115B12846FFF706
:102CE000C1FF70BD10B5002107E04AF2104200BFDD
:102CF000131EA2F10102FBD1491C8142F5D310BD84
:102D0000380000203A00002010B58AB004460121A6
:102D1000084605F07DF90121480605F0ACF90922C5
:102D20000C21914804F0B9FF09220B218E4804F0D0
:102D3000B4FF4FF4C050019002208DF8080000202D
:102D40008DF80A0003208DF8090001A9864804F0D7
:102D500019FF14208DF8000001208DF801000220D9
:102D60008DF8020001208DF80300684603F0D7FEBD
:102D700015208DF8000001208DF8010002208DF84B
:102D8000020001208DF80300684603F0C8FE1320FE
:102D90008DF8000001208DF801008DF802008DF8FB
:102DA0000300684603F0BBFE704803F023FF07A84A
:102DB00004F044F800208DF822008DF823008DF8EF
:102DC00024008DF825008DF8260001208DF82700BD
:102DD00000208DF81E008DF81F0008208DF82000BF
:102DE00003208DF821000620ADF81C0007A95F48DC
:102DF00003F019FF00208DF816008DF81700012050
:102E00008DF818004FF6FF7000EA4410ADF80C0082
:102E10000020ADF80E004FF6FF70ADF81000401E18
:102E2000ADF812000020ADF8140001208DF8190053
:102E300003A803F082FF012202214C4804F07CFA2F
:102E400001221021494804F077FA0122114647482F
:102E500004F072FA0AB010BD10B50121434804F025
:102E6000D3FA30B101204249087001213F4804F0F3
:102E700066FB10BD00B585B002213C4804F0C4FAE1
:102E800040B10221394804F05AFB6A460021374814
:102E900004F037F905B000BD00B585B01021334806
:102EA00004F0B2FA40B11021304804F048FB6A4601
:102EB00001212E4804F025F905B000BDF0B585B01C
:102EC00006460F461546002400208DF808008DF8B0
:102ED00009008DF80A50009600BF05E0395D0DF13C
:102EE0000B000155601CC4B2AC42F7DB01E0601C72
:102EF000C4B269461D4804F00FF8042801D17F2CA4
:102F0000F5DB05B0F0BD2DE9F04186B006460F4671
:102F100015460024A04604208DF80C0000208DF8F2
:102F20000D008DF80E50029600BF05E0395D0DF1E1
:102F30000F000155601CC4B2AC42F7DB09E008F198
:102F4000010000F0FF08B8F1050F02DD4FF00008A6
:102F500005E001A9054803F0DFFF0428EFD000BF1A
:102F600006B0BDE8F08100000000024000640040AF
:102F70003C00002010B58AB004460121022005F073
:102F800047F80121880605F076F809220C21FA4855
:102F900004F083FE09220D21F74804F07EFE4FF471
:102FA0004050019002208DF8080000208DF80A00A2
:102FB00003208DF8090001A9EF4804F0E3FD40204B
:102FC0008DF8000001208DF8010002208DF802002C
:102FD00001208DF80300684603F0A1FD41208DF823
:102FE000000001208DF8010002208DF80200012070
:102FF0008DF80300684603F092FD3F208DF8000035
:1030000001208DF801008DF802008DF8030068465C
:1030100003F085FDD94803F0EDFD07A803F00EFF8E
:1030200000208DF822008DF823008DF824008DF803
:1030300025008DF8260001208DF8270000208DF84E
:103040001E008DF81F0008208DF8200003208DF849
:1030500021000C20ADF81C0007A9C84803F0E3FDCF
:103060000E208DF8160000208DF8170001208DF835
:1030700018004FF6FF7000EA4410ADF80C00002075
:10308000ADF80E00ADF81000ADF81200ADF8140068
:1030900001208DF8190003A803F04FFE0F208DF8D2
:1030A000160000208DF8170001208DF81800601C14
:1030B0004FF6FF7101EA4010ADF80C000020ADF8AA
:1030C0000E00ADF81000ADF81200ADF814000120AC
:1030D0008DF8190003A803F030FE10208DF81600BB
:1030E00000208DF8170001208DF81800A01C4FF665
:1030F000FF7101EA4010ADF80C000020ADF80E00A1
:10310000ADF81000ADF81200ADF8140001208DF8F4
:10311000190003A803F011FE11208DF816000020FD
:103120008DF8170001208DF81800C020ADF80C00B4
:103130000020ADF80E00ADF81000ADF81200ADF8AB
:10314000140001208DF8190003A803F0F6FD1220E9
:103150008DF8160000208DF8170001208DF818005A
:10316000E020ADF80C000020ADF80E00ADF8100026
:10317000ADF81200ADF8140001208DF8190003A875
:1031800003F0DBFD13208DF8160000208DF81700EA
:1031900001208DF8180044F22000ADF80C0000204A
:1031A000ADF80E00ADF81000ADF81200ADF8140047
:1031B00001208DF8190003A803F0BFFD01220221B0
:1031C0006E4804F0B9F8012210216C4804F0B4F8FC
:1031D00001221146694804F0AFF80AB010BD10B5DD
:1031E0000121664804F010F930B10121634804F070
:1031F000A6F901206249087010BD10B586B0022101
:103200005E4804F001F9002879D002215B4804F0FF
:1032100096F901AA0021594803F073FF594C02980E
:10322000A04237D19DF810009DF80F1040EA012010
:1032300000EE100AB8EEC00AF2EE040A80EE201A80
:10324000514880ED001A9DF814109DF8130041EAD2
:10325000002000EE100AB8EEC00AF2EE040A80EE7A
:10326000201A9FED4A0A31EE400A474880ED010AD4
:103270009DF816109DF8150041EA002000EE100A96
:10328000B8EEC00AF2EE040A80EE201A3E4880ED45
:10329000021A24E0019806280FD19DF810003C493D
:1032A00008709DF8110048709DF811109DF81000ED
:1032B00041EA00203649488011E0019807280ED1E4
:1032C0009DF81000334908709DF8110048709DF872
:1032D00011109DF8100041EA00202E49488040F26C
:1032E0000121019888422CD19DF80F002A4988704D
:1032F00008468078012803D10220887007E038E072
:1033000025488078022802D10120234988709DF841
:1033100010002149C8709DF8110008700846007817
:10332000012802D10220087006E01B48007802281C
:1033300002D10120184908709DF812001649487002
:1033400016E040F201510198884211D19DF80F001A
:10335000114908719DF81000012802D1022048711E
:1033600006E09DF81000022802D101200A494871A8
:1033700000BF06B010BD000000040240006800401D
:103380003D00002001409018A80E002000803B4521
:10339000A8000020A40000203E00002000B585B059
:1033A0001021414804F030F8E8B110213E4804F003
:1033B000C6F86A4601213C4803F0A3FE009806289F
:1033C00007D19DF80C00394908709DF80D00487030
:1033D00009E00098072806D19DF80C0034490870D0
:1033E0009DF80D00487005B000BD2DE9F04186B094
:1033F00006460F4615460024A04600208DF80C0016
:103400008DF80D008DF80E50019600BF05E0395D76
:103410000DF10F000155601CC4B2AC42F7DB09E0AE
:1034200008F1010000F0FF08B8F1050F02DD4FF0D0
:10343000000805E001A91C4803F06EFD0428EFD048
:1034400000BF06B0BDE8F0812DE9F04186B0064628
:103450000F4615460024A04604208DF80C000020DD
:103460008DF80D008DF80E50029600BF05E0395D15
:103470000DF10F000155601CC4B2AC42F7DB09E04E
:1034800008F1010000F0FF08B8F1050F02DD4FF070
:10349000000805E001A9044803F03EFD0428EFD030
:1034A00000BF06B0BDE8F08100680040A800002021
:1034B000A40000201CB50121022004F0A9FD012177
:1034C000042004F0D8FD684604F0A4FBC02000905E
:1034D00002208DF8040003208DF8050001208DF8EE
:1034E00007006946FE4804F04DFB02220621FC4815
:1034F00004F0D3FB02220721F94804F0CEFB00239D
:103500001A460321F74805F0E2FC47F6FF70F5493B
:10351000243108600121F34804F0EEFF1CBDF1499D
:10352000243102680968A1F5FE41FF3911440160A8
:1035300047F6FF71EB4A24321160704710B5EA4834
:103540000068401CE8490860082004F0A4FA10BD97
:1035500000B585B00121880304F09EFD0121022001
:1035600004F056FD0820009000208DF80400032090
:103570008DF8050001208DF807006946D84804F051
:1035800001FB0321012005F0EFFE0820029000203E
:103590008DF80C000C208DF80D0001208DF80E0028
:1035A00002A804F001FA09208DF8100003208DF81C
:1035B000110002208DF8120001208DF8130004A8DC
:1035C00003F0ADFA05B000BD7FB505460C460121FC
:1035D000082004F050FDC54804F058FE0295ADF8EF
:1035E00004400020ADF80C00ADF806008DF80E0088
:1035F00001A9BE4804F0F7FE0121BC4804F05EFFBB
:103600000121BA4805F0A4FB01221146B74805F094
:103610008BFB0121B54804F06FFF32208DF80000CC
:1036200000208DF8010001208DF802008DF80300C4
:10363000684603F074FA7FBD10B50121AB4805F070
:103640008AFB00286FD0AA480078401CA84908705F
:1036500008460078192804DD002008700120A549DB
:103660000870A5480078401CA349087008460078F7
:10367000102801DD012008709F48007811281AD217
:10368000DFE800F090091A2B3C434B52565C627005
:10369000767C80868C009948B0F90010012001F0FA
:1036A0007BFC9748B0F900209648B0F9001040F232
:1036B000031001F019FD75E09348B0F900100220E5
:1036C00001F06AFC9148B0F900209148B0F900106F
:1036D0004FF4817001F0EFFC64E08E48B0F9001007
:1036E000032001F059FC8C48B0F900208B48B0F958
:1036F000001040F2011001F0C5FC53E08848B0F919
:103700000010042001F048FC4CE0864801680520C8
:1037100001F0F4FB01F05AFD44E0834801880520E4
:1037200001F006FC3EE042E0052001F01BFC39E020
:103730007E480168062001F0E1FB33E07A48018809
:10374000062001F0F5FB2DE0062001F00BFC72488D
:10375000B0F900207148B0F9001040F2011001F0FA
:1037600091FC1FE072480168072001F0C7FB19E0D7
:103770006D480188072001F0DBFB13E0072001F012
:10378000F1FB0FE06B480168082001F0B7FB09E08E
:1037900065480188082001F0CBFB03E0082001F018
:1037A000E1FB00BF00BF0121504805F0E5FA10BD64
:1037B00000B589B00121022004F05DFC012108461A
:1037C00004F059FC0020ADF81800ADF81A004FF6CF
:1037D000FF7007900020ADF820008DF8220006A9A8
:1037E000554804F000FE06A94FF0804004F0FBFDB0
:1037F0000020ADF80400ADF81000ADF8060003900D
:1038000001A94FF0804004F083FE01A94FF08040F1
:1038100004F0B7FE01A9484804F07AFE01A9464821
:1038200004F0AFFE01A9444804F0F8FE01A94248A3
:1038300004F05AFF00214FF0804004F0F6FF002111
:103840004FF0804004F0FAFF00213B4804F0EDFF08
:103850000021394804F0F2FF0021374804F0FBFF53
:103860000021354805F000F80121880704F026FE04
:103870000121314804F022FE0221480705F07CFABC
:1038800001220221480705F04FFA0421080705F03C
:1038900073FA01220421080705F046FA022126489E
:1038A00005F06AFA01220221234805F03DFA0421BD
:1038B000214805F061FA012204211F4805F034FA7D
:1038C00008211D4805F058FA012208211A4805F080
:1038D0002BFA1021184805F04FFA012210212DE093
:1038E000000402400008004044000020000C00409A
:1038F00049000020480000204C00002078000020F3
:103900009A000020980000207A00002096000020F5
:10391000940000207C0000209200002090000020F5
:103920007E000020800000204A000020840000204B
:10393000880000208C000020000400406B4805F047
:10394000F3F91D208DF8000001208DF801000320FF
:103950008DF8020001208DF80300684603F0DFF8BF
:103960001C208DF80000684603F0D9F800214FF0C4
:10397000804005F024FA07214FF0804005F095FAC9
:103980008021C80505F09AFA3021584805F017FA49
:103990000721564805F089FA8021544805F08EFA2F
:1039A0000121880704F0A8FD0121504804F0A4FD7E
:1039B00009B000BD00B589B00121084604F06CFBD8
:1039C0000121042004F057FB494804F05FFC4948FA
:1039D00004F05CFC5320ADF818000020ADF81A008C
:1039E00040F23F6007900020ADF820008DF82200E3
:1039F00006A9404804F0F7FC5320ADF81800002059
:103A0000ADF81A0040F67F4007900020ADF8200086
:103A10008DF8220006A9364804F0E5FC01A804F060
:103A20009BFE6020ADF804000120ADF806000020E8
:103A3000ADF81000039001A92D4804F069FD01A91B
:103A40002B4804F09EFD01A92A4804F061FD01A95C
:103A5000284804F096FD01A9264804F0DFFD01A9DD
:103A6000244804F041FE0821214804F0DEFE08212C
:103A70001F4804F0E3FE08211E4804F0D6FE08218A
:103A80001C4804F0DBFE08211A4804F0E4FE08217B
:103A9000184804F0E9FE0121154804F00FFD01214A
:103AA000144804F00BFD0121114804F025FD01210B
:103AB000104804F021FD20210E4805F0EDF9802189
:103AC0000C4805F0FBF92021094805F0E5F98021B3
:103AD000074805F0F3F90121054805F0FEF801213A
:103AE000044805F0FAF809B000BD000000040040E9
:103AF000000001400008004000B587B001217F4868
:103B000004F086FA0121480404F0B5FA07220321E3
:103B10007B4804F0C2F80820059002208DF81800B8
:103B200000208DF81A0003208DF8190000208DF870
:103B30001B0005A9724804F025F8724805F0F8F951
:103B4000714801900020ADF808004FF40050ADF826
:103B50000A00C010ADF80C000420ADF80E000020E3
:103B6000ADF8100001A9674805F030FA012240F2D3
:103B70002551644805F068FB0121624805F0AEFA62
:103B800026208DF8000000208DF8010001208DF81E
:103B900002008DF80300684602F0C1FF07B000BDC7
:103BA0005A480078401C5949087008460078642833
:103BB00004DD64200870002055490870704710B576
:103BC00040F225514F4805F07AFB00287ED04D4841
:103BD00005F0B3FA4F4908704F48007838B90846E5
:103BE00000780F282AD1FF204B49087026E0494869
:103BF00000784A494A4A1278885449480078172878
:103C000011D10846C07D022802D00846C07D18B9EF
:103C1000FF204449087006E000203F4908704149F0
:103C200008703F4908703E480078401C3C490870C5
:103C300008460078182801DD00200870394800780F
:103C400000285AD0354800783449497840EA0120A4
:103C5000C0F30A00344908803048807840012F4979
:103C6000497840EAE100C0F30A00304908802B4857
:103C7000807880112949C97840EA8100274909796B
:103C800040EA8120C0F30A002949088023480079CE
:103C900040102249497940EAC110C0F30A00254981
:103CA00008801E48407A00F00F00234908801B4816
:103CB000807900F00F00401C204908801748807A66
:103CC0001F49088000201449087000E015E01549DC
:103CD0000870134908701148807D0C2803D100201A
:103CE0000B49087005E000200849087001200849C8
:103CF00008700421134803F0CCFF10BD0100200020
:103D00000000024000440040A0860100570000204F
:103D100056000020620000206400002008020020FD
:103D200063000020650000204E00002050000020AD
:103D30005200002054000020580000205C000020A9
:103D40005A0000200010024010B50246002006E094
:103D5000137843400C4CE05C521C4B1ED9B2002936
:103D6000F6DC10BD30B50346002006E01C78444068
:103D7000054D285D5B1C4C1EE1B20029F6DC80EA93
:103D80000204014D285D30BDE0DD00081CB50121B5
:103D9000102004F03DF90420009001208DF804006B
:103DA00000208DF8060003208DF8050001208DF815
:103DB000070069461C4803F0E5FE1CBD1CB5012147
:103DC000082004F025F9C020009001208DF804009F
:103DD00000208DF8060003208DF8050001208DF8E5
:103DE00007006946114803F0CDFE40210F4803F05B
:103DF00045FF80210D4803F041FF1CBD1CB501218A
:103E0000102004F005F94FF4A050009000208DF828
:103E1000040003208DF8050001208DF80700694695
:103E2000014803F0AFFE1CBD00100240000C024030
:103E300000BF704700BFFE4A128802F04002002A0D
:103E4000F9D0C2B2FA4B9A80704710B596B00446CA
:103E50000121880404F00FF90121022004F0D8F8B0
:103E60000121480504F0D4F807220A21F14803F0A3
:103E700014FF07220B21EF4803F00FFF14A803F0F3
:103E8000C9FE4FF48060149002208DF85400032086
:103E90008DF8550014A9E74803F074FE4FF4006054
:103EA000149002208DF8540003208DF8550014A9B9
:103EB000E04803F067FEE04805F03AF810A805F086
:103EC000EBF810940020ADF84400ADF84600ADF8D2
:103ED0004800ADF84C000C20ADF84A0010A9D648B7
:103EE00005F074F8012240F22441D34805F0ACF902
:103EF00027208DF83C0000208DF83D0001208DF832
:103F00003E008DF83F000FA802F009FE0121CA48CB
:103F100005F0E4F80C208DF83C0002208DF83D00FF
:103F20008DF83E0001208DF83F000FA802F0F7FD4C
:103F3000C24803F057FB4FF000600090BE48001DE0
:103F40000190BF480290002003904FF4007004904D
:103F5000002005904FF480600690002007900890A4
:103F60004FF4807009904FF440300A9000200B907D
:103F70000C900D900E906946B04803F0D5FB0122DD
:103F80004021AD4805F057F90121AC4803F006FC8B
:103F90000E208DF83C0001208DF83D0002208DF8A8
:103FA0003E0001208DF83F000FA802F0B8FDA348A5
:103FB000303003F017FB4FF0006000909E48001D6A
:103FC0000190A0480290402003908020049000209F
:103FD00005904FF4806006900020079008900990AB
:103FE0004FF480300A9000200B900C900D900E90B2
:103FF00069469248303003F097FB012280218E48B9
:1040000005F019F9012210218C48303003F053FCDF
:1040100000218A48303003F0C1FB16B010BD0246C3
:104020005068081A80B2704770B5002500BF40F292
:104030002551814805F043F940B17F4805F07DF8EE
:10404000C5B240F225517C4805F070F940F2244198
:10405000794805F034F900B34FF400717748FFF761
:10406000DEFF794908800021744803F097FB00BF08
:10407000724803F0E0FB0028FAD1734801886F48CA
:1040800003F0ADFB01216D4803F088FB6A4800880E
:10409000C4B26948001D0088C4B270BD70B5044642
:1040A0000D466A480078F0B900216448303003F0CA
:1040B00075FB00BF6148303003F0BDFB0028F9D12B
:1040C000002221465D48303003F0A6FBA9B25B48D0
:1040D000303003F084FB01215848303003F05EFBA0
:1040E00001205A49087070BD70B505460E4600247F
:1040F00000BF04E0285D53490855601CC4B2B442B7
:10410000F8DB31464F48FFF7C9FF70BD10B5504985
:104110004A4803F0EDFB18B14D49484803F012FC42
:1041200010BD0FB438B505A800904648009A049910
:1041300005F0F2FA00200090424805F077FC0446B2
:1041400021464048FFF7AAFF38BC5DF814FB10B5C4
:1041500040493A48303003F0CBFB38B100203B49AE
:1041600008703C493548303003F0ECFB10BD10B509
:1041700096B004460121C80403F07DFF012104200C
:1041800003F046FF0121480503F042FF08220A21FF
:10419000314803F082FD08220B212F4803F07DFDFA
:1041A00014A803F037FD4FF48060149002208DF8BE
:1041B000540003208DF8550014A9274803F0E2FCB1
:1041C0004FF40060149002208DF8540003208DF805
:1041D000550014A9204803F0D5FC10A804F05CFF9A
:1041E00010940020ADF84400ADF84600ADF848004A
:1041F000ADF84C000C20ADF84A0010A9174804F0A7
:10420000E5FE0D208DF83C0002208DF83D008DF874
:104210003E0001208DF83F000FA802F080FC074807
:10422000183003F0DFF94FF0006000900B4817E002
:104230000010014000040240004800402860024095
:10424000A8020020280200206E0000206C00002040
:10425000008800100080001800080240004C004058
:10426000001D0190FE4802900020039080200490E1
:10427000002005904FF48060069000200790089081
:104280004FF48070099040020A9000200B900C902F
:104290000D900E906946F34803F046FA0122402142
:1042A000F14804F0C8FF0121EE4803F077FA00223C
:1042B00040F22551EC4804F0C7FF002240F226618D
:1042C000E94804F0C1FF012240F22441E64804F02D
:1042D000BBFF34208DF83C0002208DF83D00032008
:1042E0008DF83E0001208DF83F000FA802F017FC6A
:1042F0000121DD4804F0F2FEDA48303003F072F9B3
:104300004FF000600090D848001D0190D7480290FF
:104310004020039080200490002005904FF480609E
:10432000069000200790089009904FF480300A9082
:1043300000200B900C900D900E906946C9483030CB
:1043400003F0F2F901228021C74804F074FF012232
:104350001021C448303003F0AEFA0021C14830309B
:1043600003F01CFA0F208DF83C0002208DF83D0070
:104370008DF83E0001208DF83F000FA802F0CFFB22
:1043800016B010BD02465068081A80B2704770B56A
:104390000024002540F22551B34804F090FF40B1BD
:1043A000B14804F0CAFEC4B240F22551AE4804F050
:1043B000BDFF40F22441AC4804F081FF08B3AC4893
:1043C000FCF7B9FA8021A748FFF7DCFFA94908707C
:1043D0000021A44803F0E2F900BFA24803F02BFA41
:1043E0000028FAD180219F4803F0F9F901219D4866
:1043F00003F0D4F99C480088C5B29B48001D008892
:10440000C5B270BD70B504460D469B480078F0B942
:1044100000219448303003F0C1F900BF914830309A
:1044200003F009FA0028F9D1002221468D483030E6
:1044300003F0F2F9A9B28B48303003F0D0F9012132
:104440008848303003F0AAF901208B49087070BD0C
:1044500070B505460E46002400BF04E0285D834980
:104460000855601CC4B2B442F8DB31467F48FFF700
:10447000C9FF70BD10B581497A48303003F038FA71
:1044800060B100207C4908707D497648303003F0E7
:10449000FEF97B497348303003F054FA10BD10B573
:1044A0007849704803F024FA48B14FF081516D48C3
:1044B00003F0EDF94FF081516A4803F043FA10BD63
:1044C00010B596B004460121042003F0A1FD01219E
:1044D000082003F09DFD0121080503F0CCFD01211A
:1044E000480503F095FD08220221674803F0D5FB3B
:1044F00008220C21654803F0D0FB04201490022010
:104500008DF8540003208DF8550000208DF85600DA
:1045100001208DF8570014A95B4803F033FB4FF4DA
:104520008050149014A9594803F02CFB10940020DB
:10453000ADF84400ADF84600ADF84800ADF84C00C9
:104540000C20ADF84A0010A9514804F03FFD0B20A3
:104550008DF83C0002208DF83D008DF83E000120D2
:104560008DF83F000FA802F0DAFA3E48303803F029
:1045700039F84FF0006000904548001D0190454813
:1045800002900020039080200490002005904FF4BA
:10459000806006900020079008904FF4807009908A
:1045A00040020A9000200B900C900D900E906946EE
:1045B0002C48303803F0B8F801224021344804F088
:1045C0003AFE01212748303803F0E8F8002240F293
:1045D00025512F4804F038FE002240F226612C4875
:1045E00004F032FE012240F22441294804F02CFE5E
:1045F00035208DF83C0000208DF83D0001208DF81D
:104600003E008DF83F000FA802F089FA01212048F2
:1046100004F064FD2F208DF83C0002208DF83D0051
:104620008DF83E0001208DF83F000FA802F077FAC8
:104630000C48783002F0D6FF4FF00060009014482C
:10464000001D0190144802904020039080200490A7
:10465000002005904FF480600690002007901DE038
:104660002805002040600240004C0040A8040020C3
:10467000A80200207000002071000020208000208F
:104680002000002000802010000C024000080240A2
:1046900000500040A805002028060020089009903E
:1046A0004FF480300A9000200B900C900D900E90EB
:1046B0006946F94803F038F801228021F74804F0F0
:1046C000BAFD01221021F44803F0F5F80021F24868
:1046D00003F064F816B010BD02465068081A80B2A4
:1046E000704770B50024002540F22551EB4804F0D6
:1046F000E6FD18B1E94804F020FDC4B240F22441BF
:10470000E64804F0DCFD10B38021E348A838FFF749
:10471000E3FFE34908700021DF48A83803F03EF8C2
:1047200000BFDD48A83803F086F80028F9D18021C1
:10473000D948A83803F053F80121D748A83803F026
:104740002DF8D6480088C5B2D4488088C5B270BD5F
:1047500010B5D449D04803F0CBF860B10020D2495D
:1047600008704FF02051CC4803F091F84FF02051E1
:10477000C94803F0E7F810BD70B504460D46CA48B5
:104780000078C8B90021C44803F008F800BFC24847
:1047900003F051F80028FAD100222146BE4803F068
:1047A0003BF8A9B2BC4803F01AF80121BA4802F05C
:1047B000F5FF0120BC49087070BD70B505460E4676
:1047C000002400BF04E0285DB8490855601CC4B24D
:1047D000B442F8DB3146B548FFF7CEFF70BD10B5E7
:1047E00096B004460121202003F056FC012104204C
:1047F00003F00EFC0121880503F00AFC08220621C3
:10480000AB4803F04AFA08220721A94803F045FA09
:1048100014A803F0FFF94020149002208DF85400F2
:1048200003208DF8550014A9A14803F0ABF98020AE
:10483000149002208DF8540003208DF8550014A91F
:104840009B4803F09FF99B4804F072FB10A804F00A
:1048500023FC10940020ADF84400ADF84600ADF8FC
:104860004800ADF84C000C20ADF84A0010A9914862
:1048700004F0ACFB39208DF83C0002208DF83D009F
:104880008DF83E0001208DF83F000FA802F047F997
:10489000894802F0A7FE4FF0206000908548001D77
:1048A000019086480290002003904FF480600490AD
:1048B000002005904FF4806006900020079008903B
:1048C0004FF48070099040020A9000200B900C90E9
:1048D0000D900E906946784802F026FF0122402193
:1048E000744804F0A8FC0121734802F057FF00222D
:1048F00040F225516F4804F0A7FC002240F22661E7
:104900006C4804F0A1FC012240F22441694804F003
:104910009BFC47208DF83C0001208DF83D008DF870
:104920003E008DF83F000FA802F0F9F80121614820
:1049300004F0D4FB45208DF83C0002208DF83D00AA
:104940008DF83E0001208DF83F000FA802F0E7F837
:104950005948783002F046FE4FF0206000905548EC
:10496000001D0190564802904020039000010490E1
:10497000002005904FF4806006900020079008907A
:1049800009904FF480300A9000200B900C900D900D
:104990000E9069464848783002F0C6FE0122802118
:1049A000444804F048FC012210214348783002F0CA
:1049B00082FF00214048783002F0F0FE16B010BDB2
:1049C000012080F3138800BF00BF00BF00BF00BFFD
:1049D00000BFBFF34F8F00BF00BF00BF3948006862
:1049E00000F4E06038490843001D3649086000BF04
:1049F00000BF00BFBFF34F8F00BF00BF00BF00BFAD
:104A000000BFFDE702465068081A80B2704770B5D3
:104A10000024002540F22441264804F050FC00B355
:104A20004FF480612448FFF7EDFF284908800021FA
:104A3000214802F0B3FE00BF1F4802F0FCFE002830
:104A4000FAD14FF480611C4802F0C9FE01211A48D6
:104A500002F0A4FE17480088C5B21648001D008861
:104A6000C5B240F22551134804F029FC20B140F2B0
:104A70002551104804F05AFC70BD10B514490E4879
:104A800002F036FF38B113490B4802F000FF10491D
:104A9000094802F057FF10BDB860024000500040C6
:104AA00073000020008000287200002028060020EB
:104AB000000802400014014028640240A80A0020B7
:104AC000A80600200CED00E00000FA0574000020AC
:104AD000008800100008001010B53949394802F06C
:104AE00007FF50B10020384908703549354802F0B9
:104AF000CEFE3349334802F025FF10BD70B50446A1
:104B00000D4631480078C8B900212E4802F046FE13
:104B100000BF2C4802F08FFE0028FAD10022214667
:104B2000284802F079FEA9B2264802F058FE012179
:104B3000244802F033FE01202349087070BD70B58F
:104B400005460E4600244FF48071204803F096F885
:104B500000BF04E0285D1E490855601CC4B2B44281
:104B6000F8DB31461A48FFF7C9FF4FF48071174848
:104B700003F086F870BD1CB54FF4E130FFF72FFE4F
:104B8000684603F047F80121042003F041FA4FF48E
:104B90008070009001208DF8040000208DF8060040
:104BA00002208DF8070003208DF8050069460748AC
:104BB00002F0E8FF4FF48071044803F061F81CBD77
:104BC00000802020A06402407600002000080240FF
:104BD000A80600207CB505460C46FCA103C9CDE91A
:104BE0000001200A8DF80500E0B28DF804000822CB
:104BF00069462846FEF762F97CBD7CB505460C4641
:104C0000F4A103C9CDE90001E0B28DF80400200A47
:104C10008DF80500200C8DF80600200E8DF8070099
:104C2000082269462846FEF749F97CBD7CB5054651
:104C30000C46EAA103C9CDE900018DF80440052224
:104C400069462846FEF73AF97CBD38B50446E5A02A
:104C500000680090022269462046FEF72FF938BD11
:104C600010B586B00446E0A103C9CDE904010822CD
:104C700004A904F5C060FEF721F90A20FEF716F832
:104C8000DBA103C9CDE90201082202A904F5C06035
:104C9000FEF714F90A20FEF709F8D7A103C9CDE9F8
:104CA00000010822694604F5C060FEF707F90A20F2
:104CB000FDF7FCFF06B010BD1CB50446D0A103C92A
:104CC000CDE900010822694604F5C060FEF7F6F858
:104CD0001CBD1CB50446CCA103C9CDE900010822C6
:104CE000694604F5C060FEF7E9F81CBD1FB504462F
:104CF000BDA003C8CDE90201082202A904F5C060E5
:104D0000FEF7DCF80A20FDF7D1FFB9A103C9CDE910
:104D100000010822694604F5C060FEF7CFF80A20BA
:104D2000FDF7C4FF1FBD1CB50446B9A103C9CDE9F9
:104D300000010822694604F5C060FEF7BFF81CBDFB
:104D400010B54FF4FA70FDF7B1FF0520FFF7EBFF48
:104D50000A20FDF7ABFF0520FFF7AEFF0A20FDF7A5
:104D6000A5FF0520FFF7C2FF0A20FDF79FFF0620E1
:104D7000FFF7D9FF0A20FDF799FF0620FFF79CFFF8
:104D80000A20FDF793FF0620FFF7B0FF0A20FDF78A
:104D90008DFF0720FFF7C7FF0A20FDF787FF0720D9
:104DA000FFF78AFF0A20FDF781FF0720FFF79EFF2C
:104DB0000A20FDF77BFF0820FFF7B5FF0A20FDF76B
:104DC00075FF0820FFF778FF0A20FDF76FFF082026
:104DD000FFF78CFF0A20FDF769FF0120FFF779FF3D
:104DE0000A20FDF763FF0120FFF766FF0A20FDF7A9
:104DF0005DFF0120FFF734FF0A20FDF757FF022077
:104E0000FFF767FF0A20FDF751FF0220FFF754FF6D
:104E10000A20FDF74BFF0220FFF722FF0A20FDF7D3
:104E200045FF0320FFF755FF0A20FDF73FFF032052
:104E3000FFF742FF0A20FDF739FF0320FFF710FFBD
:104E40000A20FDF733FF0420FFF743FF0A20FDF798
:104E50002DFF0420FFF730FF0A20FDF727FF042075
:104E6000FFF7FEFE0A20FDF721FF10BD2DE9F041FE
:104E700004460F4615461E4621460120FFF7AAFEAE
:104E80000A20FDF713FF39460220FFF7A3FE0A2090
:104E9000FDF70CFF29460320FFF79CFE0A20FDF7D3
:104EA00005FF31460420FFF795FE0A20FDF7FEFEC0
:104EB000BDE8F0812DE9F04104460F4615461E4637
:104EC00021460520FFF799FE0A20FDF7EFFE39463F
:104ED0000620FFF792FE0A20FDF7E8FE294607208C
:104EE000FFF78BFE0A20FDF7E1FE31460820FFF7B1
:104EF00084FE0A20FDF7DAFEBDE8F0817CB50546A8
:104F00000C4645A103C9CDE90001E0B28DF80400CB
:104F1000200A8DF80500200C8DF80600200E8DF873
:104F200007000822694605F5C060FDF7C7FF7CBD94
:104F30007CB505460C463AA103C9CDE90001E0B2B3
:104F40008DF80400200A8DF80500200C8DF806006D
:104F5000200E8DF807000822694605F5C060FDF7B0
:104F6000ADFF7CBD1CB504462FA103C9CDE90001EE
:104F70000822694604F5C060FDF7A0FF1CBD1CB502
:104F800004462BA103C9CDE900010822694604F5B6
:104F9000C060FDF793FF1CBD7CB505460C4626A1FD
:104FA00003C9CDE90001E0B28DF80400200A8DF8B4
:104FB0000500200C8DF80600200E8DF80700082251
:104FC000694605F5C060FDF779FF7CBDFF0602016B
:104FD00000000000FF06160200000000FF060001AE
:104FE00000000000FF1000002B40600106000000E0
:104FF0002B406001070000002B4060010F00000003
:105000002B406001800000002F6060010300000061
:105010002F60600101000000237A600100000000A1
:1050200023816001000000002B4060013F00000070
:10503000404160010000000023FF6001000000000B
:105040000020084908800849088008490880084964
:10505000088008490860084908600849086008494C
:1050600008607047780000207A0000207C00002053
:105070007E000020800000208400002088000020A6
:105080008C0000207CB506460C461546002000909A
:105090000190200A8DF80000E0B28DF80100280A86
:1050A0008DF80200E8B28DF8030008226946304608
:1050B000FEF79BF97CBD7CB506460C4615460020E4
:1050C00000900190200A8DF80000E0B28DF80100F8
:1050D000280A8DF80200E8B28DF80300082269461C
:1050E0003046FEF782F97CBD7CB506460C46154677
:1050F000002000900190200A8DF80000E0B28DF8A9
:105100000100280A8DF80200E8B28DF80300082299
:1051100069463046FEF769F97CBD002025490880C4
:1051200025490880254908802549088025490880A7
:10513000254908807047C8202249088040422249FA
:10514000088070476FF0C7001E490880C8201E49BC
:105150000880704700201B4908801B490880704761
:105160006FF0C70015490880C820154908807047AE
:10517000C820124908804042114908807047002029
:105180000E4908800E49088070474FF4C8700949DD
:1051900008800949088070474FF67060054908800B
:1051A00005490880704700200249088002490880AC
:1051B0007047000090000020920000209400002022
:1051C00096000020980000209A00002010B5034CA3
:1051D000082203492046FEF737F910BD4001901818
:1051E0009C0000202DE9F04F87B081460D46002439
:1051F000142102A804F039FC00260027A046A2468C
:10520000A34600200190012411E009F4004028B1D8
:10521000012002A9085526B9264602E0002002A96D
:1052200008554FF6FF7000EA4909601CC4B2112C02
:10523000EBDB344618E002A8005D30B9BBF1000F8B
:1052400010D127464FF0010B0CE0102C0AD14FB9BA
:10525000BBF1000F06D110274FF0010B4FF00008F3
:105260004FF0000A601CC4B2112CE4DB781CC4B2FD
:1052700012E002A8005D20B1B8F1000F0AD1A046EB
:1052800008E0102C06D1B8F1000F03D14FF0000850
:105290004FF0000A601CC4B2112CEADB08F10100D7
:1052A000C4B20FE002A8005D20B9BAF1000F07D127
:1052B000A24609E0102C03D1BAF1000F00D1A2469A
:1052C000601CC4B2112CEDDB00BFB81B00EBD07129
:1052D00006EB61016970B81B401C6871B8F1000FE2
:1052E00007D0BAF1000F04D0082068700120A8711F
:1052F00001E00020A871E878287168790C2801DAAB
:10530000687920B9082068700120E87001E0002069
:10531000E87068782978401A40B2A87007B0BDE8F4
:10532000F08F00000246134610E010782A2805D0BE
:105330001078202802DB10787A2801DDFF207047E2
:1053400010782C2801D1481EC1B2521C0029ECD182
:10535000D01AC0B2F3E710B50246012000E0504376
:105360000B1EA1F10104E1B2F9D110BD2DE9F34FFB
:1053700081B007463C4600200090834681460026C7
:10538000804628E020782D2802D148F00208641CCD
:1053900020782C2802D020782A2800D11CE0207800
:1053A0002E2803D148F00108641C09E02078392830
:1053B00002DC2078302803DA4FF0000900260BE0E9
:1053C00008F0010010B1701CC6B203E009F1010041
:1053D00000F0FF09641CD5E700BF08F0020000B12F
:1053E0007F1C00250EE0A9F10100401BC1B20A207C
:1053F000FFF7B1FF795D3039009A00FB0120009082
:10540000681CC5B24D45EEDB052E00DD0526029871
:10541000067000250EE0701E401BC1B20A20FFF787
:105420009AFF09F101012944795C303900FB01BB85
:10543000681CC5B2B542EEDB31460A20FFF78BFF90
:10544000009901FB00BA08F0020008B1CAF1000A95
:105450005046BDE8FE8F2DE9FC5F07468A464FF0B7
:105460000008CDF804A0FDA1019804F0CDFA06468D
:10547000F079303800F0FF0B03213046FFF752FF80
:105480000546FF2D04D070196946FFF76FFF38708D
:105490004FF000096CE0F1A1019804F0B5FA06465E
:1054A00000245CE0042000EB8400C1B23046FFF72A
:1054B00039FF0546FF2D09D070196946FFF756FFE1
:1054C000C1B208EB8802F81C815400E049E00520D5
:1054D00000EB8400C1B23046FFF724FF0546FF2DE4
:1054E0000AD070196946FFF741FFC1B208EB880284
:1054F000F81C1044417000E033E0062000EB84000B
:10550000C1B23046FFF70EFF0546FF2D0AD07019D5
:105510006946FFF72BFF81B208EB8802F81C1044A4
:10552000418000E01DE0072000EB8400C1B230465E
:10553000FFF7F8FE0546FF2D0AD070196946FFF700
:1055400015FFC1B208EB8802F81C1044017100E09D
:1055500007E008F1010000F0FF08601CC4B2042C51
:10556000A0DB00BF701C019009F1010000F0FF09F1
:10557000D94590DBBDE8FC9F2DE9FC5F07468A46D4
:105580004FF00008CDF804A0B6A1019804F03CFA51
:105590000646F079303800F0FF0B03213046FFF764
:1055A000C1FE0546FF2D04D070196946FFF7DEFEE7
:1055B00078704FF0000970E0AAA1019804F024FA75
:1055C0000646002460E0042000EB8400C1B23046AF
:1055D000FFF7A8FE0546FF2D0AD070196946FFF7B0
:1055E000C5FEC1B208EB880207F13F00815400E01C
:1055F0004CE0052000EB8400C1B23046FFF792FE7C
:105600000546FF2D0BD070196946FFF7AFFEC1B2FA
:1056100008EB880207F13F001044417000E035E0DC
:10562000062000EB8400C1B23046FFF77BFE054642
:10563000FF2D0BD070196946FFF798FE81B208EB79
:10564000880207F13F001044418000E01EE007207F
:1056500000EB8400C1B23046FFF764FE0546FF2D23
:105660000BD070196946FFF781FEC1B208EB8802C2
:1056700007F13F001044017100E007E008F101006C
:1056800000F0FF08601CC4B2042C9CDB00BF701C3F
:10569000019009F1010000F0FF09D9458CDBBDE85C
:1056A000FC9F2DE9FC5F07468A464FF00008CDF8C5
:1056B00004A06EA1019804F0A7F90646F0793038ED
:1056C00000F0FF0B03213046FFF72CFE0546FF2DAF
:1056D00004D070196946FFF749FEB8704FF0000911
:1056E00070E062A1019804F08FF90646002460E0A2
:1056F000042000EB8400C1B23046FFF713FE0546DC
:10570000FF2D0AD070196946FFF730FEC1B208EBD1
:10571000880207F17B00815400E04CE0052000EB9B
:105720008400C1B23046FFF7FDFD0546FF2D0BD0CA
:1057300070196946FFF71AFEC1B208EB880207F13B
:105740007B001044417000E035E0062000EB84004F
:10575000C1B23046FFF7E6FD0546FF2D0BD07019AC
:105760006946FFF703FE81B208EB880207F17B0070
:105770001044418000E01EE0072000EB8400C1B22D
:105780003046FFF7CFFD0546FF2D0BD07019694657
:10579000FFF7ECFDC1B208EB880207F17B00104473
:1057A000017100E007E008F1010000F0FF08601C53
:1057B000C4B2042C9CDB00BF701C019009F10100F5
:1057C00000F0FF09D9458CDBBDE8FC9FF8B5054624
:1057D0000F4628A1384604F017F906460621304640
:1057E000FFF7A0FD0446FF2C05D030196946FFF7EE
:1057F000BDFD85F8C80007213046FFF793FD04463C
:10580000FF2C05D030196946FFF7B0FD85F8C900B7
:1058100009213046FFF786FD0446FF2C05D03019DC
:105820006946FFF7A3FDC5F8DD00F8BD2DE9F84393
:105830000546884611A1404604F0E6F806460221D6
:105840003046FFF76FFD0446FF2C05D0301969463E
:10585000FFF78CFD85F8D600002727E02447504746
:105860005356000024474C475356000024424447F7
:105870005356000024474E474741000024474E47F7
:1058800053410000F81CC1B23046FFF74BFD0446FF
:10589000FF2C08D030196946FFF768FDC1B205F149
:1058A000CA00C15500E003E0781CC7B20C2FE9DB49
:1058B00000BF0F213046FFF735FD0446FF2C05D011
:1058C00030196946FFF752FDA5F8D7001021304680
:1058D000FFF728FD0446FF2C05D030196946FFF775
:1058E00045FDA5F8D90011213046FFF71BFD044600
:1058F000FF2C05D030196946FFF738FDA5F8DB000D
:10590000BDE8F8832DE9F0432DED028B81B006460A
:105910008846FEA1404604F077F807460121384644
:10592000FFF700FD0446FF2C23D038196946FFF726
:105930001DFD81469DF800100A20FFF70CFDB9FB04
:10594000F0F542F21070B5FBF0F0C1B2BB2081550A
:105950006420B5FBF0F06421B0FBF1F201FB120111
:10596000BC2081556420B5FBF0F100FB1151BD2036
:10597000815503213846FFF7D5FC0446FF2C42D061
:1059800038196946FFF7F2FC05469DF80000801CB7
:10599000C1B20A20FFF7DFFCB5FBF0F046F8BE0FFE
:1059A0009DF80000801CC1B20A20FFF7D4FCB5FBB3
:1059B000F0F100FB115000EE100AB8EE408A07210A
:1059C0000A20FFF7C8FC3168484300EE100AF8EEE1
:1059D000400A9DF80000C0F10700C1B20A20FFF79D
:1059E000BAFC00EE100AB8EE400A20EE080A9FED5D
:1059F000C91AC0EE011A30EEA10ABCEEC00A10EEC0
:105A0000100A46F8BE0904213846FFF78BFC04460D
:105A1000FF2C02D0385D86F8C20005213846FFF71A
:105A200081FC0446FF2C44D038196946FFF79EFCE0
:105A300005469DF80000801CC1B20A20FFF78BFCD0
:105A4000B5FBF0F046F8C30F9DF80000801CC1B212
:105A50000A20FFF780FCB5FBF0F100FB115000EECF
:105A6000100AB8EE400AB0EE408A07210A20FFF77C
:105A700072FC3168484300EE100AF8EE400A9DF8C7
:105A80000000C0F10700C1B20A20FFF764FC00EE7D
:105A9000100AB8EE400A20EE080A9FED9E1AC0EEEA
:105AA000011A30EEA10ABCEEC00A10EE100A46F848
:105AB000C30906213846FFF735FC0446FF2C02D007
:105AC000385D86F8C7000C213846FFF72BFC0446EA
:105AD000FF2C33D03D5D412D06D141208E49087009
