:020000040800F2
:10000000E019002065AC0008890800088B0800088A
:1000100095080008990800089D08000800000000E5
:1000200000000000000000000000000077AC0008A5
:10003000A1080008000000007BAC00087DAC0008AF
:100040007FAC00087FAC00087FAC00087FAC0008E4
:100050007FAC00087FAC00087FAC00087FAC0008D4
:100060007FAC0008694500087FAC00087FAC000841
:1000700025520008BD550008955200089355000808
:100080007FAC00087FAC00087FAC0008853E00080C
:10009000A13E0008C53E00087FAC00087FAC000808
:1000A0007FAC00087FAC00087FAC00087FAC000884
:1000B0007FAC00087FAC00087FAC00087FAC000874
:1000C0007FAC00087FAC00087FAC00087FAC000864
:1000D0007FAC00089B3A0008EF4B00083B5000083B
:1000E0007FAC00087FAC00087FAC00087FAC000844
:1000F0007FAC00087FAC00087FAC00086B5800089C
:100100007FAC00087FAC0008654600087FAC0008A3
:10011000A3540008075800087FAC00087FAC000813
:100120007FAC0008195C0008BB3B00087FAC0008EE
:100130007FAC00087FAC00087FAC00080B420008D1
:1001400027420008C94300087FAC00087FAC0008C4
:100150007FAC00083D5C0008D13B0008A15B0008B3
:100160007FAC00087FAC00087FAC00087FAC0008C3
:100170007FAC00087FAC00087FAC00087FAC0008B3
:100180007FAC00087FAC000800F002F800F092F8A5
:100190000AA090E8000C82448344AAF10107DA45E2
:1001A00001D100F087F8AFF2090EBAE80F0013F0A2
:1001B000010F18BFFB1A43F0010318476404010044
:1001C00084040100103A24BF78C878C1FAD85207D5
:1001D00024BF30C830C144BF04680C6070470000C1
:1001E0000023002400250026103A28BF78C1FBD840
:1001F000520728BF30C148BF0B6070476E290AF014
:10020000E18670290BF0238066290FF03B86652973
:100210000FF0388667290FF0358661290FF0348694
:1002200003681B0A28BF41F0800169290AF08E8605
:1002300064290AF08B8675290AF088866F290AF0EE
:10024000B08778290AF0EF87E9290AF04B87E4297B
:100250000AF04887F5290AF04587EF290AF0AD87AB
:10026000F8290AF0EE870368DB0928BF41F0800116
:1002700063290BF0F58473290BF0FA84E3290BF062
:100280000585F3290BF00A85002070471FB50FF094
:10029000B2FD0BF059FD0400002000210EF09EFE7F
:1002A000401C6060002000210EF082FEE0601FBD57
:1002B00010B510BD0BF01AFD1146FFF7E7FF00F077
:1002C00067F80BF0F7FD03B4FFF7F2FF03BC04F08F
:1002D000C7FD000010B54FF4A06007F059FFA8203B
:1002E00003F098FC04F06AFD04F080FD04F09EFD2C
:1002F0004FF4E13003F0D8FA642003F0EDFC04F091
:1003000013FC642003F0E8FC4FF4E13004F0B5FD89
:10031000642003F0E1FC4FF4E13004F0C9FF6420F5
:1003200003F0DAFC4FF4E13005F05CF905F0D5FCA0
:100330004FF47A7003F0D0FC012003F0FBFCC820DE
:1003400003F0CAFC40F2015003F02AFE642003F0DF
:10035000C3FC532140F2CF7004F04CF9FBA005F030
:10036000D3FA10BD10B5FE480078401CFC49087057
:100370000846007814280ADDFA48007838B9FA48A7
:100380000178FAA005F0C0FA0020F549087010BD08
:100390002DED108B9CB0FFF79DFF05F08FFD002029
:1003A00000F030FC642003F097FC67E2F24800782C
:1003B0000028FAD000F091FDEB48007830B1012818
:1003C0000FD002287ED003280AD1A3E105F0F6FE63
:1003D00005F061FF642003F07FFCE8A005F094FACB
:1003E00040E2EA4800880D280DD1E948008802B2B1
:1003F000E848008801B2E848008800B202F090FCAA
:1004000005F049FF19E0E148008801280DD1E348D3
:10041000008802B2DF48008801B2DF48008800B2DD
:1004200003F034F805F0CAFE07E0D84800880F282A
:1004300003D10121084601F0E2F9D9480088642877
:100440000ADDD8480078042802D10520D549087073
:100450000520D4490870C8E0D3480078401CD24930
:1004600008700846007814287EDDD04890ED066BB1
:10047000B0EE465AF0EE665A90ED046BB0EE464A86
:10048000F0EE664A90ED026BB0EE463AF0EE663A58
:10049000C74890ED066BB0EE462AF0EE662A90ED66
:1004A000046BB0EE461AF0EE661A90ED026BB0EEF9
:1004B000460AF0EE660ABF4803F050F9BD4890EDD9
:1004C0000C0A00E092E010EE101A08460FF022FC31
:1004D00041EC180BB74890ED0B0A10EE101A0846C5
:1004E0000FF018FC41EC190BB24890ED0A0A10EE1F
:1004F000101A08460FF00EFC41EC1A0BAD4890EDB7
:10050000090A10EE101A08460FF004FC41EC1B0B10
:10051000A84890ED080A10EE101A08460FF0FAFBF2
:1005200041EC1C0BA34890ED070A10EE101A084688
:100530000FF0F0FB41EC1D0B9E4890ED050A10EE0C
:10054000101A08460FF0E6FB41EC1E0B994890ED9F
:10055000040A10EE101A08460FF0DCFB41EC1F0BEA
:10056000944890ED030A00E03FE010EE101A0846B0
:100570000FF0D0FBCDE91A018E4890ED010A10EE84
:10058000101A08460FF0C6FBCDE91801894890ED16
:10059000000A10EE101A08460FF0BCFBCDE9160158
:1005A0007148007814908DED128B8DED109B8DEDC0
:1005B0000EAB8DED0CBB8DED0ACB8DED08DB8DED1B
:1005C00006EB8DED04FB9DED1A0B8DED020B9DED01
:1005D000180B8DED000B9DED160B53EC102B764890
:1005E00005F092F90020704908703BE173480078EB
:1005F00060B17248407848B96A48007830B9012043
:10060000684908706D4800786C4948706548007802
:100610000A287DD2DFE800F0051E7C2A3A49586698
:10062000707861480078401C5F490870084600787F
:1006300014280EDD0020087005F0C0FD05F02BFE2B
:1006400000F0C2FC02F053FA02F064FB5CA005F07B
:100650005BF95DE00121084601F0D1F8012108466F
:1006600000F048FB012000F0CDFA51E0002102200B
:1006700001F0C5F85E48007838B15D480078092877
:1006800003D00221002000F035FB41E0464800780D
:10069000401C4549087008460078142804DD0020F5
:1006A000087054A005F030F932E00021012001F07B
:1006B000A6F85C48007830B15A480078092802D082
:1006C000002000F09FFA23E002F04BF80221012005
:1006D00000F010FB46480078092802D10720314974
:1006E000087015E002F009FA4F480078092802D195
:1006F00008202C4908700BE00121022001F07FF84E
:10070000022000F07FFA03E000202649087000BFB5
:1007100000BFA7E0454B93ED030ABDEEC00A10EE03
:10072000103A1AB2414B93ED020ABDEEC00A10EE28
:10073000103A19B23D4B93ED010ABDEEC00A10EE1E
:10074000103A18B202F0ECFA384B71E0737973206A
:10075000696E69742066696E697368210D0A00000C
:1007600000000020620000200F0000206D6F646513
:100770003A25640D0A000000540000207374616E75
:100780006462792E2E2E0D0A000000006800002001
:10079000600000205C0000205A0000205E00002065
:1007A00066000020100000200100002050090020F9
:1007B00020090020400100202C0501080200002033
:1007C0007461736B206F6B2C706C616E6520696E49
:1007D00020686F6D652C616776206973206368619E
:1007E0007267696E67206E6F772E2E2E0D0A0000DD
:1007F0000D0000207461736B206F6B2C706C616E48
:1008000065206F757420686F6D652C61677620694F
:1008100073206368617267696E67206E6F772E2E32
:100820002E0D0A000C0000202500002024010020CD
:1008300093ED060ABDEEC00A10EE103A1AB2104B44
:1008400093ED050ABDEEC00A10EE103A19B20C4B3A
:1008500093ED040ABDEEC00A10EE103A18B202F091
:1008600015FE00BF00BF00F093FB04F0B1F900F0EB
:100870003CF900F017F800200249087096E50000E6
:100880002401002054000020704702E0642003F09F
:1008900023FAFBE700BFFEE700BFFEE700BFFEE76D
:1008A0007047000010B5A2B00024802102A80AF011
:1008B000B4FA00200190CC480078401CCA49087066
:1008C000084600780A287DDD00200870F1222046C5
:1008D000611CCCB202A90A5401222046611CCCB290
:1008E00002A90A54601CC4B2C04890ED000A8DED04
:1008F000010A9DF804202046611CCCB202A90A54CA
:100900009DF805202046611CCCB202A90A549DF82E
:1009100006202046611CCCB202A90A549DF807208B
:100920002046611CCCB202A90A54B04890ED010ADD
:100930008DED010A9DF804202046611CCCB202A96D
:100940000A549DF805202046611CCCB202A90A5425
:100950009DF806202046611CCCB202A90A549DF8DD
:1009600007202046611CCCB202A90A549F4890ED92
:10097000020A8DED010A9DF804202046611CCCB2CC
:1009800002A90A549DF805202046611CCCB202A998
:100990000A549DF806202046611CCCB202A90A54D4
:1009A0009DF807202046611CCCB202A90A540822F7
:1009B0002046611CCCB202A90A5419222046611CAF
:1009C000CCB200E00FE002A90A548DF80A40A01E44
:1009D000C1B202A804F0D0F9A11E02AA50542146C7
:1009E00002A803F0C2F822B010BD10B58178022928
:1009F00000DA10BD8B1EC25C0378F12B01D10123FC
:100A000000E000234478022C01D1012400E00024FE
:100A1000234033B1C378764C23700379E370437974
:100A2000237100BFE5E710B58178022900DA10BD17
:100A30008B1EC25C0378712B01D1012300E00023DF
:100A40004478082C01D1012400E000242340E3B3C2
:100A5000C378684C63700379A3704379E370C379FA
:100A6000847943EA042300EE103AB8EEC00A614BE1
:100A700083ED010A437A047A43EA042300EE103A34
:100A8000B8EEC00A5B4B83ED020AC37A847A43EA6C
:100A9000042300EE103AB8EEC00A564B83ED030A69
:100AA000437B047B43EA042300EE103AB8EEC00A0D
:100AB000504B83ED040AC37B847B43EA042300EE9E
:100AC000103AB8EEC00A4B4B00E00CE083ED050A8B
:100AD000437C047C43EA042300EE103AB8EEC00ADB
:100AE000444B83ED060A00BFA1E710B590B0002487
:100AF000402168460AF091F93F480078401C3E4981
:100B00000870084600780A286BDD00200870712202
:100B10002046611CCCB20DF8002007222046611C43
:100B2000CCB20DF80020601CC4B2344802782046D4
:100B3000611CCCB20DF8002000222046611CCCB212
:100B40000DF800202046611CCCB20DF800202C4886
:100B500002782046611CCCB20DF80020284842786B
:100B60002046611CCCB20DF8002025488278204632
:100B7000611CCCB20DF800202148C2782046611CCF
:100B8000CCB20DF800201E4802792046611CCCB280
:100B90000DF800201A4842792046611CCCB20DF8AD
:100BA000002000222046611CCCB20DF80020082253
:100BB0002046611CCCB20DF8002019222046611C91
:100BC000CCB20DF800208DF80240A01EC1B26846DC
:100BD00004F0D2F8A11E0DF801002146684604F089
:100BE000C6FC10B010BD000007000020280800203F
:100BF0000200002024010020080000200F00002037
:100C00004800002010B50446002C47D0FE4800786C
:100C1000012806D0022814D0032822D004283CD171
:100C200032E005F063FBF9488078022808D1F748E4
:100C3000C078022804D105F060FB0220F249087058
:100C40002BE005F067FBF1480079012808D1EF4857
:100C50004079012804D105F064FB0320EA490870BB
:100C60001BE005F026FBE948007801280BD1E74896
:100C70004078012807D105F02BFB0420E2490870D9
:100C8000E3A004F041FE08E00920DF490870012CD0
:100C900002D10320E549087000BF2AE000BF05F03B
:100CA00025FB05F037FB05F004FBD84880780228C7
:100CB000F5D1D648C0780228F1D1D448007901286E
:100CC000EDD1D24840790128E9D1D04800780128F7
:100CD000E5D1CE4840780128E1D105F00EFB05F0C2
:100CE00020FB05F0F5FA0920C7490870D0A004F0F0
:100CF0000BFE10BD70B504460D46012C7AD1D348C9
:100D00000078012817D1D1484078012813D1CF4865
:100D1000807880B9CD48C07868B90120CC49087086
:100D20000020CC4908700120C8498870C870CAA04A
:100D300004F0EAFD09E0C548007830B9C3484078BE
:100D400018B90020C1498870C870022D45D1C0482B
:100D50000078012806D0022814D0032825D00428C2
:100D60003AD135E005F0CFFAA8480079022808D139
:100D7000A6484079022804D105F0D3FA0220B449EC
:100D8000087029E005F09CFAA048007802280BD1F1
:100D90009E484078022807D105F09AFA0320AC4912
:100DA0000870B3A004F0B0FD16E005F097FA97487C
:100DB000807801280BD19548C078012807D105F02B
:100DC0009CFA0420A2490870A9A004F09DFD03E04C
:100DD00009209F49087000BF7EE0012D7CD19C480E
:100DE0000078012807D0022820D003282ED004281C
:100DF0004FD147E04EE0A448008828B90120A2491D
:100E0000088005F05DFA10E0A0480088401C9F496A
:100E1000088008460088B0F5AA7F06DD002008801B
:100E200005F056FA02208A49087032E005F06BFAA4
:100E300076480079022808D174484079022804D104
:100E400005F06FFA03208249087022E005F046FAA7
:100E500005F036FA6D488078012812D16B48C078C9
:100E600001280ED16948007802280AD167484078E5
:100E7000022806D105F02CFA05F03FFA0420744947
:100E8000087006E07AA004F03FFD09207049087060
:100E900000BF21E004BB00BF05F035FA05F010FAF1
:100EA0005A4800790228F7D1584840790228F3D1EE
:100EB000564800780228EFD1544840780228EBD1F8
:100EC00005F02FFA05F019FA05F002FA0020604942
:100ED00008706FA004F018FD70BD744800780128F8
:100EE00002D17349087022E072480078012803D1CA
:100EF00002206F4908701AE06E480078022803D17A
:100F000000206B49087012E06A480078032805D178
:100F10000020674908704549087008E06348007878
:100F200028B96448007810B90020614908707047FA
:100F30002DE9FC4100200090019000245025FF265F
:100F4000FF27B0465C480078401C5B4908700846A3
:100F5000007814281ADD002008700A208DF800009F
:100F6000FE208DF8010001208DF802008DF803505D
:100F70008DF804408DF805808DF806708DF80760B7
:100F80000822694640F2013003F045FABDE8FC81D1
:100F900010B54FF48061494808F094F918B9012060
:100FA0002A49087002E00020284908704FF4805157
:100FB000424808F087F918B901202449487002E036
:100FC00000202249487010BDFD203D4908703D4970
:100FD00008703D4908703D490870704730B52DEDE7
:100FE000048B83B004460D463948007B01280AD0A3
:100FF00038480078052875D16420374908809FED6E
:10100000370A37486FE003E30C0000204800002057
:1010100072656C6561736520706C616E65206973C3
:10102000206F6B2E2E2E0D0A0000000010000020F5
:101030007069636B706C616E65206973206F706599
:101040006E206F6B2E2E2E0D0A0000001200002065
:101050000D0000200E00002066696E6420706C6137
:101060006E65206973206F6B2E2E2E0D0A00000016
:101070007069636B20706C616E65206973206F6BA3
:101080002E2E2E0D0A000000360000203400002015
:101090007069636B206D616368696E652069732098
:1010A000636C6F73652E2E2E0D0A00006200002007
:1010B0000F00002002000020380000200010024035
:1010C0001600002017000020180000201900002042
:1010D000C4000020390000201A0000200000B442A3
:1010E0001C00002036E080ED000A0020FE49087058
:1010F000FE4890ED010A10EE101A08460EF00AFEA6
:1011000041EC180BFA4890ED010A10EE101A08464F
:101110000EF000FE41EC190B8DED008B53EC192BFA
:10112000F4A004F0F1FBF14890ED020AB5EEC00A1C
:10113000F1EE10FA07D3EE4890ED020AB5EEC00AC0
:10114000F1EE10FA02DD0120F449087003B0BDECA5
:10115000048B30BDF1480078042839D16420F0496F
:1011600008809FEDF00AF04880ED000A0020DE497B
:101170000870DE4890ED010A10EE101A08460EF0D5
:10118000C9FD41EC180BDA4890ED010A10EE101A77
:1011900008460EF0BFFD41EC190B8DED008B53ECB2
:1011A000192BE2A004F0B0FBD04890ED020AB5EE96
:1011B000C00AF1EE10FA07DCCD4890ED020AB5EE58
:1011C000C00AF1EE10FA02D20120D4490870BDE73E
:1011D000E048408898B9E048408880B90020CF496D
:1011E0000870CF4908809FEDDD0ACF4880ED000AE6
:1011F0000020BD490870DAA004F086FB5AE2BB4823
:1012000090ED020AF8EE000AB4EEE00AF1EE10FAF0
:1012100009D8B74890ED020AF8EE000AB4EEE00AE9
:10122000F1EE10FA39D9B14890ED020AF7EE000A52
:10123000B4EEE00AF1EE10FA12D890ED020AFFEED9
:10124000000AB4EEE00AF1EE10FA09DBA84890EDCE
:10125000020AFFEE000AB4EEE00AF1EE10FA1CD327
:10126000A34890ED020AF7EE000AB4EEE00AF1EEB0
:1012700010FA3CD890ED020AFFEE000AB4EEE00A44
:10128000F1EE10FA33DB994890ED020AFFEE000A06
:10129000B4EEE00AF1EE10FA29D203209F4908705B
:1012A00064209F4908809FEDB30A9F4880ED000AA3
:1012B00001208D4908708D4890ED010A10EE101A3A
:1012C00008460EF027FD41EC180B894890ED010A05
:1012D00010EE101A08460EF01DFD41EC190B8DEDB5
:1012E000008B53EC192BA4A004F00EFBE2E17F4825
:1012F00090ED020AF0EE000AB4EEE00AF1EE10FA08
:1013000009DB7B4890ED020AF0EE000AB4EEE00A39
:10131000F1EE10FA39DA754890ED020AF7EE000A9C
:10132000B4EEE00AF1EE10FA12D890ED020AFFEEE8
:10133000000AB4EEE00AF1EE10FA09DB6C4890ED19
:10134000020AF7EE000AB4EEE00AF1EE10FA1CDC35
:10135000674890ED020AF7EE000AB4EEE00AF1EEFB
:1013600010FA3CD890ED020AFFEE000AB4EEE00A53
:10137000F1EE10FA33DB5D4890ED020AF7EE000A59
:10138000B4EEE00AF1EE10FA29DD0220634908709C
:101390006420634908809FED770A634880ED000A66
:1013A000FF2051490870514890ED010A10EE101AC3
:1013B00008460EF0AFFC41EC180B4D4890ED010AC9
:1013C00010EE101A08460EF0A5FC41EC190B8DED3D
:1013D000008B53EC192B73A004F096FA6AE1434892
:1013E000D0ED020AC5F1030000EE100AB8EEC00A03
:1013F000F4EEC00AF1EE10FA10DD3D48D0ED020A1D
:10140000E81E00EE100AB8EEC00AF4EEC00AF1EED3
:1014100010FA03D20520414908704BE13348D0ED62
:10142000020AE81E00EE100AB8EEC00AF4EEC00A86
:10143000F1EE10FA11D22E48D0ED020AC5F10300E8
:1014400000EE100AB8EEC00AF4EEC00AF1EE10FA8F
:1014500003DD0420314908702CE1012C22D1012048
:101460002E4908704FF4E1702D4908801F4890ED17
:10147000010A10EE101A08460EF04CFC41EC180B55
:101480001B4890ED010A10EE101A08460EF042FCBF
:1014900041EC190B8DED008B53EC192B4BA004F094
:1014A00033FAACE0022C1DD101201C4908704FF624
:1014B0003E601B4908800D4890ED010A10EE101A9D
:1014C00008460EF027FC41EC180B094890ED010A84
:1014D00010EE101A08460EF01DFC41EC190B8DEDB4
:1014E000008B87E08BE0000020000020C40000207B
:1014F000B000002072756E20726967687420686D94
:1015000063665F6D69643A252E316620686D63629B
:101510005F6D69643A252E31660D0A00390000209E
:101520001A0000200000B4C21C00002072756E205A
:101530006C65667420686D63665F6D69643A252E1C
:10154000316620686D63625F6D69643A252E31668D
:101550000D0A0000A8000020AC00002000000000E0
:101560006D697373206C696E652C73746F700D0AEE
:1015700000000000000034427475726E20726967CA
:10158000687420686D63665F6D69643A252E316604
:1015900020686D63625F6D69643A252E31660D0ABD
:1015A000000000007475726E206C65667420686DB2
:1015B00063665F6D69643A252E316620686D6362EB
:1015C0005F6D69643A252E31660D0A00676F206FE2
:1015D000757420686D63665F6D69643A252E3166A7
:1015E00020686D63625F6D69643A252E31660D0A6D
:1015F0000000000053EC192BF6A004F085F91FED54
:10160000290AFE4880ED000A0020FD49087051E0DB
:10161000012C23D10120FB4908704FF4E170FA49F5
:101620000880FA4890ED010A10EE101A08460EF0F4
:1016300071FB41EC180BF64890ED010A10EE101A00
:1016400008460EF067FB41EC190B8DED008B53EC57
:10165000192BAFF2880004F057F923E0022C21D1B6
:101660000120E84908704FF63E60E7490880E748E6
:1016700090ED010A10EE101A08460EF04BFB41ECFB
:10168000180BE34890ED010A10EE101A08460EF010
:1016900041FB41EC190B8DED008B53EC192BCDA0C8
:1016A00004F032F91FED530AD44880ED000A0020FF
:1016B000D349087000BF49E5884201DD084603E0D0
:1016C0004A42904200DA4842704710B503460C4641
:1016D000F4B304FB03F000B2CE49088004FB03F02E
:1016E00000B2CD49088004FB03F000B2CB4908806A
:1016F00004FB03F000B2CA490880DFEDCA0A60EEBD
:10170000200AFDEEE00A10EE900A4FF44831FFF790
:10171000D3FF4042C4490860DFEDC20A60EE200AF0
:10172000FDEEE00A10EE900A4FF44831FFF7C4FFD7
:10173000BE490860DFEDBB0A60EE200AFDEEE00A5C
:1017400010EE900A4FF44831FFF7B6FF404200E038
:1017500010E0B7490860DFEDB30A60EE200AFDEE45
:10176000E00A10EE900A4FF44831FFF7A5FFB149A7
:10177000086043E0584200B2A6490880584200B2CF
:10178000A5490880A5480380A5480380DFEDA50A88
:1017900060EE200AFDEEE00A10EE900A4FF44831A8
:1017A000FFF78AFFA0490860DFED9E0A60EE200A7D
:1017B000FDEEE00A10EE900A4FF44831FFF77CFF8F
:1017C0009A490860DFED970A60EE200AFDEEE00A14
:1017D00010EE900A4FF44831FFF76EFF944908600D
:1017E000DFED900A60EE200AFDEEE00A10EE900AAE
:1017F0004FF44831FFF760FF8E49086010BD70B5A7
:1018000004460D468C480088401C8B4908800846D9
:1018100000880A287ADD00200880884948887C49A9
:1018200004F0A0FD86494888784904F09BFD85486E
:101830000078854908707548007B824908708348A4
:10184000007878B18148007809280BD000206E49D3
:1018500008801FEDBE0A694880ED000A0020684933
:10186000087032E27A48007878B17948007809281F
:101870000BD00020644908801FEDC80A5F4880ED46
:10188000000A00205E490870EBE7012D7DD1022C93
:101890007CD1704890F90000C01CD0B9694800782C
:1018A000012816D168480078012812D0FE20694925
:1018B00008704FF63E60544908801FEDD80A4F4823
:1018C00080ED000A00204E49087063A004F01CF867
:1018D000C7E7604890F90000801CE0B959480078DB
:1018E000012818D058480078012814D1FF20594900
:1018F00008704FF63E60444908801FEDE80A3F48F3
:1019000080ED000A00203E49087000E0FCE35AA088
:1019100003F0FAFFA5E74F4890F90000401CD0B94A
:1019200048480078012816D147480078012812D08D
:101930000020484908704FF63E60334908801FED8B
:10194000F90A2E4880ED000A00202D49087052A0A7
:1019500003F0DAFF85E73F480078E0B939480078BE
:10196000012818D038480078012814D13949087066
:101970006FF0DB00244908809FED530A1F4880ED7B
:10198000000A00201E49087001E022E21FE14FA07A
:1019900003F0BAFF65E72F480078012818D12948DD
:1019A0000078012814D128480078012810D002209E
:1019B0002849087001202549087000201249088034
:1019C0009FED410A0D4880ED000A00200C4995E08A
:1019D00099E00000676F206261636B20686D636649
:1019E0005F6D69643A252E316620686D63625F6DB4
:1019F00069643A252E31660D0A0000001C000020A3
:101A000020000020390000201A000020C40000201F
:101A1000B000002084000020860000208800002004
:101A20008A000020CD380E458C0000209000002058
:101A300094000020980000203A000020A800002018
:101A4000AC00002021000020220000200C0000201B
:101A50000D0000201600002072656C656173652022
:101A6000706C616E65206C696E652066696E642EAF
:101A70002E2E0D0A0000000072656C6561736520F2
:101A8000706C616E65206C696E65206D6973732E74
:101A90002E2E0D0A000000006669727374206C69B6
:101AA0006E652066696E642C616776206E6F7420A7
:101AB00073746F70207374696C6C20676F2062613F
:101AC000636B2E2E2E0D0A000000000066697273F3
:101AD00074206C696E65206D6973732C6167762064
:101AE0006E6F742073746F70207374696C6C2067F0
:101AF0006F206261636B2E2E2E0D0A000870E8A025
:101B000003F002FFADE6F248007802281AD1F1484E
:101B10000078012816D0F0480078012812D103205F
:101B2000EB4908704FF63E60EC4908801FED1A0A39
:101B3000EB4880ED000A0020EA490870EAA003F0B3
:101B4000E3FE8EE6E248007803281AD1E1480078E7
:101B5000012816D1E0480078012812D00420DC4981
:101B600008706FF0DB00DD4908801FED290ADC48B2
:101B700080ED000A0020DB490870E4A003F0C4FEF9
:101B80006FE6D348007804281CD1D2480078012899
:101B900018D0D1480078012814D10520CC4908700C
:101BA0000020CE4908801FED380ACD4880ED000A9C
:101BB0000020CC4908700920DA490870DAA003F047
:101BC000A3FEF3E301210220FFF708FAEEE3012C64
:101BD00098D1DF4890F90000C01CD0B9BD4800780A
:101BE000012816D1BC480078012812D0FE20D8491F
:101BF00008704FF4E170B94908801FED4D0AB848EC
:101C000080ED000A0020B7490870D2A003F07CFEE6
:101C1000CCE3CF4890F90000801CD0B9AD480078E3
:101C2000012816D0AC480078012812D1FF20C849FD
:101C300008704FF4E170A94908801FED5D0AA848BB
:101C400080ED000A0020A7490870C8A003F05CFEE0
:101C5000ACE3BF4890F90000401CC8B99D4800782B
:101C6000012815D19C480078012811D00020B849DE
:101C70000870DC20994908801FED6D0A984880EDB6
:101C8000000A002097490870BEA003F03DFE8DE3D6
:101C9000AF480078D0B98F480078012816D08E4818
:101CA0000078012812D1AA490870BC4908700020A8
:101CB0008A4908801FED7C0A894880ED000A0020CF
:101CC00088490870B6A003F01FFE6FE3A0480078B3
:101CD00001281AD17F480078012816D17E48007863
:101CE000012812D002209A4908704FF4E1707B4914
:101CF00008801FED8B0A7A4880ED000A00207949A0
:101D00000870B3A003F000FE50E391480078022869
:101D10001AD170480078012816D06F480078012841
:101D200012D103208A4908704FF4E1706B49088092
:101D30001FED9B0A6A4880ED000A0020694908707F
:101D4000A9A003F0E1FD31E38148007803281AD10E
:101D500060480078012816D15F480078012812D029
:101D600004207B4908704FF4E1705C4908801FED46
:101D7000AA0A5B4880ED000A00205A49087063A057
:101D800003F0C2FD12E37248007804281CD15148C8
:101D90000078012818D050480078012814D1052077
:101DA0006B49087000204D4908801FEDB90A4C4866
:101DB00080ED000A00204B4908700120944908700A
:101DC00094A003F0A1FDF1E200210120FFF706F944
:101DD000ECE2002D98D1022C60D19A4890F90000D5
:101DE000C01CD8B93B480078012817D13A48007880
:101DF000012813D0FE20934908704FF63E60374902
:101E000008801FEDCF0A364880ED000A00203549D2
:101E10000870AFF2BC3003F077FDC7E2894890F953
:101E20000000801CD8B92B480078012817D02A4818
:101E30000078012813D1FF20824908704FF63E60D8
:101E4000264908801FEDE00A254880ED000A0020A1
:101E500024490870AFF2E03003F056FDA6E279485D
:101E600090F90000401CD0B91A480078012816D11A
:101E700019480078012812D000207249087001200A
:101E8000464908700020154908801FEDF10A1448E2
:101E900080ED000A002013490870D5E07BE1D7E00F
:101EA0007365636F6E64206C696E652066696E642D
:101EB0002C6167762073746F7020616E6420726588
:101EC0006C6561736520706C616E650D0A000000C1
:101ED0001600002021000020220000201A0000200F
:101EE0001C000020200000207365636F6E64206C6E
:101EF000696E65206D6973732C61677620676F204A
:101F00006261636B20686F6D650D0A0074686972A9
:101F100064206C696E652066696E642E2E2E0D0A33
:101F200000000000100000207468697264206C6971
:101F30006E65206D6973732C6167762073746F70A2
:101F4000206368616E67652E2E2E0D0A000000006A
:101F500017000020636861726765206C696E6520F8
:101F600066696E642E2E2E0D0A0000006368617291
:101F70006765206C696E65206D6973732E2E2E0D5A
:101F80000A0000006669727374206C696E652066D1
:101F9000696E642E2E2E0D0A000000000D00002038
:101FA0006669727374206C696E65206D6973732C39
:101FB0006167762073746F7020616E64207069634E
:101FC0006B20706C616E652E2E2E0D0A00000000D5
:101FD0007365636F6E64206C696E652066696E64FC
:101FE0002E2E2E0D0A0000007365636F6E64206C48
:101FF000696E65206D6973732C61677620737469EF
:102000006C6C20676F206F75742E2E2E0D0A0000E9
:102010000C0000207468697264206C696E65206D24
:102020006973732C6167762073746F7020616E64BE
:102030002072656C6561736520706C616E652E2E13
:102040002E0D0A0018000020EDA003F05DFCADE1AC
:10205000F7480078C8B9F7480078012815D0F64845
:102060000078012811D1F24908704FF63E60F3491B
:1020700008809FEDF30AF34880ED000A0020F24942
:102080000870F2A003F040FC90E1E94800780128D4
:102090001BD1E8480078012817D1E74800780128CB
:1020A00013D00220E24908704FF63E60E3490880F1
:1020B0009FEDE30AE34880ED000A0020E249087042
:1020C000AFF2F40003F020FC70E1D9480078022858
:1020D0001BD1D8480078012817D0D74800780128AC
:1020E00013D10320D24908704FF63E60D3490880CF
:1020F0009FEDD30AD34880ED000A0020D249087032
:10210000D8A003F001FC51E15BE1C9480078032845
:102110001BD1C8480078012817D1C748007801288A
:1021200013D00420C24908704FF63E60C3490880AE
:102130009FEDC30AC34880ED000A0020C249087021
:10214000AFF2382003F0E0FB30E1B9480078042812
:102150001CD1B8480078012818D0B7480078012869
:1021600014D10520B24908700020B44908809FEDC1
:10217000B40AB44880ED000A0020B3490870042076
:10218000C2490870C2A003F0BFFB0FE10121022089
:10219000FEF724FF0AE1012C96D1CC4890F900000B
:1021A000C01CD8B9A3480078012817D1A2480078EC
:1021B000012813D0FE20C54908704FF4E1709F49F3
:1021C00008809FED9F0A9F4880ED000A00209E49ED
:1021D0000870AFF2802003F097FBE7E0BB4890F96E
:1021E0000000801CD8B993480078012817D0924885
:1021F0000078012813D1FF20B44908704FF4E17032
:102200008E4908809FED8E0A8E4880ED000A0020DE
:102210008D490870AFF2AC2003F076FBC6E0AB4806
:1022200090F90000401CD8B982480078012817D1E5
:1022300081480078012813D00020A44908704FF489
:10224000E1707E4908809FED7E0A7E4880ED000A9D
:1022500000207D490870AFF2D42003F055FBA5E0C3
:102260009A480078C8B973480078012815D0724898
:102270000078012811D19549087095A003F044FB1E
:102280004FF4E1706D4908809FED6D0A6D4880ED57
:10229000000A00206C49087088E08C48007801280A
:1022A0001BD164480078012817D1634800780128C1
:1022B00013D0022085490870AFF2EC2003F024FB14
:1022C0004FF4E1705D4908809FED5D0A5D4880ED47
:1022D000000A00205C49087068E07C480078022809
:1022E0001CD154480078012818D0534800780128A0
:1022F00014D103207549087001208049087080A01E
:1023000003F002FB00204D4908809FED4D0A4D4827
:1023100080ED000A00204C49087047E06B480078C7
:1023200003281BD143480078012817D14248007880
:10233000012813D0042065490870AFF2304003F043
:10234000E3FA4FF4E1703D4908809FED3D0A3D48B6
:1023500080ED000A00203C49087027E05B480078C7
:1023600004281FD13348007801281BD03248007858
:10237000012817D1052055490870062043490870E7
:1023800001206A4908706AA003F0BEFA00202B49B8
:1023900008809FED2B0A2B4880ED000A00202A4977
:1023A000087003E000210120FEF718FE264890F98E
:1023B0000010244890ED000A2048B0F90000FFF713
:1023C00084F970BD2DE9F0412DED068BB0EE408A09
:1023D000F0EE608A0446002500269FED600BB0EE0B
:1023E000409AF0EE609A012C07D1F5EEC08AF1EE2A
:1023F00010FA03DDB0EE680AB6E011E1B2E00000C9
:102400006669727374206C696E652066696E642CEF
:102410006167762073746F7020616E6420636C6FE7
:102420007365207069636B2E2E2E0D0A000000006C
:102430001800002021000020220000201A000020A7
:10244000000000001C00002020000020666972735C
:1024500074206C696E65206D6973732E2E2E0D0AC3
:10246000000000007365636F6E64206C696E652008
:102470006D6973732C616776207374696C6C206767
:102480006F206261636B2E2E2E0D0A00100000205B
:102490007468697264206C696E65206D6973732C51
:1024A0006167762073746F7020616E642063686169
:1024B0007267652C706C616E65206973206F75742E
:1024C000736964652E2E2E0D0A000000190000208D
:1024D0006669727374206C696E65206D6973732C04
:1024E000616776206973207374696C6C20676F2054
:1024F0006F75742E2E2E0D0A000000000C000020B7
:102500007365636F6E64206C696E65206D697373AB
:102510002C726561647920746F206F70656E207015
:1025200069636B2E2E2E0D0A000000000E000020A5
:102530007468697264206C696E65206D6973732CB0
:10254000726561647920746F207069636B20706CB0
:10255000616E652E2E2E0D0A0000000000000000A6
:1025600000000000B1EE680AF0EE000AB4EEE00AE6
:10257000F1EE10FA52DDF5EEC08AF1EE10FA01DD4F
:10258000012606E0F5EEC08AF1EE10FA01D24FF016
:10259000FF36B2EE0E0A28EE800AB5EEC00AF1EE62
:1025A00010FA04DDB2EE0E0A28EE800A03E0B2EE65
:1025B0000E0A28EEC00A10EE101A08460DF0AAFB0B
:1025C00041EC190B9FEDFC0B53EC102B51EC190B4C
:1025D0000DF0A8F906D29FEDF80BB0EE409AF0EEA0
:1025E000609A0EE09FEDF60B53EC102B51EC190B9B
:1025F0000CF0B6FF05D29FEDF20BB0EE409AF0EE74
:10260000609A51EC190B0CF051FF07B231469FED67
:10261000EE0A3846FFF759F800259DE001259BE0BA
:10262000022C3CD1B5EEC08AF1EE10FA02DDB0EE1C
:10263000480A01E0B1EE480ADFEDE40AB4EEE00A30
:10264000F1EE10FA29DDB5EEC08AF1EE10FA11DDD7
:102650009FEDDF0BB0EE409AF0EE609A51EC190B53
:102660000CF024FF07B200219FEDDB0A3846FFF78C
:102670002CF810E09FEDD60BB0EE409AF0EE609A89
:1026800051EC190B0CF012FF07B200219FEDD30A99
:102690003846FFF71AF800255EE001255CE0DCBB58
:1026A0009FEDCA0A38EE400AB5EEC00AF1EE10FA04
:1026B00004DD9FEDC60A38EE400A05E09FEDC30A2F
:1026C00038EE400AB1EE400ADFEDC50AB4EEE00A8A
:1026D000F1EE10FA3FDD9FEDBD0A38EE400ADFED66
:1026E000C00AB4EEE00AF1EE10FA16DD9FEDB80B69
:1026F000B0EE409AF0EE609A51EC190B0CF084FCAD
:1027000041EC1A0B0CF0D2FE07B200211FEDB40A07
:102710003846FEF7DAFF1CE01EE09FEDAC0A38EE0B
:10272000400ADFEDB00AB4EEE00AF1EE10FA10D282
:102730009FEDA70BB0EE409AF0EE609A51EC190BAA
:102740000CF0B4FE07B200211FEDC30A3846FEF7B5
:10275000BCFF002500E001252846BDEC068BBDE846
:10276000F08100B52DED108B9DB01FED840BB0EE08
:10277000408AF0EE608A9C480078401C9A490870B4
:1027800008460078052803DA1DB0BDEC108B00BDAB
:102790000020954908709548007828B9012094498F
:1027A000087092490870A0E1924890F8260000282D
:1027B0007ED0914890F826000028F9D08E4890ED00
:1027C000066BB0EE465AF0EE665A90ED046BB0EE32
:1027D000464AF0EE664A90ED026BB0EE463AF0EEF5
:1027E000663A844890ED066BB0EE462AF0EE662A13
:1027F00090ED046BB0EE461AF0EE661A90ED026BA7
:10280000B0EE460AF0EE660A7C4800F0A7FF7B486F
:1028100090ED060AD0ED020A30EE600A10EE101AB2
:1028200008460DF077FA41EC180B744890ED0C0A4D
:1028300010EE101A08460DF06DFA41EC190B6F48B6
:1028400090ED0B0A10EE101A08460DF063FA41ECF9
:102850001A0B6A4890ED0A0A10EE101A08460DF09D
:1028600059FA41EC1B0B654890ED090A10EE101A5D
:1028700008460DF04FFA41EC1C0B604890ED080A39
:1028800010EE101A08460DF045FA41EC1D0B5B489E
:1028900090ED070A10EE101A08460DF03BFA41ECD5
:1028A0001E0B564890ED050A10EE101A084600E07F
:1028B00012E10DF02FFA41EC1F0B504890ED040A85
:1028C00010EE101A08460DF025FACDE91A014B4812
:1028D00090ED030A10EE101A08460DF01BFACDE930
:1028E0001801464890ED010A10EE101A08460DF046
:1028F00011FACDE91601414890ED000A10EE101AC8
:1029000008460DF007FACDE914018DED129B8DED0F
:1029100010AB8DED0EBB8DED0CCB8DED0ADB8DED8F
:1029200008EB8DED06FB9DED1A0B8DED040B9DED77
:10293000180B8DED020B9DED160B8DED000B9DED33
:10294000140B53EC102B2E4802F0DEFF28480078C1
:1029500009281AD2DFE800F0BF051A24768096A075
:10296000BB0051EC180B0CF05BFB09EE100A0120C8
:10297000F0EE490A9FED230AFFF724FD28B122A0BB
:1029800002F0C2FF02201A490870A4E000219FED66
:102990001D0A0846FEF799FE0320154908709AE0C3
:1029A0001648D0ED0A0AB0EE600A0220DFED150AE3
:1029B000FFF708FDF0B33EE00000000000408F404C
:1029C0000000000000408FC000003442CDCC4C3EDF
:1029D0000000000000407F400000B4420000B4C28C
:1029E000CDCCCC3DCDCCCCBD3C0000202400002083
:1029F0002300002020090020500900204001002071
:102A0000AC05010800000000616776206973206151
:102A1000727269766564206174206472676F6E20DB
:102A200066697368277320686561642E2E2E0D0A0F
:102A30000000000005E0EFA002F066FF0420F84966
:102A4000087048E000211FED110A0846FEF73DFE20
:102A50000520F34908703EE051EC180B0CF0E0FA49
:102A600009EE100A0120F0EE490A1FED1A0AFFF7DD
:102A7000A9FC30B1AFF2700002F046FF0620E84931
:102A8000087028E000211FED210A0846FEF71DFE10
:102A90000720E34908701EE0E248007850B10021A9
:102AA0001FED280A4FF4E170FEF70FFEDEA002F0E2
:102AB0002BFF0BE000211FED2D0A0846FEF705FE57
:102AC000E4A002F021FF0820D549087003E00920A6
:102AD000D349087000BF08E0E9A002F015FF00210B
:102AE0001FED380A0846FEF7F0FD00BF4CE6002057
:102AF000CB490870ED490870704710B52DED0A8B71
:102B00009FEDEB0BB0EE409AF0EE609A9FEDE80B74
:102B1000B0EE40AAF0EE60AA9FEDE50BB0EE40BA31
:102B2000F0EE60BAE4480078401CE34908700846BB
:102B30000078052802DABDEC0A8B10BD0020DE49C2
:102B40000870DE48007828B90120DC490870DC49AB
:102B50000870DDE0DB4890F82600002876D0DA48DF
:102B600090F826000028F9D0D74890ED066BB0EE1B
:102B7000465AF0EE665A90ED046BB0EE464AF0EE1F
:102B8000664A90ED026BB0EE463AF0EE663ACD48FA
:102B900090ED066BB0EE462AF0EE662A90ED046BDF
:102BA000B0EE461AF0EE661A90ED026BB0EE460AF1
:102BB000F0EE660AC54800F0D1FDC44890ED020A67
:102BC000DFEDC30A30EEC00A10EE101A08460DF011
:102BD000A1F841EC190BBD4890ED000AF6EE000A91
:102BE00030EEC00A10EE101A08460DF093F841ECD2
:102BF0001A0BB64890ED010A5FED860A30EEC00A66
:102C000010EE101A08460DF085F841EC1B0BAC488D
:102C10000078082872D2DFE800F071041A243D47DA
:102C2000606A51EC190B0CF0FBF908EE100A012058
:102C3000F0EE480A1FED8D0AFFF7C4FB28B1A5A0EE
:102C400002F062FE02209E49087057E057E0002122
:102C50001FED940A0846FEF738FD032098490870D6
:102C60004CE051EC1B0B0CF0CFF941EC1C0B0CF0C1
:102C7000D7F908EE100A02205FED9E0AB0EE480A6E
:102C8000FFF7A0FB28B1A0A002F03EFE04208C4973
:102C9000087033E000211FEDA50A0846FEF715FD78
:102CA00005208749087029E051EC1A0B0CF0ACF9AB
:102CB00041EC1C0B0CF0B4F908EE100A00205FED9B
:102CC000AF0AB0EE480AFFF77DFB28B198A002F0EA
:102CD0001BFE06207A49087010E000211FEDB70A9C
:102CE0000846FEF7F2FC07207549087006E09AA036
:102CF00002F00AFE09207249087000BF08E060A0D7
:102D000002F002FE00211FEDC10A0846FEF7DDFCBD
:102D100000BF10E700206A490870684908707047D2
:102D20002DE9FC4F074688469146002500240023E4
:102D300000269A469B46002001900090A8F57A70E4
:102D400004B2A7F57A7003B2A9F57A7006B2002B27
:102D500001DD184600E05842B0F5967F46DD002CB4
:102D600001DD204600E06042B0F5967FF6DD884840
:102D700090ED000A874880ED000AB3F5967F21DDCB
:102D800014F5967F1EDA9FED840A814880ED000AD3
:102D9000002B01DD184600E05842002C01DD2146E1
:102DA00000E061420844404200EE100AB8EEC00A5A
:102DB000DFED7A0A20EE200ABDEEC00A10EE100AFE
:102DC00005B29CE113F5967F11DA14F5967F0EDAC1
:102DD0009FED730A6E4880ED000A002B01DD184656
:102DE00000E05842002C03DD2146DCE033E1EAE05C
:102DF000D8E000006167762069732061727269769D
:102E00006564206174206472676F6E206669736800
:102E100027732078706F732E2E2E0D0A000000008D
:102E2000230000200E00002061677620676F20617C
:102E3000686561642C74727920746F207069636BAB
:102E4000206472676F6E20666973682E2E2E0D0ADD
:102E5000000000006472676F6E2066697368206905
:102E6000732066696E642C6167762073746F7020BE
:102E7000616E64207069636B2E2E2E0D0A000000B7
:102E800072746B207369676E616C206973206E6F5A
:102E90007420676F6F6421212C706C6561736520ED
:102EA000776169742E2E2E0D0A0000002400002088
:102EB00000000000000000003D000020260000206F
:102EC000250000202009002050090020400100209A
:102ED0000000874361677620697320636F6D65200A
:102EE0006261636B2C617272697665642061742023
:102EF000626C61636B6C696E652773206D69642E0B
:102F00002E2E0D0A00000000616776206973206193
:102F100072726976656420617420626C61636B6CA7
:102F2000696E6527732078706F732E2E2E0D0A0040
:102F300061677620697320617272697665642061C9
:102F40007420626C61636B6C696E652773207970A5
:102F50006F732E2E2E0D0A00616776206973206133
:102F600072726976656420617420626C61636B6C57
:102F7000696E6527732072656C656173655F706C3F
:102F8000616E6520706F696E742E2E2E0D0A000022
:102F90002C00002030000020000034C29A99193F14
:102FA0000000344261420844404200EE100AB8EE8C
:102FB000C00A5FED060A20EE200ABDEEC00A10EE40
:102FC000100A05B29BE013F5967F20DAB4F5967FE0
:102FD0001DDD1FED0F0AFE4880ED000A002B01DD0C
:102FE000184600E05842002C01DD214600E0614215
:102FF000084400EE100AB8EEC00A5FED180A20EE91
:10300000200ABDEEC00A10EE100A05B277E0B3F553
:10301000967F74DDB4F5967F71DD1FED1F0AEC48D5
:1030200080ED000A002B01DD184600E05842002C1C
:1030300001DD214600E06142084400EE100AB8EECE
:10304000C00A5FED2A0A20EE200ABDEEC00A10EE8B
:10305000100A05B253E0002B01DD184600E058428B
:10306000B0F5967F26DD002C01DD204600E06042B1
:10307000B0F5967F1EDAD64890ED000AD54880ED6F
:10308000000AB3F5967F08DD9FEDD30AD04880EDA6
:10309000000AA3F5967005B231E013F5967F2EDA9B
:1030A0009FEDCE0ACA4880ED000A03F596704042B3
:1030B00005B224E0002B01DD184600E05842B0F5CF
:1030C000967F1CDA002C01DD204600E06042B0F55E
:1030D000967F14DDBE4890ED000ABE4880ED000AE0
:1030E0009FEDBF0ABA4880ED000AB4F5967F03DD74
:1030F000A4F5967005B202E004F5967005B2002EB4
:1031000001DD304600E07042B0F5967F7DDDB6F51A
:10311000967F03DDA6F5967005B202E006F596707F
:1031200005B2AB4890ED000AAA4880ED000A1FEDF9
:10313000640AA74880ED000AA64890ED000AA4485A
:10314000D0ED000A30EE600AB5EEC00AF1EE10FADA
:1031500008DDA04890ED000A9D48D0ED000A30EE51
:10316000600A09E09B4890ED000A9948D0ED000AFA
:1031700030EE600AB1EE400AF3EE040AB4EEE00A63
:10318000F1EE10FA02DD1420964908809548008877
:10319000401E00B2934908800846B0F9000000289C
:1031A00044DC0020088005EB450000B28E49088011
:1031B00005EB450000B28D49088005EB450000B2E3
:1031C0008B49088005EB450000B28A490880804899
:1031D00090ED000AB1EE400ADFED870A20EE200AEA
:1031E000BDEEC00A10EE10AA90ED000ADFED820AD3
:1031F00020EE200ABDEEC00A10EE10BA90ED000AD3
:10320000B1EE400ADFED7C0A00E010E020EE200A7B
:10321000BDEEC00A8DED010A90ED000ADFED760AE1
:1032200020EE200ABDEEC00A8DED000A10E1002B51
:1032300001DD184600E05842B0F5967F49DA002CCF
:1032400001DD204600E06042B0F5967F41DA9FED57
:10325000640A5F4880ED000A0025684200EB8000A8
:1032600061490880684200EB80006049088005EBF6
:1032700085005F49088005EB85005E490880544859
:1032800090ED000ADFED5C0A20EE200ABDEEC00AD8
:1032900010EE10AA90ED000ADFED570A20EE200A8A
:1032A000BDEEC00A10EE10BA90ED000ADFED520A32
:1032B00020EE200ABDEEC00A8DED010A90ED000A55
:1032C000DFED4D0A20EE200ABDEEC00A8DED000AAA
:1032D000BEE0404890ED000A3D48D0ED000A30EED7
:1032E000600AB5EEC00AF1EE10FA08DD394890ED3B
:1032F000000A3748D0ED000A30EE600A09E0354890
:1033000090ED000A3248D0ED000A30EE600AB1EECE
:10331000400ADFED3A0AB4EEE00AF1EE10FA03DDFE
:1033200020203049088029E02A4890ED000A2848EA
:10333000D0ED000A30EE600AB5EEC00AF1EE10FAE8
:1033400008DD244890ED000A2148D0ED000A30EE57
:10335000600A09E01F4890ED000A1D48D0ED000A00
:1033600030EE600AB1EE400AF3EE0E0AB4EEE00A67
:10337000F1EE10FA02DD14201A490880194800887D
:10338000401E00B2174908800846B0F90000002826
:103390001BDC00200880684200EB4000400000B2C7
:1033A00011490880684200EB4000400000B20F491C
:1033B000088005EB4500400000B20D49088005EB90
:1033C0004500400000B20B490880014818E00000A9
:1033D0002C000020300000200000B4420000B4C2E5
:1033E000000000002800002084000020860000204B
:1033F000880000208A000020CD380E450000704271
:1034000090ED000A5FED040A20EE200ABDEEC00A2E
:1034100010EE10AA90ED000A5FED090A20EE200AD6
:10342000BDEEC00A10EE10BA90ED000A5FED0E0A74
:1034300020EE200ABDEEC00A8DED010A90ED000AD3
:103440005FED130A20EE200ABDEEC00A8DED000AE2
:103450004FF448315046FEF72FF92B4908604FF4DE
:1034600048315846FEF728F9284908604FF448319A
:103470000198FEF721F9264908604FF44831009879
:10348000FEF71AF923490860BDE8FC8F2DE9F047E3
:1034900004460D46914600260027B046A9F57A70ED
:1034A0000FFA80F8A5F57A7007B2A4F57A7006B223
:1034B000B6F5967F02DD02F0FCFE07E016F5967F7A
:1034C00002DA02F0FDFE01E002F002FFB7F5967F9E
:1034D00002DD02F003FF07E017F5967F02DA02F043
:1034E00005FF01E002F009FFB8F5967F02DD02F06A
:1034F0000AFF07E018F5967F02DA02F00BFF01E001
:1035000002F00FFFBDE8F0878C0000209000002043
:103510009400002098000020F0EE400AB0EE600A0F
:103520001AE09FEDD71AB4EEC10AF1EE10FA06DDEB
:103530009FEDD41A30EE411AB0EE410A0CE09FED37
:10354000D21AB4EEC10AF1EE10FA05D29FEDCD1AEF
:1035500030EE011AB0EE410A9FEDCB1AB4EEC10A6B
:10356000F1EE10FADDD39FEDC61AB4EEC10AF1EE0A
:1035700010FAD6DC704710B50446D4ED070A9FED6B
:10358000C31A60EE810AB0EE600A09F099FBD4ED2F
:10359000040A9FEDBF1A40EE010AC4ED080AD4EDFB
:1035A000070A9FEDBA1A60EE810AB0EE600A0AF0CF
:1035B00073FED4ED050A9FEDB61A40EE010AC4ED84
:1035C000090A10BD10B52DED0A8B04469FEDB10A16
:1035D000B0EE408A9FEDAF0AF0EE408A9FEDAD0A53
:1035E000B0EE409A9FEDAB0AF0EE409A9FEDA90A2B
:1035F000B0EE40AA9FEDA70AF0EE40AA9FEDA50A03
:10360000B0EE40BAD4ED000A94ED041A70EEC10A8F
:10361000B0EE600AF0EE000A0AF0A6FAB0EE40CA78
:10362000D4ED010A94ED051A70EEC10AB0EE600AFD
:10363000F0EE000A0AF098FA3CEE000AF0EE40BA0A
:103640000AF02FFF84ED0B0AD4ED000A94ED081A5E
:1036500070EEC10AB0EE600AF0EE000A0AF084FAD9
:10366000B0EE40CAD4ED010A94ED091A70EEC10A19
:10367000B0EE600AF0EE000A0AF076FA3CEE000ABC
:10368000F0EE40BA0AF00DFF84ED0C0A94ED0B0A3F
:10369000D4ED0C0A30EE200ADFED7D0A30EE200A70
:1036A000F0EE000A80EE201AB0EE418ADFED780AD3
:1036B00078EE600A60EE880A94ED0B1A38EE411A33
:1036C00060EE810A94ED0C1A38EE411A60EE810A20
:1036D000B0EE600A0AF0E5FEF0EE408AB0EE000AB5
:1036E00028EE800ADFED6A0A80EE201A84ED0A1ABD
:1036F00094ED040AD4ED000A30EE600AF0EE409A30
:1037000094ED050AD4ED010A30EE600AB0EE40AA4D
:1037100094ED040AD4ED080A30EE600AF0EE40AAF7
:1037200094ED050AD4ED090A30EE600AB0EE40BA15
:1037300029EE8B0A0AEECA0AB0EE409AB5EEC09A9C
:10374000F1EE10FA07D294ED0A0AFFEE000A20EE1D
:10375000200A84ED0A0ABDEC0A8B10BD10B52DEDD0
:103760000C8B88B0B0EE40CAF0EE60CAB0EE41DA21
:10377000F0EE61DAB0EE428AF0EE628AB0EE439A81
:10378000F0EE639AB0EE44AAF0EE64AAB0EE45BA49
:10379000F0EE65BA04469FED400B8DED060B9FEDF4
:1037A0003E0B8DED040B9FED3C0B8DED020B9FED61
:1037B0003A0B8DED000BB0EE4D1AF0EE6D1AB0EE37
:1037C0004C0AF0EE6C0A04A906A804F012F9B0EE57
:1037D0004A1AF0EE6A1AB0EE490AF0EE690A694632
:1037E00002A804F0B6FA9DED060B51EC100B0BF09D
:1037F00017FC20609DED040B51EC100B0BF010FC3E
:10380000606051EC180B0BF00BFCA0609DED020BFF
:1038100051EC100B0BF004FC20619DED000B51EC02
:10382000100B0BF0FDFB606151EC1B0B0BF0F8FB78
:10383000A06194ED021ADFED1A0AFFEE001A41EEC4
:10384000810AB0EE600AFFF767FE84ED030A94ED8B
:10385000061ADFED140AFFEE001A41EE810AB0EEFF
:10386000600AFFF759FE84ED070A2046FFF783FE42
:103870002046FFF7A7FE08B0BDEC0C8B10BD000082
:10388000000034430000B443000034C335FA8E3CDA
:103890009A99993F0000000000000000000000001D
:1038A000000087430000B44210B596B004460121E1
:1038B000084605F0EBFE0121102005F02BFF072242
:1038C0000921CB4805F027FD07220A21C84805F049
:1038D00022FD00208DF8560001208DF857000220AF
:1038E0008DF854000002149002208DF8550014A9A0
:1038F000BF4805F085FC02208DF85400400214906A
:1039000014A9BB4805F07CFCBA4806F04FFE1094A1
:103910000020ADF84400ADF84600ADF84800ADF821
:103920004C000C20ADF84A0010A9B24806F08CFEFD
:10393000002240F22551AF4806F0C4FF002240F2B9
:103940002661AC4806F0BEFF012240F22441A9489E
:1039500006F0B8FF0121A74806F0FEFE0121880508
:1039600005F094FE01224021A24806F0A2FF0122A8
:103970008021A04806F09DFF25208DF83C00012005
:103980008DF83D008DF83E008DF83F000FA804F043
:1039900004FC46208DF83C0002208DF83D008DF897
:1039A0003E0001208DF83F000FA804F0F6FB3A20FE
:1039B0008DF83C0000208DF83D0002208DF83E007F
:1039C00001208DF83F000FA804F0E7FB8A4805F0BE
:1039D00047F94FF0006000908648001D019087482D
:1039E00002900020039080200490002005904FF466
:1039F000806006900020079008904FF48070099036
:103A00004FF440300A9000200B900C900D900E90D7
:103A10006946794805F0C6F90121774805F0FCF9B7
:103A20007548783005F01CF94FF00060009071483F
:103A3000001D019072480290402003908000049085
:103A4000002005904FF480600690002007900890B9
:103A500009904FF480300A9000200B900C900D904C
:103A60000E9069466448783005F09CF90122802167
:103A7000604806F01EFF012210215F48783005F0F3
:103A800058FA00215C48783005F0C6F916B010BD30
:103A900002465068081A80B2704770B500240025AD
:103AA00040F22551534806F048FF18B1514806F03E
:103AB00082FEC4B240F224414E4806F03EFF00B3FD
:103AC0004E48FCF792FF80214B48FFF7E1FF4D493C
:103AD00008800021484805F09FF900BF464805F0DE
:103AE000E8F90028FAD18021434805F0B6F9012110
:103AF000414805F091F93F480088C5B23D488088AB
:103B0000C5B270BD10B5044600BF2021394806F08B
:103B1000FEFE0028F9D0374806F04DFE10BD70B506
:103B200004460D4638480078F0B900213248783014
:103B300005F072F900BF3048783005F0BAF9002876
:103B4000F9D1002221462C48783005F0A3F9A9B21A
:103B50002948783005F081F901212748783005F0AF
:103B60005BF901202849087070BD70B505460E4606
:103B7000002400BF04E0285D21490855601CC4B240
:103B8000B442F8DB31461E48FFF7C9FF70BD0FB4E1
:103B900038B505A800901A48009A049907F0FAF879
:103BA00000200090164807F019F9044621461448F1
:103BB000FFF7B5FF38BC5DF814FB10B513490E488C
:103BC00005F0D4F918B111490B4805F0F9F910BD09
:103BD00010B50F490848783005F0C8F938B1002011
:103BE000094908700A490448783005F0E9F910BD20
:103BF00000000240001001404064024078010020B3
:103C0000F8010020400000203E000020008020102D
:103C10000080002810B504466FF0040004F00AFB91
:103C2000E11704EB5171C1F3C701404A117010460E
:103C3000007800EB4001C1EBC0104FF6FF7101EAC4
:103C4000C0003B49088010BD0146384A12784A43FB
:103C50004FF0E0235A6100229A611A46126942F03D
:103C600001021A6100BF4FF0E022106900F001026A
:103C70001AB100F48032002AF5D04FF0E022126928
:103C800022F001024FF0E0231A6100229A6170478E
:103C90000146274A12884A434FF0E0235A61002226
:103CA0009A611A46126942F001021A6100BF4FF090
:103CB000E022106900F001021AB100F48032002AFB
:103CC000F5D04FF0E022126922F001024FF0E0231C
:103CD0001A6100229A61704770B504464FF407706C
:103CE00094FBF0F0C6B24FF4077094FBF0F100FBC8
:103CF000114085B205E04FF40770FFF7C9FF701E51
:103D0000C6B2002EF7D115B12846FFF7C1FF70BD2E
:103D100010B5002107E04AF2104200BF131EA2F1C5
:103D20000102FBD1491C8142F5D310BD42000020A5
:103D30004400002010B58AB004460121084605F071
:103D4000A5FC0121480605F0D4FC09220C2191486C
:103D500005F0E1FA09220B218E4805F0DCFA4FF458
:103D6000C050019002208DF8080000208DF80A0054
:103D700003208DF8090001A9864805F041FA1420B6
:103D80008DF8000001208DF8010002208DF802005E
:103D900001208DF80300684604F0FFF915208DF826
:103DA000000001208DF8010002208DF802000120A2
:103DB0008DF80300684604F0F0F913208DF8000038
:103DC00001208DF801008DF802008DF8030068468F
:103DD00004F0E3F9704804F04BFA07A804F06CFB18
:103DE00000208DF822008DF823008DF824008DF836
:103DF00025008DF8260001208DF8270000208DF881
:103E00001E008DF81F0008208DF8200003208DF87B
:103E100021000620ADF81C0007A95F4804F041FA14
:103E200000208DF816008DF8170001208DF818007D
:103E30004FF6FF7000EA4410ADF80C000020ADF81A
:103E40000E004FF6FF70ADF81000401EADF81200E6
:103E50000020ADF8140001208DF8190003A804F02B
:103E6000AAFA012202214C4804F0A4FD01221021EB
:103E7000494804F09FFD01221146474804F09AFD8D
:103E80000AB010BD10B50121434804F0FBFD30B16C
:103E900001204249087001213F4804F08EFE10BD08
:103EA00000B585B002213C4804F0ECFD40B1022190
:103EB000394804F082FE6A460021374804F05FFC6E
:103EC00005B000BD00B585B01021334804F0DAFD1F
:103ED00040B11021304804F070FE6A4601212E489E
:103EE00004F04DFC05B000BDF0B585B006460F46A8
:103EF0001546002400208DF808008DF809008DF883
:103F00000A50009600BF05E0395D0DF10B00015528
:103F1000601CC4B2AC42F7DB01E0601CC4B269466D
:103F20001D4804F037FB042801D17F2CF5DB05B0D8
:103F3000F0BD2DE9F04186B006460F461546002437
:103F4000A04604208DF80C0000208DF80D008DF89F
:103F50000E50029600BF05E0395D0DF10F000155CE
:103F6000601CC4B2AC42F7DB09E008F1010000F0CC
:103F7000FF08B8F1050F02DD4FF0000805E001A9C8
:103F8000054804F007FB0428EFD000BF06B0BDE8E9
:103F9000F081000000000240006400404600002064
:103FA00010B58AB004460121022005F06FFB012103
:103FB000880605F09EFB09220C21FA4805F0ABF9B2
:103FC00009220D21F74805F0A6F94FF44050019061
:103FD00002208DF8080000208DF80A0003208DF8DB
:103FE000090001A9EF4805F00BF940208DF8000009
:103FF00001208DF8010002208DF8020001208DF8CB
:104000000300684604F0C9F841208DF80000012043
:104010008DF8010002208DF8020001208DF80300C8
:10402000684604F0BAF83F208DF8000001208DF8B2
:1040300001008DF802008DF80300684604F0ADF829
:10404000D94804F015F907A804F036FA00208DF8D5
:1040500022008DF823008DF824008DF825008DF8BE
:10406000260001208DF8270000208DF81E008DF815
:104070001F0008208DF8200003208DF821000C205F
:10408000ADF81C0007A9C84804F00BF90E208DF804
:10409000160000208DF8170001208DF818004FF64B
:1040A000FF7000EA4410ADF80C000020ADF80E00DF
:1040B000ADF81000ADF81200ADF8140001208DF835
:1040C000190003A804F077F90F208DF816000020DE
:1040D0008DF8170001208DF81800601C4FF6FF7155
:1040E00001EA4010ADF80C000020ADF80E00ADF86C
:1040F0001000ADF81200ADF8140001208DF8190081
:1041000003A804F058F910208DF8160000208DF84F
:10411000170001208DF81800A01C4FF6FF7101EA6E
:104120004010ADF80C000020ADF80E00ADF8100006
:10413000ADF81200ADF8140001208DF8190003A8A5
:1041400004F039F911208DF8160000208DF81700C1
:1041500001208DF81800C020ADF80C000020ADF84B
:104160000E00ADF81000ADF81200ADF814000120FB
:104170008DF8190003A804F01EF912208DF816001E
:1041800000208DF8170001208DF81800E020ADF810
:104190000C000020ADF80E00ADF81000ADF81200D4
:1041A000ADF8140001208DF8190003A804F003F9FC
:1041B00013208DF8160000208DF8170001208DF8CF
:1041C000180044F22000ADF80C000020ADF80E00FD
:1041D000ADF81000ADF81200ADF8140001208DF814
:1041E000190003A804F0E7F8012202216E4804F048
:1041F000E1FB012210216C4804F0DCFB0122114696
:10420000694804F0D7FB0AB010BD10B5012166481B
:1042100004F038FC30B10121634804F0CEFC0120E9
:104220006249087010BD10B586B002215E4804F0E6
:1042300029FC002879D002215B4804F0BEFC01AAC9
:104240000021594804F09BFA594C0298A04237D1FA
:104250009DF810009DF80F1040EA012000EE100AB2
:10426000B8EEC00AF2EE040A80EE201A514880ED42
:10427000001A9DF814109DF8130041EA002000EE8A
:10428000100AB8EEC00AF2EE040A80EE201A9FED82
:104290004A0A31EE400A474880ED010A9DF816109F
:1042A0009DF8150041EA002000EE100AB8EEC00AA1
:1042B000F2EE040A80EE201A3E4880ED021A24E055
:1042C000019806280FD19DF810003C4908709DF810
:1042D000110048709DF811109DF8100041EA00206F
:1042E0003649488011E0019807280ED19DF810004A
:1042F000334908709DF8110048709DF811109DF821
:10430000100041EA00202E49488040F20121019826
:1043100088422CD19DF80F002A4988700846807881
:10432000012803D10220887007E038E02548807812
:10433000022802D10120234988709DF810002149EC
:10434000C8709DF81100087008460078012802D155
:104350000220087006E01B480078022802D10120E4
:10436000184908709DF812001649487016E040F28E
:1043700001510198884211D19DF80F00114908712F
:104380009DF81000012802D10220487106E09DF836
:104390001000022802D101200A49487100BF06B06E
:1043A00010BD0000000402400068004047000020EB
:1043B000014090182808002000803B45AC000020F8
:1043C000A80000204800002000B585B01021414819
:1043D00004F058FBE8B110213E4804F0EEFB6A46B9
:1043E00001213C4804F0CBF90098062807D19DF83C
:1043F0000C00394908709DF80D00487009E00098DC
:10440000072806D19DF80C00344908709DF80D006E
:10441000487005B000BD2DE9F04186B006460F4654
:1044200015460024A04600208DF80C008DF80D00E4
:104430008DF80E50019600BF05E0395D0DF10F00BB
:104440000155601CC4B2AC42F7DB09E008F1010081
:1044500000F0FF08B8F1050F02DD4FF0000805E09D
:1044600001A91C4804F096F80428EFD000BF06B05C
:10447000BDE8F0812DE9F04186B006460F461546AD
:104480000024A04604208DF80C0000208DF80D00BB
:104490008DF80E50029600BF05E0395D0DF10F005A
:1044A0000155601CC4B2AC42F7DB09E008F1010021
:1044B00000F0FF08B8F1050F02DD4FF0000805E03D
:1044C00001A9044804F066F80428EFD000BF06B044
:1044D000BDE8F08100680040AC000020A80000208A
:1044E0001CB50121022005F0D1F80121042005F0BE
:1044F00000F9684604F0CCFEC020009002208DF840
:10450000040003208DF8050001208DF8070069469E
:10451000FE4804F075FE02220621FC4804F0FBFE72
:1045200002220721F94804F0F6FE00231A4603216F
:10453000F74806F00AF847F6FF70F549243108609D
:104540000121F34805F016FB1CBDF1492431026836
:104550000968A1F5FE41FF391144016047F6FF717A
:10456000EB4A24321160704710B5EA480068401CDD
:10457000E8490860082004F0CCFD10BD00B585B006
:104580000121880305F0C6F80121022005F07EF81C
:104590000820009000208DF8040003208DF805000D
:1045A00001208DF807006946D84804F029FE032150
:1045B000012006F017FA0820029000208DF80C0068
:1045C0000C208DF80D0001208DF80E0002A804F0DB
:1045D00029FD09208DF8100003208DF8110002201C
:1045E0008DF8120001208DF8130004A803F0D5FD0A
:1045F00005B000BD7FB505460C460121082005F039
:1046000078F8C54805F080F90295ADF8044000201F
:10461000ADF80C00ADF806008DF80E0001A9BE48FB
:1046200005F01FFA0121BC4805F086FA0121BA48BD
:1046300005F0CCFE01221146B74805F0B3FE01217A
:10464000B54805F097FA32208DF8000000208DF86B
:10465000010001208DF802008DF80300684603F088
:104660009CFD7FBD10B50121AB4805F0B2FE0028CE
:104670006FD0AA480078401CA84908700846007806
:10468000192804DD002008700120A5490870A548FC
:104690000078401CA349087008460078102801DD06
:1046A000012008709F48007811281AD2DFE800F036
:1046B00092091A2B3C434B52565C6270767C808880
:1046C0008E009948B0F90010012001F023FD9748B1
:1046D000B0F900209648B0F9001040F2031001F044
:1046E000C1FD77E09348B0F90010022001F012FDFF
:1046F0009148B0F900209148B0F900104FF4817052
:1047000001F097FD66E08E48B0F90010032001F03B
:1047100001FD8C48B0F900208B48B0F9001040F240
:10472000011001F06DFD55E08848B0F9001004203B
:1047300001F0F0FC4EE086480168052001F09CFC89
:1047400001F002FE46E083480188052001F0AEFC3E
:1047500040E044E0052001F0C3FC3BE07E480168F6
:10476000062001F089FC35E07A480188062001F036
:104770009DFC2FE0062001F0B3FC7248B0F9002048
:104780007148B0F9001040F2011001F039FD21E04C
:1047900072480168072001F06FFC1BE06D4801883A
:1047A000072001F083FC15E0072001F099FC11E0DF
:1047B0006B480168082001F05FFCFCF7B9FB09E0D9
:1047C00064480188082001F071FC03E0082001F032
:1047D00087FC00BF00BF01214F4805F00BFE10BD54
:1047E00000B589B00121022004F083FF01210846B1
:1047F00004F07FFF0020ADF81800ADF81A004FF666
:10480000FF7007900020ADF820008DF8220006A967
:10481000544805F026F906A94FF0804005F021F92B
:104820000020ADF80400ADF81000ADF806000390CC
:1048300001A94FF0804005F0A9F901A94FF080408F
:1048400005F0DDF901A9474805F0A0F901A945489F
:1048500005F0D5F901A9434805F01EFA01A9414820
:1048600005F080FA00214FF0804005F01CFB00218C
:104870004FF0804005F020FB00213A4805F013FB83
:104880000021384805F018FB0021364805F021FBCF
:104890000021344805F026FB0121880705F04CF97A
:1048A0000121304805F048F90221480705F0A2FD32
:1048B00001220221480705F075FD0421080705F0D3
:1048C00099FD01220421080705F06CFD022125480D
:1048D00005F090FD01220221224805F063FD04212C
:1048E000204805F087FD012204211E4805F05AFDED
:1048F00008211C4805F07EFD01220821194805F019
:1049000051FD1021174805F075FD2DE0000402400F
:104910000008004050000020000C0040550000201E
:10492000540000205800002084000020A600002031
:10493000A400002086000020A2000020A00000208B
:10494000880000209E0000209C0000208A0000209B
:104950008C000020560000209000002094000020D1
:104960009800002000040040012210216B4805F04F
:1049700019FD1D208DF8000001208DF80100032095
:104980008DF8020001208DF80300684603F005FC55
:104990001C208DF80000684603F0FFFB00214FF05B
:1049A000804005F04AFD07214FF0804005F0BBFD37
:1049B0008021C80505F0C0FD3021584805F03DFDB7
:1049C0000721564805F0AFFD8021544805F0B4FD9D
:1049D0000121880705F0CEF80121504805F0CAF8FA
:1049E00009B000BD00B589B00121084604F092FE6F
:1049F0000121042004F07DFE494804F085FF494868
:104A000004F082FF5320ADF818000020ADF81A0022
:104A100040F23F6007900020ADF820008DF82200A2
:104A200006A9404805F01DF85320ADF818000020F5
:104A3000ADF81A0040F67F4007900020ADF8200046
:104A40008DF8220006A9364805F00BF801A805F0FC
:104A5000C1F96020ADF804000120ADF80600002087
:104A6000ADF81000039001A92D4805F08FF801A9B9
:104A70002B4805F0C4F801A92A4805F087F801A9D8
:104A8000284805F0BCF801A9264805F005F901A958
:104A9000244805F067F90821214805F004FA0821A7
:104AA0001F4805F009FA08211E4805F0FCF9082105
:104AB0001C4805F001FA08211A4805F00AFA0821F5
:104AC000184805F00FFA0121154805F035F80121C5
:104AD000144805F031F80121114805F04BF8012187
:104AE000104805F047F820210E4805F013FD8021FD
:104AF0000C4805F021FD2021094805F00BFD80211F
:104B0000074805F019FD0121054805F024FC0121A5
:104B1000044805F020FC09B000BD0000000400407E
:104B2000000001400008004000B587B001217F4827
:104B300004F0ACFD0121480404F0DBFD0722032151
:104B40007B4804F0E8FB0820059002208DF818004F
:104B500000208DF81A0003208DF8190000208DF830
:104B60001B0005A9724804F04BFB724805F01EFDBE
:104B7000714801900020ADF808004FF40050ADF8E6
:104B80000A00C010ADF80C000420ADF80E000020A3
:104B9000ADF8100001A9674805F056FD012240F26A
:104BA0002551644805F08EFE0121624805F0D4FDD0
:104BB00026208DF8000000208DF8010001208DF8DE
:104BC00002008DF80300684603F0E7FA07B000BD65
:104BD0005A480078401C59490870084600786428F3
:104BE00004DD64200870002055490870704710B536
:104BF00040F225514F4805F0A0FE00287ED04D48D8
:104C000005F0D9FD4F4908704F48007838B908467B
:104C100000780F282AD1FF204B49087026E0494828
:104C200000784A494A4A1278885449480078172837
:104C300011D10846C07D022802D00846C07D18B9AF
:104C4000FF204449087006E000203F4908704149B0
:104C500008703F4908703E480078401C3C49087085
:104C600008460078182801DD0020087039480078CF
:104C700000285AD0354800783449497840EA012064
:104C8000C0F30A00344908803048807840012F4939
:104C9000497840EAE100C0F30A00304908802B4817
:104CA000807880112949C97840EA8100274909792B
:104CB00040EA8120C0F30A0029490880234800798E
:104CC00040102249497940EAC110C0F30A00254941
:104CD00008801E48407A00F00F00234908801B48D6
:104CE000807900F00F00401C204908801748807A26
:104CF0001F49088000201449087000E015E015499C
:104D00000870134908701148807D0C2803D10020D9
:104D10000B49087005E00020084908700120084987
:104D200008700421134804F0F2FA10BD01002000BD
:104D30000000024000440040A08601006300002003
:104D4000620000206E00002070000020F8020020A9
:104D50006F000020710000205A0000205C0000203D
:104D60005E00002060000020640000206800002039
:104D7000660000200010024010B50246002006E048
:104D8000137843400C4CE05C521C4B1ED9B20029F6
:104D9000F6DC10BD30B50346002006E01C78444028
:104DA000054D285D5B1C4C1EE1B20029F6DC80EA53
:104DB0000204014D285D30BD7CFF00081CB50121B7
:104DC000102004F063FC0420009001208DF8040002
:104DD00000208DF8060003208DF8050001208DF8D5
:104DE000070069461C4804F00BFA1CBD1CB50121E4
:104DF000082004F04BFCC020009001208DF8040036
:104E000000208DF8060003208DF8050001208DF8A4
:104E100007006946114804F0F3F940210F4804F0F7
:104E20006BFA80210D4804F067FA1CBD1CB5012106
:104E3000102004F02BFC4FF4A050009000208DF8BF
:104E4000040003208DF8050001208DF80700694655
:104E5000014804F0D5F91CBD00100240000C0240CE
:104E600000BF704700BFF64A128802F04002002AD5
:104E7000F9D0C2B2F24B9A80704710B596B0044692
:104E80000121880404F035FC0121022004F0FEFB1E
:104E90000121480504F0FAFB07220A21E94804F041
:104EA0003AFA07220B21E74804F035FA14A804F077
:104EB000EFF94FF48060149002208DF85400032025
:104EC0008DF8550014A9DF4804F09AF94FF40060FA
:104ED000149002208DF8540003208DF8550014A979
:104EE000D84804F08DF9D84805F060FB10A805F00B
:104EF00011FC10940020ADF84400ADF84600ADF868
:104F00004800ADF84C000C20ADF84A0010A9CE487E
:104F100005F09AFB0121CC4805F01EFC0C208DF811
:104F20003C0002208DF83D008DF83E0001208DF8F8
:104F30003F000FA803F031F9C44803F091FE4FF091
:104F400000600090C048001D0190C1480290002000
:104F500003904FF480700490002005904FF480601F
:104F600006900020079008904FF4807009904FF44D
:104F700040300A9000200B900C900D900E906946E6
:104F8000B24803F00FFF01221021B04803F0D1FF17
:104F900001224021AC4805F08CFC0121AB4803F014
:104FA0003BFF0E208DF83C0001208DF83D000220D3
:104FB0008DF83E0001208DF83F000FA803F0EDF8BA
:104FC000A248303003F04CFE4FF0006000909E4845
:104FD000001D01909F480290402003908020049083
:104FE000002005904FF48060069000200790089004
:104FF00009904FF480300A9000200B900C900D9097
:105000000E9069469148303003F0CCFE0122802199
:105010008D4805F04EFC012210218C48303003F001
:1050200088FF00218948303003F0F6FE16B010BD2D
:1050300002465068081A80B2704770B5002400BF5D
:1050400040F22551804805F078FC00281CD07E48AD
:1050500005F0B1FBC4B240F225517B4805F0A4FC39
:10506000242C12D17C48007801280ED001207A49E6
:1050700008700020C8810846C08975490C547648DC
:10508000C089401C7449C88169E0734800780128D0
:1050900065D1472C10D17048407801280CD00120F0
:1050A0006D4948700846C08969490C546A48C089EE
:1050B000401C6949C88152E06748407801284ED1B8
:1050C000502C10D16448807801280CD0012062490E
:1050D00088700846C0895E490C545F48C089401CEE
:1050E0005D49C8813BE05C488078012837D1472C76
:1050F00010D15948C07801280CD001205649C870F9
:105100000846C08952490C545348C089401C524932
:10511000C88124E0472C10D14F48007901280CD0D9
:1051200001204D4908710846C08949490C544A4834
:10513000C089401C4849C88111E0412C0FD1464824
:10514000407901280BD00120434948710846C089A5
:105150003F490C544048C089401C3F49C88140F237
:105160002441394805F0E9FB18B3394801F0D1FD75
:105170004FF480713548FFF75BFF38490880002104
:10518000324803F049FE00BF304803F092FE002889
:10519000FAD1324801882D4803F05FFE01212B48E7
:1051A00003F03AFE28480088C5B22748001D008851
:1051B000C5B270BD70B504460D4629480078F0B9F7
:1051C00000212248303003F027FE00BF1F48303056
:1051D00003F06FFE0028F9D1002221461B48303031
:1051E00003F058FEA9B21948303003F036FE012111
:1051F0001648303003F010FE01201949087070BDC8
:1052000070B505460E46002400BF04E0285D114934
:105210000855601CC4B2B442F8DB31460D48FFF7B4
:10522000C9FF70BD10B50F49084803F09FFE30B1AB
:10523000074801F06EFD0B49044803F0C1FE10BDA4
:105240000010014000040240004800402860024075
:105250009803002018030020980400207A00002002
:1052600078000020008800100FB438B505A8009021
:10527000FE48009A049905F08DFD00200090FB483F
:1052800005F0ACFD04462146F848FFF793FF38BC13
:105290005DF814FB10B5F649F64803F067FE30B12F
:1052A0000020F5490870F249F24803F089FE10BD6C
:1052B00010B596B004460121C80404F01AFA012181
:1052C000042004F0E3F90121480504F0DFF9082285
:1052D0000A21EA4804F01FF808220B21E74804F0ED
:1052E0001AF814A803F0D4FF4FF480601490022041
:1052F0008DF8540003208DF8550014A9DF4803F001
:105300007FFF4FF40060149002208DF854000320BA
:105310008DF8550014A9D94803F072FF10A805F0C4
:10532000F9F910940020ADF84400ADF84600ADF84E
:105330004800ADF84C000C20ADF84A0010A9D04848
:1053400005F082F90D208DF83C0002208DF83D001B
:105350008DF83E0001208DF83F000FA802F01DFFE0
:10536000C448183803F07CFC4FF000600090C4483B
:10537000001D0190C34802900020039080200490FB
:10538000002005904FF48060069000200790089060
:105390004FF48070099040020A9000200B900C900E
:1053A0000D900E906946B348183803F0FBFC0122BB
:1053B0004021B34805F07DFA0121AE48183803F0CA
:1053C0002BFD002240F22551AD4805F07BFA00226A
:1053D00040F22661AA4805F075FA012240F2244104
:1053E000A74805F06FFA34208DF83C0002208DF8B4
:1053F0003D0003208DF83E0001208DF83F000FA8EE
:1054000002F0CBFE01219E4805F0A6F9994818301C
:1054100003F026FC4FF0006000909948001D0190B9
:10542000994802904020039080200490002005902D
:105430004FF48060069000200790089009904FF488
:1054400080300A9000200B900C900D900E906946D1
:105450008848183003F0A6FC01228021884805F016
:1054600028FA012210218348183003F062FD002140
:105470008048183003F0D0FC0F208DF83C0002204B
:105480008DF83D008DF83E0001208DF83F000FA8FB
:1054900002F083FE16B010BD02465068081A80B2B2
:1054A000704770B50024002540F22551744805F07E
:1054B00044FA40B1724805F07EF9C4B240F2255179
:1054C0006F4805F071FA40F224416D4805F035FA55
:1054D00030B36E48FBF7A7FA802166481838FFF70B
:1054E000DBFF6B49087000216248183803F094FC18
:1054F00000BF6048183803F0DCFC0028F9D1802197
:105500005C48183803F0A9FC01215A48183803F008
:1055100083FC5B480088C5B25948001D0088C5B2AD
:1055200070BD70B504460D465A480078F0B90021A8
:105530005048183003F070FC00BF4E48183003F09C
:10554000B8FC0028F9D1002221464A48183003F05F
:10555000A1FCA9B24748183003F07FFC012145485F
:10556000183003F059FC01204A49087070BD70B52D
:1055700005460E46002400BF04E0285D4249085558
:10558000601CC4B2B442F8DB31463F48FFF7C9FFA4
:1055900070BD10B540493748183003F0E7FC60B1E2
:1055A00000203C4908703D493248183003F0ADFCFA
:1055B0003A493048183003F003FD10BD10B53849A2
:1055C0002C48183803F0D2FC58B14FF081512948CB
:1055D000183803F09AFC4FF081512648183803F030
:1055E000EFFC10BD10B596B004460121042004F074
:1055F0004DF80121082004F049F80121080504F0C4
:1056000078F80121480504F041F8082202212548D4
:1056100003F081FE08220C21184803F07CFE0420D0
:10562000149002208DF8540003208DF855000020BE
:105630008DF8560001208DF8570014A9194803F081
:10564000DFFD4FF48050149014A90C4803F0D8FDEE
:1056500010940020ADF84400ADF84600ADF84800C5
:10566000ADF84C000C20ADF84A001DE018030020F6
:1056700000800018586002407800002000080240B6
:10568000004C004028050020A804002098030020BA
:105690007C0000207D0000202080002020000020D1
:1056A00000802010000C024010A9FE4804F0CCFF3E
:1056B0000B208DF83C0002208DF83D008DF83E0057
:1056C00001208DF83F000FA802F067FDF64803F0B7
:1056D000C7FA4FF000600090F248001D0190F348B7
:1056E00002900020039080200490002005904FF449
:1056F000806006900020079008904FF48070099019
:1057000040020A9000200B900C900D900E9069467C
:10571000E54803F047FB01224021E24805F0C9F8C3
:105720000121E14803F078FB002240F22551DD48D9
:1057300005F0C8F8002240F22661DA4805F0C2F808
:10574000012240F22441D74805F0BCF835208DF8FD
:105750003C0000208DF83D0001208DF83E008DF8C2
:105760003F000FA802F019FD0121CE4804F0F4FF1C
:105770002F208DF83C0002208DF83D008DF83E0072
:1057800001208DF83F000FA802F007FDC648A830A1
:1057900003F066FA4FF000600090C248001D0190CF
:1057A000C3480290402003908000049000200590A0
:1057B0004FF48060069000200790089009904FF405
:1057C00080300A9000200B900C900D900E9069464E
:1057D000B548A83003F0E6FA01228021B14805F06F
:1057E00068F801221021B048A83003F0A2FB002184
:1057F000AD48A83003F010FB16B010BD024650684B
:10580000081A80B2704770B50024002540F2255177
:10581000A44805F092F818B1A24804F0CCFFC4B235
:1058200040F224419F4805F088F8E8B180219E4865
:10583000FFF7E4FF9F49087000219B4803F0ECFA52
:1058400000BF994803F035FB0028FAD18021964823
:1058500003F003FB0121944803F0DEFA914800882D
:10586000C5B290488088C5B270BD10B592498E48C7
:10587000A83003F07BFB70B10020904908704FF016
:1058800020518948A83003F040FB4FF02051864852
:10589000A83003F095FB10BD70B504460D4687484F
:1058A0000078F0B900218048A83003F0B5FA00BFB5
:1058B0007D48A83003F0FDFA0028F9D100222146E6
:1058C0007948A83003F0E6FAA9B27748A83003F087
:1058D000C4FA01217448A83003F09EFA01207749E8
:1058E000087070BD70B505460E46002400BF04E088
:1058F000285D6F490855601CC4B2B442F8DB3146DC
:105900006B48FFF7C9FF70BD0FB438B505A800900C
:105910006748009A049905F03DFA00200090644819
:1059200005F05CFA044621466148FFF7B5FF38BC34
:105930005DF814FB10B596B004460121202003F059
:10594000E9FE0121042003F0A1FE0121880503F0F6
:105950009DFE082206215A4803F0DDFC082207219B
:10596000574803F0D8FC14A803F092FC4020149090
:1059700002208DF8540000208DF8560001208DF88B
:10598000570003208DF8550014A94D4803F038FC4A
:105990008020149002208DF8540000208DF85600CD
:1059A00001208DF8570003208DF8550014A94448B4
:1059B00003F026FC434804F0F9FD10A804F0AAFE09
:1059C00010940020ADF84400ADF84600ADF8480052
:1059D000ADF84C000C20ADF84A0010A9394804F08D
:1059E00033FE39208DF83C0002208DF83D008DF803
:1059F0003E0001208DF83F000FA802F0CEFB324898
:105A000003F02EF94FF0206000902E48001D019009
:105A10002E480290002003908020049000200590E2
:105A20004FF4806006900020079008904FF480703B
:105A3000099040020A9000200B900C900D900E905F
:105A40006946214803F0AEF9012240211D4804F0C7
:105A500030FF01211C4803F0DFF9002240F22551FC
:105A6000184804F02FFF002240F22661154804F088
:105A700029FF012240F22441124804F023FF47206D
:105A80008DF83C0001208DF83D008DF83E008DF82A
:105A90003F000FA802F081FB01210A4804F05CFEE0
:105AA000452015E00050004010600240A80500208D
:105AB000280600207F000020008000287E000020B3
:105AC000000802400014014028640240A80700209A
:105AD0008DF83C0002208DF83D008DF83E0001203D
