:020000040800F2
:1000000030240020758C0008D90D0008DB0D000895
:10001000EB0D0008EF0D0008F30D000800000000D4
:10002000000000000000000000000000878C0008B5
:10003000F70D0008000000008B8C00088D8C000874
:100040008F8C00088F8C00088F8C00088F8C000824
:100050008F8C00088F8C00088F8C00088F8C000814
:100060008F8C0008412D00088F8C00088F8C0008B1
:1000700017390008B53C0008593900088B3C0008C6
:100080008F8C00088F8C00088F8C00085D2600087C
:10009000792600089D2600088F8C00088F8C0008A8
:1000A0008F8C00088F8C00088F8C00088F8C0008C4
:1000B0008F8C00088F8C00088F8C00088F8C0008B4
:1000C0008F8C00088F8C00088F8C00088F8C0008A4
:1000D0008F8C00086B220008C33300082D380008FD
:1000E0008F8C00088F8C00088F8C00088F8C000884
:1000F0008F8C00088F8C00088F8C0008633F0008ED
:100100008F8C00088F8C00083D2E00088F8C000813
:10011000A33B0008F53E00088F8C00088F8C000878
:100120008F8C00088D420008912300088F8C0008F6
:100130008F8C00088F8C00088F8C0008E329000842
:10014000FF290008A12B00088F8C00088F8C000865
:100150008F8C0008ED420008A72300082142000808
:100160008F8C00088F8C00088F8C00088F8C000803
:100170008F8C00088F8C00088F8C00088F8C0008F3
:100180008F8C00088F8C000800F002F800F092F8C5
:100190000AA090E8000C82448344AAF10107DA45E2
:1001A00001D100F087F8AFF2090EBAE80F0013F0A2
:1001B000010F18BFFB1A43F001031847D4D6000003
:1001C000F4D60000103A24BF78C878C1FAD8520794
:1001D00024BF30C830C144BF04680C6070470000C1
:1001E0000023002400250026103A28BF78C1FBD840
:1001F000520728BF30C148BF0B6070476E2909F015
:100200001B80702909F0838366290DF07D806529A4
:100210000DF07A8067290DF0778061290DF07680E6
:1002200003681B0A28BF41F08001692908F0328663
:10023000642908F02F86752908F02C866F2909F0AB
:100240001083782909F04F83E92909F0AB82E4296A
:1002500009F0A882F52909F0A582EF2909F00D839C
:10026000F82909F04E830368DB0928BF41F08001BB
:10027000632909F02C82732909F03182E32909F0FE
:100280006785F32909F06C85002070471FB50CF0D5
:10029000FAFF09F047FB0400002000210CF018F9D8
:1002A000401C6060002000210CF0FCF8E0601FBDE5
:1002B00010B510BD09F0EEFD1146FFF7E7FF00F0A5
:1002C0007CFB09F015FE03B4FFF7F2FF03BC03F05B
:1002D000B1F9000010B54FF4A06005F061FFA8204F
:1002E00002F084F803F054F903F06AF903F088F996
:1002F0004FF4E13001F0C0FE03F000F84FF47A70E3
:1003000002F0D6F8012002F001F9C82002F0D0F87E
:1003100040F2015002F030FA642002F0C9F8532193
:1003200040F2CF7002F052FDFEA002F01BF810BDAB
:100330002DE9FE4F8046894692460026002500247E
:100340000027A3460020029001900090A9F57A7042
:1003500005B2A8F57A7004B2AAF57A7007B2002C3B
:1003600001DD204600E06042B0F5967F7BDD002D88
:1003700001DD284600E06842B0F5967FF6DDEE48E4
:1003800090ED000AED4880ED000AB4F5967F21DD7E
:1003900015F5967F1EDA9FEDEA0AE74880ED000A20
:1003A000002C01DD204600E06042002D01DD2946E1
:1003B00000E069420844404200EE100AB8EEC00A6C
:1003C000DFEDE00A20EE200ABDEEC00A10EE100AB2
:1003D00006B2C1E014F5967F21DA15F5967F1EDA94
:1003E0009FEDD90AD44880ED000A002C01DD20469B
:1003F00000E06042002D01DD294600E0694208442A
:10040000404200EE100AB8EEC00ADFEDCE0A20EE40
:10041000200ABDEEC00A10EE100A06B29CE014F5E8
:10042000967F21DAB5F5967F1EDD9FEDC50AC2489D
:1004300080ED000A002C01DD204600E06042002D26
:1004400001DD294600E06942084400EE100AB8EEDA
:10045000C00ADFEDBC0A20EE200ABDEEC00A10EE95
:10046000100A06B278E023E0B4F5967F74DDB5F5A6
:10047000967F71DD9FEDB40AAF4880ED000A002C35
:1004800001DD204600E06042002D01DD294600E04C
:100490006942084400EE100AB8EEC00ADFEDA90A6E
:1004A00020EE200ABDEEC00A10EE100A06B253E09C
:1004B000002C01DD204600E06042B0F5967F26DD8D
:1004C000002D01DD284600E06842B0F5967F1EDA77
:1004D000994890ED000A994880ED000AB4F5967F9E
:1004E00008DD9FED9A0A944880ED000AA4F5967005
:1004F00006B231E014F5967F2EDA9FED950A8E480C
:1005000080ED000A04F59670404206B224E0002C0B
:1005100001DD204600E06042B0F5967F1CDA002D38
:1005200001DD284600E06842B0F5967F14DD824880
:1005300090ED000A814880ED000A9FED860A7E4812
:1005400080ED000AB5F5967F03DDA5F5967006B23D
:1005500002E005F5967006B2002F01DD384600E096
:100560007842B0F5967F7DDDB7F5967F03DDA7F580
:10057000967006B202E007F5967006B26E4890EDEE
:10058000000A6E4880ED000A9FED6F0A6A4880ED10
:10059000000A6A4890ED000A6748D0ED000A30EE84
:1005A000600AB5EEC00AF1EE10FA08DD634890ED7E
:1005B000000A6148D0ED000A30EE600A09E05F48A9
:1005C00090ED000A5C48D0ED000A30EE600AB1EE12
:1005D000400AF3EE040AB4EEE00AF1EE10FA02DD8E
:1005E00019205D4908805C480088401E00B25A49C5
:1005F00008800846B0F90000002844DC002008808C
:1006000006EB460000B25549088006EB460000B2F2
:100610005349088006EB460000B25249088006EBB9
:10062000460000B250490880434890ED000AB1EE00
:10063000400ADFED4E0A20EE200ABDEEC00A10EEA1
:1006400010BA90ED000ADFED490A20EE200ABDEE57
:10065000C00A8DED020A90ED000AB1EE400ADFED0E
:10066000430A00E010E020EE200ABDEEC00A8DED46
:10067000010A90ED000ADFED3D0A20EE200ABDEEF2
:10068000C00A8DED000A1EE1002C01DD204600E0CD
:100690006042B0F5967F71DA002D01DD284600E05A
:1006A0006842B0F5967F69DA9FED2A0A224880ED0C
:1006B000000A0026704200EB800028490880704242
:1006C00000EB80002649088006EB8600254908805B
:1006D00006EB860024490880174890ED000ADFEDFC
:1006E000230A20EE200ABDEEC00A10EE10BA90EDEB
:1006F000000ADFED1E0A20EE200ABDEEC00A8DEDD5
:10070000020A90ED000ADFED190A20EE200ABDEE84
:10071000C00A8DED010A90ED000ADFED140A20EE0B
:10072000200A26E073797320696E69742066696E09
:10073000697368210D0A00000400002008000020F1
:10074000000034C29A99193F000034420000B442BC
:100750000000B4C200000000000000206C00002077
:100760006E0000207000002072000020CD380E4581
:1007700004E0BDEEC00A8DED000AA4E0F84890ED5B
:10078000000AF848D0ED000A30EE600AB5EEC00A63
:10079000F1EE10FA08DDF24890ED000AF148D0EDD4
:1007A000000A30EE600A09E0ED4890ED000AED48DD
:1007B000D0ED000A30EE600AB1EE400ADFEDEA0A41
:1007C000B4EEE00AF1EE10FA03DD2020E7490880DC
:1007D00029E0E34890ED000AE248D0ED000A30EE4F
:1007E000600AB5EEC00AF1EE10FA08DDDC4890EDC3
:1007F000000ADC48D0ED000A30EE600A09E0D84873
:1008000090ED000AD748D0ED000A30EE600AB1EE54
:10081000400AF3EE0E0AB4EEE00AF1EE10FA02DD41
:100820001420D2490880D1480088401E00B2CF4928
:1008300008800846B0F9000000281BDC0020088072
:10084000704200EB4000400000B2C949088070428D
:1008500000EB4000400000B2C649088006EB4600AD
:10086000400000B2C449088006EB4600400000B2D8
:10087000C2490880BB4890ED000A5FED440A20EEB3
:10088000200ABDEEC00A10EE10BA90ED000A5FED2E
:10089000490A20EE200ABDEEC00A8DED020A90ED55
:1008A000000A5FED4E0A20EE200ABDEEC00A8DED73
:1008B000010A90ED000A5FED530A20EE200ABDEE1A
:1008C000C00A8DED000A4FF44831584600F0BFFDD4
:1008D000AB4908604FF44831029800F0B8FDA949CF
:1008E00008604FF44831019800F0B1FDA649086056
:1008F0004FF44831009800F0AAFDA4490860BDE813
:10090000FE8F2DE9F04704460D469146002600274C
:10091000B046A9F57A700FFA80F8A5F57A7007B29B
:10092000A4F57A7006B2B6F5967F02DD04F00DF8F4
:1009300007E016F5967F02DA04F00EF801E004F005
:1009400013F8B7F5967F02DD04F014F807E017F509
:10095000967F02DA04F016F801E004F01AF8B8F510
:10096000967F02DD04F01BF807E018F5967F02DAA7
:1009700004F01CF801E004F020F8BDE8F08710B5A1
:1009800083480078401C8249087008460078142883
:1009900012DD804800880D280ED17F48007858B1BC
:1009A0007E4843887E4842887E4801787EA001F0D8
:1009B000D9FC00207649087010BD2DED048B82B063
:1009C0009FED800BB0EE408AF0EE608AFFF782FC6C
:1009D00003F0C0FD642001F06BFDDAE17B48007894
:1009E0000028FAD000F0D9FC6E48007830B1012818
:1009F0001FD0022874D003281AD18BE19FED743BDD
:100A00009FED752B9FED761B9FED770B04F0FEFE9F
:100A1000B0EE408AF0EE608A03F01CFF03F087FF1F
:100A2000642001F045FD53EC182B71A001F09AFCF5
:100A3000A5E1584800880D280BD17248008802B201
:100A40007148008801B27148008800B2FFF770FC5D
:100A500019E05048008801280DD16D48008802B285
:100A60006948008801B26948008800B2FFF749FF71
:100A700003F0F0FE07E0474800880F2803D101216A
:100A8000084600F0EDFC63480088642826DD9FEDF1
:100A9000623B9FED632B9FED641B9FED650B05F0A3
:100AA000D1F9B0EE408AF0EE608A9FED633B9FED96
:100AB000642B9FED651B9FED660B05F015F8B0EEFE
:100AC000409AF0EE609A642001F0F2FC8DED009BFC
:100AD00053EC182B60A001F045FC00BF4FE1FFE78D
:100AE0006548007860B16448407848B96348007848
:100AF00030B90120614908705F4800785E4948704C
:100B00005E48007809280ED2DFE800F0050E0D1AC5
:100B1000D4DB0DF6FE00642001F0CAFC00F085FC79
:100B200057A001F01FFCF3E00121084600F098FCFB
:100B30000121084600F073FB012000F0FBFAE7E01A
:100B40000021022000F08CFC5948007838B1584848
:100B50000078072803D00221002000F060FBD7E0D6
:100B60000800002004000020000070420000002067
:100B70006C0000206E000020700000207200002039
:100B800074000020780000207C00002080000020FD
:100B90000C000020500000204A0000209C00002093
:100BA00098000020160000206D6F64653A256420CF
:100BB000686D63663A256420686D63623A25640D4A
:100BC0000A00000000000000000000003C000020BF
:100BD0004702CB1923843E40F63AFD2E999E5D4094
:100BE000F41DC41A23843E4070E89048999E5D40ED
:100BF0007374616E6462792C6469732069733A2539
:100C0000660D0A0048000020440000204200002039
:100C1000460000204E000020FA565B1923843E4017
:100C20008E06837A999E5D407DB8BB3922843E4012
:100C300076F95AC0999E5D40A13B987F3ADC3E40D0
:100C400044A32FCCFFB25D40D188E30A39DC3E409B
:100C5000C49F974000B35D407374616E6462792CE9
:100C60006469732069733A256C666D2C616E673A0E
:100C7000256C660D0A0000000D0000201700002002
:100C80007461736B206F6B2C706C616E6520696E84
:100C900020686F6D652C61677620697320636861D9
:100CA0007267696E67206E6F772E2E2E0D0A000018
:100CB00015000020642001F0FBFB36A001F052FB80
:100CC00026E00021012000F0CBFB3E48007830B147
:100CD0003C480078072802D0002000F02BFA0221BF
:100CE000012000F09CFA38480078072801D13749E4
:100CF00008700DE008E0FFE70121022000F0B0FBE2
:100D0000022000F017FA03E000203049087000BF0D
:100D100000BF34E02E4B93ED030ABDEEC00A10EE87
:100D2000103A1AB22A4B93ED020ABDEEC00A10EE39
:100D3000103A19B2264B93ED010ABDEEC00A10EE2F
:100D4000103A18B2FFF7F4FA214B93ED060ABDEE04
:100D5000C00A10EE103A1AB21D4B93ED050ABDEE13
:100D6000C00A10EE103A19B2194B93ED040ABDEE09
:100D7000C00A10EE103A18B2FFF7C3FD00BF00BF63
:100D800000F037FB00F034FB02F00CFB00201149AF
:100D9000087023E67461736B206F6B2C706C616E4E
:100DA00065206F757420686F6D652C6167762069AA
:100DB00073206368617267696E67206E6F772E2E8D
:100DC0002E0D0A001400002015000020170000203E
:100DD000D40000203C000020704705E006A001F090
:100DE000C1FA642001F064FBF8E700BFFEE700BF32
:100DF000FEE700BFFEE77047686172646661756C6C
:100E0000742E2E2E0D0A000010B5A2B000248021F1
:100E100002A808F070F900200190F1222146641C1C
:100E200002A8425401222146641C4254641CBB485F
:100E300090ED000A8DED010A9DF804202146641C06
:100E400002A842549DF805202146641C42549DF896
:100E500006202146641C42549DF807202146641C4C
:100E60004254AE4890ED010A8DED010A9DF8042030
:100E70002046611CCCB202A90A549DF805202046E8
:100E8000611CCCB202A90A549DF806202046611CC0
:100E9000CCB202A90A549DF807202046611CCCB2AE
:100EA00002A90A549D4890ED020A8DED010A9DF8B1
:100EB00004202046611CCCB202A90A549DF80520EA
:100EC0002046611CCCB202A90A549DF80620204697
:100ED000611CCCB202A90A549DF807202146601C6F
:100EE000C4B202A8425408222046611CCCB202A916
:100EF0000A5419222046611CCCB202A90A548DF86A
:100F00000A40A01EC1B202A802F020FBA11E02AA44
:100F10005054214602A801F013FA22B010BD10B5BA
:100F20008178022900DA10BD8B1EC25C0378F12B98
:100F300001D1012300E000234478022C01D10124D7
:100F400000E00024234033B1C378754C237003794B
:100F5000E3704379237100BFE5E710B5817802297A
:100F600000DA10BD8B1EC25C0378712B01D1012306
:100F700000E000234478082C01D1012400E0002483
:100F80002340E3B3C378674C63700379A37043795C
:100F9000E370C379847943EA042300EE103AB8EE93
:100FA000C00A604B83ED010A437A047A43EA0423C2
:100FB00000EE103AB8EEC00A5A4B83ED020AC37A2B
:100FC000847A43EA042300EE103AB8EEC00A554B87
:100FD00083ED030A437B047B43EA042300EE103ACB
:100FE000B8EEC00A4F4B83ED040AC37B847B43EA0F
:100FF000042300EE103AB8EEC00A4A4B00E00CE0C1
:1010000083ED050A437C047C43EA042300EE103A96
:10101000B8EEC00A434B83ED060A00BFA1E710B546
:1010200090B000244021684608F065F83E480078FA
:10103000401C3D490870084600780A286BDD0020F6
:10104000087071222046611CCCB20DF800200722E6
:101050002046611CCCB20DF80020601CC4B233489D
:1010600002782046611CCCB20DF8002000222046F8
:10107000611CCCB20DF800202046611CCCB20DF8EA
:1010800000202B4802782046611CCCB20DF80020CD
:10109000274842782046611CCCB20DF80020244835
:1010A00082782046611CCCB20DF800202048C2781E
:1010B0002046611CCCB20DF800201D480279204664
:1010C000611CCCB20DF80020194842792046611C01
:1010D000CCB20DF8002000222046611CCCB20DF8E5
:1010E000002008222046611CCCB20DF800201922F5
:1010F0002046611CCCB20DF800208DF80240A01EE5
:10110000C1B2684602F022FAA11E0DF80100214684
:10111000684602F0A8FD10B010BD0000900E00203F
:101120000D000020D4000020120000201600002036
:101130003200002010B50446002C47D0F948007852
:10114000012806D0022814D0032822D004283CD13C
:1011500032E003F017FCF4488078022808D1F24806
:10116000C078022804D103F014FC0220ED49087075
:101170002BE003F01BFCEC480079012808D1EA4879
:101180004079012804D103F018FC0320E5490870D8
:101190001BE003F0DAFBE448007801280BD1E248B9
:1011A0004078012807D103F0DFFB0420DD490870F7
:1011B000DEA001F0D7F808E00720DA490870012C1A
:1011C00002D10320E049087000BF27E000BF03F010
:1011D000D9FB03F0EBFB03F0B8FBD348807802287F
:1011E000F5D1D148C0780228F1D1CF480079012843
:1011F000EDD1CD4840790128E9D1CB4800780128CC
:10120000E5D1C94840780128E1D103F0C2FB03F0E1
:10121000D4FB03F0A9FBCDA001F0A4F810BD70B57C
:1012200005460C46012D70D1CF480078012812D117
:10123000CD48407801280ED1CB48807858B9CA48AB
:10124000C07840B90120C9490870C7498870C87082
:10125000C7A001F087F8022C3CD1C44800780128CF
:1012600004D0022812D0032833D12EE003F097FBDC
:10127000AD480079022808D1AB484079022804D152
:1012800003F09BFB0220B949087022E003F072FBD7
:1012900003F062FBA4480078022815D1A2484078E8
:1012A000022811D1A048807801280DD19E48C0782D
:1012B000012809D103F06DFB03F056FB0320AB4975
:1012C0000870B1A001F04EF803E00720A7490870AC
:1012D00000BF61E0012C5FD1A4480078012804D050
:1012E000022813D0032834D12FE003F035FB8E48B9
:1012F0000078022808D18C484078022804D103F0F5
:1013000033FB02209949087023E023E003F032FB0D
:1013100003F045FB84480079022815D182484079C2
:10132000022811D18048807801280DD17E48C078EC
:10133000012809D103F02DFB03F03FFB03208B496B
:10134000087091A001F00EF803E0072087490870AB
:1013500000BF21E005BB00BF03F021FB03F0FCFA56
:10136000714800790228F7D16F4840790228F3D1FB
:101370006D4800780228EFD16B4840780228EBD105
:1013800003F01BFB03F005FB03F0EEFA00207749A6
:10139000087083A000F0E6FF70BD8848007801283F
:1013A00002D18749087022E086480078012803D1DD
:1013B0000220834908701AE082480078022803D18D
:1013C00000207F49087012E07E480078032805D18C
:1013D00000207B4908705C49087008E07748007875
:1013E00028B97848007810B900207549087070470E
:1013F000704710B54FF48061734805F06BFF18B962
:1014000001205949087002E00020574908704FF444
:1014100080516D4805F05EFF18B9012052494870AF
:1014200002E000205049487010BD00206749087054
:10143000674908706749087067490870674908700C
:1014400067490870674908706749087070478842A3
:1014500001DD084603E04A42904200DA4842704704
:101460002DE9F0412DED028B05460E4600249FED3F
:101470005F0AB0EE408A00275D480088401C5C4946
:101480000880084600883C2847DD0020088059492C
:101490004888594903F0B0FA58494888584903F038
:1014A000ABFA2048007848B11E480078072805D0DC
:1014B00000BF9FED4E0AB0EE408A00E22B48007854
:1014C00050B12A480078072806D000249FED470A2B
:1014D000B0EE408A0027F0E74948C07801281DD1C6
:1014E000012E1CD1022D1BD138480078A0B93848F4
:1014F0000078401C3649087008460078012803DD52
:1015000001200870314908706FF095049FED370A8B
:10151000B0EE408A002775E078E0F2E31FE235E1A3
:10152000C8E00000140000203200002072656C65E5
:1015300061736520706C616E65206973206F6B2E1E
:101540002E2E0D0A00000000170000207069636B4A
:10155000706C616E65206973206F70656E206F6BB3
:101560002E2E2E0D0A00000019000020150000206C
:1015700066696E6420706C616E65206973206F6BA4
:101580002E2E2E0D0A0000007069636B20706C61B6
:101590006E65206973206F6B2E2E2E0D0A000000E1
:1015A0007069636B206D616368696E652069732083
:1015B000636C6F73652E2E2E0D0A00004A0000200A
:1015C000160000200D000020001002401D00002029
:1015D0001E0000201F00002020000020210000200D
:1015E0002200002023000020240000200000000032
:1015F0002600002098000020A00000209C00002071
:10160000A4000020F3A000F0ADFED8E3FB48007872
:10161000012825D1FA480078401CF949087008468D
:101620000078032811DB032008700220F3490870BA
:1016300000241FED120AB0EE408A00270120F14974
:101640000870F1A000F08EFEB9E36FF095041FED75
:10165000190AB0EE408A0027F7A000F083FEAEE33F
:10166000E64800780228D0D1E5480078401CE449DB
:10167000087008460078052811DB05200870032053
:10168000DE49087000241FED270AB0EE408A0027CB
:101690000820F1490870F1A000F064FE8FE36FF0BC
:1016A00095041FED2E0AB0EE408A0027F5A000F049
:1016B00059FE84E3012DA8D1FA48007810BBFA48FE
:1016C0000078401CF84908700846007801280FDDB2
:1016D00001200870F3490870F449087000241FEDD8
:1016E0003D0AB0EE408A0027F1A000F03BFE66E321
:1016F00096241FED420AB0EE408A0027F4A000F0C5
:1017000031FE5CE3E7480078012816D1E64800780E
:10171000401CE549087008460078022803DD0220D5
:101720000870E049087096241FED500AB0EE408A18
:101730000027EDA000F016FE41E3DA480078022809
:101740008DD1D9480078401CD749087008460078E8
:10175000042811DD042008700320D24908700024F9
:101760001FED5E0AB0EE408A00270120A5490870EF
:10177000E6A000F0F7FD22E364241FED640AB0EE5A
:10178000408A0027EAA000F0EDFD18E3002E85D185
:10179000022D79D1ED48007818BBED480078401C47
:1017A000EB4908700846007801280FDD0120087019
:1017B000E649087000241FED730AB0EE408A002746
:1017C000BA490870E3A000F0CDFDF8E2C0A000F037
:1017D000C9FD6FF095041FED7B0AB0EE408A00272B
:1017E000EDE2DA480078012823D1D9480078401C7E
:1017F000D74908700846007803280FDB03200870DB
:101800000220D24908706FF095041FED880AB0EEEF
:10181000408A0027D9A000F0A5FDD0E26FF0950422
:101820001FED8E0AB0EE408A002783A000F09AFDDB
:10183000C5E2C648007802289DD1C5480078401C02
:10184000C349087008460078052811DB0520087098
:101850000320BE49087000241FED9C0AB0EE408AA8
:10186000002704207C490870CDA000F07BFDA6E293
:101870006FF095041FEDA30AB0EE408A002781A007
:1018800000F070FD9BE2FFE7012D9ED1D248007869
:10189000B0B9D2480078401CD0490870084600789A
:1018A000012803DD01200870CB490870CCA000F0AE
:1018B00059FD96241FEDB30AB0EE408A00277EE260
:1018C000C5480078012824D1C4480078401CC34989
:1018D000087008460078032811DB032008700220F6
:1018E000BD490870012047490870C6A000F03AFDC4
:1018F00000241FEDC20AB0EE408A00275FE2CCA0B0
:1019000000F030FD96241FEDC70AB0EE408A002794
:1019100055E2B148007802288AD1B0480078401CCE
:10192000AE4908700846007805280EDB05200870CF
:101930000320A9490870C6A000F014FD00241FED83
:10194000D50AB0EE408A002739E279A000F00AFDFE
:1019500096241FEDDA0AB0EE408A00272FE2C7482E
:1019600090F90200B0F1FF3F05DAC54890F9020096
:10197000B0F1FF3F21DBC14890F9020001280BDCE8
:10198000BE4890F90200B0F1FF3F05DBBC4890F97A
:101990000200B0F1FF3F10DBB94890F902000128C6
:1019A00016DCB74890F90200B0F1FF3F10DBB348F6
:1019B00090F90200B0F1FF3F0ADA46249FEDB10A28
:1019C000B0EE408A0127AD484278AD4841785BE1EE
:1019D0005EE100006669727374206C696E652C6E3E
:1019E0006F742073746F70207374696C6C20676FF0
:1019F000206261636B2E2E2E0D0A00001D00002058
:101A00001E0000201400002066696E642073656368
:101A10006F6E64206C696E652C6167762073746FDD
:101A20007020616E642072656C6561736520706CF6
:101A3000616E650D0A000000676F206261636B2CA8
:101A400066696E64207365636F6E64206C696E6591
:101A50002E2E2E0D0A0000001700002066696E640D
:101A6000207468697264206C696E652073746F708D
:101A70002C616776206368616E67652E2E2E0D0AD5
:101A800000000000676F206261636B2C66696E6402
:101A9000207468697264206C696E652E2E2E0D0AA2
:101AA000000000001F000020200000201500002082
:101AB0006669727374206C696E652073746F702C24
:101AC0007069636B20706C616E652E2E2E0D0A009E
:101AD0006669727374206C696E652066696E642E27
:101AE0002E2E0D0A000000007365636F6E64206C7B
:101AF000696E65206E6F742073746F702C676F2031
:101B00006F75742E2E2E0D0A000000007468697225
:101B100064206C696E652073746F702C72656C65DF
:101B200061736520706C616E652E2E2E0D0A0000AB
:101B3000676F206F75742C66696E642074686972B3
:101B400064206C696E652E2E2E0D0A002100002087
:101B5000220000206669727374206C696E652C61C6
:101B600067762073746F7020616E6420636C6F738E
:101B700065207069636B2E2E2E0D0A007365636FEE
:101B80006E64206C696E652C616776207374696C75
:101B90006C20676F206261636B2E2E2E0D0A000091
:101BA0007468697264206C696E652C616776207355
:101BB000746F7020616E64206368617267652C7059
:101BC0006C616E65206973206F7574736964652E2E
:101BD0002E2E0D0A0000000023000020240000200B
:101BE0006669727374206C696E652C616776206912
:101BF00073207374696C6C20676F206F75742E2E60
:101C00002E0D0A0066696E64207365636F6E642032
:101C10006C696E652C726561647920746F206F70D9
:101C2000656E207069636B2E2E2E0D0A0000000079
:101C3000676F206F75742C66696E64207365636FBF
:101C40006E64206C696E652E2E2E0D0A0000000059
:101C500066696E64207468697264206C696E652CB4
:101C6000726561647920746F207069636B20706C99
:101C7000616E652E2E2E0D0A00000000A4000020CB
:101C8000A000002000003442BBA000F06BFB96E0F7
:101C9000C14890F90200012804DDC04890F9020013
:101CA00001281FDCBC4890F9020001280ADCBA4870
:101CB00090F90200B0F1FF3F04DBB84890F9020050
:101CC00001280FDCB54890F9020001281ADCB3485E
:101CD00090F90200B0F1FF3F14DBAF4890F9020029
:101CE00001280FDD46241FED190AB0EE408A4FF09F
:101CF000FF37A9484278A9484178A9A000F032FBF3
:101D00005DE034E1A44890F90200012813DDA34806
:101D100090F90200B0F1FF3F0DDA46249FEDA70ACB
:101D2000B0EE408A00279C4842789C484178A4A0A5
:101D300000F018FB43E0984890F90200B0F1FF3F33
:101D400012DA964890F9020001280DDD46249FED35
:101D5000A30AB0EE408A00278F4842788F48417826
:101D60009FA000F0FFFA2AE0A448408860B9A44888
:101D7000408848B900249FEDA30AB0EE408A0027AE
:101D8000A1A000F0EFFA1AE0012D08D196249C489A
:101D900042889A484188A1A000F0E4FA0AE0022DA6
:101DA00008D16FF095049648428894484188A2A0D3
:101DB00000F0D8FA9FED930AB0EE408A0027012F79
:101DC00042D1A4480480A4480480A4480480A448C4
:101DD00004809FEDA40A28EE000ABDEEC00A10EEB2
:101DE000100A4FF44831FFF732FB40429E49086029
:101DF0009FED9C0A28EE000ABDEEC00A10EE100A04
:101E00004FF44831FFF723FB984908609FED950A8E
:101E100028EE000ABDEEC00A10EE100A4FF4483159
:101E2000FFF715FB4042924908609FED8E0A28EEAD
:101E3000000ABDEEC00A10EE100A4FF44831FFF759
:101E400006FB8C49086092E0781CE0BB604200B25F
:101E500080490880604200B27F490880604200B239
:101E60007E490880604200B27D4908809FED7D0A6E
:101E700028EE000ABDEEC00A10EE100A4FF44831F9
:101E8000FFF7E5FA4042784908609FED760A28EEB0
:101E9000000ABDEEC00A10EE100A4FF44831FFF7F9
:101EA000D6FA724908609FED6F0A28EE000ABDEE6F
:101EB000C00A10EE100A4FF44831FFF7C8FA40424A
:101EC0006B49086000E00EE09FED660A28EE000A0C
:101ED000BDEEC00A10EE100A4FF44831FFF7B7FA12
:101EE0006449086043E0604200B25A490880604299
:101EF00000B25949088059480480594804809FED30
:101F0000590A28EE000ABDEEC00A10EE100A4FF47E
:101F10004831FFF79CFA544908609FED520A28EEB9
:101F2000000ABDEEC00A10EE100A4FF44831FFF768
:101F30008EFA4E4908609FED4B0A28EE000ABDEE6E
:101F4000C00A10EE100A4FF44831FFF780FA4849F2
:101F500008609FED440A28EE000ABDEEC00A10EEAC
:101F6000100A4FF44831FFF772FA42490860BDEC9D
:101F7000028BBDE8F08100007475726E2072696793
:101F8000687420686D63663A256420686D63623A00
:101F900025640D0A00000000A4000020A00000201D
:101FA0007475726E206C65667420686D63663A2580
:101FB0006420686D63623A25640D0A000000B44233
:101FC00072756E20726967687420686D63663A2561
:101FD0006420686D63623A25640D0A000000B4C293
:101FE00072756E206C65667420686D63663A256450
:101FF00020686D63623A25640D0A00009800002095
:102000009C000020000000006D697373206C696EF5
:10201000652C73746F700D0A00000000676F206FED
:10202000757420686D63663A256420686D63623A52
:1020300025640D0A00000000676F206261636B2059
:10204000686D63663A256420686D63623A25640DA5
:102050000A0000006C0000206E00002070000020CC
:1020600072000020CD380E4574000020780000205A
:102070007C0000208000002010B596B004460121AD
:10208000084605F00BFB0121102005F04BFB072251
:102090000921CD4805F047F907220A21CA4805F071
:1020A00042F900208DF8560001208DF857000220DB
:1020B0008DF854000002149002208DF8550014A9E8
:1020C000C14805F0A5F802208DF854004002149094
:1020D00014A9BD4805F09CF8BC4806F06FFA1094AE
:1020E0000020ADF84400ADF84600ADF84800ADF86A
:1020F0004C000C20ADF84A0010A9B44806F0ACFA28
:10210000002240F22551B14806F0E4FB002240F2E3
:102110002661AE4806F0DEFB012240F22441AB48C6
:1021200006F0D8FB0121A94806F01EFB0121880515
:1021300005F0B4FA01224021A44806F0C2FB0122B6
:102140008021A24806F0BDFB25208DF83C0001202F
:102150008DF83D008DF83E008DF83F000FA804F08B
:1021600024F846208DF83C0002208DF83D008DF8C3
:102170003E0001208DF83F000FA804F016F83A2029
:102180008DF83C0000208DF83D0002208DF83E00C7
:1021900001208DF83F000FA804F007F88C4804F0E8
:1021A00067FD4FF0006000908848001D019089484D
:1021B00002900020039080200490002005904FF4AE
:1021C000806006900020079008904FF4807009907E
:1021D0004FF440300A9000200B900C900D900E9020
:1021E00069467B4804F0E6FD0121794804F01CFEB5
:1021F0007748783004F03CFD4FF000600090734861
:10220000001D0190744802904020039080200490AB
:10221000002005904FF48060069000200790089001
:1022200009904FF480300A9000200B900C900D9094
:102230000E9069466648783004F0BCFD012280218A
:10224000624806F03EFB012210216148783004F01C
:1022500078FE00215E48783004F0E6FD16B010BD2F
:1022600002465068081A80B2704770B500240025F5
:1022700040F22551554806F068FB18B1534806F066
:10228000A2FAC4B240F22441504806F05EFB18B3F3
:102290005048FEF744FE4F48FEF75FFE80214C4851
:1022A000FFF7DEFF4D4908800021494804F0BCFDDE
:1022B00000BF474804F005FE0028FAD180214448B9
:1022C00004F0D3FD0121424804F0AEFD3F480088F0
:1022D000C5B23E488088C5B270BD10B5044600BF87
:1022E00020213A4806F01BFB0028F9D0374806F0B9
:1022F0006AFA10BD70B504460D4639480078F0B949
:1023000000213348783004F08FFD00BF304878302A
:1023100004F0D7FD0028F9D1002221462C4878305E
:1023200004F0C0FDA9B22A48783004F09EFD0121D6
:102330002748783004F078FD01202949087070BDE5
:1023400070B505460E46002400BF04E0285D224912
:102350000855601CC4B2B442F8DB31461E48FFF792
:10236000C9FF70BD0FB438B505A800901A48009A8F
:10237000049906F017FD00200090174806F09CFE17
:10238000044621461448FFF7B5FF38BC5DF814FB3E
:1023900010B514490E4804F0F1FD18B111490C486C
:1023A00004F016FE10BD10B50F490948783004F04E
:1023B000E5FD38B100200A4908700B49044878301F
:1023C00004F006FE10BD00000000024000100140B5
:1023D00040640240F0000020700100202A0000202C
:1023E00028000020008020100080002810B504463E
:1023F0006FF0040003F026FFE11704EB5171C1F305
:10240000C701404A11701046007800EB4001C1EB53
:10241000C0104FF6FF7101EAC0003B49088010BDB3
:102420000146384A12784A434FF0E0235A610022AD
:102430009A611A46126942F001021A6100BF4FF018
:10244000E022106900F001021AB100F48032002A83
:10245000F5D04FF0E022126922F001024FF0E023A4
:102460001A6100229A6170470146274A12884A433E
:102470004FF0E0235A6100229A611A46126942F035
:1024800001021A6100BF4FF0E022106900F0010262
:102490001AB100F48032002AF5D04FF0E022126920
:1024A00022F001024FF0E0231A6100229A61704786
:1024B00070B504464FF4077094FBF0F0C6B24FF4C9
:1024C000077094FBF0F100FB114085B205E04FF47A
:1024D0000770FFF7C9FF701EC6B2002EF7D115B105
:1024E0002846FFF7C1FF70BD10B5002107E04AF292
:1024F000104200BF131EA2F10102FBD1491C814210
:10250000F5D310BD2C0000202E00002010B58AB09D
:1025100004460121084605F0C1F80121480605F0EE
:10252000F0F809220C21914804F0FDFE09220B214C
:102530008E4804F0F8FE4FF4C050019002208DF850
:10254000080000208DF80A0003208DF8090001A979
:10255000864804F05DFE14208DF8000001208DF8FF
:10256000010002208DF8020001208DF8030068466A
:1025700003F01BFE15208DF8000001208DF80100EE
:1025800002208DF8020001208DF80300684603F058
:102590000CFE13208DF8000001208DF801008DF84D
:1025A00002008DF80300684603F0FFFD704803F059
:1025B00067FE07A803F088FF00208DF822008DF841
:1025C00023008DF824008DF825008DF826000120C9
:1025D0008DF8270000208DF81E008DF81F000820C0
:1025E0008DF8200003208DF821000620ADF81C0096
:1025F00007A95F4803F05DFE00208DF816008DF8F6
:10260000170001208DF818004FF6FF7000EA441003
:10261000ADF80C000020ADF80E004FF6FF70ADF8DD
:102620001000401EADF812000020ADF8140001208B
:102630008DF8190003A803F0C6FE012202214C48C0
:1026400004F0C0F901221021494804F0BBF901222D
:102650001146474804F0B6F90AB010BD10B5012183
:10266000434804F017FA30B10120424908700121B3
:102670003F4804F0AAFA10BD00B585B002213C48DD
:1026800004F008FA40B10221394804F09EFA6A4683
:102690000021374804F07BF805B000BD00B585B0D7
:1026A0001021334804F0F6F940B11021304804F00D
:1026B0008CFA6A4601212E4804F069F805B000BD85
:1026C000F0B585B006460F461546002400208DF86B
:1026D00008008DF809008DF80A50009600BF05E04B
:1026E000395D0DF10B000155601CC4B2AC42F7DB43
:1026F00001E0601CC4B269461D4803F053FF042882
:1027000001D17F2CF5DB05B0F0BD2DE9F04186B09D
:1027100006460F4615460024A04604208DF80C00FE
:1027200000208DF80D008DF80E50029600BF05E0D8
:10273000395D0DF10F000155601CC4B2AC42F7DBEE
:1027400009E008F1010000F0FF08B8F1050F02DD13
:102750004FF0000805E001A9054803F023FF042815
:10276000EFD000BF06B0BDE8F081000000000240DD
:10277000006400403000002010B58AB004460121FA
:10278000022004F08BFF0121880604F0BAFF092221
:102790000C21FA4804F0C7FD09220D21F74804F086
:1027A000C2FD4FF44050019002208DF80800002037
:1027B0008DF80A0003208DF8090001A9EF4804F004
:1027C00027FD40208DF8000001208DF80100022037
:1027D0008DF8020001208DF80300684603F0E5FC47
:1027E00041208DF8000001208DF8010002208DF8B5
:1027F000020001208DF80300684603F0D6FC3F205C
:102800008DF8000001208DF801008DF802008DF890
:102810000300684603F0C9FCD94803F031FD07A85E
:1028200003F052FE00208DF822008DF823008DF871
:1028300024008DF825008DF8260001208DF8270052
:1028400000208DF81E008DF81F0008208DF8200054
:1028500003208DF821000C20ADF81C0007A9C84802
:1028600003F027FD0E208DF8160000208DF81700CC
:1028700001208DF818004FF6FF7000EA4410ADF803
:102880000C000020ADF80E00ADF81000ADF81200FD
:10289000ADF8140001208DF8190003A803F093FD92
:1028A0000F208DF8160000208DF8170001208DF8FC
:1028B0001800601C4FF6FF7101EA4010ADF80C00E3
:1028C0000020ADF80E00ADF81000ADF81200ADF824
:1028D000140001208DF8190003A803F074FD1020E6
:1028E0008DF8160000208DF8170001208DF81800D3
:1028F000A01C4FF6FF7101EA4010ADF80C0000205B
:10290000ADF80E00ADF81000ADF81200ADF81400EF
:1029100001208DF8190003A803F055FD11208DF852
:10292000160000208DF8170001208DF81800C02037
:10293000ADF80C000020ADF80E00ADF81000ADF8B9
:102940001200ADF8140001208DF8190003A803F05F
:102950003AFD12208DF8160000208DF81700012096
:102960008DF81800E020ADF80C000020ADF80E0046
:10297000ADF81000ADF81200ADF8140001208DF88C
:10298000190003A803F01FFD13208DF81600002086
:102990008DF8170001208DF8180044F22000ADF8E2
:1029A0000C000020ADF80E00ADF81000ADF81200DC
:1029B000ADF8140001208DF8190003A803F003FD01
:1029C000012202216E4803F0FDFF012210216C4814
:1029D00003F0F8FF01221146694803F0F3FF0AB043
:1029E00010BD10B50121664804F054F830B1012142
:1029F000634804F0EAF801206249087010BD10B580
:102A000086B002215E4804F045F8002879D0022102
:102A10005B4804F0DAF801AA0021594803F0B7FE38
:102A2000594C0298A04237D19DF810009DF80F1024
:102A300040EA012000EE100AB8EEC00AF2EE040AE5
:102A400080EE201A514880ED001A9DF814109DF870
:102A5000130041EA002000EE100AB8EEC00AF2EEC0
:102A6000040A80EE201A9FED4A0A31EE400A4748D8
:102A700080ED010A9DF816109DF8150041EA00202E
:102A800000EE100AB8EEC00AF2EE040A80EE201A38
:102A90003E4880ED021A24E0019806280FD19DF8E7
:102AA00010003C4908709DF8110048709DF8111005
:102AB0009DF8100041EA00203649488011E0019855
:102AC00007280ED19DF81000334908709DF81100B9
:102AD00048709DF811109DF8100041EA00202E4921
:102AE000488040F20121019888422CD19DF80F00C6
:102AF0002A49887008468078012803D1022088700E
:102B000007E038E025488078022802D101202349D7
:102B100088709DF810002149C8709DF81100087058
:102B200008460078012802D10220087006E01B4800
:102B30000078022802D10120184908709DF812007F
:102B40001649487016E040F201510198884211D1AF
:102B50009DF80F00114908719DF81000012802D15D
:102B60000220487106E09DF81000022802D10120E1
:102B70000A49487100BF06B010BD000000040240C1
:102B8000006800403100002001409018900E0020A5
:102B900000803B459C00002098000020320000206F
:102BA00000B585B01021414803F074FFE8B1102151
:102BB0003E4804F00AF86A4601213C4803F0E7FD6C
:102BC0000098062807D19DF80C00394908709DF837
:102BD0000D00487009E00098072806D19DF80C0008
:102BE000344908709DF80D00487005B000BD2DE90E
:102BF000F04186B006460F4615460024A046002048
:102C00008DF80C008DF80D008DF80E50019600BF68
:102C100005E0395D0DF10F000155601CC4B2AC42F6
:102C2000F7DB09E008F1010000F0FF08B8F1050F3B
:102C300002DD4FF0000805E001A91C4803F0B2FCDA
:102C40000428EFD000BF06B0BDE8F0812DE9F041C7
:102C500086B006460F4615460024A04604208DF88F
:102C60000C0000208DF80D008DF80E50029600BF6C
:102C700005E0395D0DF10F000155601CC4B2AC4296
:102C8000F7DB09E008F1010000F0FF08B8F1050FDB
:102C900002DD4FF0000805E001A9044803F082FCC2
:102CA0000428EFD000BF06B0BDE8F0810068004006
:102CB0009C000020980000201CB50121022004F097
:102CC000EDFC0121042004F01CFD684604F0E8FA44
:102CD000C020009002208DF8040003208DF805002C
:102CE00001208DF807006946FE4804F091FA02229F
:102CF0000621FC4804F017FB02220721F94804F0E2
:102D000012FB00231A460321F74805F026FC47F67C
:102D1000FF70F549243108600121F34804F032FFC7
:102D20001CBDF149243102680968A1F5FE41FF3953
:102D30001144016047F6FF71EB4A2432116070477D
:102D400010B5EA480068401CE8490860082004F013
:102D5000E8F910BD00B585B00121880304F0E2FC5C
:102D60000121022004F09AFC0820009000208DF838
:102D7000040003208DF8050001208DF80700694646
:102D8000D84804F045FA0321012005F033FE08205D
:102D9000029000208DF80C000C208DF80D00012011
:102DA0008DF80E0002A804F045F909208DF81000F6
:102DB00003208DF8110002208DF8120001208DF8FB
:102DC000130004A803F0F1F905B000BD7FB5054676
:102DD0000C460121082004F094FCC54804F09CFD39
:102DE0000295ADF804400020ADF80C00ADF80600E7
:102DF0008DF80E0001A9BE4804F03BFE0121BC483D
:102E000004F0A2FE0121BA4805F0E8FA01221146B9
:102E1000B74805F0CFFA0121B54804F0B3FE3220DF
:102E20008DF8000000208DF8010001208DF80200CF
:102E30008DF80300684603F0B8F97FBD10B5012195
:102E4000AB4805F0CEFA00286FD0AA480078401CA5
:102E5000A849087008460078192804DD0020087089
:102E60000120A5490870A5480078401CA3490870B6
:102E700008460078102801DD012008709F4800787E
:102E800011281AD2DFE800F090091A2B3C434B526C
:102E9000565C6270767C80868C009948B0F9001090
:102EA000012001F083FC9748B0F900209648B0F962
:102EB000001040F2031001F021FD75E09348B0F9D5
:102EC0000010022001F072FC9148B0F900209148F6
:102ED000B0F900104FF4817001F0F7FC64E08E4807
:102EE000B0F90010032001F061FC8C48B0F900201B
:102EF0008B48B0F9001040F2011001F0CDFC53E016
:102F00008848B0F90010042001F050FC4CE08648DD
:102F10000168052001F0FCFB01F062FD44E08348FC
:102F20000188052001F00EFC3EE042E0052001F0A2
:102F300023FC39E07E480168062001F0E9FB33E01C
:102F40007A480188062001F0FDFB2DE0062001F003
:102F500013FC7248B0F900207148B0F9001040F23B
:102F6000011001F099FC1FE072480168072001F090
:102F7000CFFB19E06D480188072001F0E3FB13E067
:102F8000072001F0F9FB0FE06B480168082001F011
:102F9000BFFB09E065480188082001F0D3FB03E08E
:102FA000082001F0E9FB00BF00BF0121504805F0F7
:102FB00029FA10BD00B589B00121022004F0A1FB5F
:102FC0000121084604F09DFB0020ADF81800ADF883
:102FD0001A004FF6FF7007900020ADF820008DF822
:102FE000220006A9554804F044FD06A94FF0804090
:102FF00004F03FFD0020ADF80400ADF81000ADF87E
:103000000600039001A94FF0804004F0C7FD01A91C
:103010004FF0804004F0FBFD01A9484804F0BEFDDC
:1030200001A9464804F0F3FD01A9444804F03CFE20
:1030300001A9424804F09EFE00214FF0804004F0B8
:103040003AFF00214FF0804004F03EFF00213B4852
:1030500004F031FF0021394804F036FF00213748E1
:1030600004F03FFF0021354804F044FF01218807A8
:1030700004F06AFD0121314804F066FD0221480791
:1030800005F0C0F901220221480705F093F9042157
:10309000080705F0B7F901220421080705F08AF9AD
:1030A0000221264805F0AEF901220221234805F04D
:1030B00081F90421214805F0A5F9012204211F48C6
:1030C00005F078F908211D4805F09CF90122082136
:1030D0001A4805F06FF91021184805F093F90122FC
:1030E00010212DE0000402400008004038000020BC
:1030F000000C00403D0000203C000020400000206B
:103100006C0000208E0000208C0000206E0000204B
:103110008A00002088000020700000208600002027
:103120008400002072000020740000203E00002077
:10313000780000207C000020800000200004004077
:103140006B4805F037F91D208DF8000001208DF83F
:10315000010003208DF8020001208DF8030068466D
:1031600003F023F81C208DF80000684603F01DF8DA
:1031700000214FF0804005F068F907214FF08040B2
:1031800005F0D9F98021C80505F0DEF9302158484D
:1031900005F05BF90721564805F0CDF98021544828
:1031A00005F0D2F90121880704F0ECFC0121504818
:1031B00004F0E8FC09B000BD00B589B00121084663
:1031C00004F0B0FA0121042004F09BFA494804F00D
:1031D000A3FB494804F0A0FB5320ADF818000020E1
:1031E000ADF81A0040F23F6007900020ADF82000D3
:1031F0008DF8220006A9404804F03BFC5320ADF8AE
:1032000018000020ADF81A0040F67F40079000201B
:10321000ADF820008DF8220006A9364804F029FCFC
:1032200001A804F0DFFD6020ADF804000120ADF836
:1032300006000020ADF81000039001A92D4804F00D
:10324000ADFC01A92B4804F0E2FC01A92A4804F0D6
:10325000A5FC01A9284804F0DAFC01A9264804F0DD
:1032600023FD01A9244804F085FD0821214804F02C
:1032700022FE08211F4804F027FE08211E4804F002
:103280001AFE08211C4804F01FFE08211A4804F009
:1032900028FE0821184804F02DFE0121154804F0ED
:1032A00053FC0121144804F04FFC0121114804F0A3
:1032B00069FC0121104804F065FC20210E4805F04E
:1032C00031F980210C4805F03FF92021094805F02B
:1032D00029F98021074805F037F90121054805F053
:1032E00042F80121044805F03EF809B000BD000095
:1032F00000040040000001400008004000B587B015
:1033000001217F4804F0CAF90121480404F0F9F9C9
:10331000072203217B4804F006F8082005900220CC
:103320008DF8180000208DF81A0003208DF8190080
:1033300000208DF81B0005A9724803F069FF724850
:1033400005F03CF9714801900020ADF808004FF4F9
:103350000050ADF80A00C010ADF80C000420ADF824
:103360000E000020ADF8100001A9674805F074F9BF
:10337000012240F22551644805F0ACFA012162486F
:1033800005F0F2F926208DF8000000208DF80100EC
:1033900001208DF802008DF80300684602F005FF59
:1033A00007B000BD5A480078401C594908700846CB
:1033B0000078642804DD64200870002055490870F6
:1033C000704710B540F225514F4805F0BEFA00286D
:1033D0007ED04D4805F0F7F94F4908704F48007806
:1033E00038B9084600780F282AD1FF204B490870C9
:1033F00026E0494800784A494A4A127888544948A0
:103400000078172811D10846C07D022802D008464E
:10341000C07D18B9FF204449087006E000203F49EC
:103420000870414908703F4908703E480078401CC8
:103430003C49087008460078182801DD0020087013
:103440003948007800285AD03548007834494978FE
:1034500040EA0120C0F30A003449088030488078EF
:1034600040012F49497840EAE100C0F30A003049A1
:1034700008802B48807880112949C97840EA81006A
:103480002749097940EA8120C0F30A0029490880C8
:103490002348007940102249497940EAC110C0F31D
:1034A0000A00254908801E48407A00F00F00234991
:1034B00008801B48807900F00F00401C20490880DC
:1034C0001748807A1F49088000201449087000E0DE
:1034D00015E015490870134908701148807D0C28C3
:1034E00003D100200B49087005E00020084908704E
:1034F0000120084908700421134803F010FF10BD93
:10350000010020000000024000440040A0860100AD
:103510004B0000204A0000205600002058000020E8
:10352000F001002057000020590000204200002038
:103530004400002046000020480000204C000020ED
:10354000500000204E0000200010024010B502463E
:10355000002006E0137843400C4CE05C521C4B1EEC
:10356000D9B20029F6DC10BD30B50346002006E0D4
:103570001C784440054D285D5B1C4C1EE1B20029BF
:10358000F6DC80EA0204014D285D30BD00D400085D
:103590001CB50121102004F081F8042000900120C6
:1035A0008DF8040000208DF8060003208DF805003A
:1035B00001208DF8070069461C4803F029FE1CBD58
:1035C0001CB50121082004F069F8C02000900120FA
:1035D0008DF8040000208DF8060003208DF805000A
:1035E00001208DF807006946114803F011FE4021C3
:1035F0000F4803F089FE80210D4803F085FE1CBDB5
:103600001CB50121102004F049F84FF4A05000909F
:1036100000208DF8040003208DF8050001208DF8AE
:1036200007006946014803F0F3FD1CBD001002408D
:10363000000C024000BF704700BFFE4A128802F033
:103640004002002AF9D0C2B2FA4B9A80704710B5F6
:1036500096B004460121880404F053F801210220A9
:1036600004F01CF80121480504F018F807220A218B
:10367000F14803F058FE07220B21EF4803F053FEF8
:1036800014A803F00DFE4FF48060149002208DF812
:10369000540003208DF8550014A9E74803F0B8FD45
:1036A0004FF40060149002208DF8540003208DF830
:1036B000550014A9E04803F0ABFDE04804F07EFF9C
:1036C00010A805F02FF810940020ADF84400ADF8D4
:1036D0004600ADF84800ADF84C000C20ADF84A00AB
:1036E00010A9D64804F0B8FF012240F22441D34883
:1036F00005F0F0F827208DF83C0000208DF83D0003
:1037000001208DF83E008DF83F000FA802F04DFD1E
:103710000121CA4805F028F80C208DF83C00022051
:103720008DF83D008DF83E0001208DF83F000FA878
:1037300002F03BFDC24803F09BFA4FF0006000909E
:10374000BE48001D0190BF480290002003904FF436
:1037500000700490002005904FF4806006900020D7
:10376000079008904FF4807009904FF440300A9011
:1037700000200B900C900D900E906946B04803F01D
:1037800019FB01224021AD4805F09BF80121AC480E
:1037900003F04AFB0E208DF83C0001208DF83D001F
:1037A00002208DF83E0001208DF83F000FA802F0A6
:1037B000FCFCA348303003F05BFA4FF0006000904F
:1037C0009E48001D0190A048029040200390802058
:1037D0000490002005904FF4806006900020079030
:1037E000089009904FF480300A9000200B900C90C4
:1037F0000D900E9069469248303003F0DBFA0122BA
:1038000080218E4805F05DF8012210218C4830306F
:1038100003F097FB00218A48303003F005FB16B017
:1038200010BD02465068081A80B2704770B5002576
:1038300000BF40F22551814805F087F840B17F482C
:1038400004F0C1FFC5B240F225517C4805F0B4F840
:1038500040F22441794805F078F818B37948FDF72B
:103860007CFB4FF400717648FFF7DBFF7749088057
:103870000021734803F0D8FA00BF714803F021FB20
:103880000028FAD1714801886D4803F0EEFA012151
:103890006B4803F0C9FA69480088C4B26748001D44
:1038A0000088C4B270BD70B504460D466848007803
:1038B000F0B900216248303003F0B6FA00BF60482A
:1038C000303003F0FEFA0028F9D1002221465C488E
:1038D000303003F0E7FAA9B25948303003F0C5FAA6
:1038E00001215748303003F09FFA012058490870F1
:1038F00070BD70B505460E46002400BF04E0285D8B
:1039000051490855601CC4B2B442F8DB31464E48F8
:10391000FFF7C9FF70BD10B54E49494803F02EFBB3
:1039200018B14C49464803F053FB10BD0FB438B5ED
:1039300005A800904448009A049905F033FA002045
:103940000090414805F0B8FB044621463E48FFF789
:10395000AAFF38BC5DF814FB10B53F493848303039
:1039600003F00CFB38B10020394908703A4934485B
:10397000303003F02DFB10BD10B596B00446012188
:10398000C80403F0BEFE0121042003F087FE0121DC
:10399000480503F083FE08220A21304803F0C3FCE7
:1039A00008220B212D4803F0BEFC14A803F078FC7C
:1039B0004FF48060149002208DF8540003208DF89D
:1039C000550014A9254803F023FC4FF4006014901F
:1039D00002208DF8540003208DF8550014A91F48CB
:1039E00003F016FC10A804F09DFE10940020ADF822
:1039F0004400ADF84600ADF84800ADF84C000C208E
:103A0000ADF84A0010A9164804F026FE0D208DF8E6
:103A10003C0002208DF83D008DF83E0001208DF81D
:103A20003F000FA802F0C1FB0548183003F020F951
:103A300018E000000010014000040240004800406F
:103A40002860024090020020100200206200002046
:103A5000600000200088001000800018000802406C
:103A6000004C00404FF000600090FE480190FE487E
:103A700002900020039080200490002005904FF4D5
:103A8000806006900020079008904FF480700990A5
:103A900040020A9000200B900C900D900E90694609
:103AA000F24803F087F901224021EE48001F04F09C
:103AB00008FF0121ED4803F0B7F9002240F225513B
:103AC000E848001F04F006FF002240F22661E548A6
:103AD000001F04F0FFFE012240F22441E148001FD4
:103AE00004F0F8FE34208DF83C0002208DF83D00F3
:103AF00003208DF83E0001208DF83F000FA802F052
:103B000054FB0121D748001F04F02EFED748303067
:103B100003F0AEF84FF000600090D2480190D44816
:103B200002904020039080200490002005904FF4E4
:103B30008060069000200790089009904FF4803034
:103B40000A9000200B900C900D900E906946C7488B
:103B5000303003F02FF901228021C248001F04F009
:103B6000B0FE01221021C148303003F0EAF90021F3
:103B7000BE48303003F058F90F208DF83C00022089
:103B80008DF83D008DF83E0001208DF83F000FA814
:103B900002F00BFB16B010BD02465068081A80B246
:103BA000704770B50024002540F22551AD48001F34
:103BB00004F0CBFE50B1AB48001F04F004FEC4B2C9
:103BC00040F22551A748001F04F0F6FE40F22441C0
:103BD000A448001F04F0B9FEF0B18021A348FFF70C
:103BE000DBFFA44908700021A04803F01DF900BFC5
:103BF0009E4803F066F90028FAD180219B4803F023
:103C000034F90121994803F00FF99648001F008804
:103C1000C5B294480088C5B270BD70B504460D4663
:103C200095480078F0B900219048303003F0FCF856
:103C300000BF8E48303003F044F90028F9D100224B
:103C400021468A48303003F02DF9A9B28748303038
:103C500003F00BF901218548303003F0E5F801202D
:103C60008549087070BD70B505460E46002400BF3A
:103C700004E0285D7E490855601CC4B2B442F8DBFC
:103C800031467B48FFF7C9FF70BD10B57B497748C7
:103C9000303003F073F960B100207749087078493B
:103CA0007248303003F039F975497048303003F00C
:103CB0008FF910BD10B573496C4803F05FF948B136
:103CC0004FF08151694803F028F94FF0815167485E
:103CD00003F07EF910BD10B596B004460121042012
:103CE00003F0DCFC0121082003F0D8FC01210805C9
:103CF00003F007FD0121480503F0D0FC0822022152
:103D0000614803F010FB08220C21604803F00BFB14
:103D10000420149002208DF8540003208DF85500E3
:103D200000208DF8560001208DF8570014A9564840
:103D300003F06EFA4FF48050149014A9534803F026
:103D400067FA10940020ADF84400ADF84600ADF8D5
:103D50004800ADF84C000C20ADF84A0010A94C48C2
:103D600004F07AFC0B208DF83C0002208DF83D0019
:103D70008DF83E0001208DF83F000FA802F015FAE3
:103D80003A48303802F074FF4FF00060009040482D
:103D9000001D01903F480290002003908020049075
:103DA000002005904FF48060069000200790089056
:103DB0004FF48070099040020A9000200B900C9004
:103DC0000D900E9069462948303802F0F3FF012229
:103DD00040212F4804F075FD01212448303803F0BC
:103DE00023F8002240F22551294804F073FD0022F7
:103DF00040F22661264804F06DFD012240F2244184
:103E0000234804F067FD35208DF83C0000208DF834
:103E10003D0001208DF83E008DF83F000FA802F014
:103E2000C4F901211A4804F09FFC2F208DF83C00B2
:103E300002208DF83D008DF83E0001208DF83F00F6
:103E40000FA802F0B2F90948783002F011FF4FF0E4
:103E5000006000900E48001D01900F480290402025
:103E600003901BE0044C004010050020406002401D
:103E700090040020640000206500002020800020C5
:103E80002000002000802010000C024000080240AA
:103E90000050004090050020100600208020049073
:103EA000002005904FF48060069000200790089055
:103EB00009904FF480300A9000200B900C900D90E8
:103EC0000E906946F94802F075FF01228021F848FA
:103ED00004F0F7FC01221021F44803F032F800212D
:103EE000F24802F0A1FF16B010BD02465068081A51
:103EF00080B2704770B50024002540F22551EC488F
:103F000004F023FD18B1EA4804F05DFCC4B240F2AD
:103F10002441E74804F019FD10B38021E348A83894
:103F2000FFF7E3FFE34908700021E048A83802F0FA
:103F30007BFF00BFDD48A83802F0C3FF0028F9D19D
:103F40008021DA48A83802F090FF0121D748A8382C
:103F500002F06AFFD6480088C5B2D5488088C5B24D
:103F600070BD10B5D449D14803F008F860B1002005
:103F7000D24908704FF02051CC4802F0CEFF4FF0EC
:103F80002051CA4803F024F810BD70B504460D4610
:103F9000CA480078C8B90021C44802F045FF00BFF4
:103FA000C24802F08EFF0028FAD100222146BF4805
:103FB00002F078FFA9B2BD4802F057FF0121BB48CB
:103FC00002F032FF0120BD49087070BD70B5054692
:103FD0000E46002400BF04E0285DB9490855601C66
:103FE000C4B2B442F8DB3146B548FFF7CEFF70BD2E
:103FF00010B596B004460121202003F093FB012167
:10400000042003F04BFB0121880503F047FB082245
:104010000621AC4803F087F908220721A94803F0DC
:1040200082F914A803F03CF94020149002208DF886
:10403000540003208DF8550014A9A24803F0E8F8B5
:104040008020149002208DF8540003208DF8550034
:1040500014A99C4803F0DCF89B4804F0AFFA10A8C0
:1040600004F060FB10940020ADF84400ADF8460069
:10407000ADF84800ADF84C000C20ADF84A0010A98E
:10408000914804F0E9FA39208DF83C0002208DF8BF
:104090003D008DF83E0001208DF83F000FA802F092
:1040A00084F88A4802F0E4FD4FF0206000908648D2
:1040B000001D019086480290002003904FF480601C
:1040C0000490002005904FF4806006900020079037
:1040D00008904FF48070099040020A9000200B90E5
:1040E0000C900D900E906946784802F063FE012214
:1040F0004021754804F0E5FB0121744802F094FE6C
:10410000002240F22551704804F0E4FB002240F206
:1041100026616D4804F0DEFB012240F224416A482A
:1041200004F0D8FB47208DF83C0001208DF83D00BD
:104130008DF83E008DF83F000FA802F036F80121FF
:10414000614804F011FB45208DF83C0002208DF8F9
:104150003D008DF83E0001208DF83F000FA802F0D1
:1041600024F85A48783002F083FD4FF02060009028
:104170005548001D019057480290402003900001CF
:104180000490002005904FF4806006900020079076
:10419000089009904FF480300A9000200B900C900A
:1041A0000D900E9069464948783002F003FE0122D6
:1041B0008021454804F085FB0122102143487830D6
:1041C00002F0BFFE00214148783002F02DFE16B00B
:1041D00010BD012080F3138800BF00BF00BF00BFE7
:1041E00000BF00BFBFF34F8F00BF00BF00BF3A4802
:1041F000006800F4E06039490843001D3649086052
:1042000000BF00BF00BFBFF34F8F00BF00BF00BFA4
:1042100000BF00BFFDE702465068081A80B2704731
:1042200070B50024002540F22441274804F08DFB9E
:1042300000B34FF480612548FFF7EDFF284908805F
:104240000021224802F0F0FD00BF204802F039FEB4
:104250000028FAD14FF480611C4802F006FE0121CB
:104260001A4802F0E1FD18480088C5B21648001D42
:104270000088C5B240F22551134804F066FB20B116
:1042800040F22551104804F097FB70BD10B5154958
:104290000E4802F073FE38B113490C4802F03DFE9F
:1042A00010490A4802F094FE10BD0000B8600240B8
:1042B00000500040670000200080002866000020B9
:1042C000100600200008024000140140286402404B
:1042D000900A0020900600200CED00E00000FA0596
:1042E00068000020008800100008001010B539494F
:1042F000394802F043FE50B1002038490870354972
:10430000354802F00AFE3349334802F061FE10BD21
:1043100070B504460D4631480078C8B900212E48D2
:1043200002F082FD00BF2C4802F0CBFD0028FAD13C
:1043300000222146284802F0B5FDA9B2264802F025
:1043400094FD0121244802F06FFD012023490870EB
:1043500070BD70B505460E4600244FF480712048AC
:1043600002F0D2FF00BF04E0285D1E490855601C22
:10437000C4B2B442F8DB31461A48FFF7C9FF4FF424
:104380008071174802F0C2FF70BD1CB54FF4E130D8
:10439000FFF72EFE684602F083FF0121042003F0A0
:1043A0007DF94FF48070009001208DF8040000200A
:1043B0008DF8060002208DF8070003208DF8050017
:1043C0006946074802F024FF4FF48071044802F068
:1043D0009DFF1CBD00802020A06402406A000020D8
:1043E00000080240900600207CB505460C46FCA162
:1043F00003C9CDE90001200A8DF80500E0B28DF86F
:104400000400082269462846FEF75AF97CBD7CB5AF
:1044100005460C46F4A103C9CDE90001E0B28DF8D0
:104420000400200A8DF80500200C8DF80600200EEF
:104430008DF80700082269462846FEF741F97CBD41
:104440007CB505460C46EAA103C9CDE900018DF80B
:104450000440052269462846FEF732F97CBD38B58E
:104460000446E5A000680090022269462046FEF757
:1044700027F938BD10B586B00446E0A103C9CDE9DF
:104480000401082204A904F5C060FEF719F90A2006
:10449000FEF70EF8DBA103C9CDE90201082202A94B
:1044A00004F5C060FEF70CF90A20FEF701F8D7A169
:1044B00003C9CDE900010822694604F5C060FEF792
:1044C000FFF80A20FDF7F4FF06B010BD1CB5044646
:1044D000D0A103C9CDE900010822694604F5C060F6
:1044E000FEF7EEF81CBD1CB50446CCA103C9CDE90E
:1044F00000010822694604F5C060FEF7E1F81CBD22
:104500001FB50446BDA003C8CDE90201082202A9D7
:1045100004F5C060FEF7D4F80A20FDF7C9FFB9A181
:1045200003C9CDE900010822694604F5C060FEF721
:10453000C7F80A20FDF7BCFF1FBD1CB50446B9A192
:1045400003C9CDE900010822694604F5C060FEF701
:10455000B7F81CBD10B54FF4FA70FDF7A9FF0520A0
:10456000FFF7EBFF0A20FDF7A3FF0520FFF7AEFFE3
:104570000A20FDF79DFF0520FFF7C2FF0A20FDF787
:1045800097FF0620FFF7D9FF0A20FDF791FF0620CD
:10459000FFF79CFF0A20FDF78BFF0620FFF7B0FF17
:1045A0000A20FDF785FF0720FFF7C7FF0A20FDF768
:1045B0007FFF0720FFF78AFF0A20FDF779FF07201A
:1045C000FFF79EFF0A20FDF773FF0820FFF7B5FFF6
:1045D0000A20FDF76DFF0820FFF778FF0A20FDF79E
:1045E00067FF0820FFF78CFF0A20FDF761FF01201D
:1045F000FFF779FF0A20FDF75BFF0120FFF766FF59
:104600000A20FDF755FF0120FFF734FF0A20FDF7D0
:104610004FFF0220FFF767FF0A20FDF749FF022046
:10462000FFF754FF0A20FDF743FF0220FFF722FFA8
:104630000A20FDF73DFF0320FFF755FF0A20FDF795
:1046400037FF0320FFF742FF0A20FDF731FF032069
:10465000FFF710FF0A20FDF72BFF0420FFF743FFB1
:104660000A20FDF725FF0420FFF730FF0A20FDF7A1
:104670001FFF0420FFF7FEFE0A20FDF719FF10BD03
:104680002DE9F04104460F4615461E4621460120FD
:10469000FFF7AAFE0A20FDF70BFF39460220FFF7BD
:1046A000A3FE0A20FDF704FF29460320FFF79CFE26
:1046B0000A20FDF7FDFE31460420FFF795FE0A2093
:1046C000FDF7F6FEBDE8F0812DE9F04104460F4606
:1046D00015461E4621460520FFF799FE0A20FDF7E4
:1046E000E7FE39460620FFF792FE0A20FDF7E0FEBE
:1046F00029460720FFF78BFE0A20FDF7D9FE314639
:104700000820FFF784FE0A20FDF7D2FEBDE8F08105
:104710007CB505460C4645A103C9CDE90001E0B2D0
:104720008DF80400200A8DF80500200C8DF8060095
:10473000200E8DF807000822694605F5C060FDF7D8
:10474000BFFF7CBD7CB505460C463AA103C9CDE947
:104750000001E0B28DF80400200A8DF80500200C5D
:104760008DF80600200E8DF807000822694605F531
:10477000C060FDF7A5FF7CBD1CB504462FA103C991
:10478000CDE900010822694604F5C060FDF798FFF5
:104790001CBD1CB504462BA103C9CDE900010822AC
:1047A000694604F5C060FDF78BFF1CBD7CB505466E
:1047B0000C4626A103C9CDE90001E0B28DF8040042
:1047C000200A8DF80500200C8DF80600200E8DF8CB
:1047D00007000822694605F5C060FDF771FF7CBD42
:1047E000FF06020100000000FF06160200000000A4
:1047F000FF06000100000000FF1000002B406001D8
:10480000060000002B406001070000002B40600103
:104810000F0000002B406001800000002F6060014D
:10482000030000002F60600101000000237A600196
:104830000000000023816001000000002B406001A7
:104840003F000000404160010000000023FF6001C4
:104850000000000000200849088008490880084935
:104860000880084908800849086008490860084924
:1048700008600849086070476C0000206E00002046
:1048800070000020720000207400002078000020DA
:104890007C000020800000207CB506460C461546B2
:1048A000002000900190200A8DF80000E0B28DF801
:1048B0000100280A8DF80200E8B28DF803000822F2
:1048C00069463046FEF793F97CBD7CB506460C463A
:1048D0001546002000900190200A8DF80000E0B2FB
:1048E0008DF80100280A8DF80200E8B28DF8030067
:1048F000082269463046FEF77AF97CBD7CB506464B
:104900000C461546002000900190200A8DF800000A
:10491000E0B28DF80100280A8DF80200E8B28DF8A7
:104920000300082269463046FEF761F97CBD00208D
:10493000254908802549088025490880254908809F
:1049400025490880254908807047C82022490880E9
:1049500040422249088070476FF0C7001E49088016
:10496000C8201E490880704700201B4908801B4949
:10497000088070476FF0C70015490880C8201549A6
:1049800008807047C82012490880404211490880B9
:10499000704700200E4908800E49088070474FF488
:1049A000C870094908800949088070474FF670604F
:1049B00005490880054908807047002002490880A1
:1049C0000249088070470000840000208600002013
:1049D000880000208A0000208C0000208E0000202B
:1049E00010B5034C082203492046FEF72FF910BDED
:1049F00040019018900000202DE9F04186B0064655
:104A00000D460024142101A804F075FB0027A046E0
:104A10004EF2871030404EF28711884201D10120BA
:104A2000E870012411E006F4004028B1012001A93A
:104A3000085527B9274602E0002001A908554FF67E
:104A4000FF7000EA4606601CC4B2112CEBDB3C464A
:104A500006E001A8005D08B9A04603E0601CC4B2EE
:104A6000112CF6DB00BFA8EB070000EBD07107EBC1
:104A70006101697068782978401A40B2A87006B060
:104A8000BDE8F0810246134610E010782A2805D0D0
:104A90001078202802DB10787A2801DDFF2070478B
:104AA00010782C2801D1481EC1B2521C0029ECD12B
:104AB000D01AC0B2F3E710B50246012000E050431F
:104AC0000B1EA1F10104E1B2F9D110BD2DE9F34FA4
:104AD00081B007463C460020009083468146002670
:104AE000804628E020782D2802D148F00208641C76
:104AF00020782C2802D020782A2800D11CE02078A9
:104B00002E2803D148F00108641C09E020783928D8
:104B100002DC2078302803DA4FF0000900260BE091
:104B200008F0010010B1701CC6B203E009F10100E9
:104B300000F0FF09641CD5E700BF08F0020000B1D7
:104B40007F1C00250EE0A9F10100401BC1B20A2024
:104B5000FFF7B1FF795D3039009A00FB012000902A
:104B6000681CC5B24D45EEDB052E00DD052602981A
:104B7000067000250EE0701E401BC1B20A20FFF730
:104B80009AFF09F101012944795C303900FB01BB2E
:104B9000681CC5B2B542EEDB31460A20FFF78BFF39
:104BA000009901FB00BA08F0020008B1CAF1000A3E
:104BB0005046BDE8FE8F2DE9FC5F07468A464FF060
:104BC0000008CDF804A0FDA1019804F063FA0646A0
:104BD000F079303800F0FF0B03213046FFF752FF29
:104BE0000546FF2D04D070196946FFF76FFF387036
:104BF0004FF000096CE0F1A1019804F04BFA064671
:104C000000245CE0042000EB8400C1B23046FFF7D2
:104C100039FF0546FF2D09D070196946FFF756FF89
:104C2000C1B208EB8802F81C815400E049E005207D
:104C300000EB8400C1B23046FFF724FF0546FF2D8C
:104C40000AD070196946FFF741FFC1B208EB88022C
:104C5000F81C1044417000E033E0062000EB8400B3
:104C6000C1B23046FFF70EFF0546FF2D0AD070197E
:104C70006946FFF72BFF81B208EB8802F81C10444D
:104C8000418000E01DE0072000EB8400C1B2304607
:104C9000FFF7F8FE0546FF2D0AD070196946FFF7A9
:104CA00015FFC1B208EB8802F81C1044017100E046
:104CB00007E008F1010000F0FF08601CC4B2042CFA
:104CC000A0DB00BF701C019009F1010000F0FF099A
:104CD000D94590DBBDE8FC9F2DE9FC5F07468A467D
:104CE0004FF00008CDF804A0B6A1019804F0D2F965
:104CF0000646F079303800F0FF0B03213046FFF70D
:104D0000C1FE0546FF2D04D070196946FFF7DEFE8F
:104D100078704FF0000970E0AAA1019804F0BAF988
:104D20000646002460E0042000EB8400C1B2304657
:104D3000FFF7A8FE0546FF2D0AD070196946FFF758
:104D4000C5FEC1B208EB880207F13F00815400E0C4
:104D50004CE0052000EB8400C1B23046FFF792FE24
:104D60000546FF2D0BD070196946FFF7AFFEC1B2A3
:104D700008EB880207F13F001044417000E035E085
:104D8000062000EB8400C1B23046FFF77BFE0546EB
:104D9000FF2D0BD070196946FFF798FE81B208EB22
:104DA000880207F13F001044418000E01EE0072028
:104DB00000EB8400C1B23046FFF764FE0546FF2DCC
:104DC0000BD070196946FFF781FEC1B208EB88026B
:104DD00007F13F001044017100E007E008F1010015
:104DE00000F0FF08601CC4B2042C9CDB00BF701CE8
:104DF000019009F1010000F0FF09D9458CDBBDE805
:104E0000FC9F2DE9FC5F07468A464FF00008CDF86D
:104E100004A06EA1019804F03DF90646F0793038FF
:104E200000F0FF0B03213046FFF72CFE0546FF2D57
:104E300004D070196946FFF749FEB8704FF00009B9
:104E400070E062A1019804F025F90646002460E0B4
:104E5000042000EB8400C1B23046FFF713FE054684
:104E6000FF2D0AD070196946FFF730FEC1B208EB7A
:104E7000880207F17B00815400E04CE0052000EB44
:104E80008400C1B23046FFF7FDFD0546FF2D0BD073
:104E900070196946FFF71AFEC1B208EB880207F1E4
:104EA0007B001044417000E035E0062000EB8400F8
:104EB000C1B23046FFF7E6FD0546FF2D0BD0701955
:104EC0006946FFF703FE81B208EB880207F17B0019
:104ED0001044418000E01EE0072000EB8400C1B2D6
:104EE0003046FFF7CFFD0546FF2D0BD07019694600
:104EF000FFF7ECFDC1B208EB880207F17B0010441C
:104F0000017100E007E008F1010000F0FF08601CFB
:104F1000C4B2042C9CDB00BF701C019009F101009D
:104F200000F0FF09D9458CDBBDE8FC9FF8B50546CC
:104F30000F4628A1384604F0ADF806460621304653
:104F4000FFF7A0FD0446FF2C05D030196946FFF796
:104F5000BDFD85F8C80007213046FFF793FD0446E4
:104F6000FF2C05D030196946FFF7B0FD85F8C90060
:104F700009213046FFF786FD0446FF2C05D0301985
:104F80006946FFF7A3FDC5F8DD00F8BD2DE9F8433C
:104F90000546884611A1404604F07CF806460221E9
:104FA0003046FFF76FFD0446FF2C05D030196946E7
:104FB000FFF78CFD85F8D600002727E024475047EF
:104FC0005356000024474C475356000024424447A0
:104FD0005356000024474E474741000024474E47A0
:104FE00053410000F81CC1B23046FFF74BFD0446A8
:104FF000FF2C08D030196946FFF768FDC1B205F1F2
:10500000CA00C15500E003E0781CC7B20C2FE9DBF1
:1050100000BF0F213046FFF735FD0446FF2C05D0B9
:1050200030196946FFF752FDA5F8D7001021304628
:10503000FFF728FD0446FF2C05D030196946FFF71D
:1050400045FDA5F8D90011213046FFF71BFD0446A8
:10505000FF2C05D030196946FFF738FDA5F8DB00B5
:10506000BDE8F8832DE9F0432DED028B81B00646B3
:105070008846FEA1404604F00DF807460121384657
:10508000FFF700FD0446FF2C23D038196946FFF7CF
:105090001DFD81469DF800100A20FFF70CFDB9FBAD
:1050A000F0F542F21070B5FBF0F0C1B2BB208155B3
:1050B0006420B5FBF0F06421B0FBF1F201FB1201BA
:1050C000BC2081556420B5FBF0F100FB1151BD20DF
:1050D000815503213846FFF7D5FC0446FF2C42D00A
:1050E00038196946FFF7F2FC05469DF80000801C60
:1050F000C1B20A20FFF7DFFCB5FBF0F046F8BE0FA7
:105100009DF80000801CC1B20A20FFF7D4FCB5FB5B
:10511000F0F100FB115000EE100AB8EE408A0721B2
:105120000A20FFF7C8FC3168484300EE100AF8EE89
:10513000400A9DF80000C0F10700C1B20A20FFF745
:10514000BAFC00EE100AB8EE400A20EE080A9FED05
:10515000C91AC0EE011A30EEA10ABCEEC00A10EE68
:10516000100A46F8BE0904213846FFF78BFC0446B6
:10517000FF2C02D0385D86F8C20005213846FFF7C3
:1051800081FC0446FF2C44D038196946FFF79EFC89
:1051900005469DF80000801CC1B20A20FFF78BFC79
:1051A000B5FBF0F046F8C30F9DF80000801CC1B2BB
:1051B0000A20FFF780FCB5FBF0F100FB115000EE78
:1051C000100AB8EE400AB0EE408A07210A20FFF725
:1051D00072FC3168484300EE100AF8EE400A9DF870
:1051E0000000C0F10700C1B20A20FFF764FC00EE26
:1051F000100AB8EE400A20EE080A9FED9E1AC0EE93
:10520000011A30EEA10ABCEEC00A10EE100A46F8F0
:10521000C30906213846FFF735FC0446FF2C02D0AF
:10522000385D86F8C7000C213846FFF72BFC044692
:10523000FF2C33D03D5D412D06D141208E490870B1
:1052400001208E49487629E0442D06D144208A4920
:10525000087002208949487620E0462D06D1462074
:105260008549087003208549487617E0522D06D1FC
:105270005220814908700420804948760EE04E2D66
:1052800006D14E207C49087005207C49487605E00F
:105290000A2079490870002078494876FF2C04D00C
:1052A00038196946FFF712FC054609213846FFF711
:1052B000E9FB0446FF2C1ED038196946FFF706FCAF
:1052C000054642F21070B5FBF0F0C1B2BA2081552C
:1052D0006420B5FBF0F06421B0FBF1F201FB120198
:1052E000B92081556420B5FBF0F100FB115000F5A9
:1052F000FA60A6F8B70001B0BDEC028BBDE8F08300
:10530000F8B504460D465EA1284603F0C3FE0646E6
:1053100007213046FFF7B6FB0746FF2F16D0F019DE
:105320006946FFF7D3FBA4F8E1009DF800000328CD
:105330000CDA9DF80000C0F10300C1B20A20FFF7AB
:10534000BAFBB4F8E1104843A4F8E100F8BD70B529
:1053500004460D4629462046FFF72DFC29462046E7
:10536000FFF74FFD29462046FFF7E0FD294620467E
:10537000FFF70CFE29462046FFF774FE294620461B
:10538000FFF7BEFF70BD10B52DED048B82B03E4817
:10539000D0F8C30000EE100AB8EE400AB0EE408A22
:1053A0009FED3A0AC8EE000AB0EE608A10EE904A0D
:1053B000204607F0F7FE41EC190B334890F8C70080
:1053C00053EC192B32A10090374803F0FDFC2E4816
:1053D000D0F8BE0000EE100AB8EE400AB0EE408AE7
:1053E0009FED2A0AC8EE000AB0EE608A10EE904ADD
:1053F000204607F0D7FE41EC190B234890F8C20075
:1054000053EC192B29A10090274803F0DDFC1E481E
:10541000D0F8DD0000EE100AB8EEC00AB0EE408A07
:10542000B2EE040AC8EE000AB0EE608A10EE904AAE
:10543000204607F0B7FE41EC190B53EC192B21A1C4
:10544000194803F0C1FC1048B0F8E10000EE100A62
:10545000B8EE400AB0EE408A9FED1F0AC8EE000A7F
:10546000B0EE608A10EE904A204637E0474E524D2B
:105470004300000000007042A8000020B60F00208A
:1054800024474E5654470000A00E00200050C3474A
:105490004C6F6E6769747564653A252E35662025F4
:1054A0003163202020000000840F00204C617469CB
:1054B000747564653A252E356620253163202020D9
:1054C00000000000416C7469747564653A252E31E2
:1054D000666D20202020200000007A4407F062FE44
:1054E00041EC190B53EC192BF6A1FB4803F06CFCB3
:1054F000FA4890F8C920FAA1F74803F065FCF7488C
:105500000078642190FBF1F201FB12042246FBA11A
:10551000F14803F059FCF1488078642190FBF1F2E6
:1055200001FB12042246FCA1EB4803F04DFCEB48C2
:1055300090F8BA000090E94890F8B930B0F8B72078
:10554000FCA1E54803F040FCE44890F8BD00009061
:10555000E24890F8BC3090F8BB20FDA1DE4803F093
:1055600033FC02B0BDEC048B10BD10B52DED048BE7
:1055700086B0DA48D0F8C30000EE100AB8EE400A50
:10558000DFEDFA0A80EE201A11EE104A204607F0ED
:1055900009FE41EC180BD148D0F8BE0000EE100A0D
:1055A000B8EE400ADFEDF10A80EE201A11EE104A43
:1055B000204607F0F7FD41EC190B9FEDED0B53EC86
:1055C000102B51EC180B07F0F5FB28D29FEDEA0BDE
:1055D00053EC102B51EC180B07F00AFA1FD29FED79
:1055E000E80B53EC102B51EC190B07F0E3FB16D230
:1055F0009FEDE50B53EC102B51EC190B07F0F8F96C
:105600000DD2E34A18EE100A18EE901A106051609D
:10561000083219EE101A19EE900A11605060AF4866
:10562000B0F8E10000EE100AF8EE400A9FEDD91A3A
:1056300080EE810A10EE100AD549C91EC1F8130088
:10564000A6480078642190FBF1F201FB1200D049DA
:10565000C91EC875A14890F8BB00083008709F4863
:1056600090F8BC0048709D4890F8BD0088709B4839
:1056700090F8D6000876084680784978C44AD21E49
:105680001278C34BDB1EDB7DCDE90232CDE904107D
:10569000BF49083108684968BD4ACDE90001106872
:1056A000536843EC100BD01E017E53EC102BBA480C
:1056B000FCF758FE06B0BDEC048B10BD70B5B748C2
:1056C000008800F40040E8B1B4480088C0F30E053B
:1056D000002405E0B248005DB2490855601C84B260
:1056E000AC42F7DB0020AD490880AE4908557B4845
:1056F000FFF72DFEFFF739FF0120AB4908700020AE
:10570000AA490870002070BD10B52DED048BB0EED5
:10571000408AF0EE608A9FEDA60B53EC102B51EC03
:10572000180B07F0A1F941EC190B9FEDA30B53ECFB
:10573000102B06F0ABFF41EC100BBDEC048B10BD41
:1057400010B52DED048BB0EE408AF0EE608A9FED2F
:10575000980B53EC102B51EC180B07F085F941EC2A
:10576000190B9FED950B53EC102B06F08FFF41ECBE
:10577000100BBDEC048B10BD10B52DED048BB0EEFD
:10578000408AF0EE608A9FED8C0B53EC102B51ECAD
:10579000180B07F069F941EC190B9FED850B53ECE1
:1057A000102B06F073FF41EC100BBDEC048B10BD09
:1057B00010B52DED068BB0EE408AF0EE608AB0EEAB
:1057C000480AF0EE680AFFF7D7FFB0EE40AAF0EE05
:1057D00060AA9FED7B0B53EC102B51EC1A0B06F0DB
:1057E00099FE41EC190B9FED761BB0EE490AF0EEE5
:1057F000690A05F071FAB0EE40AAF0EE60AA51EC29
:105800001A0B07F09BF8BDEC068B10BD00B52DED13
:10581000108B99B0B0EE40AAF0EE60AAB0EE418ACB
:10582000F0EE618AB0EE42BAF0EE62BAB0EE439AA0
:10583000F0EE639A9FED640B8DED120B9FED640B00
:1058400053EC102B51EC180B07F00EF941EC180B30
:105850009FED5F0B53EC102B51EC190B07F004F983
:1058600041EC190B53EC192B51EC180B07F0B0FB62
:10587000CDE9160153EC1B2B51EC1A0B07F0A8FBDA
:1058800041EC1E0B9FED520B53EC102B07F0ECF884
:10589000CDE914019FED500B53EC102B9DED160B31
:1058A00051EC100B06F0F2FE41EC1E0BB0EE4E0A6E
:1058B000F0EE6E0A06F0BCF8B0EE40CAF0EE60CA38
:1058C0008EE0000053706565643A252E33666B6D7B
:1058D0002F68202020202000840F0020A00E002010
:1058E0004750532B42442056616C696420736174A5
:1058F000656C6C6974653A253032640047505320FA
:1059000056697369626C6520736174656C6C697447
:10591000653A25303264000042442056697369625A
:105920006C6520736174656C6C6974653A253032FE
:105930006400000055544320446174653A253034B6
:10594000642F253032642F2530326420202000005F
:105950005554432054696D653A253032643A2530F8
:1059600032643A2530326420202000008096184BA3
:1059700000000000008056400000000000C06240AF
:1059800000000000000014400000000000805140B2
:10599000B90F0020000061454CD80008AA00002083
:1059A00010050020D00F0020AC000020AE00002029
:1059B00000000040FB21094000000000008066401C
:1059C000000000000080764000000040A6545841CE
:1059D0004DC9077746DF913F0000000000000040FE
:1059E0001FED030B53EC102B9DED140B51EC100B22
:1059F00006F04CFE41EC1E0BB0EE4E0AF0EE6E0AC5
:105A000006F016F8B0EE40DAF0EE60DAB0EE490AD1
:105A1000F0EE690A05F0FCF8B0EE40FAF0EE60FA3C
:105A2000B0EE480AF0EE680A05F0F2F88DED000BD2
:105A300053EC1F2B9DED000B51EC100B07F014F8ED
:105A400053EC1D2BCDE902019DED020B51EC100B27
:105A500007F00AF853EC1D2BCDE904019DED040B72
:105A600051EC100B07F000F853EC1C2BCDE90801AA
:105A700051EC1C0B06F0F8FFCDE906019DED080B7B
:105A800053EC102B9DED060B51EC100B06F042FD74
:105A9000CDE90A019DED0A0B06F02EF88DED0C0BF9
:105AA0009DED0C0B05F0C4FFB0EE40EAF0EE60EAAD
:105AB0009DED120B53EC102B1FED390B51EC100B1D
:105AC00006F0D2FF53EC1E2BCDE90E019DED0E0B1F
:105AD00051EC100B06F0C8FFCDE910019DED100B45
