:020000040800F2
:10000000281F0020556200089D0E00089F0E000862
:10001000AF0E0008B30E0008B70E00080000000085
:1000200000000000000000000000000067620008FF
:10003000BB0E0008000000006B6200086D62000843
:100040006F6200086F6200086F6200086F6200084C
:100050006F6200086F6200086F6200086F6200083C
:100060006F620008C51A00086F6200086F6200081E
:1000700097260008972A0008DD2600086D2A000848
:100080006F6200086F6200086F620008A514000824
:10009000C1140008E51400086F6200086F620008D0
:1000A0006F6200086F6200086F6200086F620008EC
:1000B0006F6200086F6200086F6200086F620008DC
:1000C0006F6200086F6200086F6200086F620008CC
:1000D0006F620008BF100008F72100085D250008C6
:1000E0006F6200086F6200086F6200086F620008AC
:1000F0006F6200086F6200086F6200084D2D0008F3
:100100006F6200086F620008A91C00086F62000897
:1001100021290008D52C00086F6200086F620008D2
:100120006F620008BD300008D91100086F62000836
:100130006F6200086F6200086F620008F71700081E
:1001400013180008FD1800086F6200086F620008AD
:100150006F620008DB300008EF1100080B30000868
:100160006F6200086F6200086F6200086F6200082B
:100170006F6200086F6200086F6200086F6200081B
:100180006F6200086F62000800F002F800F092F859
:100190000AA090E8000C82448344AAF10107DA45E2
:1001A00001D100F087F8AFF2090EBAE80F0013F0A2
:1001B000010F18BFFB1A43F001031847C07D000070
:1001C000E07D0000103A24BF78C878C1FAD8520701
:1001D00024BF30C830C144BF04680C6070470000C1
:1001E0000023002400250026103A28BF78C1FBD840
:1001F000520728BF30C148BF0B6070476E2906F018
:100200001F81702906F06182662907F0348665290E
:1002100007F03186672907F02E86612907F02D86C1
:1002200003681B0A28BF41F08001692906F0CC80D1
:10023000642906F0C980752906F0C6806F2906F08A
:10024000EE81782906F02D82E92906F08981E429DA
:1002500006F08681F52906F08381EF2906F0EB810F
:10026000F82906F02C820368DB0928BF41F08001E1
:10027000632906F02F87732906F03487E32906F0F7
:100280003F87F32906F04487002070471FB507F029
:10029000EDFD06F08FFF04000020002107F08CFC2C
:1002A000401C60600020002107F070FCE0601FBD72
:1002B00010B510BD06F050FF1146FFF7E7FF00F044
:1002C000B3FD07F02DF803B4FFF7F2FF03BC02F013
:1002D0008BF8000010B54FF4A06003F051FAA8208D
:1002E00000F0A8FF02F044F802F05AF84FF4E130B1
:1002F00000F0ECFD01F002FF4FF47A7000F0FCFF1B
:10030000012001F027F840F2015001F05BF9642070
:1003100000F0F2FF532140F2CF7001F08DFCFDA000
:1003200000F044FF10BD884201DD084603E04A4268
:10033000904200DA484270472DE9F05F0026002520
:1003400000240027A046A146A246A346F64800780E
:10035000002872D0F54800880D286ED1F448008836
:10036000A0F57A7005B2F3480088A0F57A7004B25F
:10037000F1480088A0F57A7007B2002C01DD204614
:1003800000E06042B0F5967F7CDD002D01DD28465F
:1003900000E06842B0F5967FF6DDE84890ED000A8F
:1003A000E74880ED000AB4F5967F21DD15F5967FCC
:1003B0001EDA9FEDE40AE14880ED000A002C01DD21
:1003C000204600E06042002D01DD294600E0694240
:1003D0000844404200EE100AB8EEC00ADFEDDA0A27
:1003E00020EE200ABDEEC00A10EE100A06B2C2E0EE
:1003F00014F5967F22DA15F5967F1FDA9FEDD30A62
:10040000CE4880ED000A002C01DD204600E060426D
:10041000002D01DD294600E069420844404200EE1B
:10042000100AB8EEC00ADFEDC80A20EE200ABDEEC1
:10043000C00A10EE100A06B29DE07FE214F5967F26
:1004400021DAB5F5967F1EDD9FEDBE0ABB4880ED33
:10045000000A002C01DD204600E06042002D01DD95
:10046000294600E06942084400EE100AB8EEC00ACE
:10047000DFEDB50A20EE200ABDEEC00A10EE100A2C
:1004800006B278E023E0B4F5967F74DDB5F5967F8B
:1004900071DD9FEDAE0AA94880ED000A002C01DD58
:1004A000204600E06042002D01DD294600E069425F
:1004B000084400EE100AB8EEC00ADFEDA30A20EEF1
:1004C000200ABDEEC00A10EE100A06B253E0002C5E
:1004D00001DD204600E06042B0F5967F26DD002D6C
:1004E00001DD284600E06842B0F5967F1EDA9348A9
:1004F00090ED000A924880ED000AB4F5967F08DD81
:100500009FED930A8D4880ED000AA4F5967006B21F
:1005100031E014F5967F2EDA9FED8E0A874880ED44
:10052000000A04F59670404206B224E0002C01DD7A
:10053000204600E06042B0F5967F1CDA002D01DD18
:10054000284600E06842B0F5967F14DD7B4890EDC8
:10055000000A7B4880ED000A9FED7F0A774880ED16
:10056000000AB5F5967F03DDA5F5967006B202E0A8
:1005700005F5967006B2002F01DD384600E078429E
:10058000B0F5967F7DDDB7F5967F03DDA7F5967014
:1005900006B202E007F5967006B2684890ED000AD0
:1005A000674880ED000A9FED690A644880ED000A03
:1005B000634890ED000A6148D0ED000A30EE600A11
:1005C000B5EEC00AF1EE10FA08DD5D4890ED000AC4
:1005D0005A48D0ED000A30EE600A09E0584890ED24
:1005E000000A5648D0ED000A30EE600AB1EE400A2B
:1005F000F3EE040AB4EEE00AF1EE10FA02DD3C205C
:100600005649088055480088401E00B2534908806A
:100610000846B0F90000002844DC0020088006EB02
:10062000460000B24E49088006EB460000B24D4934
:10063000088006EB460000B24B49088006EB4600F6
:1006400000B24A4908803D4890ED000AB1EE400AE8
:10065000DFED470A20EE200ABDEEC00A10EE108A38
:1006600090ED000ADFED420A20EE200ABDEEC00A3E
:1006700010EE109A90ED000AB1EE400ADFED3C0A50
:1006800000E010E020EE200ABDEEC00A10EE10AA35
:1006900090ED000ADFED360A20EE200ABDEEC00A1A
:1006A00010EE10BA29E1002C01DD204600E0604286
:1006B000B0F5967F7CDA002D01DD284600E0684227
:1006C000B0F5967F74DA9FED240A1C4880ED000A8D
:1006D0000026704200EB800021490880704200EB48
:1006E00080002049088006EB86001F49088006EB41
:1006F00086001E490880114890ED000ADFED1C0AB3
:1007000020EE200ABDEEC00A10EE108A90ED000A1D
:1007100030E0000073797320696E69742066696E39
:10072000697368210D0A00003C0000204E00002083
:100730002A000020280000202E00002004000020B5
:1007400008000020000034C29A99193F000034428A
:100750000000B4420000B4C200000000020000200B
:100760009400002096000020980000209A000020AD
:10077000CD380E455FED020A20EE200ABDEEC00A1C
:1007800010EE109A90ED000A5FED070A20EE200AA5
:10079000BDEEC00A10EE10AA90ED000A5FED0C0A43
:1007A00020EE200ABDEEC00A10EE10BAA5E0FFE769
:1007B000F94890ED000AF948D0ED000A30EE600AE1
:1007C000B5EEC00AF1EE10FA08DDF34890ED000A2C
:1007D000F248D0ED000A30EE600A09E0EE4890EDF4
:1007E000000AEE48D0ED000A30EE600AB1EE400A91
:1007F000DFEDEB0AB4EEE00AF1EE10FA03DD7D2046
:10080000E849088029E0E44890ED000AE348D0ED8B
:10081000000A30EE600AB5EEC00AF1EE10FA08DD0B
:10082000DD4890ED000ADD48D0ED000A30EE600AA8
:1008300009E0D94890ED000AD848D0ED000A30EE22
:10084000600AB1EE400AF3EE0E0AB4EEE00AF1EEF1
:1008500010FA02DD4120D3490880D2480088401EAA
:1008600000B2D04908800846B0F9000000281BDC1F
:1008700000200880704200EB4000400000B2CA49EE
:100880000880704200EB4000400000B2C749088079
:1008900006EB4600400000B2C549088006EB460062
:1008A000400000B2C3490880BC4890ED000A5FEDEB
:1008B000500A20EE200ABDEEC00A10EE108A90ED1C
:1008C000000A5FED550A20EE200ABDEEC00A10EEC8
:1008D000109A90ED000A5FED5A0A20EE200ABDEE54
:1008E000C00A10EE10AA90ED000A5FED5F0A20EE3C
:1008F000200ABDEEC00A10EE10BA4FF4483140464F
:10090000FFF711FDAC4908604FF448314846FFF746
:100910000AFDAA4908604FF448315046FFF703FD2D
:10092000A74908604FF448315846FFF7FCFCA54939
:10093000086002F0FEFE0020A3490870BDE8F09FA9
:1009400000B585B0A1480078401CA0490870084651
:10095000007864281BDD9E4840789D4909789D4AAF
:1009600052789C4B1B78CDE90132CDE903109248B7
:10097000006800908C48B0F900309748028897488A
:10098000018897A000F012FC00209049087005B083
:1009900000BD70B50024002500268B480078002893
:1009A00069D09F480088012865D19E480088A0F53D
:1009B0007A7006B288480088A0F57A7005B2874838
:1009C0000088A0F57A7004B2B4F5967F06DD642045
:1009D000954908804042954908800FE014F5967FBC
:1009E00007DA6FF063009049088064208F4908801F
:1009F00004E000208C4908808C490880B5F5967F7A
:100A000007DD6FF077008A490880642089490880F3
:100A10000FE015F5967F07DA7820854908806FF09A
:100A200063008449088004E00020814908808149EE
:100A30000880B6F5967F08DD4FF487707E49088000
:100A40004FF496707D49088010E016F5967F08DA1D
:100A50006FF4A770784908804FF6E86077490880FE
:100A600004E00020744908807449088002F0F4FD15
:100A700000205549087070BD70B52DED028B002423
:100A80001FEDCB0AB0EE408A00254F4800780028C1
:100A900072D0634800880F286ED169480088401CD6
:100AA00067490880084600883C2865DD00200880EA
:100AB00047484088B0F5F06F0BDB46484088B0F5FA
:100AC000F06F06DB46241FEDDF0AB0EE408A0125F9
:100AD000CCE03F484088B0F5707F0CDC3D48408852
:100AE000B0F5707F07DC46241FEDE80AB0EE408ABF
:100AF0004FF0FF35BAE036484088B0F5487F0FDA4E
:100B000034484088B0F5F06F0ADB46241FEDF10A47
:100B1000B0EE408A4FF0FF354AA000F047FBA5E059
:100B20002C484088B0F5487F0EDA29484088B0F557
:100B3000F06F09DB46241FEDFB0AB0EE408A012569
:100B400041A000F033FB91E022484088B0F5F86FF7
:100B500006DB3C249FED3D0AB0EE408A002585E08F
:100B60001C484088B0F5707F07DA3C249FED380AB6
:100B7000B0EE408A002579E053E11648408810B174
:100B80001348408830B900249FED320AB0EE408A05
:100B900000256BE060E00000080000200400002059
:100BA0000000704202000020940000209600002007
:100BB000980000209A0000209C000020A000002047
:100BC000A4000020A80000203C0000200C00002011
:100BD000C4000020C00000202A00002028000020BF
:100BE0006368303A2564206368313A256420737065
:100BF0003A2564206F6D673A25642066312D383AB6
:100C000025642066392D31363A25642062312D382D
:100C10003A25642062392D31363A25640D0A0000E8
:100C20004E0000202C000020B4000020B600002060
:100C3000B0000020B2000020AC000020AE00002078
:100C40000E000020310D0A00320D0A000000B442EF
:100C50000000B4C2000000006FF063041FED030A3F
:100C6000B0EE408A00257BA000F0A0FA012D42D111
:100C70007F4804807F4804807F4804807F48048048
:100C80009FED7F0A28EE000ABDEEC00A10EE100AA2
:100C90004FF44831FFF747FB40427A4908609FED27
:100CA000780A28EE000ABDEEC00A10EE100A4FF4D2
:100CB0004831FFF738FB744908609FED710A28EE50
:100CC000000ABDEEC00A10EE100A4FF44831FFF7DB
:100CD0002AFB40426D4908609FED690A28EE000A30
:100CE000BDEEC00A10EE100A4FF44831FFF71BFBAF
:100CF0006749086092E0681CE0BB604200B25C4952
:100D00000880604200B25B490880604200B25A49E4
:100D10000880604200B2594908809FED590A28EEC8
:100D2000000ABDEEC00A10EE100A4FF44831FFF77A
:100D3000FAFA4042534908609FED510A28EE000A32
:100D4000BDEEC00A10EE100A4FF44831FFF7EBFA7F
:100D50004D4908609FED4A0A28EE000ABDEEC00A20
:100D600010EE100A4FF44831FFF7DDFA40424749D0
:100D7000086000E00EE09FED420A28EE000ABDEE9A
:100D8000C00A10EE100A4FF44831FFF7CCFA404980
:100D9000086043E0604200B235490880604200B21A
:100DA0003449088034480480344804809FED340A74
:100DB00028EE000ABDEEC00A10EE100A4FF44831CA
:100DC000FFF7B1FA2F4908609FED2D0A28EE000ABF
:100DD000BDEEC00A10EE100A4FF44831FFF7A3FA37
:100DE000294908609FED260A28EE000ABDEEC00AD8
:100DF00010EE100A4FF44831FFF795FA23490860C6
:100E00009FED1F0A28EE000ABDEEC00A10EE100A80
:100E10004FF44831FFF787FA1D49086000201D494B
:100E20000870BDEC028B70BDFFF754FA02F098FA1F
:100E3000642000F061FA0BE01748007840B1FFF73A
:100E40007BFAFFF7A6FDFFF717FE00201249087096
:100E5000F2E700006C696E65206F6E206D69642C8E
:100E60006361722072756E206261636B0D0A00000F
:100E70009400002096000020980000209A00002096
:100E8000CD380E459C000020A0000020A4000020CA
:100E9000A80000203C00002020000020704705E052
:100EA00006A000F083F9642000F026FAF8E700BFFE
:100EB000FEE700BFFEE700BFFEE7704768617264AF
:100EC0006661756C742E2E2E0D0A000010B596B05A
:100ED00004460121084603F0D1FE0121102003F051
:100EE00011FF07220921CA4803F00DFD07220A213C
:100EF000C74803F008FD00208DF8560001208DF84A
:100F0000570002208DF854000002149002208DF842
:100F1000550014A9BE4803F06BFC02208DF8540064
:100F20004002149014A9BA4803F062FCB94804F0D6
:100F300035FE10940020ADF84400ADF84600ADF841
:100F40004800ADF84C000C20ADF84A0010A9B1489B
:100F500004F072FE002240F22551AE4804F0AAFFD0
:100F6000002240F22661AB4804F0A4FF012240F2C7
:100F70002441A84804F09EFF0121A64804F0E4FEA5
:100F80000121880503F07AFE01224021A14804F0E6
:100F900088FF012280219F4804F083FF25208DF8DF
:100FA0003C0001208DF83D008DF83E008DF83F009B
:100FB0000FA802F0EAFB46208DF83C0002208DF8D5
:100FC0003D008DF83E0001208DF83F000FA802F093
:100FD000DCFB3A208DF83C0000208DF83D0002201B
:100FE0008DF83E0001208DF83F000FA802F0CDFBE8
:100FF000894803F02DF94FF0006000908548001DEE
:1010000001908648029000200390802004900020E8
:1010100005904FF4806006900020079008904FF4F0
:10102000807009904FF440300A9000200B900C9093
:101030000D900E906946784803F0ACF9012176488E
:1010400003F0E2F97448783003F002F94FF00060E1
:1010500000907048001D019071480290402003905C
:1010600080200490002005904FF4806006900020BE
:101070000790089009904FF480300A9000200B9060
:101080000C900D900E9069466348783003F082F919
:10109000012280215F4804F004FF012210215E48F4
:1010A000783003F03EFA00215B48783003F0ACF969
:1010B00016B010BD02465068081A80B2704770B56D
:1010C0000024002540F22551524804F02EFF18B1AB
:1010D000504804F068FEC4B240F224414D4804F088
:1010E00024FFE8B180214C48FFF7E4FF4D49088018
:1010F0000021494803F088F900BF474803F0D1F9BF
:101100000028FAD18021444803F09FF90121424888
:1011100003F07AF93F480088C5B23E488088C5B2DE
:1011200070BD10B5044600BF20213A4804F0E7FE28
:101130000028F9D0374804F036FE10BD70B50446DB
:101140000D4639480078F0B900213348783003F073
:101150005BF900BF3048783003F0A3F90028F9D1DB
:10116000002221462C48783003F08CF9A9B22A4895
:10117000783003F06AF901212748783003F044F908
:1011800001202949087070BD70B505460E4600243F
:1011900000BF04E0285D22490855601CC4B2B44277
:1011A000F8DB31461E48FFF7C9FF70BD0FB438B5F4
:1011B00005A800901A48009A049905F06DF80020DF
:1011C0000090174805F07AF8044621461448FFF7C6
:1011D000B5FF38BC5DF814FB10B514490E4803F098
:1011E000BDF918B111490C4803F0E2F910BD10B572
:1011F0000F490948783003F0B1F938B100200A49A5
:1012000008700B490448783003F0D2F910BD000093
:10121000000002400010014040640240F000002045
:101220007001002014000020100000200080201019
:101230000080002810B504466FF0040002F0F2FAB6
:10124000E11704EB5171C1F3C701404A1170104618
:10125000007800EB4001C1EBC0104FF6FF7101EACE
:10126000C0003B49088010BD0146384A12784A4305
:101270004FF0E0235A6100229A611A46126942F047
:1012800001021A6100BF4FF0E022106900F0010274
:101290001AB100F48032002AF5D04FF0E022126932
:1012A00022F001024FF0E0231A6100229A61704798
:1012B0000146274A12884A434FF0E0235A61002230
:1012C0009A611A46126942F001021A6100BF4FF09A
:1012D000E022106900F001021AB100F48032002A05
:1012E000F5D04FF0E022126922F001024FF0E02326
:1012F0001A6100229A61704770B504464FF4077076
:1013000094FBF0F0C6B24FF4077094FBF0F100FBD1
:10131000114085B205E04FF40770FFF7C9FF701E5A
:10132000C6B2002EF7D115B12846FFF7C1FF70BD38
:1013300010B5002107E04AF2104200BF131EA2F1CF
:101340000102FBD1491C8142F5D310BD16000020DB
:101350001800002010B58AB004460121084603F0A9
:101360008DFC0121480603F0BCFC09220C219248A7
:1013700003F0C9FA09220B218F4803F0C4FA4FF495
:10138000C050019002208DF8080000208DF80A005E
:1013900003208DF8090001A9874803F029FA1420D9
:1013A0008DF8000001208DF8010002208DF8020068
:1013B00001208DF80300684602F0E7F915208DF84A
:1013C000000001208DF8010002208DF802000120AC
:1013D0008DF80300684602F0D8F913208DF800005C
:1013E00001208DF801008DF802008DF80300684699
:1013F00002F0CBF9714802F033FA07A802F054FB6F
:1014000000208DF822008DF823008DF824008DF83F
:1014100025008DF8260001208DF8270000208DF88A
:101420001E008DF81F0008208DF8200003208DF885
:1014300021000620ADF81C0007A9604802F029FA37
:1014400000208DF816008DF8170001208DF8180087
:101450004FF6FF7000EA4410ADF80C000020ADF824
:101460000E004FF6FF70ADF81000401EADF81200F0
:101470000020ADF8140001208DF8190003A802F037
:1014800092FA012202214D4802F08CFD0122102126
:101490004A4802F087FD01221146484802F082FDC9
:1014A0000AB010BD10B50121444802F0E3FD30B18F
:1014B0000120434908700121404802F076FE10BD2A
:1014C00000B585B002213D4802F0D4FD40B10221B3
:1014D0003A4802F06AFE6A460021384802F047FCAA
:1014E00005B000BD00B585B01021344802F0C2FD42
:1014F00040B11021314802F058FE6A4601212F48C0
:1015000002F035FC05B000BD2DE9F04186B006467D
:101510000F4615460024A04600208DF80C008DF8DB
:101520000D008DF80E50019600BF05E0395D0DF1FC
:101530000F000155601CC4B2AC42F7DB01E0601C37
:10154000C4B201A91D4802F01DFB042801D17F2C63
:10155000F5DB06B0BDE8F0812DE9F04186B0064626
:101560000F4615460024A04604208DF80C000020EC
:101570008DF80D008DF80E50029600BF05E0395D24
:101580000DF10F000155601CC4B2AC42F7DB09E05D
:1015900008F1010000F0FF08B8F1050F02DD4FF07F
:1015A000000805E001A9054802F0ECFA0428EFD094
:1015B00000BF06B0BDE8F0810000024000640040BA
:1015C0001A00002010B58AB004460121022003F061
:1015D00055FB0121880603F084FB09220C21FD48FC
:1015E00003F091F909220D21FA4803F08CF94FF428
:1015F0004050019002208DF8080000208DF80A006C
:1016000003208DF8090001A9F24803F0F1F8402009
:101610008DF8000001208DF8010002208DF80200F5
:1016200001208DF80300684602F0AFF841208DF8E4
:10163000000001208DF8010002208DF80200012039
:101640008DF80300684602F0A0F83F208DF80000F6
:1016500001208DF801008DF802008DF80300684626
:1016600002F093F8DC4802F0FBF807A802F01CFA3D
:1016700000208DF822008DF823008DF824008DF8CD
:1016800025008DF8260001208DF8270000208DF818
:101690001E008DF81F0008208DF8200003208DF813
:1016A00021000C20ADF81C0007A9CB4802F0F1F88E
:1016B0000E208DF8160000208DF8170001208DF8FF
:1016C00018004FF6FF7000EA4410ADF80C0000203F
:1016D000ADF80E00ADF81000ADF81200ADF8140032
:1016E00001208DF8190003A802F05DF90F208DF894
:1016F000160000208DF8170001208DF81800601CDE
:101700004FF6FF7101EA4010ADF80C000020ADF873
:101710000E00ADF81000ADF81200ADF81400012075
:101720008DF8190003A802F03EF910208DF816007C
:1017300000208DF8170001208DF81800A01C4FF62E
:10174000FF7101EA4010ADF80C000020ADF80E006A
:10175000ADF81000ADF81200ADF8140001208DF8BE
:10176000190003A802F01FF911208DF816000020BF
:101770008DF8170001208DF81800C020ADF80C007E
:101780000020ADF80E00ADF81000ADF81200ADF875
:10179000140001208DF8190003A802F004F91220AA
:1017A0008DF8160000208DF8170001208DF8180024
:1017B000E020ADF80C000020ADF80E00ADF81000F0
:1017C000ADF81200ADF8140001208DF8190003A83F
:1017D00002F0E9F8012202217F4802F0E3FB012236
:1017E00010217D4802F0DEFB012211467A4802F00A
:1017F000D9FB0AB010BD10B50121774802F03AFCC0
:1018000030B10121744802F0D0FC01207349087006
:1018100010BD10B586B002216F4802F02BFC0028E5
:101820006AD002216C4802F0C0FC01AA00216A487B
:1018300002F09DFA6A4C0298A04237D19DF8100040
:101840009DF80F1040EA012000EE100AB8EEC00A21
:10185000F2EE040A80EE201A624880ED001A9DF82C
:1018600014109DF8130041EA002000EE100AB8EEB3
:10187000C00AF2EE040A80EE201A9FED5B0A31EEF8
:10188000400A584880ED010A9DF816109DF8150091
:1018900041EA002000EE100AB8EEC00AF2EE040A97
:1018A00080EE201A4F4880ED021A24E001980628A5
:1018B0000FD19DF810004D4908709DF81100487037
:1018C0009DF811109DF8100041EA0020474948801A
:1018D00011E0019807280ED19DF8100044490870C6
:1018E0009DF8110048709DF811109DF8100041EA14
:1018F00000203F49488000BF06B010BD00B585B04C
:101900001021354802F0B6FB00B31021324802F036
:101910004CFC6A460121304802F029FA35A0FFF755
:1019200045FC0098062807D19DF80C002F49087047
:101930009DF80D00487009E00098072806D19DF831
:101940000C002B4908709DF80D00487005B000BDD3
:101950002DE9F04186B006460F4615460024A04604
:1019600000208DF80C008DF80D008DF80E500196BA
:1019700000BF05E0395D0DF10F000155601CC4B2D8
:10198000AC42F7DB09E008F1010000F0FF08B8F114
:10199000050F02DD4FF0000805E001A90E4802F036
:1019A000F1F80428EFD000BF06B0BDE8F0812DE9C2
:1019B000F04186B006460F4615460024A046042096
:1019C0008DF80C0000208DF80D008DF80E50029659
:1019D00000BF19E000040240006800401B00002026
:1019E00001409018B80E002000803B45C400002044
:1019F000C0000020676574310D0A0000395D0DF1EB
:101A00000F000155601CC4B2AC42F7DB09E008F1DD
:101A1000010000F0FF08B8F1050F02DD4FF00008EB
:101A200005E001A9044802F0ADF80428EFD000BF9A
:101A300006B0BDE8F0810000006800401CB501213F
:101A4000022003F01BF90121042003F04AF9684643
:101A500002F016FFC020009002208DF80400032041
:101A60008DF8050001208DF807006946F64802F060
:101A7000BFFE02220621F44802F045FF02220721A0
:101A8000F14802F040FF00231A460321EF4804F01A
:101A900054F847F6FF70ED49243108600121EB4806
:101AA00003F060FB1CBDE949243102680968A1F517
:101AB000FE41FF391144016047F6FF71E34A2432C9
:101AC0001160704710B5E2480068401CE0490860AA
:101AD000082002F016FE10BD00B585B00121880374
:101AE00003F010F90121022003F0C8F8082000904B
:101AF00000208DF8040003208DF8050001208DF8EA
:101B000007006946D04802F073FE0321012004F06B
:101B100061FA0820029000208DF80C000C208DF84E
:101B20000D0001208DF80E0002A802F073FD0920BF
:101B30008DF8100003208DF8110002208DF812009E
:101B400001208DF8130004A801F01FFE05B000BDB0
:101B500030B58BB005460C460121022003F08EF80B
:101B60000121022003F0BDF809A802F089FE33200C
:101B7000099002208DF8280003208DF8290009A97A
:101B8000B14802F035FE02220421AF4802F0BBFE4C
:101B900002220521AC4802F0B6FE02220021AA482A
:101BA00002F0B1FE02220121A74802F0ACFEA948D2
:101BB00003F0A2F90795ADF818400020ADF8200019
:101BC000ADF81A0006A9A34803F043FA01A803F0F0
:101BD000F9FB6020ADF804000120ADF806000020FC
:101BE000ADF8100001A99B4803F0C8FA01A9994873
:101BF00003F0FDFA01A9974803F046FB01A99548B7
:101C000003F0A8FB0821934803F045FC0821914804
:101C100003F04AFC08218F4803F053FC08218D484B
:101C200003F058FC01218B4803F07EFA012189481A
:101C300003F098FA0BB030BD7FB505460C46012184
:101C4000082003F04EF8844803F056F90295ADF8E9
:101C500004400020ADF80C00ADF806008DF80E0031
:101C600001A97D4803F0F5F901217B4803F05CFAF6
:101C70000121794803F0A2FE01221146764803F0C3
:101C800089FE0121744803F06DFA32208DF80000BE
:101C900000208DF8010001208DF802008DF803006E
:101CA000684601F072FD7FBD10B501216A4803F05E
:101CB00088FE00286FD069480078401C674908708A
:101CC000084600780A2804DD0020087001206449D5
:101CD000087064480078401C624908700846007823
:101CE000102801DD012008705E48007811281AD202
:101CF000DFE800F0A4091A2B3C434B525666768469
:101D00008A90949AA0005848B0F90010012001F080
:101D10004FFC5648B0F900205548B0F9001040F289
:101D2000031001F0EDFC89E05248B0F900100220E8
:101D300001F03EFC5048B0F900205048B0F90010C6
:101D40004FF4817001F0C3FC78E04D48B0F9001009
:101D5000032001F02DFC4B48B0F900204A48B0F9AF
:101D6000001040F2011001F099FC67E04748B0F91B
:101D70000010042001F01CFC60E0454801680520CB
:101D800001F0C8FB01F0F0FC58E042480188052052
:101D900001F0DAFB52E056E0052001F0EFFB4DE0E8
:101DA0003D480168062001F0B5FB3048B0F900203D
:101DB0002F48B0F9001040F2031001F0A1FC3DE003
:101DC00034480188062001F0BFFB2B48B0F9002001
:101DD0002A48B0F900104FF4817001F078FC2DE032
:101DE000062001F0CBFB2748B0F900202648B0F9C7
:101DF000001040F2011001F051FC1FE0274801687B
:101E0000072001F087FB19E022480188072001F034
:101E10009BFB13E0072001F0B1FB0FE020480168B5
:101E2000082001F077FB09E01A480188082001F03A
:101E30008BFB03E0082001F0A1FB00BF00BF0121E4
:101E4000054803F0CFFD10BD00040240000800402B
:101E50001C00002000040040000C00402100002075
:101E6000200000202400002094000020B600002064
:101E7000B400002096000020B2000020B000002036
:101E800098000020AE000020AC0000209A00002046
:101E90009C00002022000020A0000020A4000020C0
:101EA000A800002030B58BB005460C46012110205B
:101EB00002F0E4FE0121084602F024FF09A802F026
:101EC000DFFC4FF4C440099002208DF82800032065
:101ED0008DF8290009A9834802F08AFC0122092112
:101EE000804802F010FD01220D217E4802F00BFD1A
:101EF00001220E217B4802F006FD7B4802F0FCFF28
:101F00000795ADF818400020ADF82000ADF81A0094
:101F10008DF8220006A9744803F09BF801A803F08D
:101F200051FA6020ADF804000120ADF80600002051
:101F3000ADF81000039001A96B4803F01FF901A947
:101F4000694803F0A1F901A9674803F003FA0821E1
:101F5000654803F0A0FA0821634803F0B2FA0821AB
:101F6000614803F0B7FA01215F4803F0DDF8012171
:101F70005D4803F0F7F801215B4803F0E4FC0BB087
:101F800030BD30B58BB005460C460121022002F071
:101F900075FE0121402002F0A4FE09A802F070FCA9
:101FA0004FF40040099002208DF8280000208DF8A1
:101FB0002A0003208DF8290000208DF82B0009A9A4
:101FC0004A4802F015FC09220F21484802F09BFC08
:101FD000474802F091FF0795ADF818400020ADF892
:101FE0002000ADF81A0006A9414803F032F801A814
:101FF00003F0E8F97020ADF804000120ADF8060008
:102000000020ADF81000039001A9394803F0EFF863
:102010000821374803F048FA0121354803F084F8D5
:102020000121334803F09EF80BB030BD30B58BB0C2
:1020300005460C460121042002F020FE0121022069
:1020400002F060FE09A802F01BFC4FF4007009903A
:1020500002208DF8280000208DF82A0003208DF83A
:10206000290000208DF82B0009A9224802F0C0FBAE
:10207000032209211F4802F046FC1F4802F03CFFE2
:102080000795ADF818400020ADF82000ADF81A0013
:102090008DF8220006A9184802F0DBFF01A803F022
:1020A00091F96020ADF804000120ADF80600002091
:1020B000ADF81000039001A90F4803F04BF9082177
:1020C0000D4803F007FA01210B4803F02DF8012118
:1020D000094803F047F80121074803F034FC0BB02E
:1020E00030BD00000010024000000140000402402A
:1020F00000180040000802400004014000B587B00D
:102100000121864802F0BAFD0121480402F0E9FDF0
:1021100007220321824802F0F6FB082005900220E6
:102120008DF8180000208DF81A0003208DF8190092
:1021300000208DF81B0005A9794802F059FB794869
:1021400003F02CFD784801900020ADF808004FF412
:102150000050ADF80A00C010ADF80C000420ADF836
:102160000E000020ADF8100001A96E4803F064FDD8
:10217000012240F225516B4803F09CFE0121694881
:1021800003F0E2FD26208DF8000000208DF801000C
:1021900001208DF802008DF80300684601F0F5FA81
:1021A00007B000BD70B52DED048B04465F48B0F953
:1021B00000006438A04207DA5C48B0F900006430DF
:1021C000844201DA002503E058480088001B05B26C
:1021D000284605F036FD41EC190B9FED550B53ECED
:1021E000102B05F045FD41EC180B05F0FBFC00B28F
:1021F000BDEC048B70BD10B540F22551494803F089
:1022000094FE00287ED0474803F0CDFD4A4908706F
:102210004A48007838B9084600780F282AD1FF20AC
:102220004649087026E0444800784549454A1278F6
:10223000885444480078172811D10846C07D0228E8
:1022400002D00846C07D18B9FF203F49087006E05B
:1022500000203A4908703C4908703A4908703948EA
:102260000078401C3749087008460078182801DDBE
:10227000002008703448007800284DD0304800789D
:102280002F49497840EA0120C0F30A002F4908800D
:102290002B48807840012A49497840EAE100C0F3A0
:1022A0000A002B4908802648807880112449C97883
:1022B00040EA81002249097940EA8120C0F30A00FE
:1022C000244908801E48007940101D49497940EA98
:1022D000C110C0F30A00204908801948407A00F074
:1022E0000F001E4908801648807900F00F00401C3E
:1022F0001B490880002011490870134908701149D2
:10230000087000E008E017490860012016490870CD
:102310000421164802F0F3FA10BD0000010020006D
:102320000000024000440040A08601003E00002062
:10233000000000000000F83F54000020560000207C
:10234000F001002055000020570000202800002048
:102350002A0000202C0000202E0000204A0000202F
:102360004E000020380000203C00002000100240F9
:102370001CB50121102002F081FC042000900120F6
:102380008DF8040000208DF8060003208DF805006C
:1023900001208DF807006946114802F029FA1CBD9A
:1023A0001CB50121082002F069FCC020009001202A
:1023B0008DF8040000208DF8060003208DF805003C
:1023C00001208DF807006946064802F011FA402105
:1023D000044802F089FA8021024802F085FA1CBD07
:1023E00000100240000C024000BF704700BFFE4AD0
:1023F000128802F04002002AF9D0C2B2FA4B9A8049
:10240000704710B596B004460121880402F069FCBB
:102410000121022002F032FC0121480502F02EFCCD
:1024200007220A21F14802F06EFA07220B21EF4839
:1024300002F069FA14A802F023FA4FF480601490B5
:1024400002208DF8540003208DF8550014A9E748A8
:1024500002F0CEF94FF40060149002208DF8540081
:1024600003208DF8550014A9E04802F0C1F9E048B6
:1024700003F094FB10A803F045FC10940020ADF885
:102480004400ADF84600ADF84800ADF84C000C2013
:10249000ADF84A0010A9D64803F0CEFB012240F265
:1024A0002551D34803F006FD27208DF83C0000207D
:1024B0008DF83D0001208DF83E008DF83F000FA8FB
:1024C00001F063F90121CA4803F03EFC0E208DF8AB
:1024D0003C0001208DF83D0002208DF83E000120D7
:1024E0008DF83F000FA801F050F9C24801F0B0FE8E
:1024F0004FF000600090BE48001D0190BE48029061
:102500004020039080200490002005904FF48060CC
:10251000069000200790089009904FF480300A90B0
:1025200000200B900C900D900E906946B14801F080
:1025300031FF01228021AE4803F0B3FC01221021BB
:10254000AC4801F0EEFF0021AA4801F05DFF16B093
:1025500010BD02465068081A80B2704770B500245A
:1025600000BF40F22551A24803F0DFFC002832D022
:102570009F4803F018FCC4B2A048007830B97F2C03
:1025800004D101209D490870002048819B480078B3
:1025900001281BD19948408999490C549748408992
:1025A000401C9649488108464089032801D10846C5
:1025B00004819248408991490989884206DB8F4805
:1025C0004089032802DD00208C49087040F2255123
:1025D000874803F0E1FC40F22441854803F0A5FC64
:1025E00028B34FF4007183483038FFF7B2FF8549B4
:1025F000088000217F48303801F006FF00BF7D4889
:10260000303801F04EFF0028F9D17E480188794822
:10261000303801F01AFF01217648303801F0F4FE1D
:1026200073480088C5B27248001D0088C5B270BDED
:1026300070B504460D4674480078C8B900216D484D
:1026400001F0E2FE00BF6B4801F02BFF0028FAD139
:1026500000222146674801F015FFA9B2654801F044
:10266000F4FE0121634801F0CFFE012066490870A5
:1026700070BD70B505460E46002400BF04E0285D1D
:102680005D490855601CC4B2B442F8DB31465A4873
:10269000FFF7CEFF70BD10B55C495648303801F0E9
:1026A0005DFF20B159495348303801F081FF10BD1A
:1026B0000FB438B505A800904F48009A049903F06C
:1026C000EBFD002000904C4803F0F8FD0446214645
:1026D0004948FFF7ADFF38BC5DF814FB10B54C4915
:1026E000444801F03BFF30B1002047490870484999
:1026F000404801F05DFF10BD10B596B004460121C1
:10270000C80402F0EEFA0121042002F0B7FA012118
:10271000480502F0B3FA08220A213E4802F0F3F815
:1027200008220B213B4802F0EEF814A802F0A8F8AA
:102730004FF48060149002208DF8540003208DF82F
:10274000550014A9334802F053F84FF40060149078
:1027500002208DF8540003208DF8550014A92D484F
:1027600002F046F810A803F0CDFA10940020ADF85E
:102770004400ADF84600ADF84800ADF84C000C2020
:10278000ADF84A0010A9244803F056FA0D208DF840
:102790003C0002208DF83D008DF83E0001208DF8B0
:1027A0003F000FA800F0F1FF1248183801F050FD6B
:1027B0004FF0006000901848001D019017480290EB
:1027C0000020039080200490002005904FF480604A
:1027D00006900020079008904FF480700990400206
:1027E0000A9000200B901BE0001001400004024002
:1027F0000048004058600240100200209004002071
:1028000090020020640000205C000020008800107E
:102810000080001800080240004C00402005002005
:102820000C900D900E906946FE4801F0B3FD012218
:102830004021FD4803F035FB0121FA4801F0E4FD99
:10284000002240F22551F84803F034FB002240F208
:102850002661F54803F02EFB012240F22441F248A4
:1028600003F028FB34208DF83C0002208DF83D0059
:1028700003208DF83E0001208DF83F000FA800F0E6
:1028800084FF0121E84803F05FFAE648303001F0A8
:10289000DFFC4FF000600090E348001D0190E3482A
:1028A00002904020039080200490002005904FF477
:1028B0008060069000200790089009904FF48030C7
:1028C0000A9000200B900C900D900E906946D54810
:1028D000303001F05FFD01228021D34803F0E1FA9E
:1028E00001221021CF48303001F01BFE0021CD48DD
:1028F000303001F089FD0F208DF83C0002208DF86A
:102900003D008DF83E0001208DF83F000FA800F03B
:102910003CFF16B010BD02465068081A80B27047DE
:1029200070B50024002540F22551BF4803F0FDFAA0
:1029300000283DD0BC4803F036FAC4B2BC48007849
:1029400050B9552C08D10120B949087000204881A0
:1029500008464089B7490C54B5480078012811D180
:10296000B348407870B9532C08D10120B049487061
:10297000488108464089AF490C5403E00020AC4927
:1029800008704870AA48007801280CD1A8484078FF
:10299000012808D1A6484089A6490C54A44840897A
:1029A000401CA349488140F225519F4803F0F4FAA6
:1029B00040F224419C4803F0B8FAF0B180219948D4
:1029C000FFF7A9FF9C4908700021964801F01CFD03
:1029D00000BF944801F065FD0028FAD1802191489C
:1029E00001F033FD01218F4801F00EFD8E48008873
:1029F000C5B28D48001D0088C5B270BD70B50446D3
:102A00000D468E480078F0B900218648303001F03C
:102A1000FBFC00BF8348303001F043FD0028F9D1B2
:102A2000002221467F48303001F02CFDA9B27D48BC
:102A3000303001F00AFD01217A48303001F0E4FC29
:102A400001207E49087070BD70B505460E46002411
:102A500000BF04E0285D75490855601CC4B2B4424B
:102A6000F8DB31467148FFF7C9FF70BD10B57449F6
:102A70006C48303001F072FD60B100206F49087081
:102A800070496848303001F038FD6E496548303093
:102A900001F08EFD10BD10B56B49624801F05EFD7E
:102AA00048B14FF081515F4801F027FD4FF081514F
:102AB0005C4801F07DFD10BD10B596B004460121C3
:102AC000042002F0DBF80121082002F0D7F80121F0
:102AD000080502F006F90121480502F0CFF80822A6
:102AE00002215A4801F00FFF08220C21584801F03A
:102AF0000AFF0420149002208DF8540003208DF862
:102B0000550000208DF8560001208DF8570014A9BB
:102B10004E4801F06DFE4FF48050149014A94C48BB
:102B200001F066FE10940020ADF84400ADF84600B8
:102B3000ADF84800ADF84C000C20ADF84A0010A9E3
:102B4000444803F079F80B208DF83C0002208DF802
:102B50003D008DF83E0001208DF83F000FA800F0E9
:102B600014FE3048303801F073FB4FF000600090E5
:102B70003848001D019038480290002003908020C2
:102B80000490002005904FF480600690002007908C
:102B900008904FF48070099040020A9000200B903A
:102BA0000C900D900E9069461E48303801F0F2FBF3
:102BB00001224021274803F074F9012119483038D7
:102BC00001F022FC002240F22551224803F072F964
:102BD000002240F226611F4803F06CF9012240F206
:102BE00024411C4803F066F935208DF83C00002094
:102BF0008DF83D0001208DF83E008DF83F000FA8B4
:102C000000F0C3FD0121134803F09EF82F208DF83A
:102C10003C0002208DF83D008DF83E0001208DF82B
:102C20003F001BE040600240004C0040A004002038
:102C3000A005002020050020680000206900002079
:102C4000208000202000002000802010000C024086
:102C50000008024000500040AC0500200FA800F022
:102C600094FDFE4801F0F4FA4FF000600090FC483B
:102C70000190FC48029040200390802004900020A6
:102C800005904FF48060069000200790089009900E
:102C90004FF480300A9000200B900C900D900E9015
:102CA0006946EE4801F076FB01228021EC48001FC6
:102CB00003F0F7F801221021E84801F032FC00216E
:102CC000E64801F0A1FB16B010BD02465068081A94
:102CD00080B2704770B50024002540F22551E048CD
:102CE000001F03F022F920B1DD48001F03F05BF85C
:102CF000C4B240F22441DA48001F03F016F920B3B1
:102D00008021D648A838FFF7E0FFD7490870002196
:102D1000D248A83801F078FB00BFD048A83801F0AD
:102D2000C0FB0028F9D18021CC48A83801F08DFBE8
:102D30000121CA48A83801F067FBC948001F008874
:102D4000C5B2C748001F8088C5B270BD10B5C7495D
:102D5000C24801F003FC60B10020C54908704FF083
:102D60002051BE4801F0C9FB4FF02051BB4801F093
:102D70001FFC10BD70B504460D46BD480078C8B9AB
:102D80000021B64801F040FB00BFB44801F089FBC8
:102D90000028FAD100222146B04801F073FBA9B205
:102DA000AE4801F052FB0121AC4801F02DFB01209F
:102DB000AF49087070BD70B505460E46002400BFCF
:102DC00004E0285DA7490855601CC4B2B442F8DB92
:102DD0003146A448FFF7CEFF70BD10B596B004464B
:102DE0000121202001F08EFF0121042001F046FF87
:102DF0000121880501F042FF082206219D4801F0CB
:102E000082FD082207219B4801F07DFD14A801F0F6
:102E100037FD4020149002208DF8540003208DF8D7
:102E2000550014A9934801F0E3FC8020149002207F
:102E30008DF8540003208DF8550014A98D4801F039
:102E4000D7FC8D4802F0AAFE10A802F05BFF109498
:102E50000020ADF84400ADF84600ADF84800ADF8EC
:102E60004C000C20ADF84A0010A9834802F0E4FEA3
:102E700039208DF83C0002208DF83D008DF83E0091
:102E800001208DF83F000FA800F07FFC7B4801F087
:102E9000DFF94FF0206000907748001D01907848DE
:102EA0000290002003904FF4806004900020059071
:102EB0004FF4806006900020079008904FF48070D7
:102EC000099040020A9000200B900C900D900E90FB
:102ED00069466A4801F05EFA01224021664802F024
:102EE000E0FF0121654801F08FFA002240F22551F0
:102EF000614802F0DFFF002240F226615E4802F0E6
:102F0000D9FF012240F224415B4802F0D3FF472061
:102F10008DF83C0001208DF83D008DF83E008DF8C5
:102F20003F000FA800F031FC0121534802F00CFFD4
:102F300045208DF83C0002208DF83D008DF83E00C4
:102F400001208DF83F000FA800F01FFC4B4878309F
:102F500001F07EF94FF0206000904748001D01907D
:102F60004848029040200390000104900020059002
:102F70004FF48060069000200790089009904FF46D
:102F800080300A9000200B900C900D900E906946B6
:102F90003A48783001F0FEF901228021364802F0EB
:102FA00080FF012210213548783001F0BAFA002163
:102FB0003248783001F028FA16B010BD012080F3B5
:102FC000138800BF00BF00BF00BF00BF00BFBFF33A
:102FD0004F8F00BF00BF00BF2B48006800F4E060C7
:102FE0002A490843001D2849086000BF00BF00BFF0
:102FF000BFF34F8F00BF00BF00BF00BF00BFFDE7A2
:1030000002465068081A80B2704770B50024002547
:1030100040F22441184802F088FFD8B34FF4806191
:103020001648FFF7EDFF1A49088008460178144852
:10303000FEF7AAF80021114801F0E6F900BF0F4899
:1030400001F02FFA0028FAD14FF480610B4801F00B
:10305000FCF90121094801F0D7F91CE0B8600240F1
:10306000045000402C0600206B0000200080002847
:103070006A00002000080240001401402864024059
:10308000B80A0020B80600200CED00E00000FA05A8
:103090006E00002006E04F480088C5B24D48001D74
:1030A0000088C5B240F225514A4802F03EFF20B1E7
:1030B00040F22551474802F06FFF70BD10B54649F8
:1030C000464801F04BFA38B14549444801F015FA39
:1030D0004149424801F06CFA10BD10B541493F48E2
:1030E000783001F03BFA60B100203F4908703D495B
:1030F0003A48783001F001FA3A493848783001F01E
:1031000057FA10BD70B504460D4637480078F0B93F
:1031100000213248783001F077F900BF2F4878302D
:1031200001F0BFF90028F9D1002221462B48783060
:1031300001F0A8F9A9B22948783001F086F90121F7
:103140002648783001F060F901202749087070BDE9
:1031500070B505460E4600244FF48071234801F0F7
:10316000C3FB00BF04E0285D21490855601CC4B2C0
:10317000B442F8DB31461E48FFF7C4FF4FF48071BC
:103180001A4801F0B3FB70BD1CB54FF4E130FFF7F6
:1031900024FE0121042001F071FD684601F070FB5E
:1031A0004FF48070009001208DF8040000208DF80D
:1031B000060002208DF8070003208DF805006946FF
:1031C0000A4801F015FB4FF48071084801F08EFBAE
:1031D0001CBD00000014014000880010286402405B
:1031E000000800100080202082000020000802401B
:1031F000B80600207CB505460C46FAA103C9CDE906
:103200000001200A8DF80500E0B28DF804000822C4
:1032100069462846FEF778F97CBD7CB505460C4624
:10322000F2A103C9CDE90001E0B28DF80400200A43
:103230008DF80500200C8DF80600200E8DF8070093
:10324000082269462846FEF75FF97CBD7CB5054635
:103250000C46E8A103C9CDE900018DF80440052220
:1032600069462846FEF750F97CBD38B50446E3A010
:1032700000680090022269462046FEF745F938BDF5
:1032800010B586B00446DEA103C9CDE904010822C9
:1032900004A904F5C060FEF737F90A20FEF72CF800
:1032A000D9A103C9CDE90201082202A904F5C06031
:1032B000FEF72AF90A20FEF71FF8D5A103C9CDE9C8
:1032C00000010822694604F5C060FEF71DF90A20D6
:1032D000FEF712F806B010BD1CB50446CEA103C916
:1032E000CDE900010822694604F5C060FEF70CF93B
:1032F0001CBD1CB50446CAA103C9CDE900010822C2
:10330000694604F5C060FEF7FFF81CBD1FB5044612
:10331000BBA003C8CDE90201082202A904F5C060E0
:10332000FEF7F2F80A20FDF7E7FFB7A103C9CDE9E0
:1033300000010822694604F5C060FEF7E5F80A209E
:10334000FDF7DAFF1FBD1CB50446B7A103C9CDE9DF
:1033500000010822694604F5C060FEF7D5F81CBDDF
:1033600010B50520FFF7EFFF0A20FDF7C5FF052088
:10337000FFF7B2FF0A20FDF7BFFF0520FFF7C6FFEA
:103380000A20FDF7B9FF0620FFF7DDFF0A20FDF751
:10339000B3FF0620FFF7A0FF0A20FDF7ADFF0620D0
:1033A000FFF7B4FF0A20FDF7A7FF0720FFF7CBFFC9
:1033B0000A20FDF7A1FF0720FFF78EFF0A20FDF787
:1033C0009BFF0720FFF7A2FF0A20FDF795FF0820CB
:1033D000FFF7B9FF0A20FDF78FFF0820FFF77CFFFA
:1033E0000A20FDF789FF0820FFF790FF0A20FDF76C
:1033F00083FF0120FFF77DFF0A20FDF77DFF0120FD
:10340000FFF76AFF0A20FDF777FF0120FFF738FF7B
:103410000A20FDF771FF0220FFF76BFF0A20FDF77E
:103420006BFF0220FFF758FF0A20FDF765FF02201F
:10343000FFF726FF0A20FDF75FFF0320FFF759FF84
:103440000A20FDF759FF0320FFF746FF0A20FDF78A
:1034500053FF0320FFF714FF0A20FDF74DFF042060
:10346000FFF747FF0A20FDF747FF0420FFF734FF6F
:103470000A20FDF741FF0420FFF702FF0A20FDF7B5
:103480003BFF10BD2DE9F04104460F4615461E4690
:1034900021460120FFF7AEFE0A20FDF72DFF394639
:1034A0000220FFF7A7FE0A20FDF726FF294603208A
:1034B000FFF7A0FE0A20FDF71FFF31460420FFF7AB
:1034C00099FE0A20FDF718FFBDE8F0812DE9F041D3
:1034D00004460F4615461E4621460520FFF79DFE71
:1034E0000A20FDF709FF39460620FFF796FE0A205D
:1034F000FDF702FF29460720FFF78FFE0A20FDF7A0
:10350000FBFE31460820FFF788FE0A20FDF7F4FE97
:10351000BDE8F0817CB505460C4645A103C9CDE95F
:103520000001E0B28DF80400200A8DF80500200C9F
:103530008DF80600200E8DF807000822694605F573
:10354000C060FDF7E1FF7CBD7CB505460C463AA1A5
:1035500003C9CDE90001E0B28DF80400200A8DF81E
:103560000500200C8DF80600200E8DF807000822BB
:10357000694605F5C060FDF7C7FF7CBD1CB5044674
:103580002FA103C9CDE900010822694604F5C060F6
:10359000FDF7BAFF1CBD1CB504462BA103C9CDE93C
:1035A00000010822694604F5C060FDF7ADFF1CBDAF
:1035B0007CB505460C4626A103C9CDE90001E0B261
:1035C0008DF80400200A8DF80500200C8DF8060007
:1035D000200E8DF807000822694605F5C060FDF74A
:1035E00093FF7CBDFF06020100000000FF061602EB
:1035F00000000000FF06000100000000FF100000B6
:103600002B406001060000002B4060010700000015
:103610002B4060010F0000002B4060018000000083
:103620002F606001030000002F60600101000000B6
:10363000237A600100000000238160010000000087
:103640002B4060013F00000040416001000000008D
:1036500023FF60010000000000200849088008499D
:103660000880084908800849088008490860084916
:103670000860084908600849086070479400002005
:1036800096000020980000209A0000209C00002056
:10369000A0000020A4000020A80000207CB5064661
:1036A0000C461546002000900190200A8DF800007D
:1036B000E0B28DF80100280A8DF80200E8B28DF81A
:1036C0000300082269463046FEF742F97CBD7CB50E
:1036D00006460C461546002000900190200A8DF801
:1036E0000000E0B28DF80100280A8DF80200E8B26F
:1036F0008DF80300082269463046FEF729F97CBDA3
:103700007CB506460C461546002000900190200A24
:103710008DF80000E0B28DF80100280A8DF8020053
:10372000E8B28DF80300082269463046FEF710F92A
:103730007CBD0020064908800649088006490880AB
:10374000064908800649088006490880704700003D
:10375000AC000020AE000020B0000020B20000202D
:10376000B4000020B600002010B5034C0822034925
:103770002046FEF71CF910BD40019018B80000204B
:1037800032490143324A1160704770B5002100236D
:103790000F22C4781CB32E4C246804F4E064C4F5F2
:1037A000E064C4F30721C1F10404E3B20A414478A0
:1037B0009C40E1B28478144021430C07210E254C33
:1037C00005786155047804F01F050124AC400578A4
:1037D0006D11AD0005F1E025C5F8004109E0047860
:1037E00004F01F050124AC401B4D0678761145F806
:1037F000264070BD194A0A400243154B1B1F1A6030
:10380000704739B1124A121D12680243104B1B1D3A
:103810001A6006E00E4A121D126882430C4B1B1DF3
:103820001A607047042808D14FF0E021096941F07F
:1038300004014FF0E022116107E04FF0E021096937
:1038400021F004014FF0E022116170470000FA05F9
:103850000CED00E000E400E080E100E080FFFF1FED
:1038600010B50446FE48844209D10121480601F002
:10387000A0FA00214FF0007001F09BFA08E001214E
:10388000880601F096FA00214FF0806001F091FA6D
:1038900010BD30B5024600200023146824F0020455
:1038A0001460146844F00104146000E05B1C546868
:1038B00004F001041CB94FF6FF74A342F6D154681A
:1038C00004F001040CB900206CE08C79012C04D1C7
:1038D000146844F08004146003E0146824F0800449
:1038E0001460CC79012C04D1146844F040041460B5
:1038F00003E0146824F0400414600C7A012C04D115
:10390000146844F02004146003E0146824F02004D8
:1039100014604C7A012C04D1146844F01004146033
:1039200003E0146824F0100414608C7A012C04D194
:10393000146844F00804146003E0146824F00804D8
:103940001460CC7A012C04D1146844F0040414608F
:1039500003E0146824F0040414608C78A407CD7884
:1039600044EA05640D7944EA05444D7944EA055476
:103970000D886D1E2C43D461146824F0010414607A
:10398000002300E05B1C546804F001041CB14FF6F6
:10399000FF74A342F6D1546804F001040CB1002076
:1039A00000E0012030BD10B50021837A012202FA27
:1039B00003F1AC4A126842F00102AA4B1A60A94A0C
:1039C0001C3212688A43A74B1C331A60027BCAB9A7
:1039D000A44A0C3212688A43A24B0C331A60428804
:1039E000C38842EA03439F4A4032847A42F8343023
:1039F0000288838842EA03439A4A4032847A02EB7F
:103A0000C4025360027B012A19D1964A0C32126813
:103A10000A43944B0C331A604288038842EA0343FA
:103A2000904A4032847A42F83430C288838842EA2D
:103A300003438C4A4032847A02EBC4025360C27A58
:103A40003AB9884A121D12688A43864B1B1D1A60B8
:103A500006E0844A121D12680A43824B1B1D1A603D
:103A6000028932B97F4A143212688A437D4B14337B
:103A70001A600289012A06D17A4A143212680A436E
:103A8000784B14331A60427B012A06D1754A1C32E6
:103A900012680A43734B1C331A60724A126822F090
:103AA0000102704B1A6010BD00218171C171017259
:103AB00041728172C1728170C17003210171022152
:103AC00041710121018070476649096841F0010197
:103AD000644A11601146096843F60E729143614AC7
:103AE00011601146096841EA002111601146096818
:103AF00021F001011160704721B1026842F4803267
:103B0000026003E0026822F4803202607047E1B193
:103B1000026842F0800202604FF4C272125842F40E
:103B200080734FF4C27213504FF4CA72125842F4A9
:103B300080734FF4CA7213504FF4D272125842F489
:103B400080734FF4D27213501BE0026822F080029F
:103B500002604FF4C272125822F480734FF4C272A2
:103B600013504FF4CA72125822F480734FF4CA7281
:103B700013504FF4D272125822F480734FF4D27261
:103B80001350704710B502460020936803F080631D
:103B9000B3F1806F00D110E0936803F00063B3F1DC
:103BA000006F01D1012008E0936803F08053B3F166
:103BB000805F01D1022000E00420042879D002F5C2
:103BC000C07303EB00131B6803F0010402F5C0731C
:103BD00003EB00131C600B7A7BB94B7A0C8843EA29
:103BE000445302F5C07404EB00142468234302F527
:103BF000C07404EB0014236010E00B7A4C6843EAB5
:103C0000C4034C7A234302F5C07404EB0014246807
:103C1000234302F5C07404EB001423608B7A03F095
:103C20000F038B7202F5C07303EB00135B6823F084
:103C30000F0402F5C07303EB00135C6002F5C07360
:103C400003EB00135B688C7A234302F5C07404EB2A
:103C5000001463608B7B1C064B7B44EA034403E047
:103C600000640040006600400B7B44EA0323CC7AEA
:103C7000234302F5C07404EB0014A3608B7C1C0684
:103C80004B7C44EA03440B7C44EA0323CC7B234370
:103C900002F5C07404EB0014E36002F5C07303EB9B
:103CA00000131B6843F0010402F5C07303EB00131B
:103CB0001C6010BD10B50246002321B1012907D0B8
:103CC00002290FD109E09068F94C00EA04030BE0E7
:103CD0009068F84C00EA040306E09068F64C00EAAD
:103CE000040301E0002300BF00BFF44C181BA342F3
:103CF00016D007DC83B16FF08060184470B10228E1
:103D000018D111E0B0F5007F10D0ED4C204448B13F
:103D1000B0F5003F0ED10BE002230DE000230BE0D5
:103D2000002309E0002307E0012305E0012303E06D
:103D3000012301E0002300BF00BFD8B210BD21B1B4
:103D4000012907D002290FD109E0826842F08002E0
:103D500082600AE0826842F40042826005E0826884
:103D600042F40002826000E000BF00BF704710B55F
:103D700000F5D87303EB01131B6803F004031372FF
:103D8000137A53B900F5D87303EB01131B6840F2A3
:103D9000FF7404EA5353136009E000F5D87303EB92
:103DA00001131B686FF0604404EAD303536000F50D
:103DB000D87303EB01131B6803F00203537200F581
:103DC000D87303EB01135B6803F00F03937200F5E4
:103DD000D87303EB01135B681B0AD37400F5D87327
:103DE00003EB01139B68D37200F5D87303EB011347
:103DF0009B681C0A147300F5D87303EB01139B68CE
:103E00001C0C547300F5D87303EB01139B681B0E55
:103E1000937300F5D87303EB0113DB68D37300F5DC
:103E2000D87303EB0113DB681C0A147400F5D87314
:103E300003EB0113DB681C0C547400F5D87303EB1F
:103E40000113DB681B0E937421B9C36843F0200390
:103E5000C36003E0036943F02003036110BD21B98F
:103E6000C26842F02002C26003E0026942F0200210
:103E7000026170470246002019B9D36803F00300BD
:103E800006E0012903D1136903F0030000E00020DC
:103E9000704710B502460B4600204FF6FF71BBB9C4
:103EA000146824F0020444F00104146000E0491E88
:103EB000546804F00304012C01D00029F7D15468A0
:103EC00004F00304012C01D0002032E0012030E096
:103ED000012B13D1146824F00304146000E0491E80
:103EE000546804F003040CB10029F8D1546804F0BC
:103EF00003040CB100201CE001201AE0022B17D1B2
:103F0000146824F0010444F00204146000E0491E27
:103F1000546804F00304022C01D00029F7D154683E
:103F200004F00304022C01D0002002E0012000E094
:103F3000002010BD014600200A6822F0010242F074
:103F400002020A604A6802F00302022A00D101203C
:103F5000704701464FF6FF7200200B6823F0020302
:103F60000B6000E0521E4B6803F00203022B01D1EC
:103F7000002AF7D14B6803F00203022B00D0012086
:103F80007047014600208A6902F0700070470146C0
:103F900000208A69100E7047014600208A69C2F32A
:103FA000074070471AB143690B43436102E043691C
:103FB0008B434361704710B50246002001F4700343
:103FC00043B19369C1F3130423400BB101202DE0E9
:103FD00000202BE001F0807343B15368C1F3130458
:103FE00023400BB1012021E000201FE001F000631D
:103FF00043B19368C1F3130423400BB1012015E0D2
:10400000002013E001F0007343B1D368C1F313043F
:1040100023400BB1012009E0002007E01369C1F340
:10402000130423400BB1012000E0002010BD00224A
:10403000244B994202D10023836111E0C1F31302A2
:1040400001F000730BB1C2600AE001F080630BB1B4
:10405000026105E001F000630BB1826000E04260A4
:1040600070470246002002EA01030BB1012000E084
:104070000020704770B504460D4600266069284050
:10408000002872D0B5F5807F69D01DDC082D42D0A4
:1040900006DC012D2DD0022D31D0042D7FD134E04E
:1040A000102D3ED0202D42D0402D78D145E000008B
:1040B00003000004000300080000031000010008D2
:1040C0000001FFF77000F030B5F5004F61D009DC5A
:1040D000B5F5007F4AD0B5F5806F4DD0B5F5006FCE
:1040E0005DD150E0B5F5803F2DD0B5F5003F56D1FC
:1040F0002FE0A0685549FFF7B4FF064651E0E0689D
:104100000321FFF7AEFF06464BE0E0680821FFF70A
:10411000A8FF064645E0E0681021FFF7A2FF06462B
:104120003FE020690321FFF79CFF064639E0206944
:104130000821FFF796FF064633E020691021FFF7BC
:1041400090FF06462DE060680821FFF78AFF0646CB
:1041500027E060681021FFF784FF064621E0A06990
:104160000121FFF77EFF06461BE01BE0A06902214C
:10417000FFF777FF064614E0A0690421FFF771FFFF
:1041800006460EE00BE0A0697021FFF76AFF0646C5
:1041900007E060680421FFF764FF064601E000269F
:1041A00000BF00E00026304670BDB1F5007F3AD078
:1041B0000FDC202928D006DC01291CD004291DD0C1
:1041C000082940D11DE0402921D0B1F5807F3AD1A6
:1041D00026E0B1F5004F31D006DCB1F5806F25D077
:1041E000B1F5006F2FD124E0B1F5803F12D0B1F5C9
:1041F000003F28D111E0154A826025E00822C26004
:1042000022E01022C2601FE0082202611CE010229E
:10421000026119E00822426016E01022426013E0B9
:104220000422426010E0042242600DE00422426059
:104230000AE0002282610422426005E000228261DD
:104240000422426000E000BF00BF7047010101008E
:10425000016821F00101016000210160416081607D
:10426000C160016121214161DB49884204D13D21C6
:10427000D94A103A91608CE0D7491831884205D16B
:104280004FF47461D44A103A916082E0D2493031DF
:10429000884205D14FF47411CF4A103A916078E00A
:1042A000CD494831884205D14FF07461CA4A103A6D
:1042B00091606EE0C8496031884204D1C749C64A5E
:1042C000103AD16065E0C4497831884204D1C449CC
:1042D000C14A103AD1605CE0BF499031884204D1B4
:1042E000C049BD4A103AD16053E0BB49A831884269
:1042F00005D14FF03D51B84A103AD16049E0BA4972
:10430000884204D13D21B84A083A116041E0B649DB
:104310001831884205D14FF47461B34A083A1160EC
:1043200037E0B1493031884205D14FF47411AE4ABB
:10433000083A11602DE0AC494831884205D14FF070
:104340007461A94A083A116023E0A74960318842A4
:1043500004D1A249A44A121F11601AE0A24978317F
:10436000884204D19E49A04A121F116011E09E4963
:104370009031884204D19B499B4A121F116008E08A
:104380009949A831884204D14FF03D51964A121FF5
:104390001160704710B500220268944B1A40CC6837
:1043A0000B6823434C6923438C692343CC69234323
:1043B0000C6A23434C6A23438C6A23434C6B23438C
:1043C0008C6B23431A430260426922F00702D1E951
:1043D0000B3423431A4342610B6943604B6883608B
:1043E0008B68C36010BD0021016041608160C160C5
:1043F000016141618161C161016241628162C162A9
:10440000016341638163704721B1026842F0010298
:10441000026003E0026822F001020260704721B1ED
:10442000026842F40042026003E0026822F40042A3
:104430000260704721B1026842F02002026003E08E
:10444000026822F020020260704741607047014616
:10445000486880B2704722B1036843F400230360C8
:1044600003E0036823F4002303600161704721B176
:10447000026842F48022026003E0026822F4802293
:10448000026070470AB1016100E0C16070470146F7
:1044900000200A6802F400220AB1012000E0002096
:1044A0007047014600200A6802F001020AB10120AB
:1044B00000E000207047014600204A6902F0380001
:1044C000704730B503460A4600200024464DAB42F3
:1044D00002D24149103901E04349103902F0005538
:1044E0000DB14C6800E00C68414D2C4004EA020517
:1044F0000DB1012000E0002030BD02463A4B9A4247
:1045000002D23548103801E03748103801F0005326
:104510001BB1374B0B40C36002E0354B0B4083604F
:10452000704710B501F080034BB122B1436943F0ED
:104530008003436103E0436923F0800343618029E2
:104540000BD02AB1036801F01E042343036004E08A
:10455000036801F01E04A343036010BD70B502465A
:10456000002000240025204EB24202D21A4B103BFC
:1045700001E01D4B103B1F4E0E4036B11E2606EAD1
:10458000D124166806EA040502E0566906F08005A3
:1045900001F000560EB15C6800E01C68144E344017
:1045A00004EA010616B10DB1012000E0002070BD43
:1045B00002460D4B9A4202D20748103801E00A48E1
:1045C000103801F000531BB1094B0B40C36002E0EF
:1045D000074B0B4083607047106002403D00002095
:1045E000400F002000003D20106402403F801CF07E
:1045F0007D0F7D0F3C0F3C0F002044490860091DD2
:104600000860091D0860091D086041483F491431D0
:104610000860704700213D498279002A3AD00A4655
:10462000126803689A430B461A600A1D12680368F1
:104630009A430B1D1A60027911440A6803681A43F1
:104640000A60324A0832126803689A432F4B0833D3
:104650001A601A1D126803689A432C4B0C331A60B7
:104660004279102A0ED11A1F126803681A43274B89
:1046700008331A601A1D126803681A43234B0C335F
:104680001A600DE02149427911440A6803681A430F
:104690000A6005E0027911440A6803689A430A60D7
:1046A00070470021016001710C214171002181716D
:1046B00070471649103109680143144A10321160DD
:1046C000704701460020114A143212680A400AB1AC
:1046D000012000E0002070470C4914310860704749
:1046E000014600200022094B1B6803EA0102074B28
:1046F00014331B680B4013B10AB1012000E0002005
:10470000704702491431086070470000003C0140C6
:10471000FFFF7F0010B504468C48844208D1012178
:10472000084600F000FB0021012000F0FCFA5EE0EA
:104730008748844208D10121022000F0F4FA0021C8
:10474000022000F0F0FA52E08248844208D10121B0
:10475000042000F0E8FA0021042000F0E4FA46E02A
:104760007D48844208D10121082000F0DCFA0021B4
:10477000082000F0D8FA3AE07848844208D10121B4
:10478000102000F0D0FA0021102000F0CCFA2EE02A
:104790007348844208D10121202000F0C4FA00218E
:1047A000202000F0C0FA22E06E48844208D10121A6
:1047B000402000F0B8FA0021402000F0B4FA16E0E2
:1047C0006948844208D10121802000F0ACFA002120
:1047D000802000F0A8FA0AE06448844207D1012151
:1047E000801500F0A0FA0021A01500F09CFA10BD81
:1047F000F0B50A4600210023002400BF3DE001255A
:1048000005FA01F3156805EA03049C4234D10568F2
:104810004F000326BE40B543056015794E00B540F4
:104820000668354305601579012D02D01579022DF2
:1048300016D185684F000326BE40B5438560557983
:104840004E00B540866835438560456801268E4038
:10485000B5434560456896798E40B6B235434560AC
:10486000C5684F000326BE40B543C560D5794E00EC
:10487000B540C6683543C560491C1029BFD3F0BD9B
:104880004FF6FF7101600021017141718171C171A9
:10489000704708B54FF480320092009A0A430092A4
:1048A000009AC261C161009AC261C2690092C26984
:1048B000009208BD0246002013690B400BB1012095
:1048C00000E0002070470146086980B27047024648
:1048D000002053690B400BB1012000E0002070471D
:1048E0000146486980B27047018370474183704731
:1048F0000AB1018300E0418370474161704742691A
:104900004A4042617047F0B5002300244D07ED0E88
:1049100002FA05F3CE1000F1200555F826504E0797
:10492000F70E0F26BE40B543CF1000F1200646F823
:104930002750CE1000F1200555F8265045EA030413
:10494000CE1000F1200545F82640F0BD00000240E1
:104950000004024000080240000C02400010024027
:104960000014024000180240001C024000200240D7
:10497000FA48006840F00100F84908600020F74953
:1049800008310860F5480068F5490840F3490860B7
:10499000F448091D0860081F006820F48020091FE2
:1049A00008600020ED490C31086070470021EB4A97
:1049B000921C117011460870704710B50146002214
:1049C000002300204A11012A02D1E44C236808E0A8
:1049D000022A03D1E14C7034236802E0DF4C7434C6
:1049E000236801F01F02012494401C400CB10120F7
:1049F00000E0002010BD38B5002000900024002504
:104A000000BF3120FFF7D9FF05460098401C0090F9
:104A10000098B0F5A06F01D0002DF2D03120FFF743
:104A2000CCFF08B1012400E00024204638BD014637
:104A30000020CA4A106820F0F80040EAC100106067
:104A40007047C949086070470021C44A703211702C
:104A50001170012802D004280AD104E00121BF4AC4
:104A60007032117005E00521BC4A7032117000E00F
:104A700000BF00BF7047BD490860704770B5049C17
:104A800041EA82150126C6EB530645EA0645054371
:104A900045EA0465B14E361D356070BDB249086601
:104AA0007047820142EA0172AC4B84331A6070474E
:104AB000AD4988667047AC49C8647047024600201B
:104AC000A64B0833186820F0EC6042EA0103184353
:104AD000A24B083318607047024600209F4B0833F2
:104AE000186820F0784042EA010318439B4B0833D2
:104AF0001860704701460020984A0832106820F07C
:104B0000030008431060704794480830006800F0C4
:104B10000C00704701460020904A0832106820F0CF
:104B2000F000084310607047014600208B4A0832AD
:104B3000106820F4E05008431060704701460020E0
:104B4000864A0832106820F4604040EAC1001060D4
:104B50007047F0B500210022002402250026022320
:104B60007E4F08373F6807F00C0121B1042905D0BA
:104B7000082937D105E07E4F076036E07D4F07609A
:104B800033E0764F3F1D3F68C7F38056734F3F1D9C
:104B90003F6807F03F036EB1764FB7FBF3F7DFF8DE
:104BA000BCC10CF1040CDCF800C0CCF3881C07FB82
:104BB0000CF40CE06E4FB7FBF3F7DFF8A0C10CF17B
:104BC000040CDCF800C0CCF3881C07FB0CF4634F2A
:104BD0003F1D3F68C7F301477F1C7D00B4FBF5F71D
:104BE000076002E0624F076000BF00BF5B4F0837FD
:104BF0003F6807F0F00109095F4F7A5C0768D7400A
:104C00004760564F08373F6807F4E051890A5A4F0A
:104C10007A5C4768D7408760504F08373F6807F491
:104C20006041490B544F7A5C4768D740C760F0BD7C
:104C3000002100F44072B2F5407F0AD1474A0832A1
:104C4000116821F4F8114D4A02401143434A0832D9
:104C50001160424A70321268C0F30B031A433F4B93
:104C600070331A60704741494439086070473F49C2
:104C700040390860704742490860704739B1374A87
:104C8000303212680243354B30331A6006E0334A43
:104C9000303212688243314B30331A60704739B179
:104CA0002E4A3432126802432C4B34331A6006E029
:104CB0002A4A343212688243284B34331A607047D0
:104CC00039B1264A383212680243244B38331A600D
:104CD00006E0224A383212688243204B38331A6089
:104CE000704739B11D4A4032126802431B4B4033B2
:104CF0001A6006E0194A403212688243174B40336B
:104D00001A60704739B1154A443212680243134B96
:104D100044331A6006E0114A4432126882430F4B52
:104D200044331A60704739B10C4A1032126802439A
:104D30000A4B10331A6006E0084A103212688243A8
:104D4000064B10331A607047E1B1044A14321268FE
:104D50000243024B14331A6019E00000003802408D
:104D6000FFFFF6FE1030002400004742800E47424D
:104D70000024F40040787D01C8000020FFFCFF0FF4
:104D80005C0147425B4A126882435A4B1A60704783
:104D900039B1584A121D12680243564B1B1D1A6046
:104DA00006E0544A121D12688243524B1B1D1A60C2
:104DB000704739B14F4A0C32126802434D4B0C33E5
:104DC0001A6006E04B4A0C3212688243494B0C339E
:104DD0001A60704739B1474A103212680243454B96
:104DE00010331A6006E0434A103212688243414B86
:104DF00010331A60704739B13E4A3C3212680243A0
:104E00003C4B3C331A6006E03A4A3C32126882431B
:104E1000384B3C331A60704739B1364A4032126819
:104E20000243344B40331A6006E0324A4032126883
:104E30008243304B40331A60704739B12D4A4432B7
:104E4000126802432B4B44331A6006E0294A44326D
:104E500012688243274B44331A60704739B1254AA0
:104E60004C3212680243234B4C331A6006E0214A4D
:104E70004C32126882431F4B4C331A60704739B171
:104E80001C4A5032126802431A4B50331A6006E033
:104E9000184A503212688243164B50331A607047DA
:104EA00039B1144AD21F12780243124BDB1F1A7019
:104EB00006E0104AD21F127882430E4BDB1F1A7095
:104EC00070470C486030006840F0807009496031DC
:104ED0000860704701460020064A083A12680A40F6
:104EE0000AB1012000E0002070470249891F0870C4
:104EF000704700001438024010B50446FE48844252
:104F000008D101210846FFF765FF00210120FFF7C6
:104F100061FF9DE0B4F1804F08D101210846FFF701
:104F200048FF00210120FFF744FF91E0F34884424D
:104F300008D101210220FFF73CFF00210220FFF7EA
:104F400038FF85E0EE48844208D101210420FFF7B4
:104F500030FF00210420FFF72CFF79E0E94884426C
:104F600008D101210820FFF724FF00210820FFF7C6
:104F700020FF6DE0E448844208D101211020FFF7B2
:104F800018FF00211020FFF714FF61E0DF48844282
:104F900008D101212020FFF70CFF00212020FFF77E
:104FA00008FF55E0DA48844208D101210220FFF7CA
:104FB00011FF00210220FFF70DFF49E0D548844290
:104FC00009D101210804FFF705FF00214FF48030CB
:104FD000FFF700FF3CE0D048844209D1012148049A
:104FE000FFF7F8FE00214FF40030FFF7F3FE2FE04B
:104FF000CA48844209D101218804FFF7EBFE002151
:105000004FF48020FFF7E6FE22E0C548844208D135
:1050100001214020FFF7CDFE00214020FFF7C9FE0F
:1050200016E0C048844208D101218020FFF7C1FE6C
:1050300000218020FFF7BDFE0AE0BB48844207D173
:1050400001218015FFF7B5FE0021A015FFF7B1FE85
:1050500010BD00220288A84B98420ED0AC4B98425B
:105060000BD0B0F1804F08D0A44B984205D0A44B90
:10507000984202D0A34B984204D14FF68F731A4046
:105080004B881A43A04B984207D0A04B984204D0BB
:105090004FF6FF431A400B891A4302804B68C362E4
:1050A0000B880385944B984202D0994B984201D1CA
:1050B0008B7A03860123838270474FF0FF31416072
:1050C00000210180018141808172704701858282C7
:1050D00070470A46002101884FF68F73194011432B
:1050E0000180704741627047C16270470146486A5B
:1050F00070470146088D704721B1028842F00202D4
:10510000028004E002884FF6FD731A400280704767
:1051100021B1028842F00402028004E002884FF6C6
:10512000FB731A400280704721B1028842F080026E
:10513000028004E002884FF67F731A4002807047B5
:1051400002884FF6F7731A40028002880A430280F1
:10515000704702884FF6FF431A40028002880A43D4
:105160000280704721B1028842F00102028004E00F
:1051700002884FF6FE731A400280704770B5002413
:1051800000220023058C4FF6FE7635400584028C04
:105190008388048B4FF68F752C40B51E2C400D88EC
:1051A0002C43751E2A408D892A434D882A43524D2F
:1051B000A84202D0564DA84213D14FF6F7752A40A7
:1051C000CD892A434FF6FB752A408D882A434FF636
:1051D000FF652B404FF6FF552B400D8A2B434D8A20
:1051E0002B43838004838D684563028470BD70B552
:1051F000002400220023058C4FF6EF76354005840D
:10520000028C8388048B48F6FF752C404FF6FF45CF
:105210002C400D884FF6FF7606EA05252C434FF605
:10522000DF752A408D8906EA05152A434D8806EA6E
:1052300005152A43304DA84202D0354DA8421DD154
:105240004FF67F752A40CD894FF6FF7606EA0515A1
:105250002A434FF6BF752A408D8806EA05152A4372
:105260004FF6FF352B404FF2FF752B400D8A06EAB3
:1052700085052B434D8A06EA85052B4383800483ED
:105280008D688563028470BD70B500240022002300
:10529000058C4FF6FF6635400584028C8388848B2D
:1052A0004FF68F752C404FF6FC752C400D882C4323
:1052B0004FF6FF552A408D894FF6FF7606EA052501
:1052C0002A434D8806EA05252A430B4DA84202D001
:1052D0000F4DA84238D14FF2FF752A40CD894FF6C5
:1052E000FF7606EA05252A434FF6FF352A408D88CA
:1052F00006EA05252A4319E00000014000040040A9
:1053000000080040000C0040001000400014004065
:1053100000040140004001400044014000480140B9
:1053200000180040001C0040002000404EF6FF75B1
:105330002B404DF6FF752B400D8A06EA05152B43D1
:105340004D8A06EA05152B43838084838D68C563E7
:10535000028470BD70B5002200230024058C4EF637
:10536000FF7635400584038C8488828B48F6FF7570
:105370002A404FF6FF452A400D884FF6FF7606EA91
:1053800005252A434DF6FF752B408D8906EA053524
:105390002B434D8806EA05352B43FE4DA84202D02B
:1053A000FD4DA84208D14BF6FF752C400D8A4FF6F3
:1053B000FF7606EA85152C43848082838D68056418
:1053C000038470BD002101804180818081608181E2
:1053D000C18101824182704770B5034600200024DC
:1053E0001846183001258D40ACB21D8CA5431D8494
:1053F00009B108290AD100EB610005684FF68F76E4
:10540000354005600568154305600FE00D1FC5F3C5
:105410004E052844056848F6FF7635400560056866
:105420004FF6FF7606EA02263543056070BD4163FC
:10543000704781637047C1637047016470470A46D3
:105440000021018B4FF68F73194011430183704780
:105450000A460021018B48F6FF7319404FF6FF738F
:1054600003EA02231943018370470A460021818B16
:105470004FF68F7319401143818370470A4600210C
:10548000818B48F6FF7319404FF6FF7303EA02233E
:105490001943818370470A460021018B4FF6F77349
:1054A00019401143018370470A460021018B4FF2D6
:1054B000FF7319404FF6FF7303EA02231943018378
:1054C00070470A460021818B4FF6F773194011434C
:1054D000818370470A460021818B4FF2FF73194088
:1054E0004FF6FF7303EA02231943818370470A468C
:1054F0000021018B4FF6FB73194011430183704764
:105500000A460021018B4FF6FF3319404FF6FF7317
:1055100003EA02231943018370470A460021818B65
:105520004FF6FB7319401143818370470A460021EF
:10553000818B4FF6FF3319404FF6FF7303EA0223C6
:105540001943818370470A460021018B4FF67F7310
:1055500019401143018370470A460021018BC1F3B2
:105560000E014FF6FF7303EA0223194301837047CC
:105570000A460021818B4FF67F73194011438183C6
:1055800070470A460021818BC1F30E014FF6FF736D
:1055900003EA02231943818370470A460021018CE4
:1055A0004FF6FD7319401143018470470A460021EC
:1055B000018C4FF6F77319401143018470470A4676
:1055C0000021018C4FF6DF7319404FF6FF7303EA99
:1055D00002131943018470470A460021018C4FF6DB
:1055E0007F7319404FF6FF7303EA021319430184D6
:1055F00070470A460021018C4FF6FF5319404FF6C1
:10560000FF7303EA02231943018470470A4600210D
:10561000018C4FF2FF7319404FF6FF7303EA022328
:105620001943018470470A460021018C4DF6FF732F
:1056300019404FF6FF7303EA0233194301847047A0
:1056400030B5002301248C40A3B2048C9C43048415
:10565000048C02FA01F5ADB22C43048430BD30B5A0
:10566000002304248C40A3B2048C9C430484048C47
:1056700002FA01F5ADB22C43048430BD828B4FF2A7
:10568000FF331A408283828B4FF6FF7303EA0123B4
:105690001A4382837047F0B50C461546002100225C
:1056A0000026078C4EF6FF7C07EA0C070784818BE7
:1056B000028C4FF6FF7707EA043640F6FF47394081
:1056C0004FF6FF7707EA052739434FF6FF7707EADA
:1056D0000337394345F6FF773A4046F480573A435B
:1056E00081830284F0BD828B4FF6F3731A4082836C
:1056F000828B0A4382837047F0B50C461546002121
:1057000000220026078C4FF6FF6C07EA0C0707847F
:10571000818B028C4FF6FF7707EA04264FF60C7751
:1057200039404FF6FF7707EA03172F4339434FF20B
:10573000FF573A4046F480773A4381830284F0BDB4
:10574000028B4FF2FF331A400283028B4FF6FF7336
:1057500003EA01231A4302837047F0B50C4615464D
:10576000002100220026078C4FF6EF7C07EA0C0789
:105770000784018B028C4FF6FF7707EA041640F688
:10578000FF4739404FF6FF7707EA033739434FF6B3
:10579000FF7703E0000001400004014007EA05270D
:1057A00039434FF65F773A4046F010073A4301839A
:1057B0000284F0BD028B4FF6F3731A400283028B12
:1057C0000A4302837047F0B50C46154600210022BB
:1057D000068C4FF6FE773E400684018B028C4FF616
:1057E0000C7631407E1C06EA03162E4331434FF6F9
:1057F000F576324044F00106324301830284F0BD65
:1058000070B505460C46208850B92389A288618866
:105810002846FFF7D8FFE1882846FFF7CBFF25E0B1
:10582000208804280AD12389A28861882846FFF7A6
:1058300094FFE1882846FFF783FF17E020880828B7
:105840000AD12389A28861882846FFF755FFE1889D
:105850002846FFF748FF09E02389A2886188284687
:10586000FFF719FFE1882846FFF708FF70BD002108
:1058700001804180012181800021C1800181704728
:105880002DE9F04105460C4600260127608808B93D
:10589000022600E00026A088012801D1022700E0AE
:1058A00001272088A0B92389A28861882846FFF7AC
:1058B0008AFFE1882846FFF77DFF23893A46314673
:1058C0002846FFF74AFFE1882846FFF739FF13E033
:1058D0002389A28861882846FFF73FFFE188284690
:1058E000FFF72EFF23893A4631462846FFF76BFF24
:1058F000E1882846FFF75EFFBDE8F0810146486B6E
:1059000070470146886B70470146C86B7047014677
:10591000086C70470A884B881A438B881A43CB88D7
:105920001A430B891A434B891A438B891A43A0F8EF
:10593000442070470021018041808180C180018125
:1059400041818181704731B1B0F8442042F4004276
:10595000A0F8442005E0B0F84420C2F30E02A0F8FD
:105960004420704721B1828842F00402828004E022
:1059700082884FF6FB731A408280704721B182887B
:1059800042F00102828004E082884FF6FE731A40E2
:10599000828070471AB183890B43838102E0838937
:1059A0008B43838170478182704702460020138AAF
:1059B0000B400BB1012000E000207047CA43028277
:1059C000704730B50246002000230024158A05EAFE
:1059D0000103958905EA010413B10CB1012000E02F
:1059E000002030BDCA430282704741EA0203A0F89A
:1059F000483070471AB183890B43838102E0838961
:105A00008B438381704721B1828842F008028280F3
:105A100004E082884FF6F7731A408280704701894C
:105A20004FF6F8721140018170470A460021018942
:105A30004FF68F73194011430181704730B504460A
:105A40000D4629462046FFF7F0FF208940F0070069
:105A5000208130BD2DE9F04104460D4616461F4613
:105A6000602D06D13B46012231462046FFF775FEE8
:105A700005E03B46012231462046FFF7A4FE2946B9
:105A80002046FFF7D2FF208940F007002081BDE8C3
:105A9000F08130B50C4600210189C9B24FF6FF757F
:105AA00005EA0325154325432943018130BD2DE92E
:105AB000F04105460E4617469846002443463A46AE
:105AC00031462846FFF7E5FF2C894FF6F870044071
:105AD00044F007044FF68F70044044F070042C81AA
