:020000040800F2
:10000000401F0020F1690008190B00081B0B0008B5
:100010002B0B00082F0B0008330B0008000000001A
:10002000000000000000000000000000036A00085B
:10003000370B000800000000076A0008096A000882
:100040000B6A00080B6A00080B6A00080B6A0008BC
:100050000B6A00080B6A00080B6A00080B6A0008AC
:100060000B6A0008992100080B6A00080B6A000857
:10007000B92D0008AF310008FB2D000885310008BC
:100080000B6A00080B6A00080B6A0008A11A000836
:10009000BD1A0008E11A00080B6A00080B6A000884
:1000A0000B6A00080B6A00080B6A00080B6A00085C
:1000B0000B6A00080B6A00080B6A00080B6A00084C
:1000C0000B6A00080B6A00080B6A00080B6A00083C
:1000D0000B6A0008AF1600081B280008792C0008DE
:1000E0000B6A00080B6A00080B6A00080B6A00081C
:1000F0000B6A00080B6A00080B6A000855340008F8
:100100000B6A00080B6A0008952200080B6A0008B9
:1001100039300008F13300080B6A00080B6A000848
:100120000B6A0008C5370008D51700080B6A0008DD
:100130000B6A00080B6A00080B6A00082B1E0008F7
:10014000471E0008E91F00080B6A00080B6A000838
:100150000B6A0008E3370008EB1700084F37000868
:100160000B6A00080B6A00080B6A00080B6A00089B
:100170000B6A00080B6A00080B6A00080B6A00088B
:100180000B6A00080B6A000800F002F800F092F811
:100190000AA090E8000C82448344AAF10107DA45E2
:1001A00001D100F087F8AFF2090EBAE80F0013F0A2
:1001B000010F18BFFB1A43F0010318472084000009
:1001C00040840000103A24BF78C878C1FAD852079A
:1001D00024BF30C830C144BF04680C6070470000C1
:1001E0000023002400250026103A28BF78C1FBD840
:1001F000520728BF30C148BF0B6070476E2906F018
:100200001385702906F05586662908F0E480652973
:1002100008F0E180672908F0DE80612908F0DD80C0
:1002200003681B0A28BF41F08001692906F0C084D9
:10023000642906F0BD84752906F0BA846F2906F09A
:10024000E285782906F02186E92906F07D85E429F2
:1002500006F07A85F52906F07785EF2906F0DF8527
:10026000F82906F020860368DB0928BF41F08001E9
:10027000632907F02383732907F02883E32907F014
:100280003383F32907F03883002070471FB508F047
:100290009DF807F083FB04000020002108F080F89F
:1002A000401C60600020002108F064F8E0601FBD81
:1002B00010B510BD07F044FB1146FFF7E7FF00F053
:1002C00067FB07F021FC03B4FFF7F2FF03BC02F069
:1002D000D7FB000010B54FF4A06003F01FFEA8206C
:1002E00001F0A6FA02F07AFB02F090FB02F0AEFBFE
:1002F0004FF4E13001F0E2F802F02CFA4FF47A709A
:1003000001F0F8FA012001F023FB40F2015001F066
:1003100057FC642001F0EEFA532140F2CF7001F057
:1003200081FFFEA001F040FA10BD2DE9FE4F80468E
:10033000894692460026002500240027A346002077
:10034000029001900090A9F57A7005B2A8F57A7034
:1003500004B2AAF57A7007B2002C01DD204600E055
:100360006042B0F5967F7BDD002D01DD284600E080
:100370006842B0F5967FF6DDED4890ED000AED4855
:1003800080ED000AB4F5967F21DD15F5967F1EDA23
:100390009FEDE90AE64880ED000A002C01DD2046C9
:1003A00000E06042002D01DD294600E0694208447A
:1003B000404200EE100AB8EEC00ADFEDE00A20EE7F
:1003C000200ABDEEC00A10EE100A06B2C1E014F514
:1003D000967F21DA15F5967F1EDA9FEDD90AD4486B
:1003E00080ED000A002C01DD204600E06042002D77
:1003F00001DD294600E069420844404200EE100A4F
:10040000B8EEC00ADFEDCD0A20EE200ABDEEC00A2C
:1004100010EE100A06B29CE014F5967F21DAB5F5CD
:10042000967F1EDD9FEDC40AC14880ED000A002CB6
:1004300001DD204600E06042002D01DD294600E09C
:100440006942084400EE100AB8EEC00ADFEDBB0AAC
:1004500020EE200ABDEEC00A10EE100A06B278E0C7
:1004600023E0B4F5967F74DDB5F5967F71DD9FEDE1
:10047000B40AAF4880ED000A002C01DD204600E000
:100480006042002D01DD294600E06942084400EE8B
:10049000100AB8EEC00ADFEDA90A20EE200ABDEE70
:1004A000C00A10EE100A06B253E0002C01DD20460F
:1004B00000E06042B0F5967F26DD002D01DD284684
:1004C00000E06842B0F5967F1EDA994890ED000A88
:1004D000984880ED000AB4F5967F08DD9FED990AF3
:1004E000934880ED000AA4F5967006B231E014F549
:1004F000967F2EDA9FED940A8D4880ED000A04F570
:100500009670404206B224E0002C01DD204600E057
:100510006042B0F5967F1CDA002D01DD284600E030
:100520006842B0F5967F14DD814890ED000A81485D
:1005300080ED000A9FED850A7D4880ED000AB5F543
:10054000967F03DDA5F5967006B202E005F596707C
:1005500006B2002F01DD384600E07842B0F5967F04
:100560007BDDB7F5967F03DDA7F5967006B202E056
:1005700007F5967006B26E4890ED000A6D4880ED62
:10058000000A9FED6F0A6A4880ED000A694890ED05
:10059000000A6748D0ED000A30EE600AB5EEC00AE6
:1005A000F1EE10FA08DD634890ED000A6048D0EDE6
:1005B000000A30EE600A09E05E4890ED000A5C48EF
:1005C000D0ED000A30EE600AB1EE400AF3EE040A04
:1005D000B4EEE00AF1EE10FA02DD19205C49088061
:1005E0005B480088401E00B2594908800846B0F9AF
:1005F0000000002844DC0020088006EB460000B222
:100600005449088006EB460000B25349088006EBC7
:10061000460000B25149088006EB460000B250493E
:100620000880434890ED000AB1EE400ADFED4D0A24
:1006300020EE200ABDEEC00A10EE10BA90ED000ABE
:10064000DFED480A20EE200ABDEEC00A8DED020A59
:1006500090ED000AB1EE400A00E012E0DFED410A41
:1006600020EE200ABDEEC00A8DED010A90ED000AD1
:10067000DFED3C0A20EE200ABDEEC00A8DED000A37
:100680001EE1002C01DD204600E06042B0F5967FBF
:1006900071DA002D01DD284600E06842B0F5967F52
:1006A00069DA9FED2A0A224880ED000A002670428E
:1006B00000EB800027490880704200EB800026494B
:1006C000088006EB86002549088006EB8600244951
:1006D0000880174890ED000ADFED220A20EE200A7C
:1006E000BDEEC00A10EE10BA90ED000ADFED1D0A53
:1006F00020EE200ABDEEC00A8DED020A90ED000A40
:10070000DFED180A20EE200ABDEEC00A8DED010AC9
:1007100090ED000ADFED130A26E02CE073797320D8
:10072000696E69742066696E697368210D0A00003C
:100730000400002008000020000034C29A99193FEC
:10074000000034420000B4420000B4C200000000C7
:100750000000002094000020960000209800002057
:100760009A000020CD380E4520EE200ABDEEC00ACA
:100770008DED000AA4E0D04890ED000ACF48D0EDFE
:10078000000A30EE600AB5EEC00AF1EE10FA08DD9C
:10079000C94890ED000AC948D0ED000A30EE600A61
:1007A00009E0C54890ED000AC448D0ED000A30EEDB
:1007B000600AB1EE400ADFEDC20AB4EEE00AF1EEE3
:1007C00010FA03DD2020BF49088029E0BA4890EDE7
:1007D000000ABA48D0ED000A30EE600AB5EEC00A51
:1007E000F1EE10FA08DDB44890ED000AB348D0ED00
:1007F000000A30EE600A09E0AF4890ED000AAF4809
:10080000D0ED000A30EE600AB1EE400AF3EE0E0AB7
:10081000B4EEE00AF1EE10FA02DD1420A9490880D6
:10082000A8480088401E00B2A64908800846B0F9D2
:10083000000000281BDC00200880704200EB400014
:10084000400000B2A0490880704200EB4000400028
:1008500000B29E49088006EB4600400000B29C4969
:10086000088006EB4600400000B29A490880934891
:1008700090ED000A5FED450A20EE200ABDEEC00AA9
:1008800010EE10BA90ED000A5FED4A0A20EE200A41
:10089000BDEEC00A8DED020A90ED000A5FED4F0A31
:1008A00020EE200ABDEEC00A8DED010A90ED000A8F
:1008B0005FED540A20EE200ABDEEC00A8DED000A5D
:1008C0004FF44831584600F09EFB834908604FF4CE
:1008D0004831029800F097FB804908604FF4483196
:1008E000019800F090FB7E4908604FF44831009871
:1008F00000F089FB7B490860BDE8FE8F2DE9F047D9
:1009000004460D46914600260027B046A9F57A70A8
:100910000FFA80F8A5F57A7007B2A4F57A7006B2DE
:10092000B6F5967F02DD03F0A2FA07E016F5967F92
:1009300002DA03F0A3FA01E003F0A8FAB7F5967F14
:1009400002DD03F0A9FA07E017F5967F02DA03F05B
:10095000ABFA01E003F0AFFAB8F5967F02DD03F0E1
:10096000B0FA07E018F5967F02DA03F0B1FA01E079
:1009700003F0B5FABDE8F0875B480078401C5A499F
:10098000087008460078142801DD002008707047C0
:10099000FFF7A0FC03F070F8642000F0ABFF8AE0E2
:1009A000524800780028FAD000F0ECFA504800785D
:1009B00030B101280CD0022835D004286FD137E09F
:1009C00003F0DAF903F045FA4AA000F0EDFE66E024
:1009D0004B4800880D280DD14A48008802B24A4889
:1009E000008801B24948008800B2FFF79EFC00F081
:1009F00076FA17E04248008801280DD14448008863
:100A000002B24148008801B24048008800B2FFF7B6
:100A100075FF03F0B1F905E0394800880F2801D1CE
:100A200000F0FAFA3BE000F0F7FA00F013FA36E0D3
:100A300000F0CDFA374B93ED030ABDEEC00A10EE7D
:100A4000103A1AB2334B93ED020ABDEEC00A10EE13
:100A5000103A19B22F4B93ED010ABDEEC00A10EE09
:100A6000103A18B2FFF761FC2A4B93ED060ABDEE6F
:100A7000C00A10EE103A1AB2264B93ED050ABDEEED
:100A8000C00A10EE103A19B2224B93ED040ABDEEE3
:100A9000C00A10EE103A18B2FFF730FF00BF00BFD7
:100AA00000F095FA00F092FA01F0A8FEFFF764FF5B
:100AB00000200E49087073E70800002004000020A1
:100AC00000007042000000209400002096000020EA
:100AD000980000209A0000209C000020A000002028
:100AE000A4000020A80000200D00002034000020F9
:100AF000140000207374616E6462790D0A000000B6
:100B000048000020400000203C0000203A00002067
:100B10003E000020EC000020704705E006A000F039
:100B200043FE642000F0E6FEF8E700BFFEE700BFEA
:100B3000FEE700BFFEE77047686172646661756C2E
:100B4000742E2E2E0D0A000010B5A2B000248021B4
:100B500002A805F0A0FF00200190F1222146641CAC
:100B600002A8425401222146641C4254641CB3482A
:100B700090ED000A8DED010A9DF804202146641CC9
:100B800002A842549DF805202146641C42549DF859
:100B900006202146641C42549DF807202146641C0F
:100BA0004254A64890ED010A8DED010A9DF80420FB
:100BB0002046611CCCB202A90A549DF805202046AB
:100BC000611CCCB202A90A549DF806202046611C83
:100BD000CCB202A90A549DF807202046611CCCB271
:100BE00002A90A54954890ED020A8DED010A9DF87C
:100BF00004202046611CCCB202A90A549DF80520AD
:100C00002046611CCCB202A90A549DF80620204659
:100C1000611CCCB202A90A549DF807202046611C31
:100C2000CCB202A90A5408222046611CCCB202A907
:100C30000A5419222046611CCCB202A90A548DF82C
:100C40000A40214602A800F09DFD22B010BD0178A7
:100C5000F12901D1012100E000214278022A01D1CD
:100C6000012200E00022114031B1C178744A1170B4
:100C70000179517041799170704710B581780229DE
:100C800000DA10BD8B1EC25C0378712B01D10123E9
:100C900000E000234478082C01D1012400E0002466
:100CA0002340E3B3C378674C63700379A37043793F
:100CB000E370C379847943EA042300EE103AB8EE76
:100CC000C00A604B83ED010A437A047A43EA0423A5
:100CD00000EE103AB8EEC00A5A4B83ED020AC37A0E
:100CE000847A43EA042300EE103AB8EEC00A554B6A
:100CF00083ED030A437B047B43EA042300EE103AAE
:100D0000B8EEC00A4F4B83ED040AC37B847B43EAF1
:100D1000042300EE103AB8EEC00A4A4B00E00CE0A3
:100D200083ED050A437C047C43EA042300EE103A79
:100D3000B8EEC00A434B83ED060A00BFA1E710B529
:100D400090B000244021684605F0A5FE3E4800789A
:100D5000401C3D490870084600780A286BDD0020D9
:100D6000087071222046611CCCB20DF800200722C9
:100D70002046611CCCB20DF80020601CC4B2334880
:100D800002782046611CCCB20DF8002000222046DB
:100D9000611CCCB20DF800202046611CCCB20DF8CD
:100DA00000202B4802782046611CCCB20DF80020B0
:100DB000274842782046611CCCB20DF80020244818
:100DC00082782046611CCCB20DF800202048C27801
:100DD0002046611CCCB20DF800201D480279204647
:100DE000611CCCB20DF80020194842792046611CE4
:100DF000CCB20DF8002000222046611CCCB20DF8C8
:100E0000002008222046611CCCB20DF800201922D7
:100E10002046611CCCB20DF800208DF80240A01EC7
:100E2000C1B2684601F0B8FDA11E0DF801002146CF
:100E3000684600F0A7FC10B010BD0000D00E0020E6
:100E40000E000020EC000020110000201400002003
:100E50002A00002010B5FE480078012806D002289C
:100E600014D0032822D0042837D132E003F01CF834
:100E7000F8488078022808D1F648C078022804D1C2
:100E800003F019F80220F249087026E003F020F878
:100E9000F0480079012808D1EE484079012804D1B2
:100EA00003F01DF80320EA49087016E002F0DFFFA6
:100EB000E848007801280BD1E6484078012807D19E
:100EC00002F0E4FF0420E2490870E3A000F06CFCAB
:100ED00003E00720DE49087000BF00BF10BD10B559
:100EE000E448007801280FD1E248407801280BD16E
:100EF000E048807840B9DF48C07828B90120DE4951
:100F00000870DC498870C870DB480078012804D07C
:100F1000022812D0032833D12BE002F0D2FFCD48B3
:100F20000079022808D1CB484079022804D102F088
:100F3000D6FF0220D049087022E002F0ADFF02F097
:100F40009DFFC4480078022812D1C2484078022888
:100F50000ED1C048807801280AD1BE48C078012847
:100F600006D102F0A8FF02F091FF0320C2490870E9
:100F700006E00720C04908700220C049487000BF41
:100F800000BF10BDBE480078012802D1BD490870DD
:100F90001BE0BA484078012803D10420B949087001
:100FA00013E0B6484078022802D1B64908700CE038
:100FB000B348007810B9B148407818B1B248007809
:100FC000012802D10020AF4908707047704710B562
:100FD0004FF48061AD4804F03BF818B90120A549F1
:100FE000087002E00020A34908704FF48051A74820
:100FF00004F02EF818B901209E49487002E0002044
:101000009C49487010BD884201DD084603E04A4211
:10101000904200DA4842704770B52DED028B0024F3
:101020009FED9B0AB0EE408A00259A480088401C3C
:1010300098490880084600883C2879DD002008800F
:101040008348007848B182480078072805D000BF5F
:101050009FED8F0AB0EE408AA3E08748007850B138
:1010600085480078072806D000249FED890AB0EE55
:10107000408A002595E0884840884EF660218842E5
:101080003ADD8648007870B90120844908707049BB
:10109000087000249FED7E0AB0EE408A002580A0F3
:1010A00000F082FB7DE07D480078012879D18548F9
:1010B0000078401C8349087008460078022810DD3B
:1010C000022008707549087000249FED710AB0EE87
:1010D000408A002500206B4908707BA000F064FB6B
:1010E0005FE06FF095049FED6A0AB0EE408A00253C
:1010F0007EA000F059FB54E067484088B0F5FE6FD1
:1011000017DD82484088B0F5FC6F12DC7F484088CC
:1011100000280EDD46249FED7E0AB0EE408A0125B0
:101120005D484288794841887AA000F03DFB38E06C
:10113000B0E159484088B0F5F86F17DA5648408852
:10114000002813DD71484088B0F5F86F0EDB4624A7
:101150009FED6F0AB0EE408A4FF0FF354E4842884F
:101160006A48418873A000F01FFB1AE06748408876
:1011700010B14948408830B900249FED450AB0EECF
:10118000408A00250DE06FF095049FED410AB0EE16
:10119000408A0025404842885C4841886CA000F0A5
:1011A00003FB012D42D171480480714804807148CD
:1011B0000480714804809FED710A28EE000ABDEE9C
:1011C000C00A10EE100A4FF44831FFF71CFF4042EE
:1011D0006B4908609FED690A28EE000ABDEEC00A5F
:1011E00010EE100A4FF44831FFF70DFF6549086013
:1011F0009FED620A28EE000ABDEEC00A10EE100A4A
:101200004FF44831FFF7FFFE40425F4908609FED11
:101210005B0A28EE000ABDEEC00A10EE100A4FF479
:101220004831FFF7F0FE5949086033E1681C68B99E
:10123000604200B24D490880604200B24C490880CB
:10124000604200B24B4908806042A1E0DEE000004D
:10125000120000202A00002072656C656173652011
:10126000706C616E65206973206F6B2E2E2E0D0AD7
:10127000000000001600002013000020EC000020F9
:1012800042000020140000200E0000200010024048
:10129000000000001C000020C40000201A000020F4
:1012A0006669727374206C696E652073746F702C3C
:1012B00072656C6561736520706C616E652E2E2E93
:1012C0000D0A00001B0000207365636F6E64206CC4
:1012D000696E652073746F702C6167762063686136
:1012E0006E67652E2E2E0D0A00000000676F2062CB
:1012F00061636B2C66696E64207365636F6E642036
:101300006C696E652E2E2E0D0A000000C0000020B4
:10131000000034427475726E2072696768742068C8
:101320006D63663A256420686D63623A25640D0A30
:10133000000000007475726E206C65667420686D24
:1013400063663A256420686D63623A25640D0A007D
:10135000676F206261636B20686D63663A25642065
:10136000686D63623A25640D0A0000009400002055
:1013700096000020980000209A000020CD380E45ED
:101380009C000020A0000020A4000020A800002055
:1013900000B2424908801FED070A28EE000ABDEEA0
:1013A000C00A10EE100A4FF44831FFF72CFE4042FD
:1013B0003B4908601FED0F0A28EE000ABDEEC00A87
:1013C00010EE100A4FF44831FFF71DFE3549086052
:1013D0001FED160A28EE000ABDEEC00A10EE100A34
:1013E0004FF44831FFF70FFE40422F4908601FEDD0
:1013F0001D0A28EE000ABDEEC00A10EE100A4FF4D6
:101400004831FFF700FE2949086043E0604200B21E
:1014100027490880604200B2264908802648048097
:101420001E4804801FED2B0A28EE000ABDEEC00AFC
:1014300010EE100A4FF44831FFF7E5FD1849086037
:101440001FED320A28EE000ABDEEC00A10EE100AA7
:101450004FF44831FFF7D7FD124908601FED390AF4
:1014600028EE000ABDEEC00A10EE100A4FF4483113
:10147000FFF7C9FD0C4908601FED400A28EE000A7D
:10148000BDEEC00A10EE100A4FF44831FFF7BBFD65
:1014900006490860BDEC028B70BD00009A00002078
:1014A0009C000020A0000020A4000020A800002034
:1014B00094000020960000209800002010B596B0FF
:1014C00004460121084603F0A7FF0121102003F084
:1014D000E7FF07220921CD4803F0E3FD07220A2197
:1014E000CA4803F0DEFD00208DF8560001208DF87B
:1014F000570002208DF854000002149002208DF84D
:10150000550014A9C14803F041FD02208DF8540094
:101510004002149014A9BD4803F038FDBC4804F003
:101520000BFF10940020ADF84400ADF84600ADF874
:101530004800ADF84C000C20ADF84A0010A9B448A2
:1015400004F048FF002240F22551B14805F080F830
:10155000002240F22661AE4805F07AF8012240F2FE
:101560002441AB4805F074F80121A94804F0BAFF02
:101570000121880503F050FF01224021A44805F015
:101580005EF801228021A24805F059F825208DF847
:101590003C0001208DF83D008DF83E008DF83F00A5
:1015A0000FA802F0C0FC46208DF83C0002208DF808
:1015B0003D008DF83E0001208DF83F000FA802F09D
:1015C000B2FC3A208DF83C0000208DF83D0002204E
:1015D0008DF83E0001208DF83F000FA802F0A3FC1B
:1015E0008C4803F003FA4FF0006000908848001D1B
:1015F00001908948029000200390802004900020F0
:1016000005904FF4806006900020079008904FF4FA
:10161000807009904FF440300A9000200B900C909D
:101620000D900E9069467B4803F082FA01217948BB
:1016300003F0B8FA7748783003F0D8F94FF000603B
:1016400000907348001D0190744802904020039060
:1016500080200490002005904FF4806006900020C8
:101660000790089009904FF480300A9000200B906A
:101670000C900D900E9069466648783003F058FA49
:1016800001228021624804F0DAFF01221021614822
:10169000783003F014FB00215E48783003F082FAC2
:1016A00016B010BD02465068081A80B2704770B577
:1016B0000024002540F22551554805F004F818B1E2
:1016C000534804F03EFFC4B240F22441504804F0B5
:1016D000FAFF18B35048FFF7BAFA4F48FFF7CDFAB0
:1016E00080214C48FFF7DEFF4D4908800021494822
:1016F00003F058FA00BF474803F0A1FA0028FAD1D6
:101700008021444803F06FFA0121424803F04AFA6D
:101710003F480088C5B23E488088C5B270BD10B54C
:10172000044600BF20213A4804F0B7FF0028F9D052
:10173000374804F006FF10BD70B504460D46394821
:101740000078F0B900213348783003F02BFA00BF5D
:101750003048783003F073FA0028F9D1002221468E
:101760002C48783003F05CFAA9B22A48783003F0AC
:101770003AFA01212748783003F014FA0120294968
:10178000087070BD70B505460E46002400BF04E029
:10179000285D22490855601CC4B2B442F8DB3146CA
:1017A0001E48FFF7C9FF70BD0FB438B505A80090FB
:1017B0001A48009A049905F03DF900200090174856
:1017C00005F04AF9044621461448FFF7B5FF38BC36
:1017D0005DF814FB10B514490E4803F08DFA18B1EA
:1017E00011490C4803F0B2FA10BD10B50F49094871
:1017F000783003F081FA38B100200A4908700B49AB
:101800000448783003F0A2FA10BD00000000024046
:1018100000100140406402400801002088010020BF
:10182000220000201E0000200080201000800028E0
:1018300010B504466FF0040002F0C2FBE11704EBA0
:101840005171C1F3C701404A11701046007800EB96
:101850004001C1EBC0104FF6FF7101EAC0003B49E7
:10186000088010BD0146384A12784A434FF0E02301
:101870005A6100229A611A46126942F001021A6105
:1018800000BF4FF0E022106900F001021AB100F42D
:101890008032002AF5D04FF0E022126922F00102D6
:1018A0004FF0E0231A6100229A6170470146274AEF
:1018B00012884A434FF0E0235A6100229A611A4687
:1018C000126942F001021A6100BF4FF0E022106974
:1018D00000F001021AB100F48032002AF5D04FF076
:1018E000E022126922F001024FF0E0231A61002287
:1018F0009A61704770B504464FF4077094FBF0F09E
:10190000C6B24FF4077094FBF0F100FB114085B2B2
:1019100005E04FF40770FFF7C9FF701EC6B2002E36
:10192000F7D115B12846FFF7C1FF70BD10B50021F2
:1019300007E04AF2104200BF131EA2F10102FBD1E0
:10194000491C8142F5D310BD240000202600002050
:1019500010B58AB004460121084603F05DFD01215F
:10196000480603F08CFD09220C21924803F099FBF4
:1019700009220B218F4803F094FB4FF4C0500190D3
:1019800002208DF8080000208DF80A0003208DF851
:10199000090001A9874803F0F9FA14208DF8000026
:1019A00001208DF8010002208DF8020001208DF841
:1019B0000300684602F0B7FA15208DF800000120F8
:1019C0008DF8010002208DF8020001208DF803003F
:1019D000684602F0A8FA13208DF8000001208DF867
:1019E00001008DF802008DF80300684602F09BFAB2
:1019F000714802F003FB07A802F024FC00208DF8D8
:101A000022008DF823008DF824008DF825008DF834
:101A1000260001208DF8270000208DF81E008DF88B
:101A20001F0008208DF8200003208DF821000620DB
:101A3000ADF81C0007A9604802F0F9FA00208DF803
:101A400016008DF8170001208DF818004FF6FF7072
:101A500000EA4410ADF80C000020ADF80E004FF67F
:101A6000FF70ADF81000401EADF812000020ADF878
:101A7000140001208DF8190003A802F062FB012276
:101A800002214D4802F05CFE012210214A4802F07A
:101A900057FE01221146484802F052FE0AB010BD1E
:101AA00010B50121444802F0B3FE30B10120434992
:101AB00008700121404802F046FF10BD00B585B016
:101AC00002213D4802F0A4FE40B102213A4802F052
:101AD0003AFF6A460021384802F017FD05B000BD04
:101AE00000B585B01021344802F092FE40B11021BB
:101AF000314802F028FF6A4601212F4802F005FD17
:101B000005B000BD2DE9F04186B006460F461546EA
:101B10000024A04600208DF80C008DF80D008DF8F3
:101B20000E50019600BF05E0395D0DF10F00015523
:101B3000601CC4B2AC42F7DB01E0601CC4B201A976
:101B40001D4802F0EDFB042801D17F2CF5DB06B027
:101B5000BDE8F0812DE9F04186B006460F461546F6
:101B60000024A04604208DF80C0000208DF80D0004
:101B70008DF80E50029600BF05E0395D0DF10F00A3
:101B80000155601CC4B2AC42F7DB09E008F101006A
:101B900000F0FF08B8F1050F02DD4FF0000805E086
:101BA00001A9054802F0BCFB0428EFD000BF06B035
:101BB000BDE8F081000002400064004028000020E1
:101BC00010B58AB004460121022003F025FC012152
:101BD000880603F054FC09220C21FA4803F061FA4C
:101BE00009220D21F74803F05CFA4FF440500190B0
:101BF00002208DF8080000208DF80A0003208DF8DF
:101C0000090001A9EF4803F0C1F940208DF8000058
:101C100001208DF8010002208DF8020001208DF8CE
:101C20000300684602F07FF941208DF80000012092
:101C30008DF8010002208DF8020001208DF80300CC
:101C4000684602F070F93F208DF8000001208DF801
:101C500001008DF802008DF80300684602F063F978
:101C6000D94802F0CBF907A802F0ECFA00208DF871
:101C700022008DF823008DF824008DF825008DF8C2
:101C8000260001208DF8270000208DF81E008DF819
:101C90001F0008208DF8200003208DF821000C2063
:101CA000ADF81C0007A9C84802F0C1F90E208DF854
:101CB000160000208DF8170001208DF818004FF64F
:101CC000FF7000EA4410ADF80C000020ADF80E00E3
:101CD000ADF81000ADF81200ADF8140001208DF839
:101CE000190003A802F02DFA0F208DF8160000202D
:101CF0008DF8170001208DF81800601C4FF6FF7159
:101D000001EA4010ADF80C000020ADF80E00ADF86F
:101D10001000ADF81200ADF8140001208DF8190084
:101D200003A802F00EFA10208DF8160000208DF89E
:101D3000170001208DF81800A01C4FF6FF7101EA72
:101D40004010ADF80C000020ADF80E00ADF810000A
:101D5000ADF81200ADF8140001208DF8190003A8A9
:101D600002F0EFF911208DF8160000208DF8170011
:101D700001208DF81800C020ADF80C000020ADF84F
:101D80000E00ADF81000ADF81200ADF814000120FF
:101D90008DF8190003A802F0D4F912208DF816006E
:101DA00000208DF8170001208DF81800E020ADF814
:101DB0000C000020ADF80E00ADF81000ADF81200D8
:101DC000ADF8140001208DF8190003A802F0B9F94C
:101DD00013208DF8160000208DF8170001208DF8D3
:101DE000180044F22000ADF80C000020ADF80E0001
:101DF000ADF81000ADF81200ADF8140001208DF818
:101E0000190003A802F09DF9012202216E4802F098
:101E100097FC012210216C4802F092FC012211462D
:101E2000694802F08DFC0AB010BD10B5012166486A
:101E300002F0EEFC30B10121634802F084FD012084
:101E40006249087010BD10B586B002215E4802F0EC
:101E5000DFFC002879D002215B4802F074FD01AA62
:101E60000021594802F051FB594C0298A04237D149
:101E70009DF810009DF80F1040EA012000EE100AB6
:101E8000B8EEC00AF2EE040A80EE201A514880ED46
:101E9000001A9DF814109DF8130041EA002000EE8E
:101EA000100AB8EEC00AF2EE040A80EE201A9FED86
:101EB0004A0A31EE400A474880ED010A9DF81610A3
:101EC0009DF8150041EA002000EE100AB8EEC00AA5
:101ED000F2EE040A80EE201A3E4880ED021A24E059
:101EE000019806280FD19DF810003C4908709DF814
:101EF000110048709DF811109DF8100041EA002073
:101F00003649488011E0019807280ED19DF810004D
:101F1000334908709DF8110048709DF811109DF824
:101F2000100041EA00202E49488040F2012101982A
:101F300088422CD19DF80F002A4988700846807885
:101F4000012803D10220887007E038E02548807816
:101F5000022802D10120234988709DF810002149F0
:101F6000C8709DF81100087008460078012802D159
:101F70000220087006E01B480078022802D10120E8
:101F8000184908709DF812001649487016E040F292
:101F900001510198884211D19DF80F001149087133
:101FA0009DF81000012802D10220487106E09DF83A
:101FB0001000022802D101200A49487100BF06B072
:101FC00010BD00000004024000680040290000200D
:101FD00001409018D00E002000803B45C400002036
:101FE000C00000202A00002000B585B01021434821
:101FF00002F00EFC00B31021404802F0A4FC6A4637
:1020000001213E4802F081FA3DA0FFF7CDFB009888
:10201000062807D19DF80C003B4908709DF80D007B
:10202000487009E00098072806D19DF80C00374950
:1020300008709DF80D00487005B000BD2DE9F04115
:1020400086B006460F4615460024A04600208DF8AF
:102050000C008DF80D008DF80E50019600BF05E0C4
:10206000395D0DF10F000155601CC4B2AC42F7DBC5
:1020700009E008F1010000F0FF08B8F1050F02DDEA
:102080004FF0000805E001A91C4802F049F90428B6
:10209000EFD000BF06B0BDE8F0812DE9F04186B079
:1020A00006460F4615460024A04604208DF80C0075
:1020B00000208DF80D008DF80E50029600BF05E04F
:1020C000395D0DF10F000155601CC4B2AC42F7DB65
:1020D00009E008F1010000F0FF08B8F1050F02DD8A
:1020E0004FF0000805E001A9044802F019F904289E
:1020F000EFD000BF06B0BDE8F081000000680040EE
:10210000676574310D0A0000C4000020C000002083
:102110001CB50121022003F07FF90121042003F006
:10212000AEF9684602F07AFFC020009002208DF8D8
:10213000040003208DF8050001208DF80700694692
:10214000FE4802F023FF02220621FC4802F0A9FF0C
:1021500002220721F94802F0A4FF00231A460321B6
:10216000F74804F0B8F847F6FF70F54924310860E5
:102170000121F34803F0C4FB1CBDF149243102687E
:102180000968A1F5FE41FF391144016047F6FF716E
:10219000EB4A24321160704710B5EA480068401CD1
:1021A000E8490860082002F07AFE10BD00B585B04D
:1021B0000121880303F074F90121022003F02CF9B6
:1021C0000820009000208DF8040003208DF8050001
:1021D00001208DF807006946D84802F0D7FE032198
:1021E000012004F0C5FA0820029000208DF80C00B0
:1021F0000C208DF80D0001208DF80E0002A802F0D1
:10220000D7FD09208DF8100003208DF81100022061
:102210008DF8120001208DF8130004A801F083FE50
:1022200005B000BD7FB505460C460121082003F02E
:1022300026F9C54803F02EFA0295ADF804400020B7
:10224000ADF80C00ADF806008DF80E0001A9BE48EF
:1022500003F0CDFA0121BC4803F034FB0121BA4858
:1022600003F07AFF01221146B74803F061FF012114
:10227000B54803F045FB32208DF8000000208DF8B2
:10228000010001208DF802008DF80300684601F07E
:102290004AFE7FBD10B50121AB4803F060FF002866
:1022A0006FD0AA480078401CA849087008460078FA
:1022B000192804DD002008700120A5490870A548F0
:1022C0000078401CA349087008460078102801DDFA
:1022D000012008709F48007811281AD2DFE800F02A
:1022E00090091A2B3C434B52565C6270767C808678
:1022F0008C009948B0F90010012001F0E9FC9748E2
:10230000B0F900209648B0F9001040F2031001F037
:1023100087FD75E09348B0F90010022001F0D8FC69
:102320009148B0F900209148B0F900104FF4817045
:1023300001F05DFD64E08E48B0F90010032001F06B
:10234000C7FC8C48B0F900208B48B0F9001040F26F
:10235000011001F033FD53E08848B0F9001004206B
:1023600001F0B6FC4CE086480168052001F062FCF3
:1023700001F0C8FD44E083480188052001F074FCA9
:102380003EE042E0052001F089FC39E07E4801682A
:10239000062001F04FFC33E07A480188062001F066
:1023A00063FC2DE0062001F079FC7248B0F90020B2
:1023B0007148B0F9001040F2011001F0FFFC1FE07D
:1023C00072480168072001F035FC19E06D4801886A
:1023D000072001F049FC13E0072001F05FFC0FE04B
:1023E0006B480168082001F025FC09E06548018878
:1023F000082001F039FC03E0082001F04FFC00BF89
:1024000000BF0121504803F0BBFE10BD00B589B0EC
:102410000121022003F033F80121084603F02FF8D0
:102420000020ADF81800ADF81A004FF6FF700790C5
:102430000020ADF820008DF8220006A9554803F0D1
:10244000D6F906A94FF0804003F0D1F90020ADF88D
:102450000400ADF81000ADF80600039001A94FF09C
:10246000804003F059FA01A94FF0804003F08DFA43
:1024700001A9484803F050FA01A9464803F085FA3B
:1024800001A9444803F0CEFA01A9424803F030FB09
:1024900000214FF0804003F0CCFB00214FF0804042
:1024A00003F0D0FB00213B4803F0C3FB0021394877
:1024B00003F0C8FB0021374803F0D1FB0021354869
:1024C00003F0D6FB0121880703F0FCF90121314814
:1024D00003F0F8F90221480703F052FE012202211D
:1024E000480703F025FE0421080703F049FE0122F6
:1024F0000421080703F01CFE0221264803F040FED9
:1025000001220221234803F013FE0421214803F095
:1025100037FE012204211F4803F00AFE08211D484E
:1025200003F02EFE012208211A4803F001FE1021BB
:10253000184803F025FE012210212DE0000402407E
:102540000008004030000020000C00403500002052
:10255000340000203800002094000020B600002045
:10256000B400002096000020B2000020B00000203F
:1025700098000020AE000020AC0000209A0000204F
:102580009C00002036000020A0000020A4000020B5
:10259000A8000020000400406B4803F0C9FD1D2086
:1025A0008DF8000001208DF8010003208DF8020055
:1025B00001208DF80300684601F0B5FC1C208DF861
:1025C0000000684601F0AFFC00214FF0804003F0AE
:1025D000FAFD07214FF0804003F06BFE8021C80513
:1025E00003F070FE3021584803F0EDFD07215648F6
:1025F00003F05FFE8021544803F064FE0121880748
:1026000003F07EF90121504803F07AF909B000BDCA
:1026100000B589B00121084602F042FF01210420E3
:1026200002F02DFF494803F035F8494803F032F82D
:102630005320ADF818000020ADF81A0040F23F60BA
:1026400007900020ADF820008DF8220006A9404830
:1026500003F0CDF85320ADF818000020ADF81A00B3
:1026600040F67F4007900020ADF820008DF8220052
:1026700006A9364803F0BBF801A803F071FA602000
:10268000ADF804000120ADF806000020ADF8100000
:10269000039001A92D4803F03FF901A92B4803F04D
:1026A00074F901A92A4803F037F901A9284803F071
:1026B0006CF901A9264803F0B5F901A9244803F0F3
:1026C00017FA0821214803F0B4FA08211F4803F043
:1026D000B9FA08211E4803F0ACFA08211C4803F09F
:1026E000B1FA08211A4803F0BAFA0821184803F091
:1026F000BFFA0121154803F0E5F80121144803F061
:10270000E1F80121114803F0FBF80121104803F022
:10271000F7F820210E4803F0C3FD80210C4803F098
:10272000D1FD2021094803F0BBFD8021074803F0BB
:10273000C9FD0121054803F0D4FC0121044803F040
:10274000D0FC09B000BD00000004004000000140C2
:102750000008004000B587B001217D4802F05CFE12
:102760000121480402F08BFE07220321794802F080
:1027700098FC0820059002208DF8180000208DF8A4
:102780001A0003208DF8190000208DF81B0005A900
:10279000704802F0FBFB704803F0CEFD6F480190DB
:1027A0000020ADF808004FF40050ADF80A00C0104A
:1027B000ADF80C000420ADF80E000020ADF81000BC
:1027C00001A9654803F006FE012240F22551624846
:1027D00003F03EFF0121604803F084FE26208DF8BF
:1027E000000000208DF8010001208DF802008DF816
:1027F0000300684601F097FB07B000BD5848007819
:10280000401C5749087008460078642804DD64209D
:102810000870002053490870704710B540F22551E8
:102820004D4803F050FF00287ED04B4803F089FE4E
:102830004D4908704D48007838B9084600780F288F
:102840002AD1FF204949087026E0474800784849C6
:10285000484A1278885447480078172811D108460A
:10286000C07D022802D00846C07D18B9FF20424929
:10287000087006E000203D4908703F4908703D4956
:1028800008703C480078401C3A49087008460078B7
:10289000182801DD0020087037480078002856D03D
:1028A000334800783249497840EA0120C0F30A00F1
:1028B000324908802E48807840012D49497840EA05
:1028C000E100C0F30A002E49088029488078801171
:1028D0002749C97840EA81002549097940EA8120E1
:1028E000C0F30A0027490880214800794010204998
:1028F000497940EAC110C0F30A00234908801C4806
:10290000407A00F00F00214908801948807900F0D2
:102910000F00401C1E490880002014490870164909
:1029200008701449087000E011E01148807D0C28FF
:1029300003D100200B49087005E000200849087009
:102940000120084908700421124802F0A6FB10BDBE
:10295000010020000000024000440040A086010069
:1029600043000020420000204E00002050000020C4
:10297000080200204F000020510000203A000020F3
:102980003C0000203E0000204000002044000020C9
:10299000480000200010024010B50246002006E06A
:1029A000137843400C4CE05C521C4B1ED9B20029FA
:1029B000F6DC10BD30B50346002006E01C7844402C
:1029C000054D285D5B1C4C1EE1B20029F6DC80EA57
:1029D0000204014D285D30BDDE8300081CB50121D5
:1029E000102002F019FD0420009001208DF8040051
:1029F00000208DF8060003208DF8050001208DF8D9
:102A0000070069461C4802F0C1FA1CBD1CB5012133
:102A1000082002F001FDC020009001208DF8040084
:102A200000208DF8060003208DF8050001208DF8A8
:102A300007006946114802F0A9FA40210F4802F048
:102A400021FB80210D4802F01DFB1CBD1CB501219E
:102A5000102002F0E1FC4FF4A050009000208DF80F
:102A6000040003208DF8050001208DF80700694659
:102A7000014802F08BFA1CBD00100240000C02401D
:102A800000BF704700BFFE4A128802F04002002AD1
:102A9000F9D0C2B2FA4B9A80704710B596B004468E
:102AA0000121880402F0EBFC0121022002F0B4FCB9
:102AB0000121480502F0B0FC07220A21F14802F08A
:102AC000F0FA07220B21EF4802F0EBFA14A802F00B
:102AD000A5FA4FF48060149002208DF85400032072
:102AE0008DF8550014A9E74802F050FA4FF4006041
:102AF000149002208DF8540003208DF8550014A97D
:102B0000E04802F043FAE04803F016FC10A803F096
:102B1000C7FC10940020ADF84400ADF84600ADF8B5
:102B20004800ADF84C000C20ADF84A0010A9D6487A
:102B300003F050FC012240F22441D34803F088FD09
:102B400027208DF83C0000208DF83D0001208DF8F5
:102B50003E008DF83F000FA801F0E5F90121CA48B9
:102B600003F0C0FC0C208DF83C0002208DF83D00E5
:102B70008DF83E0001208DF83F000FA801F0D3F939
:102B8000C24801F033FF4FF000600090BE48001DC6
:102B90000190BF480290002003904FF40070049011
:102BA000002005904FF48060069000200790089068
:102BB0004FF4807009904FF440300A9000200B9041
:102BC0000C900D900E906946B04801F0B1FF0122C3
:102BD0004021AD4803F033FD0121AC4801F0E2FF94
:102BE0000E208DF83C0001208DF83D0002208DF86C
:102BF0003E0001208DF83F000FA801F094F9A34892
:102C0000303001F0F3FE4FF0006000909E48001D50
:102C10000190A04802904020039080200490002062
:102C200005904FF48060069000200790089009906E
:102C30004FF480300A9000200B900C900D900E9075
:102C400069469248303001F073FF012280218E489E
:102C500003F0F5FC012210218C48303002F02FF8EF
:102C600000218A48303001F09DFF16B010BD0246A9
:102C70005068081A80B2704770B5002400BF40F257
:102C80002551814803F01FFD002832D07E4803F013
:102C900058FCC4B28048007830B97F2C04D10120A0
:102CA0007D490870002048817B48007801281BD1AD
:102CB0007948408976490C5477484089401C7649C8
:102CC000488108464089032801D10846048172489A
:102CD000408971490989884206DB6F484089032889
:102CE00002DD00206C49087040F22551664803F06F
:102CF00021FD40F22441644803F0E5FC18B3644828
:102D0000FDF7BBFF4FF400716048FFF7B0FF634968
:102D1000088000215D4801F045FF00BF5B4801F0DD
:102D20008EFF0028FAD15D480188584801F05BFF0A
:102D30000121564801F036FF53480088C5B2524879
:102D4000001D0088C5B270BD70B504460D465448DC
:102D50000078F0B900214D48303001F023FF00BF6A
:102D60004A48303001F06BFF0028F9D1002221469B
:102D70004648303001F054FFA9B24448303001F0E9
:102D800032FF01214148303001F00CFF012044495D
:102D9000087070BD70B505460E46002400BF04E003
:102DA000285D3C490855601CC4B2B442F8DB31468A
:102DB0003848FFF7C9FF70BD10B53A49334801F0F4
:102DC0009BFF18B13749314801F0C0FF10BD0FB467
:102DD00038B505A800902F48009A049903F02AFE00
:102DE000002000902B4803F037FE04462146294876
:102DF000FFF7AAFF38BC5DF814FB10B52A49234839
:102E0000303001F079FF38B100202549087026499B
:102E10001E48303001F09AFF10BD10B596B0044640
:102E20000121C80402F02BFB0121042002F0F4FA76
:102E30000121480502F0F0FA08220A211B4802F09D
:102E400030F908220B21194802F02BF914A802F0DE
:102E5000E5F84FF48060149002208DF854000320B0
:102E60008DF8550014A9114802F090F84FF4006055
:102E7000149002208DF8540003208DF8550017E0BF
:102E80000010014000040240004800402860024059
:102E9000A802002028020020A804002064000020CE
:102EA0005C0000200088001000800018000802402C
:102EB00014A9FE4802F06AF810A803F0F1FA109481
:102EC0000020ADF84400ADF84600ADF84800ADF87C
:102ED0004C000C20ADF84A0010A9F54803F07AFA2E
:102EE0000D208DF83C0002208DF83D008DF83E004D
:102EF00001208DF83F000FA801F015F8ED4801F012
:102F000075FD4FF000600090E948001D0190EA480F
:102F100002900020039080200490002005904FF440
:102F2000806006900020079008904FF48070099010
:102F300040020A9000200B900C900D900E90694674
:102F4000DC4801F0F5FD01224021D94803F077FB70
:102F50000121D84801F026FE002240F22551D44834
:102F600003F076FB002240F22661D14803F070FBAB
:102F7000012240F22441CE4803F06AFB34208DF850
:102F80003C0002208DF83D0003208DF83E0001201A
:102F90008DF83F000FA800F0C6FF0121C44803F0E0
:102FA000A1FAC448303001F021FD4FF000600090DC
:102FB000BF48001D0190C14802904020039080202E
:102FC0000490002005904FF4806006900020079048
:102FD000089009904FF480300A9000200B900C90DC
:102FE0000D900E906946B348303001F0A1FD0122EA
:102FF0008021AF4803F023FB01221021AD4830307F
:1030000001F05DFE0021AB48303001F0CBFD0F2018
:103010008DF83C0002208DF83D008DF83E00012027
:103020008DF83F000FA800F07EFF16B010BD0246DD
:103030005068081A80B2704770B50024002540F22D
:1030400025519B4803F03FFB00283DD0984803F0F2
:1030500078FAC4B29A48007850B9552C08D10120AA
:1030600097490870002048810846408992490C54CD
:1030700093480078012811D19148407870B9532CB9
:1030800008D101208E4948704881084640898A4904
:103090000C5403E000208A49087048708848007882
:1030A00001280CD186484078012808D184484089FD
:1030B00081490C5482484089401C8149488140F232
:1030C00025517B4803F036FB40F22441784803F059
:1030D000FAFAF0B180217748FFF7A9FF7949087023
:1030E0000021744801F05EFD00BF724801F0A7FDA9
:1030F0000028FAD180216F4801F075FD01216D484B
:1031000001F050FD6A480088C5B26948001D00887A
:10311000C5B270BD70B504460D466B480078F0B975
:1031200000216448303001F03DFD00BF614830307F
:1031300001F085FD0028F9D1002221465D4830309C
:1031400001F06EFDA9B25B48303001F04CFD012169
:103150005848303001F026FD01205B49087070BDF1
:1031600070B505460E46002400BF04E0285D5349B3
:103170000855601CC4B2B442F8DB31464F48FFF733
:10318000C9FF70BD10B551494A48303001F0B4FD57
:1031900060B100204C4908704D494648303001F07C
:1031A0007AFD4B494348303001F0D0FD10BD10B5D9
:1031B0004849404801F0A0FD48B14FF081513D48D9
:1031C00001F069FD4FF081513A4801F0BFFD10BD9B
:1031D00010B596B004460121042002F01DF901212A
:1031E000082002F019F90121080502F048F901212F
:1031F000480502F011F908220221374801F051FF79
:1032000008220C21294801F04CFF042014900220D0
:103210008DF8540003208DF8550000208DF85600DD
:1032200001208DF8570014A92B4801F0AFFE4FF490
:103230008050149014A91D4801F0A8FE109400209D
:10324000ADF84400ADF84600ADF84800ADF84C00CC
:103250000C20ADF84A0010A9204803F0BBF80B2061
:103260008DF83C0002208DF83D008DF83E000120D5
:103270008DF83F000FA800F056FE0E48303801F0E0
:10328000B5FB4FF0006000901448001D01901448F9
:1032900002900020039080200490002005904FF4BD
:1032A000806006900020079008901BE00008024014
:1032B000004C00404060024038050020B804002067
:1032C000B805002068000020690000202080002050
:1032D0002000002000802010000C02400050004020
:1032E000C40500204FF48070099040020A9000202D
:1032F0000B900C900D900E906946F64801F018FC6A
:1033000001224021F44803F09AF90121F14801F02B
:1033100049FC002240F22551EF4803F099F90022C0
:1033200040F22661EC4803F093F9012240F2244177
:10333000E94803F08DF935208DF83C0000208DF828
:103340003D0001208DF83E008DF83F000FA800F0F1
:10335000EAFD0121E04803F0C5F82F208DF83C007C
:1033600002208DF83D008DF83E0001208DF83F00D1
:103370000FA800F0D8FDD748A83001F037FB4FF078
:1033800000600090D448001D0190D4480290402075
:10339000039080200490002005904FF480600690F8
:1033A00000200790089009904FF480300A90002088
:1033B0000B900C900D900E906946C648A83001F015
:1033C000B7FB01228021C44803F039F90122102102
:1033D000C048A83001F073FC0021BE48A83001F0BD
:1033E000E1FB16B010BD02465068081A80B2704763
:1033F00070B50024002540F22551B74803F063F969
:1034000018B1B54803F09DF8C4B240F22441B24867
:1034100003F059F9E8B18021AE48FFF7E4FFB04965
:1034200008700021AB4801F0BDFB00BFA94801F0C6
:1034300006FC0028FAD18021A64801F0D4FB012126
:10344000A44801F0AFFBA4480088C5B2A248808818
:10345000C5B270BD10B5A3499E48A83001F04CFC20
:1034600070B10020A04908704FF020519948A83051
:1034700001F011FC4FF020519648A83001F066FC95
:1034800010BD70B504460D4697480078F0B900218C
:103490009048A83001F086FB00BF8E48A83001F0AC
:1034A000CEFB0028F9D1002221468A48A83001F03D
:1034B000B7FBA9B28748A83001F095FB01218548E8
:1034C000A83001F06FFB01208749087070BD70B50E
:1034D00005460E46002400BF04E0285D7F490855DC
:1034E000601CC4B2B442F8DB31467C48FFF7C9FF28
:1034F00070BD10B596B004460121202001F0D0FF28
:103500000121042001F088FF0121880501F084FFDA
:1035100008220621754801F0C4FD082207217348DE
:1035200001F0BFFD14A801F079FD402014900220A5
:103530008DF8540003208DF8550014A96B4801F054
:1035400025FD8020149002208DF8540003208DF872
:10355000550014A9654801F019FD654802F0ECFE1C
:1035600010A802F09DFF10940020ADF84400ADF8C3
:103570004600ADF84800ADF84C000C20ADF84A000C
:1035800010A95B4802F026FF39208DF83C0002208C
:103590008DF83D008DF83E0001208DF83F000FA80A
:1035A00000F0C1FC534801F021FA4FF02060009078
:1035B0004F48001D019050480290002003904FF4A6
:1035C00080600490002005904FF4806006900020F9
:1035D000079008904FF48070099040020A900020F4
:1035E0000B900C900D900E906946424801F0A0FAA5
:1035F000012240213E4803F022F801213D4801F01C
:10360000D1FA002240F22551394803F021F8002276
:1036100040F22661364803F01BF8012240F22441B3
:10362000334803F015F847208DF83C0001208DF851
:103630003D008DF83E008DF83F000FA800F073FCB0
:1036400001212B4802F04EFF45208DF83C0002205E
:103650008DF83D008DF83E0001208DF83F000FA849
:1036600000F061FC2348783001F0C0F94FF0206091
:1036700000901F48001D01902048029040200390B8
:1036800000010490002005904FF480600690002017
:103690000790089009904FF480300A9000200B901A
:1036A0000C900D900E9069461248783001F040FA67
:1036B000012280210E4802F0C2FF012210210D4894
:1036C000783001F0FCFA00210A48783001F06AFAFB
:1036D00016B010BD106002400050004044060020AB
:1036E0006B000020008000286A00002000080240D3
:1036F0000014014028640240D00A0020D0060020B7
:10370000012080F3138800BF00BF00BF00BF00BFCF
:1037100000BFBFF34F8F00BF00BF00BF6F480068FE
:1037200000F4E0606E490843001D6C49086000BF6A
:1037300000BF00BFBFF34F8F00BF00BF00BF00BF7F
:1037400000BFFDE702465068081A80B2704770B5A6
:103750000024002540F22441624802F0B4FF28B35F
:103760004FF480616048FFF7EDFF6049088008462C
:1037700001785F48FEF706F800215B4801F012FA75
:1037800000BF594801F05BFA0028FAD14FF480617C
:10379000554801F028FA0121534801F003FA514835
:1037A0000088C5B24F48001D0088C5B240F22551BF
:1037B0004C4802F088FF20B140F22551494802F000
:1037C000B9FF70BD10B54B49474801F095FA38B1C3
:1037D0004949454801F05FFA4649434801F0B6FAC5
:1037E00010BD10B545494048783001F085FA60B108
:1037F00000204349087041493B48783001F04BFABA
:103800003E493948783001F0A1FA10BD70B5044640
:103810000D463B480078F0B900213348783001F07C
:10382000C1F900BF3048783001F009FA0028F9D119
:10383000002221462C48783001F0F2F9A9B22A483A
:10384000783001F0D0F901212748783001F0AAF949
:1038500001202B49087070BD70B505460E46002446
:103860004FF48071274801F00DFC00BF04E0285D93
:1038700025490855601CC4B2B442F8DB31462248E1
:10388000FFF7C4FF4FF480711E4801F0FDFB70BDCF
:103890001CB54FF4E130FFF72CFE0121042001F0AC
:1038A000BBFD684601F0BAFB4FF480700090012028
:1038B0008DF8040000208DF8060002208DF8070026
:1038C00003208DF8050069460E4801F05FFB4FF4B8
:1038D00080710C4801F0D8FB1CBD00000CED00E02D
:1038E0000000FA0500140140286402406E00002028
:1038F000D00A00200088001000080010008020205E
:103900008200002000080240D00600207CB5054659
:103910000C46FCA103C9CDE90001200A8DF8050081
:10392000E0B28DF80400082269462846FEF7EAF85E
:103930007CBD7CB505460C46F4A103C9CDE9000168
:10394000E0B28DF80400200A8DF80500200C8DF8F7
:103950000600200E8DF80700082269462846FEF76B
:10396000D1F87CBD7CB505460C46EAA103C9CDE97A
:1039700000018DF80440052269462846FEF7C2F88A
:103980007CBD38B50446E5A0006800900222694677
:103990002046FEF7B7F838BD10B586B00446E0A162
:1039A00003C9CDE90401082204A904F5C060FEF7AB
:1039B000A9F80A20FDF79EFFDBA103C9CDE90201AA
:1039C000082202A904F5C060FEF79CF80A20FDF762
:1039D00091FFD7A103C9CDE900010822694604F58A
:1039E000C060FEF78FF80A20FDF784FF06B010BD17
:1039F0001CB50446D0A103C9CDE9000108226946DF
:103A000004F5C060FEF77EF81CBD1CB50446CCA1D1
:103A100003C9CDE900010822694604F5C060FEF73C
:103A200071F81CBD1FB50446BDA003C8CDE9020155
:103A3000082202A904F5C060FEF764F80A20FDF729
:103A400059FFB9A103C9CDE900010822694604F56F
:103A5000C060FEF757F80A20FDF74CFF1FBD1CB5EC
:103A60000446B9A103C9CDE900010822694604F55D
:103A7000C060FEF747F81CBD10B54FF4FA70FDF7B3
:103A800039FF0520FFF7EBFF0A20FDF733FF052084
:103A9000FFF7AEFF0A20FDF72DFF0520FFF7C2FF5D
:103AA0000A20FDF727FF0620FFF7D9FF0A20FDF7C0
:103AB00021FF0620FFF79CFF0A20FDF71BFF0620D1
:103AC000FFF7B0FF0A20FDF715FF0720FFF7C7FF3C
:103AD0000A20FDF70FFF0720FFF78AFF0A20FDF7F6
:103AE00009FF0720FFF79EFF0A20FDF703FF0820CC
:103AF000FFF7B5FF0A20FDF7FDFE0820FFF778FF6E
:103B00000A20FDF7F7FE0820FFF78CFF0A20FDF7DB
:103B1000F1FE0120FFF779FF0A20FDF7EBFE0120FF
:103B2000FFF766FF0A20FDF7E5FE0120FFF734FFEF
:103B30000A20FDF7DFFE0220FFF767FF0A20FDF7EE
:103B4000D9FE0220FFF754FF0A20FDF7D3FE022022
:103B5000FFF722FF0A20FDF7CDFE0320FFF755FFF8
:103B60000A20FDF7C7FE0320FFF742FF0A20FDF7FA
:103B7000C1FE0320FFF710FF0A20FDF7BBFE042063
:103B8000FFF743FF0A20FDF7B5FE0420FFF730FFE3
:103B90000A20FDF7AFFE0420FFF7FEFE0A20FDF726
:103BA000A9FE10BD2DE9F04104460F4615461E46FC
:103BB00021460120FFF7AAFE0A20FDF79BFE3946A9
:103BC0000220FFF7A3FE0A20FDF794FE29460320FA
:103BD000FFF79CFE0A20FDF78DFE31460420FFF71B
:103BE00095FE0A20FDF786FEBDE8F0812DE9F04143
:103BF00004460F4615461E4621460520FFF799FE4E
:103C00000A20FDF777FE39460620FFF792FE0A20CC
:103C1000FDF770FE29460720FFF78BFE0A20FDF70F
:103C200069FE31460820FFF784FE0A20FDF762FE98
:103C3000BDE8F0817CB505460C4645A103C9CDE938
:103C40000001E0B28DF80400200A8DF80500200C78
:103C50008DF80600200E8DF807000822694605F54C
:103C6000C060FDF74FFF7CBD7CB505460C463AA110
:103C700003C9CDE90001E0B28DF80400200A8DF8F7
:103C80000500200C8DF80600200E8DF80700082294
:103C9000694605F5C060FDF735FF7CBD1CB50446DF
:103CA0002FA103C9CDE900010822694604F5C060CF
:103CB000FDF728FF1CBD1CB504462BA103C9CDE9A7
:103CC00000010822694604F5C060FDF71BFF1CBD1A
:103CD0007CB505460C4626A103C9CDE90001E0B23A
:103CE0008DF80400200A8DF80500200C8DF80600E0
:103CF000200E8DF807000822694605F5C060FDF723
:103D000001FF7CBDFF06020100000000FF06160255
:103D100000000000FF06000100000000FF1000008E
:103D20002B406001060000002B40600107000000EE
:103D30002B4060010F0000002B406001800000005C
:103D40002F606001030000002F606001010000008F
:103D5000237A600100000000238160010000000060
:103D60002B4060013F000000404160010000000066
:103D700023FF600100000000002008490880084976
:103D800008800849088008490880084908600849EF
:103D900008600849086008490860704794000020DE
:103DA00096000020980000209A0000209C0000202F
:103DB000A0000020A4000020A80000207CB506463A
:103DC0000C461546002000900190200A8DF8000056
:103DD000E0B28DF80100280A8DF80200E8B28DF8F3
:103DE0000300082269463046FEF728F97CBD7CB501
:103DF00006460C461546002000900190200A8DF8DA
:103E00000000E0B28DF80100280A8DF80200E8B247
:103E10008DF80300082269463046FEF70FF97CBD95
:103E20007CB506460C461546002000900190200AFD
:103E30008DF80000E0B28DF80100280A8DF802002C
:103E4000E8B28DF80300082269463046FEF7F6F81E
:103E50007CBD002025490880254908802549088027
:103E60002549088025490880254908807047C820D1
:103E70002249088040422249088070476FF0C700FD
:103E80001E490880C8201E490880704700201B4931
:103E900008801B49088070476FF0C70015490880EB
:103EA000C820154908807047C82012490880404240
:103EB00011490880704700200E4908800E4908808B
:103EC00070474FF4C8700949088009490880704755
:103ED0004FF670600549088005490880704700204A
:103EE000024908800249088070470000AC000020A9
:103EF000AE000020B0000020B2000020B40000207E
:103F0000B600002010B5034C082203492046FEF7F6
:103F1000C4F810BD40019018B80000203249014398
:103F2000324A1160704770B5002100230F22C47817
:103F30001CB32E4C246804F4E064C4F5E064C4F3BC
:103F40000721C1F10404E3B20A4144789C40E1B284
:103F50008478144021430C07210E254C05786155C7
:103F6000047804F01F050124AC4005786D11AD0004
:103F700005F1E025C5F8004109E0047804F01F05CB
:103F80000124AC401B4D0678761145F8264070BDE3
:103F9000194A0A400243154B1B1F1A60704739B17A
:103FA000124A121D12680243104B1B1D1A6006E0D4
:103FB0000E4A121D126882430C4B1B1D1A6070477B
:103FC000042808D14FF0E021096941F004014FF0C5
:103FD000E022116107E04FF0E021096921F00401BE
:103FE0004FF0E022116170470000FA050CED00E08F
:103FF00000E400E080E100E080FFFF1F10B5044610
:10400000FE48844209D10121480601F0A0FA0021AE
:104010004FF0007001F09BFA08E00121880601F0E2
:1040200096FA00214FF0806001F091FA10BD30B592
:10403000024600200023146824F00204146014686F
:1040400044F00104146000E05B1C546804F00104B7
:104050001CB94FF6FF74A342F6D1546804F0010472
:104060000CB900206CE08C79012C04D1146844F068
:104070008004146003E0146824F080041460CC7998
:10408000012C04D1146844F04004146003E0146867
:1040900024F0400414600C7A012C04D1146844F01C
:1040A0002004146003E0146824F0200414604C7AA7
:1040B000012C04D1146844F01004146003E0146867
:1040C00024F0100414608C7A012C04D1146844F09C
:1040D0000804146003E0146824F008041460CC7A27
:1040E000012C04D1146844F00404146003E0146843
:1040F00024F0040414608C78A407CD7844EA0564A5
:104100000D7944EA05444D7944EA05540D886D1E45
:104110002C43D461146824F001041460002300E0EF
:104120005B1C546804F001041CB14FF6FF74A342F9
:10413000F6D1546804F001040CB1002000E0012025
:1041400030BD10B50021837A012202FA03F1AC4A96
:10415000126842F00102AA4B1A60A94A1C32126886
:104160008A43A74B1C331A60027BCAB9A44A0C329B
:1041700012688A43A24B0C331A604288C38842EA11
:1041800003439F4A4032847A42F83430028883885D
:1041900042EA03439A4A4032847A02EBC4025360F3
:1041A000027B012A19D1964A0C3212680A43944BB9
:1041B0000C331A604288038842EA0343904A403233
:1041C000847A42F83430C288838842EA03438C4AB6
:1041D0004032847A02EBC4025360C27A3AB9884A08
:1041E000121D12688A43864B1B1D1A6006E0844A22
:1041F000121D12680A43824B1B1D1A60028932B9D4
:104200007F4A143212688A437D4B14331A60028944
:10421000012A06D17A4A143212680A43784B1433C1
:104220001A60427B012A06D1754A1C3212680A4381
:10423000734B1C331A60724A126822F00102704BF1
:104240001A6010BD00218171C171017241728172C9
:10425000C1728170C170032101710221417101217C
:10426000018070476649096841F00101644A1160A4
:104270001146096843F60E729143614A1160114676
:10428000096841EA002111601146096821F0010125
:104290001160704721B1026842F48032026003E08D
:1042A000026822F4803202607047E1B1026842F095
:1042B000800202604FF4C272125842F480734FF4CD
:1042C000C27213504FF4CA72125842F480734FF402
:1042D000CA7213504FF4D272125842F480734FF4E2
:1042E000D27213501BE0026822F0800202604FF489
:1042F000C272125822F480734FF4C27213504FF4FA
:10430000CA72125822F480734FF4CA7213504FF4D9
:10431000D272125822F480734FF4D2721350704745
:1043200010B502460020936803F08063B3F1806FFC
:1043300000D110E0936803F00063B3F1006F01D186
:10434000012008E0936803F08053B3F1805F01D14E
:10435000022000E00420042879D002F5C07303EBAA
:1043600000131B6803F0010402F5C07303EB001394
:104370001C600B7A7BB94B7A0C8843EA445302F5F4
:10438000C07404EB00142468234302F5C07404EBEA
:104390000014236010E00B7A4C6843EAC4034C7AA3
:1043A000234302F5C07404EB00142468234302F590
:1043B000C07404EB001423608B7A03F00F038B723C
:1043C00002F5C07303EB00135B6823F00F0402F5E2
:1043D000C07303EB00135C6002F5C07303EB0013C2
:1043E0005B688C7A234302F5C07404EB00146360AD
:1043F0008B7B1C064B7B44EA034403E000640040D3
:10440000006600400B7B44EA0323CC7A234302F589
:10441000C07404EB0014A3608B7C1C064B7C44EA44
:1044200003440B7C44EA0323CC7B234302F5C07492
:1044300004EB0014E36002F5C07303EB00131B6888
:1044400043F0010402F5C07303EB00131C6010BDC0
:1044500010B50246002321B1012907D002290FD14E
:1044600009E09068F94C00EA04030BE09068F84C0E
:1044700000EA040306E09068F64C00EA040301E059
:10448000002300BF00BFF44C181BA34216D007DC6A
:1044900083B16FF08060184470B1022818D111E028
:1044A000B0F5007F10D0ED4C204448B1B0F5003F8E
:1044B0000ED10BE002230DE000230BE0002309E006
:1044C000002307E0012305E0012303E0012301E0CD
:1044D000002300BF00BFD8B210BD21B1012907D011
:1044E00002290FD109E0826842F0800282600AE06E
:1044F000826842F40042826005E0826842F4000271
:10450000826000E000BF00BF704710B500F5D873AF
:1045100003EB01131B6803F004031372137A53B9FE
:1045200000F5D87303EB01131B6840F2FF7404EA33
:104530005353136009E000F5D87303EB01131B68B4
:104540006FF0604404EAD303536000F5D87303EBC3
:1045500001131B6803F00203537200F5D87303EBD9
:1045600001135B6803F00F03937200F5D87303EB3C
:1045700001135B681B0AD37400F5D87303EB0113B6
:104580009B68D37200F5D87303EB01139B681C0A78
:10459000147300F5D87303EB01139B681C0C547360
:1045A00000F5D87303EB01139B681B0E937300F5A2
:1045B000D87303EB0113DB68D37300F5D87303EBF7
:1045C0000113DB681C0A147400F5D87303EB0113A4
:1045D000DB681C0C547400F5D87303EB0113DB6823
:1045E0001B0E937421B9C36843F02003C36003E03A
:1045F000036943F02003036110BD21B9C26842F092
:104600002002C26003E0026942F0200202617047AA
:104610000246002019B9D36803F0030006E001291F
:1046200003D1136903F0030000E00020704710B5C8
:1046300002460B4600204FF6FF71BBB9146824F008
:10464000020444F00104146000E0491E546804F0C0
:104650000304012C01D00029F7D1546804F00304AD
:10466000012C01D0002032E0012030E0012B13D1D9
:10467000146824F00304146000E0491E546804F038
:1046800003040CB10029F8D1546804F003040CB100
:1046900000201CE001201AE0022B17D1146824F03E
:1046A000010444F00204146000E0491E546804F060
:1046B0000304022C01D00029F7D1546804F003044C
:1046C000022C01D0002002E0012000E0002010BDFB
:1046D000014600200A6822F0010242F002020A604C
:1046E0004A6802F00302022A00D101207047014605
:1046F0004FF6FF7200200B6823F002030B6000E00E
:10470000521E4B6803F00203022B01D1002AF7D19D
:104710004B6803F00203022B00D0012070470146D2
:1047200000208A6902F070007047014600208A6903
:10473000100E7047014600208A69C2F30740704797
:104740001AB143690B43436102E043698B43436100
:10475000704710B50246002001F4700343B193691D
:10476000C1F3130423400BB101202DE000202BE006
:1047700001F0807343B15368C1F3130423400BB1BC
:10478000012021E000201FE001F0006343B19368A5
:10479000C1F3130423400BB1012015E0002013E006
:1047A00001F0007343B1D368C1F3130423400BB18C
:1047B000012009E0002007E01369C1F3130423403E
:1047C0000BB1012000E0002010BD0022244B9942D3
:1047D00002D10023836111E0C1F3130201F00073E1
:1047E0000BB1C2600AE001F080630BB1026105E029
:1047F00001F000630BB1826000E042607047024646
:10480000002002EA01030BB1012000E00020704704
:1048100070B504460D46002660692840002872D015
:10482000B5F5807F69D01DDC082D42D006DC012D56
:104830002DD0022D31D0042D7FD134E0102D3ED06B
:10484000202D42D0402D78D145E000000300000427
:104850000003000800000310000100080001FFF73A
:104860007000F030B5F5004F61D009DCB5F5007F80
:104870004AD0B5F5806F4DD0B5F5006F5DD150E0F1
:10488000B5F5803F2DD0B5F5003F56D12FE0A0689B
:104890005549FFF7B4FF064651E0E0680321FFF7F2
:1048A000AEFF06464BE0E0680821FFF7A8FF06468A
:1048B00045E0E0681021FFF7A2FF06463FE02069CF
:1048C0000321FFF79CFF064639E020690821FFF726
:1048D00096FF064633E020691021FFF790FF064659
:1048E0002DE060680821FFF78AFF064627E0606830
:1048F0001021FFF784FF064621E0A0690121FFF7A0
:104900007EFF06461BE01BE0A0690221FFF777FF50
:10491000064614E0A0690421FFF771FF06460EE089
:104920000BE0A0697021FFF76AFF064607E06068A8
:104930000421FFF764FF064601E0002600BF00E007
:104940000026304670BDB1F5007F3AD00FDC20293B
:1049500028D006DC01291CD004291DD0082940D10B
:104960001DE0402921D0B1F5807F3AD126E0B1F594
:10497000004F31D006DCB1F5806F25D0B1F5006F66
:104980002FD124E0B1F5803F12D0B1F5003F28D1FE
:1049900011E0154A826025E00822C26022E0102260
:1049A000C2601FE0082202611CE01022026119E0CF
:1049B0000822426016E01022426013E004224260A6
:1049C00010E0042242600DE0042242600AE000226E
:1049D00082610422426005E000228261042242607A
:1049E00000E000BF00BF704701010100016821F035
:1049F000010101600021016041608160C1600161CD
:104A000021214161DB49884204D13D21D94A103A34
:104A100091608CE0D7491831884205D14FF4746118
:104A2000D44A103A916082E0D2493031884205D1AF
:104A30004FF47411CF4A103A916078E0CD49483173
:104A4000884205D14FF07461CA4A103A91606EE015
:104A5000C8496031884204D1C749C64A103AD1607A
:104A600065E0C4497831884204D1C449C14A103A4A
:104A7000D1605CE0BF499031884204D1C049BD4A51
:104A8000103AD16053E0BB49A831884205D14FF0BC
:104A90003D51B84A103AD16049E0BA49884204D140
:104AA0003D21B84A083A116041E0B64918318842C0
:104AB00005D14FF47461B34A083A116037E0B14947
:104AC0003031884205D14FF47411AE4A083A116072
:104AD0002DE0AC494831884205D14FF07461A94AB4
:104AE000083A116023E0A7496031884204D1A24905
:104AF000A44A121F11601AE0A2497831884204D1F9
:104B00009E49A04A121F116011E09E4990318842CF
:104B100004D19B499B4A121F116008E09949A831B2
:104B2000884204D14FF03D51964A121F11607047E0
:104B300010B500220268944B1A40CC680B682343DE
:104B40004C6923438C692343CC6923430C6A234378
:104B50004C6A23438C6A23434C6B23438C6B234363
:104B60001A430260426922F00702D1E90B34234361
:104B70001A4342610B6943604B6883608B68C36072
:104B800010BD0021016041608160C160016141612F
:104B90008161C161016241628162C16201634163FD
:104BA0008163704721B1026842F00102026003E0B4
:104BB000026822F001020260704721B1026842F4EB
:104BC0000042026003E0026822F400420260704783
:104BD00021B1026842F02002026003E0026822F084
:104BE000200202607047416070470146486880B209
:104BF000704722B1036843F40023036003E00368B5
:104C000023F4002303600161704721B1026842F47C
:104C10008022026003E0026822F480220260704772
:104C20000AB1016100E0C1607047014600200A68D6
:104C300002F400220AB1012000E000207047014682
:104C400000200A6802F001020AB1012000E0002001
:104C50007047014600204A6902F03800704730B5BD
:104C600003460A4600200024464DAB4202D2414989
:104C7000103901E04349103902F000550DB14C687C
:104C800000E00C68414D2C4004EA02050DB1012002
:104C900000E0002030BD02463A4B9A4202D235482D
:104CA000103801E03748103801F000531BB1374B82
:104CB0000B40C36002E0354B0B408360704710B57A
:104CC00001F080034BB122B1436943F0800343619B
:104CD00003E0436923F08003436180290BD02AB1AC
:104CE000036801F01E042343036004E0036801F03D
:104CF0001E04A343036010BD70B5024600200024CB
:104D00000025204EB24202D21A4B103B01E01D4B4F
:104D1000103B1F4E0E4036B11E2606EAD1241668FF
:104D200006EA040502E0566906F0800501F0005627
:104D30000EB15C6800E01C68144E344004EA0106C1
:104D400016B10DB1012000E0002070BD02460D4BF0
:104D50009A4202D20748103801E00A48103801F0A0
:104D600000531BB1094B0B40C36002E0074B0B40E3
:104D700083607047106002403D000020400F00201B
:104D800000003D20106402403F801CF07D0F7D0F2D
:104D90003C0F3C0F002044490860091D0860091DB4
:104DA0000860091D086041483F4914310860704798
:104DB00000213D498279002A3AD00A4612680368E8
:104DC0009A430B461A600A1D126803689A430B1D2A
:104DD0001A60027911440A6803681A430A60324A69
:104DE0000832126803689A432F4B08331A601A1D61
:104DF000126803689A432C4B0C331A604279102ACC
:104E00000ED11A1F126803681A43274B08331A6021
:104E10001A1D126803681A43234B0C331A600DE005
:104E20002149427911440A6803681A430A6005E07F
:104E3000027911440A6803689A430A6070470021A6
:104E4000016001710C214171002181717047164987
:104E5000103109680143144A10321160704701464D
:104E60000020114A143212680A400AB1012000E001
:104E7000002070470C49143108607047014600203B
:104E80000022094B1B6803EA0102074B14331B681D
:104E90000B4013B10AB1012000E000207047024925
:104EA0001431086070470000003C0140FFFF7F00A4
:104EB00010B504468C48844208D10121084600F010
:104EC00000FB0021012000F0FCFA5EE087488442EC
:104ED00008D10121022000F0F4FA0021022000F0A4
:104EE000F0FA52E08248844208D10121042000F007
:104EF000E8FA0021042000F0E4FA46E07D4884420C
:104F000008D10121082000F0DCFA0021082000F07F
:104F1000D8FA3AE07848844208D10121102000F004
:104F2000D0FA0021102000F0CCFA2EE07348844221
:104F300008D10121202000F0C4FA0021202000F037
:104F4000C0FA22E06E48844208D10121402000F0DE
:104F5000B8FA0021402000F0B4FA16E06948844213
:104F600008D10121802000F0ACFA0021802000F05F
:104F7000A8FA0AE06448844207D10121801500F0B4
:104F8000A0FA0021A01500F09CFA10BDF0B50A4669
:104F900000210023002400BF3DE0012505FA01F3B4
:104FA000156805EA03049C4234D105684F000326C6
:104FB000BE40B543056015794E00B54006683543DF
:104FC00005601579012D02D01579022D16D185685D
:104FD0004F000326BE40B543856055794E00B5406D
:104FE000866835438560456801268E40B543456037
:104FF000456896798E40B6B235434560C5684F0026
:105000000326BE40B543C560D5794E00B540C6689D
:105010003543C560491C1029BFD3F0BD4FF6FF7161
:1050200001600021017141718171C171704708B542
:105030004FF480320092009A0A430092009AC261B3
:10504000C161009AC261C2690092C269009208BD42
:105050000246002013690B400BB1012000E0002044
:1050600070470146086980B27047024600205369C4
:105070000B400BB1012000E0002070470146486959
:1050800080B2704701837047418370470AB1018342
:1050900000E0418370474161704742694A40426184
:1050A0007047F0B5002300244D07ED0E02FA05F31A
:1050B000CE1000F1200555F826504E07F70E0F26AA
:1050C000BE40B543CF1000F1200646F82750CE1061
:1050D00000F1200555F8265045EA0304CE1000F1F2
:1050E000200545F82640F0BD0000024000040240C3
:1050F00000080240000C0240001002400014024070
:1051000000180240001C024000200240FA480068DB
:1051100040F00100F84908600020F74908310860B4
:10512000F5480068F5490840F3490860F448091D4E
:105130000860081F006820F48020091F0860002014
:10514000ED490C31086070470021EB4A921C117048
:1051500011460870704710B5014600220023002058
:105160004A11012A02D1E44C236808E0022A03D143
:10517000E14C7034236802E0DF4C7434236801F0A2
:105180001F02012494401C400CB1012000E00020CB
:1051900010BD38B5002000900024002500BF31204C
:1051A000FFF7D9FF05460098401C00900098B0F525
:1051B000A06F01D0002DF2D03120FFF7CCFF08B155
:1051C000012400E00024204638BD01460020CA4AE0
:1051D000106820F0F80040EAC10010607047C9492B
:1051E000086070470021C44A7032117011700128A4
:1051F00002D004280AD104E00121BF4A70321170A4
:1052000005E00521BC4A7032117000E000BF00BF0C
:105210007047BD490860704770B5049C41EA82152B
:105220000126C6EB530645EA0645054345EA0465F3
:10523000B14E361D356070BDB249086670478201B7
:1052400042EA0172AC4B84331A607047AD498866FC
:105250007047AC49C864704702460020A64B08332B
:10526000186820F0EC6042EA01031843A24B0833AF
:1052700018607047024600209F4B0833186820F0E2
:10528000784042EA010318439B4B0833186070478B
:1052900001460020984A0832106820F003000843B5
:1052A0001060704794480830006800F00C007047A8
:1052B00001460020904A0832106820F0F0000843B0
:1052C00010607047014600208B4A0832106820F4B5
:1052D000E05008431060704701460020864A0832BB
:1052E000106820F4604040EAC10010607047F0B5DB
:1052F0000021002200240225002602237E4F0837C9
:105300003F6807F00C0121B1042905D0082937D1E5
:1053100005E07E4F076036E07D4F076033E0764F53
:105320003F1D3F68C7F38056734F3F1D3F6807F02E
:105330003F036EB1764FB7FBF3F7DFF8BCC10CF15A
:10534000040CDCF800C0CCF3881C07FB0CF40CE068
:105350006E4FB7FBF3F7DFF8A0C10CF1040CDCF8DB
:1053600000C0CCF3881C07FB0CF4634F3F1D3F6863
:10537000C7F301477F1C7D00B4FBF5F7076002E02F
:10538000624F076000BF00BF5B4F08373F6807F000
:10539000F00109095F4F7A5C0768D7404760564FB4
:1053A00008373F6807F4E051890A5A4F7A5C47682A
:1053B000D7408760504F08373F6807F46041490B7A
:1053C000544F7A5C4768D740C760F0BD002100F4B5
:1053D0004072B2F5407F0AD1474A0832116821F481
:1053E000F8114D4A02401143434A08321160424AC3
:1053F00070321268C0F30B031A433F4B70331A60CC
:10540000704741494439086070473F494039086056
:10541000704742490860704739B1374A30321268E4
:105420000243354B30331A6006E0334A303212689B
:105430008243314B30331A60704739B12E4A3432CF
:10544000126802432C4B34331A6006E02A4A343285
:1054500012688243284B34331A60704739B1264AA8
:10546000383212680243244B38331A6006E0224A6D
:10547000383212688243204B38331A60704739B192
:105480001D4A4032126802431B4B40331A6006E04B
:10549000194A403212688243174B40331A607047F2
:1054A00039B1154A443212680243134B44331A602F
:1054B00006E0114A4432126882430F4B44331A60AB
:1054C000704739B10C4A1032126802430A4B10334C
:1054D0001A6006E0084A103212688243064B103305
:1054E0001A607047E1B1044A143212680243024B59
:1054F00014331A6019E0000000380240FFFFF6FE86
:105500001030002400004742800E47420024F4007F
:1055100040787D01C8000020FFFCFF0F5C0147427E
:105520005B4A126882435A4B1A60704739B1584A35
:10553000121D12680243564B1B1D1A6006E0544AA6
:10554000121D12688243524B1B1D1A60704739B1FD
:105550004F4A0C32126802434D4B0C331A6006E07E
:105560004B4A0C3212688243494B0C331A60704725
:1055700039B1474A103212680243454B10331A6062
:1055800006E0434A103212688243414B10331A60DE
:10559000704739B13E4A3C32126802433C4B3C33BF
:1055A0001A6006E03A4A3C3212688243384B3C3378
:1055B0001A60704739B1364A403212680243344BA0
:1055C00040331A6006E0324A403212688243304B60
:1055D00040331A60704739B12D4A44321268024391
:1055E0002B4B44331A6006E0294A44321268824346
:1055F000274B44331A60704739B1254A4C32126840
:105600000243234B4C331A6006E0214A4C321268A5
:1056100082431F4B4C331A60704739B11C4A5032D9
:10562000126802431A4B50331A6006E0184A50328F
:1056300012688243164B50331A60704739B1144ACE
:10564000D21F12780243124BDB1F1A7006E0104A79
:10565000D21F127882430E4BDB1F1A7070470C4822
:105660006030006840F08070094960310860704720
:1056700001460020064A083A12680A400AB1012091
:1056800000E0002070470249891F08707047000041
:105690001438024010B50446FE48844208D1012166
:1056A0000846FFF765FF00210120FFF761FF9DE03D
:1056B000B4F1804F08D101210846FFF748FF0021CF
:1056C0000120FFF744FF91E0F348844208D1012113
:1056D0000220FFF73CFF00210220FFF738FF85E0A2
:1056E000EE48844208D101210420FFF730FF002159
:1056F0000420FFF72CFF79E0E948844208D101211A
:105700000820FFF724FF00210820FFF720FF6DE0AD
:10571000E448844208D101211020FFF718FF00213E
:105720001020FFF714FF61E0DF48844208D1012117
:105730002020FFF70CFF00212020FFF708FF55E095
:10574000DA48844208D101210220FFF711FF00212D
:105750000220FFF70DFF49E0D548844209D101211D
:105760000804FFF705FF00214FF48030FFF700FF2A
:105770003CE0D048844209D101214804FFF7F8FEFB
:1057800000214FF40030FFF7F3FE2FE0CA488442B7
:1057900009D101218804FFF7EBFE00214FF480209E
:1057A000FFF7E6FE22E0C548844208D101214020EF
:1057B000FFF7CDFE00214020FFF7C9FE16E0C048EC
:1057C000844208D101218020FFF7C1FE0021802002
:1057D000FFF7BDFE0AE0BB48844207D101218015D6
:1057E000FFF7B5FE0021A015FFF7B1FE10BD0022A6
:1057F0000288A84B98420ED0AC4B98420BD0B0F127
:10580000804F08D0A44B984205D0A44B984202D0B8
:10581000A34B984204D14FF68F731A404B881A431A
:10582000A04B984207D0A04B984204D04FF6FF43BC
:105830001A400B891A4302804B68C3620B880385A8
:10584000944B984202D0994B984201D18B7A0386AF
:105850000123838270474FF0FF31416000210180B6
:1058600001814180817270470185828270470A46BA
:10587000002101884FF68F73194011430180704752
:1058800041627047C16270470146486A70470146ED
:10589000088D704721B1028842F00202028004E0C4
:1058A00002884FF6FD731A400280704721B10288CA
:1058B00042F00402028004E002884FF6FB731A40B3
:1058C0000280704721B1028842F08002028004E029
:1058D00002884FF67F731A400280704702884FF6A5
:1058E000F7731A40028002880A43028070470288D8
:1058F0004FF6FF431A40028002880A430280704735
:1059000021B1028842F00102028004E002884FF6D1
:10591000FE731A400280704770B5002400220023F5
:10592000058C4FF6FE7635400584028C8388048B07
:105930004FF68F752C40B51E2C400D882C43751EDC
:105940002A408D892A434D882A43524DA84202D0CD
:10595000564DA84213D14FF6F7752A40CD892A43F8
:105960004FF6FB752A408D882A434FF6FF652B4082
:105970004FF6FF552B400D8A2B434D8A2B438380D6
:1059800004838D684563028470BD70B500240022D5
:105990000023058C4FF6EF7635400584028C838812
:1059A000048B48F6FF752C404FF6FF452C400D88C0
:1059B0004FF6FF7606EA05252C434FF6DF752A40A1
:1059C0008D8906EA05152A434D8806EA05152A43FE
:1059D000304DA84202D0354DA8421DD14FF67F75FB
:1059E0002A40CD894FF6FF7606EA05152A434FF681
:1059F000BF752A408D8806EA05152A434FF6FF3504
:105A00002B404FF2FF752B400D8A06EA85052B438C
:105A10004D8A06EA85052B43838004838D68856360
:105A2000028470BD70B5002400220023058C4FF65F
:105A3000FF6635400584028C8388848B4FF68F7512
:105A40002C404FF6FC752C400D882C434FF6FF552B
:105A50002A408D894FF6FF7606EA05252A434D88B0
:105A600006EA05252A430B4DA84202D00F4DA84255
:105A700038D14FF2FF752A40CD894FF6FF7606EAFE
:105A800005252A434FF6FF352A408D8806EA05256D
:105A90002A4319E0000001400004004000080040D3
:105AA000000C0040001000400014004000040140C1
:105AB00000400140004401400048014000180040FF
:105AC000001C0040002000404EF6FF752B404DF6B4
:105AD000FF752B400D8A06EA05152B434D8A06EA11
