:020000040800F2
:10000000701F002059640008ED0F0008EF0F000872
:10001000FF0F000803100008071000080000000090
:100020000000000000000000000000006B640008F9
:100030000B100008000000006F64000871640008E5
:100040007364000873640008736400087364000834
:100050007364000873640008736400087364000824
:1000600073640008151C00087364000873640008BA
:10007000972800088F2C0008D9280008652C000854
:10008000736400087364000873640008F5150008C1
:100090001116000835160008736400087364000820
:1000A00073640008736400087364000873640008D4
:1000B00073640008736400087364000873640008C4
:1000C00073640008736400087364000873640008B4
:1000D000736400080F120008472300085D2700081A
:1000E0007364000873640008736400087364000894
:1000F000736400087364000873640008372F0008F5
:100100007364000873640008F91D00087364000834
:10011000192B0008D32E00087364000873640008CC
:1001200073640008B13200082913000873640008E2
:1001300073640008736400087364000847190008BA
:10014000631900084D1A00087364000873640008FE
:1001500073640008CF3200083F1300083B320008E8
:100160007364000873640008736400087364000813
:100170007364000873640008736400087364000803
:10018000736400087364000800F002F800F092F84D
:100190000AA090E8000C82448344AAF10107DA45E2
:1001A00001D100F087F8AFF2090EBAE80F0013F0A2
:1001B000010F18BFFB1A43F001031847A480000089
:1001C000C4800000103A24BF78C878C1FAD852071A
:1001D00024BF30C830C144BF04680C6070470000C1
:1001E0000023002400250026103A28BF78C1FBD840
:1001F000520728BF30C148BF0B6070476E2906F018
:100200002182702906F06383662907F0A787652994
:1002100007F0A487672907F0A187612907F0A08765
:1002200003681B0A28BF41F08001692906F0CE81CE
:10023000642906F0CB81752906F0C8816F2906F084
:10024000F082782906F02F83E92906F08B82E429D1
:1002500006F08882F52906F08582EF2906F0ED8206
:10026000F82906F02E830368DB0928BF41F08001DE
:10027000632907F03180732907F03680E32907F0FE
:100280004180F32907F04680002070471FB507F032
:1002900060FF07F091F804000020002107F08EFDB8
:1002A000401C60600020002107F072FDE0601FBD6F
:1002B00010B510BD07F052F81146FFF7E7FF00F048
:1002C00050FE07F02FF903B4FFF7F2FF03BC02F072
:1002D00049F9000010B54FF4A06003F053FBA820CB
:1002E00001F050F802F0ECF802F002F902F020F907
:1002F0004FF4E13000F092FE01F0A8FF4FF47A7065
:1003000001F0A2F8012001F0CDF840F2015001F017
:1003100001FA642001F098F8532140F2CF7001F007
:1003200033FDFEA000F0EAFF10BD884201DD084663
:1003300003E04A42904200DA484270472DE9F05FFC
:100340000026002500240027A046A146A246A34679
:10035000F7480078002872D0F64800880D286ED142
:10036000F5480088A0F57A7005B2F4480088A0F539
:100370007A7004B2F2480088A0F57A7007B2002CB7
:1003800001DD204600E06042B0F5967F7CDD002D67
:1003900001DD284600E06842B0F5967FF6DDE948C9
:1003A00090ED000AE84880ED000AB4F5967F21DD63
:1003B00015F5967F1EDA9FEDE50AE24880ED000A0A
:1003C000002C01DD204600E06042002D01DD2946C1
:1003D00000E069420844404200EE100AB8EEC00A4C
:1003E000DFEDDB0A20EE200ABDEEC00A10EE100A97
:1003F00006B2C2E014F5967F22DA15F5967F1FDA71
:100400009FEDD40ACF4880ED000A002C01DD204684
:1004100000E06042002D01DD294600E06942084409
:10042000404200EE100AB8EEC00ADFEDC90A20EE25
:10043000200ABDEEC00A10EE100A06B29DE07EE270
:1004400014F5967F21DAB5F5967F1EDD9FEDBF0A84
:10045000BC4880ED000A002C01DD204600E060422F
:10046000002D01DD294600E06942084400EE100A33
:10047000B8EEC00ADFEDB60A20EE200ABDEEC00AD3
:1004800010EE100A06B278E023E0B4F5967F74DD32
:10049000B5F5967F71DD9FEDAF0AAA4880ED000AA1
:1004A000002C01DD204600E06042002D01DD2946E0
:1004B00000E06942084400EE100AB8EEC00ADFED21
:1004C000A40A20EE200ABDEEC00A10EE100A06B201
:1004D00053E0002C01DD204600E06042B0F5967F3D
:1004E00026DD002D01DD284600E06842B0F5967F4C
:1004F0001EDA944890ED000A934880ED000AB4F5A6
:10050000967F08DD9FED940A8E4880ED000AA4F5E1
:10051000967006B231E014F5967F2EDA9FED8F0AC1
:10052000884880ED000A04F59670404206B224E047
:10053000002C01DD204600E06042B0F5967F1CDA19
:10054000002D01DD284600E06842B0F5967F14DDFD
:100550007C4890ED000A7C4880ED000A9FED800AFF
:10056000784880ED000AB5F5967F03DDA5F5967015
:1005700006B202E005F5967006B2002F01DD38469E
:1005800000E07842B0F5967F7BDDB7F5967F03DD1E
:10059000A7F5967006B202E007F5967006B26948B4
:1005A00090ED000A684880ED000A9FED6A0A6548F0
:1005B00080ED000A644890ED000A6248D0ED000A20
:1005C00030EE600AB5EEC00AF1EE10FA08DD5E48C2
:1005D00090ED000A5B48D0ED000A30EE600A09E0B9
:1005E000594890ED000A5748D0ED000A30EE600AF5
:1005F000B1EE400AF3EE040AB4EEE00AF1EE10FAAE
:1006000002DD3C205749088056480088401E00B251
:10061000544908800846B0F90000002844DC002056
:10062000088006EB460000B24F49088006EB460002
:1006300000B24E49088006EB460000B24C490880E3
:1006400006EB460000B24B4908803E4890ED000A98
:10065000B1EE400ADFED480A20EE200ABDEEC00AE6
:1006600010EE108A90ED000ADFED430A20EE200A1A
:10067000BDEEC00A10EE109A90ED000AB1EE400AED
:1006800000E012E0DFED3C0A20EE200ABDEEC00AD9
:1006900010EE10AA90ED000ADFED370A20EE200AD6
:1006A000BDEEC00A10EE10BA28E1002C01DD204694
:1006B00000E06042B0F5967F7BDA002D01DD284630
:1006C00000E06842B0F5967F73DA9FED250A1D4879
:1006D00080ED000A0026704200EB8000224908806D
:1006E000704200EB80002149088006EB860020491B
:1006F000088006EB86001F490880124890ED000A2A
:10070000DFED1D0A20EE200ABDEEC00A10EE108AB1
:1007100090ED000ADFED180A30E04AE073797320AB
:10072000696E69742066696E697368210D0A00003C
:1007300040000020520000202E0000202C0000204D
:10074000320000200400002008000020000034C215
:100750009A99193F000034420000B4420000B4C22C
:1007600000000000020000209C0000209E000020ED
:10077000A0000020A2000020CD380E4520EE200A67
:10078000BDEEC00A10EE109A90ED000A5FED060A69
:1007900020EE200ABDEEC00A10EE10AA90ED000A6D
:1007A0005FED0B0A20EE200ABDEEC00A10EE10BA73
:1007B000A4E0F84890ED000AF748D0ED000A30EECA
:1007C000600AB5EEC00AF1EE10FA08DDF14890EDCE
:1007D000000AF148D0ED000A30EE600A09E0ED4869
:1007E00090ED000AEC48D0ED000A30EE600AB1EE60
:1007F000400ADFEDEA0AB4EEE00AF1EE10FA03DD9A
:100800007D20E749088029E0E24890ED000AE248AF
:10081000D0ED000A30EE600AB5EEC00AF1EE10FA33
:1008200008DDDC4890ED000ADB48D0ED000A30EE30
:10083000600A09E0D74890ED000AD748D0ED000AD9
:1008400030EE600AB1EE400AF3EE0E0AB4EEE00AB2
:10085000F1EE10FA02DD4120D1490880D04800882D
:10086000401E00B2CE4908800846B0F900000028BA
:100870001BDC00200880704200EB4000400000B20A
:10088000C8490880704200EB4000400000B2C649F1
:10089000088006EB4600400000B2C449088006EB21
:1008A0004600400000B2C2490880BB4890ED000AF3
:1008B0005FED4F0A20EE200ABDEEC00A10EE108A4E
:1008C00090ED000A5FED540A20EE200ABDEEC00A4A
:1008D00010EE109A90ED000A5FED590A20EE200A02
:1008E000BDEEC00A10EE10AA90ED000A5FED5E0AA0
:1008F00020EE200ABDEEC00A10EE10BA4FF44831C7
:100900004046FFF712FDAB4908604FF448314846B6
:10091000FFF70BFDA84908604FF448315046FFF738
:1009200004FDA64908604FF448315846FFF7FDFC26
:10093000A349086002F0FFFF0020A2490870BDE84B
:10094000F09F00B52DED068B89B09F480078401CC4
:100950009D49087008460078642836DD9B4890ED74
:10096000020A10EE101A084607F082FB41EC180B41
:10097000964890ED010A10EE101A084607F078FB31
:1009800041EC190B914890ED000A10EE101A084640
:1009900007F06EFB41EC1A0B8DED068B8DED049B81
:1009A0008DED02AB834800687E49B1F90010CDE9B6
:1009B000001087480388874802888748018887A0F5
:1009C00000F09CFC00208049087009B0BDEC068B4B
:1009D00000BD38B500240020009001222146641C8F
:1009E0008E484254794890ED000A8DED000A9DF83A
:1009F00000202146641C894842549DF8012021466C
:100A0000641C42549DF802202146641C42549DF807
:100A100003202146641C42546C4890ED010A8DED80
:100A2000000A9DF800202146641C7C4842549DF831
:100A300001202146641C42549DF802202046611C7E
:100A4000CCB276490A549DF803202046611CCCB2F2
:100A500072490A545D4890ED020A8DED000A9DF836
:100A600000202046611CCCB26C490A549DF801203C
:100A70002046611CCCB269490A549DF802202046E8
:100A8000611CCCB265490A549DF803202046611CC4
:100A9000CCB262490A5411222046611CCCB25F4993
:100AA0000A5410215D4800F017FC38BD70B50024D1
:100AB0000025002643480078002869D0584800885F
:100AC000012865D157480088A0F57A7006B24148E0
:100AD0000088A0F57A7005B23F480088A0F57A70CA
:100AE00004B2B4F5967F06DDC8204F490880404225
:100AF0004E4908800FE014F5967F07DA6FF0C700C3
:100B000049490880C8204949088004E00020464936
:100B1000088046490880B5F5967F07DD6FF0DB0059
:100B200043490880C820434908800FE015F5967FA7
:100B300007DADC203E4908806FF0C7003D49088095
:100B400004E000203A4908803A490880B6F5967FCB
:100B500008DD4FF4B970384908804FF4C870374940
:100B6000088010E016F5967F08DA6FF4D9703249E4
:100B700008804FF684603149088004E000202E4947
:100B800008802E49088002F069FE00200D49087097
:100B900070BD00000800002004000020000070422A
:100BA000020000209C0000209E000020A0000020E9
:100BB000A2000020A4000020A8000020AC0000201B
:100BC000B0000020400000200E000020000F002098
:100BD000320000202E0000202C0000206368303AF4
:100BE0002564206368313A2564206368333A2564BC
:100BF0002073703A2564206F6D673A256420626126
:100C0000743A252E3266206375723A252E3266209C
:100C1000736F633A252E32660D0A0000F40000203F
:100C20005200002030000020BC000020BE00002048
:100C3000B8000020BA000020B4000020B600002058
:100C400010B50023DFEDD30AB0EE600A0024D248CD
:100C50000078002878D0D14800880F2874D1D04877
:100C60000088401CCE490880084600883C286BDD7F
:100C700000200880CB484088B0F5F06F0BDBCA48F5
:100C80004088B0F5F06F06DB4623DFEDC80AB0EE12
:100C9000600A01246DE0C3484088B0F5707F14DC21
:100CA000C0484088002810DDBF484088B0F5707FFC
:100CB0000BDCBD484088002807DD4623DFEDBB0A7A
:100CC000B0EE600A4FF0FF3453E0B6484088B0F50C
:100CD000487F0CDAB4484088B0F5F06F07DB462354
:100CE000DFEDB20AB0EE600A4FF0FF3441E0AE48EB
:100CF0004088B0F5487F0BDAAA484088B0F5F06F1D
:100D000006DB4623DFEDA90AB0EE600A012430E0DD
:100D1000A5484088B0F5F86F06DB4623DFEDA40A4E
:100D2000B0EE600A002424E09F484088B0F5707F50
:100D30000BDA9D484088002807DD4623DFED9D0A39
:100D4000B0EE600A002414E0EEE09748408810B14D
:100D50009448408830B90023DFED8E0AB0EE600A77
:100D6000002406E06FF09503DFED8A0AB0EE600A1A
:100D70000024012C42D19048038090480380904881
:100D8000038090480380DFED900A60EE200AFDEEBC
:100D9000E00A10EE900A4FF44831FFF7C6FA4042DD
:100DA0008A490860DFED880A60EE200AFDEEE00A5D
:100DB00010EE900A4FF44831FFF7B7FA8449086003
:100DC000DFED810A60EE200AFDEEE00A10EE900AE7
:100DD0004FF44831FFF7A9FA40427E490860DFED41
:100DE0007A0A60EE200AFDEEE00A10EE900A4FF457
:100DF0004831FFF79AFA7849086092E0601CE0BB3E
:100E0000584200B26C490880584200B26B490880D1
:100E1000584200B26A490880584200B269490880C5
:100E2000DFED690A60EE200AFDEEE00A10EE900A9E
:100E30004FF44831FFF779FA404264490860DFED2A
:100E4000620A60EE200AFDEEE00A10EE900A4FF40E
:100E50004831FFF76AFA5E490860DFED5B0A60EE31
:100E6000200AFDEEE00A10EE900A4FF44831FFF739
:100E70005CFA40425749086000E00EE0DFED520A9C
:100E800060EE200AFDEEE00A10EE900A4FF44831C1
:100E9000FFF74BFA5049086043E0584200B2464918
:100EA0000880584200B245490880454803804548BB
:100EB0000380DFED450A60EE200AFDEEE00A10EE49
:100EC000900A4FF44831FFF730FA40490860DFEDEF
:100ED0003E0A60EE200AFDEEE00A10EE900A4FF4A2
:100EE0004831FFF722FA3A490860DFED370A60EE31
:100EF000200AFDEEE00A10EE900A4FF44831FFF7A9
:100F000014FA34490860DFED300A60EE200AFDEE85
:100F1000E00A10EE900A4FF44831FFF706FA2E4926
:100F2000086000201C49087010BD10B54FF48061A6
:100F30002A4803F0C1FD18B901202949087002E0D0
:100F40000020274908704FF48051244803F0B4FD75
:100F500018B901202349087002E0002021490870D7
:100F600010BDFFF7B7F902F0F9FA642000F06CFA4F
:100F70000FE01D48007860B1FFF7E0F9FFF796FD3C
:100F8000FFF75EFEFFF7D1FFFFF7DBFC00201649FD
:100F90000870EEE700000000400000205200002032
:100FA00010000020CC000020C800002000003442C7
:100FB0000000B4420000B4C29C0000209E0000204B
:100FC000A0000020A2000020CD380E45A400002083
:100FD000A8000020AC000020B0000020001002405B
:100FE0000C0000200D00002024000020704705E0C8
:100FF00006A000F083F9642000F026FAF8E700BFAD
:10100000FEE700BFFEE700BFFEE77047686172645D
:101010006661756C742E2E2E0D0A000010B596B008
:1010200004460121084603F02BFF0121102003F0A4
:101030006BFF07220921CA4803F067FD07220A2136
:10104000C74803F062FD00208DF8560001208DF89E
:10105000570002208DF854000002149002208DF8F1
:10106000550014A9BE4803F0C5FC02208DF85400B9
:101070004002149014A9BA4803F0BCFCB94804F02B
:101080008FFE10940020ADF84400ADF84600ADF896
:101090004800ADF84C000C20ADF84A0010A9B1484A
:1010A00004F0CCFE002240F22551AE4805F004F8D1
:1010B000002240F22661AB4804F0FEFF012240F21C
:1010C0002441A84804F0F8FF0121A64804F03EFF9F
:1010D0000121880503F0D4FE01224021A14804F03B
:1010E000E2FF012280219F4804F0DDFF25208DF8DA
:1010F0003C0001208DF83D008DF83E008DF83F004A
:101100000FA802F044FC46208DF83C0002208DF828
:101110003D008DF83E0001208DF83F000FA802F041
:1011200036FC3A208DF83C0000208DF83D0002206E
:101130008DF83E0001208DF83F000FA802F027FC3B
:10114000894803F087F94FF0006000908548001D42
:101150000190864802900020039080200490002097
:1011600005904FF4806006900020079008904FF49F
:10117000807009904FF440300A9000200B900C9042
:101180000D900E906946784803F006FA01217648E2
:1011900003F03CFA7448783003F05CF94FF00060DB
:1011A00000907048001D019071480290402003900B
:1011B00080200490002005904FF48060069000206D
:1011C0000790089009904FF480300A9000200B900F
:1011D0000C900D900E9069466348783003F0DCF96E
:1011E000012280215F4804F05EFF012210215E4849
:1011F000783003F098FA00215B48783003F006FA63
:1012000016B010BD02465068081A80B2704770B51B
:101210000024002540F22551524804F088FF18B1FF
:10122000504804F0C2FEC4B240F224414D4804F0DC
:101230007EFFE8B180214C48FFF7E4FF4D4908806C
:101240000021494803F0E2F900BF474803F02BFAB8
:101250000028FAD18021444803F0F9F901214248DD
:1012600003F0D4F93F480088C5B23E488088C5B233
:1012700070BD10B5044600BF20213A4804F041FF7C
:101280000028F9D0374804F090FE10BD70B5044630
:101290000D4639480078F0B900213348783003F022
:1012A000B5F900BF3048783003F0FDF90028F9D1D6
:1012B000002221462C48783003F0E6F9A9B22A48EA
:1012C000783003F0C4F901212748783003F09EF903
:1012D00001202949087070BD70B505460E460024EE
:1012E00000BF04E0285D22490855601CC4B2B44226
:1012F000F8DB31461E48FFF7C9FF70BD0FB438B5A3
:1013000005A800901A48009A049905F0C7F8002033
:101310000090174805F0D4F8044621461448FFF71A
:10132000B5FF38BC5DF814FB10B514490E4803F046
:1013300017FA18B111490C4803F03CFA10BD10B56A
:101340000F490948783003F00BFA38B100200A49F8
:1013500008700B490448783003F02CFA10BD0000E7
:1013600000000240001001404064024038010020AB
:10137000B80100201600002012000020008020107C
:101380000080002810B504466FF0040002F04CFB0A
:10139000E11704EB5171C1F3C701404A11701046C7
:1013A000007800EB4001C1EBC0104FF6FF7101EA7D
:1013B000C0003B49088010BD0146384A12784A43B4
:1013C0004FF0E0235A6100229A611A46126942F0F6
:1013D00001021A6100BF4FF0E022106900F0010223
:1013E0001AB100F48032002AF5D04FF0E0221269E1
:1013F00022F001024FF0E0231A6100229A61704747
:101400000146274A12884A434FF0E0235A610022DE
:101410009A611A46126942F001021A6100BF4FF048
:10142000E022106900F001021AB100F48032002AB3
:10143000F5D04FF0E022126922F001024FF0E023D4
:101440001A6100229A61704770B504464FF4077024
:1014500094FBF0F0C6B24FF4077094FBF0F100FB80
:10146000114085B205E04FF40770FFF7C9FF701E09
:10147000C6B2002EF7D115B12846FFF7C1FF70BDE7
:1014800010B5002107E04AF2104200BF131EA2F17E
:101490000102FBD1491C8142F5D310BD1800002088
:1014A0001A00002010B58AB004460121084603F056
:1014B000E7FC0121480603F016FD09220C219248A1
:1014C00003F023FB09220B218F4803F01EFB4FF48E
:1014D000C050019002208DF8080000208DF80A000D
:1014E00003208DF8090001A9874803F083FA14202E
:1014F0008DF8000001208DF8010002208DF8020017
:1015000001208DF80300684602F041FA15208DF89D
:10151000000001208DF8010002208DF8020001205A
:101520008DF80300684602F032FA13208DF80000AF
:1015300001208DF801008DF802008DF80300684647
:1015400002F025FA714802F08DFA07A802F0AEFB0E
:1015500000208DF822008DF823008DF824008DF8EE
:1015600025008DF8260001208DF8270000208DF839
:101570001E008DF81F0008208DF8200003208DF834
:1015800021000620ADF81C0007A9604802F083FA8C
:1015900000208DF816008DF8170001208DF8180036
:1015A0004FF6FF7000EA4410ADF80C000020ADF8D3
:1015B0000E004FF6FF70ADF81000401EADF812009F
:1015C0000020ADF8140001208DF8190003A802F0E6
:1015D000ECFA012202214D4802F0E6FD0122102121
:1015E0004A4802F0E1FD01221146484802F0DCFDC4
:1015F0000AB010BD10B50121444802F03DFE30B1E3
:101600000120434908700121404802F0D0FE10BD7E
:1016100000B585B002213D4802F02EFE40B1022106
:101620003A4802F0C4FE6A460021384802F0A1FCA4
:1016300005B000BD00B585B01021344802F01CFE95
:1016400040B11021314802F0B2FE6A4601212F4814
:1016500002F08FFC05B000BD2DE9F04186B00646D2
:101660000F4615460024A04600208DF80C008DF88A
:101670000D008DF80E50019600BF05E0395D0DF1AB
:101680000F000155601CC4B2AC42F7DB01E0601CE6
:10169000C4B201A91D4802F077FB042801D17F2CB8
:1016A000F5DB06B0BDE8F0812DE9F04186B00646D5
:1016B0000F4615460024A04604208DF80C0000209B
:1016C0008DF80D008DF80E50029600BF05E0395DD3
:1016D0000DF10F000155601CC4B2AC42F7DB09E00C
:1016E00008F1010000F0FF08B8F1050F02DD4FF02E
:1016F000000805E001A9054802F046FB0428EFD0E8
:1017000000BF06B0BDE8F081000002400064004068
:101710001C00002010B58AB004460121022003F00D
:10172000AFFB0121880603F0DEFB09220C21FD48F6
:1017300003F0EBF909220D21FA4803F0E6F94FF422
:101740004050019002208DF8080000208DF80A001A
:1017500003208DF8090001A9F24803F04BF940205D
:101760008DF8000001208DF8010002208DF80200A4
:1017700001208DF80300684602F009F941208DF838
:10178000000001208DF8010002208DF802000120E8
:101790008DF80300684602F0FAF83F208DF800004B
:1017A00001208DF801008DF802008DF803006846D5
:1017B00002F0EDF8DC4802F055F907A802F076FADD
:1017C00000208DF822008DF823008DF824008DF87C
:1017D00025008DF8260001208DF8270000208DF8C7
:1017E0001E008DF81F0008208DF8200003208DF8C2
:1017F00021000C20ADF81C0007A9CB4802F04BF9E2
:101800000E208DF8160000208DF8170001208DF8AD
:1018100018004FF6FF7000EA4410ADF80C000020ED
:10182000ADF80E00ADF81000ADF81200ADF81400E0
:1018300001208DF8190003A802F0B7F90F208DF8E8
:10184000160000208DF8170001208DF81800601C8C
:101850004FF6FF7101EA4010ADF80C000020ADF822
:101860000E00ADF81000ADF81200ADF81400012024
:101870008DF8190003A802F098F910208DF81600D1
:1018800000208DF8170001208DF81800A01C4FF6DD
:10189000FF7101EA4010ADF80C000020ADF80E0019
:1018A000ADF81000ADF81200ADF8140001208DF86D
:1018B000190003A802F079F911208DF81600002014
:1018C0008DF8170001208DF81800C020ADF80C002D
:1018D0000020ADF80E00ADF81000ADF81200ADF824
:1018E000140001208DF8190003A802F05EF91220FF
:1018F0008DF8160000208DF8170001208DF81800D3
:10190000E020ADF80C000020ADF80E00ADF810009E
:10191000ADF81200ADF8140001208DF8190003A8ED
:1019200002F043F9012202217F4802F03DFC01222E
:1019300010217D4802F038FC012211467A4802F05D
:1019400033FC0AB010BD10B50121774802F094FCB9
:1019500030B10121744802F02AFD0120734908705A
:1019600010BD10B586B002216F4802F085FC00283A
:101970006AD002216C4802F01AFD01AA00216A48CF
:1019800002F0F7FA6A4C0298A04237D19DF8100095
:101990009DF80F1040EA012000EE100AB8EEC00AD0
:1019A000F2EE040A80EE201A624880ED001A9DF8DB
:1019B00014109DF8130041EA002000EE100AB8EE62
:1019C000C00AF2EE040A80EE201A9FED5B0A31EEA7
:1019D000400A584880ED010A9DF816109DF8150040
:1019E00041EA002000EE100AB8EEC00AF2EE040A46
:1019F00080EE201A4F4880ED021A24E00198062854
:101A00000FD19DF810004D4908709DF811004870E5
:101A10009DF811109DF8100041EA002047494880C8
:101A200011E0019807280ED19DF810004449087074
:101A30009DF8110048709DF811109DF8100041EAC2
:101A400000203F49488000BF06B010BD00B585B0FA
:101A50001021354802F010FC00B31021324802F08A
:101A6000A6FC6A460121304802F083FA35A0FFF750
:101A700045FC0098062807D19DF80C002F490870F6
:101A80009DF80D00487009E00098072806D19DF8E0
:101A90000C002B4908709DF80D00487005B000BD82
:101AA0002DE9F04186B006460F4615460024A046B3
:101AB00000208DF80C008DF80D008DF80E50019669
:101AC00000BF05E0395D0DF10F000155601CC4B287
:101AD000AC42F7DB09E008F1010000F0FF08B8F1C3
:101AE000050F02DD4FF0000805E001A90E4802F0E5
:101AF0004BF90428EFD000BF06B0BDE8F0812DE916
:101B0000F04186B006460F4615460024A046042044
:101B10008DF80C0000208DF80D008DF80E50029607
:101B200000BF19E000040240006800401D000020D2
:101B300001409018000F002000803B45CC000020A1
:101B4000C8000020676574310D0A0000395D0DF191
:101B50000F000155601CC4B2AC42F7DB09E008F18C
:101B6000010000F0FF08B8F1050F02DD4FF000089A
:101B700005E001A9044802F007F90428EFD000BFEE
:101B800006B0BDE8F0810000006800401CB50121EE
:101B9000022003F075F90121042003F0A4F968463E
:101BA00002F070FFC020009002208DF80400032096
:101BB0008DF8050001208DF807006946F64802F00F
:101BC00019FF02220621F44802F09FFF022207219A
:101BD000F14802F09AFF00231A460321EF4804F06F
:101BE000AEF847F6FF70ED49243108600121EB485B
:101BF00003F0BAFB1CBDE949243102680968A1F56C
:101C0000FE41FF391144016047F6FF71E34A243277
:101C10001160704710B5E2480068401CE049086058
:101C2000082002F070FE10BD00B585B001218803C8
:101C300003F06AF90121022003F022F90820009044
:101C400000208DF8040003208DF8050001208DF898
:101C500007006946D04802F0CDFE0321012004F0C0
:101C6000BBFA0820029000208DF80C000C208DF8A3
:101C70000D0001208DF80E0002A802F0CDFD092014
:101C80008DF8100003208DF8110002208DF812004D
:101C900001208DF8130004A801F079FE05B000BD05
:101CA00030B58BB005460C460121022003F0E8F860
:101CB0000121022003F017F909A802F0E3FE332006
:101CC000099002208DF8280003208DF8290009A929
:101CD000B14802F08FFE02220421AF4802F015FF46
:101CE00002220521AC4802F010FF02220021AA487E
:101CF00002F00BFF02220121A74802F006FFA948CB
:101D000003F0FCF90795ADF818400020ADF820006D
:101D1000ADF81A0006A9A34803F09DFA01A803F044
:101D200053FC6020ADF804000120ADF8060000204F
:101D3000ADF8100001A99B4803F022FB01A99948C6
:101D400003F057FB01A9974803F0A0FB01A99548B0
:101D500003F002FC0821934803F09FFC08219148FE
:101D600003F0A4FC08218F4803F0ADFC08218D4846
:101D700003F0B2FC01218B4803F0D8FA0121894815
:101D800003F0F2FA0BB030BD7FB505460C460121D9
:101D9000082003F0A8F8844803F0B0F90295ADF8E4
:101DA00004400020ADF80C00ADF806008DF80E00E0
:101DB00001A97D4803F04FFA01217B4803F0B6FAF0
:101DC0000121794803F0FCFE01221146764803F018
:101DD000E3FE0121744803F0C7FA32208DF80000B9
:101DE00000208DF8010001208DF802008DF803001D
:101DF000684601F0CCFD7FBD10B501216A4803F0B3
:101E0000E2FE00286FD069480078401C67490870DE
:101E1000084600780A2804DD002008700120644983
:101E2000087064480078401C6249087008460078D1
:101E3000102801DD012008705E48007811281AD2B0
:101E4000DFE800F0A4091A2B3C434B525666768417
:101E50008A90949AA0005848B0F90010012001F02F
:101E6000A9FC5648B0F900205548B0F9001040F2DE
:101E7000031001F047FD89E05248B0F9001002203C
:101E800001F098FC5048B0F900205048B0F900101B
:101E90004FF4817001F01DFD78E04D48B0F900105D
:101EA000032001F087FC4B48B0F900204A48B0F904
:101EB000001040F2011001F0F3FC67E04748B0F970
:101EC0000010042001F076FC60E045480168052020
:101ED00001F022FC01F04AFD58E04248018805204B
:101EE00001F034FC52E056E0052001F049FC4DE0E1
:101EF0003D480168062001F00FFC3048B0F9002091
:101F00002F48B0F9001040F2031001F0FBFC3DE057
:101F100034480188062001F019FC2B48B0F9002054
:101F20002A48B0F900104FF4817001F0D2FC2DE086
:101F3000062001F025FC2748B0F900202648B0F91A
:101F4000001040F2011001F0ABFC1FE027480168CF
:101F5000072001F0E1FB19E022480188072001F089
:101F6000F5FB13E0072001F00BFC0FE020480168AF
:101F7000082001F0D1FB09E01A480188082001F08F
:101F8000E5FB03E0082001F0FBFB00BF00BF0121DF
:101F9000054803F029FE10BD00040240000800407F
:101FA0002000002000040040000C0040250000201C
:101FB00024000020280000209C000020BE000020FB
:101FC000BC0000209E000020BA000020B8000020C5
:101FD000A0000020B6000020B4000020A2000020D5
:101FE000A400002026000020A8000020AC00002053
:101FF000B000002030B58BB005460C460121102002
:1020000002F03EFF0121084602F07EFF09A802F01F
:1020100039FD4FF4C440099002208DF828000320B8
:102020008DF8290009A9834802F0E4FC0122092166
:10203000804802F06AFD01220D217E4802F065FD14
:1020400001220E217B4802F060FD7B4803F056F828
:102050000795ADF818400020ADF82000ADF81A0043
:102060008DF8220006A9744803F0F5F801A803F0E2
:10207000ABFA6020ADF804000120ADF806000020A6
:10208000ADF81000039001A96B4803F079F901A99C
:10209000694803F0FBF901A9674803F05DFA0821DC
:1020A000654803F0FAFA0821634803F00CFB0821A5
:1020B000614803F011FB01215F4803F037F901216A
:1020C0005D4803F051F901215B4803F03EFD0BB080
:1020D00030BD30B58BB005460C460121022002F020
:1020E000CFFE0121402002F0FEFE09A802F0CAFC4A
:1020F0004FF40040099002208DF8280000208DF850
:102100002A0003208DF8290000208DF82B0009A952
:102110004A4802F06FFC09220F21484802F0F5FC02
:10212000474802F0EBFF0795ADF818400020ADF8E6
:102130002000ADF81A0006A9414803F08CF801A868
:1021400003F042FA7020ADF804000120ADF806005B
:102150000020ADF81000039001A9394803F049F9B7
:102160000821374803F0A2FA0121354803F0DEF8D0
:102170000121334803F0F8F80BB030BD30B58BB017
:1021800005460C460121042002F07AFE01210220BE
:1021900002F0BAFE09A802F075FC4FF40070099035
:1021A00002208DF8280000208DF82A0003208DF8E9
:1021B000290000208DF82B0009A9224802F01AFC02
:1021C000032209211F4802F0A0FC1F4802F096FFDD
:1021D0000795ADF818400020ADF82000ADF81A00C2
:1021E0008DF8220006A9184803F035F801A803F07D
:1021F000EBF96020ADF804000120ADF806000020E6
:10220000ADF81000039001A90F4803F0A5F90821CB
:102210000D4803F061FA01210B4803F087F8012112
:10222000094803F0A1F80121074803F08EFC0BB028
:1022300030BD0000001002400000014000040240D8
:1022400000180040000802400004014000B587B0BB
:102250000121864802F014FE0121480402F043FEE9
:1022600007220321824802F050FC0820059002203A
:102270008DF8180000208DF81A0003208DF8190041
:1022800000208DF81B0005A9794802F0B3FB7948BE
:1022900003F086FD784801900020ADF808004FF467
:1022A0000050ADF80A00C010ADF80C000420ADF8E5
:1022B0000E000020ADF8100001A96E4803F0BEFD2D
:1022C000012240F225516B4803F0F6FE01216948D6
:1022D00003F03CFE26208DF8000000208DF8010060
:1022E00001208DF802008DF80300684601F04FFBD5
:1022F00007B000BD70B52DED048B04465F48B0F902
:1023000000006438A04207DA5C48B0F9000064308D
:10231000844201DA002503E058480088001B05B21A
:10232000284605F090FD41EC190B9FED550B53EC41
:10233000102B05F09FFD41EC180B05F055FD00B288
:10234000BDEC048B70BD10B540F22551494803F037
:10235000EEFE00287ED0474803F027FE4A49087069
:102360004A48007838B9084600780F282AD1FF205B
:102370004649087026E0444800784549454A1278A5
:10238000885444480078172811D10846C07D022897
:1023900002D00846C07D18B9FF203F49087006E00A
:1023A00000203A4908703C4908703A490870394899
:1023B0000078401C3749087008460078182801DD6D
:1023C000002008703448007800284DD0304800784C
:1023D0002F49497840EA0120C0F30A002F490880BC
:1023E0002B48807840012A49497840EAE100C0F34F
:1023F0000A002B4908802648807880112449C97832
:1024000040EA81002249097940EA8120C0F30A00AC
:10241000244908801E48007940101D49497940EA46
:10242000C110C0F30A00204908801948407A00F022
:102430000F001E4908801648807900F00F00401CEC
:102440001B49088000201149087013490870114980
:10245000087000E008E0174908600120164908707C
:102460000421164802F04DFB10BD000001002000C1
:102470000000024000440040A0860100420000200D
:10248000000000000000F83F580000205A00002023
:1024900038020020590000205B0000202C000020A2
:1024A0002E00002030000020320000204E000020CE
:1024B000520000203C00002040000020001002409C
:1024C0001CB50121102002F0DBFC0420009001204B
:1024D0008DF8040000208DF8060003208DF805001B
:1024E00001208DF8070069461C4802F083FA1CBDE4
:1024F0001CB50121082002F0C3FCC020009001207F
:102500008DF8040000208DF8060003208DF80500EA
:1025100001208DF807006946114802F06BFA40214E
:102520000F4802F0E3FA80210D4802F0DFFA1CBDEB
:102530001CB50121102002F0A3FC4FF4A050009024
:1025400000208DF8040003208DF8050001208DF88F
:1025500007006946014802F04DFA1CBD0010024018
:10256000000C024000BF704700BFFE4A128802F014
:102570004002002AF9D0C2B2FA4B9A80704710B5D7
:1025800096B004460121880402F0ADFC012102202E
:1025900002F076FC0121480502F072FC07220A21B4
:1025A000F14802F0B2FA07220B21EF4802F0ADFA2F
:1025B00014A802F067FA4FF48060149002208DF89E
:1025C000540003208DF8550014A9E74802F012FAD0
:1025D0004FF40060149002208DF8540003208DF811
:1025E000550014A9E04802F005FAE04803F0D8FBD2
:1025F00010A803F089FC10940020ADF84400ADF859
:102600004600ADF84800ADF84C000C20ADF84A008B
:1026100010A9D64803F012FC012240F22441D3480D
:1026200003F04AFD27208DF83C0000208DF83D0086
:1026300001208DF83E008DF83F000FA801F0A7F9AA
:102640000121CA4803F082FC0C208DF83C000220D6
:102650008DF83D008DF83E0001208DF83F000FA859
:1026600001F095F9C24801F0F5FE4FF000600090CE
:10267000BE48001D0190BF480290002003904FF417
:1026800000700490002005904FF4806006900020B8
:10269000079008904FF4807009904FF440300A90F2
:1026A00000200B900C900D900E906946B04801F000
:1026B00073FF01224021AD4803F0F5FC0121AC4835
:1026C00001F0A4FF0E208DF83C0001208DF83D00A4
:1026D00002208DF83E0001208DF83F000FA801F088
:1026E00056F9A348303001F0B5FE4FF0006000907D
:1026F0009E48001D0190A048029040200390802039
:102700000490002005904FF4806006900020079010
:10271000089009904FF480300A9000200B900C90A4
:102720000D900E9069469248303001F035FF01223D
:1027300080218E4803F0B7FC012210218C483030F4
:1027400001F0F1FF00218A48303001F05FFF16B040
:1027500010BD02465068081A80B2704770B5002458
:1027600000BF40F22551814803F0E1FC002832D03F
:102770007E4803F01AFCC4B28048007830B97F2C40
:1027800004D101207D490870002048817B480078F1
:1027900001281BD17948408976490C5477484089F3
:1027A000401C7649488108464089032801D10846E3
:1027B00004817248408971490989884206DB6F4863
:1027C0004089032802DD00206C49087040F2255141
:1027D000664803F0E3FC40F22441644803F0A7FCA0
:1027E00000B34FF400716248FFF7B3FF64490880FB
:1027F00000215F4801F00AFF00BF5D4801F053FF70
:102800000028FAD15E480188594801F020FF0121D3
:10281000574801F0FBFE55480088C5B25348001DDB
:102820000088C5B270BD70B504460D4655480078A5
:10283000F0B900214E48303001F0E8FE00BF4C48AE
:10284000303001F030FF0028F9D1002221464848FD
:10285000303001F019FFA9B24548303001F0F7FEE1
:1028600001214348303001F0D1FE01204549087074
:1028700070BD70B505460E46002400BF04E0285D1B
:102880003D490855601CC4B2B442F8DB31463A48B1
:10289000FFF7C9FF70BD10B53B49354801F060FF37
:1028A00018B13949324801F085FF10BD0FB438B571
:1028B00005A800903048009A049903F0EFFD00202D
:1028C00000902D4803F0FCFD044621462A48FFF7FE
:1028D000AAFF38BC5DF814FB10B52C4924483030F1
:1028E00001F03EFF38B100202649087027492048F2
:1028F000303001F05FFF10BD10B596B004460121E5
:10290000C80402F0F0FA0121042002F0B9FA012112
:10291000480502F0B5FA08220A211D4802F0F5F830
:1029200008220B211A4802F0F0F814A802F0AAF8C5
:102930004FF48060149002208DF8540003208DF82D
:10294000550014A9124802F055F84FF40060149095
:1029500002208DF8540003208DF8550014A90C486E
:1029600018E0000000100140000402400048004050
:1029700028600240D802002058020020D80400201D
:102980006C00002064000020008800100080001807
:102990000008024002F02EF810A803F0B5FA1094D7
:1029A0000020ADF84400ADF84600ADF84800ADF8A1
:1029B0004C000C20ADF84A0010A9FE4803F03EFA86
:1029C0000D208DF83C0002208DF83D008DF83E0072
:1029D00001208DF83F000FA800F0D9FFF64801F064
:1029E00039FD4FF000600090F248001D0190F3485F
:1029F00002900020039080200490002005904FF466
:102A0000806006900020079008904FF48070099035
:102A100040020A9000200B900C900D900E90694699
:102A2000E54801F0B9FD01224021E24803F03BFBFB
:102A30000121E14801F0EAFD002240F22551DD4884
:102A400003F03AFB002240F22661DA4803F034FB3F
:102A5000012240F22441D74803F02EFB34208DF8A8
:102A60003C0002208DF83D0003208DF83E0001203F
:102A70008DF83F000FA800F08AFF0121CD4803F038
:102A800065FACD48303001F0E5FC4FF00060009071
:102A9000C848001D0190CA48029040200390802041
:102AA0000490002005904FF480600690002007906D
:102AB000089009904FF480300A9000200B900C9001
:102AC0000D900E906946BC48303001F065FD012242
:102AD0008021B84803F0E7FA01221021B6483030CF
:102AE00001F021FE0021B448303001F08FFD0F20AD
:102AF0008DF83C0002208DF83D008DF83E0001204D
:102B00008DF83F000FA800F042FF16B010BD02463E
:102B10005068081A80B2704770B50024002540F252
:102B20002551A44803F003FB00283DD0A14803F041
:102B30003CFAC4B2A348007850B9552C08D1012002
:102B4000A049087000204881084640899B490C54E0
:102B50009C480078012811D19A48407870B9532CCC
:102B600008D1012097494870488108464089934917
:102B70000C5403E000209349087048709148007895
:102B800001280CD18F484078012808D18D48408910
:102B90008A490C548B484089401C8A49488140F23C
:102BA0002551844803F0FAFA40F22441814803F0A9
:102BB000BEFAF0B180218048FFF7A9FF8249087072
:102BC00000217D4801F022FD00BF7B4801F06BFD34
:102BD0000028FAD18021784801F039FD012176489A
:102BE00001F014FD73480088C5B27248001D0088CA
:102BF000C5B270BD70B504460D4674480078F0B992
:102C000000216D48303001F001FD00BF6A483030CE
:102C100001F049FD0028F9D10022214666483030F4
:102C200001F032FDA9B26448303001F010FD0121FD
:102C30006148303001F0EAFC01206449087070BD41
:102C400070B505460E46002400BF04E0285D5C49CF
:102C50000855601CC4B2B442F8DB31465848FFF74F
:102C6000C9FF70BD10B55A495348303001F078FDA6
:102C700060B100205549087056494F48303001F086
:102C80003EFD54494C48303001F094FD10BD10B564
:102C90005149494801F064FD48B14FF0815146481F
:102CA00001F02DFD4FF08151434801F083FD10BD2F
:102CB00010B596B004460121042002F0E1F801218C
:102CC000082002F0DDF80121080502F00CF90121CD
:102CD000480502F0D5F808220221404801F015FF0E
:102CE00008220C213E4801F010FF0420149002201D
:102CF0008DF8540003208DF8550000208DF8560003
:102D000001208DF8570014A9344801F073FE4FF4E8
:102D10008050149014A9324801F06CFE10940020E9
:102D2000ADF84400ADF84600ADF84800ADF84C00F1
:102D30000C20ADF84A0010A92A4803F07FF80B20B8
:102D40008DF83C0002208DF83D008DF83E000120FA
:102D50008DF83F000FA800F01AFE1748303801F038
:102D600079FB4FF0006000901E48001D01901E4846
:102D700002900020039080200490002005904FF4E2
:102D8000806006900020079008904FF480700990B2
:102D900040020A9000200B900C900D900E90694616
:102DA0000548303801F0F8FB012240210D4803F0BE
:102DB0007AF91BE0004C00404060024068050020AA
:102DC000E8040020E80500207000002071000020C9
:102DD000208000202000002000802010000C0240F5
:102DE0000008024000500040F40500200121FE4888
:102DF00001F00CFC002240F22551FC4803F05CF984
:102E0000002240F22661F94803F056F9012240F20F
:102E10002441F64803F050F935208DF83C0000209D
:102E20008DF83D0001208DF83E008DF83F000FA881
:102E300000F0ADFD0121ED4803F088F82F208DF85A
:102E40003C0002208DF83D008DF83E0001208DF8F9
:102E50003F000FA800F09BFDE348A83001F0FAFA0C
:102E60004FF000600090E148001D0190E0480290A2
:102E70004020039080200490002005904FF4806053
:102E8000069000200790089009904FF480300A9037
:102E900000200B900C900D900E906946D248A830FF
:102EA00001F07AFB01228021D04803F0FCF80122D6
:102EB0001021CD48A83001F036FC0021CA48A830C6
:102EC00001F0A4FB16B010BD02465068081A80B28B
:102ED000704770B50024002540F22551C34803F027
:102EE00026F918B1C14803F060F8C4B240F2244199
:102EF000BE4803F01CF9E8B18021BB48FFF7E4FFAE
:102F0000BC4908700021B84801F080FB00BFB648FA
:102F100001F0C9FB0028FAD18021B34801F097FBEA
:102F20000121B14801F072FBB0480088C5B2AF483A
:102F30008088C5B270BD10B5AF49AB48A83001F06C
:102F40000FFC70B10020AD4908704FF02051A64829
:102F5000A83001F0D4FB4FF02051A348A83001F075
:102F600029FC10BD70B504460D46A4480078F0B9A0
:102F700000219D48A83001F049FB00BF9A48A830C5
:102F800001F091FB0028F9D1002221469648A83093
:102F900001F07AFBA9B29448A83001F058FB012156
:102FA0009148A83001F032FB01209449087070BDAF
:102FB00070B505460E46002400BF04E0285D8C492C
:102FC0000855601CC4B2B442F8DB31468848FFF7AC
:102FD000C9FF70BD10B596B004460121202001F054
:102FE00093FF0121042001F04BFF0121880501F02E
:102FF00047FF08220621824801F087FD08220721A9
:103000007F4801F082FD14A801F03CFD402014909F
:1030100002208DF8540003208DF8550014A978483B
:1030200001F0E8FC8020149002208DF85400032069
:103030008DF8550014A9724801F0DCFC714802F0CB
:10304000AFFE10A802F060FF10940020ADF844001D
:10305000ADF84600ADF84800ADF84C000C20ADF8D6
:103060004A0010A9674802F0E9FE39208DF83C00BB
:1030700002208DF83D008DF83E0001208DF83F00C4
:103080000FA800F084FC604801F0E4F94FF02060E4
:1030900000905C48001D01905C4802900020039065
:1030A0004FF480600490002005904FF480600690FB
:1030B0000020079008904FF48070099040020A9019
:1030C00000200B900C900D900E9069464E4801F038
:1030D00063FA012240214B4802F0E5FF01214A48F2
:1030E00001F094FA002240F22551464802F0E4FF34
:1030F000002240F22661434802F0DEFF012240F246
:103100002441404802F0D8FF47208DF83C000120C0
:103110008DF83D008DF83E008DF83F000FA800F0BF
:1031200036FC0121374802F011FF45208DF83C00A4
:1031300002208DF83D008DF83E0001208DF83F0003
:103140000FA800F024FC3048783001F083F94FF0EC
:10315000206000902B48001D01902D4802904020D7
:10316000039000010490002005904FF480600690C9
:1031700000200790089009904FF480300A900020BA
:103180000B900C900D900E9069461F48783001F01E
:1031900003FA012280211B4802F085FF0122102141
:1031A0001948783001F0BFFA00211748783001F053
:1031B0002DFA16B010BD012080F3138800BF00BFA8
:1031C00000BF00BF00BF00BFBFF34F8F00BF00BFF5
:1031D00000BF1048006800F4E0600F490843001D7C
:1031E0000C49086000BF19E0106002400050004028
:1031F0007406002073000020008000287200002068
:10320000000802400014014028640240000B002026
:10321000000700200CED00E00000FA0500BF00BF31
:10322000BFF34F8F00BF00BF00BF00BF00BFFDE76F
:1032300002465068081A80B2704770B50024002515
:1032400040F22441604802F072FF28B34FF48061DD
:103250005E48FFF7EDFF5E490880084601785D484B
:10326000FEF73AF80021594801F0D0F900BF57485D
:1032700001F019FA0028FAD14FF48061534801F0A7
:10328000E6F90121514801F0C1F94F480088C5B263
:103290004D48001D0088C5B240F225514A4802F051
:1032A00046FF20B140F22551474802F077FF70BD3C
:1032B00010B54949454801F053FA38B147494348E8
:1032C00001F01DFA4449414801F074FA10BD10B5EF
:1032D00043493E48783001F043FA60B1002041494B
:1032E00008703F493948783001F009FA3C493748BD
:1032F000783001F05FFA10BD70B504460D463948CC
:103300000078F0B900213148783001F07FF900BF32
:103310002E48783001F0C7F90028F9D10022214663
:103320002A48783001F0B0F9A9B22848783001F085
:103330008EF901212548783001F068F901202949EA
:10334000087070BD70B505460E4600244FF48071BC
:10335000254801F0CBFB00BF04E0285D2349085558
:10336000601CC4B2B442F8DB31462048FFF7C4FF0A
:103370004FF480711C4801F0BBFB70BD1CB54FF4CD
:10338000E130FFF727FE0121042001F079FD6846B6
:1033900001F078FB4FF48070009001208DF804005C
:1033A00000208DF8060002208DF8070003208DF81C
:1033B000050069460C4801F01DFB4FF480710A4876
:1033C00001F096FB1CBD000000140140286402407F
:1033D00076000020000B002000880010000800107C
:1033E000008020208A000020000802400007002002
:1033F0007CB505460C46FCA103C9CDE90001200AB5
:103400008DF80500E0B28DF80400082269462846D0
:10341000FEF722F97CBD7CB505460C46F4A103C934
:10342000CDE90001E0B28DF80400200A8DF8050016
:10343000200C8DF80600200E8DF807000822694642
:103440002846FEF709F97CBD7CB505460C46EAA185
:1034500003C9CDE900018DF80440052269462846DC
:10346000FEF7FAF87CBD38B50446E5A00068009088
:10347000022269462046FEF7EFF838BD10B586B047
:103480000446E0A103C9CDE90401082204A904F51A
:10349000C060FEF7E1F80A20FDF7D6FFDBA103C903
:1034A000CDE90201082202A904F5C060FEF7D4F8B4
:1034B0000A20FDF7C9FFD7A103C9CDE90001082201
:1034C000694604F5C060FEF7C7F80A20FDF7BCFFA7
:1034D00006B010BD1CB50446D0A103C9CDE900015A
:1034E0000822694604F5C060FEF7B6F81CBD1CB59D
:1034F0000446CCA103C9CDE900010822694604F5C0
:10350000C060FEF7A9F81CBD1FB50446BDA003C8E6
:10351000CDE90201082202A904F5C060FEF79CF87B
:103520000A20FDF791FFB9A103C9CDE900010822E6
:10353000694604F5C060FEF78FF80A20FDF784FFA6
:103540001FBD1CB50446B9A103C9CDE9000108227D
:10355000694604F5C060FEF77FF81CBD10B54FF456
:10356000FA70FDF771FF0520FFF7EBFF0A20FDF76A
:103570006BFF0520FFF7AEFF0A20FDF765FF052072
:10358000FFF7C2FF0A20FDF75FFF0620FFF7D9FF14
:103590000A20FDF759FF0620FFF79CFF0A20FDF7E0
:1035A00053FF0620FFF7B0FF0A20FDF74DFF07206D
:1035B000FFF7C7FF0A20FDF747FF0720FFF78AFF45
:1035C0000A20FDF741FF0720FFF79EFF0A20FDF7C5
:1035D0003BFF0820FFF7B5FF0A20FDF735FF082065
:1035E000FFF778FF0A20FDF72FFF0820FFF78CFF79
:1035F0000A20FDF729FF0120FFF779FF0A20FDF7D8
:1036000023FF0120FFF766FF0A20FDF71DFF0120C1
:10361000FFF734FF0A20FDF717FF0220FFF767FFCF
:103620000A20FDF711FF0220FFF754FF0A20FDF7E3
:103630000BFF0220FFF722FF0A20FDF705FF032002
:10364000FFF755FF0A20FDF7FFFE0320FFF742FFBB
:103650000A20FDF7F9FE0320FFF710FF0A20FDF70F
:10366000F3FE0420FFF743FF0A20FDF7EDFE0420E0
:10367000FFF730FF0A20FDF7E7FE0420FFF7FEFE0C
:103680000A20FDF7E1FE10BD2DE9F04104460F468A
:1036900015461E4621460120FFF7AAFE0A20FDF727
:1036A000D3FE39460220FFF7A3FE0A20FDF7CCFE29
:1036B00029460320FFF79CFE0A20FDF7C5FE314690
:1036C0000420FFF795FE0A20FDF7BEFEBDE8F0815D
:1036D0002DE9F04104460F4615461E4621460520B9
:1036E000FFF799FE0A20FDF7AFFE39460620FFF7E7
:1036F00092FE0A20FDF7A8FE29460720FFF78BFE61
:103700000A20FDF7A1FE31460820FFF784FE0A20BB
:10371000FDF79AFEBDE8F0817CB505460C4645A153
:1037200003C9CDE90001E0B28DF80400200A8DF84C
:103730000500200C8DF80600200E8DF807000822E9
:10374000694605F5C060FDF787FF7CBD7CB5054681
:103750000C463AA103C9CDE90001E0B28DF804009E
:10376000200A8DF80500200C8DF80600200E8DF83B
:1037700007000822694605F5C060FDF76DFF7CBDB6
:103780001CB504462FA103C9CDE9000108226946F2
:1037900004F5C060FDF760FF1CBD1CB504462BA1FD
:1037A00003C9CDE900010822694604F5C060FDF7B0
:1037B00053FF1CBD7CB505460C4626A103C9CDE9C7
:1037C0000001E0B28DF80400200A8DF80500200CFD
:1037D0008DF80600200E8DF807000822694605F5D1
:1037E000C060FDF739FF7CBDFF060201000000004C
:1037F000FF06160200000000FF06000100000000A6
:10380000FF1000002B406001060000002B4060010B
:10381000070000002B4060010F0000002B406001FA
:10382000800000002F606001030000002F60600135
:1038300001000000237A6001000000002381600184
:10384000000000002B4060013F000000404160018B
:103850000000000023FF6001000000000020084974
:1038600008800849088008490880084908800849F4
:1038700008600849086008490860084908607047FE
:103880009C0000209E000020A0000020A20000203C
:10389000A4000020A8000020AC000020B000002000
:1038A0007CB506460C461546002000900190200A83
:1038B0008DF80000E0B28DF80100280A8DF80200B2
:1038C000E8B28DF80300082269463046FEF7E8F8B2
:1038D0007CBD7CB506460C46154600200090019044
:1038E000200A8DF80000E0B28DF80100280A8DF85A
:1038F0000200E8B28DF80300082269463046FEF760
:10390000CFF87CBD7CB506460C46154600200090DD
:103910000190200A8DF80000E0B28DF80100280A1D
:103920008DF80200E8B28DF803000822694630469F
:10393000FEF7B6F87CBD00200649088006490880DD
:10394000064908800649088006490880064908801B
:1039500070470000B4000020B6000020B80000202E
:10396000BA000020BC000020BE00002010B5034CAF
:10397000082203492046FEF7C2F810BD4001901806
:10398000C000002032490143324A1160704770B5CF
:10399000002100230F22C4781CB32E4C246804F4A9
:1039A000E064C4F5E064C4F30721C1F10404E3B2A8
:1039B0000A4144789C40E1B28478144021430C07CA
:1039C000210E254C05786155047804F01F0501246B
:1039D000AC4005786D11AD0005F1E025C5F800415A
:1039E00009E0047804F01F050124AC401B4D067863
:1039F000761145F8264070BD194A0A400243154B1E
:103A00001B1F1A60704739B1124A121D1268024317
:103A1000104B1B1D1A6006E00E4A121D12688243ED
:103A20000C4B1B1D1A607047042808D14FF0E02191
:103A3000096941F004014FF0E022116107E04FF005
:103A4000E021096921F004014FF0E0221161704783
:103A50000000FA050CED00E000E400E080E100E089
:103A600080FFFF1F10B50446FE48844209D10121A2
:103A7000480601F0A0FA00214FF0007001F09BFA17
:103A800008E00121880601F096FA00214FF08060DD
:103A900001F091FA10BD30B50246002000231468F1
:103AA00024F002041460146844F00104146000E07F
:103AB0005B1C546804F001041CB94FF6FF74A34268
:103AC000F6D1546804F001040CB900206CE08C7944
:103AD000012C04D1146844F08004146003E01468DD
:103AE00024F080041460CC79012C04D1146844F0D3
:103AF0004004146003E0146824F0400414600C7A5D
:103B0000012C04D1146844F02004146003E014680C
:103B100024F0200414604C7A012C04D1146844F081
:103B20001004146003E0146824F0100414608C7A0C
:103B3000012C04D1146844F00804146003E01468F4
:103B400024F008041460CC7A012C04D1146844F0E9
:103B50000404146003E0146824F0040414608C78F6
:103B6000A407CD7844EA05640D7944EA05444D790B
:103B700044EA05540D886D1E2C43D461146824F06A
:103B800001041460002300E05B1C546804F001048D
:103B90001CB14FF6FF74A342F6D1546804F001043F
:103BA0000CB1002000E0012030BD10B50021837A67
:103BB000012202FA03F1AC4A126842F00102AA4B58
:103BC0001A60A94A1C3212688A43A74B1C331A6038
:103BD000027BCAB9A44A0C3212688A43A24B0C3346
:103BE0001A604288C38842EA03439F4A4032847A7B
:103BF00042F834300288838842EA03439A4A4032CA
:103C0000847A02EBC4025360027B012A19D1964ADE
:103C10000C3212680A43944B0C331A6042880388B2
:103C200042EA0343904A4032847A42F83430C288F0
:103C3000838842EA03438C4A4032847A02EBC4020E
:103C40005360C27A3AB9884A121D12688A43864B79
:103C50001B1D1A6006E0844A121D12680A43824B3B
:103C60001B1D1A60028932B97F4A143212688A43D6
:103C70007D4B14331A600289012A06D17A4A143224
:103C800012680A43784B14331A60427B012A06D12A
:103C9000754A1C3212680A43734B1C331A60724A0D
:103CA000126822F00102704B1A6010BD0021817170
:103CB000C171017241728172C1728170C170032140
:103CC0000171022141710121018070476649096833
:103CD00041F00101644A11601146096843F60E7211
:103CE0009143614A11601146096841EA002111605F
:103CF0001146096821F001011160704721B1026885
:103D000042F48032026003E0026822F480320260F2
:103D10007047E1B1026842F0800202604FF4C27263
:103D2000125842F480734FF4C27213504FF4CA72A7
:103D3000125842F480734FF4CA7213504FF4D27287
:103D4000125842F480734FF4D27213501BE0026891
:103D500022F0800202604FF4C272125822F4807383
:103D60004FF4C27213504FF4CA72125822F4807387
:103D70004FF4CA7213504FF4D272125822F4807367
:103D80004FF4D2721350704710B50246002093686A
:103D900003F08063B3F1806F00D110E0936803F00B
:103DA0000063B3F1006F01D1012008E0936803F0D4
:103DB0008053B3F1805F01D1022000E00420042889
:103DC00079D002F5C07303EB00131B6803F0010404
:103DD00002F5C07303EB00131C600B7A7BB94B7ABE
:103DE0000C8843EA445302F5C07404EB00142468C1
:103DF000234302F5C07404EB0014236010E00B7A37
:103E00004C6843EAC4034C7A234302F5C07404EBC4
:103E100000142468234302F5C07404EB00142360EB
:103E20008B7A03F00F038B7202F5C07303EB001360
:103E30005B6823F00F0402F5C07303EB00135C60B2
:103E400002F5C07303EB00135B688C7A234302F521
:103E5000C07404EB001463608B7B1C064B7B44EA4C
:103E6000034403E000640040006600400B7B44EA2A
:103E70000323CC7A234302F5C07404EB0014A3603F
:103E80008B7C1C064B7C44EA03440B7C44EA0323F2
:103E9000CC7B234302F5C07404EB0014E36002F50D
:103EA000C07303EB00131B6843F0010402F5C073F9
:103EB00003EB00131C6010BD10B50246002321B1B6
:103EC000012907D002290FD109E09068F94C00EAD6
:103ED00004030BE09068F84C00EA040306E09068E5
:103EE000F64C00EA040301E0002300BF00BFF44CDD
:103EF000181BA34216D007DC83B16FF08060184412
:103F000070B1022818D111E0B0F5007F10D0ED4C4F
:103F1000204448B1B0F5003F0ED10BE002230DE084
:103F200000230BE0002309E0002307E0012305E064
:103F3000012303E0012301E0002300BF00BFD8B24A
:103F400010BD21B1012907D002290FD109E08268F3
:103F500042F0800282600AE0826842F4004282609D
:103F600005E0826842F40002826000E000BF00BF0A
:103F7000704710B500F5D87303EB01131B6803F00D
:103F800004031372137A53B900F5D87303EB0113CA
:103F90001B6840F2FF7404EA5353136009E000F514
:103FA000D87303EB01131B686FF0604404EAD3037A
:103FB000536000F5D87303EB01131B6803F0020391
:103FC000537200F5D87303EB01135B6803F00F0322
:103FD000937200F5D87303EB01135B681B0AD3746B
:103FE00000F5D87303EB01139B68D37200F5D87307
:103FF00003EB01139B681C0A147300F5D87303EBE1
:1040000001139B681C0C547300F5D87303EB011368
:104010009B681B0E937300F5D87303EB0113DB68E9
:10402000D37300F5D87303EB0113DB681C0A147417
:1040300000F5D87303EB0113DB681C0C547400F516
:10404000D87303EB0113DB681B0E937421B9C368AB
:1040500043F02003C36003E0036943F020030361DE
:1040600010BD21B9C26842F02002C26003E00269BB
:1040700042F02002026170470246002019B9D3685D
:1040800003F0030006E0012903D1136903F00300E4
:1040900000E00020704710B502460B4600204FF6A6
:1040A000FF71BBB9146824F0020444F001041460E9
:1040B00000E0491E546804F00304012C01D00029DB
:1040C000F7D1546804F00304012C01D0002032E041
:1040D000012030E0012B13D1146824F00304146094
:1040E00000E0491E546804F003040CB10029F8D123
:1040F000546804F003040CB100201CE001201AE015
:10410000022B17D1146824F0010444F00204146057
:1041100000E0491E546804F00304022C01D0002979
:10412000F7D1546804F00304022C01D0002002E00F
:10413000012000E0002010BD014600200A6822F0A6
:10414000010242F002020A604A6802F00302022AF7
:1041500000D10120704701464FF6FF7200200B6826
:1041600023F002030B6000E0521E4B6803F00203D1
:10417000022B01D1002AF7D14B6803F00203022B76
:1041800000D001207047014600208A6902F07000CB
:104190007047014600208A69100E704701460020D2
:1041A0008A69C2F3074070471AB143690B43436100
:1041B00002E043698B434361704710B5024600201B
:1041C00001F4700343B19369C1F3130423400BB1AD
:1041D00001202DE000202BE001F0807343B15368F3
:1041E000C1F3130423400BB1012021E000201FE0A4
:1041F00001F0006343B19368C1F3130423400BB192
:10420000012015E0002013E001F0007343B1D368F2
:10421000C1F3130423400BB1012009E0002007E0A3
:104220001369C1F3130423400BB1012000E0002007
:1042300010BD0022244B994202D10023836111E07A
:10424000C1F3130201F000730BB1C2600AE001F088
:1042500080630BB1026105E001F000630BB1826085
:1042600000E0426070470246002002EA01030BB101
:10427000012000E00020704770B504460D4600267E
:1042800060692840002872D0B5F5807F69D01DDCB8
:10429000082D42D006DC012D2DD0022D31D0042D69
:1042A0007FD134E0102D3ED0202D42D0402D78D14A
:1042B00045E00000030000040003000800000310B4
:1042C000000100080001FFF77000F030B5F5004F65
:1042D00061D009DCB5F5007F4AD0B5F5806F4DD0CF
:1042E000B5F5006F5DD150E0B5F5803F2DD0B5F547
:1042F000003F56D12FE0A0685549FFF7B4FF0646AE
:1043000051E0E0680321FFF7AEFF06464BE0E068AE
:104310000821FFF7A8FF064645E0E0681021FFF7F7
:10432000A2FF06463FE020690321FFF79CFF0646F7
:1043300039E020690821FFF796FF064633E020693F
:104340001021FFF790FF06462DE060680821FFF777
:104350008AFF064627E060681021FFF784FF0646C3
:1043600021E0A0690121FFF77EFF06461BE01BE06C
:10437000A0690221FFF777FF064614E0A069042137
:10438000FFF771FF06460EE00BE0A0697021FFF712
:104390006AFF064607E060680421FFF764FF0646EF
:1043A00001E0002600BF00E00026304670BDB1F5F8
:1043B000007F3AD00FDC202928D006DC01291CD050
:1043C00004291DD0082940D11DE0402921D0B1F594
:1043D000807F3AD126E0B1F5004F31D006DCB1F54F
:1043E000806F25D0B1F5006F2FD124E0B1F5803F6B
:1043F00012D0B1F5003F28D111E0154A826025E0C6
:104400000822C26022E01022C2601FE0082202617E
:104410001CE01022026119E00822426016E010221E
:10442000426013E00422426010E0042242600DE08A
:10443000042242600AE0002282610422426005E018
:10444000002282610422426000E000BF00BF70478A
:1044500001010100016821F00101016000210160FA
:1044600041608160C160016121214161DB49884275
:1044700004D13D21D94A103A91608CE0D7491831D6
:10448000884205D14FF47461D44A103A916082E0B9
:10449000D2493031884205D14FF47411CF4A103AD5
:1044A000916078E0CD494831884205D14FF0746180
:1044B000CA4A103A91606EE0C8496031884204D11E
:1044C000C749C64A103AD16065E0C449783188428C
:1044D00004D1C449C14A103AD1605CE0BF4990316F
:1044E000884204D1C049BD4A103AD16053E0BB496B
:1044F000A831884205D14FF03D51B84A103AD160F9
:1045000049E0BA49884204D13D21B84A083A1160CD
:1045100041E0B6491831884205D14FF47461B34A7D
:10452000083A116037E0B1493031884205D14FF483
:104530007411AE4A083A11602DE0AC494831884206
:1045400005D14FF07461A94A083A116023E0A749E8
:104550006031884204D1A249A44A121F11601AE0B6
:10456000A2497831884204D19E49A04A121F1160A5
:1045700011E09E499031884204D19B499B4A121F09
:10458000116008E09949A831884204D14FF03D51AB
:10459000964A121F1160704710B500220268944BB2
:1045A0001A40CC680B6823434C6923438C6923432E
:1045B000CC6923430C6A23434C6A23438C6A23430C
:1045C0004C6B23438C6B23431A430260426922F0F5
:1045D0000702D1E90B3423431A4342610B6943605C
:1045E0004B6883608B68C36010BD0021016041602F
:1045F0008160C160016141618161C16101624162AB
:104600008162C162016341638163704721B10268C5
:1046100042F00102026003E0026822F0010202603F
:10462000704721B1026842F40042026003E0026870
:1046300022F400420260704721B1026842F0200279
:10464000026003E0026822F02002026070474160CD
:1046500070470146486880B2704722B1036843F44E
:104660000023036003E0036823F400230360016177
:10467000704721B1026842F48022026003E00268C0
:1046800022F48022026070470AB1016100E0C1603B
:104690007047014600200A6802F400220AB1012096
:1046A00000E000207047014600200A6802F0010285
:1046B0000AB1012000E000207047014600204A694D
:1046C00002F03800704730B503460A460020002447
:1046D000464DAB4202D24149103901E043491039FD
:1046E00002F000550DB14C6800E00C68414D2C40C3
:1046F00004EA02050DB1012000E0002030BD0246B1
:104700003A4B9A4202D23548103801E03748103807
:1047100001F000531BB1374B0B40C36002E0354B37
:104720000B408360704710B501F080034BB122B19C
:10473000436943F08003436103E0436923F080034E
:10474000436180290BD02AB1036801F01E04234382
:10475000036004E0036801F01E04A343036010BD7E
:1047600070B50246002000240025204EB24202D23D
:104770001A4B103B01E01D4B103B1F4E0E4036B153
:104780001E2606EAD124166806EA040502E05669E8
:1047900006F0800501F000560EB15C6800E01C6870
:1047A000144E344004EA010616B10DB1012000E0B8
:1047B000002070BD02460D4B9A4202D207481038C5
:1047C00001E00A48103801F000531BB1094B0B40BF
:1047D000C36002E0074B0B408360704710600240EB
:1047E0003D000020400F002000003D2010640240EA
:1047F0003F801CF07D0F7D0F3C0F3C0F0020444993
:104800000860091D0860091D0860091D086041480D
:104810003F4914310860704700213D498279002AE0
:104820003AD00A46126803689A430B461A600A1D7A
:10483000126803689A430B1D1A60027911440A68D2
:1048400003681A430A60324A0832126803689A43BE
:104850002F4B08331A601A1D126803689A432C4BB9
:104860000C331A604279102A0ED11A1F126803689D
:104870001A43274B08331A601A1D126803681A433B
:10488000234B0C331A600DE02149427911440A6828
:1048900003681A430A6005E0027911440A68036854
:1048A0009A430A6070470021016001710C21417137
:1048B0000021817170471649103109680143144A7B
:1048C00010321160704701460020114A14321268FC
:1048D0000A400AB1012000E0002070470C49143161
:1048E00008607047014600200022094B1B6803EA5C
:1048F0000102074B14331B680B4013B10AB10120AE
:1049000000E0002070470249143108607047000041
:10491000003C0140FFFF7F0010B504468C488442F4
:1049200008D10121084600F000FB0021012000F021
:10493000FCFA5EE08748844208D10121022000F0A1
:10494000F4FA0021022000F0F0FA52E0824884429A
:1049500008D10121042000F0E8FA0021042000F031
:10496000E4FA46E07D48844208D10121082000F0A5
:10497000DCFA0021082000F0D8FA3AE078488442B6
:1049800008D10121102000F0D0FA0021102000F001
:10499000CCFA2EE07348844208D10121202000F097
:1049A000C4FA0021202000F0C0FA22E06E488442C0
:1049B00008D10121402000F0B8FA0021402000F089
:1049C000B4FA16E06948844208D10121802000F041
:1049D000ACFA0021802000F0A8FA0AE06448844282
:1049E00007D10121801500F0A0FA0021A01500F0E8
:1049F0009CFA10BDF0B50A4600210023002400BF38
:104A00003DE0012505FA01F3156805EA03049C421F
:104A100034D105684F000326BE40B54305601579C3
:104A20004E00B5400668354305601579012D02D06A
:104A30001579022D16D185684F000326BE40B54377
:104A4000856055794E00B540866835438560456878
:104A500001268E40B5434560456896798E40B6B2D2
:104A600035434560C5684F000326BE40B543C56069
:104A7000D5794E00B540C6683543C560491C10293C
:104A8000BFD3F0BD4FF6FF7101600021017141718C
:104A90008171C171704708B54FF480320092009A5D
:104AA0000A430092009AC261C161009AC261C26960
:104AB0000092C269009208BD0246002013690B40B3
:104AC0000BB1012000E0002070470146086980B268
:104AD00070470246002053690B400BB1012000E0F3
:104AE000002070470146486980B2704701837047D3
:104AF000418370470AB1018300E0418370474161FF
:104B0000704742694A4042617047F0B50023002473
:104B10004D07ED0E02FA05F3CE1000F1200555F811
:104B200026504E07F70E0F26BE40B543CF1000F1BA
:104B3000200646F82750CE1000F1200555F82650E3
:104B400045EA0304CE1000F1200545F82640F0BDEB
:104B5000000002400004024000080240000C024035
:104B6000001002400014024000180240001C0240E5
:104B700000200240FA48006840F00100F84908604F
:104B80000020F74908310860F5480068F5490840F9
:104B9000F3490860F448091D0860081F006820F404
:104BA0008020091F08600020ED490C310860704723
:104BB0000021EB4A921C117011460870704710B525
:104BC00001460022002300204A11012A02D1E44CB0
:104BD000236808E0022A03D1E14C7034236802E024
:104BE000DF4C7434236801F01F02012494401C4000
:104BF0000CB1012000E0002010BD38B5002000906D
:104C00000024002500BF3120FFF7D9FF054600989A
:104C1000401C00900098B0F5A06F01D0002DF2D09C
:104C20003120FFF7CCFF08B1012400E0002420462A
:104C300038BD01460020CA4A106820F0F80040EA5A
:104C4000C10010607047C949086070470021C44A1C
:104C5000703211701170012802D004280AD104E0CA
:104C60000121BF4A7032117005E00521BC4A703243
:104C7000117000E000BF00BF7047BD490860704779
:104C800070B5049C41EA82150126C6EB530645EA3D
:104C90000645054345EA0465B14E361D356070BDD5
:104CA000B24908667047820142EA0172AC4B843314
:104CB0001A607047AD4988667047AC49C864704750
:104CC00002460020A64B0833186820F0EC6042EA48
:104CD00001031843A24B08331860704702460020B6
:104CE0009F4B0833186820F0784042EA01031843CC
:104CF0009B4B08331860704701460020984A0832E1
:104D0000106820F003000843106070479448083092
:104D1000006800F00C00704701460020904A0832FD
:104D2000106820F0F0000843106070470146002032
:104D30008B4A0832106820F4E05008431060704736
:104D400001460020864A0832106820F4604040EA9C
:104D5000C10010607047F0B5002100220024022538
:104D6000002602237E4F08373F6807F00C0121B16F
:104D7000042905D0082937D105E07E4F076036E0C9
:104D80007D4F076033E0764F3F1D3F68C7F3805685
:104D9000734F3F1D3F6807F03F036EB1764FB7FB7F
:104DA000F3F7DFF8BCC10CF1040CDCF800C0CCF365
:104DB000881C07FB0CF40CE06E4FB7FBF3F7DFF831
:104DC000A0C10CF1040CDCF800C0CCF3881C07FB7C
:104DD0000CF4634F3F1D3F68C7F301477F1C7D0004
:104DE000B4FBF5F7076002E0624F076000BF00BF49
:104DF0005B4F08373F6807F0F00109095F4F7A5CA5
:104E00000768D7404760564F08373F6807F4E051BE
:104E1000890A5A4F7A5C4768D7408760504F0837F5
:104E20003F6807F46041490B544F7A5C4768D740AC
:104E3000C760F0BD002100F44072B2F5407F0AD196
:104E4000474A0832116821F4F8114D4A02401143D3
:104E5000434A08321160424A70321268C0F30B03B1
:104E60001A433F4B70331A60704741494439086018
:104E700070473F49403908607047424908607047B1
:104E800039B1374A303212680243354B30331A6039
:104E900006E0334A303212688243314B30331A60B5
:104EA000704739B12E4A3432126802432C4B3433E6
:104EB0001A6006E02A4A343212688243284B34339F
:104EC0001A60704739B1264A383212680243244BBF
:104ED00038331A6006E0224A383212688243204B87
:104EE00038331A60704739B11D4A403212680243A4
:104EF0001B4B40331A6006E0194A40321268824365
:104F0000174B40331A60704739B1154A4432126862
:104F10000243134B44331A6006E0114A44321268CC
:104F200082430F4B44331A60704739B10C4A103238
:104F3000126802430A4B10331A6006E0084A103226
:104F400012688243064B10331A607047E1B1044A7D
:104F5000143212680243024B14331A6019E0000045
:104F600000380240FFFFF6FE1030002400004742E8
:104F7000800E47420024F40040787D01D0000020DC
:104F8000FFFCFF0F5C0147425B4A126882435A4BA9
:104F90001A60704739B1584A121D12680243564BC5
:104FA0001B1D1A6006E0544A121D12688243524BC0
:104FB0001B1D1A60704739B14F4A0C321268024308
:104FC0004D4B0C331A6006E04B4A0C321268824398
:104FD000494B0C331A60704739B1474A1032126896
:104FE0000243454B10331A6006E0434A1032126800
:104FF0008243414B10331A60704739B13E4A3C320C
:10500000126802433C4B3C331A6006E03A4A3C3299
:1050100012688243384B3C331A60704739B1364AC4
:10502000403212680243344B40331A6006E0324A81
:10503000403212688243304B40331A60704739B1B6
:105040002D4A4432126802432B4B44331A6006E067
:10505000294A443212688243274B44331A6070470E
:1050600039B1254A4C3212680243234B4C331A6043
:1050700006E0214A4C32126882431F4B4C331A60BF
:10508000704739B11C4A5032126802431A4B5033F0
:105090001A6006E0184A503212688243164B5033A9
:1050A0001A60704739B1144AD21F12780243124B6A
:1050B000DB1F1A7006E0104AD21F127882430E4B93
:1050C000DB1F1A7070470C486030006840F0807039
:1050D000094960310860704701460020064A083AD5
:1050E00012680A400AB1012000E00020704702491E
:1050F000891F0870704700001438024010B504463C
:10510000FE48844208D101210846FFF765FF0021CF
:105110000120FFF761FF9DE0B4F1804F08D101212C
:105120000846FFF748FF00210120FFF744FF91E008
:10513000F348844208D101210220FFF73CFF0021FF
:105140000220FFF738FF85E0EE48844208D10121B4
:105150000420FFF730FF00210420FFF72CFF79E047
:10516000E948844208D101210820FFF724FF0021EB
:105170000820FFF720FF6DE0E448844208D10121B8
:105180001020FFF718FF00211020FFF714FF61E047
:10519000DF48844208D101212020FFF70CFF0021C5
:1051A0002020FFF708FF55E0DA48844208D10121AA
:1051B0000220FFF711FF00210220FFF70DFF49E059
:1051C000D548844209D101210804FFF705FF0021D9
:1051D0004FF48030FFF700FF3CE0D048844209D113
:1051E00001214804FFF7F8FE00214FF40030FFF7DB
:1051F000F3FE2FE0CA48844209D101218804FFF759
:10520000EBFE00214FF48020FFF7E6FE22E0C548C8
:10521000844208D101214020FFF7CDFE002140202B
:10522000FFF7C9FE16E0C048844208D10121802062
:10523000FFF7C1FE00218020FFF7BDFE0AE0BB485A
:10524000844207D101218015FFF7B5FE0021A0158A
:10525000FFF7B1FE10BD00220288A84B98420ED085
:10526000AC4B98420BD0B0F1804F08D0A44B984281
:1052700005D0A44B984202D0A34B984204D14FF6DC
:105280008F731A404B881A43A04B984207D0A04B0B
:10529000984204D04FF6FF431A400B891A4302800C
:1052A0004B68C3620B880385944B984202D0994B9C
:1052B000984201D18B7A03860123838270474FF095
:1052C000FF3141600021018001814180817270477E
:1052D0000185828270470A46002101884FF68F734C
:1052E000194011430180704741627047C1627047A5
:1052F0000146486A70470146088D704721B102880F
:1053000042F00202028004E002884FF6FD731A4068
:105310000280704721B1028842F00402028004E05A
:1053200002884FF6FB731A400280704721B1028851
:1053300042F08002028004E002884FF67F731A4038
:105340000280704702884FF6F7731A400280028885
:105350000A430280704702884FF6FF431A400280DA
:1053600002880A430280704721B1028842F001029C
:10537000028004E002884FF6FE731A4002807047F4
:1053800070B5002400220023058C4FF6FE763540D0
:105390000584028C8388048B4FF68F752C40B51ED4
:1053A0002C400D882C43751E2A408D892A434D8838
:1053B0002A43524DA84202D0564DA84213D14FF66F
:1053C000F7752A40CD892A434FF6FB752A408D8810
:1053D0002A434FF6FF652B404FF6FF552B400D8AB1
:1053E0002B434D8A2B43838004838D68456302845D
:1053F00070BD70B5002400220023058C4FF6EF76B7
:1054000035400584028C8388048B48F6FF752C4058
:105410004FF6FF452C400D884FF6FF7606EA05252E
:105420002C434FF6DF752A408D8906EA05152A437D
:105430004D8806EA05152A43304DA84202D0354D65
:10544000A8421DD14FF67F752A40CD894FF6FF76D1
:1054500006EA05152A434FF6BF752A408D8806EAED
:1054600005152A434FF6FF352B404FF2FF752B40B1
:105470000D8A06EA85052B434D8A06EA85052B43EE
:10548000838004838D688563028470BD70B50024B9
:1054900000220023058C4FF6FF6635400584028C00
:1054A0008388848B4FF68F752C404FF6FC752C400B
:1054B0000D882C434FF6FF552A408D894FF6FF7615
:1054C00006EA05252A434D8806EA05252A430B4DA1
:1054D000A84202D00F4DA84238D14FF2FF752A40A2
:1054E000CD894FF6FF7606EA05252A434FF6FF35AC
:1054F0002A408D8806EA05252A4319E0000001406C
:105500000004004000080040000C00400010004073
:1055100000140040000401400040014000440140EC
:105520000048014000180040001C004000200040DE
:105530004EF6FF752B404DF6FF752B400D8A06EA9F
:1055400005152B434D8A06EA05152B43838084837A
:105550008D68C563028470BD70B5002200230024ED
:10556000058C4EF6FF7635400584038C8488828B4B
:1055700048F6FF752A404FF6FF452A400D884FF642
:10558000FF7606EA05252A434DF6FF752B408D89E7
:1055900006EA05352B434D8806EA05352B43FE4DBB
:1055A000A84202D0FD4DA84208D14BF6FF752C4011
:1055B0000D8A4FF6FF7606EA85152C438480828398
:1055C0008D680564038470BD002101804180818065
:1055D00081608181C18101824182704770B503463B
:1055E000002000241846183001258D40ACB21D8CD7
:1055F000A5431D8409B108290AD100EB61000568A3
:105600004FF68F76354005600568154305600FE05D
:105610000D1FC5F34E052844056848F6FF76354052
:10562000056005684FF6FF7606EA022635430560F9
:1056300070BD4163704781637047C1637047016407
:1056400070470A460021018B4FF68F7319401143B2
:10565000018370470A460021018B48F6FF73194009
:105660004FF6FF7303EA02231943018370470A468A
:105670000021818B4FF68F7319401143818370474E
:105680000A460021818B48F6FF7319404FF6FF73DD
:1056900003EA02231943818370470A460021018BE4
:1056A0004FF6F77319401143018370470A460021F2
:1056B000018B4FF2FF7319404FF6FF7303EA022389
:1056C0001943018370470A460021818B4FF6F77317
:1056D00019401143818370470A460021818B4FF2A4
:1056E000FF7319404FF6FF7303EA022319438183C6
:1056F00070470A460021018B4FF6FB731940114396
:10570000018370470A460021018B4FF6FF33194091
:105710004FF6FF7303EA02231943018370470A46D9
:105720000021818B4FF6FB73194011438183704731
:105730000A460021818B4FF6FF3319404FF6FF7365
:1057400003EA02231943818370470A460021018B33
:105750004FF67F7319401143018370470A460021B9
:10576000018BC1F30E014FF6FF7303EA02231943C5
:10577000018370470A460021818B4FF67F731940E1
:105780001143818370470A460021818BC1F30E01CA
:105790004FF6FF7303EA02231943818370470A46D9
:1057A0000021018C4FF6FD731940114301847047AD
:1057B0000A460021018C4FF6F7731940114301840A
:1057C00070470A460021018C4FF6DF7319404FF6EF
:1057D000FF7303EA02131943018470470A4600214C
:1057E000018C4FF67F7319404FF6FF7303EA0213E3
:1057F0001943018470470A460021018C4FF6FF537C
:1058000019404FF6FF7303EA0223194301847047DE
:105810000A460021018C4FF2FF7319404FF6FF73C7
:1058200003EA02231943018470470A460021018CD0
:105830004DF6FF7319404FF6FF7303EA0233194325
:105840000184704730B5002301248C40A3B2048C3E
:105850009C430484048C02FA01F5ADB22C43048409
:1058600030BD30B5002304248C40A3B2048C9C438B
:105870000484048C02FA01F5ADB22C43048430BDDB
:10588000828B4FF2FF331A408283828B4FF6FF7375
:1058900003EA01231A4382837047F0B50C4615468C
:1058A000002100220026078C4EF6FF7C07EA0C0739
:1058B0000784818B028C4FF6FF7707EA043640F6A7
:1058C000FF4739404FF6FF7707EA052739434FF680
:1058D000FF7707EA0337394345F6FF773A4046F446
:1058E00080573A4381830284F0BD828B4FF6F37375
:1058F0001A408283828B0A4382837047F0B50C463C
:105900001546002100220026078C4FF6FF6C07EA9F
:105910000C070784818B028C4FF6FF7707EA042679
:105920004FF60C7739404FF6FF7707EA03172F43FE
:1059300039434FF2FF573A4046F480773A43818328
:105940000284F0BD028B4FF2FF331A400283028BB8
:105950004FF6FF7303EA01231A4302837047F0B541
:105960000C461546002100220026078C4FF6EF7CDE
:1059700007EA0C070784018B028C4FF6FF7707EAD2
:10598000041640F6FF4739404FF6FF7707EA033722
:1059900039434FF6FF7703E0000001400004014067
:1059A00007EA052739434FF65F773A4046F010077C
:1059B0003A4301830284F0BD028B4FF6F3731A4021
:1059C0000283028B0A4302837047F0B50C461546EA
:1059D00000210022068C4FF6FE773E400684018BA4
:1059E000028C4FF60C7631407E1C06EA03162E43DD
:1059F00031434FF6F576324044F0010632430183DD
:105A00000284F0BD70B505460C46208850B9238944
:105A1000A28861882846FFF7D8FFE1882846FFF76B
:105A2000CBFF25E0208804280AD12389A288618839
:105A30002846FFF794FFE1882846FFF783FF17E029
:105A4000208808280AD12389A28861882846FFF780
:105A500055FFE1882846FFF748FF09E02389A2881F
:105A600061882846FFF719FFE1882846FFF708FFFD
:105A700070BD002101804180012181800021C18011
:105A8000018170472DE9F04105460C4600260127AB
:105A9000608808B9022600E00026A088012801D10C
:105AA000022700E001272088A0B92389A288618805
:105AB0002846FFF78AFFE1882846FFF77DFF238904
:105AC0003A4631462846FFF74AFFE1882846FFF765
:105AD00039FF13E02389A28861882846FFF73FFF3A
