:020000040800F2
:10000000401F002099680008A5100008A7100008EC
:10001000B7100008BB100008BF1000080000000067
:10002000000000000000000000000000AB680008B5
:10003000C310000800000000AF680008B1680008A5
:10004000B3680008B3680008B3680008B368000824
:10005000B3680008B3680008B3680008B368000814
:10006000B3680008BD200008B3680008B368000842
:10007000DD2C0008D33000081F2D0008A93000082F
:10008000B3680008B3680008B3680008C519000821
:10009000E1190008051A0008B3680008B3680008F1
:1000A000B3680008B3680008B3680008B3680008C4
:1000B000B3680008B3680008B3680008B3680008B4
:1000C000B3680008B3680008B3680008B3680008A4
:1000D000B3680008D31500083F2700089D2B0008CF
:1000E000B3680008B3680008B3680008B368000884
:1000F000B3680008B3680008B368000879330008E3
:10010000B3680008B3680008B9210008B3680008A4
:100110005D2F000815330008B3680008B3680008B5
:10012000B3680008E9360008F9160008B36800084B
:10013000B3680008B3680008B36800084F1D0008E2
:100140006B1D00080D1F0008B3680008B3680008A5
:10015000B3680008073700080F1700087336000857
:10016000B3680008B3680008B3680008B368000803
:10017000B3680008B3680008B3680008B3680008F3
:10018000B3680008B368000800F002F800F092F8C5
:100190000AA090E8000C82448344AAF10107DA45E2
:1001A00001D100F087F8AFF2090EBAE80F0013F0A2
:1001B000010F18BFFB1A43F001031847B483000076
:1001C000D4830000103A24BF78C878C1FAD8520707
:1001D00024BF30C830C144BF04680C6070470000C1
:1001E0000023002400250026103A28BF78C1FBD840
:1001F000520728BF30C148BF0B6070476E2906F018
:100200006784702906F0A985662908F0AF80652902
:1002100008F0AC80672908F0A980612908F0A8805F
:1002200003681B0A28BF41F08001692906F0148485
:10023000642906F01184752906F00E846F2906F0F2
:100240003685782906F07585E92906F0D184E429F8
:1002500006F0CE84F52906F0CB84EF2906F033852D
:10026000F82906F074850368DB0928BF41F0800196
:10027000632907F07782732907F07C82E32907F06E
:100280008782F32907F08C82002070471FB508F0A1
:1002900068F807F0D7FA04000020002107F0D4FF27
:1002A000401C60600020002107F0B8FFE0601FBD27
:1002B00010B510BD07F098FA1146FFF7E7FF00F000
:1002C00007FE07F075FB03B4FFF7F2FF03BC02F073
:1002D00069FB000010B54FF4A06003F073FDA82087
:1002E00001F038FA02F00CFB02F022FB02F040FBB6
:1002F0004FF4E13001F074F802F0BEF94FF47A7077
:1003000001F08AFA012001F0B5FA40F2015001F043
:10031000E9FB642001F080FA532140F2CF7001F034
:1003200013FFFEA001F0D2F910BD884201DD08469E
:1003300003E04A42904200DA484270472DE9FC4F00
:1003400007468846914600250024002300269A4649
:100350009B46002001900090A8F57A7004B2A7F5A2
:100360007A7003B2A9F57A7006B2002B01DD184647
:1003700000E05842B0F5967F7BDD002C01DD204681
:1003800000E06042B0F5967FF6DDE94890ED000AA6
:10039000E84880ED000AB3F5967F21DD14F5967FDD
:1003A0001EDA9FEDE50AE24880ED000A002B01DD30
:1003B000184600E05842002C01DD214600E0614271
:1003C0000844404200EE100AB8EEC00ADFEDDB0A36
:1003D00020EE200ABDEEC00A10EE100A05B2C1E000
:1003E00013F5967F21DA14F5967F1EDA9FEDD40A75
:1003F000CF4880ED000A002B01DD184600E058428E
:10040000002C01DD214600E061420844404200EE3C
:10041000100AB8EEC00ADFEDC90A20EE200ABDEED0
:10042000C00A10EE100A05B29CE013F5967F21DA9F
:10043000B4F5967F1EDD9FEDC00ABD4880ED000A31
:10044000002B01DD184600E05842002C01DD21465A
:1004500000E06142084400EE100AB8EEC00ADFED89
:10046000B70A20EE200ABDEEC00A10EE100A05B24F
:1004700078E023E0B3F5967F74DDB4F5967F71DD07
:100480009FEDAF0AAA4880ED000A002B01DD184657
:1004900000E05842002C01DD214600E061420844A2
:1004A00000EE100AB8EEC00ADFEDA40A20EE200A22
:1004B000BDEEC00A10EE100A05B253E0002B01DDBC
:1004C000184600E05842B0F5967F26DD002C01DD8D
:1004D000204600E06042B0F5967F1EDA944890ED29
:1004E000000A944880ED000AB3F5967F08DD9FED81
:1004F000950A8F4880ED000AA3F5967005B231E0A9
:1005000013F5967F2EDA9FED900A894880ED000A58
:1005100003F59670404205B224E0002B01DD184639
:1005200000E05842B0F5967F1CDA002C01DD204631
:1005300000E06042B0F5967F14DD7D4890ED000A42
:100540007C4880ED000A9FED810A794880ED000A21
:10055000B4F5967F03DDA4F5967005B202E004F5CC
:10056000967005B2002E01DD304600E07042B0F515
:10057000967F7BDDB6F5967F03DDA6F5967005B216
:1005800002E006F5967005B2694890ED000A6948E8
:1005900080ED000A9FED6A0A654880ED000A654813
:1005A00090ED000A6248D0ED000A30EE600AB5EE28
:1005B000C00AF1EE10FA08DD5E4890ED000A5C48D2
:1005C000D0ED000A30EE600A09E05A4890ED000ACA
:1005D0005748D0ED000A30EE600AB1EE400AF3EE63
:1005E000040AB4EEE00AF1EE10FA02DD19205849CF
:1005F000088057480088401E00B2554908800846C8
:10060000B0F90000002844DC0020088005EB45001C
:1006100000B25049088005EB450000B24E49088001
:1006200005EB450000B24D49088005EB450000B2DE
:100630004B4908803E4890ED000AB1EE400ADFEDDC
:10064000490A20EE200ABDEEC00A10EE10AA90ED75
:10065000000ADFED440A20EE200ABDEEC00A10EECB
:1006600010BA90ED000AB1EE400A00E012E0DFEDB2
:100670003D0A20EE200ABDEEC00A8DED010A90ED84
:10068000000ADFED380A20EE200ABDEEC00A8DED2B
:10069000000A1EE1002B01DD184600E05842B0F5CB
:1006A000967F71DA002C01DD204600E06042B0F553
:1006B000967F69DA9FED250A1D4880ED000A002526
:1006C000684200EB800023490880684200EB80000C
:1006D0002149088005EB85002049088005EB85004D
:1006E0001F490880124890ED000ADFED1E0A20EE37
:1006F000200ABDEEC00A10EE10AA90ED000ADFED50
:10070000190A20EE200ABDEEC00A10EE10BA90EDD4
:10071000000ADFED140A20EE200A25E07379732029
:10072000696E69742066696E697368210D0A00003C
:100730000400002008000020000034C29A99193FEC
:10074000000034420000B4420000B4C200000000C7
:100750000200002094000020960000209800002055
:100760009A000020CD380E45BDEEC00A8DED010A7D
:1007700090ED000A5FED050A20EE200ABDEEC00AEA
:100780008DED000AA5E0FFE7FC4890ED000AFC486B
:10079000D0ED000A30EE600AB5EEC00AF1EE10FAB4
:1007A00008DDF64890ED000AF548D0ED000A30EE7D
:1007B000600A09E0F14890ED000AF148D0ED000A26
:1007C00030EE600AB1EE400ADFEDEE0AB4EEE00A68
:1007D000F1EE10FA03DD2020EB49088029E0E7481C
:1007E00090ED000AE648D0ED000A30EE600AB5EE62
:1007F000C00AF1EE10FA08DDE04890ED000AE0488A
:10080000D0ED000A30EE600A09E0DC4890ED000A05
:10081000DB48D0ED000A30EE600AB1EE400AF3EE9C
:100820000E0AB4EEE00AF1EE10FA02DD1420D64909
:100830000880D5480088401E00B2D3490880084689
:10084000B0F9000000281BDC00200880684200EBA3
:100850004000400000B2CD490880684200EB4000F3
:10086000400000B2CA49088005EB4500400000B2D4
:10087000C849088005EB4500400000B2C649088021
:10088000BF4890ED000A5FED490A20EE200ABDEE58
:10089000C00A10EE10AA90ED000A5FED4E0A20EE9D
:1008A000200ABDEEC00A10EE10BA90ED000A5FED0E
:1008B000530A20EE200ABDEEC00A8DED010A90ED2C
:1008C000000A5FED580A20EE200ABDEEC00A8DED49
:1008D000000A4FF448315046FFF727FDAF49086042
:1008E0004FF448315846FFF720FDAD4908604FF4FA
:1008F00048310198FFF719FDAA4908604FF44831C3
:100900000098FFF712FDA8490860BDE8FC8FF0B51C
:10091000002300240025A2F57A7635B2A1F57A7677
:1009200034B2A0F57A7633B2B3F5967F06DDC826E9
:100930009E4F3E8076429E4F3E800FE013F5967F9D
:1009400007DA6FF0C706994F3E80C826984F3E8061
:1009500004E00026954F3E80954F3E80B4F5967F8B
:1009600007DD6FF0DB06934F3E80C826924F3E8036
:100970000FE014F5967F07DADC268E4F3E806FF08D
:10098000C7068D4F3E8004E000268A4F3E808A4F86
:100990003E80B5F5967F08DD4FF4B976874F3E80EF
:1009A0004FF4C876864F3E8010E015F5967F08DA42
:1009B0006FF4D976814F3E804FF68466804F3E803B
:1009C00004E000267D4F3E807D4F3E80F0BD10B597
:1009D00000235FEDA20AB0EE600A00247948008887
:1009E000401C78490880084600883C2878DD0020B3
:1009F000088075484088B0F5F06F0BDB734840887D
:100A0000B0F5F06F06DB46235FEDB30AB0EE600A87
:100A100001246DE06C484088B0F5707F14DC6A48B2
:100A20004088002810DD69484088B0F5707F0BDCF5
:100A300066484088002807DD46235FEDBF0AB0EE18
:100A4000600A4FF0FF3453E05F484088B0F5487FBC
:100A50000CDA5E484088B0F5F06F07DB46235FEDA7
:100A6000C80AB0EE600A4FF0FF3441E057484088B2
:100A7000B0F5487F0BDA54484088B0F5F06F06DBDC
:100A800046235FEDD10AB0EE600A012430E04F4802
:100A90004088B0F5F86F06DB46235FEDD60AB0EE6E
:100AA000600A002424E049484088B0F5707F0ADAE3
:100AB00046484088002806DD46235FEDDD0AB0EE9B
:100AC000600A002414E04148408810B13E48408844
:100AD00038B900235FEDE30AB0EE600A002407E0B6
:100AE0000BE16FF095035FEDE70AB0EE600A0024BA
:100AF000012C6FD1254803802548038025480380B9
:100B0000254803805FEDE90A60EE200AFDEEE00A69
:100B100010EE900A4FF44831FFF707FC40421F499E
:100B200008605FEDF00A60EE200AFDEEE00A10EECC
:100B3000900A4FF44831FFF7F8FB194908605FED60
:100B4000F70A60EE200AFDEEE00A10EE900A4FF47C
:100B50004831FFF7EAFB404212490860DFED1C0A0A
:100B600060EE200AFDEEE00A10EE900A4FF44831E4
:100B7000FFF7DBFB0C490860BFE02BE0080000201A
:100B800004000020000070420200002094000020B9
:100B900096000020980000209A0000209C00002071
:100BA000A0000020A4000020A8000020B400002025
:100BB000B6000020B0000020B2000020AC000020F1
:100BC000AE00002014000020C4000020C00000205F
:100BD000CD380E45601CE0BB584200B2FE4908808B
:100BE000584200B2FD490880584200B2FC490880D2
:100BF000584200B2FB4908805FED0B0A60EE200A04
:100C0000FDEEE00A10EE900A4FF44831FFF78DFB3D
:100C10004042F54908605FED120A60EE200AFDEEE1
:100C2000E00A10EE900A4FF44831FFF77EFBEF49DF
:100C300008605FED190A60EE200AFDEEE00A10EE92
:100C4000900A4FF44831FFF770FB4042E8490860D2
:100C500000E00EE05FED220A60EE200AFDEEE00A01
:100C600010EE900A4FF44831FFF75FFBE14908604E
:100C700043E0584200B2D8490880584200B2D749F0
:100C80000880D7480380D74803805FED2F0A60EEC5
:100C9000200AFDEEE00A10EE900A4FF44831FFF70B
:100CA00044FBD14908605FED360A60EE200AFDEE94
:100CB000E00A10EE900A4FF44831FFF736FBCB49BB
:100CC00008605FED3D0A60EE200AFDEEE00A10EEDE
:100CD000900A4FF44831FFF728FBC54908605FEDE3
:100CE000440A60EE200AFDEEE00A10EE900A4FF48E
:100CF0004831FFF71AFBBF49086010BD10B54FF42B
:100D00008061BD4804F0F8F818B90120BB490870AB
:100D100002E00020B94908704FF48051B64804F051
:100D2000EBF818B90120B549487002E00020B3493A
:100D3000487010BD7047B2480078012806D1B1480C
:100D4000407818B90120B04908701BE0AD484078E0
:100D5000012803D10420AC49087013E0A948407869
:100D6000022802D1A84908700CE0A548007810B903
:100D7000A448407818B1A5480078012802D1002085
:100D8000A1490870704700B52DED068B85B0A048CD
:100D90000078401C9E4908700846007832282BDDF8
:100DA000984890ED030A10EE101A084607F068FA0A
:100DB00041EC180B934890ED020A10EE101A084609
:100DC00007F05EFA41EC190B8E4890ED010A10EE27
:100DD000101A084607F054FA41EC1A0B8DED028BFD
:100DE0008DED009B53EC1A2B8748017889A000F009
:100DF0006DFC00208649087005B0BDEC068B00BD77
:100E00007E48007801280FD17C48407801280BD11A
:100E10007A48807840B97948C07828B90120874954
:100E2000087076498870C87084480078012804D01A
:100E300002281BD0032849D142E04FF4B970804901
:100E400008804FF4C8707F4908807F4800790228E5
:100E50000BD17D484079022807D1002078490880CD
:100E6000784908800220754908702FE06FF0DB0098
:100E700076490880C8207649088040427549088034
:100E8000C8207549088070480078022817D16E483C
:100E90004078022813D16C48807801280FD16A4825
:100EA000C07801280BD10020684908806849088073
:100EB000684908806849088003206049087005E097
:100EC0000220504948705049087000BF00BF704769
:100ED000FFF700FA02F062FD642000F09DFCDEE006
:100EE0005E4800780028FAD0FFF725FF46480078D2
:100EF00030B101280CD0022835D0042807D135E0C4
:100F000002F0CCFE02F037FF55A000F0DFFBBAE0A4
:100F1000564800880D280DD15548008802B2554822
:100F2000008801B25448008800B2FFF707FAFFF7C3
:100F300067FF17E04D48008801280DD14F48008811
:100F400002B24C48008801B24B48008800B2FFF75B
:100F5000DEFC02F0A3FE05E0444800880F2801D122
:100F6000FFF735FD8FE0FFF732FD8CE0FFF7C6FE9F
:100F7000244B93ED030ABDEEC00A10EE103A1AB2EC
:100F8000204B93ED020ABDEEC00A10EE103A19B2E2
:100F90001C4B93ED010ABDEEC00A10EE103A18B2D8
:100FA000FFF7CCF9174B93ED060ABDEEC00A10EE21
:100FB000103A1AB2134B93ED050ABDEEC00A10EEBB
:100FC000103A19B20F4B93ED040ABDEEC00A10EEB1
:100FD000103A18B254E0000094000020960000205F
:100FE000980000209A0000209C000020A000002013
:100FF000A4000020A8000020001002400C000020E7
:1010000042000020EC00002011000020170000200A
:10101000160000206D6F64653A2564206376783A87
:10102000252E3266206376793A252E326620637645
:10103000773A252E32660D0A0000000012000020CB
:10104000AC000020AE00002028000020B0000020EE
:10105000B2000020B4000020B600002034000020C0
:101060007374616E6462790D0A000000480000200C
:10107000400000203C0000203A0000203E000020FC
:10108000FFF745FC00BF00BFFFF738FEFFF752FE39
:1010900001F046FBFFF777FE0020014908701FE7CB
:1010A00034000020704705E006A000F00FFB64202C
:1010B00000F0B2FBF8E700BFFEE700BFFEE700BFAD
:1010C000FEE77047686172646661756C742E2E2E3F
:1010D0000D0A000010B5A2B00024802102A805F07E
:1010E0002EFC00200190F1222146641C02A84254EB
:1010F00001222146641C4254641CB34890ED000A4E
:101100008DED010A9DF804202146641C02A842547A
:101110009DF805202146641C42549DF80620214676
:10112000641C42549DF807202146641C4254A64882
:1011300090ED010A8DED010A9DF804202046611C06
:10114000CCB202A90A549DF805202046611CCCB2FD
:1011500002A90A549DF806202046611CCCB202A9BF
:101160000A549DF807202046611CCCB202A90A54FB
:10117000954890ED020A8DED010A9DF80420204665
:10118000611CCCB202A90A549DF805202046611CBE
:10119000CCB202A90A549DF806202046611CCCB2AC
:1011A00002A90A549DF807202046611CCCB202A96E
:1011B0000A5408222046611CCCB202A90A54192202
:1011C0002046611CCCB202A90A548DF80A4021467F
:1011D00002A800F069FA22B010BD0178F12901D10E
:1011E000012100E000214278022A01D1012200E021
:1011F0000022114031B1C178744A117001795170E7
:1012000041799170704710B58178022900DA10BDDC
:101210008B1EC25C0378712B01D1012300E00023F7
:101220004478082C01D1012400E000242340E3B3DA
:10123000C378674C63700379A3704379E370C37913
:10124000847943EA042300EE103AB8EEC00A604BFA
:1012500083ED010A437A047A43EA042300EE103A4C
:10126000B8EEC00A5A4B83ED020AC37A847A43EA85
:10127000042300EE103AB8EEC00A554B83ED030A82
:10128000437B047B43EA042300EE103AB8EEC00A25
:101290004F4B83ED040AC37B847B43EA042300EEB7
:1012A000103AB8EEC00A4A4B00E00CE083ED050AA4
:1012B000437C047C43EA042300EE103AB8EEC00AF3
:1012C000434B83ED060A00BFA1E710B590B00024A0
:1012D0004021684605F033FB3E480078401C3D49FC
:1012E0000870084600780A286BDD0020087071221B
:1012F0002046611CCCB20DF8002007222046611C5C
:10130000CCB20DF80020601CC4B2334802782046ED
:10131000611CCCB20DF8002000222046611CCCB22A
:101320000DF800202046611CCCB20DF800202B489F
:1013300002782046611CCCB20DF800202748427884
:101340002046611CCCB20DF800202448827820464B
:10135000611CCCB20DF800202048C2782046611CE8
:10136000CCB20DF800201D4802792046611CCCB299
:101370000DF80020194842792046611CCCB20DF8C6
:10138000002000222046611CCCB20DF8002008226B
:101390002046611CCCB20DF8002019222046611CA9
:1013A000CCB20DF800208DF80240A01EC1B26846F4
:1013B00001F084FAA11E0DF801002146684600F0F4
:1013C00073F910B010BD0000D00E002017000020EF
:1013D000EC0000201A00002011000020280000204E
:1013E00010B596B004460121084603F069FF0121BB
:1013F000102003F0A9FF07220921CD4803F0A5FD25
:1014000007220A21CA4803F0A0FD00208DF85600EB
:1014100001208DF8570002208DF85400000214902E
:1014200002208DF8550014A9C14803F003FD0220E5
:101430008DF854004002149014A9BD4803F0FAFC42
:10144000BC4804F0CDFE10940020ADF84400ADF887
:101450004600ADF84800ADF84C000C20ADF84A004D
:1014600010A9B44804F00AFF002240F22551B14807
:1014700005F042F8002240F22661AE4805F03CF843
:10148000012240F22441AB4805F036F80121A94879
:1014900004F07CFF0121880503F012FF01224021A6
:1014A000A44805F020F801228021A24805F01BF88D
:1014B00025208DF83C0001208DF83D008DF83E0080
:1014C0008DF83F000FA802F082FC46208DF83C000A
:1014D00002208DF83D008DF83E0001208DF83F0080
:1014E0000FA802F074FC3A208DF83C0000208DF823
:1014F0003D0002208DF83E0001208DF83F000FA82E
:1015000002F065FC8C4803F0C5F94FF000600090D4
:101510008848001D01908948029000200390802097
:101520000490002005904FF4806006900020079002
:1015300008904FF4807009904FF440300A900020DA
:101540000B900C900D900E9069467B4803F044FA86
:101550000121794803F07AFA7748783003F09AF954
:101560004FF0006000907348001D01907448029095
:101570004020039080200490002005904FF480606C
:10158000069000200790089009904FF480300A9050
:1015900000200B900C900D900E90694666487830B4
:1015A00003F01AFA01228021624804F09CFF012214
:1015B00010216148783003F0D6FA00215E48783077
:1015C00003F044FA16B010BD02465068081A80B203
:1015D000704770B50024002540F22551554804F0AD
:1015E000C6FF18B1534804F000FFC4B240F22441D2
:1015F000504804F0BCFF18B35048FFF7EEFD4F48C9
:10160000FFF701FE80214C48FFF7DEFF4D490880BF
:101610000021494803F01AFA00BF474803F063FA73
:101620000028FAD18021444803F031FA01214248D0
:1016300003F00CFA3F480088C5B23E488088C5B226
:1016400070BD10B5044600BF20213A4804F079FF70
:101650000028F9D0374804F0C8FE10BD70B5044624
:101660000D4639480078F0B900213348783003F04E
:10167000EDF900BF3048783003F035FA0028F9D191
:10168000002221462C48783003F01EFAA9B22A48DD
:10169000783003F0FCF901212748783003F0D6F9BF
:1016A00001202949087070BD70B505460E4600241A
:1016B00000BF04E0285D22490855601CC4B2B44252
:1016C000F8DB31461E48FFF7C9FF70BD0FB438B5CF
:1016D00005A800901A48009A049905F0FFF8002028
:1016E0000090174805F00CF9044621461448FFF70E
:1016F000B5FF38BC5DF814FB10B514490E4803F073
:101700004FFA18B111490C4803F074FA10BD10B526
:101710000F490948783003F043FA38B100200A49EC
:1017200008700B490448783003F064FA10BD0000DB
:101730000000024000100140406402400801002007
:1017400088010020200000201C00002000802010C4
:101750000080002810B504466FF0040002F084FBFE
:10176000E11704EB5171C1F3C701404A11701046F3
:10177000007800EB4001C1EBC0104FF6FF7101EAA9
:10178000C0003B49088010BD0146384A12784A43E0
:101790004FF0E0235A6100229A611A46126942F022
:1017A00001021A6100BF4FF0E022106900F001024F
:1017B0001AB100F48032002AF5D04FF0E02212690D
:1017C00022F001024FF0E0231A6100229A61704773
:1017D0000146274A12884A434FF0E0235A6100220B
:1017E0009A611A46126942F001021A6100BF4FF075
:1017F000E022106900F001021AB100F48032002AE0
:10180000F5D04FF0E022126922F001024FF0E02300
:101810001A6100229A61704770B504464FF4077050
:1018200094FBF0F0C6B24FF4077094FBF0F100FBAC
:10183000114085B205E04FF40770FFF7C9FF701E35
:10184000C6B2002EF7D115B12846FFF7C1FF70BD13
:1018500010B5002107E04AF2104200BF131EA2F1AA
:101860000102FBD1491C8142F5D310BD22000020AA
:101870002400002010B58AB004460121084603F078
:101880001FFD0121480603F04EFD09220C2192485C
:1018900003F05BFB09220B218F4803F056FB4FF44A
:1018A000C050019002208DF8080000208DF80A0039
:1018B00003208DF8090001A9874803F0BBFA142022
:1018C0008DF8000001208DF8010002208DF8020043
:1018D00001208DF80300684602F079FA15208DF892
:1018E000000001208DF8010002208DF80200012087
:1018F0008DF80300684602F06AFA13208DF80000A4
:1019000001208DF801008DF802008DF80300684673
:1019100002F05DFA714802F0C5FA07A802F0E6FB92
:1019200000208DF822008DF823008DF824008DF81A
:1019300025008DF8260001208DF8270000208DF865
:101940001E008DF81F0008208DF8200003208DF860
:1019500021000620ADF81C0007A9604802F0BBFA80
:1019600000208DF816008DF8170001208DF8180062
:101970004FF6FF7000EA4410ADF80C000020ADF8FF
:101980000E004FF6FF70ADF81000401EADF81200CB
:101990000020ADF8140001208DF8190003A802F012
:1019A00024FB012202214D4802F01EFE01221021DB
:1019B0004A4802F019FE01221146484802F014FE7E
:1019C0000AB010BD10B50121444802F075FE30B1D7
:1019D0000120434908700121404802F008FF10BD72
:1019E00000B585B002213D4802F066FE40B10221FB
:1019F0003A4802F0FCFE6A460021384802F0D9FC61
:101A000005B000BD00B585B01021344802F054FE89
:101A100040B11021314802F0EAFE6A4601212F4808
:101A200002F0C7FC05B000BD2DE9F04186B00646C6
:101A30000F4615460024A04600208DF80C008DF8B6
:101A40000D008DF80E50019600BF05E0395D0DF1D7
:101A50000F000155601CC4B2AC42F7DB01E0601C12
:101A6000C4B201A91D4802F0AFFB042801D17F2CAC
:101A7000F5DB06B0BDE8F0812DE9F04186B0064601
:101A80000F4615460024A04604208DF80C000020C7
:101A90008DF80D008DF80E50029600BF05E0395DFF
:101AA0000DF10F000155601CC4B2AC42F7DB09E038
:101AB00008F1010000F0FF08B8F1050F02DD4FF05A
:101AC000000805E001A9054802F07EFB0428EFD0DC
:101AD00000BF06B0BDE8F081000002400064004095
:101AE0002600002010B58AB004460121022003F030
:101AF000E7FB0121880603F016FC09220C21FA48B5
:101B000003F023FA09220D21F74803F01EFA4FF4DF
:101B10004050019002208DF8080000208DF80A0046
:101B200003208DF8090001A9EF4803F083F9402054
:101B30008DF8000001208DF8010002208DF80200D0
:101B400001208DF80300684602F041F941208DF82C
:101B5000000001208DF8010002208DF80200012014
:101B60008DF80300684602F032F93F208DF800003E
:101B700001208DF801008DF802008DF80300684601
:101B800002F025F9D94802F08DF907A802F0AEFA63
:101B900000208DF822008DF823008DF824008DF8A8
:101BA00025008DF8260001208DF8270000208DF8F3
:101BB0001E008DF81F0008208DF8200003208DF8EE
:101BC00021000C20ADF81C0007A9C84802F083F9D9
:101BD0000E208DF8160000208DF8170001208DF8DA
:101BE00018004FF6FF7000EA4410ADF80C0000201A
:101BF000ADF80E00ADF81000ADF81200ADF814000D
:101C000001208DF8190003A802F0EFF90F208DF8DC
:101C1000160000208DF8170001208DF81800601CB8
:101C20004FF6FF7101EA4010ADF80C000020ADF84E
:101C30000E00ADF81000ADF81200ADF81400012050
:101C40008DF8190003A802F0D0F910208DF81600C5
:101C500000208DF8170001208DF81800A01C4FF609
:101C6000FF7101EA4010ADF80C000020ADF80E0045
:101C7000ADF81000ADF81200ADF8140001208DF899
:101C8000190003A802F0B1F911208DF81600002008
:101C90008DF8170001208DF81800C020ADF80C0059
:101CA0000020ADF80E00ADF81000ADF81200ADF850
:101CB000140001208DF8190003A802F096F91220F3
:101CC0008DF8160000208DF8170001208DF81800FF
:101CD000E020ADF80C000020ADF80E00ADF81000CB
:101CE000ADF81200ADF8140001208DF8190003A81A
:101CF00002F07BF913208DF8160000208DF81700F4
:101D000001208DF8180044F22000ADF80C000020EE
:101D1000ADF80E00ADF81000ADF81200ADF81400EB
:101D200001208DF8190003A802F05FF901220221B9
:101D30006E4802F059FC012210216C4802F054FC5C
:101D400001221146694802F04FFC0AB010BD10B5DF
:101D50000121664802F0B0FC30B10121634802F075
:101D600046FD01206249087010BD10B586B0022101
:101D70005E4802F0A1FC002879D002215B4802F005
:101D800036FD01AA0021594802F013FB594C029874
:101D9000A04237D19DF810009DF80F1040EA0120B5
:101DA00000EE100AB8EEC00AF2EE040A80EE201A25
:101DB000514880ED001A9DF814109DF8130041EA77
:101DC000002000EE100AB8EEC00AF2EE040A80EE1F
:101DD000201A9FED4A0A31EE400A474880ED010A79
:101DE0009DF816109DF8150041EA002000EE100A3B
:101DF000B8EEC00AF2EE040A80EE201A3E4880EDEA
:101E0000021A24E0019806280FD19DF810003C49E1
:101E100008709DF8110048709DF811109DF8100091
:101E200041EA00203649488011E0019807280ED188
:101E30009DF81000334908709DF8110048709DF816
:101E400011109DF8100041EA00202E49488040F210
:101E50000121019888422CD19DF80F002A498870F1
:101E600008468078012803D10220887007E038E016
:101E700025488078022802D10120234988709DF8E6
:101E800010002149C8709DF81100087008460078BC
:101E9000012802D10220087006E01B4800780228C1
:101EA00002D10120184908709DF8120016494870A7
:101EB00016E040F201510198884211D19DF80F00BF
:101EC000114908719DF81000012802D102204871C3
:101ED00006E09DF81000022802D101200A4948714D
:101EE00000BF06B010BD00000004024000680040C2
:101EF0002700002001409018D00E002000803B45B4
:101F0000C4000020C00000202800002000B585B0DB
:101F10001021434802F0D0FB00B31021404802F0EA
:101F200066FC6A4601213E4802F043FA3DA0FFF7F5
:101F3000CDFB0098062807D19DF80C003B4908709E
:101F40009DF80D00487009E00098072806D19DF81B
:101F50000C00374908709DF80D00487005B000BDB1
:101F60002DE9F04186B006460F4615460024A046EE
:101F700000208DF80C008DF80D008DF80E500196A4
:101F800000BF05E0395D0DF10F000155601CC4B2C2
:101F9000AC42F7DB09E008F1010000F0FF08B8F1FE
:101FA000050F02DD4FF0000805E001A91C4802F012
:101FB0000BF90428EFD000BF06B0BDE8F0812DE991
:101FC000F04186B006460F4615460024A046042080
:101FD0008DF80C0000208DF80D008DF80E50029643
:101FE00000BF05E0395D0DF10F000155601CC4B262
:101FF000AC42F7DB09E008F1010000F0FF08B8F19E
:10200000050F02DD4FF0000805E001A9044802F0C9
:10201000DBF80428EFD000BF06B0BDE8F081000077
:1020200000680040676574310D0A0000C40000209C
:10203000C00000201CB50121022003F041F901215C
:10204000042003F070F9684602F03CFFC0200090C5
:1020500002208DF8040003208DF8050001208DF882
:1020600007006946FE4802F0E5FE02220621FC4810
:1020700002F06BFF02220721F94802F066FF0023FD
:102080001A460321F74804F07AF847F6FF70F5493D
:10209000243108600121F34803F086FB1CBDF1499F
:1020A000243102680968A1F5FE41FF39114401603D
:1020B00047F6FF71EB4A24321160704710B5EA48C9
:1020C0000068401CE8490860082002F03CFE10BD92
:1020D00000B585B00121880303F036F90121022003
:1020E00003F0EEF80820009000208DF80400032093
:1020F0008DF8050001208DF807006946D84802F0E8
:1021000099FE0321012004F087FA082002900020A4
:102110008DF80C000C208DF80D0001208DF80E00BC
:1021200002A802F099FD09208DF8100003208DF817
:10213000110002208DF8120001208DF8130004A870
:1021400001F045FE05B000BD7FB505460C460121F6
:10215000082003F0E8F8C54803F0F0F90295ADF85F
:1021600004400020ADF80C00ADF806008DF80E001C
:1021700001A9BE4803F08FFA0121BC4803F0F6FA2A
:102180000121BA4803F03CFF01221146B74803F091
:1021900023FF0121B54803F007FB32208DF8000032
:1021A00000208DF8010001208DF802008DF8030059
:1021B000684601F00CFE7FBD10B50121AB4803F06D
:1021C00022FF00286FD0AA480078401CA849087058
:1021D00008460078192804DD002008700120A54970
:1021E0000870A5480078401CA3490870084600788C
:1021F000102801DD012008709F48007811281AD2AC
:10220000DFE800F090091A2B3C434B52565C627099
:10221000767C80868C009948B0F90010012001F08E
:10222000E9FC9748B0F900209648B0F9001040F258
:10223000031001F087FD75E09348B0F9001002200B
:1022400001F0D8FC9148B0F900209148B0F9001095
:102250004FF4817001F05DFD64E08E48B0F900102C
:10226000032001F0C7FC8C48B0F900208B48B0F97E
:10227000001040F2011001F033FD53E08848B0F93E
:102280000010042001F0B6FC4CE0864801680520EF
:1022900001F062FC01F08AFD44E0834801880520DA
:1022A00001F074FC3EE042E0052001F089FC39E0D9
:1022B0007E480168062001F04FFC33E07A4801882F
:1022C000062001F063FC2DE0062001F079FC724845
:1022D000B0F900207148B0F9001040F2011001F08F
:1022E000FFFC1FE072480168072001F035FC19E08F
:1022F0006D480188072001F049FC13E0072001F038
:102300005FFC0FE06B480168082001F025FC09E044
:1023100065480188082001F039FC03E0082001F03D
:102320004FFC00BF00BF0121504803F07DFE10BDEF
:1023300000B589B00121022002F0F5FF0121084615
:1023400002F0F1FF0020ADF81800ADF81A004FF6CA
:10235000FF7007900020ADF820008DF8220006A93C
:10236000554803F098F906A94FF0804003F093F91F
:102370000020ADF80400ADF81000ADF806000390A1
:1023800001A94FF0804003F01BFA01A94FF08040F3
:1023900003F04FFA01A9484803F012FA01A9464890
:1023A00003F047FA01A9444803F090FA01A9424812
:1023B00003F0F2FA00214FF0804003F08EFB002181
:1023C0004FF0804003F092FB00213B4803F085FB77
:1023D0000021394803F08AFB0021374803F093FBC2
:1023E0000021354803F098FB0121880703F0BEF96E
:1023F0000121314803F0BAF90221480703F014FE25
:1024000001220221480703F0E7FD0421080703F039
:102410000BFE01220421080703F0DEFD02212648FD
:1024200003F002FE01220221234803F0D5FD04211E
:10243000214803F0F9FD012204211F4803F0CCFDDF
:1024400008211D4803F0F0FD012208211A4803F07D
:10245000C3FD1021184803F0E7FD012210212DE0F3
:10246000000402400008004030000020000C004042
:1024700035000020340000203800002094000020A7
:10248000B6000020B400002096000020B20000201A
:10249000B000002098000020AE000020AC0000201A
:1024A0009A0000209C00002036000020A0000020A0
:1024B000A4000020A8000020000400406B4803F0A6
:1024C0008BFD1D208DF8000001208DF801000320F8
:1024D0008DF8020001208DF80300684601F077FCBA
:1024E0001C208DF80000684601F071FC00214FF0BF
:1024F000804003F0BCFD07214FF0804003F02DFE2B
:102500008021C80503F032FE3021584803F0AFFDAA
:102510000721564803F021FE8021544803F026FE8F
:102520000121880703F040F90121504803F03CF9EC
:1025300009B000BD00B589B00121084602F004FFD2
:102540000121042002F0EFFE494802F0F7FF49485C
:1025500002F0F4FF5320ADF818000020ADF81A0087
:1025600040F23F6007900020ADF820008DF8220077
:1025700006A9404803F08FF85320ADF8180000205A
:10258000ADF81A0040F67F4007900020ADF820001B
:102590008DF8220006A9364803F07DF801A803F063
:1025A00033FA6020ADF804000120ADF806000020E9
:1025B000ADF81000039001A92D4803F001F901A91D
:1025C0002B4803F036F901A92A4803F0F9F801A9CC
:1025D000284803F02EF901A9264803F077F901A94C
:1025E000244803F0D9F90821214803F076FA08219C
:1025F0001F4803F07BFA08211E4803F06EFA0821F9
:102600001C4803F073FA08211A4803F07CFA0821E9
:10261000184803F081FA0121154803F0A7F80121B9
:10262000144803F0A3F80121114803F0BDF801217B
:10263000104803F0B9F820210E4803F085FD8021F1
:102640000C4803F093FD2021094803F07DFD802113
:10265000074803F08BFD0121054803F096FC01219A
:10266000044803F092FC09B000BD000000040040E3
:10267000000001400008004000B587B001217D48FE
:1026800002F01EFE0121480402F04DFE0722032144
:10269000794802F05AFC0820059002208DF81800B5
:1026A00000208DF81A0003208DF8190000208DF805
:1026B0001B0005A9704802F0BDFB704803F090FDB7
:1026C0006F4801900020ADF808004FF40050ADF8BD
:1026D0000A00C010ADF80C000420ADF80E00002078
:1026E000ADF8100001A9654803F0C8FD012240F2D1
:1026F0002551624803F000FF0121604803F046FEC7
:1027000026208DF8000000208DF8010001208DF8B2
:1027100002008DF80300684601F059FB07B000BDC8
:1027200058480078401C57490870084600786428CB
:1027300004DD64200870002053490870704710B50C
:1027400040F225514D4803F012FF00287ED04B483F
:1027500003F04BFE4D4908704D48007838B90846E3
:1027600000780F282AD1FF204949087026E0474801
:1027700000784849484A1278885447480078172812
:1027800011D10846C07D022802D00846C07D18B984
:10279000FF204249087006E000203D4908703F498B
:1027A00008703D4908703C480078401C3A49087060
:1027B00008460078182801DD0020087037480078A6
:1027C000002856D0334800783249497840EA012041
:1027D000C0F30A00324908802E48807840012D4914
:1027E000497840EAE100C0F30A002E4908802948F0
:1027F000807880112749C97840EA81002549097904
:1028000040EA8120C0F30A00274908802148007966
:1028100040102049497940EAC110C0F30A00234919
:1028200008801C48407A00F00F00214908801948B0
:10283000807900F00F00401C1E49088000201449D8
:102840000870164908701449087000E011E011483A
:10285000807D0C2803D100200B49087005E0002082
:10286000084908700120084908700421124802F044
:1028700068FB10BD01002000000002400044004041
:10288000A086010043000020420000204E000020EE
:1028900050000020080200204F00002051000020BE
:1028A0003A0000203C0000203E00002040000020B4
:1028B00044000020480000200010024010B50246ED
:1028C000002006E0137843400C4CE05C521C4B1E89
:1028D000D9B20029F6DC10BD30B50346002006E071
:1028E0001C784440054D285D5B1C4C1EE1B200295C
:1028F000F6DC80EA0204014D285D30BD74830008D7
:102900001CB50121102002F0DBFC04200090012006
:102910008DF8040000208DF8060003208DF80500D6
:1029200001208DF8070069461C4802F083FA1CBD9F
:102930001CB50121082002F0C3FCC020009001203A
:102940008DF8040000208DF8060003208DF80500A6
:1029500001208DF807006946114802F06BFA40210A
:102960000F4802F0E3FA80210D4802F0DFFA1CBDA7
:102970001CB50121102002F0A3FC4FF4A0500090E0
:1029800000208DF8040003208DF8050001208DF84B
:1029900007006946014802F04DFA1CBD00100240D4
:1029A000000C024000BF704700BFFE4A128802F0D0
:1029B0004002002AF9D0C2B2FA4B9A80704710B593
:1029C00096B004460121880402F0ADFC01210220EA
:1029D00002F076FC0121480502F072FC07220A2170
:1029E000F14802F0B2FA07220B21EF4802F0ADFAEB
:1029F00014A802F067FA4FF48060149002208DF85A
:102A0000540003208DF8550014A9E74802F012FA8B
:102A10004FF40060149002208DF8540003208DF8CC
:102A2000550014A9E04802F005FAE04803F0D8FB8D
:102A300010A803F089FC10940020ADF84400ADF814
:102A40004600ADF84800ADF84C000C20ADF84A0047
:102A500010A9D64803F012FC012240F22441D348C9
:102A600003F04AFD27208DF83C0000208DF83D0042
:102A700001208DF83E008DF83F000FA801F0A7F966
:102A80000121CA4803F082FC0C208DF83C00022092
:102A90008DF83D008DF83E0001208DF83F000FA815
:102AA00001F095F9C24801F0F5FE4FF0006000908A
:102AB000BE48001D0190BF480290002003904FF4D3
:102AC00000700490002005904FF480600690002074
:102AD000079008904FF4807009904FF440300A90AE
:102AE00000200B900C900D900E906946B04801F0BC
:102AF00073FF01224021AD4803F0F5FC0121AC48F1
:102B000001F0A4FF0E208DF83C0001208DF83D005F
:102B100002208DF83E0001208DF83F000FA801F043
:102B200056F9A348303001F0B5FE4FF00060009038
:102B30009E48001D0190A0480290402003908020F4
:102B40000490002005904FF48060069000200790CC
:102B5000089009904FF480300A9000200B900C9060
:102B60000D900E9069469248303001F035FF0122F9
:102B700080218E4803F0B7FC012210218C483030B0
:102B800001F0F1FF00218A48303001F05FFF16B0FC
:102B900010BD02465068081A80B2704770B5002414
:102BA00000BF40F22551814803F0E1FC002832D0FB
:102BB0007E4803F01AFCC4B28048007830B97F2CFC
:102BC00004D101207D490870002048817B480078AD
:102BD00001281BD17948408976490C5477484089AF
:102BE000401C7649488108464089032801D108469F
:102BF00004817248408971490989884206DB6F481F
:102C00004089032802DD00206C49087040F22551FC
:102C1000664803F0E3FC40F22441644803F0A7FC5B
:102C200018B36448FEF7EFFA4FF400716048FFF7FD
:102C3000B0FF6349088000215D4801F007FF00BF35
:102C40005B4801F050FF0028FAD15D4801885848E0
:102C500001F01DFF0121564801F0F8FE534800889D
:102C6000C5B25248001D0088C5B270BD70B504469B
:102C70000D4654480078F0B900214D48303001F03D
:102C8000E5FE00BF4A48303001F02DFF0028F9D1A1
:102C9000002221464648303001F016FFA9B24448D0
:102CA000303001F0F4FE01214148303001F0CEFE19
:102CB00001204449087070BD70B505460E460024D9
:102CC00000BF04E0285D3C490855601CC4B2B44212
:102CD000F8DB31463848FFF7C9FF70BD10B53A49F7
:102CE000334801F05DFF18B13749314801F082FFE8
:102CF00010BD0FB438B505A800902F48009A04996C
:102D000003F0ECFD002000902B4803F0F9FD044691
:102D100021462948FFF7AAFF38BC5DF814FB10B51F
:102D20002A492348303001F03BFF38B100202549C3
:102D3000087026491E48303001F05CFF10BD10B508
:102D400096B004460121C80402F0EDFA01210420E6
:102D500002F0B6FA0121480502F0B2FA08220A216F
:102D60001B4802F0F2F808220B21194802F0EDF896
:102D700014A802F0A7F84FF48060149002208DF898
:102D8000540003208DF8550014A9114802F052F8A0
:102D90004FF40060149002208DF8540003208DF849
:102DA000550017E0001001400004024000480040B8
:102DB00028600240A802002028020020A804002069
:102DC000640000205C0000200088001000800018D3
:102DD0000008024014A9FE4802F02CF810A803F0E5
:102DE000B3FA10940020ADF84400ADF84600ADF8F9
:102DF0004800ADF84C000C20ADF84A0010A9F54889
:102E000003F03CFA0D208DF83C0002208DF83D00C7
:102E10008DF83E0001208DF83F000FA800F0D7FF8D
:102E2000ED4801F037FD4FF000600090E948001DCB
:102E30000190EA4802900020039080200490002036
:102E400005904FF4806006900020079008904FF4A2
:102E50008070099040020A9000200B900C900D9019
:102E60000E906946DC4801F0B7FD01224021D948A7
:102E700003F039FB0121D84801F0E8FD002240F2BF
:102E80002551D44803F038FB002240F22661D14896
:102E900003F032FB012240F22441CE4803F02CFB28
:102EA00034208DF83C0002208DF83D0003208DF881
:102EB0003E0001208DF83F000FA800F088FF01219F
:102EC000C44803F063FAC448303001F0E3FC4FF02B
:102ED00000600090BF48001D0190C1480290402052
:102EE000039080200490002005904FF480600690AD
:102EF00000200790089009904FF480300A9000203D
:102F00000B900C900D900E906946B348303001F054
:102F100063FD01228021AF4803F0E5FA0122102170
:102F2000AD48303001F01FFE0021AB48303001F0D9
:102F30008DFD0F208DF83C0002208DF83D008DF8AE
:102F40003E0001208DF83F000FA800F040FF16B0B2
:102F500010BD02465068081A80B2704770B5002450
:102F6000002540F225519B4803F001FB00283DD08D
:102F7000984803F03AFAC4B29A48007850B9552CF0
:102F800008D10120974908700020488108464089EF
:102F900092490C5493480078012811D19148407807
:102FA00070B9532C08D101208E49487048810846D9
:102FB00040898A490C5403E000208A49087048700F
:102FC0008848007801280CD186484078012808D12B
:102FD0008448408981490C5482484089401C814979
:102FE000488140F225517B4803F0F8FA40F2244131
:102FF000784803F0BCFAF0B180217748FFF7A9FFC9
:10300000794908700021744801F020FD00BF724822
:1030100001F069FD0028FAD180216F4801F037FDE9
:1030200001216D4801F012FD6A480088C5B2694867
:10303000001D0088C5B270BD70B504460D466B48D2
:103040000078F0B900216448303001F0FFFC00BF87
:103050006148303001F047FD0028F9D100222146B7
:103060005D48303001F030FDA9B25B48303001F0EE
:103070000EFD01215848303001F0E8FC01205B4989
:10308000087070BD70B505460E46002400BF04E010
:10309000285D53490855601CC4B2B442F8DB314680
:1030A0004F48FFF7C9FF70BD10B551494A4830304D
:1030B00001F076FD60B100204C4908704D4946484A
:1030C000303001F03CFD4B494348303001F092FD77
:1030D00010BD10B54849404801F062FD48B14FF0BD
:1030E00081513D4801F02BFD4FF081513A4801F0EC
:1030F00081FD10BD10B596B004460121042002F0F8
:10310000DFF80121082002F0DBF80121080502F0B8
:103110000AF90121480502F0D3F8082202213748B4
:1031200001F013FF08220C21294801F00EFF0420B2
:10313000149002208DF8540003208DF855000020D3
:103140008DF8560001208DF8570014A92B4801F086
:1031500071FE4FF48050149014A91D4801F06AFECE
:1031600010940020ADF84400ADF84600ADF84800DA
:10317000ADF84C000C20ADF84A0010A9204803F02F
:103180007DF80B208DF83C0002208DF83D008DF875
:103190003E0001208DF83F000FA800F018FE0E48F9
:1031A000303801F077FB4FF0006000901448001DAC
:1031B0000190144802900020039080200490002089
:1031C00005904FF4806006900020079008901BE067
:1031D00000080240004C00404060024038050020DA
:1031E000B8040020B8050020680000206900002015
:1031F000208000202000002000802010000C0240D1
:1032000000500040C40500204FF480700990400237
:103210000A9000200B900C900D900E906946F64895
:1032200001F0DAFB01224021F44803F05CF90121AE
:10323000F14801F00BFC002240F22551EF4803F069
:103240005BF9002240F22661EC4803F055F90122B7
:1032500040F22441E94803F04FF935208DF83C0055
:1032600000208DF83D0001208DF83E008DF83F00D4
:103270000FA800F0ACFD0121E04803F087F82F20F3
:103280008DF83C0002208DF83D008DF83E000120B5
:103290008DF83F000FA800F09AFDD748A83001F044
:1032A000F9FA4FF000600090D448001D0190D44816
:1032B00002904020039080200490002005904FF45D
:1032C0008060069000200790089009904FF48030AD
:1032D0000A9000200B900C900D900E906946C64805
:1032E000A83001F079FB01228021C44803F0FBF8EB
:1032F00001221021C048A83001F035FC0021BE4851
:10330000A83001F0A3FB16B010BD02465068081AA1
:1033100080B2704770B50024002540F22551B748AF
:1033200003F025F918B1B54803F05FF8C4B240F2D4
:103330002441B24803F01BF9E8B18021AE48FFF701
:10334000E4FFB04908700021AB4801F07FFB00BFEB
:10335000A94801F0C8FB0028FAD18021A64801F055
:1033600096FB0121A44801F071FBA4480088C5B276
:10337000A2488088C5B270BD10B5A3499E48A83048
:1033800001F00EFC70B10020A04908704FF02051F0
:103390009948A83001F0D3FB4FF020519648A8304F
:1033A00001F028FC10BD70B504460D469748007822
:1033B000F0B900219048A83001F048FB00BF8E48CA
:1033C000A83001F090FB0028F9D1002221468A485C
:1033D000A83001F079FBA9B28748A83001F057FB6B
:1033E00001218548A83001F031FB01208749087090
:1033F00070BD70B505460E46002400BF04E0285D90
:103400007F490855601CC4B2B442F8DB31467C48A1
:10341000FFF7C9FF70BD10B596B00446012120200A
:1034200001F092FF0121042001F04AFF01218805EB
:1034300001F046FF08220621754801F086FD0822AA
:103440000721734801F081FD14A801F03BFD4020E5
:10345000149002208DF8540003208DF8550014A913
:103460006B4801F0E7FC8020149002208DF8540096
:1034700003208DF8550014A9654801F0DBFC654870
:1034800002F0AEFE10A802F05FFF10940020ADF82D
:103490004400ADF84600ADF84800ADF84C000C20F3
:1034A000ADF84A0010A95B4802F0E8FE39208DF81B
:1034B0003C0002208DF83D008DF83E0001208DF883
:1034C0003F000FA800F083FC534801F0E3F94FF0F0
:1034D000206000904F48001D01905048029000204D
:1034E00003904FF480600490002005904FF48060BA
:1034F00006900020079008904FF4807009904002D9
:103500000A9000200B900C900D900E906946424856
:1035100001F062FA012240213E4802F0E4FF01215D
:103520003D4801F093FA002240F22551394802F05B
:10353000E3FF002240F22661364802F0DDFF01225F
:1035400040F22441334802F0D7FF47208DF83C0079
:1035500001208DF83D008DF83E008DF83F000FA84A
:1035600000F035FC01212B4802F010FF45208DF8BA
:103570003C0002208DF83D008DF83E0001208DF8C2
:103580003F000FA800F023FC2348783001F082F9B7
:103590004FF0206000901F48001D019020480290CD
:1035A0004020039000010490002005904FF48060BB
:1035B000069000200790089009904FF480300A9000
:1035C00000200B900C900D900E90694612487830B8
:1035D00001F002FA012280210E4802F084FF01224C
:1035E00010210D48783001F0BEFA00210A487830E9
:1035F00001F02CFA16B010BD1060024000500040DF
:10360000440600206B000020008000286A00002093
:10361000000802400014014028640240D00A002043
:10362000D0060020012080F3138800BF00BF00BF38
:1036300000BF00BF00BFBFF34F8F00BF00BF00BF80
:103640006F48006800F4E0606E490843001D6C4953
:10365000086000BF00BF00BFBFF34F8F00BF00BFB7
:1036600000BF00BF00BFFDE702465068081A80B2E5
:10367000704770B50024002540F22441624802F0F2
:1036800076FF28B34FF480616048FFF7EDFF604993
:103690000880084601785F48FEF706F800215B487D
:1036A00001F0D4F900BF594801F01DFA0028FAD101
:1036B0004FF48061554801F0EAF90121534801F0C7
:1036C000C5F951480088C5B24F48001D0088C5B2F1
:1036D00040F225514C4802F04AFF20B140F22551FA
:1036E000494802F07BFF70BD10B54B49474801F0D7
:1036F00057FA38B14949454801F021FA464943484B
:1037000001F078FA10BD10B545494048783001F015
:1037100047FA60B100204349087041493B4878307E
:1037200001F00DFA3E493948783001F063FA10BDD6
:1037300070B504460D463B480078F0B90021334887
:10374000783001F083F900BF3048783001F0CBF9D0
:103750000028F9D1002221462C48783001F0B4F934
:10376000A9B22A48783001F092F90121274878302F
:1037700001F06CF901202B49087070BD70B5054649
:103780000E4600244FF48071274801F0CFFB00BFA4
:1037900004E0285D25490855601CC4B2B442F8DB3A
:1037A00031462248FFF7C4FF4FF480711E4801F0F4
:1037B000BFFB70BD1CB54FF4E130FFF72CFE0121BB
:1037C000042001F07DFD684601F07CFB4FF4807021
:1037D000009001208DF8040000208DF806000220E2
:1037E0008DF8070003208DF8050069460E4801F0AA
:1037F00021FB4FF480710C4801F09AFB1CBD0000C6
:103800000CED00E00000FA050014014028640240BD
:103810006E000020D00A0020008800100008001070
:10382000008020208200002000080240D0060020F6
:103830007CB505460C46FCA103C9CDE90001200A70
:103840008DF80500E0B28DF804000822694628468C
:10385000FEF7EAF87CBD7CB505460C46F4A103C929
:10386000CDE90001E0B28DF80400200A8DF80500D2
:10387000200C8DF80600200E8DF8070008226946FE
:103880002846FEF7D1F87CBD7CB505460C46EAA17A
:1038900003C9CDE900018DF8044005226946284698
:1038A000FEF7C2F87CBD38B50446E5A0006800907C
:1038B000022269462046FEF7B7F838BD10B586B03B
:1038C0000446E0A103C9CDE90401082204A904F5D6
:1038D000C060FEF7A9F80A20FDF79EFFDBA103C92F
:1038E000CDE90201082202A904F5C060FEF79CF8A8
:1038F0000A20FDF791FFD7A103C9CDE900010822F5
:10390000694604F5C060FEF78FF80A20FDF784FFD2
:1039100006B010BD1CB50446D0A103C9CDE9000115
:103920000822694604F5C060FEF77EF81CBD1CB590
:103930000446CCA103C9CDE900010822694604F57B
:10394000C060FEF771F81CBD1FB50446BDA003C8DA
:10395000CDE90201082202A904F5C060FEF764F86F
:103960000A20FDF759FFB9A103C9CDE900010822DA
:10397000694604F5C060FEF757F80A20FDF74CFFD2
:103980001FBD1CB50446B9A103C9CDE90001082239
:10399000694604F5C060FEF747F81CBD10B54FF44A
:1039A000FA70FDF739FF0520FFF7EBFF0A20FDF75E
:1039B00033FF0520FFF7AEFF0A20FDF72DFF05209E
:1039C000FFF7C2FF0A20FDF727FF0620FFF7D9FF08
:1039D0000A20FDF721FF0620FFF79CFF0A20FDF7D4
:1039E0001BFF0620FFF7B0FF0A20FDF715FF072099
:1039F000FFF7C7FF0A20FDF70FFF0720FFF78AFF39
:103A00000A20FDF709FF0720FFF79EFF0A20FDF7B8
:103A100003FF0820FFF7B5FF0A20FDF7FDFE082091
:103A2000FFF778FF0A20FDF7F7FE0820FFF78CFF6D
:103A30000A20FDF7F1FE0120FFF779FF0A20FDF7CC
:103A4000EBFE0120FFF766FF0A20FDF7E5FE0120EF
:103A5000FFF734FF0A20FDF7DFFE0220FFF767FFC4
:103A60000A20FDF7D9FE0220FFF754FF0A20FDF7D8
:103A7000D3FE0220FFF722FF0A20FDF7CDFE032030
:103A8000FFF755FF0A20FDF7C7FE0320FFF742FFAF
:103A90000A20FDF7C1FE0320FFF710FF0A20FDF703
:103AA000BBFE0420FFF743FF0A20FDF7B5FE04200C
:103AB000FFF730FF0A20FDF7AFFE0420FFF7FEFE00
:103AC0000A20FDF7A9FE10BD2DE9F04104460F467E
:103AD00015461E4621460120FFF7AAFE0A20FDF7E3
:103AE0009BFE39460220FFF7A3FE0A20FDF794FE55
:103AF00029460320FFF79CFE0A20FDF78DFE314684
:103B00000420FFF795FE0A20FDF786FEBDE8F08150
:103B10002DE9F04104460F4615461E462146052074
:103B2000FFF799FE0A20FDF777FE39460620FFF7DA
:103B300092FE0A20FDF770FE29460720FFF78BFE54
:103B40000A20FDF769FE31460820FFF784FE0A20AF
:103B5000FDF762FEBDE8F0817CB505460C4645A147
:103B600003C9CDE90001E0B28DF80400200A8DF808
:103B70000500200C8DF80600200E8DF807000822A5
:103B8000694605F5C060FDF74FFF7CBD7CB5054675
:103B90000C463AA103C9CDE90001E0B28DF804005A
:103BA000200A8DF80500200C8DF80600200E8DF8F7
:103BB00007000822694605F5C060FDF735FF7CBDAA
:103BC0001CB504462FA103C9CDE9000108226946AE
:103BD00004F5C060FDF728FF1CBD1CB504462BA1F1
:103BE00003C9CDE900010822694604F5C060FDF76C
:103BF0001BFF1CBD7CB505460C4626A103C9CDE9BB
:103C00000001E0B28DF80400200A8DF80500200CB8
:103C10008DF80600200E8DF807000822694605F58C
:103C2000C060FDF701FF7CBDFF060201000000003F
:103C3000FF06160200000000FF0600010000000061
:103C4000FF1000002B406001060000002B406001C7
:103C5000070000002B4060010F0000002B406001B6
:103C6000800000002F606001030000002F606001F1
:103C700001000000237A6001000000002381600140
:103C8000000000002B4060013F0000004041600147
:103C90000000000023FF6001000000000020084930
:103CA00008800849088008490880084908800849B0
:103CB00008600849086008490860084908607047BA
:103CC0009400002096000020980000209A00002018
:103CD0009C000020A0000020A4000020A8000020DC
:103CE0007CB506460C461546002000900190200A3F
:103CF0008DF80000E0B28DF80100280A8DF802006E
:103D0000E8B28DF80300082269463046FEF728F92C
:103D10007CBD7CB506460C461546002000900190FF
:103D2000200A8DF80000E0B28DF80100280A8DF815
:103D30000200E8B28DF80300082269463046FEF71B
:103D40000FF97CBD7CB506460C4615460020009058
:103D50000190200A8DF80000E0B28DF80100280AD9
:103D60008DF80200E8B28DF803000822694630465B
:103D7000FEF7F6F87CBD0020064908800649088059
:103D800006490880064908800649088006490880D7
:103D900070470000AC000020AE000020B000002002
:103DA000B2000020B4000020B600002010B5034C83
:103DB000082203492046FEF702F910BD4001901881
:103DC000B800002032490143324A1160704770B593
:103DD000002100230F22C4781CB32E4C246804F465
:103DE000E064C4F5E064C4F30721C1F10404E3B264
:103DF0000A4144789C40E1B28478144021430C0786
:103E0000210E254C05786155047804F01F05012426
:103E1000AC4005786D11AD0005F1E025C5F8004115
:103E200009E0047804F01F050124AC401B4D06781E
:103E3000761145F8264070BD194A0A400243154BD9
:103E40001B1F1A60704739B1124A121D12680243D3
:103E5000104B1B1D1A6006E00E4A121D12688243A9
:103E60000C4B1B1D1A607047042808D14FF0E0214D
:103E7000096941F004014FF0E022116107E04FF0C1
:103E8000E021096921F004014FF0E022116170473F
:103E90000000FA050CED00E000E400E080E100E045
:103EA00080FFFF1F10B50446FE48844209D101215E
:103EB000480601F0A0FA00214FF0007001F09BFAD3
:103EC00008E00121880601F096FA00214FF0806099
:103ED00001F091FA10BD30B50246002000231468AD
:103EE00024F002041460146844F00104146000E03B
:103EF0005B1C546804F001041CB94FF6FF74A34224
:103F0000F6D1546804F001040CB900206CE08C79FF
:103F1000012C04D1146844F08004146003E0146898
:103F200024F080041460CC79012C04D1146844F08E
:103F30004004146003E0146824F0400414600C7A18
:103F4000012C04D1146844F02004146003E01468C8
:103F500024F0200414604C7A012C04D1146844F03D
:103F60001004146003E0146824F0100414608C7AC8
:103F7000012C04D1146844F00804146003E01468B0
:103F800024F008041460CC7A012C04D1146844F0A5
:103F90000404146003E0146824F0040414608C78B2
:103FA000A407CD7844EA05640D7944EA05444D79C7
:103FB00044EA05540D886D1E2C43D461146824F026
:103FC00001041460002300E05B1C546804F0010449
:103FD0001CB14FF6FF74A342F6D1546804F00104FB
:103FE0000CB1002000E0012030BD10B50021837A23
:103FF000012202FA03F1AC4A126842F00102AA4B14
:104000001A60A94A1C3212688A43A74B1C331A60F3
:10401000027BCAB9A44A0C3212688A43A24B0C3301
:104020001A604288C38842EA03439F4A4032847A36
:1040300042F834300288838842EA03439A4A403285
:10404000847A02EBC4025360027B012A19D1964A9A
:104050000C3212680A43944B0C331A60428803886E
:1040600042EA0343904A4032847A42F83430C288AC
:10407000838842EA03438C4A4032847A02EBC402CA
:104080005360C27A3AB9884A121D12688A43864B35
:104090001B1D1A6006E0844A121D12680A43824BF7
:1040A0001B1D1A60028932B97F4A143212688A4392
:1040B0007D4B14331A600289012A06D17A4A1432E0
:1040C00012680A43784B14331A60427B012A06D1E6
:1040D000754A1C3212680A43734B1C331A60724AC9
:1040E000126822F00102704B1A6010BD002181712C
:1040F000C171017241728172C1728170C1700321FC
:1041000001710221417101210180704766490968EE
:1041100041F00101644A11601146096843F60E72CC
:104120009143614A11601146096841EA002111601A
:104130001146096821F001011160704721B1026840
:1041400042F48032026003E0026822F480320260AE
:104150007047E1B1026842F0800202604FF4C2721F
:10416000125842F480734FF4C27213504FF4CA7263
:10417000125842F480734FF4CA7213504FF4D27243
:10418000125842F480734FF4D27213501BE002684D
:1041900022F0800202604FF4C272125822F480733F
:1041A0004FF4C27213504FF4CA72125822F4807343
:1041B0004FF4CA7213504FF4D272125822F4807323
:1041C0004FF4D2721350704710B502460020936826
:1041D00003F08063B3F1806F00D110E0936803F0C7
:1041E0000063B3F1006F01D1012008E0936803F090
:1041F0008053B3F1805F01D1022000E00420042845
:1042000079D002F5C07303EB00131B6803F00104BF
:1042100002F5C07303EB00131C600B7A7BB94B7A79
:104220000C8843EA445302F5C07404EB001424687C
:10423000234302F5C07404EB0014236010E00B7AF2
:104240004C6843EAC4034C7A234302F5C07404EB80
:1042500000142468234302F5C07404EB00142360A7
:104260008B7A03F00F038B7202F5C07303EB00131C
:104270005B6823F00F0402F5C07303EB00135C606E
:1042800002F5C07303EB00135B688C7A234302F5DD
:10429000C07404EB001463608B7B1C064B7B44EA08
:1042A000034403E000640040006600400B7B44EAE6
:1042B0000323CC7A234302F5C07404EB0014A360FB
:1042C0008B7C1C064B7C44EA03440B7C44EA0323AE
:1042D000CC7B234302F5C07404EB0014E36002F5C9
:1042E000C07303EB00131B6843F0010402F5C073B5
:1042F00003EB00131C6010BD10B50246002321B172
:10430000012907D002290FD109E09068F94C00EA91
:1043100004030BE09068F84C00EA040306E09068A0
:10432000F64C00EA040301E0002300BF00BFF44C98
:10433000181BA34216D007DC83B16FF080601844CD
:1043400070B1022818D111E0B0F5007F10D0ED4C0B
:10435000204448B1B0F5003F0ED10BE002230DE040
:1043600000230BE0002309E0002307E0012305E020
:10437000012303E0012301E0002300BF00BFD8B206
:1043800010BD21B1012907D002290FD109E08268AF
:1043900042F0800282600AE0826842F40042826059
:1043A00005E0826842F40002826000E000BF00BFC6
:1043B000704710B500F5D87303EB01131B6803F0C9
:1043C00004031372137A53B900F5D87303EB011386
:1043D0001B6840F2FF7404EA5353136009E000F5D0
:1043E000D87303EB01131B686FF0604404EAD30336
:1043F000536000F5D87303EB01131B6803F002034D
:10440000537200F5D87303EB01135B6803F00F03DD
:10441000937200F5D87303EB01135B681B0AD37426
:1044200000F5D87303EB01139B68D37200F5D873C2
:1044300003EB01139B681C0A147300F5D87303EB9C
:1044400001139B681C0C547300F5D87303EB011324
:104450009B681B0E937300F5D87303EB0113DB68A5
:10446000D37300F5D87303EB0113DB681C0A1474D3
:1044700000F5D87303EB0113DB681C0C547400F5D2
:10448000D87303EB0113DB681B0E937421B9C36867
:1044900043F02003C36003E0036943F0200303619A
:1044A00010BD21B9C26842F02002C26003E0026977
:1044B00042F02002026170470246002019B9D36819
:1044C00003F0030006E0012903D1136903F00300A0
:1044D00000E00020704710B502460B4600204FF662
:1044E000FF71BBB9146824F0020444F001041460A5
:1044F00000E0491E546804F00304012C01D0002997
:10450000F7D1546804F00304012C01D0002032E0FC
:10451000012030E0012B13D1146824F0030414604F
:1045200000E0491E546804F003040CB10029F8D1DE
:10453000546804F003040CB100201CE001201AE0D0
:10454000022B17D1146824F0010444F00204146013
:1045500000E0491E546804F00304022C01D0002935
:10456000F7D1546804F00304022C01D0002002E0CB
:10457000012000E0002010BD014600200A6822F062
:10458000010242F002020A604A6802F00302022AB3
:1045900000D10120704701464FF6FF7200200B68E2
:1045A00023F002030B6000E0521E4B6803F002038D
:1045B000022B01D1002AF7D14B6803F00203022B32
:1045C00000D001207047014600208A6902F0700087
:1045D0007047014600208A69100E7047014600208E
:1045E0008A69C2F3074070471AB143690B434361BC
:1045F00002E043698B434361704710B502460020D7
:1046000001F4700343B19369C1F3130423400BB168
:1046100001202DE000202BE001F0807343B15368AE
:10462000C1F3130423400BB1012021E000201FE05F
:1046300001F0006343B19368C1F3130423400BB14D
:10464000012015E0002013E001F0007343B1D368AE
:10465000C1F3130423400BB1012009E0002007E05F
:104660001369C1F3130423400BB1012000E00020C3
:1046700010BD0022244B994202D10023836111E036
:10468000C1F3130201F000730BB1C2600AE001F044
:1046900080630BB1026105E001F000630BB1826041
:1046A00000E0426070470246002002EA01030BB1BD
:1046B000012000E00020704770B504460D4600263A
:1046C00060692840002872D0B5F5807F69D01DDC74
:1046D000082D42D006DC012D2DD0022D31D0042D25
:1046E0007FD134E0102D3ED0202D42D0402D78D106
:1046F00045E0000003000004000300080000031070
:10470000000100080001FFF77000F030B5F5004F20
:1047100061D009DCB5F5007F4AD0B5F5806F4DD08A
:10472000B5F5006F5DD150E0B5F5803F2DD0B5F502
:10473000003F56D12FE0A0685549FFF7B4FF064669
:1047400051E0E0680321FFF7AEFF06464BE0E0686A
:104750000821FFF7A8FF064645E0E0681021FFF7B3
:10476000A2FF06463FE020690321FFF79CFF0646B3
:1047700039E020690821FFF796FF064633E02069FB
:104780001021FFF790FF06462DE060680821FFF733
:104790008AFF064627E060681021FFF784FF06467F
:1047A00021E0A0690121FFF77EFF06461BE01BE028
:1047B000A0690221FFF777FF064614E0A0690421F3
:1047C000FFF771FF06460EE00BE0A0697021FFF7CE
:1047D0006AFF064607E060680421FFF764FF0646AB
:1047E00001E0002600BF00E00026304670BDB1F5B4
:1047F000007F3AD00FDC202928D006DC01291CD00C
:1048000004291DD0082940D11DE0402921D0B1F54F
:10481000807F3AD126E0B1F5004F31D006DCB1F50A
:10482000806F25D0B1F5006F2FD124E0B1F5803F26
:1048300012D0B1F5003F28D111E0154A826025E081
:104840000822C26022E01022C2601FE0082202613A
:104850001CE01022026119E00822426016E01022DA
:10486000426013E00422426010E0042242600DE046
:10487000042242600AE0002282610422426005E0D4
:10488000002282610422426000E000BF00BF704746
:1048900001010100016821F00101016000210160B6
:1048A00041608160C160016121214161DB49884231
:1048B00004D13D21D94A103A91608CE0D749183192
:1048C000884205D14FF47461D44A103A916082E075
:1048D000D2493031884205D14FF47411CF4A103A91
:1048E000916078E0CD494831884205D14FF074613C
:1048F000CA4A103A91606EE0C8496031884204D1DA
:10490000C749C64A103AD16065E0C4497831884247
:1049100004D1C449C14A103AD1605CE0BF4990312A
:10492000884204D1C049BD4A103AD16053E0BB4926
:10493000A831884205D14FF03D51B84A103AD160B4
:1049400049E0BA49884204D13D21B84A083A116089
:1049500041E0B6491831884205D14FF47461B34A39
:10496000083A116037E0B1493031884205D14FF43F
:104970007411AE4A083A11602DE0AC4948318842C2
:1049800005D14FF07461A94A083A116023E0A749A4
:104990006031884204D1A249A44A121F11601AE072
:1049A000A2497831884204D19E49A04A121F116061
:1049B00011E09E499031884204D19B499B4A121FC5
:1049C000116008E09949A831884204D14FF03D5167
:1049D000964A121F1160704710B500220268944B6E
:1049E0001A40CC680B6823434C6923438C692343EA
:1049F000CC6923430C6A23434C6A23438C6A2343C8
:104A00004C6B23438C6B23431A430260426922F0B0
:104A10000702D1E90B3423431A4342610B69436017
:104A20004B6883608B68C36010BD002101604160EA
:104A30008160C160016141618161C1610162416266
:104A40008162C162016341638163704721B1026881
:104A500042F00102026003E0026822F001020260FB
:104A6000704721B1026842F40042026003E002682C
:104A700022F400420260704721B1026842F0200235
:104A8000026003E0026822F0200202607047416089
:104A900070470146486880B2704722B1036843F40A
:104AA0000023036003E0036823F400230360016133
:104AB000704721B1026842F48022026003E002687C
:104AC00022F48022026070470AB1016100E0C160F7
:104AD0007047014600200A6802F400220AB1012052
:104AE00000E000207047014600200A6802F0010241
:104AF0000AB1012000E000207047014600204A6909
:104B000002F03800704730B503460A460020002402
:104B1000464DAB4202D24149103901E043491039B8
:104B200002F000550DB14C6800E00C68414D2C407E
:104B300004EA02050DB1012000E0002030BD02466C
:104B40003A4B9A4202D23548103801E037481038C3
:104B500001F000531BB1374B0B40C36002E0354BF3
:104B60000B408360704710B501F080034BB122B158
:104B7000436943F08003436103E0436923F080030A
:104B8000436180290BD02AB1036801F01E0423433E
:104B9000036004E0036801F01E04A343036010BD3A
:104BA00070B50246002000240025204EB24202D2F9
:104BB0001A4B103B01E01D4B103B1F4E0E4036B10F
:104BC0001E2606EAD124166806EA040502E05669A4
:104BD00006F0800501F000560EB15C6800E01C682C
:104BE000144E344004EA010616B10DB1012000E074
:104BF000002070BD02460D4B9A4202D20748103881
:104C000001E00A48103801F000531BB1094B0B407A
:104C1000C36002E0074B0B408360704710600240A6
:104C20003D000020400F002000003D2010640240A5
:104C30003F801CF07D0F7D0F3C0F3C0F002044494E
:104C40000860091D0860091D0860091D08604148C9
:104C50003F4914310860704700213D498279002A9C
:104C60003AD00A46126803689A430B461A600A1D36
:104C7000126803689A430B1D1A60027911440A688E
:104C800003681A430A60324A0832126803689A437A
:104C90002F4B08331A601A1D126803689A432C4B75
:104CA0000C331A604279102A0ED11A1F1268036859
:104CB0001A43274B08331A601A1D126803681A43F7
:104CC000234B0C331A600DE02149427911440A68E4
:104CD00003681A430A6005E0027911440A68036810
:104CE0009A430A6070470021016001710C214171F3
:104CF0000021817170471649103109680143144A37
:104D000010321160704701460020114A14321268B7
:104D10000A400AB1012000E0002070470C4914311C
:104D200008607047014600200022094B1B6803EA17
:104D30000102074B14331B680B4013B10AB1012069
:104D400000E00020704702491431086070470000FD
:104D5000003C0140FFFF7F0010B504468C488442B0
:104D600008D10121084600F000FB0021012000F0DD
:104D7000FCFA5EE08748844208D10121022000F05D
:104D8000F4FA0021022000F0F0FA52E08248844256
:104D900008D10121042000F0E8FA0021042000F0ED
:104DA000E4FA46E07D48844208D10121082000F061
:104DB000DCFA0021082000F0D8FA3AE07848844272
:104DC00008D10121102000F0D0FA0021102000F0BD
:104DD000CCFA2EE07348844208D10121202000F053
:104DE000C4FA0021202000F0C0FA22E06E4884427C
:104DF00008D10121402000F0B8FA0021402000F045
:104E0000B4FA16E06948844208D10121802000F0FC
:104E1000ACFA0021802000F0A8FA0AE0644884423D
:104E200007D10121801500F0A0FA0021A01500F0A3
:104E30009CFA10BDF0B50A4600210023002400BFF3
:104E40003DE0012505FA01F3156805EA03049C42DB
:104E500034D105684F000326BE40B543056015797F
:104E60004E00B5400668354305601579012D02D026
:104E70001579022D16D185684F000326BE40B54333
:104E8000856055794E00B540866835438560456834
:104E900001268E40B5434560456896798E40B6B28E
:104EA00035434560C5684F000326BE40B543C56025
:104EB000D5794E00B540C6683543C560491C1029F8
:104EC000BFD3F0BD4FF6FF71016000210171417148
:104ED0008171C171704708B54FF480320092009A19
:104EE0000A430092009AC261C161009AC261C2691C
:104EF0000092C269009208BD0246002013690B406F
:104F00000BB1012000E0002070470146086980B223
:104F100070470246002053690B400BB1012000E0AE
:104F2000002070470146486980B27047018370478E
:104F3000418370470AB1018300E0418370474161BA
:104F4000704742694A4042617047F0B5002300242F
:104F50004D07ED0E02FA05F3CE1000F1200555F8CD
:104F600026504E07F70E0F26BE40B543CF1000F176
:104F7000200646F82750CE1000F1200555F826509F
:104F800045EA0304CE1000F1200545F82640F0BDA7
:104F9000000002400004024000080240000C0240F1
:104FA000001002400014024000180240001C0240A1
:104FB00000200240FA48006840F00100F84908600B
:104FC0000020F74908310860F5480068F5490840B5
:104FD000F3490860F448091D0860081F006820F4C0
:104FE0008020091F08600020ED490C3108607047DF
:104FF0000021EB4A921C117011460870704710B5E1
:1050000001460022002300204A11012A02D1E44C6B
:10501000236808E0022A03D1E14C7034236802E0DF
:10502000DF4C7434236801F01F02012494401C40BB
:105030000CB1012000E0002010BD38B50020009028
:105040000024002500BF3120FFF7D9FF0546009856
:10505000401C00900098B0F5A06F01D0002DF2D058
:105060003120FFF7CCFF08B1012400E000242046E6
:1050700038BD01460020CA4A106820F0F80040EA16
:10508000C10010607047C949086070470021C44AD8
:10509000703211701170012802D004280AD104E086
:1050A0000121BF4A7032117005E00521BC4A7032FF
:1050B000117000E000BF00BF7047BD490860704735
:1050C00070B5049C41EA82150126C6EB530645EAF9
:1050D0000645054345EA0465B14E361D356070BD91
:1050E000B24908667047820142EA0172AC4B8433D0
:1050F0001A607047AD4988667047AC49C86470470C
:1051000002460020A64B0833186820F0EC6042EA03
:1051100001031843A24B0833186070470246002071
:105120009F4B0833186820F0784042EA0103184387
:105130009B4B08331860704701460020984A08329C
:10514000106820F00300084310607047944808304E
:10515000006800F00C00704701460020904A0832B9
:10516000106820F0F00008431060704701460020EE
:105170008B4A0832106820F4E050084310607047F2
:1051800001460020864A0832106820F4604040EA58
:10519000C10010607047F0B50021002200240225F4
:1051A000002602237E4F08373F6807F00C0121B12B
:1051B000042905D0082937D105E07E4F076036E085
:1051C0007D4F076033E0764F3F1D3F68C7F3805641
:1051D000734F3F1D3F6807F03F036EB1764FB7FB3B
:1051E000F3F7DFF8BCC10CF1040CDCF800C0CCF321
:1051F000881C07FB0CF40CE06E4FB7FBF3F7DFF8ED
:10520000A0C10CF1040CDCF800C0CCF3881C07FB37
:105210000CF4634F3F1D3F68C7F301477F1C7D00BF
:10522000B4FBF5F7076002E0624F076000BF00BF04
:105230005B4F08373F6807F0F00109095F4F7A5C60
:105240000768D7404760564F08373F6807F4E0517A
:10525000890A5A4F7A5C4768D7408760504F0837B1
:105260003F6807F46041490B544F7A5C4768D74068
:10527000C760F0BD002100F44072B2F5407F0AD152
:10528000474A0832116821F4F8114D4A024011438F
:10529000434A08321160424A70321268C0F30B036D
:1052A0001A433F4B70331A607047414944390860D4
:1052B00070473F494039086070474249086070476D
:1052C00039B1374A303212680243354B30331A60F5
:1052D00006E0334A303212688243314B30331A6071
:1052E000704739B12E4A3432126802432C4B3433A2
:1052F0001A6006E02A4A343212688243284B34335B
:105300001A60704739B1264A383212680243244B7A
:1053100038331A6006E0224A383212688243204B42
:1053200038331A60704739B11D4A4032126802435F
:105330001B4B40331A6006E0194A40321268824320
:10534000174B40331A60704739B1154A443212681E
:105350000243134B44331A6006E0114A4432126888
:1053600082430F4B44331A60704739B10C4A1032F4
:10537000126802430A4B10331A6006E0084A1032E2
:1053800012688243064B10331A607047E1B1044A39
:10539000143212680243024B14331A6019E0000001
:1053A00000380240FFFFF6FE1030002400004742A4
:1053B000800E47420024F40040787D01C8000020A0
:1053C000FFFCFF0F5C0147425B4A126882435A4B65
:1053D0001A60704739B1584A121D12680243564B81
:1053E0001B1D1A6006E0544A121D12688243524B7C
:1053F0001B1D1A60704739B14F4A0C3212680243C4
:105400004D4B0C331A6006E04B4A0C321268824353
:10541000494B0C331A60704739B1474A1032126851
:105420000243454B10331A6006E0434A10321268BB
:105430008243414B10331A60704739B13E4A3C32C7
:10544000126802433C4B3C331A6006E03A4A3C3255
:1054500012688243384B3C331A60704739B1364A80
:10546000403212680243344B40331A6006E0324A3D
:10547000403212688243304B40331A60704739B172
:105480002D4A4432126802432B4B44331A6006E023
:10549000294A443212688243274B44331A607047CA
:1054A00039B1254A4C3212680243234B4C331A60FF
:1054B00006E0214A4C32126882431F4B4C331A607B
:1054C000704739B11C4A5032126802431A4B5033AC
:1054D0001A6006E0184A503212688243164B503365
:1054E0001A60704739B1144AD21F12780243124B26
:1054F000DB1F1A7006E0104AD21F127882430E4B4F
:10550000DB1F1A7070470C486030006840F08070F4
:10551000094960310860704701460020064A083A90
:1055200012680A400AB1012000E0002070470249D9
:10553000891F0870704700001438024010B50446F7
:10554000FE48844208D101210846FFF765FF00218B
:105550000120FFF761FF9DE0B4F1804F08D10121E8
:105560000846FFF748FF00210120FFF744FF91E0C4
:10557000F348844208D101210220FFF73CFF0021BB
:105580000220FFF738FF85E0EE48844208D1012170
:105590000420FFF730FF00210420FFF72CFF79E003
:1055A000E948844208D101210820FFF724FF0021A7
:1055B0000820FFF720FF6DE0E448844208D1012174
:1055C0001020FFF718FF00211020FFF714FF61E003
:1055D000DF48844208D101212020FFF70CFF002181
:1055E0002020FFF708FF55E0DA48844208D1012166
:1055F0000220FFF711FF00210220FFF70DFF49E015
:10560000D548844209D101210804FFF705FF002194
:105610004FF48030FFF700FF3CE0D048844209D1CE
:1056200001214804FFF7F8FE00214FF40030FFF796
:10563000F3FE2FE0CA48844209D101218804FFF714
:10564000EBFE00214FF48020FFF7E6FE22E0C54884
:10565000844208D101214020FFF7CDFE00214020E7
:10566000FFF7C9FE16E0C048844208D1012180201E
:10567000FFF7C1FE00218020FFF7BDFE0AE0BB4816
:10568000844207D101218015FFF7B5FE0021A01546
:10569000FFF7B1FE10BD00220288A84B98420ED041
:1056A000AC4B98420BD0B0F1804F08D0A44B98423D
:1056B00005D0A44B984202D0A34B984204D14FF698
:1056C0008F731A404B881A43A04B984207D0A04BC7
:1056D000984204D04FF6FF431A400B891A430280C8
:1056E0004B68C3620B880385944B984202D0994B58
:1056F000984201D18B7A03860123838270474FF051
:10570000FF31416000210180018141808172704739
:105710000185828270470A46002101884FF68F7307
:10572000194011430180704741627047C162704760
:105730000146486A70470146088D704721B10288CA
:1057400042F00202028004E002884FF6FD731A4024
:105750000280704721B1028842F00402028004E016
:1057600002884FF6FB731A400280704721B102880D
:1057700042F08002028004E002884FF67F731A40F4
:105780000280704702884FF6F7731A400280028841
:105790000A430280704702884FF6FF431A40028096
:1057A00002880A430280704721B1028842F0010258
:1057B000028004E002884FF6FE731A4002807047B0
:1057C00070B5002400220023058C4FF6FE7635408C
:1057D0000584028C8388048B4FF68F752C40B51E90
:1057E0002C400D882C43751E2A408D892A434D88F4
:1057F0002A43524DA84202D0564DA84213D14FF62B
:10580000F7752A40CD892A434FF6FB752A408D88CB
:105810002A434FF6FF652B404FF6FF552B400D8A6C
:105820002B434D8A2B43838004838D684563028418
:1058300070BD70B5002400220023058C4FF6EF7672
:1058400035400584028C8388048B48F6FF752C4014
:105850004FF6FF452C400D884FF6FF7606EA0525EA
:105860002C434FF6DF752A408D8906EA05152A4339
:105870004D8806EA05152A43304DA84202D0354D21
:10588000A8421DD14FF67F752A40CD894FF6FF768D
:1058900006EA05152A434FF6BF752A408D8806EAA9
:1058A00005152A434FF6FF352B404FF2FF752B406D
:1058B0000D8A06EA85052B434D8A06EA85052B43AA
:1058C000838004838D688563028470BD70B5002475
:1058D00000220023058C4FF6FF6635400584028CBC
:1058E0008388848B4FF68F752C404FF6FC752C40C7
:1058F0000D882C434FF6FF552A408D894FF6FF76D1
:1059000006EA05252A434D8806EA05252A430B4D5C
:10591000A84202D00F4DA84238D14FF2FF752A405D
:10592000CD894FF6FF7606EA05252A434FF6FF3567
:105930002A408D8806EA05252A4319E00000014027
:105940000004004000080040000C0040001000402F
:1059500000140040000401400040014000440140A8
:105960000048014000180040001C0040002000409A
:105970004EF6FF752B404DF6FF752B400D8A06EA5B
:1059800005152B434D8A06EA05152B438380848336
:105990008D68C563028470BD70B5002200230024A9
:1059A000058C4EF6FF7635400584038C8488828B07
:1059B00048F6FF752A404FF6FF452A400D884FF6FE
:1059C000FF7606EA05252A434DF6FF752B408D89A3
:1059D00006EA05352B434D8806EA05352B43FE4D77
:1059E000A84202D0FD4DA84208D14BF6FF752C40CD
:1059F0000D8A4FF6FF7606EA85152C438480828354
:105A00008D680564038470BD002101804180818020
:105A100081608181C18101824182704770B50346F6
:105A2000002000241846183001258D40ACB21D8C92
:105A3000A5431D8409B108290AD100EB610005685E
:105A40004FF68F76354005600568154305600FE019
:105A50000D1FC5F34E052844056848F6FF7635400E
:105A6000056005684FF6FF7606EA022635430560B5
:105A700070BD4163704781637047C16370470164C3
:105A800070470A460021018B4FF68F73194011436E
:105A9000018370470A460021018B48F6FF731940C5
:105AA0004FF6FF7303EA02231943018370470A4646
:105AB0000021818B4FF68F7319401143818370470A
:105AC0000A460021818B48F6FF7319404FF6FF7399
:105AD00003EA02231943818370470A460021018BA0
