:020000040800F2
:10000000801F0020D9930008A9070008AB0700084B
:10001000BB070008BF070008C30700080000000076
:10002000000000000000000000000000EB9300084A
:10003000C707000800000000EF930008F1930008D4
:10004000F3930008F3930008F3930008F393000878
:10005000F3930008F3930008F3930008F393000868
:10006000F39300086D3B0008F3930008F393000836
:100070001F470008BB4A000867470008914A00086C
:10008000F3930008F3930008F39300088934000801
:10009000A5340008C9340008F3930008F39300085E
:1000A000F3930008F3930008F3930008F393000818
:1000B000F3930008F3930008F3930008F393000808
:1000C000F3930008F3930008F3930008F3930008F8
:1000D000F393000897300008EF4100083B46000802
:1000E000F3930008F3930008F3930008F3930008D8
:1000F000F3930008F3930008F39300086D4D000894
:10010000F3930008F3930008693C0008F393000898
:10011000AB490008FF4C0008F3930008F393000874
:10012000F393000897500008BD310008F3930008CE
:10013000F3930008F3930008F39300080F380008C6
:100140002B380008CD390008F3930008F39300081A
:10015000F3930008B5500008D33100082B50000875
:10016000F3930008F3930008F3930008F393000857
:10017000F3930008F3930008F3930008F393000847
:10018000F3930008F393000800F002F800F092F8EF
:100190000AA090E8000C82448344AAF10107DA45E2
:1001A00001D100F087F8AFF2090EBAE80F0013F0A2
:1001B000010F18BFFB1A43F00103184738DE000097
:1001C00058DE0000103A24BF78C878C1FAD8520728
:1001D00024BF30C830C144BF04680C6070470000C1
:1001E0000023002400250026103A28BF78C1FBD840
:1001F000520728BF30C148BF0B6070476E2909F015
:100200009B82702909F0DD8366290DF051846529F0
:100210000DF04E8467290DF04B8461290DF04A845E
:1002200003681B0A28BF41F08001692909F0488250
:10023000642909F04582752909F042826F2909F085
:100240006A83782909F0A983E92909F00583E4295B
:1002500009F00283F52909F0FF82EF2909F067838D
:10026000F82909F0A8830368DB0928BF41F0800161
:1002700063290AF0AF8073290AF0B480E3290AF0F9
:10028000BF80F3290AF0C480002070471FB50DF02D
:10029000C8FB0AF013F90400002000210CF0B4FCA4
:1002A000401C6060002000210CF098FCE0601FBD45
:1002B00010B510BD0AF0D4F81146FFF7E7FF00F0C3
:1002C0005DF80AF0B1F903B4FFF7F2FF03BC04F0E4
:1002D000C7F8000010B54FF4A06006F013FBA8208B
:1002E00002F09AFF04F06AF804F080F804F09EF837
:1002F0004FF4E13002F0D6FD03F016FF4FF4E13089
:1003000004F0BBF84FF4E13004F03DFA4FF47A709A
:1003100002F0E4FF012003F00FF8C82002F0DEFF36
:1003200040F2015003F03EF9642002F0D7FF532160
:1003300040F2CF7003F060FCC2A002F029FF10BDB4
:1003400010B5C5480078401CC349087008460078BD
:10035000142812DDC14800880D280ED1C04800784D
:1003600058B1C0484388C0484288C0480178C0A0FE
:1003700002F00EFF0020B849087010BD8AB0FFF7E8
:10038000A9FF04F0F1FF002000F0BCFB642002F0A4
:10039000A5FF56E1BD4800780028FAD000F009FD1D
:1003A000B248007830B101280FD002287ED003284F
:1003B0000AD107E105F058F905F0C3F9642002F00D
:1003C0008DFFB3A002F0E4FE31E1A44800880D28BF
:1003D0000DD1B348008802B2B248008801B2B248D9
:1003E000008800B202F043F905F0ABF919E09B4830
:1003F000008801280DD1AD48008802B2A9480088C4
:1004000001B2A948008800B202F067FC05F02CF99F
:1004100007E0924800880F2803D10121084600F028
:1004200072FFA3480088642853DD9FEDA20B8DED79
:10043000080B9FEDA00B8DED060B9FED9E0B8DED38
:10044000040B08AA04A906A89FED9C3B9FED9D2BD9
:100450009FED9E1B9FED9F0B06F0C8F99DED080BCD
:100460008DED020B9DED040B8DED000B9DED060B4C
:1004700053EC102B99A002F08BFE642002F02EFFAB
:1004800008AA04A906A89FED9D3B9FED9E2B9FED1A
:100490009F1B9FED8C0B06F0A9F99DED080B8DEDD0
:1004A000020B9DED040B8DED000B00E012E09DEDC5
:1004B000060B53EC102B97A002F06AFE642002F0AA
:1004C0000DFF9C480078042802D105209949087046
:1004D00000BFACE09848007860B19748407848B9D0
:1004E0009448007830B90120924908709248007809
:1004F000914948708F480078092861D2DFE800F000
:10050000050E601A2A3147545C00642002F0E6FEB2
:1005100000F0C6FC89A002F03BFE51E00121084634
:1005200000F0F1FE0121084600F064FB012000F01C
:10053000E9FA45E00021022000F0E5FE8B48007852
:1005400038B18A480078072803D00221002000F043
:1005500051FB35E0642002F0C1FE85A002F018FED8
:100560002EE00021012000F0CEFE8D48007830B151
:100570008B480078072802D0002000F0C3FA884892
:100580000078072802D106206A49087018E001F0B7
:1005900085FE0221012000F02DFB74480078072819
:1005A00001D1644908700BE00121022000F0ABFE8C
:1005B000022000F0A7FA03E000205E49087000BFA7
:1005C00000BF34E0774B93ED030ABDEEC00A10EE96
:1005D000103A1AB2734B93ED020ABDEEC00A10EE48
:1005E000103A19B26F4B93ED010ABDEEC00A10EE3E
:1005F000103A18B202F03BF86A4B93ED060ABDEED2
:10060000C00A10EE103A1AB2664B93ED050ABDEE21
:10061000C00A10EE103A19B2624B93ED040ABDEE17
:10062000C00A10EE103A18B202F057FB00BF00BF2C
:1006300000F01AFC00F0E8FB03F0CAFD00201349AB
:100640000870A7E673797320696E69742066696E15
:10065000697368210D0A0000000000205C00002082
:1006600056000020A00000209C0000200B0000206D
:100670006D6F64653A256420686D63663A25642071
:10068000686D63623A25640D0A000000480000208E
:100690007374616E6462792E2E2E0D0A00000000C4
:1006A00054000020500000204E0000205200002086
:1006B0005A0000200000000000000000B4B81054F0
:1006C00039DC3E40281E36E200B35D402801E00AD6
:1006D00037DC3E408E272E3901B35D4078313A2514
:1006E0002E3366092079313A252E336620646973EA
:1006F000313A252E33660D0A00000000BF7D5F549D
:1007000039DC3E40FC85C83001B35D40000000C0CC
:1007100038DC3E4078323A252E3366092079323A69
:10072000252E336620646973323A252E33660D0A0E
:10073000000000000C000020010000207461736BB9
:10074000206F6B2C706C616E6520696E20686F6D18
:10075000652C616776206973206368617267696ED2
:1007600067206E6F772E2E2E0D0A000009000020E4
:100770007461736B206F6B2C706C616E65206F758C
:100780007420686F6D652C616776206973206368DB
:10079000617267696E67206E6F772E2E2E0D0A00CC
:1007A00008000020D8000020704705E006A002F0F5
:1007B000EFFC642002F092FDF8E700BFFEE700BF07
:1007C000FEE700BFFEE77047686172646661756CA2
:1007D000742E2E2E0D0A000010B5A2B00024802128
:1007E00002A808F0D4FE00200190F1222146641CEA
:1007F00002A8425401222146641C4254641CBB4896
:1008000090ED000A8DED010A9DF804202146641C3C
:1008100002A842549DF805202146641C42549DF8CC
:1008200006202146641C42549DF807202146641C82
:100830004254AE4890ED010A8DED010A9DF8042066
:100840002046611CCCB202A90A549DF8052020461E
:10085000611CCCB202A90A549DF806202046611CF6
:10086000CCB202A90A549DF807202046611CCCB2E4
:1008700002A90A549D4890ED020A8DED010A9DF8E7
:1008800004202046611CCCB202A90A549DF8052020
:100890002046611CCCB202A90A549DF806202046CD
:1008A000611CCCB202A90A549DF807202146601CA5
:1008B000C4B202A8425408222046611CCCB202A94C
:1008C0000A5419222046611CCCB202A90A548DF8A0
:1008D0000A40A01EC1B202A803F04EFDA11E02AA4A
:1008E0005054214602A802F041FC22B010BD10B5C0
:1008F0008178022900DA10BD8B1EC25C0378F12BCF
:1009000001D1012300E000234478022C01D101240D
:1009100000E00024234033B1C378754C2370037981
:10092000E3704379237100BFE5E710B581780229B0
:1009300000DA10BD8B1EC25C0378712B01D101233C
:1009400000E000234478082C01D1012400E00024B9
:100950002340E3B3C378674C63700379A370437992
:10096000E370C379847943EA042300EE103AB8EEC9
:10097000C00A604B83ED010A437A047A43EA0423F8
:1009800000EE103AB8EEC00A5A4B83ED020AC37A61
:10099000847A43EA042300EE103AB8EEC00A554BBD
:1009A00083ED030A437B047B43EA042300EE103A01
:1009B000B8EEC00A4F4B83ED040AC37B847B43EA45
:1009C000042300EE103AB8EEC00A4A4B00E00CE0F7
:1009D00083ED050A437C047C43EA042300EE103ACD
:1009E000B8EEC00A434B83ED060A00BFA1E710B57D
:1009F00090B000244021684608F0C9FD3E480078C8
:100A0000401C3D490870084600780A286BDD00202C
:100A1000087071222046611CCCB20DF8002007221C
:100A20002046611CCCB20DF80020601CC4B23348D3
:100A300002782046611CCCB20DF80020002220462E
:100A4000611CCCB20DF800202046611CCCB20DF820
:100A500000202B4802782046611CCCB20DF8002003
:100A6000274842782046611CCCB20DF8002024486B
:100A700082782046611CCCB20DF800202048C27854
:100A80002046611CCCB20DF800201D48027920469A
:100A9000611CCCB20DF80020194842792046611C37
:100AA000CCB20DF8002000222046611CCCB20DF81B
:100AB000002008222046611CCCB20DF8002019222B
:100AC0002046611CCCB20DF800208DF80240A01E1B
:100AD000C1B2684603F050FCA11E0DF8010021468A
:100AE000684603F0C3FF10B010BD0000D80D002011
:100AF00001000020D8000020060000200B0000208C
:100B00003E00002010B50446002C47D0FE48007877
:100B1000012806D0022814D0032822D004283CD172
:100B200032E004F039FEF9488078022808D1F7480D
:100B3000C078022804D104F036FE0220F249087081
:100B40002BE004F03DFEF1480079012808D1EF4880
:100B50004079012804D104F03AFE0320EA490870E4
:100B60001BE004F0FCFDE948007801280BD1E748C0
:100B70004078012807D104F001FE0420E249087002
:100B8000E3A002F005FB08E00720DF490870012C14
:100B900002D10320E549087000BF2AE000BF04F03D
:100BA000FBFD04F00DFE04F0DAFDD8488078022841
:100BB000F5D1D648C0780228F1D1D448007901286F
:100BC000EDD1D24840790128E9D1D04800780128F8
:100BD000E5D1CE4840780128E1D104F0E4FD04F0ED
:100BE000F6FD04F0CBFD0720C7490870D0A002F045
:100BF000CFFA10BD70B504460D46012C6FD1D34815
:100C00000078012816D1D1484078012812D1CF4868
:100C1000807878B9CD48C07860B90120CC49087097
:100C20000020CC4908700120C8498870C870CAA04B
:100C300002F0AEFA022D3CD1C5480078012804D05C
:100C4000022812D0032833D12EE004F0B2FDAF48C1
:100C50000079022808D1AD484079022804D104F077
:100C6000B6FD0220BA49087022E004F08DFD04F0C0
:100C70007DFDA6480078022815D1A44840780228B6
:100C800011D1A248807801280DD1A048C078012850
:100C900009D104F088FD04F071FD0320AC4908700F
:100CA000B3A002F075FA03E00720A949087000BF5D
:100CB0007EE0012D7CD1A6480078012806D00228CC
:100CC00020D003282ED004284FD147E0AE4800881A
:100CD00030B90120AC49088004F048FD11E045E03E
:100CE000AA480088401CA949088008460088B0F539
:100CF000AA7F06DD0020088004F040FD0220944910
:100D0000087032E004F055FD80480079022808D1CF
:100D10007E484079022804D104F059FD03208C4913
:100D2000087022E004F030FD04F020FD7748807860
:100D3000012812D17548C07801280ED17348007877
:100D400002280AD171484078022806D104F016FD25
:100D500004F029FD04207E49087006E084A002F01A
:100D600017FA07207A49087000BF21E004BB00BFD2
:100D700004F01FFD04F0FAFC644800790228F7D162
:100D8000624840790228F3D1604800780228EFD108
:100D90005E4840780228EBD104F019FD04F003FD11
:100DA00004F0ECFC00206A49087079A002F0F0F928
:100DB00070BD7E480078012802D17D49087022E08C
:100DC0007C480078012803D10220794908701AE094
:100DD00078480078022803D100207549087012E095
:100DE00074480078032805D10020714908704F49E4
:100DF000087008E06D48007828B96E48007810B98E
:100E000000206B49087070472DE9FC4100200090DC
:100E1000019000245025002600274FF0FF08664867
:100E20000078401C6449087008460078142819DDD1
:100E3000002008708DF800000A208DF801000120C4
:100E40008DF802008DF803408DF804508DF8058070
:100E50008DF806708DF807600822694640F201306F
:100E600002F0DBFDBDE8FC8110B54FF48061534812
:100E700006F0E2FD18B901203449087002E00020B4
:100E8000324908704FF480514C4806F0D5FD18B92E
:100E900001202E49487002E000202C49487010BD06
:100EA000FD2047490870474908704749087047497D
:100EB0000870704710B504464548C078012821D015
:100EC000434890F9020010F1020F05DC414890F907
:100ED000020010F1020F16DD3D4890F902000128D2
:100EE0000BDC3B4890F90200B0F1FF3F05DB3948CD
:100EF00090F90200B0F1FF3F7BDB364890F9020029
:100F0000012869E039E174E0080000203E0000207B
:100F100072656C6561736520706C616E65206973C4
:100F2000206F6B2E2E2E0D0A000000000C000020FA
:100F30007069636B706C616E65206973206F70659A
:100F40006E206F6B2E2E2E0D0A0000000E0000206A
:100F5000090000200A00002066696E6420706C6140
:100F60006E65206973206F6B2E2E2E0D0A00000017
:100F70007069636B20706C616E65206973206F6BA4
:100F80002E2E2E0D0A0000002E0000202C00002026
:100F90007069636B206D616368696E652069732099
:100FA000636C6F73652E2E2E0D0A00005600002014
:100FB0000B00002001000020300000200010024043
:100FC0001200002013000020140000201500002053
:100FD000AC000020A40000201EDCF74890F90200BD
:100FE000B0F1FF3F18DBF54890F90200B0F1FF3F88
:100FF00012DA5020F24908809FEDF20AF24880EDA3
:10100000000A0120F1490870EC484278EA4841782A
:10101000EFA002F0BDF8D2E0E84890F90200022803
:1010200004DBE54890F9020002281FDAE34890F952
:10103000020001280ADCE14890F90200B0F1FF3F0C
:1010400004DBDD4890F9020001280FDCDA4890F952
:10105000020001281DDCD84890F90200B0F1FF3FE2
:1010600017DBD64890F90200012812DD5020D44940
:1010700008809FEDD40AD44880ED000AFF20D349B0
:101080000870CE484278CC484178DBA002F080F866
:1010900095E0CA4890F90200022818DBC64890F98A
:1010A000020010F1020F12DA5020C54908809FEDAE
:1010B000DB0AC54880ED000A0020C4490870BF481B
:1010C0004278BD484178D6A002F062F877E0BB488C
:1010D00090F9020010F1020F17DCB74890F90200F6
:1010E000022812DD5020B64908809FEDD60AB64886
:1010F00080ED000A0020B5490870B0484278AE483B
:101100004178D1A002F044F859E0D848408888B925
:10111000D748408870B90020A94908809FEDD50ABA
:10112000A94880ED000A0020A8490870D2A002F06A
:101130002FF844E0012C0AD1B420A14908809F482F
:1011400042789D484178D1A002F022F80CE0022CB0
:101150000AD16FF0B3009A490880984842789648BF
:101160004178D3A002F014F89FEDC20A964880EDB2
:10117000000A00209549087021E0012C0AD1B42012
:101180008F4908808D4842788B484178BFA001F094
:10119000FFFF0CE0022C0AD16FF0B30088490880F1
:1011A0008648427884484178C1A001F0F1FF9FED64
:1011B000B10A854880ED000A00208449087010BDFE
:1011C000884201DD084603E04A42904200DA484284
:1011D000704710B503460C46F4B304FB03F000B2AD
:1011E000BC49088004FB03F000B2BB49088004FB43
:1011F00003F000B2B949088004FB03F000B2B8491B
:101200000880DFEDB80A60EE200AFDEEE00A10EE7D
:10121000900A4FF44831FFF7D3FF4042B2490860CB
:10122000DFEDB00A60EE200AFDEEE00A10EE900A53
:101230004FF44831FFF7C4FFAC490860DFEDA90A5D
:1012400060EE200AFDEEE00A10EE900A4FF44831FD
:10125000FFF7B6FF404200E010E0A5490860DFED6F
:10126000A10A60EE200AFDEEE00A10EE900A4FF4AB
:101270004831FFF7A5FF9F49086043E0584200B29C
:1012800094490880584200B29349088093480380EB
:1012900093480380DFED930A60EE200AFDEEE00A3A
:1012A00010EE900A4FF44831FFF78AFF8E4908602C
:1012B000DFED8C0A60EE200AFDEEE00A10EE900AE7
:1012C0004FF44831FFF77CFF88490860DFED850A5D
:1012D00060EE200AFDEEE00A10EE900A4FF448316D
:1012E000FFF76EFF82490860DFED7E0A60EE200A9C
:1012F000FDEEE00A10EE900A4FF44831FFF760FF70
:101300007C49086010BD70B504460D467A480088D7
:10131000401C79490880084600880A2849DD0020D9
:10132000088052494888244904F072FA5049488894
:10133000224904F06DFA71480078714908701F481D
:10134000C0786E4908706F48007878B16D480078B1
:1013500007280BD000201A4908809FED460A1A483A
:1013600080ED000A00201949087055E266480078AF
:1013700078B16548007807280BD000201049088014
:101380009FED3C0A104880ED000A00200F490870CC
:10139000EBE75E48007801280CD10020084908805E
:1013A0009FED340A084880ED000A002007490870C4
:1013B000DBE7FCE3ACE00000A4000020AC00002070
:1013C0001600002000003442180000201C000020FD
:1013D0007475726E20726967687420686D63665FE9
:1013E0006D69643A256420686D63625F6D69643A73
:1013F00025640D0A000000007475726E206C65662D
:101400007420686D63665F6D69643A256420686D59
:1014100063625F6D69643A25640D0A000000B4429E
:1014200072756E20726967687420686D63665F6D9F
:1014300069643A256420686D63625F6D69643A256A
:10144000640D0A000000B4C272756E206C6566748B
:1014500020686D63665F6D69643A256420686D631A
:10146000625F6D69643A25640D0A00009C000020EB
:10147000A0000020000000006D697373206C696E8D
:10148000652C73746F700D0A00000000676F206F89
:10149000757420686D63665F6D69643A25642068C1
:1014A0006D63625F6D69643A25640D0A0000000097
:1014B000676F206261636B20686D63665F6D69644E
:1014C0003A256420686D63625F6D69643A25640D36
:1014D0000A000000780000207A0000207C00002034
:1014E0007E000020CD380E458000002084000020C2
:1014F000880000208C000020320000201D00002009
:101500001E00002008000020090000200A00002022
:10151000012D7BD1022C7AD1FC4890F90000C01C2F
:10152000D0B9FB480078012816D1FA480078012884
:1015300012D0FE20F54908706FF0B300F64908801C
:101540001FED340AF54880ED000A0020F4490870C8
:10155000F4A001F01DFE08E7EC4890F90000801CA3
:10156000D0B9EB480078012816D0EA480078012865
:1015700012D1FF20E54908706FF0B300E6490880FA
:101580001FED440AE54880ED000A0020E449087098
:10159000ECA001F0FDFDE8E6DC4890F90000401CFD
:1015A000D0B9DB480078012816D1DA480078012844
:1015B00012D00020D54908706FF0B300D6490880DA
:1015C0001FED540AD54880ED000A0020D449087068
:1015D000E4A001F0DDFDC8E6CC480078E0B9CC48D5
:1015E0000078012818D0CB480078012814D1C749C9
:1015F00008706FF06300C84908801FED620AC74891
:1016000080ED000A0020C649087001E092E287E000
:10161000E0A001F0BDFDA8E6BC48007801281CD17F
:10162000BB480078012818D1BA480078012814D0A6
:101630000220B64908700120E24908700020B6492E
:1016400008801FED740AB54880ED000A0020B449F7
:101650000870DDA001F09CFD87E6AC480078022808
:101660001AD1AB480078012816D0AA480078012882
:1016700012D10320A54908706FF0B300A649088075
:101680001FED840AA54880ED000A0020A4490870D7
:10169000D9A001F07DFD68E69C48007803281AD1A6
:1016A0009B480078012816D19A480078012812D06A
:1016B0000420964908706FF0B300974908801FED29
:1016C000930A964880ED000A002095490870D3A03F
:1016D00001F05EFD49E68D48007804281CD18C4855
:1016E0000078012818D08B480078012814D10520F3
:1016F000864908700020884908801FEDA20A8748A3
:1017000080ED000A0020864908700820C949087049
:10171000C9A001F03DFD28E60220FFF7CBFB24E63F
:10172000012C99D1CE4890F90000C01CC8B9784866
:101730000078012815D177480078012811D0FE20C3
:10174000C7490870B420744908801FEDB60A734871
:1017500080ED000A002072490870C2A001F018FD57
:1017600003E6BF4890F90000801CC8B968480078BB
:10177000012815D067480078012811D1FF20B84909
:101780000870B420644908801FEDC60A634880EDE4
:10179000000A002062490870B8A001F0F9FCE4E5F5
:1017A000AF4890F90000401CC8B95948007801289A
:1017B00015D158480078012811D00020A849087098
:1017C0006420554908801FEDD50A544880ED000A71
:1017D000002053490870AFA001F0DAFCC5E5A0482D
:1017E0000078D0B94A480078012816D049480078D6
:1017F000012812D19A490870AC4908700020464966
:1018000008801FEDE40A454880ED000A00204449A5
:101810000870A7A001F0BCFC14E2914800780128F0
:1018200019D13B480078012815D13A4800780128A1
:1018300011D002208A490870B420374908801FED72
:10184000F30A364880ED000A002035490870A4A04C
:1018500001F09EFCF6E182480078022819D12C485C
:101860000078012815D02B480078012811D10320D9
:101870007B490870B420284908809FED9F0A2748BB
:1018800080ED000A0020264908709CA001F080FC31
:10189000D8E173480078032819D11D480078012841
:1018A00015D11C480078012811D004206C4908701B
:1018B000B420194908809FED900A184880ED000A6D
:1018C00000201749087055A001F062FCF3E364485A
:1018D0000078042819D10E480078012815D00D4849
:1018E0000078012811D105205D49087000200A49BF
:1018F00008809FED810A094880ED000A0020084910
:10190000087001202F4908700CE10FE1120000203F
:101910001D0000201E0000201600002018000020DE
:101920001C00002072656C6561736520706C616ECF
:1019300065206C696E652066696E642E2E2E0D0A18
:101940000000000072656C6561736520706C616EEB
:1019500065206C696E65206D6973732E2E2E0D0ADD
:10196000000000006669727374206C696E65206601
:10197000696E642C616776206E6F742073746F706B
:10198000207374696C6C20676F206261636B2E2E0C
:101990002E0D0A006669727374206C696E65206D85
:1019A0006973732C616776206E6F742073746F7027
:1019B000207374696C6C20676F206261636B2E2EDC
:1019C0002E0D0A00080000207365636F6E64206CA2
:1019D000696E652066696E642C6167762073746F2A
:1019E0007020616E642072656C6561736520706C37
:1019F000616E650D0A0000007365636F6E64206C94
:101A0000696E65206D6973732C61677620676F203E
:101A10006261636B20686F6D650D0A00746869729E
:101A200064206C696E652066696E642E2E2E0D0A28
:101A3000000000000C0000207468697264206C696A
:101A40006E65206D6973732C6167762073746F7097
:101A5000206368616E67652E2E2E0D0A000000005F
:101A600013000020636861726765206C696E6520F1
:101A700066696E642E2E2E0D0A0000006368617286
:101A80006765206C696E65206D6973732E2E2E0D4F
:101A90000A0000006669727374206C696E652066C6
:101AA000696E642E2E2E0D0A000000000900002031
:101AB0006669727374206C696E65206D6973732C2E
:101AC0006167762073746F7020616E642070696343
:101AD0006B20706C616E652E2E2E0D0A00000000CA
:101AE0007365636F6E64206C696E652066696E64F1
:101AF0002E2E2E0D0A000000000000007365636F9B
:101B00006E64206C696E65206D6973732C616776F5
:101B1000207374696C6C20676F206F75742E2E2E85
:101B20000D0A0000F8A001F033FBC4E20120FFF72A
:101B3000C1F9C0E2002DF8D1022C7DD1FE4890F908
:101B40000000C01CD8B9FD480078012817D1FC4816
:101B50000078012813D0FE20F74908706FF0B30019
:101B6000F84908801FED1C0AF74880ED000A0020A4
:101B7000F6490870AFF2542001F00AFB9BE2EE48F0
:101B800090F90000801CE8B9EC480078012819D0D1
:101B9000EB480078012815D1FF20E74908706FF065
:101BA000B300E84908801FED2C0AE74800E08DE209
:101BB00080ED000A0020E5490870AFF2782001F0BE
:101BC000E7FA78E2DC4890F90000401CE0B9DB4815
:101BD0000078012818D1DA480078012814D00020B4
:101BE000D54908700120DA4908700020D5490880DD
:101BF0001FED3F0AD44880ED000A0020D349087049
:101C0000D4A001F0C5FA56E2CB480078D8B9CB4849
:101C10000078012817D0CA480078012813D1C64996
:101C200008706FF0B300C74908801FED4D0AC64821
:101C300080ED000A002000E089E0C4490870D1A0CE
:101C400001F0A6FA37E2BC48007801281BD1BB4856
:101C50000078012817D1BA480078012813D0022053
:101C6000B54908706FF0B300B64908801FED5E0AF1
:101C7000B54880ED000A0020B4490870AFF2A0100A
:101C800001F086FA17E2AC48007802281AD1AB4876
:101C90000078012816D0AA480078012812D1032024
:101CA000A54908706FF0B300A64908801FED6E0AC1
:101CB000A54880ED000A0020A4490870B7A001F0F3
:101CC00067FAF8E19C48007803281BD19B4800780C
:101CD000012817D19A480078012813D0042096498A
:101CE00008706FF0B300974908801FED7D0A964891
:101CF00080ED000A002095490870AFF2E02001F065
:101D000047FAD8E18C48007804281CD18B48007829
:101D1000012818D08A480078012814D10520864966
:101D200008700020874908801FED8D0A864880EDE5
:101D3000000A0020854908700420A2490870A2A06A
:101D400001F026FAB7E10220FFF7B4F8B3E1012C65
:101D500098D1AC4890F90000C01CD0B97748007801
:101D6000012816D176480078012812D0FE20A54916
:101D70000870B420734908801FEDA10A724880EDF5
:101D8000000A002071490870AFF2283001F000FA13
:101D900091E19C4890F90000801CD0B96748007818
:101DA000012816D066480078012812D1FF209549F5
:101DB0000870B420634908801FEDB10A624880EDC5
:101DC000000A002061490870AFF2503001F0E0F9DC
:101DD00071E18C4890F90000401CD0B95748007858
:101DE000012816D156480078012812D000208549D4
:101DF0000870B420534908801FEDC10A524880ED95
:101E0000000A002051490870AFF2783001F0C0F9A3
:101E100051E17C480078C0B948480078012814D0C6
:101E200047480078012810D17649087076A001F063
:101E3000AFF9B420434908801FEDD10A424880ED34
:101E4000000A00204149087035E16E4800780128F9
:101E50001AD13A480078012816D13948007801286B
:101E600012D0022067490870AFF28C3001F090F96F
:101E7000B420344908801FEDE00A334880ED000AA1
:101E800000203249087016E15E48007802281CD113
:101E90002A480078012818D029480078012814D150
:101EA00003205849087001206249087062A001F0BF
:101EB0006FF90020234908801FEDF10A224880EDC8
:101EC000000A002021490870F5E04E4800780328F8
:101ED00018D11A480078012814D11948007801282F
:101EE00010D0042047490870AFF2D04001F050F9FB
:101EF000B420144908809FED5B0A134880ED000A66
:101F00000020B1E0B3E000007468697264206C697D
:101F10006E65206D6973732C6167762073746F70C2
:101F200020616E642072656C6561736520706C6100
:101F30006E652E2E2E0D0A00140000201D000020BC
:101F40001E00002016000020180000201C000020A9
:101F5000090000206669727374206C696E652066E2
:101F6000696E642C6167762073746F7020616E6493
:101F700020636C6F7365207069636B2E2E2E0D0AC3
:101F8000000000006669727374206C696E65206DD4
:101F90006973732E2E2E0D0A000000007365636FA7
:101FA0006E64206C696E65206D6973732C61677651
:101FB000207374696C6C20676F206261636B2E2ED6
:101FC0002E0D0A000C0000207468697264206C6990
:101FD0006E65206D6973732C6167762073746F7002
:101FE00020616E64206368617267652C706C616E3D
:101FF00065206973206F7574736964652E2E2E0DCC
:102000000A000000150000206669727374206C6974
:102010006E65206D6973732C616776206973207318
:1020200074696C6C20676F206F75742E2E2E0D0AEC
:1020300000000000080000207365636F6E64206C70
:10204000696E65206D6973732C72656164792074A3
:102050006F206F70656E207069636B2E2E2E0D0AD7
:102060000000000000000000FA49087023E0FA4870
:10207000007804281CD1F9480078012818D0F848C5
:102080000078012814D10520F34908700120F54992
:102090000870F5A001F07CF80020FE4908801FEDD3
:1020A0000F0AFD4880ED000A0020EA49087002E0AE
:1020B0000120FEF7FFFEE74890F90010F64890ED8A
:1020C000000AF448B0F90000FFF783F870BD70B55E
:1020D0002DED048BB0EE408AF0EE608A04460025B8
:1020E0000026002C59D0F5EEC08AF1EE10FA02DD80
:1020F000B0EE680A01E0B1EE680AF0EE080A30EED0
:10210000600ADFEDE60AB4EEE00AF1EE10FA42DD15
:10211000B0EE080A38EEC00ADFEDE00AB4EEE00ADD
:10212000F1EE10FA01DD01260CE0B0EE080A38EEFF
:10213000C00ADFEDDB0AB4EEE00AF1EE10FA01D2DC
:102140004FF0FF36B0EE000A28EE800AB5EEC00A66
:10215000F1EE10FA04DDB0EE000A28EE800A03E08A
:10216000B0EE000A28EEC00ABDEEC00A10EE101A4A
:1021700008B231469FEDCB0AFFF72BF818EE900A14
:102180000BF0DEFB41EC190B53EC192BC6A000F051
:10219000FFFF00257EE001257CE0B5EEC08AF1EE70
:1021A00010FA02DDB0EE480A01E0B1EE480AF1EEA5
:1021B000040A30EE600ADFEDB90AB4EEE00AF1EE8F
:1021C00010FA66DDB1EE040A38EE400ADFEDB30A1C
:1021D000B4EEE00AF1EE10FA27DDB0EE000A28EEC8
:1021E000000AB5EEC00AF1EE10FA04DDB0EE000A06
:1021F00028EE000A03E0B0EE000A28EE400ABDEE29
:10220000C00A10EE101A08B200219FEDB20AFEF7C4
:10221000E0FF18EE100A0BF093FB41EC190B53ECA6
:10222000192BADA000F0B4FF31E0B1EE040A38EE96
:10223000400ADFED9B0AB4EEE00AF1EE10FA26D276
:10224000B0EE000A28EE000AB5EEC00AF1EE10FA70
:1022500004DDB0EE000A28EE000A03E0B0EE000A4A
:1022600028EE400ABDEEC00A10EE101A08B2002196
:102270009FEDA50AFEF7ADFF18EE100A0BF060FB0C
:1022800041EC190B53EC192B93A000F081FF0025B2
:1022900000E001252846BDEC048B70BD00B52DED96
:1022A000108B89B09FED990B8DED060B9FED970B71
:1022B0008DED040B9FED950BB0EE40AAF0EE60AAF9
:1022C0009FED920BB0EE408AF0EE608A9FED8F0B8F
:1022D000B0EE40BAF0EE60BA9FED8C0B8DED020BC4
:1022E0009FED8A0B8DED000B8A48007810B9012014
:1022F000884908708748007800287DD0864908689A
:10230000496841EC150B844908390868496841EC73
:10231000140B814910390868496841EC130B7F4957
:102320000868496841EC120B7C490839086849681B
:1023300041EC110B794910390868496841EC100BE0
:10234000774800F023FD764890ED002BB0EE420A6E
:10235000F0EE620A90ED082BB0EE421AF0EE621A2F
:1023600053EC102B51EC110B0BF000FACDE90601E8
:102370006B4890ED022BB0EE420AF0EE620A90ED4F
:102380000A2BB0EE421AF0EE621A53EC102B51EC0D
:10239000110B0BF0EBF9CDE90401614890ED042B32
:1023A000B0EE420AF0EE620A90ED0C2BB0EE421A4B
:1023B000F0EE621A53EC102B51EC110B0BF0D6F926
:1023C00041EC1A0B5449086849689FED561B53ECC1
:1023D000112B0BF0CBF941EC1B0BB0EE4B0AF0EEDE
:1023E0006B0A08F0B1FFB0EE4B0AF0EE6B0A09F091
:1023F000BBFEB0EE40CA00E035E1F0EE60CA9FEDF2
:102400004B0B53EC102B51EC1C0B0AF0FBFE41EC78
:10241000190B434890ED0A1BB0EE410AF0EE610A39
:1024200053EC102B51EC190B0BF0C8F8CDE902015D
:102430003B4890ED021BB0EE410AF0EE610A53EC0E
:10244000102B9DED001B51EC110B0BF08FF941ECA3
:102450001F0B6FE01C000020150000201D00002055
:102460001E0000200A0000207468697264206C69F4
:102470006E65206D6973732C726561647920746F69
:10248000207069636B20706C616E652E2E2E0D0AB4
:102490000000000016000020180000206F12833A90
:1024A0006F1283BA0000344261677620697320633B
:1024B0006F6E74726F6C656420627920772070692A
:1024C000642C776572723A252E32662E2E2E0D0AF6
:1024D000000000000000B442616776206973206349
:1024E0006F6E74726F6C656420627920646973200A
:1024F0007069642C6469736572723A252E32662E97
:102500002E2E0D0A000000000000B4C200000000E2
:1025100000000000200000200B0F0020E60E00202D
:10252000F80000200000000000E0704000000040C3
:102530003333F33F9FEDFE1BB0EE4F0AF0EE6F0A10
:1025400008F0EAFFB0EE40DAF0EE60DAFA4890ED1B
:10255000001BB0EE410AF0EE610A53EC102B9DED2A
:10256000021B51EC110B0BF001F941EC1F0B9FED1D
:10257000F01BB0EE4F0AF0EE6F0A08F0CDFFB0EEA0
:1025800040EAF0EE60EA53EC1D2B51EC1E0B0AF012
:102590008FFB41EC1C0BB0EE4C0AF0EE6C0A09F01C
:1025A00047FEB0EE409AF0EE609A9FEDE40B53ECDC
:1025B000102B51EC190B0AF025FE41EC180BE148E9
:1025C0000078012806D0022819D003282CD004282E
:1025D00048D143E051EC1A0B0AF038FB09EE100A1F
:1025E0000120F0EE490A9FEDD80AFFF770FD28B1EF
:1025F000D6A000F0CDFD0220D249087032E051ECA7
:10260000180B0AF023FB09EE100A0020DFEDCE0ABA
:10261000B0EE490AFFF75BFD28B1D7A000F0B8FD86
:102620000320C84908701DE0DE48007848B1002149
:102630009FEDC50AB420FEF7CCFDDBA000F0A8FD9D
:102640000BE000219FEDC00A0846FEF7C2FDE1A0A5
:1026500000F09EFD0420BB49087003E00720B94943
:10266000087000BF00BF09B0BDEC108B00BD2DE9A4
:10267000FC4F07468846914600250024002300268B
:102680009A469B46002001900090A8F57A7004B20B
:10269000A7F57A7003B2A9F57A7006B2002B01DDB6
:1026A000184600E05842B0F5967F7BDD002C01DD36
:1026B000204600E06042B0F5967FF6DDD04890ED10
:1026C000000AD04880ED000AB3F5967F21DD14F5AD
:1026D000967F1EDA9FEDCC0AC94880ED000A002BD8
:1026E00001DD184600E05842002C01DD214600E0E3
:1026F00061420844404200EE100AB8EEC00ADFED25
:10270000C30A20EE200ABDEEC00A10EE100A05B280
:10271000C1E013F5967F21DA14F5967F1EDA1FEDDE
:102720009F0AB74880ED000A002B01DD184600E043
:102730005842002C01DD214600E06142084440423D
:1027400000EE100AB8EEC00ADFEDB00A20EE200A53
:10275000BDEEC00A10EE100A05B29CE013F5967F9C
:1027600021DAB4F5967F1EDD9FEDA70AA44880ED1F
:10277000000A002B01DD184600E05842002C01DD64
:10278000214600E06142084400EE100AB8EEC00A9B
:10279000DFED9E0A20EE200ABDEEC00A10EE100A00
:1027A00005B278E023E0B3F5967F74DDB4F5967F4B
:1027B00071DD1FEDC40A924880ED000A002B01DD97
:1027C000184600E05842002C01DD214600E061423D
:1027D000084400EE100AB8EEC00ADFED8C0A20EEC5
:1027E000200ABDEEC00A10EE100A05B253E0002B1D
:1027F00001DD184600E05842B0F5967F26DD002C3A
:1028000001DD204600E06042B0F5967F1EDA7C488C
:1028100090ED000A7B4880ED000AB3F5967F08DD55
:102820001FEDD40A764880ED000AA3F5967005B234
:1028300031E013F5967F2EDA1FEDCD0A704880ED5A
:10284000000A03F59670404205B224E0002B01DD3A
:10285000184600E05842B0F5967F1CDA002C01DDE6
:10286000204600E06042B0F5967F14DD644890EDAC
:10287000000A644880ED000A9FED330A604880ED4D
:10288000000AB4F5967F03DDA4F5967005B202E068
:1028900004F5967005B2002E01DD304600E070426E
:1028A000B0F5967F42DDB6F5967F03DDA6F596700E
:1028B00005B202E006F5967005B2514890ED000AA7
:1028C000504880ED000A9FED520A4D4880ED000A05
:1028D0004C4890ED000A4A48D0ED000A30EE600AFC
:1028E000B5EEC00AF1EE10FA08DD464890ED000A98
:1028F0004348D0ED000A30EE600A09E0414890ED0F
:10290000000A3F48D0ED000A30EE600AB1EE400AFE
:10291000F3EE040AB4EEE00AF1EE10FA02DD19203B
:102920003C4908803B480088401E75E0C0E000003C
:102930000000000000000040F8000020000000003F
:10294000000059401F000020000000006167762051
:1029500069732061727269766564206174206472A3
:10296000676F6E2066697368277320686561642EDF
:102970002E2E0D0A00000000616776206973206129
:10298000727269766564206174206472676F6E206C
:102990006669736827732066726F6E742E2E2E0D13
:1029A0000A0000000A00002061677620676F20613E
:1029B000686561642C74727920746F207069636B30
:1029C000206472676F6E20666973682E2E2E0D0A62
:1029D000000000006472676F6E206669736820698A
:1029E000732066696E642C6167762073746F702043
:1029F000616E64207069636B2E2E2E0D0A0000003C
:102A00002400002028000020000034C29A99193FB9
:102A1000000034422200002000B2CF49088008465E
:102A2000B0F90000002842DC0020088005EB4500DA
:102A300000B2CA49088005EB450000B2C8490880C9
:102A400005EB450000B2C749088005EB450000B220
:102A5000C5490880C54890ED000AB1EE400ADFED97
:102A6000C40A20EE200ABDEEC00A10EE10AA90EDB6
:102A7000000ADFEDBF0A20EE200ABDEEC00A10EE0C
:102A800010BA90ED000AB1EE400ADFEDB90A20EE6F
:102A9000200ABDEEC00A8DED010A90ED000ADFEDBF
:102AA000B40A20EE200ABDEEC00A8DED000AF6E061
:102AB000002B01DD184600E05842B0F5967F49DA58
:102AC000002C01DD204600E06042B0F5967F41DA3F
:102AD0001FED630AA54880ED000A0025684200EB5F
:102AE00080009E490880684200EB80009C49088075
:102AF00005EB85009B49088005EB85009A49088015
:102B00009A4890ED000ADFED9A0A20EE200ABDEE09
:102B1000C00A10EE10AA90ED000ADFED950A20EE33
:102B2000200ABDEEC00A10EE10BA90ED000ADFEDEB
:102B3000900A20EE200ABDEEC00A8DED010A90ED4C
:102B4000000ADFED8B0A20EE200ABDEEC00A8DEDF3
:102B5000000AA4E0874890ED000A8448D0ED000AFE
:102B600030EE600AB5EEC00AF1EE10FA08DD8148D9
:102B700090ED000A7D48D0ED000A30EE600A09E0D1
:102B80007C4890ED000A7948D0ED000A30EE600AEA
:102B9000B1EE400ADFED780AB4EEE00AF1EE10FA89
:102BA00003DD20206C49088029E0724890ED000A7E
:102BB0006E48D0ED000A30EE600AB5EEC00AF1EEC4
:102BC00010FA08DD6B4890ED000A6848D0ED000A65
:102BD00030EE600A09E0674890ED000A6348D0EDE6
:102BE000000A30EE600AB1EE400AF3EE0E0AB4EECF
:102BF000E00AF1EE10FA02DD142057490880564829
:102C00000088401E00B2544908800846B0F9000010
:102C100000281BDC00200880684200EB40004000D8
:102C200000B24E490880684200EB4000400000B20C
:102C30004B49088005EB4500400000B24949088037
:102C400005EB4500400000B247490880474890ED39
:102C5000000ADFED470A20EE200ABDEEC00A10EEA2
:102C600010AA90ED000ADFED420A20EE200ABDEE28
:102C7000C00A10EE10BA90ED000ADFED3D0A20EE1A
:102C8000200ABDEEC00A8DED010A90ED000ADFEDCD
:102C9000380A20EE200ABDEEC00A8DED000A4FF47E
:102CA00048315046FEF78CFA344908604FF44831F9
:102CB0005846FEF785FA324908604FF448310198CA
:102CC000FEF77EFA2F4908604FF448310098FEF76E
:102CD00077FA2D490860BDE8FC8F2DE9F0470446DE
:102CE0000D46914600260027B046A9F57A700FFAE6
:102CF00080F8A5F57A7007B2A4F57A7006B2B6F539
:102D0000967F02DD02F02BFD07E016F5967F02DAD2
:102D100002F02CFD01E002F031FDB7F5967F02DDF7
:102D200002F032FD07E017F5967F02DA02F034FD7B
:102D300001E002F038FDB8F5967F02DD02F039FDC2
:102D400007E018F5967F02DA02F03AFD01E002F0A2
:102D50003EFDBDE8F0870000220000207800002042
:102D60007A0000207C0000207E000020240000204B
:102D7000CD380E4528000020000070428000002061
:102D800084000020880000208C00002010B52DED6C
:102D90000C8B8CB0B0EE408AF0EE608AB0EE419AB7
:102DA000F0EE619AB0EE42AAF0EE62AAB0EE43BA3B
:102DB000F0EE63BAB0EE44CAF0EE64CAB0EE45DAA3
:102DC000F0EE65DA04469FED2D0B8DED0A0B9FEDBD
:102DD0002B0B8DED080B9FED290B8DED060B9FED59
:102DE000270B8DED040B9FED250B8DED020B9FED59
:102DF000230B8DED000B06AA08A90AA8B0EE493AEC
:102E0000F0EE693AB0EE482AF0EE682A9FED1D1BFD
:102E10009FED1E0B03F0EAFC6A4602A904A8B0EE7F
:102E20004C3AF0EE6C3AB0EE4B2AF0EE6B2A9FED86
:102E3000191B9FED1A0B03F0D9FC9DED0A0B84EDD5
:102E4000000B9DED080B84ED020B84ED04AB9DEDB2
:102E5000060B84ED060B9DED040B84ED080B9DED38
:102E6000020B84ED0A0B84ED0CDB9DED000B84ED71
:102E70000E0B0CB0BDEC0C8B10BD00000000000070
:102E800000000000BF7D5F5439DC3E40FC85C83047
:102E900001B35D409F0C44053DDC3E4024D6E25327
:102EA00000B35D4010B596B004460121084604F019
:102EB000A7FF0121102004F0E7FF07220921CD48D8
:102EC00004F0E3FD07220A21CA4804F0DEFD0020D9
:102ED0008DF8560001208DF8570002208DF854001F
:102EE0000002149002208DF8550014A9C14804F086
:102EF00041FD02208DF854004002149014A9BD48F1
:102F000004F038FDBC4805F00BFF10940020ADF82C
:102F10004400ADF84600ADF84800ADF84C000C2078
:102F2000ADF84A0010A9B44805F048FF002240F26D
:102F30002551B14806F080F8002240F22661AE48E3
:102F400006F07AF8012240F22441AB4806F074F80A
:102F50000121A94805F0BAFF0121880504F050FFBE
:102F600001224021A44806F05EF801228021A248F7
:102F700006F059F825208DF83C0001208DF83D0021
:102F80008DF83E008DF83F000FA803F0C0FC4620EE
:102F90008DF83C0002208DF83D008DF83E000120A8
:102FA0008DF83F000FA803F0B2FC3A208DF83C00EA
:102FB00000208DF83D0002208DF83E0001208DF8A4
:102FC0003F000FA803F0A3FC8C4804F003FA4FF075
:102FD000006000908848001D019089480290002000
:102FE000039080200490002005904FF480600690AC
:102FF0000020079008904FF4807009904FF4403003
:103000000A9000200B900C900D900E9069467B4822
:1030100004F082FA0121794804F0B8FA7748783050
:1030200004F0D8F94FF0006000907348001D019043
:103030007448029040200390802004900020059066
:103040004FF48060069000200790089009904FF49C
:1030500080300A9000200B900C900D900E906946E5
:103060006648783004F058FA01228021624805F061
:10307000DAFF012210216148783004F014FB0021AE
:103080005E48783004F082FA16B010BD02465068EF
:10309000081A80B2704770B50024002540F225510F
:1030A000554806F004F818B1534805F03EFFC4B285
:1030B00040F22441504805F0FAFF18B35048FDF79C
:1030C00016FC4F48FDF731FC80214C48FFF7DEFF2E
:1030D0004D4908800021494804F058FA00BF47488C
:1030E00004F0A1FA0028FAD18021444804F06FFAD4
:1030F0000121424804F04AFA3F480088C5B23E48E0
:103100008088C5B270BD10B5044600BF20213A4882
:1031100005F0B7FF0028F9D0374805F006FF10BDCD
:1031200070B504460D4639480078F0B9002133489F
:10313000783004F02BFA00BF3048783004F073FA8E
:103140000028F9D1002221462C48783004F05CFA9E
:10315000A9B22A48783004F03AFA01212748783099
:1031600004F014FA01202949087070BD70B50546B5
:103170000E46002400BF04E0285D22490855601C6B
:10318000C4B2B442F8DB31461E48FFF7C9FF70BD38
:103190000FB438B505A800901A48009A049906F0B3
:1031A000B3F900200090174806F0D2F904462146F2
:1031B0001448FFF7B5FF38BC5DF814FB10B514498F
:1031C0000E4804F08DFA18B111490C4804F0B2FA17
:1031D00010BD10B50F490948783004F081FA38B1B4
:1031E00000200A4908700B490448783004F0A2FA1C
:1031F00010BD000000000240001001404064024089
:1032000038010020B80100203600002034000020E2
:10321000008020100080002810B504466FF00400E4
:1032200003F0C2FBE11704EB5171C1F3C701404A3F
:1032300011701046007800EB4001C1EBC0104FF652
:10324000FF7101EAC0003B49088010BD0146384AC1
:1032500012784A434FF0E0235A6100229A611A46DD
:10326000126942F001021A6100BF4FF0E0221069BA
:1032700000F001021AB100F48032002AF5D04FF0BC
:10328000E022126922F001024FF0E0231A610022CD
:103290009A6170470146274A12884A434FF0E0235B
:1032A0005A6100229A611A46126942F001021A61BB
:1032B00000BF4FF0E022106900F001021AB100F4E3
:1032C0008032002AF5D04FF0E022126922F001028C
:1032D0004FF0E0231A6100229A61704770B50446EE
:1032E0004FF4077094FBF0F0C6B24FF4077094FBF4
:1032F000F0F100FB114085B205E04FF40770FFF7D5
:10330000C9FF701EC6B2002EF7D115B12846FFF7CF
:10331000C1FF70BD10B5002107E04AF2104200BFA6
:10332000131EA2F10102FBD1491C8142F5D310BD4D
:10333000380000203A00002010B58AB00446012170
:10334000084604F05DFD0121480604F08CFD0922C9
:103350000C21914804F099FB09220B218E4804F0BE
:1033600094FB4FF4C050019002208DF8080000201B
:103370008DF80A0003208DF8090001A9864804F0A1
:10338000F9FA14208DF8000001208DF801000220C8
:103390008DF8020001208DF80300684603F0B7FAAB
:1033A00015208DF8000001208DF8010002208DF815
:1033B000020001208DF80300684603F0A8FA1320EC
:1033C0008DF8000001208DF801008DF802008DF8C5
:1033D0000300684603F09BFA704803F003FB07A85C
:1033E00003F024FC00208DF822008DF823008DF8D6
:1033F00024008DF825008DF8260001208DF8270087
:1034000000208DF81E008DF81F0008208DF8200088
:1034100003208DF821000620ADF81C0007A95F48A5
:1034200003F0F9FA00208DF816008DF8170001203E
:103430008DF818004FF6FF7000EA4410ADF80C004C
:103440000020ADF80E004FF6FF70ADF81000401EE2
:10345000ADF812000020ADF8140001208DF819001D
:1034600003A803F062FB012202214C4803F05CFE3A
:1034700001221021494803F057FE01221146474816
:1034800003F052FE0AB010BD10B50121434803F00D
:10349000B3FE30B101204249087001213F4803F0DA
:1034A00046FF10BD00B585B002213C4803F0A4FEE4
:1034B00040B10221394803F03AFF6A4600213748FB
:1034C00003F017FD05B000BD00B585B010213348ED
:1034D00003F092FE40B11021304803F028FF6A4605
:1034E00001212E4803F005FD05B000BDF0B585B003
:1034F00006460F461546002400208DF808008DF87A
:1035000009008DF80A50009600BF05E0395D0DF105
:103510000B000155601CC4B2AC42F7DB01E0601C3B
:10352000C4B269461D4803F0EFFB042801D17F2C8B
:10353000F5DB05B0F0BD2DE9F04186B006460F463B
:1035400015460024A04604208DF80C0000208DF8BC
:103550000D008DF80E50029600BF05E0395D0DF1AB
:103560000F000155601CC4B2AC42F7DB09E008F162
:10357000010000F0FF08B8F1050F02DD4FF0000870
:1035800005E001A9054803F0BFFB0428EFD000BF08
:1035900006B0BDE8F0810000000002400064004079
:1035A0003C00002010B58AB004460121022004F03E
:1035B00027FC0121880604F056FC09220C21FA4858
:1035C00004F063FA09220D21F74804F05EFA4FF483
:1035D0004050019002208DF8080000208DF80A006C
:1035E00003208DF8090001A9EF4804F0C3F9402039
:1035F0008DF8000001208DF8010002208DF80200F6
:1036000001208DF80300684603F081F941208DF810
:10361000000001208DF8010002208DF80200012039
:103620008DF80300684603F072F93F208DF8000022
:1036300001208DF801008DF802008DF80300684626
:1036400003F065F9D94803F0CDF907A803F0EEFAC5
:1036500000208DF822008DF823008DF824008DF8CD
:1036600025008DF8260001208DF8270000208DF818
:103670001E008DF81F0008208DF8200003208DF813
:1036800021000C20ADF81C0007A9C84803F0C3F9BD
:103690000E208DF8160000208DF8170001208DF8FF
:1036A00018004FF6FF7000EA4410ADF80C0000203F
:1036B000ADF80E00ADF81000ADF81200ADF8140032
:1036C00001208DF8190003A803F02FFA0F208DF8C0
:1036D000160000208DF8170001208DF81800601CDE
:1036E0004FF6FF7101EA4010ADF80C000020ADF874
:1036F0000E00ADF81000ADF81200ADF81400012076
:103700008DF8190003A803F010FA10208DF81600A8
:1037100000208DF8170001208DF81800A01C4FF62E
:10372000FF7101EA4010ADF80C000020ADF80E006A
:10373000ADF81000ADF81200ADF8140001208DF8BE
:10374000190003A803F0F1F911208DF816000020EC
:103750008DF8170001208DF81800C020ADF80C007E
:103760000020ADF80E00ADF81000ADF81200ADF875
:10377000140001208DF8190003A803F0D6F91220D7
:103780008DF8160000208DF8170001208DF8180024
:10379000E020ADF80C000020ADF80E00ADF81000F0
:1037A000ADF81200ADF8140001208DF8190003A83F
:1037B00003F0BBF913208DF8160000208DF81700D8
:1037C00001208DF8180044F22000ADF80C00002014
:1037D000ADF80E00ADF81000ADF81200ADF8140011
:1037E00001208DF8190003A803F09FF9012202219E
:1037F0006E4803F099FC012210216C4803F094FC00
:1038000001221146694803F08FFC0AB010BD10B5C3
:103810000121664803F0F0FC30B10121634803F058
:1038200086FD01206249087010BD10B586B00221E6
:103830005E4803F0E1FC002879D002215B4803F0E8
:1038400076FD01AA0021594803F053FB594C029818
:10385000A04237D19DF810009DF80F1040EA0120DA
:1038600000EE100AB8EEC00AF2EE040A80EE201A4A
:10387000514880ED001A9DF814109DF8130041EA9C
:10388000002000EE100AB8EEC00AF2EE040A80EE44
:10389000201A9FED4A0A31EE400A474880ED010A9E
:1038A0009DF816109DF8150041EA002000EE100A60
:1038B000B8EEC00AF2EE040A80EE201A3E4880ED0F
:1038C000021A24E0019806280FD19DF810003C4907
:1038D00008709DF8110048709DF811109DF81000B7
:1038E00041EA00203649488011E0019807280ED1AE
:1038F0009DF81000334908709DF8110048709DF83C
:1039000011109DF8100041EA00202E49488040F235
:103910000121019888422CD19DF80F002A49887016
:1039200008468078012803D10220887007E038E03B
:1039300025488078022802D10120234988709DF80B
:1039400010002149C8709DF81100087008460078E1
:10395000012802D10220087006E01B4800780228E6
:1039600002D10120184908709DF8120016494870CC
:1039700016E040F201510198884211D19DF80F00E4
:10398000114908719DF81000012802D102204871E8
:1039900006E09DF81000022802D101200A49487172
:1039A00000BF06B010BD00000004024000680040E7
:1039B0003D00002001409018D80D002000803B45BC
:1039C000A00000209C0000203E00002000B585B033
:1039D0001021414803F010FCE8B110213E4803F0EB
:1039E000A6FC6A4601213C4803F083FA00980628A9
:1039F00007D19DF80C00394908709DF80D004870FA
:103A000009E00098072806D19DF80C003449087099
:103A10009DF80D00487005B000BD2DE9F04186B05D
:103A200006460F4615460024A04600208DF80C00DF
:103A30008DF80D008DF80E50019600BF05E0395D40
:103A40000DF10F000155601CC4B2AC42F7DB09E078
:103A500008F1010000F0FF08B8F1050F02DD4FF09A
:103A6000000805E001A91C4803F04EF90428EFD036
:103A700000BF06B0BDE8F0812DE9F04186B00646F2
:103A80000F4615460024A04604208DF80C000020A7
:103A90008DF80D008DF80E50029600BF05E0395DDF
:103AA0000DF10F000155601CC4B2AC42F7DB09E018
:103AB00008F1010000F0FF08B8F1050F02DD4FF03A
:103AC000000805E001A9044803F01EF90428EFD01E
:103AD00000BF06B0BDE8F08100680040A0000020F3
:103AE0009C0000201CB50121022004F089F901216D
:103AF000042004F0B8F9684603F084FFC020009069
:103B000002208DF8040003208DF8050001208DF8B7
:103B100007006946FE4803F02DFF02220621FC48FB
:103B200003F0B3FF02220721F94803F0AEFF0023A0
:103B30001A460321F74805F0C2F847F6FF70F54929
:103B4000243108600121F34804F0CEFB1CBDF1498B
:103B5000243102680968A1F5FE41FF391144016072
:103B600047F6FF71EB4A24321160704710B5EA48FE
:103B70000068401CE8490860082003F084FE10BD7E
:103B800000B585B00121880304F07EF901210220EF
:103B900004F036F90820009000208DF8040003207E
:103BA0008DF8050001208DF807006946D84803F01C
:103BB000E1FE0321012005F0CFFA08200290002049
:103BC0008DF80C000C208DF80D0001208DF80E00F2
:103BD00002A803F0E1FD09208DF8100003208DF804
:103BE000110002208DF8120001208DF8130004A8A6
:103BF00002F08DFE05B000BD7FB505460C460121E3
:103C0000082004F030F9C54804F038FA0295ADF800
:103C100004400020ADF80C00ADF806008DF80E0051
:103C200001A9BE4804F0D7FA0121BC4804F03EFBCC
:103C30000121BA4804F084FF01221146B74804F07C
:103C40006BFF0121B54804F04FFB32208DF80000D6
:103C500000208DF8010001208DF802008DF803008E
:103C6000684602F054FE7FBD10B50121AB4804F058
:103C70006AFF00286FD0AA480078401CA849087045
:103C800008460078192804DD002008700120A549A5
:103C90000870A5480078401CA349087008460078C1
:103CA000102801DD012008709F48007811281AD2E1
:103CB000DFE800F090091A2B3C434B52565C6270CF
:103CC000767C80868C009948B0F90010012001F0C4
:103CD00077FC9748B0F900209648B0F9001040F200
:103CE000031001F015FD75E09348B0F900100220B3
:103CF00001F066FC9148B0F900209148B0F900103D
:103D00004FF4817001F0EBFC64E08E48B0F90010D4
:103D1000032001F055FC8C48B0F900208B48B0F925
:103D2000001040F2011001F0C1FC53E08848B0F9E6
:103D30000010042001F044FC4CE086480168052096
:103D400001F0F0FB01F056FD44E0834801880520B6
:103D500001F002FC3EE042E0052001F017FC39E0F2
:103D60007E480168062001F0DDFB33E07A480188D7
:103D7000062001F0F1FB2DE0062001F007FC72485F
:103D8000B0F900207148B0F9001040F2011001F0C4
:103D90008DFC1FE072480168072001F0C3FB19E0A9
:103DA0006D480188072001F0D7FB13E0072001F0E0
:103DB000EDFB0FE06B480168082001F0B3FB09E060
:103DC00065480188082001F0C7FB03E0082001F0E6
:103DD000DDFB00BF00BF0121504804F0C5FE10BD4F
:103DE00000B589B00121022004F03DF80121084608
:103DF00004F039F80020ADF81800ADF81A004FF6BD
:103E0000FF7007900020ADF820008DF8220006A971
:103E1000554804F0E0F906A94FF0804004F0DBF9C2
:103E20000020ADF80400ADF81000ADF806000390D6
:103E300001A94FF0804004F063FA01A94FF08040DF
:103E400004F097FA01A9484804F05AFA01A9464833
:103E500004F08FFA01A9444804F0D8FA01A94248B5
:103E600004F03AFB00214FF0804004F0D6FB002123
:103E70004FF0804004F0DAFB00213B4804F0CDFB1A
:103E80000021394804F0D2FB0021374804F0DBFB65
:103E90000021354804F0E0FB0121880704F006FA10
:103EA0000121314804F002FA0221480704F05CFEC7
:103EB00001220221480704F02FFE0421080704F024
:103EC00053FE01220421080704F026FE02212648A1
:103ED00004F04AFE01220221234804F01DFE0421C1
:103EE000214804F041FE012204211F4804F014FE81
:103EF00008211D4804F038FE012208211A4804F068
:103F00000BFE1021184804F02FFE012210212DE095
:103F1000000402400008004044000020000C004063
:103F200049000020480000204C00002078000020BC
:103F30009A000020980000207A00002096000020BF
:103F4000940000207C0000209200002090000020BF
:103F50007E000020800000204A0000208400002015
:103F6000880000208C000020000400406B4804F012
:103F7000D3FD1D208DF8000001208DF801000320E5
:103F80008DF8020001208DF80300684602F0BFFCA6
:103F90001C208DF80000684602F0B9FC00214FF0AB
:103FA000804004F004FE07214FF0804004F075FECD
:103FB0008021C80504F07AFE3021584804F0F7FD4E
:103FC0000721564804F069FE8021544804F06EFE33
:103FD0000121880704F088F90121504804F084F990
:103FE00009B000BD00B589B00121084603F04CFFBF
:103FF0000121042003F037FF494804F03FF8494805
:1040000004F03CF85320ADF818000020ADF81A0079
:1040100040F23F6007900020ADF820008DF82200AC
:1040200006A9404804F0D7F85320ADF81800002046
:10403000ADF81A0040F67F4007900020ADF8200050
:104040008DF8220006A9364804F0C5F801A804F04E
:104050007BFA6020ADF804000120ADF806000020D6
:10406000ADF81000039001A92D4804F049F901A909
:104070002B4804F07EF901A92A4804F041F901A96E
:10408000284804F076F901A9264804F0BFF901A9EF
:10409000244804F021FA0821214804F0BEFA08213E
:1040A0001F4804F0C3FA08211E4804F0B6FA08219C
:1040B0001C4804F0BBFA08211A4804F0C4FA08218D
:1040C000184804F0C9FA0121154804F0EFF801215D
:1040D000144804F0EBF80121114804F005F901211E
:1040E000104804F001F920210E4804F0CDFD802194
:1040F0000C4804F0DBFD2021094804F0C5FD8021B7
:10410000074804F0D3FD0121054804F0DEFC01213D
:10411000044804F0DAFC09B000BD000000040040CF
:10412000000001400008004000B587B001217F4831
:1041300003F066FE0121480403F095FE07220321E7
:104140007B4803F0A2FC0820059002208DF818009F
:1041500000208DF81A0003208DF8190000208DF83A
:104160001B0005A9724803F005FC724804F0D8FD55
:10417000714801900020ADF808004FF40050ADF8F0
:104180000A00C010ADF80C000420ADF80E000020AD
:10419000ADF8100001A9674804F010FE012240F2BA
:1041A0002551644804F048FF0121624804F08EFE66
:1041B00026208DF8000000208DF8010001208DF8E8
:1041C00002008DF80300684602F0A1FB07B000BDB5
:1041D0005A480078401C59490870084600786428FD
:1041E00004DD64200870002055490870704710B540
:1041F00040F225514F4804F05AFF00287ED04D4828
:1042000004F093FE4F4908704F48007838B90846CB
:1042100000780F282AD1FF204B49087026E0494832
:1042200000784A494A4A1278885449480078172841
:1042300011D10846C07D022802D00846C07D18B9B9
:10424000FF204449087006E000203F4908704149BA
:1042500008703F4908703E480078401C3C4908708F
:1042600008460078182801DD0020087039480078D9
:1042700000285AD0354800783449497840EA01206E
:10428000C0F30A00344908803048807840012F4943
:10429000497840EAE100C0F30A00304908802B4821
:1042A000807880112949C97840EA81002749097935
:1042B00040EA8120C0F30A00294908802348007998
:1042C00040102249497940EAC110C0F30A0025494B
:1042D00008801E48407A00F00F00234908801B48E0
:1042E000807900F00F00401C204908801748807A30
:1042F0001F49088000201449087000E015E01549A6
:104300000870134908701148807D0C2803D10020E3
:104310000B49087005E00020084908700120084991
:1043200008700421134803F0ACFB10BD010020000D
:104330000000024000440040A08601005700002019
:104340005600002062000020640000203802002097
:1043500063000020650000204E0000205000002077
:104360005200002054000020580000205C00002073
:104370005A0000200010024010B50246002006E05E
:10438000137843400C4CE05C521C4B1ED9B2002900
:10439000F6DC10BD30B50346002006E01C78444032
:1043A000054D285D5B1C4C1EE1B20029F6DC80EA5D
:1043B0000204014D285D30BDA8DB00081CB50121B9
:1043C000102003F01DFD0420009001208DF8040052
:1043D00000208DF8060003208DF8050001208DF8DF
:1043E000070069461C4803F0C5FA1CBD1CB5012135
:1043F000082003F005FDC020009001208DF8040086
:1044000000208DF8060003208DF8050001208DF8AE
:1044100007006946114803F0ADFA40210F4803F048
:1044200025FB80210D4803F021FB1CBD1CB501219B
:10443000102003F0E5FC4FF4A050009000208DF810
:10444000040003208DF8050001208DF8070069465F
:10445000014803F08FFA1CBD00100240000C02401E
:1044600000BF704700BFFE4A128802F04002002AD7
:10447000F9D0C2B2FA4B9A80704710B596B0044694
:104480000121880403F0EFFC0121022003F0B8FCB5
:104490000121480503F0B4FC07220A21F14803F08A
:1044A000F4FA07220B21EF4803F0EFFA14A803F007
:1044B000A9FA4FF48060149002208DF85400032074
:1044C0008DF8550014A9E74803F054FA4FF4006042
:1044D000149002208DF8540003208DF8550014A983
:1044E000E04803F047FAE04804F01AFC10A804F092
:1044F000CBFC10940020ADF84400ADF84600ADF8B8
:104500004800ADF84C000C20ADF84A0010A9D64880
:1045100004F054FC0121D44804F0D8FC0C208DF8A0
:104520003C0002208DF83D008DF83E0001208DF802
:104530003F000FA802F0EBF9CC4802F04BFF4FF020
:1045400000600090C848001D0190C94802900020FA
:1045500003904FF480700490002005904FF4806029
:1045600006900020079008904FF4807009904FF457
:1045700040300A9000200B900C900D900E906946F0
:10458000BA4802F0C9FF01221021B84803F08BF8A5
:1045900001224021B44804F046FD0121B34802F055
:1045A000F5FF0E208DF83C0001208DF83D00022023
:1045B0008DF83E0001208DF83F000FA802F0A7F90A
:1045C000AA48303002F006FF4FF000600090A64885
:1045D000001D0190A7480290402003908020049085
:1045E000002005904FF4806006900020079008900E
:1045F00009904FF480300A9000200B900C900D90A1
:104600000E9069469948303002F086FF01228021E1
:10461000954804F008FD012210219448303003F041
:1046200042F800219148303002F0B0FF16B010BDC2
:1046300002465068081A80B2704770B5002500BF66
:1046400040F22551884804F032FD40B1864804F01C
:104650006CFCC5B240F22551834804F05FFD40F286
:104660002441814804F023FD00B34FF480717F485A
:10467000FFF7DEFF8049088000217C4802F086FFBA
:1046800000BF7A4802F0CFFF0028FAD17A480188AB
:10469000764802F09CFF0121744802F077FF7248CF
:1046A0000088C4B27048001D0088C4B270BD70B5E7
:1046B00004460D4671480078F0B900216B4830304F
:1046C00002F064FF00BF6948303002F0ACFF002800
:1046D000F9D1002221466548303002F095FFA9B299
:1046E0006248303002F073FF01216048303002F040
:1046F0004DFF01206149087070BD70B505460E463A
:10470000002400BF04E0285D5A490855601CC4B26B
:10471000B442F8DB31465748FFF7C9FF70BD10B50A
:104720005749524802F0DCFF30B1514801F06DFBAF
:1047300053494E4802F0FEFF10BD0FB438B505A82E
:1047400000904C48009A049904F0DEFE002000908E
:10475000484804F0FDFE044621464648FFF7A7FFFF
:1047600038BC5DF814FB10B546494048303002F0C3
:10477000B7FF38B100204149087042493B4830300A
:1047800002F0D8FF10BD10B596B004460121C80450
:1047900003F069FB0121042003F032FB01214805ED
:1047A00003F02EFB08220A21374803F06EF9082295
:1047B0000B21354803F069F914A803F023F94FF4ED
:1047C0008060149002208DF8540003208DF855006D
:1047D00014A92D4803F0CEF84FF400601490022085
:1047E0008DF8540003208DF8550014A9264803F0D5
:1047F000C1F810A804F048FB10940020ADF8440064
:10480000ADF84600ADF84800ADF84C000C20ADF80E
:104810004A0010A91D4804F0D1FA0D208DF83C0083
:1048200002208DF83D008DF83E0001208DF83F00FC
:104830000FA802F06CF80D48183002F0CBFD4FF0D5
:10484000006000901148001D019011480290002066
:10485000039080200490002005904FF4806019E0C0
:10486000001001400004024000480040286002405F
:10487000D8020020580200206E0000206C000020AA
:10488000008800100080001800080240004C004022
:104890005804002006900020079008904FF4807084
:1048A000099040020A9000200B900C900D900E9001
:1048B0006946FE4802F030FE01224021FC4804F027
:1048C000B2FB0121F94802F061FE002240F22551BD
:1048D000F74804F0B1FB002240F22661F44804F0EE
:1048E000ABFB012240F22441F14804F0A5FB342047
:1048F0008DF83C0002208DF83D0003208DF83E002D
:1049000001208DF83F000FA802F001F80121E848CE
:1049100004F0DCFAE548303002F05CFD4FF0006056
:104920000090E348001D0190E2480290402003906F
:1049300080200490002005904FF4806006900020B5
:104940000790089009904FF480300A9000200B9057
:104950000C900D900E906946D448303002F0DCFD8A
:1049600001228021D24804F05EFB01221021CF48B1
:10497000303002F098FE0021CC48303002F006FEC4
:104980000F208DF83C0002208DF83D008DF83E0090
:1049900001208DF83F000FA801F0B9FF16B010BD3F
:1049A00002465068081A80B2704770B5002400258E
:1049B00040F22551BE4804F07AFB40B1BC4804F0F7
:1049C000B4FAC4B240F22551B94804F0A7FB40F252
:1049D0002441B74804F06BFB08B3B748FBF7A5FFC9
:1049E0008021B248FFF7DCFFB44908700021AF48CE
:1049F00002F0CCFD00BFAD4802F015FE0028FAD150
:104A00008021AA4802F0E3FD0121A84802F0BEFD82
:104A1000A7480088C5B2A648001D0088C5B270BD71
:104A200070B504460D46A6480078F0B900219F48AD
:104A3000303002F0ABFD00BF9C48303002F0F3FD97
:104A40000028F9D1002221469848303002F0DCFDE0
:104A5000A9B29648303002F0BAFD012193483030B7
:104A600002F094FD01209649087070BD70B50546AE
:104A70000E46002400BF04E0285D8E490855601CE6
:104A8000C4B2B442F8DB31468A48FFF7C9FF70BDB3
:104A900010B58C498548303002F022FE60B100200C
:104AA0008749087088498148303002F0E8FD86491E
:104AB0007E48303002F03EFE10BD10B583497B4881
:104AC00002F00EFE48B14FF08151784802F0D7FD58
:104AD0004FF08151754802F02DFE10BD10B596B013
:104AE00004460121042003F08BF90121082003F082
:104AF00087F90121080503F0B6F90121480503F003
:104B00007FF908220221724802F0BFFF08220C211F
:104B1000704802F0BAFF0420149002208DF854006F
:104B200003208DF8550000208DF8560001208DF8E7
:104B3000570014A9664802F01DFF4FF480501490EE
:104B400014A9644802F016FF10940020ADF8440048
:104B5000ADF84600ADF84800ADF84C000C20ADF8BB
:104B60004A0010A95C4804F029F90B208DF83C009C
:104B700002208DF83D008DF83E0001208DF83F00A9
:104B80000FA801F0C4FE4948303802F023FC4FF072
:104B9000006000905048001D019050480290002095
:104BA000039080200490002005904FF480600690D0
:104BB0000020079008904FF48070099040020A90FE
:104BC00000200B900C900D900E90694637483038BD
:104BD00002F0A2FC012240213F4804F024FA012106
:104BE0003248303802F0D2FC002240F225513A48D7
:104BF00004F022FA002240F22661374804F01CFA41
:104C0000012240F22441344804F016FA35208DF890
:104C10003C0000208DF83D0001208DF83E008DF80D
:104C20003F000FA801F073FE01212B4804F04EF95C
:104C30002F208DF83C0002208DF83D008DF83E00BD
:104C400001208DF83F000FA801F061FE1748783071
:104C500002F0C0FB4FF0006000901F48001D019063
:104C60001F4802904020039080200490002005906F
:104C70004FF48060069000200790089009904FF450
:104C800080300A9000200B900C900D900E90694699
:104C90000648783002F040FC012280210E4804F0E2
:104CA000C2F901221021014878301BE04060024027
:104CB000004C0040D8030020D802002070000020E3
:104CC00071000020208000202000002000802010A3
:104CD000000C02400008024000500040D8040020B0
:104CE0005805002002F0DFFC0021FD4802F04EFCD8
:104CF00016B010BD02465068081A80B2704770B5F1
:104D00000024002540F22551F64804F0D0F918B1EE
:104D1000F44804F00AF9C4B240F22441F14804F026
:104D2000C6F910B38021EE48A838FFF7E3FFEE493B
:104D300008700021EA48A83802F028FC00BFE848C3
:104D4000A83802F070FC0028F9D18021E448A83886
:104D500002F03DFC0121E248A83802F017FCE148CE
:104D60000088C5B2DF488088C5B270BD10B5DF4984
:104D7000DB4802F0B5FC60B10020DD4908704FF05F
:104D80002051D74802F07BFC4FF02051D44802F06C
:104D9000D1FC10BD70B504460D46D5480078C8B9A1
:104DA0000021CF4802F0F2FB00BFCD4802F03BFCEF
:104DB0000028FAD100222146C94802F025FCA9B2F8
:104DC000C74802F004FC0121C54802F0DFFB0120C6
:104DD000C749087070BD70B505460E46002400BF77
:104DE00004E0285DC3490855601CC4B2B442F8DB36
:104DF0003146C048FFF7CEFF70BD10B596B00446EF
:104E00000121202003F040F80121042002F0F8FFE6
:104E10000121880502F0F4FF08220621B64802F0BD
:104E200034FE08220721B44802F02FFE14A802F035
:104E3000E9FD4020149002208DF8540003208DF8E5
:104E4000550014A9AC4802F095FD80201490022072
:104E50008DF8540003208DF8550014A9A64802F0DF
:104E600089FDA64803F05CFF10A804F00DF810942B
:104E70000020ADF84400ADF84600ADF84800ADF8AC
:104E80004C000C20ADF84A0010A99C4803F096FF96
:104E900039208DF83C0002208DF83D008DF83E0051
:104EA00001208DF83F000FA801F031FD944802F079
:104EB00091FA4FF0206000909048001D01909148B9
:104EC0000290002003904FF4806004900020059031
:104ED0004FF4806006900020079008904FF4807097
:104EE000099040020A9000200B900C900D900E90BB
:104EF0006946834802F010FB012240217F4804F0FC
:104F000092F801217E4802F041FB002240F2255137
:104F10007A4804F091F8002240F22661774804F0C4
:104F20008BF8012240F22441744804F085F84720B0
:104F30008DF83C0001208DF83D008DF83E008DF885
:104F40003F000FA801F0E3FC01216C4803F0BEFF15
:104F500045208DF83C0002208DF83D008DF83E0084
:104F600001208DF83F000FA801F0D1FC6448783093
:104F700002F030FA4FF0206000906048001D019070
:104F800061480290402003900001049000200590A9
:104F90004FF48060069000200790089009904FF42D
:104FA00080300A9000200B900C900D900E90694676
:104FB0005348783002F0B0FA012280214F4804F0C3
:104FC00032F8012210214E48783002F06CFB0021AB
:104FD0004B48783002F0DAFA16B010BD012080F3A9
:104FE000138800BF00BF00BF00BF00BF00BFBFF3FA
:104FF0004F8F00BF00BF00BF4448006800F4E0606E
:1050000043490843001D4149086000BF00BF00BF7D
:10501000BFF34F8F00BF00BF00BF00BF00BFFDE761
:1050200002465068081A80B2704770B50024002507
:1050300040F22441314804F03AF800B34FF4806163
:105040002F48FFF7EDFF3349088000212C4802F07C
:105050009DFA00BF2A4802F0E6FA0028FAD14FF480
:105060008061274802F0B3FA0121254802F08EFA48
:1050700022480088C5B22148001D0088C5B240F210
:1050800025511E4804F013F820B140F225511B4869
:1050900004F044F870BD10B51F49194802F020FB18
:1050A00038B11E49164802F0EAFA1B49144802F0CA
:1050B00041FB10BD10B51A491148783002F010FBC1
:1050C00060B100201749087015490D48783002F08A
:1050D000D6FA13490A48783002F02CFB10BD0000C4
:1050E000B86002400050004073000020008000289B
:1050F0007200002058050020000802400014014002
:1051000028640240D8090020D80500200CED00E0FA
:105110000000FA057400002000880010000800104C
:10512000008020207600002070B504460D462F48F0
:105130000078C8B900212E4802F028FA00BF2C4898
:1051400002F071FA0028FAD100222146284802F024
:105150005BFAA9B2264802F03AFA0121244802F08B
:1051600015FA01202149087070BD70B505460E463C
:1051700000244FF480711F4802F078FC00BF04E067
:10518000285D1D490855601CC4B2B442F8DB3146A5
:105190001948FFF7C9FF4FF48071164802F068FC08
:1051A00070BD1CB54FF4E130FFF727FE684602F0F2
:1051B00029FC0121042002F023FE4FF480700090AE
:1051C00001208DF8040000208DF8060002208DF8E3
:1051D000070003208DF805006946064802F0CAFB67
:1051E0004FF48071034802F043FC1CBD76000020A0
:1051F000A064024000080240D80500207CB50546A6
:105200000C46FCA103C9CDE90001200A8DF8050078
:10521000E0B28DF80400082269462846FEF766F9D8
:105220007CBD7CB505460C46F4A103C9CDE900015F
:10523000E0B28DF80400200A8DF80500200C8DF8EE
:105240000600200E8DF80700082269462846FEF762
:105250004DF97CBD7CB505460C46EAA103C9CDE9F4
:1052600000018DF80440052269462846FEF73EF904
:105270007CBD38B50446E5A000680090022269466E
:105280002046FEF733F938BD10B586B00446E0A1DC
:1052900003C9CDE90401082204A904F5C060FEF7A2
:1052A00025F90A20FEF71AF8DBA103C9CDE90201AE
:1052B000082202A904F5C060FEF718F90A20FEF7DB
:1052C0000DF8D7A103C9CDE900010822694604F50C
:1052D000C060FEF70BF90A20FEF700F806B010BD1B
:1052E0001CB50446D0A103C9CDE9000108226946D6
:1052F00004F5C060FEF7FAF81CBD1CB50446CCA14D
:1053000003C9CDE900010822694604F5C060FEF733
:10531000EDF81CBD1FB50446BDA003C8CDE90201D0
:10532000082202A904F5C060FEF7E0F80A20FDF7A4
:10533000D5FFB9A103C9CDE900010822694604F5EA
:10534000C060FEF7D3F80A20FDF7C8FF1FBD1CB5EB
:105350000446B9A103C9CDE900010822694604F554
:10536000C060FEF7C3F81CBD10B54FF4FA70FDF72E
:10537000B5FF0520FFF7EBFF0A20FDF7AFFF052083
:10538000FFF7AEFF0A20FDF7A9FF0520FFF7C2FFD8
:105390000A20FDF7A3FF0620FFF7D9FF0A20FDF73B
:1053A0009DFF0620FFF79CFF0A20FDF797FF0620D0
:1053B000FFF7B0FF0A20FDF791FF0720FFF7C7FFB7
:1053C0000A20FDF78BFF0720FFF78AFF0A20FDF771
:1053D00085FF0720FFF79EFF0A20FDF77FFF0820CB
:1053E000FFF7B5FF0A20FDF779FF0820FFF778FFE8
:1053F0000A20FDF773FF0820FFF78CFF0A20FDF756
:105400006DFF0120FFF779FF0A20FDF767FF0120FC
:10541000FFF766FF0A20FDF761FF0120FFF734FF69
:105420000A20FDF75BFF0220FFF767FF0A20FDF768
:1054300055FF0220FFF754FF0A20FDF74FFF02201F
:10544000FFF722FF0A20FDF749FF0320FFF755FF72
:105450000A20FDF743FF0320FFF742FF0A20FDF774
:105460003DFF0320FFF710FF0A20FDF737FF042060
:10547000FFF743FF0A20FDF731FF0420FFF730FF5D
:105480000A20FDF72BFF0420FFF7FEFE0A20FDF7A0
:1054900025FF10BD2DE9F04104460F4615461E4676
:1054A00021460120FFF7AAFE0A20FDF717FF394623
:1054B0000220FFF7A3FE0A20FDF710FF2946032074
:1054C000FFF79CFE0A20FDF709FF31460420FFF795
:1054D00095FE0A20FDF702FFBDE8F0812DE9F041BD
:1054E00004460F4615461E4621460520FFF799FE45
:1054F0000A20FDF7F3FE39460620FFF792FE0A2048
:10550000FDF7ECFE29460720FFF78BFE0A20FDF78A
:10551000E5FE31460820FFF784FE0A20FDF7DEFE97
:10552000BDE8F0817CB505460C4645A103C9CDE92F
:105530000001E0B28DF80400200A8DF80500200C6F
:105540008DF80600200E8DF807000822694605F543
:10555000C060FDF7CBFF7CBD7CB505460C463AA18B
:1055600003C9CDE90001E0B28DF80400200A8DF8EE
:105570000500200C8DF80600200E8DF8070008228B
:10558000694605F5C060FDF7B1FF7CBD1CB504465A
:105590002FA103C9CDE900010822694604F5C060C6
:1055A000FDF7A4FF1CBD1CB504462BA103C9CDE922
:1055B00000010822694604F5C060FDF797FF1CBD95
:1055C0007CB505460C4626A103C9CDE90001E0B231
:1055D0008DF80400200A8DF80500200C8DF80600D7
:1055E000200E8DF807000822694605F5C060FDF71A
:1055F0007DFF7CBDFF06020100000000FF061602D1
:1056000000000000FF06000100000000FF10000085
:105610002B406001060000002B40600107000000E5
:105620002B4060010F0000002B4060018000000053
:105630002F606001030000002F6060010100000086
:10564000237A600100000000238160010000000057
:105650002B4060013F00000040416001000000005D
:1056600023FF60010000000000200849088008496D
:1056700008800849088008490880084908600849E6
:1056800008600849086008490860704778000020F1
:105690007A0000207C0000207E0000208000002096
:1056A00084000020880000208C0000207CB5064685
:1056B0000C461546002000900190200A8DF800004D
:1056C000E0B28DF80100280A8DF80200E8B28DF8EA
:1056D0000300082269463046FEF79FF97CBD7CB581
:1056E00006460C461546002000900190200A8DF8D1
:1056F0000000E0B28DF80100280A8DF80200E8B23F
:105700008DF80300082269463046FEF786F97CBD15
:105710007CB506460C461546002000900190200AF4
:105720008DF80000E0B28DF80100280A8DF8020023
:10573000E8B28DF80300082269463046FEF76DF99D
:105740007CBD00202549088025490880254908801E
:105750002549088025490880254908807047C820C8
:105760002249088040422249088070476FF0C700F4
:105770001E490880C8201E490880704700201B4928
:1057800008801B49088070476FF0C70015490880E2
:10579000C820154908807047C82012490880404237
:1057A00011490880704700200E4908800E49088082
:1057B00070474FF4C870094908800949088070474C
:1057C0004FF6706005490880054908807047002041
:1057D00002490880024908807047000090000020BC
:1057E00092000020940000209600002098000020E5
:1057F0009A0000201CB5002000900190034C082264
:1058000069462046FEF738F91CBD0000400190189B
:105810002DE9F04F87B081460D460024142102A8DF
:1058200003F0B5FE00260027A046A246A3460020AE
:105830000190012411E009F4004028B1012002A9DF
:10584000085526B9264602E0002002A908554FF661
:10585000FF7000EA4909601CC4B2112CEBDB34462E
:1058600018E002A8005D30B9BBF1000F10D1274647
:105870004FF0010B0CE0102C0AD14FB9BBF1000F17
:1058800006D110274FF0010B4FF000084FF0000A2F
:10589000601CC4B2112CE4DB781CC4B212E002A874
:1058A000005D20B1B8F1000F0AD1A04608E0102C2D
:1058B00006D1B8F1000F03D14FF000084FF0000AF5
:1058C000601CC4B2112CEADB08F10100C4B20FE085
:1058D00002A8005D20B9BAF1000F07D1A24609E085
:1058E000102C03D1BAF1000F00D1A246601CC4B243
:1058F000112CEDDB00BFB81B00EBD07106EB610192
:105900006970B81B401C6871B8F1000F07D0BAF17C
:10591000000F04D0082068700120A87101E0002069
:10592000A871E878287168790C2801DA687920B9BB
:10593000082068700120E87001E00020E8706878B5
:105940002978401A40B2A87007B0BDE8F08F000077
:105950000246134610E010782A2805D01078202837
:1059600002DB10787A2801DDFF20704710782C28A0
:1059700001D1481EC1B2521C0029ECD1D01AC0B2CC
:10598000F3E710B50246012000E050430B1EA1F1E1
:105990000104E1B2F9D110BD2DE9F34F81B0074602
:1059A0003C4600200090834681460026804628E041
:1059B00020782D2802D148F00208641C20782C2879
:1059C00002D020782A2800D11CE020782E2803D18C
:1059D00048F00108641C09E02078392802DC2078AE
:1059E000302803DA4FF0000900260BE008F0010030
:1059F00010B1701CC6B203E009F1010000F0FF090C
:105A0000641CD5E700BF08F0020000B17F1C002530
:105A10000EE0A9F10100401BC1B20A20FFF7B1FF5F
:105A2000795D3039009A00FB01200090681CC5B2F6
:105A30004D45EEDB052E00DD05260298067000259B
:105A40000EE0701E401BC1B20A20FFF79AFF09F159
:105A500001012944795C303900FB01BB681CC5B2E7
:105A6000B542EEDB31460A20FFF78BFF009901FBC0
:105A700000BA08F0020008B1CAF1000A5046BDE8B9
:105A8000FE8F2DE9F84304468846FEA1404603F008
:105A90004DFD074601213846FFF75AFF0646FF2E07
:105AA00023D0B8196946FFF777FF81469DF80010AB
:105AB0000A20FFF766FFB9FBF0F542F21070B5FB64
:105AC000F0F0C1B2BB2001556420B5FBF0F06421B9
:105AD000B0FBF1F201FB1201BC2001556420B5FBC3
