:020000040800F2
:10000000E0190020D5AF0008790700087B07000839
:1000100085070008890700088D0700080000000018
:10002000000000000000000000000000E7AF000832
:100030009107000800000000EBAF0008EDAF0008DA
:10004000EFAF0008EFAF0008EFAF0008EFAF000818
:10005000EFAF0008EFAF0008EFAF0008EFAF000808
:10006000EFAF0008214A0008EFAF0008EFAF00082B
:10007000E955000885590008315600085B59000809
:10008000EFAF0008EFAF0008EFAF0008DF42000855
:10009000FB42000885430008EFAF0008EFAF0008FF
:1000A000EFAF0008EFAF0008EFAF0008EFAF0008B8
:1000B000EFAF0008EFAF0008EFAF0008EFAF0008A8
:1000C000EFAF0008EFAF0008EFAF0008EFAF000898
:1000D000EFAF0008CF3C0008A7500008FF5400080D
:1000E000EFAF0008EFAF0008EFAF0008EFAF000878
:1000F000EFAF0008EFAF0008EFAF0008615C000849
:10010000EFAF0008EFAF00081D4B0008EFAF00088D
:1001100075580008F35B0008EFAF0008EFAF000868
:10012000EFAF00080D600008EF3D0008EFAF0008DA
:10013000EFAF0008EFAF0008EFAF0008C3460008BC
:10014000DF46000881480008EFAF0008EFAF000865
:10015000EFAF00082B600008053E0008615F000853
:10016000EFAF0008EFAF0008EFAF0008EFAF0008F7
:10017000EFAF0008EFAF0008EFAF0008EFAF0008E7
:10018000EFAF0008EFAF000800F002F800F0B2F89F
:100190000AA090E8000C82448344AAF10107DA45E2
:1001A00001D100F0A7F8AFF2090EBAE80F0013F082
:1001B000010F18BFFB1A43F0010318475407010051
:1001C000740701000A444FF0000C10F8013B13F0D3
:1001D000070408BF10F8014B1D1108BF10F8015BA0
:1001E000641E05D010F8016B641E01F8016BF9D193
:1001F00013F0080F1EBF10F8014BAD1C0C1B09D1EA
:100200006D1E58BF01F801CBFAD505E014F8016B5B
:1002100001F8016B6D1EF9D59142D6D370470000ED
:100220000023002400250026103A28BF78C1FBD8FF
:10023000520728BF30C148BF0B6070476E290BF0D2
:10024000798070290BF0BB8166290FF0D38765296F
:100250000FF0D08767290FF0CD8761290FF0CC8789
:1002600003681B0A28BF41F0800169290BF0268032
:1002700064290BF0238075290BF020806F290BF087
:10028000488178290BF08781E9290BF0E380E42984
:100290000BF0E080F5290BF0DD80EF290BF04581B4
:1002A000F8290BF086810368DB0928BF41F0800143
:1002B00063290BF08D8673290BF09286E3290BF0EE
:1002C0009D86F3290BF0A286002070471FB50FF022
:1002D0004AFF0BF0F1FE0400002000210FF036F879
:1002E000401C6060002000210FF01AF8E0601FBD84
:1002F00010B510BD0BF0B2FE1146FFF7E7FF00F09E
:100300006AF80BF08FFF03B4FFF7F2FF03BC05F0B0
:1003100009F8000010B54FF4A06008F0F1F8A8202B
:1003200003F092FD04F0ACFF04F0C2FF04F0E0FF24
:100330004FF4E13003F0D2FB642003F0E7FD04F05A
:100340004FFE642003F0E2FD4FF4E13004F0F7FFCC
:10035000642003F0DBFD4FF4E13005F079F964200F
:1003600003F0D4FD4FF4E13005F033FB05F0B4FEAB
:100370004FF47A7003F0CAFD4FF4B06003F0F4FD5F
:10038000C82003F0C3FD40F2015004F065F864207A
:1003900003F0BCFD532140F2CF7004F087FBB5A001
:1003A00005F0A5FC10BD10B5B7480078401CB64953
:1003B0000870084600781E280CDDB448007848B95B
:1003C000B3480278B3480178B3A005F090FC002050
:1003D000AD49087010BD0024FFF79CFF05F068FFD1
:1003E000642003F093FD44E1B24800780028FAD07D
:1003F00000F05AFDA748007830B101280FD002283C
:1004000059D003280AD1F1E006F0D2F806F04BF9F2
:10041000642003F07BFDA8A005F069FC1BE1AA485D
:1004200000880D280DD1A948008802B2A84800888C
:1004300001B2A848008800B202F0F3FD06F033F9DB
:1004400019E0A148008801280DD1A348008802B214
:100450009F48008801B29F48008800B203F01AF953
:1004600006F0A6F807E0984800880F2803D106F0A8
:100470009FF806F018F99948008823280BD198486E
:100480000088642803DD03208149087012E0012000
:100490007F4908700EE09148008820280AD19048D2
:1004A0000088642803DD05207949087002E00720F0
:1004B00077490870CFE0764800780B281FD2DFE834
:1004C00000F0061F38203E4D52607C868F00854824
:1004D0000078401C834908700846007814280EDD17
:1004E0000020087006F064F806F0DDF800F0E4FD86
:1004F00002F052FB02F08FFD7BA005F0F8FB73E0E9
:1005000000BF012C09D000F0A3FB012803D000207C
:1005100000F01AFB0CE001240AE00121084601F07A
:10052000B4F80121084600F0C3FB012000F00CFBE9
:100530005AE00021032001F0A8F8002454E06948A3
:100540000078401C6749087008460078142804DDCC
:100550000020087070A005F0CAFB45E000210120D2
:1005600001F093F840E00021042001F08EF800F043
:10057000C1FA75480078032802D174A005F0B7FBD2
:1005800032E0012C09D000F063FB012803D00020E9
:1005900000F0DAFA10E001240EE002F0C4F84FF0A7
:1005A000FF31012000F084FB704800780B2803D154
:1005B000002408203649087016E002F0F3FA6C486F
:1005C00000780B2802D10920314908700CE0012184
:1005D000881E01F05AF84FF0FF3000F0B5FA03E042
:1005E00000202B49087000BF00BF34E0614B93ED41
:1005F000030ABDEEC00A10EE103A1AB25D4B93ED3D
:10060000020ABDEEC00A10EE103A19B2594B93ED32
:10061000010ABDEEC00A10EE103A18B202F001FD58
:10062000544B93ED060ABDEEC00A10EE103A1AB212
:10063000504B93ED050ABDEEC00A10EE103A19B208
:100640004C4B93ED040ABDEEC00A10EE103A18B2FE
:1006500003F020F800BF00BFFFF7A5FE00F010FD7B
:1006600004F012FD00F0B9F900F094F800201149EF
:100670000870B9E673797320696E69742066696ED3
:10068000697368210D0A000000000020720000203C
:1006900011000020100000206D6F64653A25642071
:1006A000206175746F5F73746174653A25640D0A17
:1006B00000000000640000207374616E6462792E93
:1006C0002E2E0D0A0000000078000020700000208F
:1006D0006C0000206A0000206E0000207A000020DC
:1006E00076000020010000207461736B206F6B2C7A
:1006F000706C616E6520696E20686F6D652C616736
:1007000076206973206368617267696E67206E6F17
:10071000772E2E2E0D0A00007461736B206F6B2CE8
:10072000706C616E65206F757420686F6D652C61EB
:100730006776206973206368617267696E67206EEF
:100740006F772E2E2E0D0A000D0000206167762097
:1007500061726D206F70656E2061742073746172B8
:100760007420706F696E74210D0A00000E00002065
:100770002900002034010020704702E0642003F0CB
:10078000C5FBFBE700BFFEE700BFFEE700BFFEE7DB
:100790007047000010B5A2B00024802102A80AF022
:1007A000F4FC00200190CC480078401CCA49087035
:1007B000084600780A287DDD00200870F1222046D6
:1007C000611CCCB202A90A5401222046611CCCB2A1
:1007D00002A90A54601CC4B2C04890ED000A8DED15
:1007E000010A9DF804202046611CCCB202A90A54DB
:1007F0009DF805202046611CCCB202A90A549DF840
:1008000006202046611CCCB202A90A549DF807209C
:100810002046611CCCB202A90A54B04890ED010AEE
:100820008DED010A9DF804202046611CCCB202A97E
:100830000A549DF805202046611CCCB202A90A5436
:100840009DF806202046611CCCB202A90A549DF8EE
:1008500007202046611CCCB202A90A549F4890EDA3
:10086000020A8DED010A9DF804202046611CCCB2DD
:1008700002A90A549DF805202046611CCCB202A9A9
:100880000A549DF806202046611CCCB202A90A54E5
:100890009DF807202046611CCCB202A90A54082208
:1008A0002046611CCCB202A90A5419222046611CC0
:1008B000CCB200E00FE002A90A548DF80A40A01E55
:1008C000C1B202A804F0BAFCA11E02AA50542146EB
:1008D00002A803F064FA22B010BD10B58178022995
:1008E00000DA10BD8B1EC25C0378F12B01D101230D
:1008F00000E000234478022C01D1012400E0002410
:10090000234033B1C378764C23700379E370437985
:10091000237100BFE5E710B58178022900DA10BD28
:100920008B1EC25C0378712B01D1012300E00023F0
:100930004478082C01D1012400E000242340E3B3D3
:10094000C378684C63700379A3704379E370C3790B
:10095000847943EA042300EE103AB8EEC00A614BF2
:1009600083ED010A437A047A43EA042300EE103A45
:10097000B8EEC00A5B4B83ED020AC37A847A43EA7D
:10098000042300EE103AB8EEC00A564B83ED030A7A
:10099000437B047B43EA042300EE103AB8EEC00A1E
:1009A000504B83ED040AC37B847B43EA042300EEAF
:1009B000103AB8EEC00A4B4B00E00CE083ED050A9C
:1009C000437C047C43EA042300EE103AB8EEC00AEC
:1009D000444B83ED060A00BFA1E710B590B0002498
:1009E000402168460AF0D1FB3F480078401C3E4950
:1009F0000870084600780A286BDD00200870712214
:100A00002046611CCCB20DF8002007222046611C54
:100A1000CCB20DF80020601CC4B2344802782046E5
:100A2000611CCCB20DF8002000222046611CCCB223
:100A30000DF800202046611CCCB20DF800202C4897
:100A400002782046611CCCB20DF80020284842787C
:100A50002046611CCCB20DF8002025488278204643
:100A6000611CCCB20DF800202148C2782046611CE0
:100A7000CCB20DF800201E4802792046611CCCB291
:100A80000DF800201A4842792046611CCCB20DF8BE
:100A9000002000222046611CCCB20DF80020082264
:100AA0002046611CCCB20DF8002019222046611CA2
:100AB000CCB20DF800208DF80240A01EC1B26846ED
:100AC00004F0BCFBA11E0DF801002146684604F0AD
:100AD00032FF10B010BD00000700002028080020E1
:100AE0000200002034010020080000201000002037
:100AF0005800002010B5F8488078022813D1F64835
:100B0000C07802280FD1F448007901280BD1F248AF
:100B10004079012807D1F0480078012803D1EE4838
:100B20004078012809D005F0E9FD05F0FBFD05F04E
:100B3000C8FD0120E949087005E00320E749087075
:100B40000020E749087010BD10B50446002C4AD0BB
:100B5000E4480078012806D0042814D0052822D0C3
:100B600006283FD132E005F0C9FDDB488078022835
:100B700008D1D948C078022804D105F0C6FD042068
:100B8000D84908702EE005F0CDFDD3480079012842
:100B900008D1D1484079012804D105F0CAFD0520CB
:100BA000D04908701EE005F08CFDCB480078012884
:100BB0000BD1C9484078012807D105F091FD0620E6
:100BC000C8490870C8A005F092F80BE00B20C54991
:100BD00008700020C2490870012C02D10220C949C6
:100BE000087000BF33E0BC488078022813D1BA48AF
:100BF000C07802280FD1B848007901280BD1B64837
:100C00004079012807D1B4480078012803D1B248BF
:100C1000407801280CD005F071FD05F083FD05F04A
:100C200050FD0120AF490870B7A005F060F80EE054
:100C300005F06BFD05F07DFD05F052FDB8A005F057
:100C400056F80B20A74908700020A549087010BD70
:100C5000A1488078022813D19F48C07802280FD17C
:100C60009D48007901280BD19B484079012807D184
:100C700099480078012803D197484078012801D08D
:100C8000002070470120FCE79348007902280BD12F
:100C900091484079022807D18F480078022803D173
:100CA0008D484078022801D0002070470120FCE7E1
:100CB00070B504460D46012C71D19F48007801287B
:100CC00017D19D484078012813D19B48807880B97E
:100CD0009948C07868B90120814908700020974977
:100CE0000870012094498870C87095A004F0FFFF37
:100CF00009E09148007830B98F48407818B9002051
:100D00008D498870C870681C002849D174480078E3
:100D1000012806D0042814D0052825D006283DD166
:100D200035E005F0F8FC6C480079022808D16A48E3
:100D30004079022804D105F0FCFC042068490870C1
:100D40002CE005F0C5FC6448007802280BD162480D
:100D50004078022807D105F0C3FC052060490870DF
:100D60007DA004F0C4FF19E005F0C0FC5A4880786B
:100D700001280BD15848C078012807D105F0C5FCDF
:100D800006205749087074A004F0B1FF06E00B205C
:100D90005349087000205349087000BF83E05EE0AB
:100DA000012DFBD14E480078012806D004281FD021
:100DB00005282DD0062851D146E06D48008828B975
:100DC00001206B49088005F083FC10E06948008829
:100DD000401C6849088008460088B0F5AA7F06DDF7
:100DE0000020088005F07CFC04203D49087035E0B7
:100DF00005F091FC38480079022808D1364840793E
:100E0000022804D105F095FC05203549087025E03D
:100E100005F06CFC05F05CFC2F488078012812D1AD
:100E20002D48C07801280ED12B48007802280AD11D
:100E300029484078022806D105F052FC05F065FCEF
:100E400006202749087009E043A004F050FF0B205A
:100E50002349087000202349087000BF23E014BB19
:100E60001D48007902280BD11B484079022807D180
:100E700019480078022803D117484078022806D084
:100E800005F049FC05F024FC05F092FB0BE005F0B1
:100E900050FC05F03AFC05F023FC0B2010490870CB
:100EA00035A004F024FF70BD3A480078012802D133
:100EB0003949087087E039480078012803D10220B9
:100EC000354908707FE035480078022868D1002055
:100ED0003149087077E063E0580000200D000020E1
:100EE0000E0000200C00002072656C6561736520A7
:100EF000706C616E65206973206F6B2E2E2E0D0A4B
:100F000000000000110000207069636B20697320ED
:100F10006F70656E696E672E2E2E0D0A0000000040
:100F20007069636B206973206F70656E206F6B2E24
:100F30002E2E0D0A00000000130000200F000020DC
:100F400066696E6420706C616E65206973206F6BDA
:100F50002E2E2E0D0A0000007069636B20706C61EC
:100F60006E65206973206F6B2E2E2E0D0A00000017
:100F70003A000020380000207069636B206D6163C7
:100F800068696E6520697320636C6F73652E2E2E01
:100F90000D0A000072000020100000200200002056
:100FA000FA480078032805D10020F9490870F9496A
:100FB000087008E0F848007828B9F448007810B9BB
:100FC0000020F349087070472DE9FC410020009093
:100FD0000190FF240025FF26FF27A046EF48007858
:100FE000401CEE49087008460078142801DABDE874
:100FF000FC810020E9490870E94890ED020ADFED24
:10100000E90AB4EEE00AF1EE10FA19D2FF26002741
:101010004FF000080025002432208DF80000FE204B
:101020008DF8010010208DF802008DF803508DF826
:1010300004408DF805808DF806708DF8076017E084
:10104000FF26FF27B0460025FF240A208DF8000068
:10105000FE208DF8010001208DF802008DF803506C
:101060008DF804408DF805808DF806708DF80760C6
:101070000822694640F2013003F029FC00BFB6E7C0
:1010800010B54FF48061C84808F0D4FA18B90120AF
:10109000C649087002E00020C44908704FF480512E
:1010A000C14808F0C7FA18B90120C049487002E0E9
:1010B0000020BE49487010BDFD20BD490870BD49E3
:1010C0000870BD490870BD490870BD490870704777
:1010D00070B504460D46BB48007B01287DD0BA4858
:1010E000007805281ED16420B84908809FEDB80A11
:1010F000B84880ED000A0020B7490870B14890ED6B
:10110000020AB5EEC00AF1EE10FA07D3B34890ED2B
:10111000020AB5EEC00AF1EE10FA02DD0120AA497A
:10112000087070BDA848007804281ED16420A74923
:1011300008809FEDAB0AA74880ED000A0020A64971
:101140000870A04890ED020AB5EEC00AF1EE10FA60
:1011500007DCA24890ED020AB5EEC00AF1EE10FAE3
:1011600002D2012098490870DBE79E48408898B970
:101170009D48408880B900209349087093490880B1
:101180009FED9A0A934880ED000A0020924908706A
:1011900097A004F0ACFD6EE18A4890ED020AF8EEEB
:1011A000000AB4EEE00AF1EE10FA09D88B4890ED8F
:1011B000020AF8EE000AB4EEE00AF1EE10FA3BD9AA
:1011C000804890ED020AF7EE000AB4EEE00AF1EE74
:1011D00010FA14D890ED020A00E031E1FFEE000AA7
:1011E000B4EEE00AF1EE10FA09DB7C4890ED020A59
:1011F000FFEE000AB4EEE00AF1EE10FA1CD37748D5
:1012000090ED020AF7EE000AB4EEE00AF1EE10FAF1
:1012100021D890ED020AFFEE000AB4EEE00AF1EEEA
:1012200010FA18DB674890ED020AFFEE000AB4EEF0
:10123000E00AF1EE10FA0ED2032063490870642030
:10124000624908809FED6F0A624880ED000A012024
:10125000614908700FE15B4890ED020AF0EE000A68
:10126000B4EEE00AF1EE10FA09DB5C4890ED020AF8
:10127000F0EE000AB4EEE00AF1EE10FA39DA514865
:1012800090ED020AF7EE000AB4EEE00AF1EE10FA71
:1012900012D890ED020AFFEE000AB4EEE00AF1EE79
:1012A00010FA09DB4D4890ED020AF7EE000AB4EEA1
:1012B000E00AF1EE10FA1CDC484890ED020AF7EE65
:1012C000000AB4EEE00AF1EE10FA21D890ED020A1D
:1012D000FFEE000AB4EEE00AF1EE10FA18DB39482E
:1012E00090ED020AF7EE000AB4EEE00AF1EE10FA11
:1012F0000EDD0220344908706420344908809FEDD7
:10130000410A344880ED000AFF2033490870B2E0FA
:101310002C48D0ED020AC5F1030000EE100AB8EE29
:10132000C00AF4EEC00AF1EE10FA10DD2B48D0ED41
:10133000020AE81E00EE100AB8EEC00AF4EEC00A77
:10134000F1EE10FA03D205201F49087093E01D4802
:10135000D0ED020AE81E00EE100AB8EEC00AF4EE64
:10136000C00AF1EE10FA4FD21C48D0ED020AC5F1C6
:10137000030000EE100AB8EEC00AF4EEC00AF1EE67
:1013800010FA41DD04201049087074E002000020CA
:101390001000002011000020720000203C000020FE
:1013A0002808002000002042001002401300002006
:1013B0001700002018000020190000201A0000204B
:1013C0001B000020D40000203D0000201C00002055
:1013D0000000B4422000002024000020C0000020B3
:1013E0000000B4C2B8000020BC00002000000000D3
:1013F0006D697373206C696E652C73746F700D0A60
:101400000000000000003442012C07D10120EF4908
:1014100008704FF4C870EE49088008E0601C30B9CD
:101420000120EA4908704FF67060E94908801FED15
:10143000110AE84880ED000A0020E74908701AE028
:10144000012C07D10120E14908704FF4C870E04930
:10145000088008E0601C30B90120DC4908704FF6B4
:101460007060DB4908801FED1F0ADA4880ED000A32
:101470000020D949087000BF53E6884201DD0846C4
:1014800003E04A42904200DA4842704710B50346F2
:101490000C46D248D0ED000A70EEC00AF5EEC00A44
:1014A000F1EE10FA04DDD0ED000A70EEC00A06E09D
:1014B000CA48D0ED000A70EEC00AF1EE600A9FED56
:1014C000C81AF4EEC10AF1EE10FA03DD2020C54976
:1014D00008701FE0C148D0ED000A70EEC00AF5EEBA
:1014E000C00AF1EE10FA04DDD0ED000A70EEC00A79
:1014F00006E0BA48D0ED000A70EEC00AF1EE600ACC
:101500001FED401AF4EEC10AF1EE10FA02DD1420CC
:10151000B4490870B14880ED000AB248007820B1A3
:10152000B0480078401EAF490870002C5BD0AD4831
:101530000078A0B904FB03F000B2AB49088004FBBB
:1015400003F000B2A949088004FB03F000B2A849E7
:10155000088004FB03F000B2A649088008E00020E0
:10156000A1490880A1490880A1490880A1490880B3
:10157000DFEDA10A60EE200AFDEEE00A10EE900A0F
:101580004FF44831FFF779FF40429C490860DFED96
:101590009A0A60EE200AFDEEE00A10EE900A4FF47F
:1015A0004831FFF76AFF96490860DFED930A60EE65
:1015B000200AFDEEE00A10EE900A4FF44831FFF7E2
:1015C0005CFF40428F490860DFED8B0A60EE200A25
:1015D000FDEEE00A10EE900A4FF44831FFF74DFFA0
:1015E0008949086050E07F48007860B9584200B2ED
:1015F0007D490880584200B27C4908807C480380BD
:101600007C48038008E000207749088077490880FB
:101610007749088077490880DFED770A60EE200A75
:10162000FDEEE00A10EE900A4FF44831FFF725FF77
:1016300072490860DFED700A60EE200AFDEEE00AF4
:1016400010EE900A4FF44831FFF717FF6C4908601D
:10165000DFED690A60EE200AFDEEE00A10EE900A66
:101660004FF44831FFF709FF66490860DFED620A71
:1016700060EE200AFDEEE00A10EE900A4FF44831C9
:10168000FFF7FBFE6049086010BD70B504460D46CB
:101690005E4948885E4905F06DF85E4948885E49B4
:1016A00005F068F85D4800785D4908705A48007B8D
:1016B0005A4908705B48007878B15A4800780B287E
:1016C0000BD00020424908801FEDB80A414880ED48
:1016D000000A0020404908708CE25348007878B135
:1016E000514800780B280BD00020394908801FEDA5
:1016F000C10A384880ED000A002037490870EBE73E
:10170000012D5FD1601C00285DD1484890F9000090
:10171000C01CD0B941480078012816D14048007853
:10172000012812D0FE20414908704FF67060284908
:1017300008801FEDD20A274880ED000A00202649C4
:1017400008703BA004F0D3FAC6E7384890F90000CF
:10175000801CD0B931480078012816D03048007874
:10176000012812D1FF20314908706FF0C7001849D5
:1017700008801FEDE20A174880ED000A0020164994
:10178000087039A004F0B3FAA6E7284890F90000E1
:10179000401CC8B921480078012815D1204800789C
:1017A000012811D00020214908706FF0C7000849B6
:1017B00008801FEDF20A074880ED000A0020064964
:1017C00008706DE03DE202E16EE000003D000020A7
:1017D0001C000020200000202400002040000020E9
:1017E0000000704244000020940000209600002079
:1017F000980000209A000020CD380E459C00002063
:10180000A0000020A4000020A8000020B8000020B4
:10181000C0000020BC000020D400002025000020D3
:10182000260000200C0000200E00002017000020E1
:1018300073746172742073746F70206C696E6520AC
:1018400066696E642C616776206E6F742073746FA6
:1018500070207374696C6C20676F206261636B2EFB
:101860002E2E0D0A000000007374617274207374D0
:101870006F70206C696E65206D6973732C6167767B
:10188000206E6F742073746F70207374696C6C2099
:10189000676F206261636B2E2E2E0D0A0000000020
:1018A000F1A004F024FA17E7FE48007800282AD1B6
:1018B000FD480078012826D1FC480078012822D173
:1018C000FB480078401CFA490870084600780F2849
:1018D00015DD002008700120F6490870F1490870F4
:1018E0000020F54908809FEDF50AF54880ED000AD3
:1018F0000020F4490870F4A004F0F9F9ECE6DAA04D
:1019000004F0F5F9E8E6E748007801281AD1E6483E
:101910000078012816D0E5480078012812D102206D
:10192000E04908706FF0C700E34908809FEDE30AC3
:10193000E34880ED000A0020E2490870EFA004F0BF
:10194000D6F9C9E6D748007802281AD1D6480078D7
:10195000012816D1D5480078012812D00320D1499A
:1019600008706FF0C700D44908809FEDD40AD448AE
:1019700080ED000A0020D3490870EBA004F0B7F90D
:10198000AAE6C848007803281CD1C7480078012877
:1019900018D0C6480078012814D10420C149087025
:1019A0000020C54908809FEDC50AC54880ED000AA2
:1019B0000020C44908700A20E1490870E1A004F041
:1019C00096F989E60121881EFFF782FB84E6012C47
:1019D00094D1E64890F90000C01CC8B9B24800781C
:1019E000012815D1B1480078012811D0FE20DF4927
:1019F0000870C820B04908809FEDB00AB04880ED5B
:101A0000000A0020AF490870C7A004F070F963E62F
:101A1000D64890F90000801CC8B9A3480078012876
:101A200015D0A2480078012811D1FF20CF490870B5
:101A3000C820A14908809FEDA10AA14880ED000AB5
:101A40000020A0490870CAA004F051F944E6C74834
:101A500090F90000401CC8B993480078012815D1BE
:101A600092480078012811D00020C0490870C82091
:101A7000914908809FED910A914880ED000A00206D
:101A800090490870C0A004F032F925E6B748007804
:101A9000002835D184480078012831D18348007866
:101AA00001282DD1C7480078401CC6490870084657
:101AB00000780A2815DD002008700120AB49087065
:101AC000C149087000207C4908809FED7C0A7C4851
:101AD00080ED000A00207B490870BCA004F007F9E3
:101AE000FAE5C820744908809FED740A744880EDB7
:101AF000000A002073490870A3A004F0F8F8EBE591
:101B00009A480078012819D167480078012815D033
:101B100066480078012811D1022094490870C82035
:101B2000654908809FED650A654880ED000A002040
:101B300064490870B2A004F0DAF8CDE58B4800786B
:101B400002281AD158480078012816D15748007841
:101B5000012812D00320854908704FF4C8705649F7
:101B600008809FED560A564880ED000A002055492E
:101B70000870ADA004F0BBF8AEE57C4800780328FF
:101B80001AD149480078012816D048480078012821
:101B900012D10420754908704FF4C8704649088076
:101BA0009FED460A464880ED000A0020454908702E
:101BB000A4A004F09CF88FE56C48007804281AD1A2
:101BC00039480078012816D138480078012812D009
:101BD0000520664908704FF4C870374908809FEDAA
:101BE000370A374880ED000A002036490870A0A067
:101BF00004F07DF806E25D48007805281CD12A48EB
:101C00000078012818D029480078012814D106202E
:101C1000564908700020284908809FED280A284866
:101C200080ED000A00202749087001202149087032
:101C300097A004F05CF8E5E100210120FFF748FAE5
:101C4000E0E1002D98D1601C00280CD19E4890F94D
:101C50000000C01C30B914480078012802D1134894
:101C6000007833E147E1ABE165786368616E6765F1
:101C7000206C696E652066696E642C6167762072DF
:101C80006561647920746F2073746F7020616E6475
:101C90002072656C6561736520706C616E652E2EB7
:101CA0002E0D0A001700002025000020260000202D
:101CB0003E0000200C0000201C000020000000005E
:101CC000200000202400002065786368616E67654D
:101CD000206C696E652066696E642C61677620737E
:101CE000746F7020616E642072656C65617365202D
:101CF000706C616E652E2E2E0D0A0000657863688B
:101D0000616E6765206C696E65206D6973732C6107
:101D1000677620676F206261636B20686F6D652E48
:101D20002E2E0D0A00000000636861726765206C4A
:101D3000696E652066696E642E2E2E0D0A00000005
:101D400011000020636861726765206C696E652010
:101D50006D6973732C6167762073746F702063688C
:101D6000616E67652E2E2E0D0A00000018000020FF
:101D7000636861726765206C696E65206D69737355
:101D80002E2E2E0D0A0000007069636B20706C61AE
:101D90006E65206C696E652066696E642C6167767D
:101DA00020726561647920746F2073746F70206194
:101DB0006E64207069636B20706C616E652E2E2ED0
:101DC0000D0A00003F0000200E0000207069636BC8
:101DD00020706C616E65206C696E652066696E644A
:101DE0002C6167762073746F7020616E6420706957
:101DF000636B20706C616E652E2E2E0D0A00000044
:101E00007069636B20706C616E65206C696E652013
:101E10006D6973732C61677620676F206F75742E00
:101E20002E2E0D0A0000000073746172742073740A
:101E30006F70206C696E652066696E642E2E2E0DA3
:101E40000A00000073746172742073746F70206CE8
:101E5000696E65206D6973732C6167762073746990
:101E60006C6C20676F206F75742E2E2E0D0A00008B
:101E700072656C6561736520706C616E65206C695C
:101E80006E652066696E642E2E2E0D0A000000001D
:101E900072656C6561736520706C616E65206C693C
:101EA0006E65206D6973732C6167762073746F7033
:101EB00020616E642072656C6561736520706C6171
:101EC0006E652E2E2E0D0A0019000020012812D05A
:101ED000FE20FE4908704FF67060FD4908801FED36
:101EE000890AFC4880ED000A0020FB490870FBA02D
:101EF00003F0FDFEF1E2F54890F90000801CD0B936
:101F0000FC480078012816D0FB480078012812D13F
:101F1000FF20EE4908704FF67060ED4908801FED14
:101F2000990AEC4880ED000A0020EB490870F3A004
:101F300003F0DDFED1E2E54890F90000401CD8B97D
:101F4000EC480078012817D1EB480078012813D01D
:101F50000020DE4908704FF67060DD4908801FEDF3
:101F6000A90ADC4880ED000A0020DB490870AFF2C6
:101F7000482003F0BCFEB0E2D4480078D8B9DD4870
:101F80000078012817D0DC480078012813D1CF4908
:101F900008700020CE4908801FEDB80ACD4880EDBA
:101FA000000A0020CC4908700420DF490870DFA037
:101FB00003F09DFE91E20121881EFFF789F88CE273
:101FC000012C6FD1E84890F90000C01CD8B9C9486D
:101FD0000078012817D1C8480078012813D0FE20C6
:101FE000E14908704FF4C870B94908801FEDCD0A67
:101FF000B84880ED000A0020B7490870AFF2D82039
:1020000003F075FE69E2D84890F90000801CD8B949
:10201000B8480078012817D0B7480078012813D1B4
:10202000FF20D14908704FF4C870A94908801FEDFE
:10203000DD0AA84880ED000A0020A7490870AFF229
:10204000D02003F054FE48E2C74890F90000401C3D
:10205000D0B9A8480078012816D1A74800780128EF
:1020600012D00020C04908704FF4C8709849088009
:102070001FEDEE0A974880ED000A0020964908708F
:1020800096A003F034FE28E2B7480078D8B9994802
:102090000078012817D098480078012813D1B24958
:1020A000087000E068E0B1A003F021FE4FF4C870B2
:1020B000874908809FEDB80A864880ED000A002015
:1020C0008549087009E2A848007801281BD1894891
:1020D0000078012817D188480078012813D0022001
:1020E000A1490870AFF2C02003F001FE4FF4C870A0
:1020F000774908809FEDA80A764880ED000A002005
:1021000075490870E9E19848007802281CD179489F
:102110000078012818D078480078012814D10320CD
:10212000914908700620804908709CA003F0DFFDEB
:102130000020674908809FED980A664880ED000AF4
:10214000002065490870C8E18748007803280ED14F
:1021500092A003F0CCFD00205D4908809FED8E0A1F
:102160005C4880ED000A00205B490870B5E1002161
:102170000120FEF7ADFFB0E1032C7DD1934890F92B
:102180000000C01CD8B95B480078012817D15A4814
:102190000078012813D0FE208C4908704FF670603B
:1021A0004B4908809FED7C0A4A4880ED000A0020D8
:1021B00049490870AFF2483003F099FD8DE183483A
:1021C00090F90000801CD0B94A480078012816D048
:1021D00049480078012812D1FF207C4908704FF649
:1021E00070603B4908809FED6C0A3A4880ED000A18
:1021F00000203949087076A003F079FD6DE173483D
:1022000090F90000401CD8B93A480078012817D14D
:1022100039480078012813D000206C4908704FF627
:1022200070602B4908809FED5C0A2A4880ED000A07
:10223000002029490870AFF2104003F058FD4CE12E
:1022400062480078C8B92B480078012815D02A4880
:102250000078012811D15D49087000201C490880D0
:102260009FED4D0A1B4880ED000A00201A490870B6
:102270005FA003F03CFD30E117E0544800780128EE
:102280000ED10020124908809FED430A114880EDCD
:10229000000A0020104908705EA003F028FD1CE130
:1022A0000121881EFEF714FF17E1042C0DD14748C9
:1022B00090F90000C01C38B90E480078012803D1FD
:1022C0000D4800780128BBE0CFE006E119000020AE
:1022D0001C00002020000020240000206578636896
:1022E000616E6765206C696E652066696E642E2E6E
:1022F0002E0D0A0025000020260000206578636866
:10230000616E6765206C696E65206D6973732C6101
:102310006776207374696C6C20676F206261636BF1
:102320002E2E2E0D0A00000011000020636861723D
:102330006765206C696E65206D6973732C616776C3
:102340002073746F7020616E6420636861726765CA
:102350002C706C616E65206973206F75747369648D
:10236000652E2E2E0D0A00001A0000206578636885
:10237000616E6765206C696E65206D6973732C6191
:102380006776206973207374696C6C20676F206FA7
:1023900075742E2E2E0D0A000000000073746172F9
:1023A000742073746F70206C696E65206D6973732F
:1023B0002C726561647920746F206F70656E207077
:1023C00069636B2E2E2E0D0A000000001B000020FA
:1023D00072656C6561736520706C616E65206C69F7
:1023E0006E65206D6973732E2E2E0D0A000000009D
:1023F00073746172742073746F70206C696E6520E1
:102400006D6973732C6167762073746F70202E2E44
:102410002E0D0A007069636B20706C616E65206F11
:102420007574207461736B206973206F6B2C616706
:10243000762073746F70202E2E2E0D0A000000007F
:1024400013D0FE20FE4908704FF67060FD490880E9
:102450001FED2F0AFC4880ED000A0020FB490870A0
:10246000AFF23C6003F043FC37E0F54890F9000020
:10247000801CD0B9F6480078012816D0F5480078BD
:10248000012812D1FF20EE4908704FF67060ED4927
:1024900008801FED3F0AEC4880ED000A0020EB4960
:1024A0000870EDA003F023FC17E0E54890F9000068
:1024B000401C70B90020E34908801FED490AE2483A
:1024C00080ED000A0020E1490870EAA003F00FFC4B
:1024D00003E00121881EFEF7FBFDDC4890F90010A7
:1024E000D94890ED000AD748B0F90000FEF7CEFFBA
:1024F00070BD2DE9F0412DED068BB0EE408AF0EE77
:10250000608A0446002500269FEDE40BB0EE409A59
:10251000F0EE609A012C65D1F5EEC08AF1EE10FA6A
:1025200002DDB0EE680A01E0B1EE680AF7EE080AD3
:10253000B4EEE00AF1EE10FA52DDF5EEC08AF1EEEB
:1025400010FA01DD012606E0F5EEC08AF1EE10FA80
:1025500001D24FF0FF36B2EE0E0A28EE800AB5EE39
:10256000C00AF1EE10FA04DDB2EE0E0A28EE800A7F
:1025700003E0B2EE0E0A28EEC00A10EE101A08466A
:102580000DF080FD41EC190B9FEDC60B53EC102BA9
:1025900051EC190B0DF07EFB06D29FEDC20BB0EE95
:1025A000409AF0EE609A0EE09FEDC00B53EC102BBA
:1025B00051EC190B0DF08CF905D29FEDBC0BB0EE70
:1025C000409AF0EE609A51EC190B0DF027F907B222
:1025D00031469FEDB80A3846FEF758FF00259DE0CA
:1025E00001259BE0022C3CD1B5EEC08AF1EE10FA39
:1025F00002DDB0EE480A01E0B1EE480ADFEDAE0AB6
:10260000B4EEE00AF1EE10FA29DDB5EEC08AF1EE83
:1026100010FA11DD9FEDA90BB0EE409AF0EE609A32
:1026200051EC190B0DF0FAF807B200219FEDA50A45
:102630003846FEF72BFF10E09FEDA00BB0EE409A5E
:10264000F0EE609A51EC190B0DF0E8F807B200219A
:102650009FED9D0A3846FEF719FF00255EE0012533
:102660005CE0DCBB9FED940A38EE400AB5EEC00A90
:10267000F1EE10FA04DD9FED900A38EE400A05E015
:102680009FED8D0A38EE400AB1EE400ADFED8F0A69
:10269000B4EEE00AF1EE10FA3FDD9FED870A38EE66
:1026A000400ADFED8A0AB4EEE00AF1EE10FA16DD18
:1026B0009FED820BB0EE409AF0EE609A51EC190B50
:1026C0000CF05AFE41EC1A0B0DF0A8F807B20021ED
:1026D0001FEDCF0A3846FEF7D9FE1CE01EE09FED45
:1026E000760A38EE400ADFED7A0AB4EEE00AF1EE3F
:1026F00010FA10D29FED710BB0EE409AF0EE609A96
:1027000051EC190B0DF08AF807B200211FEDDE0A1B
:102710003846FEF7BBFE002500E001252846BDEC4B
:10272000068BBDE8F08100B52DED108B9DB09FEDBF
:102730005B0BB0EE408AF0EE608A6648007828B9FC
:102740000120654908706349087021E2634890F8E8
:102750002600002872D0624890F826000028F9D0A0
:102760005F4890ED066BB0EE465AF0EE665A90ED7B
:10277000046BB0EE464AF0EE664A90ED026BB0EEA6
:10278000463AF0EE663A554890ED066BB0EE462AB2
:10279000F0EE662A90ED046BB0EE461AF0EE661A83
:1027A00090ED026BB0EE460AF0EE660A4D4801F07D
:1027B000EFF84C4890ED060AD0ED020A30EE600AC0
:1027C00010EE101A08460DF05DFC41EC180B46485F
:1027D0000088401C44490880084600880A282EDDED
:1027E000404890ED0C0A10EE101A08460DF04AFC15
:1027F00041EC190B3B4890ED0B0A10EE101A0846FD
:102800000DF040FC41EC1A0B364890ED0A0A10EE30
:10281000101A08460DF036FC41EC1B0B314890EDC8
:10282000090A10EE101A08460DF02CFC41EC1C0BA6
:102830002C4890ED080A10EE101A57E099E1BAE022
:102840001B0000201C00002020000020240000208D
:1028500025000020260000207374617274207374B8
:102860006F70206C696E65206D6973732E2E2E0D4E
:102870000A00000061677620676F206F75742C7204
:102880006561647920746F207069636B20706C617E
:102890006E65202E2E2E0D0A0000000000000000A4
:1028A000000000000000000000408F400000000019
:1028B00000408FC000003442CDCC4C3D00000000F1
:1028C000000079400000B4420000B4C2CDCCCC3D41
:1028D000CDCCCCBD280000202700002020090020FE
:1028E00050090020500100204800002008460DF04B
:1028F000C9FB41EC1D0BFB4890ED070A10EE101AC6
:1029000008460DF0BFFB41EC1E0BF64890ED050AA2
:1029100010EE101A08460DF0B5FB41EC1F0BF14804
:1029200090ED040A10EE101A08460DF0ABFBCDE94D
:102930001A01EC4890ED030A10EE101A08460DF04B
:10294000A1FBCDE91801E74890ED010A10EE101A3D
:1029500008460DF097FBCDE91601E24890ED000A1C
:1029600010EE101A08460DF08DFBCDE914018DED27
:10297000129B8DED10AB8DED0EBB8DED0CCB8DED67
:102980000ADB8DED08EB8DED06FB9DED1A0B8DED51
:10299000040B9DED180B8DED020B9DED160B8DEDCF
:1029A000000B9DED140B53EC102BCF4803F09FF957
:1029B0000020CE490880CE4800780B281DD2DFE8E1
:1029C00000F0D7061D32475C6E8398ADD30000211E
:1029D0009FEDC80A4FF4C870FEF758FDC64800883E
:1029E000401CC549088008460088B0F5167F04DD04
:1029F000002008800220BE490870B9E000219FED48
:102A0000BD0A0846FEF742FDBB480088401CBA4993
:102A10000880084600880A2804DD0020088003207A
:102A2000B3490870A4E051EC180B0CF0B1FC09EEAE
:102A3000100A0120F0EE490A9FEDAE0AFFF759FD9A
:102A400028B1AEA003F053F90420A94908708FE023
:102A500000219FEDA80A0846FEF718FDA648008849
:102A6000401CA549088008460088142804DD002081
:102A7000088005209E4908707AE09A48D0ED0A0A3D
:102A8000B0EE600A0220DFED9B0AFFF732FD28B1AD
:102A9000A5A003F02CF906209549087068E00021F4
:102AA0009FED940A0846FEF7F1FC93480088401C0D
:102AB0009149088008460088142804DD0020088019
:102AC00007208B49087053E051EC180B0CF060FCA8
:102AD00009EE100A0120F0EE490A9FED860AFFF781
:102AE00008FD28B185A003F002F90820804908708C
:102AF0003EE000219FED7F0A0846FEF7C7FC7E48B6
:102B00000088401C7C49088008460088142804DDA1
:102B10000020088009207649087029E08D48007857
:102B2000A8B100219FED730A4FF49670FEF7AEFC3A
:102B300071480088401C70490880084600881428A5
:102B400011DD0020088084A003F0D1F80BE0002103
:102B50009FED680A0846FEF799FC8AA003F0C7F8C3
:102B60000A206349087003E00B206149087000BF28
:102B70000EE08F4890F826208E4890F826108EA000
:102B800003F0B5F800219FED5B0A0846FEF77EFCD6
:102B90001DB0BDEC108B00BD002055490870914957
:102BA0000870704700B52DED108BA1B01FEDC50B5F
:102BB000B0EE409AF0EE609A1FEDC80BB0EE40AA5E
:102BC000F0EE60AA1FEDCB0B8DED1E0B8648007852
:102BD00028B90120844908708449087017E27548B3
:102BE00090F8260000287CD0714890F82600002834
:102BF000F9D06F4890ED066BB0EE465AF0EE665A8B
:102C000090ED046BB0EE464AF0EE664A90ED026B32
:102C1000B0EE463AF0EE663A664890ED066BB0EEDE
:102C2000462AF0EE662A90ED046BB0EE461AF0EEFE
:102C3000661A90ED026BB0EE460AF0EE660A29487D
:102C400000F0A6FE274890ED020ADFED690A30EE9B
:102C5000C00A10EE101A08460DF014FA41EC190BD8
:102C6000204890ED000AFEEE000A30EEC00A10EE99
:102C7000101A08460DF006FA41EC1A0B194890EDAF
:102C8000010ADFED1C0A30EEC00A10EE101A0846E9
:102C90000DF0F8F9CDE91E01124890ED0C0A10EE86
:102CA000101A08460DF0EEF9CDE91C010D4890ED23
:102CB0000B0A10EE101A08460DF0E4F9CDE91A01DE
:102CC000084890ED0A0A10EE101A08460DF0DAF9DD
:102CD000CDE91801034890ED090A10EE101A0846D4
:102CE00088E084E1500100209C0801084800002091
:102CF00027000020000000004600002061677620C9
:102D000069732061727269766564206174206472EF
:102D1000676F6E2066697368277320686561642E2B
:102D20002E2E0D0A00000000616776206973206175
:102D3000727269766564206174206472676F6E20B8
:102D40006669736827732078706F732E2E2E0D0AB4
:102D5000000000000F00002061677620676F20618F
:102D6000686561642C74727920746F207069636B7C
:102D7000206472676F6E20666973682E2E2E0D0AAE
:102D8000000000006472676F6E20666973682069D6
:102D9000732066696E642C6167762073746F70208F
:102DA000616E64207069636B2E2E2E0D0A00000088
:102DB000500900202009002072746B207369676E2F
:102DC000616C206973206E6F7420676F6F642121BE
:102DD000204147563A2564204452473A25642E2E16
:102DE0002E0D0A00280000202A00002029000020C3
:102DF000000087430DF046F9CDE91601FA4890ED41
:102E0000080A10EE101A08460DF03CF941EC180BB8
:102E1000F54890ED070A10EE101A08460DF032F949
:102E2000CDE91401F04890ED050A10EE101A08469D
:102E30000DF028F941EC1B0BEB4890ED040A10EE65
:102E4000101A08460DF01EF941EC1C0BE64890EDF7
:102E5000030A10EE101A08460DF014F941EC1D0B90
:102E6000E14890ED010A10EE101A08460DF00AF93B
:102E700041EC1E0BDC4890ED000A10EE101A0846DB
:102E80000DF000F941EC1F0B9DED1C0B8DED120BAD
:102E90009DED1A0B8DED100B9DED180B8DED0E0BAE
:102EA0009DED160B8DED0C0B8DED0A8B9DED140B2E
:102EB0008DED080B8DED06BB8DED04CB8DED02DBAA
:102EC0008DED00EB53EC1F2BC84802F010FFC848F3
:102ED00000780A281AD2DFE800F0890589891A2FBC
:102EE0004A5F788251EC190B0CF052FA08EE100A86
:102EF0000120F0EE480A1FED810AFFF7FAFA28B127
:102F0000BCA002F0F4FE0420B94908706EE0002174
:102F10001FED880A0846FEF7B9FAC3480078401C3E
:102F2000C149087008460078142804DD00200870A4
:102F30000520AF49087059E09DED1E0B51EC100BB8
:102F40000CF01AFA41EC1B0B0CF022FA08EE100AF6
:102F500002205FED980AB0EE480AFFF7CAFA28B1DE
:102F6000B2A002F0C4FE0620A14908703EE0002194
:102F70001FEDA00A0846FEF789FAAB480078401C0E
:102F8000A949087008460078142804DD002008705C
:102F900007209749087029E051EC1A0B0CF0ECF966
:102FA00041EC1B0B0CF0F4F908EE100A00205FED69
:102FB000AF0AB0EE480AFFF79CFA28B1A5A002F0CC
:102FC00096FE08208A49087010E000211FEDB70A1C
:102FD0000846FEF75BFA09208549087006E0A7A0BD
:102FE00002F085FE0B208249087000BF0FE0B04858
:102FF00090F82620AF4890F82610AFF2442002F057
:1030000076FE00211FEDC50A0846FEF73FFA21B003
:10301000BDEC108B00BD002075490870A6490870F2
:1030200070472DE9FC4F074688469146002500244D
:10303000002300269A469B46002001900090A8F5A8
:103040007A7004B2A7F57A7003B2A9F57A7006B265
:10305000002B01DD184600E05842B0F5967F7BDD7D
:10306000002C01DD204600E06042B0F5967FF6DDE1
:10307000924890ED000A924880ED000AB3F5967FE1
:1030800021DD14F5967F1EDA9FED8E0A8B4880EDC8
:10309000000A002B01DD184600E05842002C01DD3B
:1030A000214600E061420844404200EE100AB8EEBA
:1030B000C00ADFED850A20EE200ABDEEC00A10EE40
:1030C000100A05B239E113F5967F21DA14F5967FDF
:1030D0001EDA9FED7E0A794880ED000A002B01DDA3
:1030E000184600E05842002C01DD214600E0614214
:1030F0000844404200EE100AB8EEC00ADFED720A42
:1031000020EE200ABDEEC00A10EE100A05B214E14E
:1031100013F5967F21DAB4F5967F1EDD9FED690ADF
:10312000664880ED000A002B01DD184600E0584299
:10313000002C01DD214600E06142084400EE100A47
:10314000B8EEC00ADFED600A20EE200ABDEEC00A2C
:1031500010EE100A05B2F0E023E0B3F5967F1FDD14
:10316000B4F5967F1CDD9FED590A544880ED000AA6
:10317000002B01DD184600E05842002C01DD2146FD
:1031800000E06142084400EE100AB8EEC00ADFED2C
:103190004E0A20EE200ABDEEC00A10EE100A05B25B
:1031A000CBE0002B01DD184600E05842B0F5967FD9
:1031B00019DD002C01DD204600E06042B0F5967F6D
:1031C00011DA3E4890ED000A3D4880ED000AB3F563
:1031D000967F7FDD9FED3E0A384880ED000AA3F51B
:1031E000967005B2A9E083E0500100209C08010818
:1031F0002900002061677620697320636F6D652068
:103200006261636B2C6172726976656420617420FF
:10321000626C61636B6C696E652773206D69642EE7
:103220002E2E0D0A000000004A0000206167762063
:103230006973206172726976656420617420626CC2
:1032400061636B6C696E6527732078706F732E2EC7
:103250002E0D0A00616776206973206172726976AB
:10326000656420617420626C61636B6C696E6527B4
:10327000732079706F732E2E2E0D0A0061677620F1
:103280006973206172726976656420617420636F6E
:103290006F6E6469646174652773206F7269676912
:1032A0006E20706F696E742E2E2E0D0A00000000C5
:1032B00050090020200900202A00002030000020B2
:1032C00034000020000034C29A99193F00003442B3
:1032D0000000B442FFE713F5967F2EDA9FEDF90A5E
:1032E000F94880ED000A03F59670404205B224E0EB
:1032F000002B01DD184600E05842B0F5967F1CDA3D
:10330000002C01DD204600E06042B0F5967F14DD20
:10331000ED4890ED000AED4880ED000A9FEDEC0AC3
:10332000E94880ED000AB4F5967F03DDA4F59670B8
:1033300005B202E004F5967005B2002E01DD3046BC
:1033400000E07042B0F5967F7BDDB6F5967F03DD39
:10335000A6F5967005B202E006F5967005B2DA4859
:1033600090ED000AD94880ED000A1FED280AD648E2
:1033700080ED000AD54890ED000AD348D0ED000A50
:1033800030EE600AB5EEC00AF1EE10FA08DDCF4863
:1033900090ED000ACC48D0ED000A30EE600A09E05A
:1033A000CA4890ED000AC848D0ED000A30EE600A25
:1033B000B1EE400AF3EE040AB4EEE00AF1EE10FAC0
:1033C00002DD1420C3490880C2480088401E00B2B4
:1033D000C04908800846B0F90000002844DC0020FD
:1033E000088005EB450000B2BB49088005EB4500AD
:1033F00000B2BA49088005EB450000B2B849088020
:1034000005EB450000B2B7490880AF4890ED000ACF
:10341000B1EE400ADFEDB40A20EE200ABDEEC00A8C
:1034200010EE10AA90ED000ADFEDAF0A20EE200AA0
:10343000BDEEC00A10EE10BA90ED000AB1EE400ADF
:1034400000E012E0DFEDA80A20EE200ABDEEC00A7F
:103450008DED010A90ED000ADFEDA30A20EE200AAF
:10346000BDEEC00A8DED000AF6E0002B01DD184626
:1034700000E05842B0F5967F49DA002C01DD204685
:1034800000E06042B0F5967F41DA9FED910A8E48E8
:1034900080ED000A0025684200EB80008E4908801C
:1034A000684200EB80008D49088005EB85008C495F
:1034B000088005EB85008B490880834890ED000A61
:1034C000DFED890A20EE200ABDEEC00A10EE10AA38
:1034D00090ED000ADFED840A20EE200ABDEEC00A5E
:1034E00010EE10BA90ED000ADFED7F0A20EE200A00
:1034F000BDEEC00A8DED010A90ED000ADFED7A0AFB
:1035000020EE200ABDEEC00A8DED000AA4E06F484F
:1035100090ED000A6C48D0ED000A30EE600AB5EE7E
:10352000C00AF1EE10FA08DD684890ED000A66481E
:10353000D0ED000A30EE600A09E0644890ED000A20
:103540006148D0ED000A30EE600AB1EE400ADFEDCE
:10355000670AB4EEE00AF1EE10FA03DD20205D49BF
:10356000088029E0594890ED000A5748D0ED000A3C
:1035700030EE600AB5EEC00AF1EE10FA08DD5348ED
:1035800090ED000A5048D0ED000A30EE600A09E0E4
:103590004E4890ED000A4C48D0ED000A30EE600A2B
:1035A000B1EE400AF3EE0E0AB4EEE00AF1EE10FAC4
:1035B00002DD14204749088046480088401E00B2BA
:1035C000444908800846B0F9000000281BDC0020B0
:1035D0000880684200EB4000400000B23E4908808D
:1035E000684200EB4000400000B23C49088005EB17
:1035F0004500400000B23A49088005EB4500400014
:1036000000B238490880304890ED000ADFED360AF4
:1036100020EE200ABDEEC00A10EE10AA90ED000ABE
:10362000DFED310A20EE200ABDEEC00A10EE10BA1E
:1036300090ED000ADFED2C0A20EE200ABDEEC00A54
:103640008DED010A90ED000ADFED270A20EE200A39
:10365000BDEEC00A8DED000A4FF448315046FDF72B
:103660000CFF234908604FF448315846FDF705FF29
:10367000204908604FF448310198FDF7FEFE1E49CD
:1036800008604FF448310098FDF7F7FE1B490860C9
:10369000BDE8FC8F2DE9F04704460D469146002613
:1036A0000027B046A9F57A700FFA80F8A5F57A7070
:1036B00007B2A4F57A7006B2B6F5967F20DD03F066
:1036C00000F825E00000B4C23000002034000020E3
:1036D000000000002C000020940000209600002034
:1036E000980000209A000020CD380E45000070425E
:1036F0009C000020A0000020A4000020A8000020C2
:1037000016F5967F02DA02F0E3FF01E002F0E8FF2F
:10371000B7F5967F02DD02F0E9FF07E017F5967F27
:1037200002DA02F0EBFF01E002F0EFFFB8F5967F5E
:1037300002DD02F0F0FF07E018F5967F02DA02F0F2
:10374000F1FF01E002F0F5FFBDE8F087F0EE400A7E
:10375000B0EE600A1AE09FEDD71AB4EEC10AF1EE9E
:1037600010FA06DD9FEDD41A30EE411AB0EE410A90
:103770000CE09FEDD21AB4EEC10AF1EE10FA05D2B8
:103780009FEDCD1A30EE011AB0EE410A9FEDCB1A33
:10379000B4EEC10AF1EE10FADDD39FEDC61AB4EE15
:1037A000C10AF1EE10FAD6DC704710B50446D4ED2C
:1037B000070A9FEDC31A60EE810AB0EE600A09F0B5
:1037C00037FCD4ED040A9FEDBF1A40EE010AC4EDA8
:1037D000080AD4ED070A9FEDBA1A60EE810AB0EE2E
:1037E000600A0AF011FFD4ED050A9FEDB61A40EE0B
:1037F000010AC4ED090A10BD10B52DED0A8B04466F
:103800009FEDB10AB0EE408A9FEDAF0AF0EE408A1C
:103810009FEDAD0AB0EE409A9FEDAB0AF0EE409AF4
:103820009FEDA90AB0EE40AA9FEDA70AF0EE40AACC
:103830009FEDA50AB0EE40BAD4ED000A94ED041A4B
:1038400070EEC10AB0EE600AF0EE000A0AF044FB26
:10385000B0EE40CAD4ED010A94ED051A70EEC10A2B
:10386000B0EE600AF0EE000A0AF036FB3CEE000A09
:10387000F0EE40BA0AF0CDFF84ED0B0AD4ED000A59
:1038800094ED081A70EEC10AB0EE600AF0EE000A7C
:103890000AF022FBB0EE40CAD4ED010A94ED091AF9
:1038A00070EEC10AB0EE600AF0EE000A0AF014FBF6
:1038B0003CEE000AF0EE40BA0AF0ABFF84ED0C0AD1
:1038C00094ED0B0AD4ED0C0A30EE200ADFED7D0AF0
:1038D00030EE200AF0EE000A80EE201AB0EE418AA7
:1038E000DFED780A78EE600A60EE880A94ED0B1A34
:1038F00038EE411A60EE810A94ED0C1A38EE411A46
:1039000060EE810AB0EE600A0AF083FFF0EE408AB2
:10391000B0EE000A28EE800ADFED6A0A80EE201A77
:1039200084ED0A1A94ED040AD4ED000A30EE600A20
:10393000F0EE409A94ED050AD4ED010A30EE600AEB
:10394000B0EE40AA94ED040AD4ED080A30EE600A05
:10395000F0EE40AA94ED050AD4ED090A30EE600AB3
:10396000B0EE40BA29EE8B0A0AEECA0AB0EE409ACF
:10397000B5EEC09AF1EE10FA07D294ED0A0AFFEE06
:10398000000A20EE200A84ED0A0ABDEC0A8B10BD65
:1039900010B52DED0C8B88B0B0EE40CAF0EE60CAC9
:1039A000B0EE41DAF0EE61DAB0EE428AF0EE628A11
:1039B000B0EE439AF0EE639AB0EE44AAF0EE64AA39
:1039C000B0EE45BAF0EE65BA04469FED400B8DEDC2
:1039D000060B9FED3E0B8DED040B9FED3C0B8DED2B
:1039E000020B9FED3A0B8DED000BB0EE4D1AF0EE91
:1039F0006D1AB0EE4C0AF0EE6C0A04A906A804F0A9
:103A0000B0F9B0EE4A1AF0EE6A1AB0EE490AF0EEDA
:103A1000690A694602A804F054FB9DED060B51ECBF
:103A2000100B0BF0B5FC20609DED040B51EC100B5E
:103A30000BF0AEFC606051EC180B0BF0A9FCA06021
:103A40009DED020B51EC100B0BF0A2FC20619DEDE3
:103A5000000B51EC100B0BF09BFC606151EC1B0B4D
:103A60000BF096FCA06194ED021ADFED1A0AFFEE4E
:103A7000001A41EE810AB0EE600AFFF767FE84ED9E
:103A8000030A94ED061ADFED140AFFEE001A41EE68
:103A9000810AB0EE600AFFF759FE84ED070A20465E
:103AA000FFF783FE2046FFF7A7FE08B0BDEC0C8BA6
:103AB00010BD0000000034430000B443000034C3D4
:103AC00035FA8E3C9A99993F0000000000000000F2
:103AD00000000000000087430000B44210B596B01B
:103AE00004460121084605F089FF0121102005F058
:103AF000C9FF07220921CB4805F0C5FD07220A218D
:103B0000C84805F0C0FD00208DF8560001208DF852
:103B1000570002208DF854000002149002208DF806
:103B2000550014A9BF4805F023FD02208DF854006C
:103B30004002149014A9BB4805F01AFDBA4806F0DB
:103B4000EDFE10940020ADF84400ADF84600ADF84D
:103B50004800ADF84C000C20ADF84A0010A9B2485E
:103B600006F02AFF002240F22551AF4807F062F824
:103B7000002240F22661AC4807F05CF8012240F2D6
:103B80002441A94807F056F80121A74806F09CFFF8
:103B90000121880505F032FF01224021A24807F0EB
:103BA00040F801228021A04807F03BF825208DF83D
:103BB0003C0001208DF83D008DF83E008DF83F005F
:103BC0000FA804F0A2FC46208DF83C0002208DF8DE
:103BD0003D008DF83E0001208DF83F000FA804F055
:103BE00094FC3A208DF83C0000208DF83D00022026
:103BF0008DF83E0001208DF83F000FA804F085FCF1
:103C00008A4805F0E5F94FF0006000908648001DF5
:103C100001908748029000200390802004900020AB
:103C200005904FF4806006900020079008904FF4B4
:103C3000807009904FF440300A9000200B900C9057
:103C40000D900E906946794805F064FA0121774895
:103C500005F09AFA7548783005F0BAF94FF000602F
:103C600000907148001D019072480290402003901E
:103C700080000490002005904FF4806006900020A2
:103C80000790089009904FF480300A9000200B9024
:103C90000C900D900E9069466448783005F03AFA21
:103CA00001228021604806F0BCFF012210215F48FC
:103CB000783005F0F6FA00215C48783005F064FAB7
:103CC00016B010BD02465068081A80B2704770B531
:103CD0000024002540F22551534806F0E6FF18B1B4
:103CE000514806F020FFC4B240F224414E4806F08D
:103CF000DCFF00B34E48FCF7F0FD80214B48FFF796
:103D0000E1FF4D4908800021484805F03DFA00BF19
:103D1000464805F086FA0028FAD18021434805F08C
:103D200054FA0121414805F02FFA3F480088C5B2F6
:103D30003D488088C5B270BD10B5044600BF202143
:103D4000394806F09CFF0028F9D0374806F0EBFE12
:103D500010BD70B504460D4638480078F0B9002112
:103D60003248783005F010FA00BF3048783005F05E
:103D700058FA0028F9D1002221462C48783005F065
:103D800041FAA9B22948783005F01FFA01212748E5
:103D9000783005F0F9F901202849087070BD70B538
:103DA00005460E46002400BF04E0285D2149085561
:103DB000601CC4B2B442F8DB31461E48FFF7C9FFAD
:103DC00070BD0FB438B505A800901A48009A049940
:103DD00007F098F900200090164807F0B7F904465C
:103DE00021461448FFF7B5FF38BC5DF814FB10B549
:103DF00013490E4805F072FA18B111490B4805F045
:103E000097FA10BD10B50F490848783005F066FAEA
:103E100038B10020094908700A490448783005F093
:103E200087FA10BD000002400010014040640240CB
:103E300088010020080200204E0000204C000020D5
:103E4000008020100080002810B504466FF00400A8
:103E500004F0A8FBE11704EB5171C1F3C701404A1C
:103E600011701046007800EB4001C1EBC0104FF616
:103E7000FF7101EAC0003B49088010BD0146384A85
:103E800012784A434FF0E0235A6100229A611A46A1
:103E9000126942F001021A6100BF4FF0E02210697E
:103EA00000F001021AB100F48032002AF5D04FF080
:103EB000E022126922F001024FF0E0231A61002291
:103EC0009A6170470146274A12884A434FF0E0231F
:103ED0005A6100229A611A46126942F001021A617F
:103EE00000BF4FF0E022106900F001021AB100F4A7
:103EF0008032002AF5D04FF0E022126922F0010250
:103F00004FF0E0231A6100229A61704770B50446B1
:103F10004FF4077094FBF0F0C6B24FF4077094FBB7
:103F2000F0F100FB114085B205E04FF40770FFF798
:103F3000C9FF701EC6B2002EF7D115B12846FFF793
:103F4000C1FF70BD10B5002107E04AF2104200BF6A
:103F5000131EA2F10102FBD1491C8142F5D310BD11
:103F6000500000205200002010B58AB00446012104
:103F7000084605F043FD0121480605F072FD0922BF
:103F80000C21FC4805F07FFB09220B21F94805F0C4
:103F90007AFB4FF4C050019002208DF808000020F9
:103FA0008DF80A0003208DF8090001A9F14805F0F9
:103FB000DFFA14208DF8000001208DF801000220A6
:103FC0008DF8020001208DF80300684604F09DFA88
:103FD00015208DF8000001208DF8010002208DF8D9
:103FE000020001208DF80300684604F08EFA1320C9
:103FF0008DF8000001208DF801008DF802008DF889
:104000000300684604F081FADB4804F0E9FA07A8E7
:1040100004F00AFC00208DF822008DF823008DF8B2
:1040200024008DF825008DF8260001208DF827004A
:1040300000208DF81E008DF81F0008208DF820004C
:1040400003208DF821000620ADF81C0007A9CA48FE
:1040500004F0DFFAC948048000208DF816008DF8BE
:10406000170001208DF818004FF6FF7000EA441089
:10407000ADF80C000020ADF80E004FF6FF70ADF863
:104080001000401EADF812000020ADF81400012011
:104090008DF8190003A804F046FB01208DF81600E6
:1040A00000208DF8170001208DF81800601C4FF6D5
:1040B000FF7101EA4010ADF80C000020ADF80E00D1
:1040C0000846ADF81000401EADF812000020ADF813
:1040D000140001208DF8190003A804F024FB02202D
:1040E0008DF8160000208DF8170001208DF81800BB
:1040F000A01C4FF6FF7101EA4010ADF80C00002043
:10410000ADF80E000846ADF81000401EADF81200E4
:104110000020ADF8140001208DF8190003A804F068
:1041200002FB03208DF8160000208DF817000120F7
:104130008DF81800E01C4FF6FF7101EA4010ADF851
:104140000C000020ADF80E000846ADF81000401E2F
:10415000ADF812000020ADF8140001208DF8190010
:1041600003A804F0E0FA04208DF8160000208DF872
:10417000170001208DF81800201D4FF6FF7101EA8D
:104180004010ADF80C000020ADF80E000846ADF868
:104190001000401EADF812000020ADF81400012000
:1041A0008DF8190003A804F0BEFA05208DF816005A
:1041B00000208DF8170001208DF81800601D4FF6C3
:1041C000FF7101EA4010ADF80C000020ADF80E00C0
:1041D0000846ADF81000401EADF812000020ADF802
:1041E000140001208DF8190003A804F09CFA0620A1
:1041F0008DF8160000208DF8170001208DF81800AA
:10420000A01D4FF6FF7101EA4010ADF80C00002030
:10421000ADF80E000846ADF81000401EADF81200D3
:104220000020ADF8140001208DF8190003A804F057
:104230007AFA07208DF8160000208DF8170001206B
:104240008DF81800E01D4FF6FF7101EA4010ADF83F
:104250000C000020ADF80E000846ADF81000401E1E
:10426000ADF812000020ADF8140001208DF81900FF
:1042700003A804F058FA08208DF8160000208DF8E5
:10428000170001208DF8180004F108004FF6FF71A7
:1042900001EA4010ADF80C000020ADF80E00084611
:1042A000ADF81000401EADF812000020ADF814006B
:1042B00001208DF8190003A804F035FA012202212B
:1042C0002D4804F02FFD012210212B4804F02AFD77
:1042D00001221146284804F025FD0AB010BD10B592
:1042E0000121254804F086FD30B1012024490870E1
:1042F0000121214804F019FE10BD00B585B002214E
:104300001D4804F077FD98B302211B4804F00DFE10
:104310006A460021184804F0EAFB18480088401C4F
:104320000099814224D015480088801C0099814260
:104330001ED012480088C01C0099814218D00F4836
:104340000088001D0099814212D00C480088401D51
:10435000009981420CD009480088801D0099814253
:1043600006D006480088C01D0099814200D000BFD9
:1043700005B000BD00000240006400405400002071
:104380005600002000B585B01021324804F032FDFF
:1043900040B110212F4804F0C8FD6A4601212D4884
:1043A00004F0A5FB05B000BDF0B585B006460F468C
:1043B0001546002400208DF808008DF809008DF8BE
:1043C0000A50009600BF05E0395D0DF10B00015564
:1043D000601CC4B2AC42F7DB01E0601CC4B26946A9
:1043E0001C4804F08FFA042801D17F2CF5DB05B0BE
:1043F000F0BD2DE9F04186B006460F461546002473
:10440000A04604208DF80C0000208DF80D008DF8DA
:104410000E50029600BF05E0395D0DF10F00015509
:10442000601CC4B2AC42F7DB09E008F1010000F007
:10443000FF08B8F1050F02DD4FF0000805E001A903
:10444000044804F05FFA0428EFD000BF06B0BDE8CE
:10445000F08100000064004010B58AB004460121DC
:10446000022005F0CBFA0121880605F0FAFA0922AC
:104470000C21FA4805F007F909220D21F74805F04B
:1044800002F94FF44050019002208DF808000020FE
:104490008DF80A0003208DF8090001A9EF4805F006
:1044A00067F840208DF8000001208DF801000220FF
:1044B0008DF8020001208DF80300684604F025F80D
:1044C00041208DF8000001208DF8010002208DF8B8
:1044D000020001208DF80300684604F016F83F2022
:1044E0008DF8000001208DF801008DF802008DF894
:1044F0000300684604F009F8D94804F071F807A8E9
:1045000004F092F900208DF822008DF823008DF838
:1045100024008DF825008DF8260001208DF8270055
:1045200000208DF81E008DF81F0008208DF8200057
:1045300003208DF821000C20ADF81C0007A9C84805
:1045400004F067F80E208DF8160000208DF8170093
:1045500001208DF818004FF6FF7000EA4410ADF806
:104560000C000020ADF80E00ADF81000ADF8120000
:10457000ADF8140001208DF8190003A804F0D3F859
:104580000F208DF8160000208DF8170001208DF8FF
:104590001800601C4FF6FF7101EA4010ADF80C00E6
:1045A0000020ADF80E00ADF81000ADF81200ADF827
:1045B000140001208DF8190003A804F0B4F81020AD
:1045C0008DF8160000208DF8170001208DF81800D6
:1045D000A01C4FF6FF7101EA4010ADF80C0000205E
:1045E000ADF80E00ADF81000ADF81200ADF81400F3
:1045F00001208DF8190003A804F095F811208DF81A
:10460000160000208DF8170001208DF81800C0203A
:10461000ADF80C000020ADF80E00ADF81000ADF8BC
:104620001200ADF8140001208DF8190003A804F061
:104630007AF812208DF8160000208DF8170001205E
:104640008DF81800E020ADF80C000020ADF80E0049
:10465000ADF81000ADF81200ADF8140001208DF88F
:10466000190003A804F05FF813208DF8160000204D
:104670008DF8170001208DF8180044F22000ADF8E5
:104680000C000020ADF80E00ADF81000ADF81200DF
:10469000ADF8140001208DF8190003A804F043F8C8
:1046A000012202216E4804F03DFB012210216C48DA
:1046B00004F038FB01221146694804F033FB0AB0CC
:1046C00010BD10B50121664804F094FB30B1012102
:1046D000634804F02AFC01206249087010BD10B53F
:1046E00086B002215E4804F085FB002879D00221C3
:1046F0005B4804F01AFC01AA0021594804F0F7F9BC
:10470000594C0298A04237D19DF810009DF80F1027
:1047100040EA012000EE100AB8EEC00AF2EE040AE8
:1047200080EE201A514880ED001A9DF814109DF873
:10473000130041EA002000EE100AB8EEC00AF2EEC3
:10474000040A80EE201A9FED4A0A31EE400A4748DB
:1047500080ED010A9DF816109DF8150041EA002031
:1047600000EE100AB8EEC00AF2EE040A80EE201A3B
:104770003E4880ED021A24E0019806280FD19DF8EA
:1047800010003C4908709DF8110048709DF8111008
:104790009DF8100041EA00203649488011E0019858
:1047A00007280ED19DF81000334908709DF81100BC
:1047B00048709DF811109DF8100041EA00202E4924
:1047C000488040F20121019888422CD19DF80F00C9
:1047D0002A49887008468078012803D10220887011
:1047E00007E038E025488078022802D101202349DB
:1047F00088709DF810002149C8709DF8110008705C
:1048000008460078012802D10220087006E01B4803
:104810000078022802D10120184908709DF8120082
:104820001649487016E040F201510198884211D1B2
:104830009DF80F00114908719DF81000012802D160
:104840000220487106E09DF81000022802D10120E4
:104850000A49487100BF06B010BD000000040240C4
:1048600000680040570000200140901828080020F0
:1048700000803B45BC000020B8000020580000200C
:1048800000B585B01021414804F0B4FAE8B1102118
:104890003E4804F04AFB6A4601213C4804F027F9EF
:1048A0000098062807D19DF80C00394908709DF83A
:1048B0000D00487009E00098072806D19DF80C000B
:1048C000344908709DF80D00487005B000BD2DE911
:1048D000F04186B006460F4615460024A04600204B
:1048E0008DF80C008DF80D008DF80E50019600BF6C
:1048F00005E0395D0DF10F000155601CC4B2AC42FA
:10490000F7DB09E008F1010000F0FF08B8F1050F3E
:1049100002DD4FF0000805E001A91C4803F0F2FF9A
:104920000428EFD000BF06B0BDE8F0812DE9F041CA
:1049300086B006460F4615460024A04604208DF892
:104940000C0000208DF80D008DF80E50029600BF6F
:1049500005E0395D0DF10F000155601CC4B2AC4299
:10496000F7DB09E008F1010000F0FF08B8F1050FDE
:1049700002DD4FF0000805E001A9044803F0C2FF82
:104980000428EFD000BF06B0BDE8F0810068004009
:10499000BC000020B80000201CB50121022005F059
:1049A0002DF80121042005F05CF8684604F028FE8B
:1049B000C020009002208DF8040003208DF805002F
:1049C00001208DF807006946FE4804F0D1FD02225F
:1049D0000621FC4804F057FE02220721F94804F0A2
:1049E00052FE00231A460321F74805F066FF47F6FA
:1049F000FF70F549243108600121F34805F072FA8F
:104A00001CBDF149243102680968A1F5FE41FF3956
:104A10001144016047F6FF71EB4A24321160704780
:104A200010B5EA480068401CE8490860082004F016
:104A300028FD10BD00B585B00121880305F022F8DE
:104A40000121022004F0DAFF0820009000208DF8F8
:104A5000040003208DF8050001208DF80700694649
:104A6000D84804F085FD0321012006F073F90820E1
:104A7000029000208DF80C000C208DF80D00012014
:104A80008DF80E0002A804F085FC09208DF81000B6
:104A900003208DF8110002208DF8120001208DF8FE
:104AA000130004A803F031FD05B000BD7FB5054635
:104AB0000C460121082004F0D4FFC54805F0DCF8BD
:104AC0000295ADF804400020ADF80C00ADF80600EA
:104AD0008DF80E0001A9BE4805F07BF90121BC4804
:104AE00005F0E2F90121BA4805F028FE012211463D
:104AF000B74805F00FFE0121B54805F0F3F9322063
:104B00008DF8000000208DF8010001208DF80200D2
:104B10008DF80300684603F0F8FC7FBD10B5012155
:104B2000AB4805F00EFE00286FD0AA480078401C64
:104B3000A849087008460078192804DD002008708C
:104B40000120A5490870A5480078401CA3490870B9
:104B500008460078102801DD012008709F48007881
:104B600011281AD2DFE800F092091A2B3C434B526D
:104B7000565C6270767C80888E009948B0F900108F
:104B8000012001F0C1FC9748B0F900209648B0F927
:104B9000001040F2031001F06DFD77E09348B0F98A
:104BA0000010022001F0B0FC9148B0F900209148BB
:104BB000B0F900104FF4817001F043FD66E08E48BB
:104BC000B0F90010032001F09FFC8C48B0F90020E0
:104BD0008B48B0F9001040F2011001F019FD55E0CA
:104BE0008848B0F90010042001F08EFC4EE08648A1
:104BF0000168052001F03AFC01F0AEFD46E0834873
:104C00000188052001F04CFC40E044E0052001F063
:104C100061FC3BE07E480168062001F027FC35E09E
:104C20007A480188062001F03BFC2FE0062001F0C5
:104C300051FC7248B0F900207148B0F9001040F200
:104C4000011001F0E5FC21E072480168072001F045
:104C50000DFC1BE06D480188072001F021FC15E0E8
:104C6000072001F037FC11E06B480168082001F0D3
:104C7000FDFBFCF7A9F909E064480188082001F070
:104C80000FFC03E0082001F025FC00BF00BF01215C
:104C90004F4805F067FD10BD00B589B00121022025
:104CA00004F0DFFE0121084604F0DBFE0020ADF831
:104CB0001800ADF81A004FF6FF7007900020ADF80D
:104CC00020008DF8220006A9544805F082F806A9B4
:104CD0004FF0804005F07DF80020ADF80400ADF8FD
:104CE0001000ADF80600039001A94FF0804005F0D8
:104CF00005F901A94FF0804005F039F901A94748AD
:104D000005F0FCF801A9454805F031F901A943482F
:104D100005F07AF901A9414805F0DCF900214FF0CE
:104D2000804005F078FA00214FF0804005F07CFAD1
:104D300000213A4805F06FFA0021384805F074FA6E
:104D40000021364805F07DFA0021344805F082FA4A
:104D50000121880705F0A8F80121304805F0A4F8E2
:104D60000221480705F0FEFC01220221480705F058
:104D7000D1FC0421080705F0F5FC012204210807F5
:104D800005F0C8FC0221254805F0ECFC01220221B7
:104D9000224805F0BFFC0421204805F0E3FC012275
:104DA00004211E4805F0B6FC08211C4805F0DAFC79
:104DB00001220821194805F0ADFC1021174805F023
:104DC000D1FC2DE0000402400008004060000020FB
:104DD000000C0040650000206400002068000020F6
:104DE00094000020B6000020B400002096000020AF
:104DF000B2000020B000002098000020AE0000208B
:104E0000AC0000209A0000209C00002066000020DA
:104E1000A0000020A4000020A80000200004004002
:104E2000012210216B4805F075FC1D208DF8000053
:104E300001208DF8010003208DF8020001208DF87B
:104E40000300684603F061FB1C208DF800006846F3
:104E500003F05BFB00214FF0804005F0A6FC07212A
:104E60004FF0804005F017FD8021C80505F01CFDBE
:104E70003021584805F099FC0721564805F00BFDF4
:104E80008021544805F010FD0121880705F02AF81B
:104E90000121504805F026F809B000BD00B589B0E1
:104EA0000121084604F0EEFD0121042004F0D9FDA3
:104EB000494804F0E1FE494804F0DEFE5320ADF815
:104EC00018000020ADF81A0040F23F600790002063
:104ED000ADF820008DF8220006A9404804F079FFC3
:104EE0005320ADF818000020ADF81A0040F67F40BE
:104EF00007900020ADF820008DF8220006A9364862
:104F000004F067FF01A805F01DF96020ADF804006A
:104F10000120ADF806000020ADF81000039001A9B3
:104F20002D4804F0EBFF01A92B4805F020F801A95A
:104F30002A4804F0E3FF01A9284805F018F801A960
:104F4000264805F061F801A9244805F0C3F80821B6
:104F5000214805F060F908211F4805F065F908218E
:104F60001E4805F058F908211C4805F05DF9082194
:104F70001A4805F066F90821184805F06BF9012177
:104F8000154804F091FF0121144804F08DFF012120
:104F9000114804F0A7FF0121104804F0A3FF2021CD
:104FA0000E4805F06FFC80210C4805F07DFC2021A7
:104FB000094805F067FC8021074805F075FC0121D0
:104FC000054805F080FB0121044805F07CFB09B091
:104FD00000BD000000040040000001400008004047
:104FE00000B587B00121814804F008FD0121480483
:104FF00004F037FD072203217D4804F044FB08201C
:10500000059002208DF8180000208DF81A0003206A
:105010008DF8190000208DF81B0005A9744804F0D4
:10502000A7FA744805F07AFC734801900020ADF8A7
:1050300008004FF40050ADF80A00C010ADF80C00A5
:105040000420ADF80E000020ADF8100001A9694859
:1050500005F0B2FC012240F22551664805F0EAFD58
:105060000121644805F030FD26208DF80000002065
:105070008DF8010001208DF802008DF803006846CC
:1050800003F043FA07B000BD5C480078401C5B4960
:10509000087008460078642804DD64200870002049
:1050A00057490870704710B540F22551514805F036
:1050B000FCFD00287ED04F4805F035FD51490870B1
:1050C0005148007838B9084600780F282AD1FF20C7
:1050D0004D49087026E04B4800784C494C4A1278FC
:1050E00088544B480078172811D10846C07D022803
:1050F00002D00846C07D18B9FF204649087006E076
:1051000000204149087043490870414908704048EF
:105110000078401C3E49087008460078182801DDD8
:10512000002008703B48007800285ED0374800789F
:105130003649497840EA0120C0F30A003649088020
:105140003248807840013149497840EAE100C0F3B3
:105150000A00324908802D48807880112B49C9788F
:1051600040EA81002949097940EA8120C0F30A0018
:105170002B4908802548007940102449497940EAA4
:10518000C110C0F30A00274908802048407A00F087
:105190000F00254908801D48807900F00F00401C51
:1051A000224908801948807A214908801748007AE6
:1051B000204900E019E008800020134908701549D3
:1051C0000870134908701148807D0C2803D1002015
:1051D0000B49087005E000200849087001200849C3
:1051E00008700421144804F04AFA10BD01002000A0
:1051F0000000024000440040A0860100730000202F
:10520000720000207E0000208000002008030020A3
:105210007F000020810000206A0000206C00002038
:105220006E00002070000020740000207800002034
:10523000760000207A0000200010024010B50246DF
:10524000002006E0137843400C4CE05C521C4B1EDF
:10525000D9B20029F6DC10BD30B50346002006E0C7
:105260001C784440054D285D5B1C4C1EE1B20029B2
:10527000F6DC80EA0204014D285D30BDEC02010835
:105280001CB50121102004F0B9FB0420009001207E
:105290008DF8040000208DF8060003208DF805002D
:1052A00001208DF8070069461C4804F061F91CBD17
:1052B0001CB50121082004F0A1FBC02000900120B2
:1052C0008DF8040000208DF8060003208DF80500FD
:1052D00001208DF807006946114804F049F9402182
:1052E0000F4804F0C1F980210D4804F0BDF91CBD40
:1052F0001CB50121102004F081FB4FF4A050009058
:1053000000208DF8040003208DF8050001208DF8A1
:1053100007006946014804F02BF91CBD001002404B
:10532000000C024000BF704700BFFE4A128802F026
:105330004002002AF9D0C2B2FA4B9A80704710B5E9
:1053400096B004460121880404F08BFB0121022061
:1053500004F054FB0121480504F050FB07220A2108
:10536000F14804F090F907220B21EF4804F08BF983
:1053700014A804F045F94FF48060149002208DF8D1
:10538000540003208DF8550014A9E74804F0F0F804
:105390004FF40060149002208DF8540003208DF823
:1053A000550014A9E04804F0E3F8E04805F0B6FA27
:1053B00010A805F067FB10940020ADF84400ADF88C
:1053C0004600ADF84800ADF84C000C20ADF84A009E
:1053D00010A9D64805F0F0FA0121D44805F074FB75
:1053E0000C208DF83C0002208DF83D008DF83E0029
:1053F00001208DF83F000FA803F087F8CC4803F098
:10540000E7FD4FF000600090C848001D0190C948BA
:105410000290002003904FF48070049000200590CB
:105420004FF4806006900020079008904FF4807041
:1054300009904FF440300A9000200B900C900D9092
:105440000E906946BA4803F065FE01221021B84863
:1054500003F027FF01224021B44805F0E2FB0121BF
:10546000B34803F091FE0E208DF83C0001208DF82A
:105470003D0002208DF83E0001208DF83F000FA86E
:1054800003F043F8AA48303003F0A2FD4FF000606B
:105490000090A648001D0190A7480290402003906C
:1054A00080200490002005904FF48060069000203A
:1054B0000790089009904FF480300A9000200B90DC
:1054C0000C900D900E9069469948303003F022FE02
:1054D00001228021954805F0A4FB01221021944867
:1054E000303003F0DEFE00219148303003F04CFEF6
:1054F00016B010BD02465068081A80B2704770B5E9
:10550000002500BF40F22551884805F0CEFB40B190
:10551000864805F008FBC5B240F22551834805F0E6
:10552000FBFB40F22441814805F0BFFB18B38148E2
:1055300001F0EBFD4FF480717D48FFF7DBFF7F4901
:10554000088000217A4803F01FFE00BF784803F06E
:1055500068FE0028FAD179480188754803F035FEC5
:105560000121734803F010FE70480088C4B26F48F0
:10557000001D0088C4B270BD70B504460D46704869
:105580000078F0B900216A48303003F0FDFD00BF1B
:105590006748303003F045FE0028F9D1002221464B
:1055A0006348303003F02EFEA9B26148303003F07A
:1055B0000CFE01215E48303003F0E6FD0120604919
:1055C000087070BD70B505460E46002400BF04E0AB
:1055D000285D59490855601CC4B2B442F8DB314615
:1055E0005548FFF7C9FF70BD10B55649504803F044
:1055F00075FE30B14F4801F088FD52494C4803F028
:1056000097FE10BD0FB438B505A800904A48009A1F
:10561000049905F077FD00200090474805F096FDBD
:10562000044621464448FFF7A7FF38BC5DF814FB49
:1056300010B545493E48303003F050FE38B10020E7
:105640003F49087040493A48303003F071FE10BDC0
:1056500010B596B004460121C80404F002FA0121F5
:10566000042004F0CBF90121480504F0C7F9082211
:105670000A21364804F007F808220B21334804F0C9
:1056800002F814A803F0BCFF4FF4806014900220CD
:105690008DF8540003208DF8550014A92B4803F011
:1056A00067FF4FF40060149002208DF8540003202F
:1056B0008DF8550014A9254803F05AFF10A805F0ED
:1056C000E1F910940020ADF84400ADF84600ADF8C3
:1056D0004800ADF84C000C20ADF84A0010A91C4859
:1056E00005F06AF90D208DF83C0002208DF83D0090
:1056F0008DF83E0001208DF83F000FA802F005FF55
:105700000B48183003F064FC4FF000600090104824
:10571000001D01900F48029000200390802004900B
:10572000002019E000100140000402400048004041
:1057300028600240A8030020280300208A000020DF
:105740008800002000880010008000180008024037
:10575000004C00402805002005904FF48060069022
:105760000020079008904FF48070099040020A9042
:1057700000200B900C900D900E906946FE4803F0AF
:10578000C9FC01224021FD4805F04BFA0121FA48ED
:1057900003F0FAFC002240F22551F84805F04AFADD
:1057A000002240F22661F54805F044FA012240F259
:1057B0002441F24805F03EFA34208DF83C000220E6
:1057C0008DF83D0003208DF83E0001208DF83F004C
:1057D0000FA802F09AFE0121E84805F075F9E648A5
:1057E000303003F0F5FB4FF000600090E348001DFF
:1057F0000190E34802904020039080200490002014
:1058000005904FF480600690002007900890099062
:105810004FF480300A9000200B900C900D900E9069
:105820006946D548303003F075FC01228021D34809
:1058300005F0F7F901221021CF48303003F031FD97
:105840000021CD48303003F09FFC0F208DF83C0044
:1058500002208DF83D008DF83E0001208DF83F00BC
:105860000FA802F052FE16B010BD02465068081A8A
:1058700080B2704770B50024002540F22551BF4822
:1058800005F013FA40B1BD4805F04DF9C4B240F23D
:105890002551BA4805F040FA40F22441B74805F0D6
:1058A00004FA08B3B748FBF736F88021B248FFF78F
:1058B000DCFFB54908700021AF4803F065FC00BF6C
:1058C000AD4803F0AEFC0028FAD18021AA4803F0CD
:1058D0007CFC0121A84803F057FCA8480088C5B209
:1058E000A648001D0088C5B270BD70B504460D46BF
:1058F000A6480078F0B900219F48303003F044FCFE
:1059000000BF9D48303003F08CFC0028F9D1002204
:1059100021469948303003F075FCA9B296483030E2
:1059200003F053FC01219448303003F02DFC01209A
:105930009649087070BD70B505460E46002400BF3C
:1059400004E0285D8E490855601CC4B2B442F8DBFF
:1059500031468B48FFF7C9FF70BD10B58C498648AA
:10596000303003F0BBFC60B10020884908708949E1
:105970008148303003F081FC86497F48303003F0A5
:10598000D7FC10BD10B584497B4803F0A7FC48B193
:105990004FF08151784803F070FC4FF08151764808
:1059A00003F0C6FC10BD0FB438B505A800907448CC
:1059B000009A049905F0A6FB00200090704805F0BD
:1059C000C5FB044621466E48FFF78FFF38BC5DF8E3
:1059D00014FB10B596B004460121042004F00EF823
:1059E0000121082004F00AF80121080504F039F823
:1059F0000121480504F002F808220221674803F05B
:105A000042FE08220C21664803F03DFE042014905B
:105A100002208DF8540003208DF8550000208DF8E9
:105A2000560001208DF8570014A95C4803F0A0FD32
:105A30004FF48050149014A9594803F099FD109424
:105A40000020ADF84400ADF84600ADF84800ADF8D0
:105A50004C000C20ADF84A0010A9524804F0ACFFED
:105A60000B208DF83C0002208DF83D008DF83E00A3
:105A700001208DF83F000FA802F047FD3E48303866
:105A800003F0A6FA4FF0006000904648001D019018
:105A9000454802900020039080200490002005904B
:105AA0004FF4806006900020079008904FF48070BB
:105AB000099040020A9000200B900C900D900E90DF
:105AC00069462D48303803F025FB01224021354836
:105AD00005F0A7F801212848303803F055FB0022D3
