:020000040800F2
:100000004024002021930008290700082B0700083E
:100010003B0700083F0700084307000800000000F6
:100020000000000000000000000000003393000802
:1000300047070008000000003793000839930008C4
:100040003B9300083B9300083B9300083B93000858
:100050003B9300083B9300083B9300083B93000848
:100060003B930008293300083B9300083B930008AA
:10007000FF3E00089D420008413F0008734200080F
:100080003B9300083B9300083B930008452C000875
:10009000612C0008852C00083B9300083B93000866
:1000A0003B9300083B9300083B9300083B930008F8
:1000B0003B9300083B9300083B9300083B930008E8
:1000C0003B9300083B9300083B9300083B930008D8
:1000D0003B93000853280008AB390008153E000880
:1000E0003B9300083B9300083B9300083B930008B8
:1000F0003B9300083B9300083B9300084B450008E6
:100100003B9300083B930008253400083B9300080C
:100110008B410008DD4400083B9300083B93000836
:100120003B93000875480008792900083B930008B4
:100130003B9300083B9300083B930008CB2F00083B
:10014000E72F0008893100083B9300083B93000823
:100150003B930008D54800088F290008094800088B
:100160003B9300083B9300083B9300083B93000837
:100170003B9300083B9300083B9300083B93000827
:100180003B9300083B93000800F002F800F092F85F
:100190000AA090E8000C82448344AAF10107DA45E2
:1001A00001D100F087F8AFF2090EBAE80F0013F0A2
:1001B000010F18BFFB1A43F0010318477CDD000054
:1001C0009CDD0000103A24BF78C878C1FAD85207E5
:1001D00024BF30C830C144BF04680C6070470000C1
:1001E0000023002400250026103A28BF78C1FBD840
:1001F000520728BF30C148BF0B6070476E2909F015
:100200007183702909F0D98666290DF0D18365299B
:100210000DF0CE8367290DF0CB8361290DF0CA83E1
:1002200003681B0A28BF41F08001692909F0888111
:10023000642909F08581752909F082816F2909F007
:100240006686782909F0A586E92909F00186E4295E
:1002500009F0FE85F52909F0FB85EF2909F0638691
:10026000F82909F0A4860368DB0928BF41F0800162
:10027000632909F08285732909F08785E3290AF04B
:10028000BD80F3290AF0C280002070471FB50DF031
:100290004EFB09F09DFE0400002000210CF06CFCD8
:1002A000401C6060002000210CF050FCE0601FBD8D
:1002B00010B510BD0AF044F91146FFF7E7FF00F052
:1002C00055F80AF06BF903B4FFF7F2FF03BC03F033
:1002D000A5FC000010B54FF4A06006F0B7FAA82006
:1002E00002F078FB03F048FC03F05EFC03F07CFCBA
:1002F0004FF4E13002F0B4F903F0F4FA4FF47A70FD
:1003000002F0CAFB012002F0F5FBC82002F0C4FB9A
:1003100040F2015002F024FD642002F0BDFB5321A5
:1003200040F2CF7003F046F8AEA002F00FFB10BD14
:1003300010B5B1480078401CAF49087008460078F5
:10034000142812DDAD4800880D280ED1AC48007885
:1003500058B1AC484388AC484288AC480178ACA05E
:1003600002F0F4FA0020A449087010BD2DED048BB2
:1003700082B09FEDAE0BB0EE408AF0EE608AFFF7E0
:10038000A9FF04F0DBFB002000F07CFB642002F0FE
:1003900083FB26E1A74800780028FAD000F0A8FCEB
:1003A0009A48007830B101280FD002286CD0032879
:1003B0000AD1D7E004F042FD04F0ADFD642002F064
:1003C0006BFB9DA002F0C2FA01E18C4800880D2869
:1003D0000DD19D48008802B29C48008801B29C481B
:1003E000008800B201F08BFD04F095FD19E0834810
:1003F000008801280DD19748008802B293480088F0
:1004000001B29348008800B202F0D3F804F016FD60
:1004100007E07A4800880F2803D10121084600F040
:1004200031FE8D48008864282DDD9FED8C3B9FEDCB
:100430008D2B9FED8E1B9FED8F0B06F059F8B0EEC4
:10044000408AF0EE608A9FED8D3B9FED8E2B9FEDF5
:100450008F1B9FED900B05F09DFEB0EE409AF0EEE5
:10046000609A642002F018FB8DED009B53EC182B72
:100470008AA002F06BFA8F480078042802D1052088
:100480008C49087000BFA2E08B48007860B18A48B0
:10049000407848B98748007830B90120854908700C
:1004A000854800788449487082480078092857D2E6
:1004B000DFE800F0050E561A2A31564A5200642031
:1004C00002F0EAFA00F05CFC7CA002F03FFA47E0A0
:1004D0000121084600F0D6FD0121084600F04AFB44
:1004E000012000F0CFFA3BE00021022000F0CAFD1D
:1004F0007E48007838B17D480078072803D0022173
:10050000002000F037FB2BE0642002F0C5FA78A051
:1005100002F01CFA24E00021012000F0B3FD804825
:10052000007810B1002000F0ADFA7D48007807286F
:1005300003D10221012000F01DFB6C480078072840
:1005400001D15C4908700BE00121022000F09AFD06
:10055000022000F097FA03E000205649087000BF1F
:1005600000BF34E06F4B93ED030ABDEEC00A10EEFE
:10057000103A1AB26B4B93ED020ABDEEC00A10EEB0
:10058000103A19B2674B93ED010ABDEEC00A10EEA6
:10059000103A18B201F0B3FC624B93ED060ABDEEBF
:1005A000C00A10EE103A1AB25E4B93ED050ABDEE8A
:1005B000C00A10EE103A19B25A4B93ED040ABDEE80
:1005C000C00A10EE103A18B201F0F3FF00BF00BFEE
:1005D00000F0BAFB00F0B7FB03F0D8F90020154992
:1005E0000870D7E673797320696E69742066696E46
:1005F000697368210D0A00000000002058000020E7
:1006000052000020A4000020A00000200A000020CA
:100610006D6F64653A256420686D63663A256420D1
:10062000686D63623A25640D0A0000000000000056
:1006300000000000440000207374616E6462792E33
:100640002E2E0D0A00000000500000204C0000205B
:100650004A0000204E00002056000020C5D84E035E
:1006600022843E40BAA0053B9A9E5D408A6F56B4F4
:1006700021843E40B40C482D9A9E5D40A13B987F5A
:100680003ADC3E4044A32FCCFFB25D40D188E30A60
:1006900039DC3E40C49F974000B35D4064697320DD
:1006A00069733A256C666D2C616E673A256C660D30
:1006B0000A0000000B000020010000207461736B31
:1006C000206F6B2C706C616E6520696E20686F6D99
:1006D000652C616776206973206368617267696E53
:1006E00067206E6F772E2E2E0D0A00000900002065
:1006F0007461736B206F6B2C706C616E65206F750D
:100700007420686F6D652C6167762069732063685B
:10071000617267696E67206E6F772E2E2E0D0A004C
:1007200008000020E4000020704705E006A002F069
:100730000DF9642002F0B0F9F8E700BFFEE700BF52
:10074000FEE700BFFEE77047686172646661756C22
:10075000742E2E2E0D0A000010B5A2B000248021A8
:1007600002A809F01EF800200190F1222146641C25
:1007700002A8425401222146641C4254641CBB4816
:1007800090ED000A8DED010A9DF804202146641CBD
:1007900002A842549DF805202146641C42549DF84D
:1007A00006202146641C42549DF807202146641C03
:1007B0004254AE4890ED010A8DED010A9DF80420E7
:1007C0002046611CCCB202A90A549DF8052020469F
:1007D000611CCCB202A90A549DF806202046611C77
:1007E000CCB202A90A549DF807202046611CCCB265
:1007F00002A90A549D4890ED020A8DED010A9DF868
:1008000004202046611CCCB202A90A549DF80520A0
:100810002046611CCCB202A90A549DF8062020464D
:10082000611CCCB202A90A549DF807202146601C25
:10083000C4B202A8425408222046611CCCB202A9CC
:100840000A5419222046611CCCB202A90A548DF820
:100850000A40A01EC1B202A803F06CF9A11E02AAB0
:100860005054214602A802F05FF822B010BD10B526
:100870008178022900DA10BD8B1EC25C0378F12B4F
:1008800001D1012300E000234478022C01D101248E
:1008900000E00024234033B1C378754C2370037902
:1008A000E3704379237100BFE5E710B58178022931
:1008B00000DA10BD8B1EC25C0378712B01D10123BD
:1008C00000E000234478082C01D1012400E000243A
:1008D0002340E3B3C378674C63700379A370437913
:1008E000E370C379847943EA042300EE103AB8EE4A
:1008F000C00A604B83ED010A437A047A43EA042379
:1009000000EE103AB8EEC00A5A4B83ED020AC37AE1
:10091000847A43EA042300EE103AB8EEC00A554B3D
:1009200083ED030A437B047B43EA042300EE103A81
:10093000B8EEC00A4F4B83ED040AC37B847B43EAC5
:10094000042300EE103AB8EEC00A4A4B00E00CE077
:1009500083ED050A437C047C43EA042300EE103A4D
:10096000B8EEC00A434B83ED060A00BFA1E710B5FD
:1009700090B000244021684608F013FF3E480078FC
:10098000401C3D490870084600780A286BDD0020AD
:10099000087071222046611CCCB20DF8002007229D
:1009A0002046611CCCB20DF80020601CC4B2334854
:1009B00002782046611CCCB20DF8002000222046AF
:1009C000611CCCB20DF800202046611CCCB20DF8A1
:1009D00000202B4802782046611CCCB20DF8002084
:1009E000274842782046611CCCB20DF800202448EC
:1009F00082782046611CCCB20DF800202048C278D5
:100A00002046611CCCB20DF800201D48027920461A
:100A1000611CCCB20DF80020194842792046611CB7
:100A2000CCB20DF8002000222046611CCCB20DF89B
:100A3000002008222046611CCCB20DF800201922AB
:100A40002046611CCCB20DF800208DF80240A01E9B
:100A5000C1B2684603F06EF8A11E0DF801002146F0
:100A6000684603F0F4FB10B010BD0000A00E00209B
:100A700001000020E4000020060000200A00002001
:100A80003800002010B50446002C47D0FE480078FE
:100A9000012806D0022814D0032822D004283CD1F3
:100AA00032E004F063FAF9488078022808D1F74868
:100AB000C078022804D104F060FA0220F2490870DC
:100AC0002BE004F067FAF1480079012808D1EF48DB
:100AD0004079012804D104F064FA0320EA4908703F
:100AE0001BE004F026FAE948007801280BD1E7481A
:100AF0004078012807D104F02BFA0420E24908705D
:100B0000E3A001F023FF08E00720DF490870012C73
:100B100002D10320E549087000BF2AE000BF04F0BD
:100B200025FA04F037FA04F004FAD848807802284D
:100B3000F5D1D648C0780228F1D1D44800790128EF
:100B4000EDD1D24840790128E9D1D0480078012878
:100B5000E5D1CE4840780128E1D104F00EFA04F046
:100B600020FA04F0F5F90720C7490870D0A001F079
:100B7000EDFE10BD70B505460C46012D70D1D34871
:100B80000078012812D1D148407801280ED1CF48F1
:100B9000807858B9CD48C07840B90120CC49087058
:100BA000CA498870C870CBA001F0D0FE022C3CD19D
:100BB000C7480078012804D0022812D0032833D176
:100BC0002EE004F0E0F9B1480079022808D1AF48DE
:100BD0004079022804D104F0E4F90220BC490870ED
:100BE00022E004F0BBF904F0ABF9A8480078022831
:100BF00015D1A6484078022811D1A4488078012850
:100C00000DD1A248C078012809D104F0B6F904F04A
:100C10009FF90320AE490870B4A001F097FE03E0ED
:100C20000720AB49087000BF61E0012C5FD1A848E4
:100C30000078012804D0022813D0032834D12FE0F3
:100C400004F07EF991480078022808D18F48407856
:100C5000022804D104F07CF902209D49087023E0A9
:100C600023E004F07BF904F08EF98848007902282B
:100C700015D186484079022811D18448807801280E
:100C80000DD18248C078012809D104F076F904F02A
:100C900088F903208E49087094A001F057FE03E004
:100CA00007208B49087000BF21E005BB00BF04F09E
:100CB0006AF904F045F9754800790228F7D17348BC
:100CC00040790228F3D1714800780228EFD16F48AB
:100CD00040780228EBD104F064F904F04EF904F0F6
:100CE00037F900207A49087086A001F02FFE70BD08
:100CF0008B480078012802D18A49087022E08A488E
:100D00000078012803D10220864908701AE086483D
:100D10000078022803D100208249087012E082483E
:100D20000078032805D100207E4908705F490870CB
:100D300008E07B48007828B97B48007810B900208B
:100D4000784908707047704710B54FF48061774854
:100D500006F016FE18B901205C49087002E0002078
:100D60005A4908704FF48051704806F009FE18B9CE
:100D700001205649487002E000205449487010BDD7
:100D8000FD206B4908706B4908706B4908706B490E
:100D90000870704710B50446694890F9020010F1D8
:100DA000020F05DA674890F9020010F1020F21DB0B
:100DB000634890F9020001280BDC614890F90200B9
:100DC000B0F1FF3F05DB5F4890F90200B0F1FF3F53
:100DD00010DB5C4890F9020001281EDC594890F9AC
:100DE0000200B0F1FF3F18DB554890F90200B0F166
:100DF000FF3F12DA4620544908809FED540A5448B8
:100E000080ED000A0120534908704D4842784D4852
:100E1000417851A001F09AFD2AE1494890F9020079
:100E2000022804DD474890F9020002281FDC4448EC
:100E300090F9020001280ADC414890F90200B0F163
:100E4000FF3F04DB3F4890F9020001280FDC3D48DA
:100E500090F90200012815DC3A4890F90200B0F13F
:100E6000FF3F0FDB364890F9020001280ADD4620DB
:100E7000354908809FED350A354880ED000AFF208E
:100E8000344979E081E000000800002038000020AB
:100E900072656C6561736520706C616E6520697345
:100EA000206F6B2E2E2E0D0A000000000B0000207C
:100EB0007069636B706C616E65206973206F70651B
:100EC0006E206F6B2E2E2E0D0A0000000D000020EC
:100ED0000900002066696E6420706C616E6520698F
:100EE00073206F6B2E2E2E0D0A0000007069636B4D
:100EF00020706C616E65206973206F6B2E2E2E0D35
:100F00000A0000007069636B206D616368696E653B
:100F100020697320636C6F73652E2E2E0D0A0000FE
:100F2000520000200A0000200100002000100240B2
:100F300011000020120000201300002014000020E7
:100F4000B0000020A800002016000020000034425D
:100F5000180000201C0000207475726E20726967F2
:100F6000687420686D63663A256420686D63623A30
:100F700025640D0A000000000870FE484278FE4813
:100F80004178FEA001F0E2FC72E0FA4890F902001C
:100F9000022818DDF84890F9020010F1020F12DA69
:100FA0004620FD4908809FEDFD0AFD4880ED000ABE
:100FB0000020FC490870EF484278EF484178FAA0D9
:100FC00001F0C4FC54E0EB4890F9020010F1020F6C
:100FD00017DAE94890F90200022812DD4620EE49AE
:100FE00008809FEDF80AEE4880ED000A0020ED49E8
:100FF0000870E0484278E0484178F3A001F0A6FC90
:1010000036E0F848408888B9F748408870B9002031
:10101000E14908809FEDF50AE14880ED000A0020D3
:10102000E0490870F2A001F091FC21E0012C0AD106
:101030009620D9490880EC484288EA484188F1A0C6
:1010400001F084FC0CE0022C0AD16FF09500D2492B
:101050000880E5484288E3484188F1A001F076FC29
:101060009FEDE20ACE4880ED000A0020CD490870CD
:1010700010BD884201DD084603E04A42904200DA92
:101080004842704770B504460D46EC480088401C45
:10109000EA490880084600880A287ADD002008808E
:1010A000D0494888B44903F09BFFCF494888B149EB
:1010B00003F096FFE2480078E2490870AD48C07836
:1010C000DF490870E048007878B1DF4800780728E9
:1010D0000BD00020B04908809FEDC40AB04880EDD5
:1010E000000A0020AF49087094E2D848007878B12F
:1010F000D648007807280BD00020A74908809FED2C
:10110000BB0AA74880ED000A0020A6490870EBE75B
:10111000012D7DD1022C7CD1CD4890F90000C01C5E
:10112000D0B9C7480078012816D1C64800780128F0
:1011300012D0FE20C64908706FF0950096490880CD
:101140009FEDAA0A964880ED000A00209549087094
:10115000C0A001F0FBFBC7E7BD4890F90000801C70
:10116000E0B9B7480078012818D0B64800780128BF
:1011700014D1FF20B64908706FF0950086490880A9
:101180009FED9A0A864880ED000A00208549087084
:1011900000E0FBE3B7A001F0D9FBA5E7AC4890F96C
:1011A0000000401CD0B9A6480078012816D1A548F7
:1011B0000078012812D00020A54908706FF0950032
:1011C000754908809FED890A754880ED000A002066
:1011D00074490870AFA001F0B9FB85E79C4800781E
:1011E000E0B997480078012818D09648007801287F
:1011F00014D1974908706FF09500674908809FEDFA
:101200007B0A674880ED000A00206649087001E00B
:101210009CE27BE0AAA001F099FB65E78C4800788E
:1012200001281AD186480078012816D1854800780F
:10123000012812D00220864908706FF095005649A7
:1012400008809FED6A0A564880ED000A0020554943
:101250000870A6A001F07AFB46E77D4800780228D6
:101260001CD177480078012818D0764800780128EA
:1012700014D10320764908700020474908809FED6B
:101280005B0A474880ED000A0020464908700120AB
:101290006D490870A1A001F059FB25E76C48007862
:1012A00003280ED16648007801280AD165480078E5
:1012B000012806D0042066490870A4A001F046FB6E
:1012C00012E76348007804281CD15D4800780128A3
:1012D00018D05C480078012814D105205C490870BA
:1012E00000202D4908809FED410A2D4880ED000A1D
:1012F00000202C49087008209C4908709CA001F02F
:1013000025FBF1E60220FFF745FDEDE6012C84D137
:10131000A14890F90000C01CC8B9494800780128CC
:1013200015D148480078012811D0FE209A4908704C
:101330009620194908809FED2D0A194880ED000A72
:1013400000201849087095A001F000FBCCE69248F7
:1013500090F90000801C58B939480078012807D05E
:1013600038480078012803D1FF208B49087021E11B
:101370002FE10000B0000020A80000207475726EFC
:10138000206C65667420686D63663A256420686D1C
:1013900063623A25640D0A00160000200000B44282
:1013A000180000201C00002072756E2072696768AA
:1013B0007420686D63663A256420686D63623A251F
:1013C000640D0A000000B4C272756E206C6566740C
:1013D00020686D63663A256420686D63623A25640F
:1013E0000D0A0000A0000020A40000200000000062
:1013F0006D697373206C696E652C73746F700D0A60
:1014000000000000676F206F757420686D63663A96
:10141000256420686D63623A25640D0A00000000AF
:10142000676F206261636B20686D63663A25642094
:10143000686D63623A25640D0A0000002C000020EC
:101440001D0000201E0000200800002009000020D0
:101450001100002072656C6561736520706C616EAF
:1014600065206C696E652066696E642E2E2E0D0AED
:101470000000000072656C6561736520706C616EC0
:1014800065206C696E65206D6973732E2E2E0D0AB2
:10149000000000006669727374206C696E652066D6
:1014A000696E642C6E6F742073746F70207374692E
:1014B0006C6C20676F206261636B2E2E2E0D0A000C
:1014C0006669727374206C696E65206D6973732C24
:1014D0006E6F742073746F70207374696C6C206706
:1014E0006F206261636B2E2E2E0D0A0066696E649A
:1014F000207365636F6E64206C696E652C6167761E
:1015000020726561647920746F2072656C65617307
:101510006520706C616E650D0A0000006D69737363
:10152000207365636F6E64206C696E652C616776ED
:101530002073746F7020616E642072656C656173D6
:101540006520706C616E650D0A000000676F206297
:1015500061636B2C66696E64207468697264206CC8
:10156000696E652E2E2E0D0A000000000B00002073
:1015700066696E64207468697264206C696E6520A7
:1015800073746F702C616776206368616E67652E77
:101590002E2E0D0A00000000120000206368617208
:1015A0006765206C696E652066696E642E2E2E0D4F
:1015B0000A0000009620FB4908801FED740AFA48D3
:1015C00080ED000A0020F9490870F9A001F0BEF989
:1015D00075E3FD4890F90000401CE0B9FB48007835
:1015E000012818D1FA480078012814D00020F649C3
:1015F00008700120F74908700020EA4908801FEDB3
:10160000850AE94880ED000A0020E8490870F2A048
:1016100001F09CF953E3EC480078C0B9EB4800783E
:10162000012814D0EA480078012810D1E649087052
:101630009620DC4908801FED930ADB4880ED000A04
:101640000020DA490870ECA001F080F937E3DE48A9
:101650000078012819D1DD480078012815D1DC482F
:101660000078012811D00220D74908709620CD4972
:1016700008801FEDA20ACC4880ED000A0020CB496B
:101680000870E3A001F062F919E3CF48007802285E
:1016900019D1CE480078012815D0CD48007801280E
:1016A00011D10320C84908709620BE4908801FED5B
:1016B000B10ABD4880ED000A0020BC490870DAA0DC
:1016C00001F044F9FBE2C0480078032819D1BF4873
:1016D0000078012815D1BE480078012811D00420D7
:1016E000B94908709620AF4908801FEDC00AAE487E
:1016F00080ED000A0020AD490870D4A001F026F961
:10170000DDE2B148007804281CD1B04800780128F7
:1017100018D0AF480078012814D10520AA490870D4
:101720000020A04908801FEDCF0A9F4880ED000AE5
:1017300000209E4908700120CA490870CAA001F023
:1017400005F9BCE20120FFF725FBB8E2002D9BD193
:10175000022C7DD1CD4890F90000C01CD8B99B481F
:101760000078012817D19A480078012813D0FE206C
:10177000C64908706FF095008A4908801FEDE50A98
:10178000894880ED000A002088490870AFF23C309B
:1017900001F0DCF893E2BD4890F90000801CD8B954
:1017A0008A480078012817D089480078012813D189
:1017B000FF20B64908706FF095007A4908801FED48
:1017C000F50A794880ED000A002078490870AFF2E8
:1017D0005C3001F0BBF872E2AC4890F90000401CAC
:1017E000E0B97A480078012818D1794800780128B2
:1017F00014D00020A5490870012076490870002007
:10180000684908809FEDA20A674880ED000A002021
:10181000664908709FA001F099F850E29B48007853
:10182000D8B96A480078012817D06948007801289B
:1018300013D1964908706FF095005A4908809FEDC2
:10184000940A594880ED000A00205849087000E0C9
:1018500066E069A001F07AF831E28C48007801284E
:101860001AD15A480078012816D159480078012821
:1018700012D00220854908706FF095004949088010
:101880009FED830A484880ED000A00204749087010
:101890005FA001F05BF812E27C48007802281AD1C0
:1018A0004A480078012816D049480078012812D10A
:1018B0000320764908706FF095003A4908809FED43
:1018C000740A394880ED000A0020384908707DA06C
:1018D00001F03CF8F3E16D48007803281CD13B4847
:1018E0000078012818D13A480078012814D0042043
:1018F0006649087000202B4908809FED650A2A4838
:1019000080ED000A002029490870042076490870FB
:1019100076A001F01BF8D2E10220FFF73BFACEE1FE
:10192000012C99D17F4890F90000C01CD0B92748FC
:101930000078012816D126480078012812D0FE2010
:10194000784908709620174908809FED510A16487B
:1019500080ED000A002015490870AFF2C03000F099
:10196000F5FFACE16F4890F90000801CC8B917483A
:101970000078012815D016480078012811D1FF20E1
:101980006849087096200749088000E05BE29FEDF7
:10199000400A054880ED000A00200449087062A052
:1019A000D0E0D2E016000020180000201C0000202B
:1019B000636861726765206C696E65206D69737319
:1019C0002E2E2E0D0A000000120000201D00002007
:1019D0001E000020090000206669727374206C6983
:1019E0006E652073746F702C7069636B20706C610E
:1019F0006E652E2E2E0D0A006669727374206C6956
:101A00006E65206D6973732E2E2E0D0A0000000086
:101A100066696E64207365636F6E64206C696E65C1
:101A20002E2E2E0D0A0000007365636F6E64206C0D
:101A3000696E65206E6F742073746F702C676F20F1
:101A40006F75742E2E2E0D0A0000000066696E64FC
:101A5000207468697264206C696E65202E2E2E0DCC
:101A60000A000000080000207468697264206C6934
:101A70006E652073746F702C72656C656173652080
:101A8000706C616E652E2E2E0D0A00001300002072
:101A9000000000006669727374206C696E652066D0
:101AA000696E642C6167762073746F7020616E6458
:101AB00020636C6F7365207069636B2E2E2E0D0A88
:101AC000000000007365636F6E64206C696E652CA6
:101AD000616776207374696C6C20676F2062616344
:101AE0006B2E2E2E0D0A00000B0000207468697208
:101AF00064206C696E652C6167762073746F70204A
:101B0000616E64206368617267652C706C616E65DC
:101B1000206973206F7574736964652E2E2E0D0A0B
:101B20000000000014000020636861726765207087
:101B30006C616E65206C696E65206D6973732E2E05
:101B40002E0D0A0000F002FFB9E0FA4890F90000FB
:101B5000401CC8B9F8480078012815D1F74800782A
:101B6000012811D00020F34908709620F44908801C
:101B70001FED390AF34880ED000A0020F249087091
:101B8000F2A000F0E3FE9AE0EA480078C0B9EA4823
:101B90000078012814D0E9480078012810D1E549DF
:101BA0000870F0A000F0D2FE9620E54908801FEDF5
:101BB000480AE44880ED000A0020E34908707EE00E
:101BC000DC480078012819D1DB480078012815D1BC
:101BD000DA480078012811D00220D6490870ECA01C
:101BE00000F0B4FE9620D64908801FED570AD5486C
:101BF00080ED000A0020D449087060E0CD480078EC
:101C000002281CD1CC480078012818D0CB48007895
:101C1000012814D10320C74908700120E249087047
:101C2000E2A000F093FE0020C54908801FED680A7D
:101C3000C44880ED000A0020C34908703FE0BD4859
:101C4000007803281AD1BC480078012816D1BB4877
:101C50000078012812D00420B6490870AFF20C7049
:101C600000F074FE9620B64908801FED770AB5484B
:101C700080ED000A0020B449087020E0AD480078EB
:101C8000042819D1AC480078012815D0AB48007859
:101C9000012811D10520A7490870CFA000F056FEF9
:101CA0000020A74908801FED860AA64880ED000A9B
:101CB0000020A549087002E00120FFF76BF8A24858
:101CC000007801285AD19E48B0F90000CD4908801B
:101CD0009B48B0F90000CC4908809948B0F9000051
:101CE000CA4908809648B0F90000C949088095495A
:101CF00091ED000ADFEDC70A20EE200ABDEEC00A12
:101D000010EE100A4FF44831FFF7B3F94042C249D0
:101D100008608C4991ED000ADFEDBE0A20EE200A32
:101D2000BDEEC00A10EE100A4FF44831FFF7A1F9DA
:101D3000BA490860834991ED000ADFEDB60A20EE4A
:101D4000200ABDEEC00A10EE100A4FF44831FFF72A
:101D500090F94042B24908607A4991ED000ADFEDFE
:101D6000AD0A20EE200ABDEEC00A10EE100A4FF4B4
:101D70004831FFF77EF9AB490860BFE0724890F93F
:101D80000000401CF0BB6E480088404200B29D49F4
:101D900008806B480088404200B29B490880684830
:101DA0000088404200B29949088065480088404256
:101DB00000B297490880634991ED000ADFED950A6A
:101DC00020EE200ABDEEC00A10EE100A4FF4483192
:101DD000FFF74FF94042904908605A4991ED000AD7
:101DE000DFED8C0A20EE200ABDEEC00A10EE100ACC
:101DF0004FF44831FFF73DF988490860514991EDAA
:101E0000000A00E020E0DFED830A20EE200ABDEEAC
:101E1000C00A10EE100A4FF44831FFF72AF9404289
:101E20007F490860474991ED000ADFED7A0A20EE0C
:101E3000200ABDEEC00A10EE100A4FF44831FFF739
:101E400018F97849086059E03D480088404200B2DE
:101E50006C4908803A480088404200B26A490880CC
:101E60003748B0F90000694908803548B0F90000EA
:101E700067490880334991ED000ADFED660A20EEDC
:101E8000200ABDEEC00A10EE100A4FF44831FFF7E9
:101E9000F0F8614908602B4991ED000ADFED5D0A19
:101EA00020EE200ABDEEC00A10EE100A4FF44831B1
:101EB000FFF7DFF859490860224991ED000ADFED8C
:101EC000550A20EE200ABDEEC00A10EE100A4FF4AB
:101ED0004831FFF7CEF8524908601A4991ED000ADF
:101EE000DFED4C0A20EE200ABDEEC00A10EE100A0B
:101EF0004FF44831FFF7BDF84A49086070BD2DE93D
:101F0000FC4F074688469146002500240023002602
:101F10009A469B46002001900090A8F57A7004B282
:101F2000A7F57A7003B2A9F57A7006B2002B7CDDB2
:101F300018467BE0140000201D0000201E00002039
:101F400016000020180000201C0000206669727333
:101F500074206C696E652066696E642E2E2E0D0AE3
:101F6000000000006669727374206C696E65206DF4
:101F70006973732C616776206973207374696C6C64
:101F800020676F206F75742E2E2E0D0A0000000042
:101F90007365636F6E64206C696E652066696E643C
:101FA0002E2E2E0D0A0000000800002066696E64C7
:101FB000207365636F6E64206C696E652C72656159
:101FC000647920746F206F70656E207069636B2E6A
:101FD0002E2E0D0A000000007468697264206C697E
:101FE0006E65206D6973732C726561647920746FFE
:101FF000207069636B20706C616E652E2E2E0D0A49
:10200000000000007400002076000020780000200E
:102010007A000020CD380E457C0000208000002092
:102020008400002088000020FFE75842B0F5967F2A
:102030007BDD002C01DD204600E06042B0F5967F9C
:10204000F6DDFE4890ED000AFD4880ED000AB3F58C
:10205000967F21DD14F5967F1EDA9FEDFA0AF74888
:1020600080ED000A002B01DD184600E05842002CEC
:1020700001DD214600E061420844404200EE100AC2
:10208000B8EEC00ADFEDF00A20EE200ABDEEC00A6D
:1020900010EE100A05B2C1E013F5967F21DA14F5AF
:1020A000967F1EDA9FEDE90AE44880ED000A002BD6
:1020B00001DD184600E05842002C01DD214600E019
:1020C00061420844404200EE100AB8EEC00ADFED5B
:1020D000DE0A20EE200ABDEEC00A10EE100A05B29C
:1020E0009CE013F5967F21DAB4F5967F1EDD9FED17
:1020F000D50AD24880ED000A002B01DD184600E029
:102100005842002C01DD214600E06142084400EE07
:10211000100AB8EEC00ADFEDCC0A20EE200ABDEEB0
:10212000C00A10EE100A05B278E023E0B3F5967FFE
:1021300074DDB4F5967F71DD9FEDC40ABF4880ED74
:10214000000A002B01DD184600E05842002C01DD9A
:10215000214600E06142084400EE100AB8EEC00AD1
:10216000DFEDB90A20EE200ABDEEC00A10EE100A1B
:1021700005B253E0002B01DD184600E05842B0F5EF
:10218000967F26DD002C01DD204600E06042B0F5A0
:10219000967F1EDAA94890ED000AA94880ED000A52
:1021A000B3F5967F08DD9FEDAA0AA44880ED000AEA
:1021B000A3F5967005B231E013F5967F2EDA9FED08
:1021C000A50A9E4880ED000A03F59670404205B2CC
:1021D00024E0002B01DD184600E05842B0F5967F60
:1021E0001CDA002C01DD204600E06042B0F5967F4D
:1021F00014DD924890ED000A914880ED000A9FEDB1
:10220000960A8E4880ED000AB4F5967F03DDA4F5AA
:10221000967005B202E004F5967005B2002E01DD5D
:10222000304600E07042B0F5967F7BDDB6F5967FD4
:1022300003DDA6F5967005B202E006F5967005B2CC
:102240007E4890ED000A7E4880ED000A9FED7F0AEF
:102250007A4880ED000A7A4890ED000A7748D0ED80
:10226000000A30EE600AB5EEC00AF1EE10FA08DDA1
:10227000734890ED000A7148D0ED000A30EE600A14
:1022800009E06F4890ED000A6C48D0ED000A30EE8E
:10229000600AB1EE400AF3EE040AB4EEE00AF1EE91
:1022A00010FA02DD19206D4908806C480088401E34
:1022B00000B26A4908800846B0F90000002844DCF2
:1022C0000020088005EB450000B26549088005EB59
:1022D000450000B26349088005EB450000B2624941
:1022E000088005EB450000B260490880534890ED36
:1022F000000AB1EE400A5FEDB90A20EE200ABDEEF9
:10230000C00A10EE10AA90ED000A5FEDBE0A20EEA2
:10231000200ABDEEC00A10EE10BA90ED000AB1EE30
:10232000400A00E012E05FEDC50A20EE200ABDEE93
:10233000C00A8DED010A90ED000A5FEDCA0A20EE99
:10234000200ABDEEC00A8DED000A14E1002B01DD6C
:10235000184600E05842B0F5967F49DA002C01DDBE
:10236000204600E06042B0F5967F41DA9FED3A0AE0
:10237000324880ED000A0025684200EB80003849B1
:102380000880684200EB80003649088005EB850034
:102390003549088005EB850034490880274890EDD1
:1023A000000A5FEDE40A20EE200ABDEEC00A10EE3E
:1023B00010AA90ED000A5FEDE90A20EE200ABDEEBA
:1023C000C00A10EE10BA90ED000A5FEDEE0A20EEA2
:1023D000200ABDEEC00A8DED010A90ED000A5FED06
:1023E000F30A20EE200ABDEEC00A8DED000AC2E01D
:1023F000134890ED000A1148D0ED000A30EE600A53
:10240000B5EEC00AF1EE10FA08DD0D4890ED000AB5
:102410000A48D0ED000A30EE600A09E0084890ED65
:10242000000A0648D0ED000A30EE600AB1EE400A1C
:10243000DFED0F0AB4EEE00A1CE0000024000020EB
:1024400028000020000034C29A99193F000034424D
:102450000000B4420000B4C20000000020000020D0
:102460007400002076000020780000207A00002010
:1024700000007042F1EE10FA03DD20206C49088064
:1024800029E06C4890ED000A6B48D0ED000A30EE70
:10249000600AB5EEC00AF1EE10FA08DD654890ED6D
:1024A000000A6548D0ED000A30EE600A09E0614894
:1024B00090ED000A6048D0ED000A30EE600AB1EEFF
:1024C000400AF3EE0E0AB4EEE00AF1EE10FA02DD75
:1024D00014205749088056480088401E00B25449CD
:1024E00008800846B0F9000000281BDC00200880A6
:1024F000684200EB4000400000B25049088068424A
:1025000000EB4000400000B24D49088005EB45005B
:10251000400000B24B49088005EB4500400000B286
:1025200049490880444890ED000ADFED480A20EE52
:10253000200ABDEEC00A10EE10AA90ED000ADFEDF1
:10254000430A20EE200ABDEEC00A10EE10BA90ED4C
:10255000000ADFED3E0A20EE200ABDEEC00A8DED36
:10256000010A90ED000ADFED390A20EE200ABDEEE7
:10257000C00A8DED000A4FF448315046FEF779FD50
:10258000334908604FF448315846FEF772FD31492F
:1025900008604FF448310198FEF76BFD2E49086042
:1025A0004FF448310098FEF764FD2C490860BDE8FF
:1025B000FC8F2DE9F04704460D4691460026002782
:1025C000B046A9F57A700FFA80F8A5F57A7007B2CF
:1025D000A4F57A7006B2B6F5967F02DD02F0A9FC8A
:1025E00007E016F5967F02DA02F0AAFC01E002F09D
:1025F000AFFCB7F5967F02DD02F0B0FC07E017F5FF
:10260000967F02DA02F0B2FC01E002F0B6FCB8F507
:10261000967F02DD02F0B7FC07E018F5967F02DA3C
:1026200002F0B8FC01E002F0BCFCBDE8F08700005D
:10263000200000202800002024000020740000203A
:1026400076000020780000207A000020CD380E456A
:102650007C000020800000208400002088000020F2
:1026600010B596B004460121084605F06DFB012126
:10267000102005F0ADFB07220921CD4805F0A9F98E
:1026800007220A21CA4805F0A4F900208DF8560057
:1026900001208DF8570002208DF85400000214909C
:1026A00002208DF8550014A9C14805F007F9022051
:1026B0008DF854004002149014A9BD4805F0FEF8AE
:1026C000BC4806F0D1FA10940020ADF84400ADF8F3
:1026D0004600ADF84800ADF84C000C20ADF84A00BB
:1026E00010A9B44806F00EFB002240F22551B14873
:1026F00006F046FC002240F22661AE4806F040FC9F
:10270000012240F22441AB4806F03AFC0121A948DD
:1027100006F080FB0121880505F016FB012240210F
:10272000A44806F024FC01228021A24806F01FFCE8
:1027300025208DF83C0001208DF83D008DF83E00ED
:102740008DF83F000FA804F086F846208DF83C0075
:1027500002208DF83D008DF83E0001208DF83F00ED
:102760000FA804F078F83A208DF83C0000208DF88E
:102770003D0002208DF83E0001208DF83F000FA89B
:1027800004F069F88C4804F0C9FD4FF00060009037
:102790008848001D01908948029000200390802005
:1027A0000490002005904FF4806006900020079070
:1027B00008904FF4807009904FF440300A90002048
:1027C0000B900C900D900E9069467B4804F048FEEB
:1027D0000121794804F07EFE7748783004F09EFDB0
:1027E0004FF0006000907348001D01907448029003
:1027F0004020039080200490002005904FF48060DA
:10280000069000200790089009904FF480300A90BD
:1028100000200B900C900D900E9069466648783021
:1028200004F01EFE01228021624806F0A0FB012276
:1028300010216148783004F0DAFE00215E487830DB
:1028400004F048FE16B010BD02465068081A80B267
:10285000704770B50024002540F22551554806F018
:10286000CAFB18B1534806F004FBC4B240F224413D
:10287000504806F0C0FB18B35048FDF7F8FF4F482A
:10288000FEF713F880214C48FFF7DEFF4D49088022
:102890000021494804F01EFE00BF474804F067FECF
:1028A0000028FAD18021444804F035FE0121424835
:1028B00004F010FE3F480088C5B23E488088C5B28B
:1028C00070BD10B5044600BF20213A4806F07DFBDC
:1028D0000028F9D0374806F0CCFA10BD70B5044690
:1028E0000D4639480078F0B900213348783004F0BB
:1028F000F1FD00BF3048783004F039FE0028F9D1EE
:10290000002221462C48783004F022FEA9B22A4841
:10291000783004F000FE01212748783004F0DAFD19
:1029200001202949087070BD70B505460E46002487
:1029300000BF04E0285D22490855601CC4B2B442BF
:10294000F8DB31461E48FFF7C9FF70BD0FB438B53C
:1029500005A800901A48009A049906F079FD002015
:102960000090174806F0FEFE044621461448FFF783
:10297000B5FF38BC5DF814FB10B514490E4804F0DF
:1029800053FE18B111490C4804F078FE10BD10B583
:102990000F490948783004F047FE38B100200A4951
:1029A00008700B490448783004F068FE10BD000040
:1029B000000002400010014040640240000100207D
:1029C00080010020300000202E0000200080201018
:1029D0000080002810B504466FF0040003F088FF63
:1029E000E11704EB5171C1F3C701404A1170104661
:1029F000007800EB4001C1EBC0104FF6FF7101EA17
:102A0000C0003B49088010BD0146384A12784A434D
:102A10004FF0E0235A6100229A611A46126942F08F
:102A200001021A6100BF4FF0E022106900F00102BC
:102A30001AB100F48032002AF5D04FF0E02212697A
:102A400022F001024FF0E0231A6100229A617047E0
:102A50000146274A12884A434FF0E0235A61002278
:102A60009A611A46126942F001021A6100BF4FF0E2
:102A7000E022106900F001021AB100F48032002A4D
:102A8000F5D04FF0E022126922F001024FF0E0236E
:102A90001A6100229A61704770B504464FF40770BE
:102AA00094FBF0F0C6B24FF4077094FBF0F100FB1A
:102AB000114085B205E04FF40770FFF7C9FF701EA3
:102AC000C6B2002EF7D115B12846FFF7C1FF70BD81
:102AD00010B5002107E04AF2104200BF131EA2F118
:102AE0000102FBD1491C8142F5D310BD3200002008
:102AF0003400002010B58AB004460121084605F0D4
:102B000023F90121480605F052F909220C219148C8
:102B100004F05FFF09220B218E4804F05AFF4FF4A6
:102B2000C050019002208DF8080000208DF80A00A6
:102B300003208DF8090001A9864804F0BFFE142087
:102B40008DF8000001208DF8010002208DF80200B0
:102B500001208DF80300684603F07DFE15208DF8F6
:102B6000000001208DF8010002208DF802000120F4
:102B70008DF80300684603F06EFE13208DF8000008
:102B800001208DF801008DF802008DF803006846E1
:102B900003F061FE704803F0C9FE07A803F0EAFFE6
:102BA00000208DF822008DF823008DF824008DF888
:102BB00025008DF8260001208DF8270000208DF8D3
:102BC0001E008DF81F0008208DF8200003208DF8CE
:102BD00021000620ADF81C0007A95F4803F0BFFEE6
:102BE00000208DF816008DF8170001208DF81800D0
:102BF0004FF6FF7000EA4410ADF80C000020ADF86D
:102C00000E004FF6FF70ADF81000401EADF8120038
:102C10000020ADF8140001208DF8190003A803F07E
:102C200028FF012202214C4804F022FA012210213F
:102C3000494804F01DFA01221146474804F018FAE9
:102C40000AB010BD10B50121434804F079FA30B143
:102C500001204249087001213F4804F00CFB10BDDF
:102C600000B585B002213C4804F06AFA40B1022167
:102C7000394804F000FB6A460021374804F0DDF8CB
:102C800005B000BD00B585B01021334804F058FAF6
:102C900040B11021304804F0EEFA6A4601212E4876
:102CA00004F0CBF805B000BDF0B585B006460F4680
:102CB0001546002400208DF808008DF809008DF8D5
:102CC0000A50009600BF05E0395D0DF10B0001557B
:102CD000601CC4B2AC42F7DB01E0601CC4B26946C0
:102CE0001D4803F0B5FF042801D17F2CF5DB05B0AA
:102CF000F0BD2DE9F04186B006460F46154600248A
:102D0000A04604208DF80C0000208DF80D008DF8F1
:102D10000E50029600BF05E0395D0DF10F00015520
:102D2000601CC4B2AC42F7DB09E008F1010000F01E
:102D3000FF08B8F1050F02DD4FF0000805E001A91A
:102D4000054803F085FF0428EFD000BF06B0BDE8BA
:102D5000F0810000000002400064004036000020C6
:102D600010B58AB004460121022004F0EDFF0121D4
:102D7000880605F01CF809220C21FA4804F029FE07
:102D800009220D21F74804F024FE4FF44050019031
:102D900002208DF8080000208DF80A0003208DF82D
:102DA000090001A9EF4804F089FD40208DF80000DA
:102DB00001208DF8010002208DF8020001208DF81D
:102DC0000300684603F047FD41208DF80000012014
:102DD0008DF8010002208DF8020001208DF803001B
:102DE000684603F038FD3F208DF8000001208DF883
:102DF00001008DF802008DF80300684603F02BFDFA
:102E0000D94803F093FD07A803F0B4FE00208DF825
:102E100022008DF823008DF824008DF825008DF810
:102E2000260001208DF8270000208DF81E008DF867
:102E30001F0008208DF8200003208DF821000C20B1
:102E4000ADF81C0007A9C84803F089FD0E208DF8D5
:102E5000160000208DF8170001208DF818004FF69D
:102E6000FF7000EA4410ADF80C000020ADF80E0031
:102E7000ADF81000ADF81200ADF8140001208DF887
:102E8000190003A803F0F5FD0F208DF816000020AF
:102E90008DF8170001208DF81800601C4FF6FF71A7
:102EA00001EA4010ADF80C000020ADF80E00ADF8BE
:102EB0001000ADF81200ADF8140001208DF81900D3
:102EC00003A803F0D6FD10208DF8160000208DF821
:102ED000170001208DF81800A01C4FF6FF7101EAC1
:102EE0004010ADF80C000020ADF80E00ADF8100059
:102EF000ADF81200ADF8140001208DF8190003A8F8
:102F000003F0B7FD11208DF8160000208DF8170092
:102F100001208DF81800C020ADF80C000020ADF89D
:102F20000E00ADF81000ADF81200ADF8140001204D
:102F30008DF8190003A803F09CFD12208DF81600EF
:102F400000208DF8170001208DF81800E020ADF862
:102F50000C000020ADF80E00ADF81000ADF8120026
:102F6000ADF8140001208DF8190003A803F081FDCD
:102F700013208DF8160000208DF8170001208DF821
:102F8000180044F22000ADF80C000020ADF80E004F
:102F9000ADF81000ADF81200ADF8140001208DF866
:102FA000190003A803F065FD012202216E4804F018
:102FB0005FF8012210216C4804F05AF801221146F2
:102FC000694804F055F80AB010BD10B501216648F3
:102FD00004F0B6F830B10121634804F04CF9012047
:102FE0006249087010BD10B586B002215E4804F039
:102FF000A7F8002879D002215B4804F03CF901AA27
:103000000021594803F019FF594C0298A04237D1CA
:103010009DF810009DF80F1040EA012000EE100A04
:10302000B8EEC00AF2EE040A80EE201A514880ED94
:10303000001A9DF814109DF8130041EA002000EEDC
:10304000100AB8EEC00AF2EE040A80EE201A9FEDD4
:103050004A0A31EE400A474880ED010A9DF81610F1
:103060009DF8150041EA002000EE100AB8EEC00AF3
:10307000F2EE040A80EE201A3E4880ED021A24E0A7
:10308000019806280FD19DF810003C4908709DF862
:10309000110048709DF811109DF8100041EA0020C1
:1030A0003649488011E0019807280ED19DF810009C
:1030B000334908709DF8110048709DF811109DF873
:1030C000100041EA00202E49488040F20121019879
:1030D00088422CD19DF80F002A49887008468078D4
:1030E000012803D10220887007E038E02548807865
:1030F000022802D10120234988709DF8100021493F
:10310000C8709DF81100087008460078012802D1A7
:103110000220087006E01B480078022802D1012036
:10312000184908709DF812001649487016E040F2E0
:1031300001510198884211D19DF80F001149087181
:103140009DF81000012802D10220487106E09DF888
:103150001000022802D101200A49487100BF06B0C0
:1031600010BD00000004024000680040370000204D
:1031700001409018A00E002000803B45A4000020D4
:10318000A00000203800002000B585B01021414883
:1031900003F0D6FFE8B110213E4804F06CF86A460F
:1031A00001213C4803F049FE0098062807D19DF80C
:1031B0000C00394908709DF80D00487009E000982E
:1031C000072806D19DF80C00344908709DF80D00C1
:1031D000487005B000BD2DE9F04186B006460F46A7
:1031E00015460024A04600208DF80C008DF80D0037
:1031F0008DF80E50019600BF05E0395D0DF10F000E
:103200000155601CC4B2AC42F7DB09E008F10100D3
:1032100000F0FF08B8F1050F02DD4FF0000805E0EF
:1032200001A91C4803F014FD0428EFD000BF06B02C
:10323000BDE8F0812DE9F04186B006460F461546FF
:103240000024A04604208DF80C0000208DF80D000D
:103250008DF80E50029600BF05E0395D0DF10F00AC
:103260000155601CC4B2AC42F7DB09E008F1010073
:1032700000F0FF08B8F1050F02DD4FF0000805E08F
:1032800001A9044803F0E4FC0428EFD000BF06B015
:10329000BDE8F08100680040A4000020A0000020EC
:1032A0001CB50121022004F04FFD0121042004F08F
:1032B0007EFD684604F04AFBC020009002208DF895
:1032C000040003208DF8050001208DF807006946F1
:1032D000FE4804F0F3FA02220621FC4804F079FBD0
:1032E00002220721F94804F074FB00231A46032147
:1032F000F74805F088FC47F6FF70F549243108606F
:103300000121F34804F094FF1CBDF1492431026807
:103310000968A1F5FE41FF391144016047F6FF71CC
:10332000EB4A24321160704710B5EA480068401C2F
:10333000E8490860082004F04AFA10BD00B585B0DD
:103340000121880304F044FD0121022004F0FCFC6B
:103350000820009000208DF8040003208DF805005F
:1033600001208DF807006946D84804F0A7FA032128
:10337000012005F095FE0820029000208DF80C0039
:103380000C208DF80D0001208DF80E0002A804F02D
:10339000A7F909208DF8100003208DF811000220F4
:1033A0008DF8120001208DF8130004A803F053FAE1
:1033B00005B000BD7FB505460C460121082004F08C
:1033C000F6FCC54804F0FEFD0295ADF8044000206F
:1033D000ADF80C00ADF806008DF80E0001A9BE484E
:1033E00004F09DFE0121BC4804F004FF0121BA480D
:1033F00005F04AFB01221146B74805F031FB0121D7
:10340000B54804F015FF32208DF8000000208DF83B
:10341000010001208DF802008DF80300684603F0DA
:103420001AFA7FBD10B50121AB4805F030FB00282A
:103430006FD0AA480078401CA84908700846007858
:10344000192804DD002008700120A5490870A5484E
:103450000078401CA349087008460078102801DD58
:10346000012008709F48007811281AD2DFE800F088
:1034700090091A2B3C434B52565C6270767C8086D6
:103480008C009948B0F90010012001F083FC9748A6
:10349000B0F900209648B0F9001040F2031001F096
:1034A00021FD75E09348B0F90010022001F072FC94
:1034B0009148B0F900209148B0F900104FF48170A4
:1034C00001F0F7FC64E08E48B0F90010032001F031
:1034D00061FC8C48B0F900208B48B0F9001040F234
:1034E000011001F0CDFC53E08848B0F90010042031
:1034F00001F050FC4CE086480168052001F0FCFB1F
:1035000001F062FD44E083480188052001F00EFCD3
:103510003EE042E0052001F023FC39E07E480168EE
:10352000062001F0E9FB33E07A480188062001F02B
:10353000FDFB2DE0062001F013FC7248B0F90020DD
:103540007148B0F9001040F2011001F099FC1FE041
:1035500072480168072001F0CFFB19E06D4801882F
:10356000072001F0E3FB13E0072001F0F9FB0FE077
:103570006B480168082001F0BFFB09E0654801883D
:10358000082001F0D3FB03E0082001F0E9FB00BFB5
:1035900000BF0121504805F08BFA10BD00B589B07D
:1035A0000121022004F003FC0121084604F0FFFB86
:1035B0000020ADF81800ADF81A004FF6FF70079024
:1035C0000020ADF820008DF8220006A9554804F02F
:1035D000A6FD06A94FF0804004F0A1FD0020ADF843
:1035E0000400ADF81000ADF80600039001A94FF0FB
:1035F000804004F029FE01A94FF0804004F05DFEF8
:1036000001A9484804F020FE01A9464804F055FEEF
:1036100001A9444804F09EFE01A9424804F000FFBD
:1036200000214FF0804004F09CFF00214FF08040CB
:1036300004F0A0FF00213B4804F093FF002139482B
:1036400004F098FF0021374804F0A1FF002135481D
:1036500004F0A6FF0121880704F0CCFD01213148C8
:1036600004F0C8FD0221480705F022FA01220221D8
:10367000480705F0F5F90421080705F019FA0122B9
:103680000421080705F0ECF90221264805F010FA9C
:1036900001220221234805F0E3F90421214805F025
:1036A00007FA012204211F4805F0DAF908211D4814
:1036B00005F0FEF9012208211A4805F0D1F9102180
:1036C000184805F0F5F9012210212DE00004024010
:1036D0000008004040000020000C00404500002091
:1036E00044000020480000207400002096000020C4
:1036F000940000207600002092000020900000201E
:10370000780000208E0000208C0000207A0000202D
:103710007C00002046000020800000208400002063
:1037200088000020000400406B4805F099F91D2036
:103730008DF8000001208DF8010003208DF80200B3
:1037400001208DF80300684603F085F81C208DF8F1
:103750000000684603F07FF800214FF0804005F03C
:10376000CAF907214FF0804005F03BFA8021C805D7
:1037700005F040FA3021584805F0BDF907215648B8
:1037800005F02FFA8021544805F034FA012188070A
:1037900004F04EFD0121504804F04AFD09B000BD7F
:1037A00000B589B00121084604F012FB0121042074
:1037B00004F0FDFA494804F005FC494804F002FC15
:1037C0005320ADF818000020ADF81A0040F23F6019
:1037D00007900020ADF820008DF8220006A940488F
:1037E00004F09DFC5320ADF818000020ADF81A003D
:1037F00040F67F4007900020ADF820008DF82200B1
:1038000006A9364804F08BFC01A804F041FE6020B4
:10381000ADF804000120ADF806000020ADF810005E
:10382000039001A92D4804F00FFD01A92B4804F0D5
:1038300044FD01A92A4804F007FD01A9284804F025
:103840003CFD01A9264804F085FD01A9244804F0A7
:10385000E7FD0821214804F084FE08211F4804F0F8
:1038600089FE08211E4804F07CFE08211C4804F053
:1038700081FE08211A4804F08AFE0821184804F045
:103880008FFE0121154804F0B5FC0121144804F015
:10389000B1FC0121114804F0CBFC0121104804F0D7
:1038A000C7FC20210E4805F093F980210C4805F053
:1038B000A1F92021094805F08BF98021074805F07E
:1038C00099F90121054805F0A4F80121044805F003
:1038D000A0F809B000BD0000000400400000014055
:1038E0000008004000B587B001217F4804F02CFAA1
:1038F0000121480404F05BFA072203217B4804F00D
:1039000068F80820059002208DF8180000208DF836
:103910001A0003208DF8190000208DF81B0005A95E
:10392000724803F0CBFF724805F09EF97148019090
:103930000020ADF808004FF40050ADF80A00C010A8
:10394000ADF80C000420ADF80E000020ADF810001A
:1039500001A9674805F0D6F9012240F225516448D3
:1039600005F00EFB0121624805F054FA26208DF87F
:10397000000000208DF8010001208DF802008DF874
:103980000300684602F067FF07B000BD5A480078A0
:10399000401C5949087008460078642804DD6420FA
:1039A0000870002055490870704710B540F2255145
:1039B0004F4805F020FB00287ED04D4805F059FA0D
:1039C0004F4908704F48007838B9084600780F28EA
:1039D0002AD1FF204B49087026E0494800784A491F
:1039E0004A4A1278885449480078172811D1084665
:1039F000C07D022802D00846C07D18B9FF20444986
:103A0000087006E000203F490870414908703F49AE
:103A100008703E480078401C3C4908700846007811
:103A2000182801DD002008703948007800285AD095
:103A3000354800783449497840EA0120C0F30A004B
:103A4000344908803048807840012F49497840EA5D
:103A5000E100C0F30A00304908802B4880788011CB
:103A60002949C97840EA81002749097940EA81203B
:103A7000C0F30A00294908802348007940102249F0
:103A8000497940EAC110C0F30A00254908801E4860
:103A9000407A00F00F00234908801B48807900F02D
:103AA0000F00401C204908801748807A1F49088071
:103AB00000201449087000E015E01549087013490A
:103AC00008701148807D0C2803D100200B49087034
:103AD00005E0002008490870012008490870042109
:103AE000134803F072FF10BD0100200000000240E7
:103AF00000440040A0860100530000205200002036
:103B00005E00002060000020000200205F00002016
:103B1000610000204A0000204C0000204E000020E0
:103B200050000020540000205800002056000020C3
:103B30000010024010B50246002006E01378434012
:103B40000C4CE05C521C4B1ED9B20029F6DC10BDB7
:103B500030B50346002006E01C784440054D285D42
:103B60005B1C4C1EE1B20029F6DC80EA0204014D28
:103B7000285D30BDA8DA00081CB50121102004F032
:103B8000E3F80420009001208DF8040000208DF857
:103B9000060003208DF8050001208DF80700694616
:103BA0001C4803F08BFE1CBD1CB50121082004F04D
:103BB000CBF8C020009001208DF8040000208DF883
:103BC000060003208DF8050001208DF807006946E6
:103BD000114803F073FE40210F4803F0EBFE8021F3
:103BE0000D4803F0E7FE1CBD1CB50121102004F0B8
:103BF000ABF84FF4A050009000208DF80400032093
:103C00008DF8050001208DF807006946014803F092
:103C100055FE1CBD00100240000C024000BF704762
:103C200000BFFE4A128802F04002002AF9D0C2B258
:103C3000FA4B9A80704710B596B00446012188046B
:103C400004F0B5F80121022004F07EF801214805B6
:103C500004F07AF807220A21F14803F0BAFE07229D
:103C60000B21EF4803F0B5FE14A803F06FFE4FF4EC
:103C70008060149002208DF8540003208DF85500C8
:103C800014A9E74803F01AFE4FF4006014900220D4
:103C90008DF8540003208DF8550014A9E04803F076
:103CA0000DFEE04804F0E0FF10A805F091F8109434
:103CB0000020ADF84400ADF84600ADF84800ADF87E
:103CC0004C000C20ADF84A0010A9D64805F01AF8AF
:103CD000012240F22441D34805F052F927208DF803
:103CE0003C0000208DF83D0001208DF83E008DF84D
:103CF0003F000FA802F0AFFD0121CA4805F08AF885
:103D00000C208DF83C0002208DF83D008DF83E001F
:103D100001208DF83F000FA802F09DFDC24803F07E
:103D2000FDFA4FF000600090BE48001D0190BF48B2
:103D30000290002003904FF4007004900020059042
:103D40004FF4806006900020079008904FF4807038
:103D500009904FF440300A9000200B900C900D9089
:103D60000E906946B04803F07BFB01224021AD482C
:103D700005F0FDF80121AC4803F0ACFB0E208DF8F6
:103D80003C0001208DF83D0002208DF83E0001200E
:103D90008DF83F000FA802F05EFDA348303003F01D
:103DA000BDFA4FF0006000909E48001D0190A048B1
:103DB00002904020039080200490002005904FF452
:103DC0008060069000200790089009904FF48030A2
:103DD0000A9000200B900C900D900E90694692482E
:103DE000303003F03DFB012280218E4805F0BFF802
:103DF000012210218C48303003F0F9FB00218A4861
:103E0000303003F067FB16B010BD02465068081A48
:103E100080B2704770B5002500BF40F2255181483F
:103E200005F0E9F840B17F4805F023F8C5B240F24B
:103E300025517C4805F016F940F22441794805F0F7
:103E4000DAF818B37948FCF730FD4FF40071764882
:103E5000FFF7DBFF774908800021734803F03AFB46
:103E600000BF714803F083FB0028FAD17148018834
:103E70006D4803F050FB01216B4803F02BFB6948B0
:103E80000088C4B26748001D0088C4B270BD70B518
:103E900004460D4668480078F0B900216248303089
:103EA00003F018FB00BF6048303003F060FB0028CF
:103EB000F9D1002221465C48303003F049FBA9B219
:103EC0005948303003F027FB01215748303003F0C8
:103ED00001FB01205849087070BD70B505460E46BB
:103EE000002400BF04E0285D51490855601CC4B29D
:103EF000B442F8DB31464E48FFF7C9FF70BD10B53C
:103F00004E49494803F090FB18B14C49464803F02C
:103F1000B5FB10BD0FB438B505A800904448009A11
:103F2000049905F095FA00200090414805F01AFC2C
:103F3000044621463E48FFF7AAFF38BC5DF814FB53
:103F400010B53F493848303003F06EFB38B10020DF
:103F5000394908703A493448303003F08FFB10BDBE
:103F600010B596B004460121C80403F020FF0121DA
:103F7000042003F0E9FE0121480503F0E5FE0822D4
:103F80000A21304803F025FD08220B212D4803F0BB
:103F900020FD14A803F0DAFC4FF480601490022096
:103FA0008DF8540003208DF8550014A9254803F01E
:103FB00085FC4FF40060149002208DF8540003201B
:103FC0008DF8550014A91F4803F078FC10A804F0E0
:103FD000FFFE10940020ADF84400ADF84600ADF8A7
:103FE0004800ADF84C000C20ADF84A0010A9164866
:103FF00004F088FE0D208DF83C0002208DF83D0075
:104000008DF83E0001208DF83F000FA802F023FC40
:104010000548183003F082F918E000000010014054
:10402000000402400048004028600240A002002036
:10403000200200206A000020680000200088001094
:104040000080001800080240004C00404FF0006063
:104050000090FE480190FE480290002003908020CE
:104060000490002005904FF4806006900020079097
:1040700008904FF48070099040020A9000200B9045
:104080000C900D900E906946F24803F0E9F9012278
:104090004021EE48001F04F06AFF0121ED4803F0C3
:1040A00019FA002240F22551E848001F04F068FF89
:1040B000002240F22661E548001F04F061FF012262
:1040C00040F22441E148001F04F05AFF34208DF8EB
:1040D0003C0002208DF83D0003208DF83E000120B9
:1040E0008DF83F000FA802F0B6FB0121D748001F52
:1040F00004F090FED748303003F010F94FF0006024
:104100000090D2480190D448029040200390802033
:104110000490002005904FF48060069000200790E6
:10412000089009904FF480300A9000200B900C907A
:104130000D900E906946C748303003F091F9012286
:104140008021C248001F04F012FF01221021C14843
:10415000303003F04CFA0021BE48303003F0BAF999
:104160000F208DF83C0002208DF83D008DF83E00B8
:1041700001208DF83F000FA802F06DFB16B010BDB6
:1041800002465068081A80B2704770B500240025B6
:1041900040F22551AD48001F04F02DFF50B1AB484F
:1041A000001F04F066FEC4B240F22551A748001F6C
:1041B00004F058FF40F22441A448001F04F01BFF04
:1041C000F0B18021A348FFF7DBFFA449087000216C
:1041D000A04803F07FF900BF9E4803F0C8F900280B
:1041E000FAD180219B4803F096F90121994803F008
:1041F00071F99648001F0088C5B294480088C5B27E
:1042000070BD70B504460D4695480078F0B90021A0
:104210009048303003F05EF900BF8E48303003F034
:10422000A6F90028F9D1002221468A48303003F04F
:104230008FF9A9B28748303003F06DF90121854824
:10424000303003F047F901208549087070BD70B522
:1042500005460E46002400BF04E0285D7E4908554F
:10426000601CC4B2B442F8DB31467B48FFF7C9FF9B
:1042700070BD10B57B497748303003F0D5F960B197
:1042800000207749087078497248303003F09BF974
:1042900075497048303003F0F1F910BD10B573491D
:1042A0006C4803F0C1F948B14FF08151694803F0FF
:1042B0008AF94FF08151674803F0E0F910BD10B55D
:1042C00096B004460121042003F03EFD01210820A0
:1042D00003F03AFD0121080503F069FD01214805BD
:1042E00003F032FD08220221614803F072FB08222C
:1042F0000C21604803F06DFB0420149002208DF81F
:10430000540003208DF8550000208DF85600012040
:104310008DF8570014A9564803F0D0FA4FF4805096
:10432000149014A9534803F0C9FA10940020ADF872
:104330004400ADF84600ADF84800ADF84C000C2044
:10434000ADF84A0010A94C4804F0DCFC0B208DF8B5
:104350003C0002208DF83D008DF83E0001208DF8D4
:104360003F000FA802F077FA3A48303802F0D6FF43
:104370004FF0006000904048001D01903F480290BF
:104380000020039080200490002005904FF480606E
:1043900006900020079008904FF48070099040022A
:1043A0000A9000200B900C900D900E9069462948C1
:1043B000303803F055F8012240212F4804F0D7FD92
:1043C00001212448303803F085F8002240F22551BD
:1043D000294804F0D5FD002240F22661264804F069
:1043E000CFFD012240F22441234804F0C9FD3520CD
:1043F0008DF83C0000208DF83D0001208DF83E0036
:104400008DF83F000FA802F026FA01211A4804F0A7
:1044100001FD2F208DF83C0002208DF83D008DF825
:104420003E0001208DF83F000FA802F014FA094861
:10443000783002F073FF4FF0006000900E48001DCE
:1044400001900F480290402003901BE0044C004074
:104450002005002040600240A00400206C000020E5
:104460006D0000202080002020000020008020100F
:10447000000C02400008024000500040A00500204F
:104480002006002080200490002005904FF48060DA
:10449000069000200790089009904FF480300A9011
:1044A00000200B900C900D900E906946F94802F098
:1044B000D7FF01228021F84804F059FD0122102184
:1044C000F44803F094F80021F24803F003F816B022
:1044D00010BD02465068081A80B2704770B50024BB
:1044E000002540F22551EC4804F085FD18B1EA485A
:1044F00004F0BFFCC4B240F22441E74804F07BFD65
:1045000010B38021E348A838FFF7E3FFE3490870C0
:104510000021E048A83802F0DDFF00BFDD48A838E0
:1045200003F025F80028F9D18021DA48A83802F0F4
:10453000F2FF0121D748A83802F0CCFFD648008806
:10454000C5B2D5488088C5B270BD10B5D449D14830
:1045500003F06AF860B10020D24908704FF0205192
:10456000CC4803F030F84FF02051CA4803F086F8E9
:1045700010BD70B504460D46CA480078C8B9002180
:10458000C44802F0A7FF00BFC24802F0F0FF0028B5
:10459000FAD100222146BF4802F0DAFFA9B2BD4895
:1045A00002F0B9FF0121BB4802F094FF0120BD4990
:1045B000087070BD70B505460E46002400BF04E0CB
:1045C000285DB9490855601CC4B2B442F8DB3146D5
:1045D000B548FFF7CEFF70BD10B596B00446012177
:1045E000202003F0F5FB0121042003F0ADFB0121A5
:1045F000880503F0A9FB08220621AC4803F0E9F97D
:1046000008220721A94803F0E4F914A803F09EF951
:104610004020149002208DF8540003208DF855009E
:1046200014A9A24803F04AF98020149002208DF8C2
:10463000540003208DF8550014A99C4803F03EF95E
:104640009B4804F011FB10A804F0C2FB109400205A
:10465000ADF84400ADF84600ADF84800ADF84C00A8
:104660000C20ADF84A0010A9914804F04BFB39200A
:104670008DF83C0002208DF83D008DF83E000120B1
:104680008DF83F000FA802F0E6F88A4802F046FED7
:104690004FF0206000908648001D019086480290EF
:1046A000002003904FF480600490002005904FF4A8
:1046B000806006900020079008904FF48070099069
:1046C00040020A9000200B900C900D900E906946CD
:1046D000784802F0C5FE01224021754804F047FCED
:1046E0000121744802F0F6FE002240F22551704884
:1046F00004F046FC002240F226616D4804F040FCC4
:10470000012240F224416A4804F03AFC47208DF827
:104710003C0001208DF83D008DF83E008DF83F00F3
:104720000FA802F098F80121614804F073FB4520BE
:104730008DF83C0002208DF83D008DF83E000120F0
:104740008DF83F000FA802F086F85A48783002F042
:10475000E5FD4FF0206000905548001D019057483E
:1047600002904020039000010490002005904FF437
:104770008060069000200790089009904FF48030E8
:104780000A9000200B900C900D900E9069464948BD
:10479000783002F065FE01228021454804F0E7FBF5
:1047A000012210214348783002F021FF00214148C6
:1047B000783002F08FFE16B010BD012080F3138810
:1047C00000BF00BF00BF00BF00BF00BFBFF34F8FDF
:1047D00000BF00BF00BF3A48006800F4E0603949FC
:1047E0000843001D3649086000BF00BF00BFBFF38B
:1047F0004F8F00BF00BF00BF00BF00BFFDE70246F4
:104800005068081A80B2704770B50024002540F245
:104810002441274804F0EFFB00B34FF480612548A2
:10482000FFF7EDFF284908800021224802F052FEE0
:1048300000BF204802F09BFE0028FAD14FF48061AF
:104840001C4802F068FE01211A4802F043FE184895
:104850000088C5B21648001D0088C5B240F2255137
:10486000134804F0C8FB20B140F22551104804F071
:10487000F9FB70BD10B515490E4802F0D5FE38B1F0
:1048800013490C4802F09FFE10490A4802F0F6FE58
:1048900010BD0000B8600240005000406F000020D2
:1048A000008000286E000020200600200008024042
:1048B0000014014028640240A00A0020A006002045
:1048C0000CED00E00000FA057000002000880010E8
:1048D0000008001010B53949394802F0A5FE50B162
:1048E0000020384908703549354802F06CFE3349DC
:1048F000334802F0C3FE10BD70B504460D46314882
:104900000078C8B900212E4802F0E4FD00BF2C4811
:1049100002F02DFE0028FAD100222146284802F09C
:1049200017FEA9B2264802F0F6FD0121244802F044
:10493000D1FD01202349087070BD70B505460E46B3
:1049400000244FF48071204803F034F800BF04E0E5
:10495000285D1E490855601CC4B2B442F8DB3146DC
:104960001A48FFF7C9FF4FF48071174803F024F885
:1049700070BD1CB54FF4E130FFF72EFE684602F023
:10498000E5FF0121042003F0DFF94FF4807000906F
:1049900001208DF8040000208DF8060002208DF81B
:1049A000070003208DF805006946074802F086FFDE
:1049B0004FF48071044802F0FFFF1CBD00802020EE
:1049C000A06402407200002000080240A0060020FF
:1049D0007CB505460C46FCA103C9CDE90001200ABF
:1049E0008DF80500E0B28DF80400082269462846DB
:1049F000FEF75AF97CBD7CB505460C46F4A103C907
:104A0000CDE90001E0B28DF80400200A8DF8050020
:104A1000200C8DF80600200E8DF80700082269464C
:104A20002846FEF741F97CBD7CB505460C46EAA157
:104A300003C9CDE900018DF80440052269462846E6
:104A4000FEF732F97CBD38B50446E5A00068009059
:104A5000022269462046FEF727F938BD10B586B018
:104A60000446E0A103C9CDE90401082204A904F524
:104A7000C060FEF719F90A20FEF70EF8DBA103C9A2
:104A8000CDE90201082202A904F5C060FEF70CF985
:104A90000A20FEF701F8D7A103C9CDE900010822D9
:104AA000694604F5C060FEF7FFF80A20FDF7F4FF41
:104AB00006B010BD1CB50446D0A103C9CDE9000164
:104AC0000822694604F5C060FEF7EEF81CBD1CB56F
:104AD0000446CCA103C9CDE900010822694604F5CA
:104AE000C060FEF7E1F81CBD1FB50446BDA003C8B9
:104AF000CDE90201082202A904F5C060FEF7D4F84E
:104B00000A20FDF7C9FFB9A103C9CDE900010822B8
:104B1000694604F5C060FEF7C7F80A20FDF7BCFF40
:104B20001FBD1CB50446B9A103C9CDE90001082287
:104B3000694604F5C060FEF7B7F81CBD10B54FF428
:104B4000FA70FDF7A9FF0520FFF7EBFF0A20FDF73C
:104B5000A3FF0520FFF7AEFF0A20FDF79DFF05200C
:104B6000FFF7C2FF0A20FDF797FF0620FFF7D9FFE6
:104B70000A20FDF791FF0620FFF79CFF0A20FDF7B2
:104B80008BFF0620FFF7B0FF0A20FDF785FF072007
:104B9000FFF7C7FF0A20FDF77FFF0720FFF78AFF17
:104BA0000A20FDF779FF0720FFF79EFF0A20FDF797
:104BB00073FF0820FFF7B5FF0A20FDF76DFF0820FF
:104BC000FFF778FF0A20FDF767FF0820FFF78CFF4B
:104BD0000A20FDF761FF0120FFF779FF0A20FDF7AA
:104BE0005BFF0120FFF766FF0A20FDF755FF01205C
:104BF000FFF734FF0A20FDF74FFF0220FFF767FFA2
:104C00000A20FDF749FF0220FFF754FF0A20FDF7B5
:104C100043FF0220FFF722FF0A20FDF73DFF03209C
:104C2000FFF755FF0A20FDF737FF0320FFF742FF8C
:104C30000A20FDF731FF0320FFF710FF0A20FDF7E0
:104C40002BFF0420FFF743FF0A20FDF725FF042078
:104C5000FFF730FF0A20FDF71FFF0420FFF7FEFEDD
:104C60000A20FDF719FF10BD2DE9F04104460F465B
:104C700015461E4621460120FFF7AAFE0A20FDF731
:104C80000BFF39460220FFF7A3FE0A20FDF704FFC1
:104C900029460320FFF79CFE0A20FDF7FDFE314662
:104CA0000420FFF795FE0A20FDF7F6FEBDE8F0812F
:104CB0002DE9F04104460F4615461E4621460520C3
:104CC000FFF799FE0A20FDF7E7FE39460620FFF7B9
:104CD00092FE0A20FDF7E0FE29460720FFF78BFE33
:104CE0000A20FDF7D9FE31460820FFF784FE0A208E
:104CF000FDF7D2FEBDE8F0817CB505460C4645A126
:104D000003C9CDE90001E0B28DF80400200A8DF856
:104D10000500200C8DF80600200E8DF807000822F3
:104D2000694605F5C060FDF7BFFF7CBD7CB5054653
:104D30000C463AA103C9CDE90001E0B28DF80400A8
:104D4000200A8DF80500200C8DF80600200E8DF845
:104D500007000822694605F5C060FDF7A5FF7CBD88
:104D60001CB504462FA103C9CDE9000108226946FC
:104D700004F5C060FDF798FF1CBD1CB504462BA1CF
:104D800003C9CDE900010822694604F5C060FDF7BA
:104D90008BFF1CBD7CB505460C4626A103C9CDE999
:104DA0000001E0B28DF80400200A8DF80500200C07
:104DB0008DF80600200E8DF807000822694605F5DB
:104DC000C060FDF771FF7CBDFF060201000000001E
:104DD000FF06160200000000FF06000100000000B0
:104DE000FF1000002B406001060000002B40600116
:104DF000070000002B4060010F0000002B40600105
:104E0000800000002F606001030000002F6060013F
:104E100001000000237A600100000000238160018E
:104E2000000000002B4060013F0000004041600195
:104E30000000000023FF600100000000002008497E
:104E400008800849088008490880084908800849FE
:104E50000860084908600849086008490860704708
:104E60007400002076000020780000207A000020E6
:104E70007C000020800000208400002088000020AA
:104E80007CB506460C461546002000900190200A8D
:104E90008DF80000E0B28DF80100280A8DF80200BC
:104EA000E8B28DF80300082269463046FEF793F910
:104EB0007CBD7CB506460C4615460020009001904E
:104EC000200A8DF80000E0B28DF80100280A8DF864
:104ED0000200E8B28DF80300082269463046FEF76A
:104EE0007AF97CBD7CB506460C461546002000903C
:104EF0000190200A8DF80000E0B28DF80100280A28
:104F00008DF80200E8B28DF80300082269463046A9
:104F1000FEF761F97CBD00202549088025490880FD
:104F200025490880254908802549088025490880A9
:104F30007047C820224908804042224908807047B3
:104F40006FF0C7001E490880C8201E4908807047BE
:104F500000201B4908801B49088070476FF0C7007C
:104F600015490880C820154908807047C820124993
:104F70000880404211490880704700200E4908808F
:104F80000E49088070474FF4C870094908800949E4
:104F9000088070474FF67060054908800549088011
:104FA00070470020024908800249088070470000CD
:104FB0008C0000208E000020900000209200002035
:104FC000940000209600002010B5034C08220349ED
:104FD0002046FEF72FF910BD4001901898000020E0
:104FE0002DE9F04F87B081460D460024142102A818
:104FF00004F0D7FB00260027A046A246A3460020C7
:105000000190012411E009F4004028B1012002A917
:10501000085526B9264602E0002002A908554FF699
:10502000FF7000EA4909601CC4B2112CEBDB344666
:1050300018E002A8005D30B9BBF1000F10D127467F
:105040004FF0010B0CE0102C0AD14FB9BBF1000F4F
:1050500006D110274FF0010B4FF000084FF0000A67
:10506000601CC4B2112CE4DB781CC4B212E002A8AC
:10507000005D20B1B8F1000F0AD1A04608E0102C65
:1050800006D1B8F1000F03D14FF000084FF0000A2D
:10509000601CC4B2112CEADB08F10100C4B20FE0BD
:1050A00002A8005D20B9BAF1000F07D1A24609E0BD
:1050B000102C03D1BAF1000F00D1A246601CC4B27B
:1050C000112CEDDB00BFB81B00EBD07106EB6101CA
:1050D0006970B81B401C68712878082807D1687966
:1050E000062804DB68790E2801DA08206870B8F118
:1050F000000F07D0BAF1000F04D00820687001201B
:10510000A87101E00020A871E878287168790C285E
:1051100004DB082068700120E87001E00020E870DE
:1051200068782978401A40B2A87007B0BDE8F08FBF
:105130000246134610E010782A2805D0107820285F
:1051400002DB10787A2801DDFF20704710782C28C8
:1051500001D1481EC1B2521C0029ECD1D01AC0B2F4
:10516000F3E710B50246012000E050430B1EA1F109
:105170000104E1B2F9D110BD2DE9F34F81B007462A
:105180003C4600200090834681460026804628E069
:1051900020782D2802D148F00208641C20782C28A1
:1051A00002D020782A2800D11CE020782E2803D1B4
:1051B00048F00108641C09E02078392802DC2078D6
:1051C000302803DA4FF0000900260BE008F0010058
:1051D00010B1701CC6B203E009F1010000F0FF0934
:1051E000641CD5E700BF08F0020000B17F1C002559
:1051F0000EE0A9F10100401BC1B20A20FFF7B1FF88
:10520000795D3039009A00FB01200090681CC5B21E
:105210004D45EEDB052E00DD0526029806700025C3
:105220000EE0701E401BC1B20A20FFF79AFF09F181
:1052300001012944795C303900FB01BB681CC5B20F
:10524000B542EEDB31460A20FFF78BFF009901FBE8
:1052500000BA08F0020008B1CAF1000A5046BDE8E1
:10526000FE8F2DE9FC5F07468A464FF00008CDF817
:1052700004A0FDA1019804F063FA0646F0793038E5
:1052800000F0FF0B03213046FFF752FF0546FF2DCC
:1052900004D070196946FFF76FFF38704FF00009AE
:1052A0006CE0F1A1019804F04BFA064600245CE0A2
:1052B000042000EB8400C1B23046FFF739FF0546F9
:1052C000FF2D09D070196946FFF756FFC1B208EBF0
:1052D0008802F81C815400E049E0052000EB8400BE
:1052E000C1B23046FFF724FF0546FF2D0AD07019E2
:1052F0006946FFF741FFC1B208EB8802F81C104471
:10530000417000E033E0062000EB8400C1B230467B
:10531000FFF70EFF0546FF2D0AD070196946FFF70B
:105320002BFF81B208EB8802F81C1044418000E09A
:105330001DE0072000EB8400C1B23046FFF7F8FE05
:105340000546FF2D0AD070196946FFF715FFC1B257
:1053500008EB8802F81C1044017100E007E008F136
:10536000010000F0FF08601CC4B2042CA0DB00BFE9
:10537000701C019009F1010000F0FF09D94590DB94
:10538000BDE8FC9F2DE9FC5F07468A464FF0000808
:10539000CDF804A0B6A1019804F0D2F90646F07940
:1053A000303800F0FF0B03213046FFF7C1FE054601
:1053B000FF2D04D070196946FFF7DEFE78704FF0BC
:1053C000000970E0AAA1019804F0BAF90646002489
:1053D00060E0042000EB8400C1B23046FFF7A8FE75
:1053E0000546FF2D0AD070196946FFF7C5FEC1B208
:1053F00008EB880207F13F00815400E04CE00520F3
:1054000000EB8400C1B23046FFF792FE0546FF2D47
:105410000BD070196946FFF7AFFEC1B208EB8802E6
:1054200007F13F001044417000E035E0062000EB3A
:105430008400C1B23046FFF77BFE0546FF2D0BD03E
:1054400070196946FFF798FE81B208EB880207F1F0
:105450003F001044418000E01EE0072000EB840084
:10546000C1B23046FFF764FE0546FF2D0BD0701920
:105470006946FFF781FEC1B208EB880207F13F00E1
:105480001044017100E007E008F1010000F0FF089E
:10549000601CC4B2042C9CDB00BF701C019009F19D
:1054A000010000F0FF09D9458CDBBDE8FC9F2DE928
:1054B000FC5F07468A464FF00008CDF804A06EA1B5
:1054C000019804F03DF90646F079303800F0FF0B02
:1054D00003213046FFF72CFE0546FF2D04D070193E
:1054E0006946FFF749FEB8704FF0000970E062A10D
:1054F000019804F025F90646002460E0042000EB42
:105500008400C1B23046FFF713FE0546FF2D0AD0D6
:1055100070196946FFF730FEC1B208EB880207F147
:105520007B00815400E04CE0052000EB8400C1B218
:105530003046FFF7FDFD0546FF2D0BD0701969467B
:10554000FFF71AFEC1B208EB880207F17B00104496
:10555000417000E035E0062000EB8400C1B2304627
:10556000FFF7E6FD0546FF2D0BD070196946FFF7E2
:1055700003FE81B208EB880207F17B0010444180F2
:1055800000E01EE0072000EB8400C1B23046FFF7C8
:10559000CFFD0546FF2D0BD070196946FFF7ECFDD6
:1055A000C1B208EB880207F17B001044017100E0F2
:1055B00007E008F1010000F0FF08601CC4B2042CF1
:1055C0009CDB00BF701C019009F1010000F0FF0995
:1055D000D9458CDBBDE8FC9FF8B505460F4628A1F0
:1055E000384604F0ADF8064606213046FFF7A0FD28
:1055F0000446FF2C05D030196946FFF7BDFD85F83C
:10560000C80007213046FFF793FD0446FF2C05D064
:1056100030196946FFF7B0FD85F8C9000921304609
:10562000FFF786FD0446FF2C05D030196946FFF7C9
:10563000A3FDC5F8DD00F8BD2DE9F8430546884611
:1056400011A1404604F07CF8064602213046FFF7DF
:105650006FFD0446FF2C05D030196946FFF78CFD1D
:1056600085F8D600002727E024475047535600000E
:1056700024474C47535600002442444753560000E9
:1056800024474E474741000024474E4753410000FE
:10569000F81CC1B23046FFF74BFD0446FF2C08D082
:1056A00030196946FFF768FDC1B205F1CA00C1555E
:1056B00000E003E0781CC7B20C2FE9DB00BF0F212C
:1056C0003046FFF735FD0446FF2C05D030196946FA
:1056D000FFF752FDA5F8D70010213046FFF728FD4F
:1056E0000446FF2C05D030196946FFF745FDA5F8A3
:1056F000D90011213046FFF71BFD0446FF2C05D0D1
:1057000030196946FFF738FDA5F8DB00BDE8F883DE
:105710002DE9F0432DED028B81B006468846FEA1AF
:10572000404604F00DF8074601213846FFF700FD1A
:105730000446FF2C23D038196946FFF71DFD81462A
:105740009DF800100A20FFF70CFDB9FBF0F542F2BE
:105750001070B5FBF0F0C1B2BB2081556420B5FBE1
:10576000F0F06421B0FBF1F201FB1201BC20815585
:105770006420B5FBF0F100FB1151BD2081550321E0
:105780003846FFF7D5FC0446FF2C42D0381969464D
:10579000FFF7F2FC05469DF80000801CC1B20A200C
:1057A000FFF7DFFCB5FBF0F046F8BE0F9DF80000F8
:1057B000801CC1B20A20FFF7D4FCB5FBF0F100FB5E
:1057C000115000EE100AB8EE408A07210A20FFF7B8
:1057D000C8FC3168484300EE100AF8EE400A9DF814
:1057E0000000C0F10700C1B20A20FFF7BAFC00EECA
:1057F000100AB8EE400A20EE080A9FEDC91AC0EE62
:10580000011A30EEA10ABCEEC00A10EE100A46F8EA
:10581000BE0904213846FFF78BFC0446FF2C02D05A
:10582000385D86F8C20005213846FFF781FC044642
:10583000FF2C44D038196946FFF79EFC05469DF8B9
:105840000000801CC1B20A20FFF78BFCB5FBF0F012
:1058500046F8C30F9DF80000801CC1B20A20FFF774
:1058600080FCB5FBF0F100FB115000EE100AB8EE21
:10587000400AB0EE408A07210A20FFF772FC316827
:10588000484300EE100AF8EE400A9DF80000C0F10F
:105890000700C1B20A20FFF764FC00EE100AB8EE60
:1058A000400A20EE080A9FED9E1AC0EE011A30EE63
:1058B000A10ABCEEC00A10EE100A46F8C309062180
:1058C0003846FFF735FC0446FF2C02D0385D86F8D9
:1058D000C7000C213846FFF72BFC0446FF2C33D0C1
:1058E0003D5D412D06D141208E49087001208E4931
:1058F000487629E0442D06D144208A4908700220C8
:105900008949487620E0462D06D146208549087011
:1059100003208549487617E0522D06D1522081494F
:1059200008700420804948760EE04E2D06D14E20A6
:105930007C49087005207C49487605E00A207949B1
:105940000870002078494876FF2C04D03819694641
:10595000FFF712FC054609213846FFF7E9FB04462C
:10596000FF2C1ED038196946FFF706FC054642F2A7
:105970001070B5FBF0F0C1B2BA2081556420B5FBC0
:10598000F0F06421B0FBF1F201FB1201B920815566
:105990006420B5FBF0F100FB115000F5FA60A6F8A9
:1059A000B70001B0BDEC028BBDE8F083F8B504464A
:1059B0000D465EA1284603F0C3FE06460721304689
:1059C000FFF7B6FB0746FF2F16D0F0196946FFF721
:1059D000D3FBA4F8E1009DF8000003280CDA9DF841
:1059E0000000C0F10300C1B20A20FFF7BAFBB4F80F
:1059F000E1104843A4F8E100F8BD70B504460D4637
:105A000029462046FFF72DFC29462046FFF74FFD8B
:105A100029462046FFF7E0FD29462046FFF70CFE09
:105A200029462046FFF774FE29462046FFF7BEFFB1
:105A300070BD10B52DED048B82B03E48D0F8C30088
:105A400000EE100AB8EE400AB0EE408A9FED3A0A26
:105A5000C8EE000AB0EE608A10EE904A204607F0C9
:105A6000F5FE41EC190B334890F8C70053EC192BA5
:105A700032A10090374803F0FDFC2E48D0F8BE005C
:105A800000EE100AB8EE400AB0EE408A9FED2A0AF6
:105A9000C8EE000AB0EE608A10EE904A204607F089
:105AA000D5FE41EC190B234890F8C20053EC192B9A
:105AB00029A10090274803F0DDFC1E48D0F8DD0046
:105AC00000EE100AB8EEC00AB0EE408AB2EE040A48
:105AD000C8EE000AB0EE608A10EE904A204607F049
