:020000040800F2
:10000000201F0020255F0008450B0008470B000853
:10001000570B00085B0B00085F0B00080000000096
:10002000000000000000000000000000375F000832
:10003000630B0008000000003B5F00083D5F000804
:100040003F5F00083F5F00083F5F00083F5F000818
:100050003F5F00083F5F00083F5F00083F5F000808
:100060003F5F0008151700083F5F00083F5F00086A
:100070006723000867270008AD2300083D27000814
:100080003F5F00083F5F00083F5F00084D11000818
:10009000691100088D1100083F5F00083F5F0008EC
:1000A0003F5F00083F5F00083F5F00083F5F0008B8
:1000B0003F5F00083F5F00083F5F00083F5F0008A8
:1000C0003F5F00083F5F00083F5F00083F5F000898
:1000D0003F5F0008670D0008331E00082D2200084E
:1000E0003F5F00083F5F00083F5F00083F5F000878
:1000F0003F5F00083F5F00083F5F00081D2A0008BF
:100100003F5F00083F5F0008F91800083F5F0008E4
:10011000F1250008A52900083F5F00083F5F00089F
:100120003F5F00088D2D0008810E00083F5F00082A
:100130003F5F00083F5F00083F5F0008A31400080E
:10014000BF1400085F1500083F5F00083F5F00080C
:100150003F5F0008AB2D0008970E0008DB2C00085D
:100160003F5F00083F5F00083F5F00083F5F0008F7
:100170003F5F00083F5F00083F5F00083F5F0008E7
:100180003F5F00083F5F000800F002F800F092F8BF
:100190000AA090E8000C82448344AAF10107DA45E2
:1001A00001D100F087F8AFF2090EBAE80F0013F0A2
:1001B000010F18BFFB1A43F001031847907A0000A3
:1001C000B07A0000103A24BF78C878C1FAD8520734
:1001D00024BF30C830C144BF04680C6070470000C1
:1001E0000023002400250026103A28BF78C1FBD840
:1001F000520728BF30C148BF0B6070476E2905F019
:100200008787702906F0C980662907F09C846529D4
:1002100007F09984672907F09684612907F095848F
:1002200003681B0A28BF41F08001692905F0348763
:10023000642905F03187752905F02E876F2906F0AE
:100240005680782906F09580E92905F0F187E429A0
:1002500005F0EE87F52905F0EB87EF2906F05380CE
:10026000F82906F094800368DB0928BF41F080017B
:10027000632906F09785732906F09C85E32906F02B
:10028000A785F32906F0AC85002070471FB507F05D
:1002900055FC06F0F7FD04000020002107F0F4FAF9
:1002A000401C60600020002107F0D8FAE0601FBD0C
:1002B00010B510BD06F0B8FD1146FFF7E7FF00F0DE
:1002C00003FC06F095FE03B4FFF7F2FF03BC01F058
:1002D000F3FE000010B54FF4A06003F0B9F8A820B9
:1002E00000F0FCFD01F062FE01F0C6FE4FF4E130CB
:1002F00000F040FC01F020FD8021FB4804F05CF997
:100300004FF47A7000F04CFE012000F077FE40F2CE
:10031000015000F0ADFF40F6B83000F041FE53212F
:1003200040F2CF7001F0B0FAF0A000F093FD10BDE4
:10033000884201DD084603E04A42904200DA484222
:10034000704700B585B0EE480078401CEC49087055
:10035000084600780A281BDDEA484078E949097810
:10036000E94A5278E84B1B78CDE90132CDE9031018
:10037000E64800680090E648B0F90030E548028899
:10038000E5480188E5A000F065FD0020DC49087023
:1003900005B000BD2DE9F047002600250024002708
:1003A000A046A146A246ED48007800287CD0EC4843
:1003B00000880D2878D1D7480088A0F57A7005B25A
:1003C000D5480088A0F57A7004B2002C01DD2046E3
:1003D00000E06042B0F5967F67DD002D01DD284624
:1003E00000E06842B0F5967FF6DDDE4890ED000A49
:1003F000DD4880ED000AB4F5967F21DD15F5967F86
:100400001EDA9FEDDA0AD74880ED000A002C01DDE4
:10041000204600E06042002D01DD294600E06942EF
:100420000844404200EE100AB8EEC00ADFEDD00AE0
:1004300020EE200ABDEEC00A10EE100A06B2B8E0A7
:1004400014F5967F21DA15F5967F1EDA9FEDC90A1D
:10045000C44880ED000A002C01DD204600E0604227
:10046000002D01DD294600E069420844404200EECB
:10047000100AB8EEC00ADFEDBE0A20EE200ABDEE7B
:10048000C00A10EE100A06B293E014F5967F22DA45
:10049000B5F5967F1FDD9FEDB50AB24880ED000AE5
:1004A000002C03DD204602E08EE238E06042002DA1
:1004B00001DD294600E06942084400EE100AB8EE6A
:1004C000C00ADFEDAB0A20EE200ABDEEC00A10EE36
:1004D000100A06B26DE0B4F5967F6ADDB5F5967F39
:1004E00067DD9FEDA40A9F4880ED000A002C01DD26
:1004F000204600E06042002D01DD294600E069420F
:10050000084400EE100AB8EEC00ADFED990A20EEAA
:10051000200ABDEEC00A10EE100A06B249E0002C17
:1005200001DD204600E06042B0F5967F24DD002D1D
:1005300001DD284600E06842B0F5967F1CDA894864
:1005400090ED000A884880ED000AB4F5967F07DD3B
:100550009FED890A834880ED000A601906B228E001
:10056000B4F5967F25DA9FED850A7E4880ED000A76
:100570006019404206B21CE0002C01DD204600E07C
:100580006042B0F5967F14DA002D01DD284600E0C8
:100590006842B0F5967F0CDD724890ED000A724813
:1005A00080ED000A9FED760A6E4880ED000A601922
:1005B00006B274480088A0F57A70002804DD7148FE
:1005C0000088A0F57A7003E06E480088C0F57A7064
:1005D000B0F5967F7EDD6B480088A0F57A7006B294
:1005E000604890ED000A604880ED000A9FED610AC6
:1005F0005C4880ED000A5C4890ED000A5948D0ED57
:10060000000A30EE600AB5EEC00AF1EE10FA08DD1D
:10061000554890ED000A5348D0ED000A30EE600ACC
:1006200009E0514890ED000A4E48D0ED000A30EE46
:10063000600AB1EE400AF3EE040AB4EEE00AF1EE0D
:1006400010FA02DD3C20504908804F480088401EC7
:1006500000B24D4908800846B0F90000002842DC8D
:10066000002008807042800000B229490880704252
:10067000800000B245490880B00000B244490880BB
:10068000B00000B243490880364890ED000AB1EE50
:10069000400ADFED410A20EE200ABDEEC00A10EE4E
:1006A000107A90ED000ADFED3C0A20EE200ABDEE44
:1006B000C00A10EE108A90ED000AB1EE400ADFED9C
:1006C000360A20EE200ABDEEC00A10EE109A90ED18
:1006D000000A00E062E0DFED300A20EE200ABDEE05
:1006E000C00A10EE10AA4CE1000C0240737973208E
:1006F000696E69742066696E697368210D0A00006D
:100700000C000020C2000020C00000209C0000203F
:10071000940000202A000020280000206368303A5E
:100720002564206368313A25642073703A2564207B
:100730006F6D673A25642066312D383A256420664E
:10074000392D31363A25642062312D383A2564201E
:1007500062392D31363A25640D0A00003C00002034
:100760004E0000200400002008000020000034C2D9
:100770009A99193F000034420000B4420000B4C20C
:10078000000000002E000020020000209600002043
:10079000980000209A000020CD380E45002C01DD85
:1007A000204600E06042B0F5967F47DA002D01DD7B
:1007B000284600E06842B0F5967F3FDA1FED100A48
:1007C000C94880ED000A002606EB8600C74908806C
:1007D00006EB8600C649088006EB8600C5490880FE
:1007E00006EB8600C4490880BF4890ED000A5FED23
:1007F000160A20EE200ABDEEC00A10EE107A90ED27
:10080000000A5FED1B0A20EE200ABDEEC00A10EEC2
:10081000108A90ED000A5FED200A20EE200ABDEE5E
:10082000C00A10EE109A90ED000A5FED250A20EE46
:10083000200ABDEEC00A10EE10AAA2E0AF4890ED6B
:10084000000AA948D0ED000A30EE600AB5EEC00AF1
:10085000F1EE10FA08DDA94890ED000AA248D0EDAB
:10086000000A30EE600A09E0A44890ED000A9E48B4
:10087000D0ED000A30EE600AB1EE400ADFEDA00ACA
:10088000B4EEE00AF1EE10FA03DD7D209D49088008
:1008900029E09A4890ED000A9348D0ED000A30EE26
:1008A000600AB5EEC00AF1EE10FA08DD934890ED4B
:1008B000000A8D48D0ED000A30EE600A09E08F484A
:1008C00090ED000A8848D0ED000A30EE600AB1EEE3
:1008D000400AF3EE0E0AB4EEE00AF1EE10FA02DD81
:1008E00041208849088087480088401E00B2854919
:1008F00008800846B0F90000002819DC00200880B4
:1009000006EB4600400000B27849088006EB46003E
:10091000400000B27649088006EB4600400000B275
:100920007449088006EB4600400000B27249088016
:100930006D4890ED000A5FED680A20EE200ABDEEDA
:10094000C00A10EE107A90ED000A5FED6D0A20EEFD
:10095000200ABDEEC00A10EE108A90ED000A5FED8D
:10096000720A20EE200ABDEEC00A10EE109A90ED39
:10097000000A5FED770A20EE200ABDEEC00A10EEF5
:1009800010AA4FF448313846FFF7D2FC5E490860A0
:100990004FF448314046FFF7CBFC5C4908604FF408
:1009A00048314846FFF7C4FC594908604FF44831C4
:1009B0005046FFF7BDFC5749086002F022FD0020B9
:1009C00055490870FFF7BDFCBDE8F08770B50024FD
:1009D0000025002650480078002869D04F4800883C
:1009E000012865D14E480088A0F57A7006B24D48BE
:1009F0000088A0F57A7005B24B480088A0F57A709F
:100A000004B2B4F5967F06DD642048490880404270
:100A1000474908800FE014F5967F07DA6FF063000E
:100A20004249088064204249088004E000203F4990
:100A300008803F490880B5F5967F07DD6FF07700A5
:100A40003C49088064203C4908800FE015F5967FFA
:100A500007DA7820374908806FF06300364908804C
:100A600004E000203349088033490880B6F5967FBA
:100A700008DD4FF48770314908804FF49670304993
:100A8000088010E016F5967F08DA6FF4A7702B49FE
:100A900008804FF6E8602A49088004E000202749D2
:100AA00008802749088002F03FFC00201A4908709E
:100AB00070BD1948007830B1184800880F2802D15D
:100AC0000020154908707047FFF704FC02F0B0FAE7
:100AD000642000F065FA05E0FFF75CFCFFF776FFA5
:100AE000FFF7E7FFF8E70000040000209400002073
:100AF00096000020980000209A00002008000020A6
:100B000000007042020000209C000020A000002095
:100B1000A4000020A80000203C0000204E0000207F
:100B20002C0000202A00002028000020B400002013
:100B3000B6000020B0000020B2000020AC00002071
:100B4000AE000020704705E006A000F083F96420A5
:100B500000F026FAF8E700BFFEE700BFFEE700BF9F
:100B6000FEE77047686172646661756C742E2E2EA4
:100B70000D0A000010B596B004460121084603F0A6
:100B8000E5FE0121102003F025FF07220921CA48B4
:100B900003F021FD07220A21C74803F01CFD0020B5
:100BA0008DF8560001208DF8570002208DF8540072
:100BB0000002149002208DF8550014A9BE4803F0DD
:100BC0007FFC02208DF854004002149014A9BA480A
:100BD00003F076FCB94804F049FE10940020ADF80B
:100BE0004400ADF84600ADF84800ADF84C000C20CC
:100BF000ADF84A0010A9B14804F086FE002240F288
:100C00002551AE4804F0BEFF002240F22661AB48F9
:100C100004F0B8FF012240F22441A84804F0B2FFDA
:100C20000121A64804F0F8FE0121880503F08EFE9C
:100C300001224021A14804F09CFF012280219F480D
:100C400004F097FF25208DF83C0001208DF83D0031
:100C50008DF83E008DF83F000FA802F0FEFB462005
:100C60008DF83C0002208DF83D008DF83E000120FB
:100C70008DF83F000FA802F0F0FB3A208DF83C0001
:100C800000208DF83D0002208DF83E0001208DF8F7
:100C90003F000FA802F0E1FB894803F041F94FF053
:100CA000006000908548001D019086480290002059
:100CB000039080200490002005904FF480600690FF
:100CC0000020079008904FF4807009904FF4403056
:100CD0000A9000200B900C900D900E906946784879
:100CE00003F0C0F90121764803F0F6F97448783032
:100CF00003F016F94FF0006000907048001D01905D
:100D000071480290402003908020049000200590BC
:100D10004FF48060069000200790089009904FF4EF
:100D200080300A9000200B900C900D900E90694638
:100D30006348783003F096F9012280215F4804F07F
:100D400018FF012210215E48783003F052FA00218A
:100D50005B48783003F0C0F916B010BD0246506809
:100D6000081A80B2704770B50024002540F2255162
:100D7000524804F042FF18B1504804F07CFEC4B25F
:100D800040F224414D4804F038FFE8B180214C483E
:100D9000FFF7E4FF4D4908800021494803F09CF922
:100DA00000BF474803F0E5F90028FAD18021444804
:100DB00003F0B3F90121424803F08EF93F4800885F
:100DC000C5B23E488088C5B270BD10B5044600BFAC
:100DD00020213A4804F0FBFE0028F9D0374804F0FF
:100DE0004AFE10BD70B504460D4639480078F0B98A
:100DF00000213348783003F06FF900BF3048783075
:100E000003F0B7F90028F9D1002221462C487830A8
:100E100003F0A0F9A9B22A48783003F07EF9012145
:100E20002748783003F058F901202949087070BD2F
:100E300070B505460E46002400BF04E0285D224937
:100E40000855601CC4B2B442F8DB31461E48FFF7B7
:100E5000C9FF70BD0FB438B505A800901A48009AB4
:100E6000049905F081F800200090174805F08EF8ED
:100E7000044621461448FFF7B5FF38BC5DF814FB63
:100E800010B514490E4803F0D1F918B111490C48B6
:100E900003F0F6F910BD10B50F490948783003F09A
:100EA000C5F938B100200A4908700B490448783068
:100EB00003F0E6F910BD0000000002400010014000
:100EC00040640240E8000020680100201200002079
:100ED0000E000020008020100080002810B504467D
:100EE0006FF0040002F006FBE11704EB5171C1F34F
:100EF000C701404A11701046007800EB4001C1EB79
:100F0000C0104FF6FF7101EAC0003B49088010BDD8
:100F10000146384A12784A434FF0E0235A610022D2
:100F20009A611A46126942F001021A6100BF4FF03D
:100F3000E022106900F001021AB100F48032002AA8
:100F4000F5D04FF0E022126922F001024FF0E023C9
:100F50001A6100229A6170470146274A12884A4363
:100F60004FF0E0235A6100229A611A46126942F05A
:100F700001021A6100BF4FF0E022106900F0010287
:100F80001AB100F48032002AF5D04FF0E022126945
:100F900022F001024FF0E0231A6100229A617047AB
:100FA00070B504464FF4077094FBF0F0C6B24FF4EE
:100FB000077094FBF0F100FB114085B205E04FF49F
:100FC0000770FFF7C9FF701EC6B2002EF7D115B12A
:100FD0002846FFF7C1FF70BD10B5002107E04AF2B7
:100FE000104200BF131EA2F10102FBD1491C814235
:100FF000F5D310BD140000201600002010B58AB0F3
:1010000004460121084603F0A1FC0121480603F033
:10101000D0FC09220C21934803F0DDFA09220B21B0
:10102000904803F0D8FA4FF4C050019002208DF898
:10103000080000208DF80A0003208DF8090001A99E
:10104000884803F03DFA14208DF8000001208DF847
:10105000010002208DF8020001208DF8030068468F
:1010600002F0FBF915208DF8000001208DF8010039
:1010700002208DF8020001208DF80300684602F07E
:10108000ECF913208DF8000001208DF801008DF897
:1010900002008DF80300684602F0DFF9724802F0A2
:1010A00047FA07A802F068FB00208DF822008DF8AF
:1010B00023008DF824008DF825008DF826000120EE
:1010C0008DF8270000208DF81E008DF81F000820E5
:1010D0008DF8200003208DF821000620ADF81C00BB
:1010E00007A9614802F03DFA00208DF816008DF83E
:1010F000170001208DF818004FF6FF7000EA441029
:10110000ADF80C000020ADF80E004FF6FF70ADF802
:101110001000401EADF812000020ADF814000120B0
:101120008DF8190003A802F0A6FA012202214E4808
:1011300002F0A0FD012210214B4802F09BFD01228C
:101140001146494802F096FD0AB010BD10B50121C4
:10115000454802F0F7FD30B10120444908700121F3
:10116000414802F08AFE10BD00B585B002213E481C
:1011700002F0E8FD40B102213B4802F07EFE6A46E3
:101180000021394802F05BFC05B000BD00B585B018
:101190001021354802F0D6FD48B11021324802F046
:1011A0006CFE6A460121304802F049FC00BF05B0E0
:1011B00000BD2DE9F04186B006460F4615460024D5
:1011C000A04600208DF80C008DF80D008DF80E5013
:1011D000019600BF05E0395D0DF10F000155601C5F
:1011E000C4B2AC42F7DB01E0601CC4B201A91E48E6
:1011F00002F030FB042801D17F2CF5DB06B0BDE8FE
:10120000F0812DE9F04186B006460F4615460024D0
:10121000A04604208DF80C0000208DF80D008DF8FC
:101220000E50029600BF05E0395D0DF10F0001552B
:10123000601CC4B2AC42F7DB09E008F1010000F029
:10124000FF08B8F1050F02DD4FF0000805E001A925
:10125000054802F0FFFA0428EFD000BF06B0BDE851
:10126000F0810000000002400064004018000020EF
:1012700010B58AB004460121022003F067FB01216A
:10128000880603F096FB09220C21F84803F0A3F925
:1012900009220D21F54803F09EF94FF440500190CA
:1012A00002208DF8080000208DF80A0003208DF838
:1012B000090001A9ED4803F003F940208DF8000072
:1012C00001208DF8010002208DF8020001208DF828
:1012D0000300684602F0C1F841208DF800000120AB
:1012E0008DF8010002208DF8020001208DF8030026
:1012F000684602F0B2F83F208DF8000001208DF81A
:1013000001008DF802008DF80300684602F0A5F890
:10131000D74802F00DF907A802F02EFA00208DF848
:1013200022008DF823008DF824008DF825008DF81B
:10133000260001208DF8270000208DF81E008DF872
:101340001F0008208DF8200003208DF821000C20BC
:10135000ADF81C0007A9C64802F003F90E208DF86D
:10136000160000208DF8170001208DF818004FF6A8
:10137000FF7000EA4410ADF80C000020ADF80E003C
:10138000ADF81000ADF81200ADF8140001208DF892
:10139000190003A802F06FF90F208DF81600002045
:1013A0008DF8170001208DF81800601C4FF6FF71B2
:1013B00001EA4010ADF80C000020ADF80E00ADF8C9
:1013C0001000ADF81200ADF8140001208DF81900DE
:1013D00003A802F050F910208DF8160000208DF8B7
:1013E000170001208DF81800A01C4FF6FF7101EACC
:1013F0004010ADF80C000020ADF80E00ADF8100064
:10140000ADF81200ADF8140001208DF8190003A802
:1014100002F031F911208DF8160000208DF8170028
:1014200001208DF81800C020ADF80C000020ADF8A8
:101430000E00ADF81000ADF812000120ADF8140058
:101440008DF8190003A802F016F912208DF8160085
:1014500000208DF8170001208DF81800E020ADF86D
:101460000C000020ADF80E00ADF81000ADF8120031
:101470000120ADF814008DF8190003A802F0FBF864
:10148000012202217A4802F0F5FB0122102178485E
:1014900002F0F0FB01221146754802F0EBFB0AB0A6
:1014A00010BD10B50121724802F04CFC30B1012191
:1014B0006F4802F0E2FC01206E49087010BD10B5C3
:1014C00086B002216A4802F03DFCE8B30221684878
:1014D00002F0D3FC01AA0021654802F0B0FA664C84
:1014E0000298A04238D19DF810009DF80F1040EAF4
:1014F000012000EE100AB8EEC00AF2EE040A80EEF7
:10150000201A5E4880ED001A9DF814109DF8130013
:1015100041EA002000EE100AF8EEC00AB2EE041A0A
:1015200080EE810ADFED560A30EE600A534880ED06
:10153000010A9DF816109DF8150041EA002000EE02
:10154000100AB8EEC00A00E007E0F2EE040A80EEEE
:10155000201A4A4880ED021A00BF06B010BD00B53F
:1015600085B01021424802F0EDFBE8B1102140485F
:1015700002F083FC6A4601213D4802F060FA0098BF
:10158000062807D19DF80C003E4908709DF80D0013
:10159000487009E00098072806D19DF80C003A49E8
:1015A00008709DF80D00487005B000BD2DE9F041B0
:1015B00086B006460F4615460024A04600208DF84A
:1015C0000C008DF80D008DF80E50019600BF05E05F
:1015D000395D0DF10F000155601CC4B2AC42F7DB60
:1015E00009E008F1010000F0FF08B8F1050F02DD85
:1015F0004FF0000805E001A91D4802F02BF904286E
:10160000EFD000BF06B0BDE8F0812DE9F04186B013
:1016100006460F4615460024A04604208DF80C000F
:1016200000208DF80D008DF80E50029600BF05E0E9
:10163000395D0DF10F000155601CC4B2AC42F7DBFF
:1016400009E008F1010000F0FF08B8F1050F02DD24
:101650004FF0000805E001A9054802F0FBF8042856
:10166000EFD000BF06B0BDE8F081000000040240EA
:10167000006800401900002001409018B00E0020C2
:1016800000803B45C2000020C00000201CB50121A5
:10169000022003F05BF90121042003F08AF9684677
:1016A00002F056FFC020009002208DF804000320B5
:1016B0008DF8050001208DF807006946FE4802F00C
:1016C000FFFE02220621FC4802F085FF02220721CC
:1016D000F94802F080FF00231A460321F74804F07E
:1016E00094F847F6FF70F549243108600121F3486A
:1016F00003F0A0FB1CBDF149243102680968A1F583
:10170000FE41FF391144016047F6FF71EB4A243274
:101710001160704710B5EA480068401CE84908604D
:10172000082002F056FE10BD00B585B001218803E7
:1017300003F050F90121022003F008F9082000907D
:1017400000208DF8040003208DF8050001208DF89D
:1017500007006946D84802F0B3FE0321012004F0D7
:10176000A1FA0820029000208DF80C000C208DF8C2
:101770000D0001208DF80E0002A802F0B3FD092033
:101780008DF8100003208DF8110002208DF8120052
:1017900001208DF8130004A801F05FFE05B000BD24
:1017A00030B58BB005460C460121022003F0CEF87F
:1017B0000121022003F0FDF809A802F0C9FE332040
:1017C000099002208DF8280003208DF8290009A92E
:1017D000B94802F075FE02220421B74802F0FBFE70
:1017E00002220521B44802F0F6FE02220021B2488E
:1017F00002F0F1FE02220121AF4802F0ECFEB148F6
:1018000003F0E2F90795ADF818400020ADF820008C
:10181000ADF81A0006A9AB4803F083FA01A803F05B
:1018200039FC6020ADF804000120ADF8060000206E
:10183000ADF8100001A9A34803F008FB01A9A148D5
:1018400003F03DFB01A99F4803F086FB01A99D48D9
:1018500003F0E8FB08219B4803F085FC0821994828
:1018600003F08AFC0821974803F093FC082195486F
:1018700003F098FC0121934803F0BEFA012191483E
:1018800003F0D8FA0BB030BD7FB505460C460121F8
:10189000082003F08EF88C4803F096F90295ADF815
:1018A00004400020ADF80C00ADF806008DF80E00E5
:1018B00001A9854803F035FA0121834803F09CFA19
:1018C0000121814803F0E2FE012211467E4803F027
:1018D000C9FE01217C4803F0ADFA32208DF80000EA
:1018E00000208DF8010001208DF802008DF8030022
:1018F000684601F0B2FD7FBD10B50121724803F0CA
:10190000C8FE002878D0012070490870704800781F
:10191000401C6F49087008460078102801DD01203E
:1019200008706B48007811281AD2DFE800F0A4098B
:101930001A2B3C434B51556676848A90949AA000AA
:101940006448B0F90010012001F09AFC6248B0F937
:1019500000206248B0F9001040F2031001F038FD99
:1019600089E05F48B0F90010022001F089FC5D4871
:10197000B0F900205C48B0F900104FF4817001F01C
:101980000EFD78E05948B0F90010032001F078FC12
:101990005748B0F900205748B0F9001040F2011044
:1019A00001F0E4FC67E05448B0F90010042001F0B5
:1019B00067FC60E051480168052001F013FC01F06C
:1019C0003BFD58E04E480188052001F025FC52E01F
:1019D000052001F03BFC4EE04A480168062001F07A
:1019E00001FC3D48B0F900203C48B0F9001040F23D
:1019F000031001F0EDFC3EE042E041480188062082
:101A000001F00AFC3748B0F900203748B0F900105F
:101A10004FF4817001F0C3FC2DE0062001F016FCAC
:101A20003348B0F900203348B0F9001040F20110FB
:101A300001F09CFC1FE034480168072001F0D2FB54
:101A400019E02F480188072001F0E6FB13E007208A
:101A500001F0FCFB0FE02D480168082001F0C2FBFB
:101A600009E027480188082001F0D6FB03E00820A0
:101A700001F0ECFB00BF00BF0121134803F01AFE88
:101A800010BD30B58BB005460C460121102002F088
:101A90005DFF0121084602F09DFF09A802F058FDF4
:101AA0004FF4C440099002208DF8280003208DF8DF
:101AB000290009A916482DE0000402400008004052
:101AC0001C00002000040040000C0040200000200A
:101AD0002400002094000020B6000020B400002064
:101AE00096000020B2000020B000002098000020E6
:101AF000AE000020AC0000209A0000209C000020D6
:101B000022000020A0000020A4000020A800002047
:101B10000010024002F0D4FC01220921804802F0AA
:101B20005AFD01220D217E4802F055FD01220E21B1
:101B30007B4802F050FD7B4803F046F80795ADF86E
:101B400018400020ADF82000ADF81A008DF82200F2
:101B500006A9744803F0E5F801A803F09BFA602099
:101B6000ADF804000120ADF806000020ADF810002B
:101B7000039001A96B4803F069F901A9694803F0D2
:101B8000EBF901A9674803F04DFA0821654803F015
:101B9000EAFA0821634803F0FCFA0821614803F0DF
:101BA00001FB01215F4803F027F901215D4803F0A3
:101BB00041F901215B4803F02EFD0BB030BD30B57B
:101BC0008BB005460C460121022002F0BFFE012128
:101BD000402002F0EEFE09A802F0BAFC4FF40040EB
:101BE000099002208DF8280000208DF82A0003209B
:101BF0008DF8290000208DF82B0009A94A4802F031
:101C00005FFC09220F21484802F0E5FC474802F03A
:101C1000DBFF0795ADF818400020ADF82000ADF8C7
:101C20001A0006A9414803F07CF801A803F032FA33
:101C30007020ADF804000120ADF806000020ADF8DA
:101C40001000039001A9394803F039F908213748F9
:101C500003F092FA0121354803F0CEF80121334810
:101C600003F0E8F80BB030BD30B58BB005460C463C
:101C70000121042002F06AFE0121022002F0AAFEE6
:101C800009A802F065FC4FF40070099002208DF85D
:101C9000280000208DF82A0003208DF8290000205C
:101CA0008DF82B0009A9224802F00AFC0322092121
:101CB0001F4802F090FC1F4802F086FF0795ADF820
:101CC00018400020ADF82000ADF81A008DF8220071
:101CD00006A9184803F025F801A803F0DBF96020F5
:101CE000ADF804000120ADF806000020ADF81000AA
:101CF000039001A90F4803F095F908210D4803F05E
:101D000051FA01210B4803F077F80121094803F04B
:101D100091F80121074803F07EFC0BB030BD0000B4
:101D20000010024000000140000402400018004082
:101D3000000802400004014000B587B00121864838
:101D400002F004FE0121480402F033FE07220321C1
:101D5000824802F040FC0820059002208DF818000F
:101D600000208DF81A0003208DF8190000208DF84E
:101D70001B0005A9794802F0A3FB794803F076FD22
:101D8000784801900020ADF808004FF40050ADF8FD
:101D90000A00C010ADF80C000420ADF80E000020C1
:101DA000ADF8100001A96E4803F0AEFD012240F22B
:101DB00025516B4803F0E6FE0121694803F02CFE33
:101DC00026208DF8000000208DF8010001208DF8FC
:101DD00002008DF80300684601F03FFB07B000BD2C
:101DE00070B52DED048B04465F48B0F900006438EF
:101DF000A04207DA5C48B0F900006430844201DA9E
:101E0000002503E058480088001B05B2284605F06D
:101E100080FD41EC190B9FED550B53EC102B05F099
:101E20008FFD41EC180B05F045FD00B2BDEC048BB5
:101E300070BD10B540F22551494803F0DEFE002880
:101E40007ED0474803F017FE4A4908704A48007898
:101E500038B9084600780F282AD1FF204649087073
:101E600026E0444800784549454A12788854444859
:101E70000078172811D10846C07D022802D00846F4
:101E8000C07D18B9FF203F49087006E000203A499C
:101E900008703C4908703A49087039480078401C7D
:101EA0003749087008460078182801DD00200870BE
:101EB0003448007800284DD0304800782F494978C0
:101EC00040EA0120C0F30A002F4908802B4880789F
:101ED00040012A49497840EAE100C0F30A002B4951
:101EE00008802648807880112449C97840EA81001A
:101EF0002249097940EA8120C0F30A002449088078
:101F00001E48007940101D49497940EAC110C0F3CC
:101F10000A00204908801948407A00F00F001E4945
:101F200008801648807900F00F00401C1B4908808B
:101F3000002011490870134908701149087000E029
:101F400008E0174908600120164908700421164866
:101F500002F03DFB10BD0000010020000000024027
:101F600000440040A08601003E0000200000000068
:101F70000000F83F5400002056000020E801002037
:101F80005500002057000020280000202A000020D3
:101F90002C0000202E0000204A0000204E000020CF
:101FA000380000203C000020001002401CB5012138
:101FB000122002F0CBFC0420009001208DF80400D8
:101FC00000208DF8060003208DF8050001208DF813
:101FD00007006946364802F073FA1CBD1CB50121A2
:101FE000182002F0B3FC7020009001208DF804004E
:101FF00000208DF8060003208DF8050001208DF8E3
:10200000070069462A4802F05BFA7021284802F06E
:10201000D5FA3020009001208DF8040000208DF8C2
:10202000060003208DF8050001208DF807006946A1
:10203000204802F045FA30211E4802F0BFFA1CBDCC
:102040001CB50121102002F081FC702000900120BD
:102050008DF8040000208DF8060003208DF805009F
:1020600001208DF807006946114802F029FA702115
:102070000F4802F0A3FA1CBD1CB50121082002F094
:1020800065FC8020009001208DF8040000208DF870
:10209000060003208DF8050001208DF80700694631
:1020A000044802F00DFA8021024802F087FA1CBDB4
:1020B00000100240000C024000BF704700BFFE4A03
:1020C000128802F04002002AF9D0C2B2FA4B9A807C
:1020D000704710B596B004460121880402F069FCEF
:1020E0000121022002F032FC0121480502F02EFC01
:1020F00007220A21F14802F06EFA07220B21EF486D
:1021000002F069FA14A802F023FA4FF480601490E8
:1021100002208DF8540003208DF8550014A9E748DB
:1021200002F0CEF94FF40060149002208DF85400B4
:1021300003208DF8550014A9E04802F0C1F9E048E9
:1021400003F094FB10A803F045FC10940020ADF8B8
:102150004400ADF84600ADF84800ADF84C000C2046
:10216000ADF84A0010A9D64803F0CEFB012240F298
:102170002551D34803F006FD27208DF83C000020B0
:102180008DF83D0001208DF83E008DF83F000FA82E
:1021900001F063F90121CA4803F03EFC0E208DF8DE
:1021A0003C0001208DF83D0002208DF83E0001200A
:1021B0008DF83F000FA801F050F9C24801F0B0FEC1
:1021C0004FF000600090BE48001D0190BE48029094
:1021D0004020039080200490002005904FF4806000
:1021E000069000200790089009904FF480300A90E4
:1021F00000200B900C900D900E906946B14801F0B4
:1022000031FF01228021AE4803F0B3FC01221021EE
:10221000AC4801F0EEFF0021AA4801F05DFF16B0C6
:1022200010BD02465068081A80B2704770B500248D
:1022300000BF40F22551A24803F0DFFC002832D055
:102240009F4803F018FCC4B2A048007830B97F2C36
:1022500004D101209D490870002048819B480078E6
:1022600001281BD19948408999490C5497484089C5
:10227000401C9649488108464089032801D10846F8
:1022800004819248408991490989884206DB8F4838
:102290004089032802DD00208C49087040F2255156
:1022A000874803F0E1FC40F22441854803F0A5FC97
:1022B00028B34FF4007183483038FFF7B2FF8549E7
:1022C000088000217F48303801F006FF00BF7D48BC
:1022D000303801F04EFF0028F9D17E480188794856
:1022E000303801F01AFF01217648303801F0F4FE51
:1022F00073480088C5B27248001D0088C5B270BD21
:1023000070B504460D4674480078C8B900216D4880
:1023100001F0E2FE00BF6B4801F02BFF0028FAD16C
:1023200000222146674801F015FFA9B2654801F077
:10233000F4FE0121634801F0CFFE012066490870D8
:1023400070BD70B505460E46002400BF04E0285D50
:102350005D490855601CC4B2B442F8DB31465A48A6
:10236000FFF7CEFF70BD10B55C495648303801F01C
:102370005DFF20B159495348303801F081FF10BD4D
:102380000FB438B505A800904F48009A049903F09F
:10239000EBFD002000904C4803F0F8FD0446214678
:1023A0004948FFF7ADFF38BC5DF814FB10B54C4948
:1023B000444801F03BFF30B10020474908704849CC
:1023C000404801F05DFF10BD10B596B004460121F4
:1023D000C80402F0EEFA0121042002F0B7FA01214C
:1023E000480502F0B3FA08220A213E4802F0F3F849
:1023F00008220B213B4802F0EEF814A802F0A8F8DE
:102400004FF48060149002208DF8540003208DF862
:10241000550014A9334802F053F84FF400601490AB
:1024200002208DF8540003208DF8550014A92D4882
:1024300002F046F810A803F0CDFA10940020ADF891
:102440004400ADF84600ADF84800ADF84C000C2053
:10245000ADF84A0010A9244803F056FA0D208DF873
:102460003C0002208DF83D008DF83E0001208DF8E3
:102470003F000FA800F0F1FF1248183801F050FD9E
:102480004FF0006000901848001D0190174802901E
:102490000020039080200490002005904FF480607D
:1024A00006900020079008904FF480700990400239
:1024B0000A9000200B901BE0001001400004024035
:1024C00000480040586002400802002088040020B4
:1024D00088020020640000205C00002000880010BA
:1024E0000080001800080240004C00401805002041
:1024F0000C900D900E906946FE4801F0B3FD01224C
:102500004021FD4803F035FB0121FA4801F0E4FDCC
:10251000002240F22551F84803F034FB002240F23B
:102520002661F54803F02EFB012240F22441F248D7
:1025300003F028FB34208DF83C0002208DF83D008C
:1025400003208DF83E0001208DF83F000FA800F019
:1025500084FF0121E84803F05FFAE648303001F0DB
:10256000DFFC4FF000600090E348001D0190E3485D
:1025700002904020039080200490002005904FF4AA
:102580008060069000200790089009904FF48030FA
:102590000A9000200B900C900D900E906946D54843
:1025A000303001F05FFD01228021D34803F0E1FAD1
:1025B00001221021CF48303001F01BFE0021CD4810
:1025C000303001F089FD0F208DF83C0002208DF89D
:1025D0003D008DF83E0001208DF83F000FA800F06F
:1025E0003CFF16B010BD02465068081A80B2704712
:1025F00070B50024002540F22551BF4803F0FDFAD4
:1026000000283DD0BC4803F036FAC4B2BC4800787C
:1026100050B9552C08D10120B949087000204881D3
:1026200008464089B7490C54B5480078012811D1B3
:10263000B348407870B9532C08D10120B049487094
:10264000488108464089AF490C5403E00020AC495A
:1026500008704870AA48007801280CD1A848407832
:10266000012808D1A6484089A6490C54A4484089AD
:10267000401CA349488140F225519F4803F0F4FAD9
:1026800040F224419C4803F0B8FAF0B18021994807
:10269000FFF7A9FF9C4908700021964801F01CFD36
:1026A00000BF944801F065FD0028FAD180219148CF
:1026B00001F033FD01218F4801F00EFD8E480088A6
:1026C000C5B28D48001D0088C5B270BD70B5044606
:1026D0000D468E480078F0B900218648303001F070
:1026E000FBFC00BF8348303001F043FD0028F9D1E6
:1026F000002221467F48303001F02CFDA9B27D48F0
:10270000303001F00AFD01217A48303001F0E4FC5C
:1027100001207E49087070BD70B505460E46002444
:1027200000BF04E0285D75490855601CC4B2B4427E
:10273000F8DB31467148FFF7C9FF70BD10B5744929
:102740006C48303001F072FD60B100206F490870B4
:1027500070496848303001F038FD6E4965483030C6
:1027600001F08EFD10BD10B56B49624801F05EFDB1
:1027700048B14FF081515F4801F027FD4FF0815182
:102780005C4801F07DFD10BD10B596B004460121F6
:10279000042002F0DBF80121082002F0D7F8012123
:1027A000080502F006F90121480502F0CFF80822D9
:1027B00002215A4801F00FFF08220C21584801F06D
:1027C0000AFF0420149002208DF8540003208DF895
:1027D000550000208DF8560001208DF8570014A9EF
:1027E0004E4801F06DFE4FF48050149014A94C48EF
:1027F00001F066FE10940020ADF84400ADF84600EC
:10280000ADF84800ADF84C000C20ADF84A0010A916
:10281000444803F079F80B208DF83C0002208DF835
:102820003D008DF83E0001208DF83F000FA800F01C
:1028300014FE3048303801F073FB4FF00060009018
:102840003848001D019038480290002003908020F5
:102850000490002005904FF48060069000200790BF
:1028600008904FF48070099040020A9000200B906D
:102870000C900D900E9069461E48303801F0F2FB26
:1028800001224021274803F074F90121194830380A
:1028900001F022FC002240F22551224803F072F997
:1028A000002240F226611F4803F06CF9012240F239
:1028B00024411C4803F066F935208DF83C000020C7
:1028C0008DF83D0001208DF83E008DF83F000FA8E7
:1028D00000F0C3FD0121134803F09EF82F208DF86E
:1028E0003C0002208DF83D008DF83E0001208DF85F
:1028F0003F001BE040600240004C00409804002074
:1029000098050020180500206800002069000020BC
:10291000208000202000002000802010000C0240B9
:102920000008024000500040A40500200FA800F05D
:1029300094FDFE4801F0F4FA4FF000600090FC486E
:102940000190FC48029040200390802004900020D9
:1029500005904FF480600690002007900890099041
:102960004FF480300A9000200B900C900D900E9048
:102970006946EE4801F076FB01228021EC48001FF9
:1029800003F0F7F801221021E84801F032FC0021A1
:10299000E64801F0A1FB16B010BD02465068081AC7
:1029A00080B2704770B50024002540F22551E04800
:1029B000001F03F022F920B1DD48001F03F05BF88F
:1029C000C4B240F22441DA48001F03F016F920B3E4
:1029D0008021D648A838FFF7E0FFD74908700021CA
:1029E000D248A83801F078FB00BFD048A83801F0E1
:1029F000C0FB0028F9D18021CC48A83801F08DFB1C
:102A00000121CA48A83801F067FBC948001F0088A7
:102A1000C5B2C748001F8088C5B270BD10B5C74990
:102A2000C24801F003FC60B10020C54908704FF0B6
:102A30002051BE4801F0C9FB4FF02051BB4801F0C6
:102A40001FFC10BD70B504460D46BD480078C8B9DE
:102A50000021B64801F040FB00BFB44801F089FBFB
:102A60000028FAD100222146B04801F073FBA9B238
:102A7000AE4801F052FB0121AC4801F02DFB0120D2
:102A8000AF49087070BD70B505460E46002400BF02
:102A900004E0285DA7490855601CC4B2B442F8DBC5
:102AA0003146A448FFF7CEFF70BD10B596B004467E
:102AB0000121202001F08EFF0121042001F046FFBA
:102AC0000121880501F042FF082206219D4801F0FE
:102AD00082FD082207219B4801F07DFD14A801F02A
:102AE00037FD4020149002208DF8540003208DF80B
:102AF000550014A9934801F0E3FC802014900220B3
:102B00008DF8540003208DF8550014A98D4801F06C
:102B1000D7FC8D4802F0AAFE10A802F05BFF1094CB
:102B20000020ADF84400ADF84600ADF84800ADF81F
:102B30004C000C20ADF84A0010A9834802F0E4FED6
:102B400039208DF83C0002208DF83D008DF83E00C4
:102B500001208DF83F000FA800F07FFC7B4801F0BA
:102B6000DFF94FF0206000907748001D0190784811
:102B70000290002003904FF48060049000200590A4
:102B80004FF4806006900020079008904FF480700A
:102B9000099040020A9000200B900C900D900E902E
:102BA00069466A4801F05EFA01224021664802F057
:102BB000E0FF0121654801F08FFA002240F2255123
:102BC000614802F0DFFF002240F226615E4802F019
:102BD000D9FF012240F224415B4802F0D3FF472095
:102BE0008DF83C0001208DF83D008DF83E008DF8F9
:102BF0003F000FA800F031FC0121534802F00CFF08
:102C000045208DF83C0002208DF83D008DF83E00F7
:102C100001208DF83F000FA800F01FFC4B487830D2
:102C200001F07EF94FF0206000904748001D0190B0
:102C30004848029040200390000104900020059035
:102C40004FF48060069000200790089009904FF4A0
:102C500080300A9000200B900C900D900E906946E9
:102C60003A48783001F0FEF901228021364802F01E
:102C700080FF012210213548783001F0BAFA002196
:102C80003248783001F028FA16B010BD012080F3E8
:102C9000138800BF00BF00BF00BF00BF00BFBFF36D
:102CA0004F8F00BF00BF00BF2B48006800F4E060FA
:102CB0002A490843001D2849086000BF00BF00BF23
:102CC000BFF34F8F00BF00BF00BF00BF00BFFDE7D5
:102CD00002465068081A80B2704770B5002400257B
:102CE00040F22441184802F088FFD8B34FF48061C5
:102CF0001648FFF7EDFF1A49088008460178144886
:102D0000FEF796F80021114801F0E6F900BF0F48E0
:102D100001F02FFA0028FAD14FF480610B4801F03E
:102D2000FCF90121094801F0D7F91CE0B860024024
:102D300004500040240600206B0000200080002882
:102D40006A0000200008024000140140286402408C
:102D5000B00A0020B00600200CED00E00000FA05EB
:102D60006E00002006E04F480088C5B24D48001DA7
:102D70000088C5B240F225514A4802F03EFF20B11A
:102D800040F22551474802F06FFF70BD10B546492B
:102D9000464801F04BFA38B14549444801F015FA6C
:102DA0004149424801F06CFA10BD10B541493F4815
:102DB000783001F03BFA60B100203F4908703D498E
:102DC0003A48783001F001FA3A493848783001F051
:102DD00057FA10BD70B504460D4637480078F0B973
:102DE00000213248783001F077F900BF2F48783061
:102DF00001F0BFF90028F9D1002221462B48783094
:102E000001F0A8F9A9B22948783001F086F901212A
:102E10002648783001F060F901202749087070BD1C
:102E200070B505460E4600244FF48071234801F02A
:102E3000C3FB00BF04E0285D21490855601CC4B2F3
:102E4000B442F8DB31461E48FFF7C4FF4FF48071EF
:102E50001A4801F0B3FB70BD1CB54FF4E130FFF729
:102E600024FE0121042001F071FD684601F070FB91
:102E70004FF48070009001208DF8040000208DF840
:102E8000060002208DF8070003208DF80500694632
:102E90000A4801F015FB4FF48071084801F08EFBE1
:102EA0001CBD00000014014000880010286402408E
:102EB000000800100080202082000020000802404E
:102EC000B00600207CB505460C46FAA103C9CDE941
:102ED0000001200A8DF80500E0B28DF804000822F8
:102EE00069462846FEF765F97CBD7CB505460C466B
:102EF000F2A103C9CDE90001E0B28DF80400200A77
:102F00008DF80500200C8DF80600200E8DF80700C6
:102F1000082269462846FEF74CF97CBD7CB505467B
:102F20000C46E8A103C9CDE900018DF80440052253
:102F300069462846FEF73DF97CBD38B50446E3A056
:102F400000680090022269462046FEF732F938BD3B
:102F500010B586B00446DEA103C9CDE904010822FC
:102F600004A904F5C060FEF724F90A20FEF718F85A
:102F7000D9A103C9CDE90201082202A904F5C06064
:102F8000FEF717F90A20FEF70BF8D5A103C9CDE922
:102F900000010822694604F5C060FEF70AF90A201C
:102FA000FDF7FEFF06B010BD1CB50446CEA103C957
:102FB000CDE900010822694604F5C060FEF7F9F882
:102FC0001CBD1CB50446CAA103C9CDE900010822F5
:102FD000694604F5C060FEF7ECF81CBD1FB5044659
:102FE000BBA003C8CDE90201082202A904F5C06014
:102FF000FEF7DFF80A20FDF7D3FFB7A103C9CDE93B
:1030000000010822694604F5C060FEF7D2F80A20E4
:10301000FDF7C6FF1FBD1CB50446B7A103C9CDE926
:1030200000010822694604F5C060FEF7C2F81CBD25
:1030300010B50520FFF7EFFF0A20FDF7B1FF0520CF
:10304000FFF7B2FF0A20FDF7ABFF0520FFF7C6FF31
:103050000A20FDF7A5FF0620FFF7DDFF0A20FDF798
:103060009FFF0620FFF7A0FF0A20FDF799FF06202B
:10307000FFF7B4FF0A20FDF793FF0720FFF7CBFF10
:103080000A20FDF78DFF0720FFF78EFF0A20FDF7CE
:1030900087FF0720FFF7A2FF0A20FDF781FF082026
:1030A000FFF7B9FF0A20FDF77BFF0820FFF77CFF41
:1030B0000A20FDF775FF0820FFF790FF0A20FDF7B3
:1030C0006FFF0120FFF77DFF0A20FDF769FF012058
:1030D000FFF76AFF0A20FDF763FF0120FFF738FFC3
:1030E0000A20FDF75DFF0220FFF76BFF0A20FDF7C6
:1030F00057FF0220FFF758FF0A20FDF751FF02207B
:10310000FFF726FF0A20FDF74BFF0320FFF759FFCB
:103110000A20FDF745FF0320FFF746FF0A20FDF7D1
:103120003FFF0320FFF714FF0A20FDF739FF0420BB
:10313000FFF747FF0A20FDF733FF0420FFF734FFB6
:103140000A20FDF72DFF0420FFF702FF0A20FDF7FC
:1031500027FF10BD2DE9F04104460F4615461E46D7
:1031600021460120FFF7AEFE0A20FDF719FF394680
:103170000220FFF7A7FE0A20FDF712FF29460320D1
:10318000FFF7A0FE0A20FDF70BFF31460420FFF7F2
:1031900099FE0A20FDF704FFBDE8F0812DE9F0411A
:1031A00004460F4615461E4621460520FFF79DFEA4
:1031B0000A20FDF7F5FE39460620FFF796FE0A20A5
:1031C000FDF7EEFE29460720FFF78FFE0A20FDF7E8
:1031D000E7FE31460820FFF788FE0A20FDF7E0FEF3
:1031E000BDE8F0817CB505460C4645A103C9CDE993
:1031F0000001E0B28DF80400200A8DF80500200CD3
:103200008DF80600200E8DF807000822694605F5A6
:10321000C060FDF7CEFF7CBD7CB505460C463AA1EB
:1032200003C9CDE90001E0B28DF80400200A8DF851
:103230000500200C8DF80600200E8DF807000822EE
:10324000694605F5C060FDF7B4FF7CBD1CB50446BA
:103250002FA103C9CDE900010822694604F5C06029
:10326000FDF7A7FF1CBD1CB504462BA103C9CDE982
:1032700000010822694604F5C060FDF79AFF1CBDF5
:103280007CB505460C4626A103C9CDE90001E0B294
:103290008DF80400200A8DF80500200C8DF806003A
:1032A000200E8DF807000822694605F5C060FDF77D
:1032B00080FF7CBDFF06020100000000FF06160231
:1032C00000000000FF06000100000000FF100000E9
:1032D0002B406001060000002B4060010700000049
:1032E0002B4060010F0000002B40600180000000B7
:1032F0002F606001030000002F60600101000000EA
:10330000237A6001000000002381600100000000BA
:103310002B4060013F0000004041600100000000C0
:1033200023FF6001000000000020084908800849D0
:103330000880084908800849088008490860084949
:103340000860084908600849086070479400002038
:1033500096000020980000209A0000209C00002089
:10336000A0000020A4000020A80000207CB5064694
:103370000C461546002000900190200A8DF80000B0
:10338000E0B28DF80100280A8DF80200E8B28DF84D
:103390000300082269463046FEF708F97CBD7CB57B
:1033A00006460C461546002000900190200A8DF834
:1033B0000000E0B28DF80100280A8DF80200E8B2A2
:1033C0008DF80300082269463046FEF7EFF87CBD11
:1033D0007CB506460C461546002000900190200A58
:1033E0008DF80000E0B28DF80100280A8DF8020087
:1033F000E8B28DF80300082269463046FEF7D6F899
:103400007CBD0020064908800649088006490880DE
:103410000649088006490880064908807047000070
:10342000AC000020AE000020B0000020B200002060
:10343000B4000020B600002010B5034C0822034958
:103440002046FEF7E2F810BD40019018B8000020B9
:1034500032490143324A1160704770B500210023A0
:103460000F22C4781CB32E4C246804F4E064C4F525
:10347000E064C4F30721C1F10404E3B20A414478D3
:103480009C40E1B28478144021430C07210E254C66
:1034900005786155047804F01F050124AC400578D7
:1034A0006D11AD0005F1E025C5F8004109E0047893
:1034B00004F01F050124AC401B4D0678761145F839
:1034C000264070BD194A0A400243154B1B1F1A6063
:1034D000704739B1124A121D12680243104B1B1D6E
:1034E0001A6006E00E4A121D126882430C4B1B1D27
:1034F0001A607047042808D14FF0E021096941F0B3
:1035000004014FF0E022116107E04FF0E02109696A
:1035100021F004014FF0E022116170470000FA052C
:103520000CED00E000E400E080E100E080FFFF1F20
:1035300010B50446FE48844209D10121480601F035
:10354000A0FA00214FF0007001F09BFA08E0012181
:10355000880601F096FA00214FF0806001F091FAA0
:1035600010BD30B5024600200023146824F0020488
:103570001460146844F00104146000E05B1C54689B
:1035800004F001041CB94FF6FF74A342F6D154684D
:1035900004F001040CB900206CE08C79012C04D1FA
:1035A000146844F08004146003E0146824F080047C
:1035B0001460CC79012C04D1146844F040041460E8
:1035C00003E0146824F0400414600C7A012C04D148
:1035D000146844F02004146003E0146824F020040C
:1035E00014604C7A012C04D1146844F01004146067
:1035F00003E0146824F0100414608C7A012C04D1C8
:10360000146844F00804146003E0146824F008040B
:103610001460CC7A012C04D1146844F004041460C2
:1036200003E0146824F0040414608C78A407CD78B7
:1036300044EA05640D7944EA05444D7944EA0554A9
:103640000D886D1E2C43D461146824F001041460AD
:10365000002300E05B1C546804F001041CB14FF629
:10366000FF74A342F6D1546804F001040CB10020A9
:1036700000E0012030BD10B50021837A012202FA5A
:1036800003F1AC4A126842F00102AA4B1A60A94A3F
:103690001C3212688A43A74B1C331A60027BCAB9DA
:1036A000A44A0C3212688A43A24B0C331A60428837
:1036B000C38842EA03439F4A4032847A42F8343056
:1036C0000288838842EA03439A4A4032847A02EBB2
:1036D000C4025360027B012A19D1964A0C32126847
:1036E0000A43944B0C331A604288038842EA03432E
:1036F000904A4032847A42F83430C288838842EA61
:1037000003438C4A4032847A02EBC4025360C27A8B
:103710003AB9884A121D12688A43864B1B1D1A60EB
:1037200006E0844A121D12680A43824B1B1D1A6070
:10373000028932B97F4A143212688A437D4B1433AE
:103740001A600289012A06D17A4A143212680A43A1
:10375000784B14331A60427B012A06D1754A1C3219
:1037600012680A43734B1C331A60724A126822F0C3
:103770000102704B1A6010BD00218171C17101728C
:1037800041728172C1728170C17003210171022185
:1037900041710121018070476649096841F00101CA
:1037A000644A11601146096843F60E729143614AFA
:1037B00011601146096841EA00211160114609684B
:1037C00021F001011160704721B1026842F480329A
:1037D000026003E0026822F4803202607047E1B1C7
:1037E000026842F0800202604FF4C272125842F442
:1037F00080734FF4C27213504FF4CA72125842F4DD
:1038000080734FF4CA7213504FF4D272125842F4BC
:1038100080734FF4D27213501BE0026822F08002D2
:1038200002604FF4C272125822F480734FF4C272D5
:1038300013504FF4CA72125822F480734FF4CA72B4
:1038400013504FF4D272125822F480734FF4D27294
:103850001350704710B502460020936803F0806350
:10386000B3F1806F00D110E0936803F00063B3F10F
:10387000006F01D1012008E0936803F08053B3F199
:10388000805F01D1022000E00420042879D002F5F5
:10389000C07303EB00131B6803F0010402F5C0734F
:1038A00003EB00131C600B7A7BB94B7A0C8843EA5C
:1038B000445302F5C07404EB00142468234302F55A
:1038C000C07404EB0014236010E00B7A4C6843EAE8
:1038D000C4034C7A234302F5C07404EB001424683B
:1038E000234302F5C07404EB001423608B7A03F0C9
:1038F0000F038B7202F5C07303EB00135B6823F0B8
:103900000F0402F5C07303EB00135C6002F5C07393
:1039100003EB00135B688C7A234302F5C07404EB5D
:10392000001463608B7B1C064B7B44EA034403E07A
:1039300000640040006600400B7B44EA0323CC7A1D
:10394000234302F5C07404EB0014A3608B7C1C06B7
:103950004B7C44EA03440B7C44EA0323CC7B2343A3
:1039600002F5C07404EB0014E36002F5C07303EBCE
:1039700000131B6843F0010402F5C07303EB00134E
:103980001C6010BD10B50246002321B1012907D0EB
:1039900002290FD109E09068F94C00EA04030BE01A
:1039A0009068F84C00EA040306E09068F64C00EAE0
:1039B000040301E0002300BF00BFF44C181BA34226
:1039C00016D007DC83B16FF08060184470B1022814
:1039D00018D111E0B0F5007F10D0ED4C204448B173
:1039E000B0F5003F0ED10BE002230DE000230BE009
:1039F000002309E0002307E0012305E0012303E0A1
:103A0000012301E0002300BF00BFD8B210BD21B1E7
:103A1000012907D002290FD109E0826842F0800213
:103A200082600AE0826842F40042826005E08268B7
:103A300042F40002826000E000BF00BF704710B592
:103A400000F5D87303EB01131B6803F00403137232
:103A5000137A53B900F5D87303EB01131B6840F2D6
:103A6000FF7404EA5353136009E000F5D87303EBC5
:103A700001131B686FF0604404EAD303536000F540
:103A8000D87303EB01131B6803F00203537200F5B4
:103A9000D87303EB01135B6803F00F03937200F517
:103AA000D87303EB01135B681B0AD37400F5D8735A
:103AB00003EB01139B68D37200F5D87303EB01137A
:103AC0009B681C0A147300F5D87303EB01139B6801
:103AD0001C0C547300F5D87303EB01139B681B0E89
:103AE000937300F5D87303EB0113DB68D37300F510
:103AF000D87303EB0113DB681C0A147400F5D87348
:103B000003EB0113DB681C0C547400F5D87303EB52
:103B10000113DB681B0E937421B9C36843F02003C3
:103B2000C36003E0036943F02003036110BD21B9C2
:103B3000C26842F02002C26003E0026942F0200243
:103B4000026170470246002019B9D36803F00300F0
:103B500006E0012903D1136903F0030000E000200F
:103B6000704710B502460B4600204FF6FF71BBB9F7
:103B7000146824F0020444F00104146000E0491EBB
:103B8000546804F00304012C01D00029F7D15468D3
:103B900004F00304012C01D0002032E0012030E0C9
:103BA000012B13D1146824F00304146000E0491EB3
:103BB000546804F003040CB10029F8D1546804F0EF
:103BC00003040CB100201CE001201AE0022B17D1E5
:103BD000146824F0010444F00204146000E0491E5B
:103BE000546804F00304022C01D00029F7D1546872
:103BF00004F00304022C01D0002002E0012000E0C8
:103C0000002010BD014600200A6822F0010242F0A7
:103C100002020A604A6802F00302022A00D101206F
:103C2000704701464FF6FF7200200B6823F0020335
:103C30000B6000E0521E4B6803F00203022B01D11F
:103C4000002AF7D14B6803F00203022B00D00120B9
:103C50007047014600208A6902F0700070470146F3
:103C600000208A69100E7047014600208A69C2F35D
:103C7000074070471AB143690B43436102E043694F
:103C80008B434361704710B50246002001F4700376
:103C900043B19369C1F3130423400BB101202DE01C
:103CA00000202BE001F0807343B15368C1F313048B
:103CB00023400BB1012021E000201FE001F0006350
:103CC00043B19368C1F3130423400BB1012015E005
:103CD000002013E001F0007343B1D368C1F3130473
:103CE00023400BB1012009E0002007E01369C1F374
:103CF000130423400BB1012000E0002010BD00227E
:103D0000244B994202D10023836111E0C1F31302D5
:103D100001F000730BB1C2600AE001F080630BB1E7
:103D2000026105E001F000630BB1826000E04260D7
:103D300070470246002002EA01030BB1012000E0B7
:103D40000020704770B504460D4600266069284083
:103D5000002872D0B5F5807F69D01DDC082D42D0D7
:103D600006DC012D2DD0022D31D0042D7FD134E081
:103D7000102D3ED0202D42D0402D78D145E00000BE
:103D80000300000400030008000003100001000805
:103D90000001FFF77000F030B5F5004F61D009DC8D
:103DA000B5F5007F4AD0B5F5806F4DD0B5F5006F01
:103DB0005DD150E0B5F5803F2DD0B5F5003F56D12F
:103DC0002FE0A0685549FFF7B4FF064651E0E068D0
:103DD0000321FFF7AEFF06464BE0E0680821FFF73E
:103DE000A8FF064645E0E0681021FFF7A2FF06465F
:103DF0003FE020690321FFF79CFF064639E0206978
:103E00000821FFF796FF064633E020691021FFF7EF
:103E100090FF06462DE060680821FFF78AFF0646FE
:103E200027E060681021FFF784FF064621E0A069C3
:103E30000121FFF77EFF06461BE01BE0A06902217F
:103E4000FFF777FF064614E0A0690421FFF771FF32
:103E500006460EE00BE0A0697021FFF76AFF0646F8
:103E600007E060680421FFF764FF064601E00026D2
:103E700000BF00E00026304670BDB1F5007F3AD0AB
:103E80000FDC202928D006DC01291CD004291DD0F4
:103E9000082940D11DE0402921D0B1F5807F3AD1D9
:103EA00026E0B1F5004F31D006DCB1F5806F25D0AA
:103EB000B1F5006F2FD124E0B1F5803F12D0B1F5FC
:103EC000003F28D111E0154A826025E00822C26037
:103ED00022E01022C2601FE0082202611CE01022D2
:103EE000026119E00822426016E01022426013E0ED
:103EF0000422426010E0042242600DE0042242608D
:103F00000AE0002282610422426005E00022826110
:103F10000422426000E000BF00BF704701010100C1
:103F2000016821F0010101600021016041608160B0
:103F3000C160016121214161DB49884204D13D21F9
:103F4000D94A103A91608CE0D7491831884205D19E
:103F50004FF47461D44A103A916082E0D249303112
:103F6000884205D14FF47411CF4A103A916078E03D
:103F7000CD494831884205D14FF07461CA4A103AA0
:103F800091606EE0C8496031884204D1C749C64A91
:103F9000103AD16065E0C4497831884204D1C449FF
:103FA000C14A103AD1605CE0BF499031884204D1E7
:103FB000C049BD4A103AD16053E0BB49A83188429C
:103FC00005D14FF03D51B84A103AD16049E0BA49A5
:103FD000884204D13D21B84A083A116041E0B6490F
:103FE0001831884205D14FF47461B34A083A116020
:103FF00037E0B1493031884205D14FF47411AE4AEF
:10400000083A11602DE0AC494831884205D14FF0A3
:104010007461A94A083A116023E0A74960318842D7
:1040200004D1A249A44A121F11601AE0A2497831B2
:10403000884204D19E49A04A121F116011E09E4996
:104040009031884204D19B499B4A121F116008E0BD
:104050009949A831884204D14FF03D51964A121F28
:104060001160704710B500220268944B1A40CC686A
:104070000B6823434C6923438C692343CC69234356
:104080000C6A23434C6A23438C6A23434C6B2343BF
:104090008C6B23431A430260426922F00702D1E984
:1040A0000B3423431A4342610B6943604B688360BE
:1040B0008B68C36010BD0021016041608160C160F8
:1040C000016141618161C161016241628162C162DC
:1040D000016341638163704721B1026842F00102CC
:1040E000026003E0026822F001020260704721B121
:1040F000026842F40042026003E0026822F40042D7
:104100000260704721B1026842F02002026003E0C1
:10411000026822F020020260704741607047014649
:10412000486880B2704722B1036843F400230360FB
:1041300003E0036823F4002303600161704721B1A9
:10414000026842F48022026003E0026822F48022C6
:10415000026070470AB1016100E0C160704701462A
:1041600000200A6802F400220AB1012000E00020C9
:104170007047014600200A6802F001020AB10120DE
:1041800000E000207047014600204A6902F0380034
:10419000704730B503460A4600200024464DAB4226
:1041A00002D24149103901E04349103902F000556B
:1041B0000DB14C6800E00C68414D2C4004EA02054A
:1041C0000DB1012000E0002030BD02463A4B9A427A
:1041D00002D23548103801E03748103801F000535A
:1041E0001BB1374B0B40C36002E0354B0B40836083
:1041F000704710B501F080034BB122B1436943F021
:104200008003436103E0436923F080034361802915
:104210000BD02AB1036801F01E042343036004E0BD
:10422000036801F01E04A343036010BD70B502468D
:10423000002000240025204EB24202D21A4B103B2F
:1042400001E01D4B103B1F4E0E4036B11E2606EA04
:10425000D124166806EA040502E0566906F08005D6
:1042600001F000560EB15C6800E01C68144E34404A
:1042700004EA010616B10DB1012000E0002070BD76
:1042800002460D4B9A4202D20748103801E00A4814
:10429000103801F000531BB1094B0B40C36002E022
:1042A000074B0B4083607047106002403D000020C8
:1042B000400F002000003D20106402403F801CF0B1
:1042C0007D0F7D0F3C0F3C0F002044490860091D05
:1042D0000860091D0860091D086041483F49143104
:1042E0000860704700213D498279002A3AD00A4689
:1042F000126803689A430B461A600A1D1268036825
:104300009A430B1D1A60027911440A6803681A4324
:104310000A60324A0832126803689A432F4B083306
:104320001A601A1D126803689A432C4B0C331A60EA
:104330004279102A0ED11A1F126803681A43274BBC
:1043400008331A601A1D126803681A43234B0C3392
:104350001A600DE02149427911440A6803681A4342
:104360000A6005E0027911440A6803689A430A600A
:1043700070470021016001710C21417100218171A0
:1043800070471649103109680143144A1032116010
:10439000704701460020114A143212680A400AB1DF
:1043A000012000E0002070470C491431086070477C
:1043B000014600200022094B1B6803EA0102074B5B
:1043C00014331B680B4013B10AB1012000E0002038
:1043D000704702491431086070470000003C0140FA
:1043E000FFFF7F0010B504468C48844208D10121AC
:1043F000084600F000FB0021012000F0FCFA5EE01E
:104400008748844208D10121022000F0F4FA0021FB
:10441000022000F0F0FA52E08248844208D10121E3
:10442000042000F0E8FA0021042000F0E4FA46E05D
:104430007D48844208D10121082000F0DCFA0021E7
:10444000082000F0D8FA3AE07848844208D10121E7
:10445000102000F0D0FA0021102000F0CCFA2EE05D
:104460007348844208D10121202000F0C4FA0021C1
:10447000202000F0C0FA22E06E48844208D10121D9
:10448000402000F0B8FA0021402000F0B4FA16E015
:104490006948844208D10121802000F0ACFA002153
:1044A000802000F0A8FA0AE06448844207D1012184
:1044B000801500F0A0FA0021A01500F09CFA10BDB4
:1044C000F0B50A4600210023002400BF3DE001258D
:1044D00005FA01F3156805EA03049C4234D1056826
:1044E0004F000326BE40B543056015794E00B54028
:1044F0000668354305601579012D02D01579022D26
:1045000016D185684F000326BE40B54385605579B6
:104510004E00B540866835438560456801268E406B
:10452000B5434560456896798E40B6B235434560DF
:10453000C5684F000326BE40B543C560D5794E001F
:10454000B540C6683543C560491C1029BFD3F0BDCE
:104550004FF6FF7101600021017141718171C171DC
:10456000704708B54FF480320092009A0A430092D7
:10457000009AC261C161009AC261C2690092C269B7
:10458000009208BD0246002013690B400BB10120C8
:1045900000E0002070470146086980B2704702467B
:1045A000002053690B400BB1012000E00020704750
:1045B0000146486980B27047018370474183704764
:1045C0000AB1018300E0418370474161704742694D
:1045D0004A4042617047F0B5002300244D07ED0EBC
:1045E00002FA05F3CE1000F1200555F826504E07CB
:1045F000F70E0F26BE40B543CF1000F1200646F857
:104600002750CE1000F1200555F8265045EA030446
:10461000CE1000F1200545F82640F0BD0000024014
:104620000004024000080240000C0240001002405A
:104630000014024000180240001C0240002002400A
:10464000FA48006840F00100F84908600020F74986
:1046500008310860F5480068F5490840F3490860EA
:10466000F448091D0860081F006820F48020091F15
:1046700008600020ED490C31086070470021EB4ACA
:10468000921C117011460870704710B50146002247
:10469000002300204A11012A02D1E44C236808E0DB
:1046A000022A03D1E14C7034236802E0DF4C7434F9
:1046B000236801F01F02012494401C400CB101202A
:1046C00000E0002010BD38B5002000900024002537
:1046D00000BF3120FFF7D9FF05460098401C00902D
:1046E0000098B0F5A06F01D0002DF2D03120FFF777
:1046F000CCFF08B1012400E00024204638BD01466B
:104700000020CA4A106820F0F80040EAC10010609A
:104710007047C949086070470021C44A703211705F
:104720001170012802D004280AD104E00121BF4AF7
:104730007032117005E00521BC4A7032117000E042
:1047400000BF00BF7047BD490860704770B5049C4A
:1047500041EA82150126C6EB530645EA06450543A4
:1047600045EA0465B14E361D356070BDB249086634
:104770007047820142EA0172AC4B84331A60704781
:10478000AD4988667047AC49C8647047024600204E
:10479000A64B0833186820F0EC6042EA0103184386
:1047A000A24B083318607047024600209F4B083325
:1047B000186820F0784042EA010318439B4B083305
:1047C0001860704701460020984A0832106820F0AF
:1047D000030008431060704794480830006800F0F8
:1047E0000C00704701460020904A0832106820F003
:1047F000F000084310607047014600208B4A0832E1
:10480000106820F4E0500843106070470146002013
:10481000864A0832106820F4604040EAC100106007
:104820007047F0B500210022002402250026022353
:104830007E4F08373F6807F00C0121B1042905D0ED
:10484000082937D105E07E4F076036E07D4F0760CD
:1048500033E0764F3F1D3F68C7F38056734F3F1DCF
:104860003F6807F03F036EB1764FB7FBF3F7DFF811
:10487000BCC10CF1040CDCF800C0CCF3881C07FBB5
:104880000CF40CE06E4FB7FBF3F7DFF8A0C10CF1AE
:10489000040CDCF800C0CCF3881C07FB0CF4634F5D
:1048A0003F1D3F68C7F301477F1C7D00B4FBF5F750
:1048B000076002E0624F076000BF00BF5B4F083730
:1048C0003F6807F0F00109095F4F7A5C0768D7403D
:1048D0004760564F08373F6807F4E051890A5A4F3E
:1048E0007A5C4768D7408760504F08373F6807F4C5
:1048F0006041490B544F7A5C4768D740C760F0BDB0
:10490000002100F44072B2F5407F0AD1474A0832D4
:10491000116821F4F8114D4A02401143434A08320C
:104920001160424A70321268C0F30B031A433F4BC6
:1049300070331A60704741494439086070473F49F5
:1049400040390860704742490860704739B1374ABA
:10495000303212680243354B30331A6006E0334A76
:10496000303212688243314B30331A60704739B1AC
:104970002E4A3432126802432C4B34331A6006E05C
:104980002A4A343212688243284B34331A60704703
:1049900039B1264A383212680243244B38331A6040
:1049A00006E0224A383212688243204B38331A60BC
:1049B000704739B11D4A4032126802431B4B4033E5
:1049C0001A6006E0194A403212688243174B40339E
:1049D0001A60704739B1154A443212680243134BCA
:1049E00044331A6006E0114A4432126882430F4B86
:1049F00044331A60704739B10C4A103212680243CE
:104A00000A4B10331A6006E0084A103212688243DB
:104A1000064B10331A607047E1B1044A1432126831
:104A20000243024B14331A6019E0000000380240C0
:104A3000FFFFF6FE1030002400004742800E474280
:104A40000024F40040787D01C4000020FFFCFF0F2B
:104A50005C0147425B4A126882435A4B1A607047B6
:104A600039B1584A121D12680243564B1B1D1A6079
:104A700006E0544A121D12688243524B1B1D1A60F5
:104A8000704739B14F4A0C32126802434D4B0C3318
:104A90001A6006E04B4A0C3212688243494B0C33D1
:104AA0001A60704739B1474A103212680243454BC9
:104AB00010331A6006E0434A103212688243414BB9
:104AC00010331A60704739B13E4A3C3212680243D3
:104AD0003C4B3C331A6006E03A4A3C32126882434F
:104AE000384B3C331A60704739B1364A403212684D
:104AF0000243344B40331A6006E0324A40321268B7
:104B00008243304B40331A60704739B12D4A4432EA
:104B1000126802432B4B44331A6006E0294A4432A0
:104B200012688243274B44331A60704739B1254AD3
:104B30004C3212680243234B4C331A6006E0214A80
:104B40004C32126882431F4B4C331A60704739B1A4
:104B50001C4A5032126802431A4B50331A6006E066
:104B6000184A503212688243164B50331A6070470D
:104B700039B1144AD21F12780243124BDB1F1A704C
:104B800006E0104AD21F127882430E4BDB1F1A70C8
:104B900070470C486030006840F08070094960310F
:104BA0000860704701460020064A083A12680A4029
:104BB0000AB1012000E0002070470249891F0870F7
:104BC000704700001438024010B50446FE48844285
:104BD00008D101210846FFF765FF00210120FFF7FA
:104BE00061FF9DE0B4F1804F08D101210846FFF735
:104BF00048FF00210120FFF744FF91E0F348844281
:104C000008D101210220FFF73CFF00210220FFF71D
:104C100038FF85E0EE48844208D101210420FFF7E7
:104C200030FF00210420FFF72CFF79E0E94884429F
:104C300008D101210820FFF724FF00210820FFF7F9
:104C400020FF6DE0E448844208D101211020FFF7E5
:104C500018FF00211020FFF714FF61E0DF488442B5
:104C600008D101212020FFF70CFF00212020FFF7B1
:104C700008FF55E0DA48844208D101210220FFF7FD
:104C800011FF00210220FFF70DFF49E0D5488442C3
:104C900009D101210804FFF705FF00214FF48030FE
:104CA000FFF700FF3CE0D048844209D101214804CD
:104CB000FFF7F8FE00214FF40030FFF7F3FE2FE07E
:104CC000CA48844209D101218804FFF7EBFE002184
:104CD0004FF48020FFF7E6FE22E0C548844208D169
:104CE00001214020FFF7CDFE00214020FFF7C9FE43
:104CF00016E0C048844208D101218020FFF7C1FEA0
:104D000000218020FFF7BDFE0AE0BB48844207D1A6
:104D100001218015FFF7B5FE0021A015FFF7B1FEB8
:104D200010BD00220288A84B98420ED0AC4B98428E
:104D30000BD0B0F1804F08D0A44B984205D0A44BC3
:104D4000984202D0A34B984204D14FF68F731A4079
:104D50004B881A43A04B984207D0A04B984204D0EE
:104D60004FF6FF431A400B891A4302804B68C36217
:104D70000B880385944B984202D0994B984201D1FD
:104D80008B7A03860123838270474FF0FF314160A5
:104D900000210180018141808172704701858282FA
:104DA00070470A46002101884FF68F73194011435E
:104DB0000180704741627047C16270470146486A8E
:104DC00070470146088D704721B1028842F0020207
:104DD000028004E002884FF6FD731A40028070479B
:104DE00021B1028842F00402028004E002884FF6FA
:104DF000FB731A400280704721B1028842F08002A2
:104E0000028004E002884FF67F731A4002807047E8
:104E100002884FF6F7731A40028002880A43028024
:104E2000704702884FF6FF431A40028002880A4307
:104E30000280704721B1028842F00102028004E042
:104E400002884FF6FE731A400280704770B5002446
:104E500000220023058C4FF6FE7635400584028C37
:104E60008388048B4FF68F752C40B51E2C400D881F
:104E70002C43751E2A408D892A434D882A43524D62
:104E8000A84202D0564DA84213D14FF6F7752A40DA
:104E9000CD892A434FF6FB752A408D882A434FF669
:104EA000FF652B404FF6FF552B400D8A2B434D8A53
:104EB0002B43838004838D684563028470BD70B585
:104EC000002400220023058C4FF6EF763540058440
:104ED000028C8388048B48F6FF752C404FF6FF4503
:104EE0002C400D884FF6FF7606EA05252C434FF639
:104EF000DF752A408D8906EA05152A434D8806EAA2
:104F000005152A43304DA84202D0354DA8421DD187
:104F10004FF67F752A40CD894FF6FF7606EA0515D4
:104F20002A434FF6BF752A408D8806EA05152A43A5
:104F30004FF6FF352B404FF2FF752B400D8A06EAE6
:104F400085052B434D8A06EA85052B438380048320
:104F50008D688563028470BD70B500240022002333
:104F6000058C4FF6FF6635400584028C8388848B60
:104F70004FF68F752C404FF6FC752C400D882C4356
:104F80004FF6FF552A408D894FF6FF7606EA052534
:104F90002A434D8806EA05252A430B4DA84202D034
:104FA0000F4DA84238D14FF2FF752A40CD894FF6F8
:104FB000FF7606EA05252A434FF6FF352A408D88FD
:104FC00006EA05252A4319E00000014000040040DC
:104FD00000080040000C0040001000400014004099
:104FE00000040140004001400044014000480140ED
:104FF00000180040001C0040002000404EF6FF75E5
:105000002B404DF6FF752B400D8A06EA05152B4304
:105010004D8A06EA05152B43838084838D68C5631A
:10502000028470BD70B5002200230024058C4EF66A
:10503000FF7635400584038C8488828B48F6FF75A3
:105040002A404FF6FF452A400D884FF6FF7606EAC4
:1050500005252A434DF6FF752B408D8906EA053557
:105060002B434D8806EA05352B43FE4DA84202D05E
:10507000FD4DA84208D14BF6FF752C400D8A4FF626
:10508000FF7606EA85152C43848082838D6805644B
:10509000038470BD00210180418081808160818115
:1050A000C18101824182704770B50346002000240F
:1050B0001846183001258D40ACB21D8CA5431D84C7
:1050C00009B108290AD100EB610005684FF68F7617
:1050D000354005600568154305600FE00D1FC5F3F9
:1050E0004E052844056848F6FF763540056005689A
:1050F0004FF6FF7606EA02263543056070BD416330
:10510000704781637047C1637047016470470A4606
:105110000021018B4FF68F731940114301837047B3
:105120000A460021018B48F6FF7319404FF6FF73C2
:1051300003EA02231943018370470A460021818B49
:105140004FF68F7319401143818370470A4600213F
:10515000818B48F6FF7319404FF6FF7303EA022371
:105160001943818370470A460021018B4FF6F7737C
:1051700019401143018370470A460021018B4FF209
:10518000FF7319404FF6FF7303EA022319430183AB
:1051900070470A460021818B4FF6F773194011437F
:1051A000818370470A460021818B4FF2FF731940BB
:1051B0004FF6FF7303EA02231943818370470A46BF
:1051C0000021018B4FF6FB73194011430183704797
:1051D0000A460021018B4FF6FF3319404FF6FF734B
:1051E00003EA02231943018370470A460021818B99
:1051F0004FF6FB7319401143818370470A46002123
:10520000818B4FF6FF3319404FF6FF7303EA0223F9
:105210001943818370470A460021018B4FF67F7343
:1052200019401143018370470A460021018BC1F3E5
:105230000E014FF6FF7303EA0223194301837047FF
:105240000A460021818B4FF67F73194011438183F9
:1052500070470A460021818BC1F30E014FF6FF73A0
:1052600003EA02231943818370470A460021018C17
:105270004FF6FD7319401143018470470A4600211F
:10528000018C4FF6F77319401143018470470A46A9
:105290000021018C4FF6DF7319404FF6FF7303EACC
:1052A00002131943018470470A460021018C4FF60E
:1052B0007F7319404FF6FF7303EA02131943018409
:1052C00070470A460021018C4FF6FF5319404FF6F4
:1052D000FF7303EA02231943018470470A46002141
:1052E000018C4FF2FF7319404FF6FF7303EA02235C
:1052F0001943018470470A460021018C4DF6FF7363
:1053000019404FF6FF7303EA0233194301847047D3
:1053100030B5002301248C40A3B2048C9C43048448
:10532000048C02FA01F5ADB22C43048430BD30B5D3
:10533000002304248C40A3B2048C9C430484048C7A
:1053400002FA01F5ADB22C43048430BD828B4FF2DA
:10535000FF331A408283828B4FF6FF7303EA0123E7
:105360001A4382837047F0B50C461546002100228F
:105370000026078C4EF6FF7C07EA0C070784818B1A
:10538000028C4FF6FF7707EA043640F6FF473940B4
:105390004FF6FF7707EA052739434FF6FF7707EA0D
:1053A0000337394345F6FF773A4046F480573A438E
:1053B00081830284F0BD828B4FF6F3731A4082839F
:1053C000828B0A4382837047F0B50C461546002154
:1053D00000220026078C4FF6FF6C07EA0C070784B3
:1053E000818B028C4FF6FF7707EA04264FF60C7785
:1053F00039404FF6FF7707EA03172F4339434FF23F
:10540000FF573A4046F480773A4381830284F0BDE7
:10541000028B4FF2FF331A400283028B4FF6FF7369
:1054200003EA01231A4302837047F0B50C46154680
:10543000002100220026078C4FF6EF7C07EA0C07BC
:105440000784018B028C4FF6FF7707EA041640F6BB
:10545000FF4739404FF6FF7707EA033739434FF6E6
:10546000FF7703E0000001400004014007EA052740
:1054700039434FF65F773A4046F010073A430183CD
:105480000284F0BD028B4FF6F3731A400283028B45
:105490000A4302837047F0B50C46154600210022EE
:1054A000068C4FF6FE773E400684018B028C4FF649
:1054B0000C7631407E1C06EA03162E4331434FF62C
:1054C000F576324044F00106324301830284F0BD98
:1054D00070B505460C46208850B92389A28861889A
:1054E0002846FFF7D8FFE1882846FFF7CBFF25E0E5
:1054F000208804280AD12389A28861882846FFF7DA
:1055000094FFE1882846FFF783FF17E020880828EA
:105510000AD12389A28861882846FFF755FFE188D0
:105520002846FFF748FF09E02389A28861882846BA
:10553000FFF719FFE1882846FFF708FF70BD00213B
:1055400001804180012181800021C180018170475B
:105550002DE9F04105460C4600260127608808B970
:10556000022600E00026A088012801D1022700E0E1
:1055700001272088A0B92389A28861882846FFF7DF
:105580008AFFE1882846FFF77DFF23893A463146A6
:105590002846FFF74AFFE1882846FFF739FF13E066
:1055A0002389A28861882846FFF73FFFE1882846C3
:1055B000FFF72EFF23893A4631462846FFF76BFF57
:1055C000E1882846FFF75EFFBDE8F0810146486BA1
:1055D00070470146886B70470146C86B70470146AB
:1055E000086C70470A884B881A438B881A43CB880B
:1055F0001A430B891A434B891A438B891A43A0F823
:10560000442070470021018041808180C180018158
:1056100041818181704731B1B0F8442042F40042A9
:10562000A0F8442005E0B0F84420C2F30E02A0F830
:105630004420704721B1828842F00402828004E055
:1056400082884FF6FB731A408280704721B18288AE
:1056500042F00102828004E082884FF6FE731A4015
:10566000828070471AB183890B43838102E083896A
:105670008B43838170478182704702460020138AE2
:105680000B400BB1012000E000207047CA430282AA
:10569000704730B50246002000230024158A05EA31
:1056A0000103958905EA010413B10CB1012000E062
:1056B000002030BDCA430282704741EA0203A0F8CD
:1056C000483070471AB183890B43838102E0838994
:1056D0008B438381704721B1828842F00802828027
:1056E00004E082884FF6F7731A4082807047018980
:1056F0004FF6F8721140018170470A460021018976
:105700004FF68F73194011430181704730B504463D
:105710000D4629462046FFF7F0FF208940F007009C
:10572000208130BD2DE9F04104460D4616461F4646
:10573000602D06D13B46012231462046FFF775FE1B
:1057400005E03B46012231462046FFF7A4FE2946EC
:105750002046FFF7D2FF208940F007002081BDE8F6
:10576000F08130B50C4600210189C9B24FF6FF75B2
:1057700005EA0325154325432943018130BD2DE961
:10578000F04105460E4617469846002443463A46E1
:1057900031462846FFF7E5FF2C894FF6F8700440A4
:1057A00044F007044FF68F70044044F070042C81DD
:1057B000BDE8F081F0B504460D4616461F463B464F
:1057C000324629462046FFF7CCFF208940F480402E
:1057D0002081F0BD82884FF68F731A4082808288C4
:1057E0000A438280704702894FF6F8731A4002819B
:1057F00002890A430281704702894FF67F731A407B
:10580000028102890A4302817047F0B50C461546B1
:105810001E460021002200230189028B038C4FF6D3
:10582000F877394021434FF6FC473A4040F20117E0
:105830003A434FF6DD773B404FF6FF7707EA06170E
:105840002F433B43018102830384F0BD21B1828851
:1058500042F08002828004E082884FF67F731A4013
:1058600082807047A0F850107047000010B50446C1
:10587000F748844208D101211020FFF713F90021D5
:105880001020FFF70FF93EE0F248844209D10121D0
:105890004804FFF7F6F800214FF40030FFF7F1F865
:1058A00031E0ED48844209D101218804FFF7E9F88D
:1058B00000214FF48020FFF7E4F824E0E748844219
:1058C00009D10121C804FFF7DCF800214FF40020C2
:1058D000FFF7D7F817E0E248844209D10121080513
:1058E000FFF7CFF800214FF48010FFF7CAF80AE065
:1058F000DC48844207D101212020FFF7D3F80021A2
:105900002020FFF7CFF810BD2DE9FF4705460E46D2
:105910000024A14600BFA046B08900B100BF2C8A78
:1059200024F44054F08804432C82AC8941F20C608A
:105930008443B08831890843718908430443AC81AA
:10594000AC8A24F44074B0890443AC826846FEF704
:1059500068FFBF48854202D0C248854202D1DDF8C7
:105960000C9001E0DDF80890A88900F4004040B1F7
:1059700009EBC90000EB091031684900B0FBF1F7F1
:1059800007E009EBC90000EB091031688900B0FBA2
:10599000F1F76420B7FBF0F004012009642101FB5A
:1059A0001078A88900F4004040B1322000EBC80014
:1059B000B0FBF1F000F00700044308E0322000EBF8
:1059C00008106421B0FBF1F000F00F0004432C81BB
:1059D000BDE8FF874FF41651016000218180C1802E
:1059E00001810C21418100218181704710B502465F
:1059F0000020108A20F470600B884C8823438C8828
:105A00002343CC8823431843108210BD002101801A
:105A100041808180C180704721B1828942F4005267
:105A2000828104E082894DF6FF731A4082817047BB
:105A3000028B02F47F420283028B0A430283704787
:105A400021B1828942F40042828103E08289C2F35B
:105A50000E028281704721B1828A42F40062828202
:105A600004E0828A4FF2FF731A4082827047C1F3CA
:105A700008028280704701468888C0F3080070479A
:105A8000028A4FF6F0731A400282028A0A430282A7
:105A9000704721B1828942F00202828104E082894A
:105AA0004FF6FD731A408281704782894FF2FF736F
:105AB0001A40828182890A4382817047028A4FF6A6
:105AC000DF731A400282028A0A430282704721B1C0
:105AD000028A42F48042028204E0028A4BF6FF739B
